:020000040000FA
:10000000402A0020C1030000C9030000CB03000008
:10001000CD030000CF030000D1030000000000006A
:10002000000000000000000000000000D3030000FA
:10003000D503000000000000D7030000D903000032
:1000400005060000DB030000E5080000DB030000FC
:10005000DB030000DB03000061050000DB030000A0
:10006000DB030000DB030000DB030000DB03000018
:10007000DB030000DB030000DB030000DB03000008
:10008000DB0300008D060000DB030000DB03000043
:10009000DB030000DB030000DB030000DB030000E8
:1000A000DB030000DB030000DB030000DB030000D8
:1000B0005D060000DB0300000000000000000000FF
:1000C000DB0300006D0600007D060000DB0300007E
:1000D000DB030000DB030000DB030000DB030000A8
:1000E000DB030000DB030000DB0300000000000076
:1000F00000000000DB03000000000000DB03000044
:1001000000000000000000000000000000000000EF
:1001100000000000000000000000000000000000DF
:1001200000000000000000000000000000000000CF
:1001300000000000000000000000000000000000BF
:1001400000000000000000000000000000000000AF
:10015000000000000000000000000000000000009F
:10016000000000000000000000000000000000008F
:10017000000000000000000000000000000000007F
:10018000000000000000000000000000000000006F
:10019000000000000000000000000000000000005F
:1001A000000000000000000000000000000000004F
:1001B000000000000000000000000000000000003F
:1001C000000000000000000000000000000000002F
:1001D000000000000000000000000000000000001F
:1001E000000000000000000000000000000000000F
:1001F00000000000000000000000000000000000FF
:10020000DFF80CD000F06EF900480047591E0000DE
:10021000402A002030B450E8012F93B2C48923440F
:100220008489A34228BF1B1B0489A34202BFBFF3DA
:100230002F8F002007E0C3EA020340E80134002CBE
:10024000E9D14FF001000A6030BC704750E8012F3F
:10025000C2EA024240E801210029F7D1704730B4D8
:1002600050E8022F1FFAA2F3C488A34202BFBFF3D3
:100270002F8F00200DE0C48923448489A34228BF26
:100280001B1BC2EA034340E80234002CE8D14FF0C4
:1002900001000A6030BC704750E8022FC2EA2242D7
:1002A00040E802210029F7D17047034653E8022FA6
:1002B000D988B2EB324F4FF0000017BF92B241EA3B
:1002C000014142EA014104E05A68B2EB324F08BFF3
:1002D000012043E80212002AE8D1704730B40446F6
:1002E00054E8000F0D4644E80053002BF8D1156088
:1002F00030BC704730B4044654E8000F40EA0105B2
:1003000044E80053002BF7D1156030BC704730B47F
:10031000044654E8000F00EA010544E80053002BAE
:10032000F7D1156030BC704730B4044654E8000F74
:1003300080EA010544E80053002BF7D1156030BC7A
:10034000704730B4044654E8000F00EB010544E860
:100350000053002BF7D1156030BC704730B4044611
:1003600054E8000FA0EB010544E80053002BF7D13F
:10037000156030BC704770B404464FF0000054E87C
:10038000006F0D68AE4207BF44E80023012044E837
:1003900000630E60002B1CBF0020F0E770BC7047AC
:1003A00030B4044654E8000F88422CBF451A054675
:1003B00044E80053002BF5D1156030BC70470000B5
:1003C0000648804706480047FEE7FEE7FEE7FEE7EF
:1003D000FEE7FEE7FEE7FEE7FEE7FEE79D0600001C
:1003E000010200002DE9F05F0546002092469B4681
:1003F00088460646814640241BE02846414647463B
:10040000224600F05EF853465A46C01A914110D376
:1004100011461846224600F016F82D1A67EB01081F
:100420004F4622460120002100F00DF817EB00098D
:100430004E41201EA4F10104DFDC484631462A4625
:100440004346BDE8F09F202A04DB203A00FA02F17F
:10045000002070479140C2F1200320FA03F31943B2
:1004600090407047004870476444000040EA010330
:100470009B0703D009E008C9121F08C0042AFAD25A
:1004800003E011F8013B00F8013B521EF9D270471E
:10049000D2B201E000F8012B491EFBD270470022C6
:1004A000F6E710B513460A4604461946FFF7F0FF73
:1004B000204610BD421C10F8011B0029FBD1801AF8
:1004C0007047202A04DB203A21FA02F0002170470D
:1004D00021FA02F3D040C2F12002914008431946AC
:1004E00070470000064C074D06E0E06840F001034D
:1004F00094E8070098471034AC42F6D3FFF784FE27
:100500003C4500005C45000070B58C1810F8015B9C
:1005100015F0070301D110F8013B2A1106D110F89C
:10052000012B03E010F8016B01F8016B5B1EF9D1A0
:100530002B0705D40023521E0DD401F8013BFAE726
:1005400010F8013BCB1A921C03E013F8015B01F891
:10055000015B521EF9D5A142D8D3002070BD000026
:100560002DE9FC410025DFF8948000954FF480765A
:1005700001242F460195304602F0B4F838B1D8F87E
:100580000403204203D0304602F0A2F82543361D72
:1005900064007F1CB6B2082FEDD34FF4BE74204622
:1005A00002F0A0F848B1204602F092F845F000456C
:1005B0006A460221002001F0E5FF15F0FF0F16D07A
:1005C000012600242E420ED008EB8401D1F810053C
:1005D000D1F81015C0F30520094AC1F3014152F8C2
:1005E000242002B190477600641C082CEAD3002D29
:1005F00002DA684603F022F9BDE8FC8100600040A1
:10060000EC02002070B54FF48076304601F07BFD9F
:10061000114CB50560B1304601F07CFD0120C5F8F4
:100620000803607920B901206071216800208847A3
:100630004FF48276304601F066FD00280AD030463D
:1006400001F068FD0220C5F808032168BDE870408C
:100650000120084770BD00009400002001490248B5
:1006600001F02CBB5803002000C0014001490248A2
:1006700001F024BB60030020001002400149024841
:1006800001F01CBB68030020002002400249024820
:10069000091F096800680847EC000020F0B54FF01A
:1006A00080527F4ED2F830017E4FD2F83411431C75
:1006B00008D005464FEA010400234FF0010C082D35
:1006C00005D013E03B783578C3F30314F4E72CB17D
:1006D000012C03D0022C01D0032C07D14FF0804411
:1006E000C4F80C31C4F810316F4C2360441C04D0A2
:1006F00005460C46082D05D061E03C783578C4F3FA
:100700000314F7E72CB1012C03D0022C01D0032CE9
:1007100055D1664C2468664D2C60644C241D2468B9
:100720002D1D2C60614C083424682D1D2C605F4CFD
:100730000C3424682D1D2C605C4C103424682D1D55
:100740002C605A4C143424682D1D2C60574C1834DE
:100750002468574D20352C60544C1C3424682D1DC2
:100760002C60524C203424682D1D2C604F4C2434B6
:1007700024682D1D2C604D4C283424682D1D2C60C0
:100780004A4C2C3424682D1D2C60484C303424688D
:10079000474D40352C60454C343424682D1D2C6069
:1007A000424C383424682D1D2C60404C3C34246865
:1007B0002D1D2C603D4C403424682D1D2C600828D4
:1007C00004D10C0002D13C4D3A4C2C60082804D1D5
:1007D0000C0002D1394DFB242C60082808D10C00F4
:1007E00006D192F85852364A146865F3030414602F
:1007F000082804D10A0002D1324C82012260421C36
:1008000003D139783078C1F3031108280DD129B10B
:10081000012903D0022901D0032906D12A48016801
:10082000C90702D06FF0010101602848016841F456
:1008300070010160BFF34F8FBFF36F8F4FF0102136
:10084000D1F80002002803DBD1F80402002823DAE3
:100850001F4AC2F800C01F480468002CFCD01224B4
:10086000C1F800420568002DFCD0C1F804420168BF
:100870000029FCD0136001680029FCD0BFF34F8F22
:1008800012487C380168144A01F4E06111430160A8
:10089000BFF34F8F00BFFDE7114910480860F0BD5E
:1008A000E00F00F0E80F00F03805004004040010ED
:1008B00020C50040488103008C56004018F50040D8
:1008C000E40E0040409602400004004088ED00E045
:1008D00004E5014000E401400400FA050090D00363
:1008E0006801002001480068004700009C000020CB
:1008F00002E008C8121F08C1002AFAD170477047E9
:10090000002001E001C1121F002AFBD17047022024
:1009100000F0B0B970B50024064D06E0686801210A
:1009200010F8340002F0EAFA641C28788442F5D307
:10093000002070BDA8000020F8B516460C460546FC
:100940000A2A01D20720F8BD02F0D0FB18B902F044
:1009500091FB0028F7D1134F202113487D603C7094
:10096000BE60FFF79CFD0020C7E904000F4E0DE0BC
:1009700005EBC4003168009181788DF80110007892
:100980000B4A694602F006FB0028DCD1641EE4B283
:10099000EED2BDE8F84005480021064A001D00F0EF
:1009A0005BB80000A8000020E003002070430000B6
:1009B0001D1B00001D17000070B514460D460646AD
:1009C00000F09BF9224629463046BDE8704000F011
:1009D0000BB80EB500210091CDE901106A4644F232
:1009E0000100FFF7E9FF0EBD08B501238DF80030C7
:1009F0009DF80030144B186059609A606FF4804184
:100A0000401807D001280FD1DA60D86800689861D3
:100A1000D86807E01A611869806858611869006829
:100A2000986118694068D861186858689868D868EB
:100A3000186958699869D86972B600BF9DF80000B6
:100A40000028FBD162B608BD00040020014800F078
:100A5000CCBE0000C80000203AB100680129426104
:100A600000D000210161002070470720704700007E
:100A700038B5114808235822416800910F49006891
:100A800001F08CFA002815D10D4A69460D4800F096
:100A9000B1FE04000ED101210A4800F026FF012317
:100AA000094A1946074800F078FE0649012008392E
:100AB0000870204638BD0000784300003004002054
:100AC000093A0000C8000020FFFF7F0070B504460F
:100AD000007F0D4608B1002070BDA26101F004F84E
:100AE000401941F10001C4E90201206900B125610A
:100AF0002146BDE87040002003F066B901460020A1
:100B00000877012003F060B900F002B800F008B8DF
:100B100072B602480168491C01607047E400002079
:100B200003490868401E086000D162B670470000A3
:100B3000E400002070B5054608680C46411C04D04E
:100B400001F09FFD206801F0F1FC6068411C02D0BB
:100B5000002101F0D9FC2968A069C1F82405607D55
:100B6000227D29681043C1F86C05D4E90012286879
:100B7000C0F81425C0F80C15207D012814D1A068F8
:100B8000411C02D0002101F0BFFCE068411C04D0F0
:100B900001F077FDE06801F0C9FCD4E90212286891
:100BA000C0F80825C0F8101570BD70B50546086876
:100BB0000C46411C04D001F06EFD206801F0C0FC21
:100BC0006068411C02D0002101F0A7FC2968A069DF
:100BD000C1F82405607D217D2A680843C2F86C05B0
:100BE000D4E900122868C0F80C15C0F81425207D3F
:100BF000012814D1A068411C02D0002101F08DFC15
:100C0000E068411C04D001F046FDE06801F098FC6A
:100C1000D4E902122868C0F80825C0F8101570BD84
:100C20002DE9FC410646C0074FF000050ED0104FDD
:100C300000240122385D009500231146019501F042
:100C4000EDFB641C042CF4D300F04EF8B0070DD576
:100C5000074E0024361D0022305D03230095114607
:100C6000019501F0DBFB641C042CF4D3BDE8FC818E
:100C70002C430000094908B5085C0090684601F063
:100C800099FCD0F80425009B0121994021EA020338
:100C9000C0F808351140C0F80C1508BD2C43000001
:100CA0000249085C012101F000BD00002C43000056
:100CB0000249085C002101F0F8BC00002C43000050
:100CC000084908B5085C0090684601F073FCD0F84C
:100CD00004050099C84010F0010000D0012080F008
:100CE000010008BD2C43000010B500242046FFF78A
:100CF000D7FF641C042CF9D310BD10B50024204686
:100D0000FFF7D6FF641C042CF9D310BD10B50246C2
:100D1000064B4FF0FF3000215C5C944201D1084645
:100D200010BD491C0429F7D310BD0000304300005A
:100D30002DE9F0470D468146FFF7E8FF04460428F9
:100D400036D2DFF874801B481C4EA8F10C0725B37F
:100D5000012D0ED0022D2BD104EB440030444578F8
:100D6000002D25D0B968002922D02846BDE8F047DB
:100D7000084704EB4401755C0E44717849B10E4A92
:100D80004FF48041093A8068FFF7A0FE08B987F860
:100D90000390B17808F80410E2E78068FFF7AEFE30
:100DA00004EB4401314418F804008D78A842D7D0F0
:100DB000BDE8F087344300007C000020A80200203A
:100DC000FFF7A8BD70B50023042810D20D4D00EB2D
:100DD0004004012A02D101290CD00022094E00EB67
:100DE0004000304461B1012906D0022906D0072312
:100DF000184670BD0E30C2B22A55F9E74270F7E7C7
:100E00008270F5E7A802002070B586B0064614226D
:100E100019496846FFF72AFB184C00250E2E617809
:100E200006D00F2E25D1042908D2491C617006E096
:100E300009B1491EFAE70420607000E0657020786F
:100E4000C00703D00D48001D02F056FA2078800735
:100E500003D50A480C3002F04FFA2078400703D53A
:100E60000648143002F048FA257061785DF82100D8
:100E7000804706B070BD000018430000000000204D
:100E800070B506461E480024C0E90161B00720D5B0
:100E90000025012211462846FFF794FF6D1C0446E9
:100EA000042D02D2002CF4D013E094B940F2333276
:100EB00004211448FFF740FD04000AD1FFF72AFD82
:100EC000040006D10F48104A0021001FFFF7C4FD9F
:100ED0000446F00712D00120FFF7A2FE74B90948BA
:100EE0000A4A00210C38FFF7B7FD040006D1054877
:100EF000074A01210838FFF7AFFD0446204670BDC0
:100F00007000002040430000D9110000A11D000026
:100F10000F0900002DE9F05F6E4C05460026607851
:100F2000B34618B184F801B000F022FF6A4F4FF4C5
:100F30007A694FF4C87A4FF00108182D69D2DFE8BA
:100F400005F00C1313384754696E727B727BC584AD
:100F500084848484B3B6B9BCC5C500F009FF386881
:100F6000FFF7CCFD06465CE00020FFF7A9FE002855
:100F70004FF0000008D0FFF793FE022D02D14FF48E
:100F8000E16008E0484606E0FFF792FE022D01D13D
:100F9000C82000E05046410CC0034FF47A7280181C
:100FA00041F10001257052000023FFF71BFA0146B2
:100FB0002AE00020FFF784FE00284FF0000004D054
:100FC000FFF76EFE4FF44870E5E7FFF771FEDFE7CD
:100FD0000020FFF775FE00284FF0000002D0FFF759
:100FE0005FFECFE7FFF764FED4E70020FFF768FE5F
:100FF00000284FF0000002D0FFF752FE01E0FFF79B
:1010000057FE257040F6CD4100223868FFF75EFD9F
:10101000064646E00020FFF72DFE257008E0002080
:1010200051E025703DE084F801800120FFF722FEA9
:10103000002240F26661E8E784F801800120FFF7B2
:1010400019FE00224FF40051DFE77868FFF756FDE4
:101050000646D5F1110000D02EB10220FFF720FE88
:1010600084F802B01DE0012816D980B2C821484397
:10107000C117C90341EA5041C0034FF47A72801886
:1010800041F1000152000023FFF7ACF901460022B4
:101090007868FFF71BFD06460220FFF709FE84F87B
:1010A00002803046BDE8F09F00F062FEB9E700F034
:1010B0005FFEB4E700F05CFE04E000F059FE0020A3
:1010C000FFF7F6FD0120FFF7F3FDAAE7FFF715FE96
:1010D000A7E7000070000020344300002DE9F0472E
:1010E0000546861C91460F464FF0010A0020FFF787
:1010F0000BFD1B4C04F21C4860683860D4E9010108
:10110000184F401A3968081A0EE00121404600F0D5
:101110008AFF00F04FFE0146404600F084FFD4E90C
:101120000101401A3968081A401C8642EDD8B9F10D
:10113000000F03D0052065F3891002E0062065F357
:101140009F5061683A68114004EB8101C860606893
:10115000304460600020FFF7D9FC5046BDE8F087BE
:10116000200600201401002070B50D4604460A290F
:1011700002D10D21FFF7F8FFA0682268411CA16091
:101180001554D4E90101814204D32046BDE87040E2
:1011900001F04BB870BD000004488168406881428E
:1011A00001D1012070470020704700002006002078
:1011B000034630B5074800210478426806E000BFC6
:1011C00002EBC10005789D4203D0491CA142F7DB28
:1011D000002030BDA800002000780221FFF7A8BD44
:1011E00005494FF0FF32082841F8202002D3084477
:1011F00080F8582070470000EC020020F0B54FF056
:10120000FF3512B10023082601E008230C260C4C00
:1012100005E000BF54F823707F1C04D05B1CB34270
:10122000F8D32846F0BD26185DB286F8305044F851
:101230002310002AF5D1E11881F85800F1E70000E9
:10124000EC0200200249084490F930007047000089
:10125000EC02002070B5084C050009D0103421685C
:10126000002907D008682060496828468847F6E7C3
:101270000834F4E770BD0000D8020020054A0121BF
:1012800020B1012805D19170FFF7E4BF5170002013
:10129000FAE77047D802002010B5D0E90234D1E94E
:1012A0000220D11AA04101D3012010BD002010BDA1
:1012B0002DE9F04186B000240F46804601256E4698
:1012C000385DFF2823D0C10920F0800046F82400B3
:1012D000049004A807D001F089F9049905FA01F1F6
:1012E000C0F8081506E001F081F9049905FA01F14A
:1012F000C0F80C1556F82400049004A801F076F903
:10130000049A032100EB8200C0F8001703E04FF0BD
:10131000FF3046F82400641CE4B2042CD0D3D8F883
:1013200000106B46002000BF01EB800253F8204004
:10133000C2F86045401CC0B20428F5D306B0BDE831
:10134000F08100000EB516481649401AC008032166
:1013500001EB004014A101F0C5FB154A07CA8DE856
:101360000700144A6946144801F022FF08B1FFF74C
:1013700030FB114A0223121F02F11C01107840F0C9
:10138000010010700020088048808880C88090701C
:10139000074901221039084801F076FF0EBD000010
:1013A000BC4500006C45000044656D6F20310000B5
:1013B0004C420000BD1300000400002070B500285E
:1013C00022D112484FF0000200F11C0483785D081E
:1013D00013F0010F34F8151004D0C8390904090CB2
:1013E00006D006E0C83189B242F21076B14200D38D
:1013F000012224F81510002A06D05B1CD9B2817096
:10140000082901D30021817070BD00000000002078
:101410002148224910B5401AC008032101EB0040C1
:101420008CB01FA101F05EFB1F4C09AB04F11C0046
:1014300007C883E80700002209A91C4801F0B8FE8C
:1014400008B1FFF7C6FA1948194B001F4FF4C872CC
:10145000017841F00101017000210846114489B270
:1014600023F81010401CC0B21928F7D328340DF10E
:10147000040C0FCC8CE80F0094E80F000DF1140C55
:101480008CE80F0002200090012305AA01A907485B
:1014900001F060FE0CB010BDBC4500006C450000C2
:1014A00044656D6F203200003C42000004000020C3
:1014B0006C0100201648174910B5401AC0080321D6
:1014C00001EB004088B014A101F00CFB144C04ABFC
:1014D00004F1480007C883E80700002204A9114866
:1014E00001F066FE08B1FFF774FA0E485434001F8D
:1014F000017841F00101017094E80F008DE80F00C0
:10150000012303226946074801F0BEFE08B010BD62
:10151000BC4500006C45000044656D6F2033000041
:101520003C4200000400002058485949F0B5401AD8
:10153000C008032101EB00409BB056A101F0D2FA94
:10154000564E02AB06F16400FF2407C883E807008B
:101550008D208DF808008DF809408E208DF80A0046
:1015600007208DF80D0047F61220ADF8100001207D
:101570008DF812008DF80B40002202A9484801F0B6
:1015800017FE08B1FFF725FA454D05AF2D1F703640
:10159000287840F00100287096E80F0087E80F00D7
:1015A00004208DF80D00002041F28833ADF8103092
:1015B0003C4A8DF8120001466426314489B222F873
:1015C000101002EB400C5F1A401CC0B2ACF8647003
:1015D0003228F2D38DF808408DF809408F208DF81D
:1015E0000A002F488DF80B40002202A9083001F0B4
:1015F000DFFD08B1FFF7EDF92878284E40F0020032
:10160000803628700FCE09AF87E80F0096E80F00EC
:101610000DAF103E87E80F008DF808408DF80940A7
:101620008DF80A4090208DF80B001D48002202A979
:10163000103001F0BDFD08B1FFF7CBF92878203656
:1016400040F0040028700FCE11AC84E80F0096E83B
:101650000F0015AC84E80F000223012205A91048F1
:1016600001F012FE0E48022401230DAA09A9083038
:10167000009401F06FFD0A48012315AA11A910304A
:10168000009401F067FD1BB0F0BD0000BC450000F8
:101690006C45000044656D6F203400003C42000042
:1016A000040000209E0100201648174910B5401A7A
:1016B000C008032101EB004088B014A101F012FA28
:1016C000144C04AB04F1400007C883E80700002273
:1016D00004A9114801F06CFD08B1FFF77AF90E4832
:1016E0004C34001F017841F00101017094E80F00B3
:1016F0008DE80F00022301226946074801F0C4FD6E
:1017000008B010BDBC4500006C45000044656D6F1D
:1017100020350000BC4200000400002070B5002409
:101720000F4D10E0686800EBC406307801F09AFCB9
:101730007178012901D0012100E000214140307879
:1017400000F05CF9641C28788442EBDBD5E90401E5
:10175000084303D0BDE8704002F052BB70BD0000EA
:10176000A800002010B50021024800F067FC80F3BB
:10177000100010BD3C0A00204FF480328A400168FE
:10178000C1F848230068C0F8082370474FF4A072DE
:1017900002EB810189B200F09DB92DE9F0410546C7
:1017A0000E464FF4A07000EB860081B228684FF41B
:1017B0008034B440984622F07F47C0F80843286838
:1017C000C0F84843286801F006FB286800EB860053
:1017D000C0F840752868C0F84443B8F1000F02D043
:1017E0002868C0F80443BDE8F0810068D0F804051B
:1017F0007047000070B54379234C44F823204279A8
:10180000231D03EBC202224C1579204A121BD40877
:101810002DB10825022000EB04401EA130E0056830
:101820000A88C5F8082590F904208978002A4FEA2B
:10183000411104DB02F1E02282F8001405E002F01D
:101840000F0202F1E02282F8141D90F90410012227
:10185000002909DB01F01F0502FA05F54909890095
:1018600001F1E021C1F800514179002503EBC101EC
:101870000A71417943F83100032000EB04400EA1C6
:1018800001F030F9284670BDE8000020AC450000AA
:101890006C45000052544320696E7374616E636539
:1018A00020616C726561647920696E697469616C2C
:1018B000697A65642E0000005254433A20696E69CB
:1018C0007469616C697A65642E00000090F9040007
:1018D000002809DB00F01F0201219140400980002F
:1018E00000F1E020C0F8001270470A46022100F023
:1018F0007BB84FF4827100F0EDB8006801210160FF
:10190000704700680121416070472DE9F05F07468C
:101910000C464FF4A07000EB84001FFA80FA386880
:101920004FF48036A6409B4622F07F45C0F84863BE
:101930003868C0F808633868D0F8048500EB840282
:10194000D2F84095C2F840855146386801F043FA14
:10195000A9EB080020F07F40012806D1102001F0FB
:10196000C5FA5146386801F036FA3868D0F804856F
:10197000C0F84463A5EB080121F07F4138680129D4
:1019800000EB840010D0C0F840553868D0F804153A
:101990006FF07F4C6A1A521E22F07F42ACEB0B03B1
:1019A000934217D362B118E06D1CC0F84055102067
:1019B00001F09CFA3868D0F8040540450AD10CE0E3
:1019C00000EB84006D1CC0F840553868D0F8040561
:1019D000884202D00D20BDE8F09F012231463846F2
:1019E00000F002F80020F6E70368C3F84413002A69
:1019F00002D00068C0F80413704700002DE9F047DA
:101A00000E463249804601EB5001C007097801D0EB
:101A10000F0901E001F00F07424601200021FEF707
:101A200012FDDFF8AC9004460D46052F4BD2DFE8DF
:101A300007F0031419262A00002E44D00121404645
:101A400002F0F8F80020FFF75FF84846D0E90412EA
:101A50000C431543C9E9044530E00EB1022114E0FE
:101A6000002112E04EB10321404602F0E3F8404667
:101A7000BDE8F047012102F0D1BB012105E0002EB5
:101A800021D1042101E02EB103214046BDE8F047F9
:101A900002F0D0B80021404602F0CCF800214046C8
:101AA00002F0BCFB0020FFF72FF84A46E043D2E9E2
:101AB0000434184024EA0501C9E90401BDE8F047EF
:101AC0000020FFF723B8BDE8F0870000E003002006
:101AD000A800002010B5006842581AB101F07BF947
:101AE000012010BD002010BD10B50B48FFF77DFE92
:101AF000094A083AD2E90434C018D2E9063244F15E
:101B00000001C31A71EB020204D24FF080728018F8
:101B100041F1000110BD0000C800002010B5C0B2A6
:101B2000FFF746FB0446007801F09CFA0146607816
:101B3000012801D0012000E0002090EA010F08D028
:101B40000449D1E90401084303D1BDE8104002F083
:101B500057B910BDA80000202DE9FC5F0E00834698
:101B6000DDE90C47C6F1000098469246814600D454
:101B70000846012503E000BF90FBFAF06D1C5045BC
:101B8000FADAA84500D9454624B1002E01DB7807D2
:101B900000D5641EB80702D5B8F1000F0AD0F807C7
:101BA00008D13CB1A54205D220215846641EFFF75A
:101BB000DBFAF6E7002E02DA4E462D2102E0780726
:101BC00003D52B215846FFF7CFFA07F00300022870
:101BD0000BD1B8F1000F08D13CB1A54205D230219C
:101BE0005846641EFFF7C0FAF6E7CDE900474346C2
:101BF00052463146584602F0B7FABDE8FC9F000055
:101C000070B50D46044600684FF4887101F029F95B
:101C10004FF49071206801F024F94FF4927120681C
:101C200001F01FF94FF4A271206801F01AF94FF486
:101C3000AC71206801F015F920681249C0F804134E
:101C40002068690740F30730090E002804DB00F123
:101C5000E02080F8001405E000F00F0000F1E02023
:101C600080F8141D206840F30730002809DB00F0DD
:101C70001F02012191404009800000F1E020C0F8DE
:101C8000001170BD10034200024600201268530785
:101C900013D502F00300012802D002280CD105E080
:101CA000C2F383100B68801C184404E00223086808
:101CB00003EB9252104408600120704770B50C4647
:101CC0004FF488760546314601F05DF850B1314653
:101CD000284601F05DF86079400703D5216809B115
:101CE000012088474FF48A763146284601F04BF8A8
:101CF00050B13146284601F04BF86079000703D512
:101D0000216809B1022088474FF48E763146284673
:101D100001F039F850B13146284601F039F86079C0
:101D2000C00603D4216809B1002088474FF48276A9
:101D30003146284601F027F800280CD031462846C5
:101D400001F026F8012020712168002903D0BDE8A8
:101D500070400320084770BD0268134602E08A42C3
:101D600004D01268002AFAD10B60016070470000AD
:101D70000A4810B5807860B1002401E0022C06D03A
:101D80002046FEF78DFF641C042CF7D310BD0324FE
:101D9000F6E7BDE81040FEF7A7BF00007000002086
:101DA00003480179C90702D00078FFF7B3B870473C
:101DB000700000202DE9FF410026244800F030F992
:101DC0002248001F074600F02BF9214C2149A0684A
:101DD00000900D6800E000986946284004EB800000
:101DE0000C30FFF751FF0028F5D101AA009901EA54
:101DF000050304EB8303491CDB6842F82030401CD8
:101E000000910228F2D3019800F0030001280BD0C2
:101E1000022810D10198032101EB90500099BDF8E0
:101E20000A6001EB900005E00198BDF80A60C0F37C
:101E3000831008440090384600F0EFF808B100988D
:101E4000A06004B03046BDE8F0810000380A0020F0
:101E500020060020140100204FF48041002000F0F3
:101E60009DFE08B1FEF7B5FD00F014FD00F05AF933
:101E700008B1FEF7AEFD002000F072F9FEF7F8FDA4
:101E800008B1FEF7A6FD10490220FEF7F9FF08B1E0
:101E9000FEF79FFDFEF794FF08B1FEF79AFD0B4891
:101EA0000B49401AC008032101EB004009A100F0D2
:101EB00019FEFFF747FA20BF40BF20BF00F0F8FC33
:101EC0000028FBD1F7E70000090E0000BC45000028
:101ED0006C45000050574D206578616D706C652031
:101EE000737461727465642E000000002DE9F04780
:101EF000C5881E1DB6FBF5F78946B6FBF5F104460D
:101F000005FB176C407916686843DDF820A0F718C8
:101F1000001F874200D9C61A166001E02468491ED6
:101F20000029FBD1A5EB0C078846B74216D818E06C
:101F300004EB0C00001D09EB0803BAF1000F3A4650
:101F400002D00146184600E01946FEF78FFA2468D1
:101F5000F61B4FF0000CB844B54201D9374600E0FB
:101F60002F46002EE4D1BDE8F087000030B50246D0
:101F700051B100F027FE0021074C08E034F8213071
:101F80001568AB4202D11160002030BD491C81426E
:101F9000F4D3052030BD00000000000010B531B1C1
:101FA000B2FBF3F403FB14241CB1092010BD0E2076
:101FB00010BD01600021416081608281C3810846BB
:101FC00010BD70B50C460546FEF724F9002802D076
:101FD00021882868084470BD10B50A8849888A425B
:101FE00003D1FEF759F9012010BD002010BD70B5D6
:101FF0000C460546FEF733F9002802D061882868B0
:10200000084470BD10B50A8849888A4203D1FEF79A
:102010001DF9012010BD002010BD002100F009B8FD
:10202000012100F010B808B56A46FEF78AF9009859
:1020300008BD08B56A46FEF76AF908BD08B56A46E4
:10204000FEF74CF908BD08B56A46FEF753F900984B
:1020500008BD08B56A46FEF781F9009808BD70B55D
:10206000044600252846FEF74FFD2168626808688F
:1020700090420ED9401E08600178238AE26801FB75
:102080000325227A2168101AC0B20A79824200D24E
:1020900008710020FEF73AFD284670BD70B5054670
:1020A0000C460020FEF730FDE868298A201AB0FBB4
:1020B000F1F12A681068431C13600170BDE870409C
:1020C0000020FEF723BD10B530B1017A42680368E5
:1020D000891AC9B21A6006E00E2010BD03681A689A
:1020E000541C1C601170491EC9B2F7D2006800214F
:1020F0000171084610BDC20800F007030120895C89
:1021000098400840704700F180400068002800D0E7
:102110000120704708B500F180400021016000688F
:10212000009008BD70B50C4C0125207808B18526BB
:102130000BE00020A06060602061E060074800F0D4
:10214000B5FE064600F09CFE257000F091FE00B141
:10215000A570304670BD0000D80200207D1200003E
:1021600070B5104D0446A87838B114B161680120EB
:1021700088470020FEF7C8FC0CE00020FEF7C4FCF6
:1021800024B1084821461030FFF7E6FDE86808B999
:1021900000F09CFEE868401CE860BDE8704000204C
:1021A000FEF7B4BCD8020020F0B505460478154807
:1021B00089B0164640F82420124A08690832A2F174
:1021C0000C0742F82400487F385520226846FEF765
:1021D0004DF904942878385C48B10EB10A4A00E001
:1021E00000226946281D01F0E5F909B0F0BD0EB1E5
:1021F000064A00E00022694605F10C0001F0A4F84F
:10220000F3E7000084000020254000006D3E000040
:102210000FB408B50399002904D004AA00926A46B5
:1022200000F00FF801B05DF814FB10B582680446A9
:10223000002A05D0D4E90403216898470020A06053
:1022400010BD2DE9FC4791460C00804676D014F86D
:10225000011B39B125290ED04046FEF785FF2078B5
:102260000028F4D198F80C00002867D04046BDE85B
:10227000FC47FFF7DABF0020012221782B291BD071
:102280002D2902D0302908D102E040F0010001E000
:1022900040F00200641C002AEFD100252A290ED04C
:1022A0002178A1F130020A2A11D205EB850201EB57
:1022B0004205641C303DF1E740F00400EAE7D9F83C
:1022C00000100B1DC9F800300968641C0D4421780A
:1022D00000232E290BD114F8011FA1F130020A2A84
:1022E00005D203EB830201EB4203303BF3E76C2999
:1022F0000DD068290BD0692921D00BDC252918D0F5
:10230000582931D063290ED0642915D117E014F86B
:10231000011FECE7702969D0732932D075291BD0D1
:10232000782909D120E0D9F80000011DC9F8001072
:1023300001784046FEF718FF641C90E76CE0D9F87E
:1023400000100A1DC9F800200968CDE900500A22D2
:102350004046FFF701FCEFE7D9F800100A1DC9F865
:10236000002009680A2206E0D9F800100A1DC9F801
:10237000002009681022CDE90050404601F0F4FE2B
:10238000DAE7D9F8001000270A1DC9F800200E6806
:10239000C00705D112E04046761C7F1CFEF7E4FE24
:1023A00031780029F7D104E0202140466D1EFEF768
:1023B000DBFEBD42C0D9002DF6D1BDE74EB130469F
:1023C000FEF778F8074604E0202140466D1EFEF730
:1023D000CBFEBD4206D9002DF6D103E04046761C67
:1023E000FEF7C2FE31780029F8D1A5E7D9F8000040
:1023F000011DC9F80010056830214046FEF7B4FE03
:1024000078214046FEF7B0FE08200021CDE900010A
:10241000034610222946B0E7BDE8FC872DE9FF41BD
:102420001C46DDE90A7815460E46684600F0C2F8FB
:1024300046EA450141EA840141EA072242EA0841AD
:10244000009A00EB8200C0F80017BDE8FF812DE97B
:10245000FF411C46DDE90A7815460E46684600F045
:10246000B7F846EA450141EA840141EA072242EA17
:102470000841009A00EB8200C0F80017BDE8FF8118
:102480002DE9FF411C46DDE90A7815460E466846EF
:1024900000F0BAF846EA450141EA840141EA072220
:1024A00042EA0841009A00EB8200C0F80017BDE83C
:1024B000FF812DE9FF411C46DDE90A7815460E46ED
:1024C000684600F0AFF846EA450141EA840141EA76
:1024D000072242EA0841009A00EB8200C0F8001788
:1024E000BDE8FF811CB5002100910B46012201913E
:1024F000FFF7C6FF1CBD1CB5002100910B46012251
:102500000191FFF7D6FF1CBD1CB500220B460092BF
:1025100011460192FFF7B4FF1CBD1CB500220B460B
:10252000009211460192FFF7C4FF1CBD1CB50021AB
:1025300000910B46012201911146FFF7A1FF1CBD3E
:102540001CB5002100910B46012201911146FFF7B5
:10255000B0FF1CBD13B50C46684600F039F8009971
:1025600000EB8101D1F8002722F44032C1F80027A6
:10257000009900EB8100D0F8001741EA0441C0F84F
:1025800000171CBD3CB50A4CD4E90034CDE9003439
:102590006B46441808E000BF53F82010D1F82055CE
:1025A00020C2C1F82055401C8442F5D83CBD000033
:1025B000604300000168202902D24FF0A04070471C
:1025C00001F01F0101600148704700000003005046
:1025D0000168202902D24FF0A040704701F01F018E
:1025E0000160014870470000000300500168202985
:1025F00002D24FF0A040704701F01F010160014876
:1026000070470000000300500168202902D24FF0FB
:10261000A040704701F01F010160014870470000B1
:10262000000300500168202902D24FF0A0407047FB
:1026300001F01F01016001487047000000030050D5
:1026400042094FF0000102D0012A05D102E04FF00B
:10265000FF3101E04FF6FF7100F01F0001228240C0
:102660000A4201D0012070470020704701B568463A
:10267000FFF7AEFFD0F810050099C84000F0010048
:1026800008BD01B56846FFF7BFFF009A01219140E0
:10269000C0F8081508BD01B56846FFF7C3FF009AEA
:1026A00001219140C0F8081508BD38B501240090FB
:1026B000684631B1FFF77EFF00998C40C0F80845AD
:1026C00038BDFFF777FF00998C40C0F80C4538BD46
:1026D000034908B50844002101600068009008BD66
:1026E0000060004002494058012800D00020704797
:1026F0000060004030B5154A01460020D2F8104471
:1027000023460AE0DB681D79854205D1401C0A2872
:10271000F6DB4FF0FF3030BD1B68002BF2D1431CBD
:10272000F9D0CB681871D2F8103443B1DB68CC68AB
:102730001B682360D2F81024D268116030BDC2F843
:102740001014C96800220A6030BD00002006002075
:10275000F0B595B01C4615460F4608461A9E00F087
:10276000EDFA182109A8FDF79AFE0E96CDE9095455
:102770000023082203A9384600F0F5FA05980690D0
:10278000BDF81000ADF81C00BDF81200ADF81E0039
:1027900000208DF821000398082600F0030001288E
:1027A00002D0022818D032E003983346850AC0F3DD
:1027B000C2008DF8200003980FA9C0F38314A20073
:1027C000384600F0D0FA09A8009006AB22460FA9BF
:1027D000284600F00FFA1AE00398840DC0F3C200F7
:1027E0008DF82000082C01D2254600E0082533464C
:1027F0002A460FA9384600F0B6FA2E44641B09ABEE
:1028000006AA29460FA800F071F9002CEAD1384633
:1028100000F09AFA15B0F0BD7047012001F044BBFA
:10282000084810B50178084A515C19B1001D00F044
:102830005BFF02E00C3000F055FEBDE810400020C8
:1028400001F032BBF80000208000002008B5034AE8
:1028500000924023024AFFF77BFF08BD9D3B00002A
:10286000880400200A4A012902EBC00007D002298F
:1028700007D0032907D0042907D000207047022081
:102880007047042070470079704740797047000016
:102890006C45000010B5FFF7C0FF04210348FFF7A7
:1028A00029FF02490120C968487110BD5C4500003C
:1028B0002DE9F0478CB0FEF76FFC18B100200CB08A
:1028C000BDE8F0877D4C0020C4F81804BFF34F8F9B
:1028D0007B49A06802900D684FF00008284004EB87
:1028E00080000BE0D4F8180470B961680298814246
:1028F00001D8A160E2E7284004EB80000C3002A977
:10290000FFF7C2F90028EDD1002003AA029901EADD
:10291000050304EB8303491CDB6842F82030401CAC
:1029200002910228F2D3039800F00300022802D09B
:1029300001284DD0A7E003985022810D8946B2EBC3
:10294000905F00D850210E4666F39F5003900831E7
:102950005C4800F0AAF9070078D000F0EFF9434690
:10296000082203A9384600F006FA029908F1080A7D
:102970002940681A8000001D864222D94F4D0C352F
:1029800030B1C2B204EB8101301A90460C3104E040
:102990002946F2B2002590462846C6B2534638462C
:1029A00000F0E9F90AEB080325B13246294638461A
:1029B00000F0E1F9029909F1030001EB90000290A7
:1029C0003BE004EB81015346324638460C31EFE7D9
:1029D0000398C0F38310062800D30620039960F300
:1029E0008911C1F38310801C03918100354800F0E8
:1029F0005CF9070047D000F0A1F94346082203A97B
:102A0000384600F0B8F908F1080800260FE00298EF
:102A1000434600EA0501401C04EB810102900422B8
:102A200038460C3100F0A7F908F10408761C039829
:102A3000C0F38310B042EAD847B1D4F81054D4F8A8
:102A4000180478B1384600F07FF931E01BE0E868FF
:102A50004079012804D12A682846394612689047EF
:102A6000E8680568002DF2D1384600F06DF90020C5
:102A7000FEF74AF8D4F8180408B90298A0600020BC
:102A8000FEF744F814E0D4F8104405E0216820462D
:102A900089688847E0680468002CF7D10A480B4928
:102AA000401AC008022101EB004009A100F01AF809
:102AB000FEF772FB80F0010001E700002006002015
:102AC00014010020C4450000BC4500006C45000016
:102AD0004261636B656E647320666C7573686564D0
:102AE0000000000000231A4601F0BCB82DE9F047B1
:102AF0000E4680461C469246082940D894F80C9011
:102B0000002020731946104600F026FF0025B5422C
:102B100006D218F805201BA12046FFF779FB03E039
:102B20001AA12046FFF774FB6D1C082DEFD318A1E6
:102B30002046FFF76DFB0025B54212D218F805704C
:102B40007E2F08D8FDF78EFC0068C05D10F03E0FA8
:102B500001D03A4600E02E220EA12046FFF758FB96
:102B600003E00DA12046FFF753FB6D1C082DE3D3B6
:102B700001222146504600F0D1FE84F80C90BDE8B9
:102B8000F08700002025303278000000202020004F
:102B90007C0000002563000020000000064910B5FD
:102BA00000200870054800F0CDF8002803D1044843
:102BB00000F003F9002010BD20060020C4450000ED
:102BC000D443000002480349401AC008704700007F
:102BD000C44500006C45000013B56846FFF7C6F910
:102BE00008B100201CBD0248009950F831001CBDFE
:102BF0006C4500002DE9FF4781460C9D00200C46E6
:102C00002F7B2873984616462946184600F0A4FEE6
:102C1000072E42D2DFE806F004090F161F2A3600FD
:102C200049462846FFF7F4FA37E049462846226825
:102C3000FFF7EEFA31E0D4E9002349462846FFF7D2
:102C4000E7FA2AE0A0680090D4E900234946284624
:102C5000FFF7DEFA21E0D4E90201CDE90001D4E971
:102C6000002349462846FFF7D3FA16E004F108008E
:102C700007C88DE80700D4E9002349462846FFF736
:102C8000C7FA0AE004F108000FC88DE80F00D4E984
:102C9000002349462846FFF7BBFA00222946404652
:102CA00000F03CFE2F73BDE8FF872DE9F041058A57
:102CB00080462D1F4819C01CB0FBF5F0C6B2404637
:102CC000FFF7CDF9041E19D000202071012060719A
:102CD000E58000272546761EC4F800800BE04046BC
:102CE000FFF7BDF960B16179491C61712860054643
:102CF0007F1CC0F80080B742F1D32046BDE8F081C8
:102D0000204600F002F80020F8E72DE9F04145796F
:102D100001466B1E002201E00968521C9A42FBD357
:102D20000F680146002605E038460C68FFF7B6F943
:102D30002146761CAE42F7D3BDE8F0810121001D8B
:102D4000FFF771B9FFF7BFB910B504460121001DA7
:102D5000FFF77FF910F0FF0F04D12046BDE81040C7
:102D6000FFF7D3BF10BD1CB501920122009201AA4A
:102D7000FFF7BCF81CBD1CB501920022009201AA0D
:102D8000FFF7B4F81CBD4058002800D00120704760
:102D900008B5002242504058009008BD00EB411099
:102DA0001368C0F820359188C0F824159168C0F8E0
:102DB0002815D168C0F82C157047826800219160F1
:102DC00082681161826851618268D1608268516055
:102DD00080680160704708B500224250405800905A
:102DE00008BD70B50D460646446804E0B268294641
:102DF000904718B1246820680028F7D1206828601F
:102E0000256070BD40680068704741680868002808
:102E100001D002680A60704702460020526806E04E
:102E20008B4203D108681060012070471A4613686E
:102E3000002BF5D170474058002800D00120704782
:102E400008B5002242504058009008BDD0F8040355
:102E5000084000D0012070474058002800D00120D1
:102E6000704708B5002242504058009008BD00004D
:102E700002480068002800D001207047000401408B
:102E800008480068012110F0010F06D14FF0E02042
:102E9000C02280F800248430C16703490120086003
:102EA0007047000000E100E01805004006490246B6
:102EB00000200B790BB1852070470A6001220A714E
:102EC00000224A71704700009400002010B54FF4B2
:102ED0008270FFF71FF902204107C1F8040302497D
:102EE0000120086010BD000008000040002802D04A
:102EF0000149800108477047914300002DE9F041E6
:102F00000D46064600F082FC0028304615D0FEF73C
:102F100099F9083800F0FAFC032802D001280AD0F9
:102F200003E03046FFF7A2FB28B103213046BDE89D
:102F3000F041FFF70FBB0221F8E700F073FC002817
:102F400022D03046FEF77EF904464FF4807000EB45
:102F500084000E4F81B207EB8400D0F8102542F0B8
:102F60000102C0F810250846FFF7B2FB002D0BD078
:102F70003046FEF767F9064951F82000002803D0D3
:102F80000120A040C7F80403BDE8F08100600040C4
:102F9000EC0200202DE9FC41DFF8BC80044608EB80
:102FA0000400002790F930001346C0170E46401C5D
:102FB00001D008274DE0B0781946C0F34002204602
:102FC000FEF71CF90546401C42D0B07841071AD4E0
:102FD000C0070DD068460094FFF7FAFA009900EB9D
:102FE0008101D1F8000720F00200C1F8000707E0D6
:102FF00000217378204600910A460191FFF727FAD5
:10300000204600F0F5FBB078800718D513483178DA
:1030100000EB8500D0F81025114B1A40C0F81025A0
:103020004FF47C524FF4403302EA042203EA014198
:103030000A43D0F810150A43C0F8102509E008EB40
:103040000500327810F8581F41EA8211017000E043
:1030500004273846BDE8FC81EC02002000600040F7
:10306000FFC0FCFF10B5FFF701FB002800D00120D6
:1030700010BD000070B51A4D95F86A0008B108201F
:1030800070BD0024661E2046FFF7DAFA10B1281939
:1030900080F83060641CE4B2302CF4D30024204665
:1030A000FEF79EF8641CE4B20C2CF8D30C48002107
:1030B0000C4C4166A0F868100B49C02081F8000450
:1030C00001264020891FC1F800014FF4BE70FFF7B0
:1030D000FFFAA004C4F8040385F86A60002070BDFC
:1030E000EC0200200060004006E000E0034890F899
:1030F0006A00002800D0012070470000EC02002088
:103100000121B1EB507F01D10120704700207047B1
:1031100070B50D4600F06CFC04000FD00020FDF7E8
:10312000F3FC207920B10020FDF7F0FC112070BDE8
:103130000120256020710020FDF7E8FC002070BD13
:1031400010B500F055FC002802D00021016001718B
:1031500010BD00002DE9F041904604460079134A65
:103160001F4602EBC0060A46069D00212068FFF7B5
:1031700015FE424601212068FFF710FE2068C0F8C6
:103180001475E80701D0102004E0A80701D5042039
:1031900000E000202168C1F80002EAB23146204672
:1031A000BDE8F041082300F01FBD000058030020D7
:1031B0002DE9F0410D4604460079324901EBC00685
:1031C000307910B10820BDE8F081294620463260F0
:1031D000FEF76EF820680127C0F8007520686B794B
:1031E000AA792989C0F80C35C0F80425C0F808155B
:1031F000AA7AE97A206842EA0121C0F8101520680D
:103200000021C0F800122068C0F800134FF48E713E
:103210002068FFF7BDFD4FF488712068FFF7B8FD07
:103220004FF48A712068FFF7B3FD4FF48271206874
:10323000FFF7AEFD306808B32068297940F3073006
:1032400000284FEA411104DB00F1E02080F800146F
:1032500005E000F00F0000F1E02080F8141D206868
:1032600040F30730002809DB00F01F0107FA01F1E5
:103270004009800000F1E020C0F800113771002003
:10328000A1E70000580300202DE9F0410F46044655
:1032900000791849164601EBC0081D463A46002140
:1032A0002068FFF77BFD3A4601212068FFF776FD95
:1032B000206806F0010101EB5602C0F81425E8076A
:1032C00001D0102007E0A80704D509B1082002E0CA
:1032D000042000E000202268C2F8000209B10C239B
:1032E00000E00823EAB241462046BDE8F04100F084
:1032F0007BBC00005803002010B501790D4A02EB99
:10330000C102016841F3073100290DDB01F01F0400
:103310000123A3404909890001F1E021C1F880316E
:10332000BFF34F8FBFF36F8F00680021C0F8001507
:10333000117110BD580300200149024800F0DCBDA6
:1033400070030020002000402DE9F041054600797F
:1033500016460F4600EB40012D4A01EBC00102EB7F
:10336000810494F82A1011B10820BDE8F0812949A0
:1033700051F820102868FFF7CBFE08B11120F4E7C0
:1033800039462846FDF7D6FB666038692060300074
:103390004FF001062FD03F7F4FF48E712868FFF762
:1033A0004FFD4FF4A2712868FFF74AFD28681A49BB
:1033B000C0F8041328684FEA471140F3073000288B
:1033C00004DB00F1E02080F8001405E000F00F00BD
:1033D00000F1E02080F8141D286840F30730002831
:1033E00009DB00F01F0106FA01F14009800000F13D
:1033F000E020C0F8001128680421C0F80015002062
:10340000A061E06184F8290044F8140FA675ACE7C8
:103410007003002068430000800002002DE9F05F87
:10342000054600790B4600EB400101EBC000244942
:1034300001EB8004284600F045F810B11120BDE8EA
:10344000F09F62614FF00009C4F82090A36084F8F7
:1034500028904FF48E784E4641462868FFF7F0FCDE
:1034600028684FF0010AC0F808A02146286800F03B
:10347000D3FC606808BBD5F800B067690FE000BFF7
:1034800094F8280008B10F2615E041465846FFF78A
:10349000D2FC0028F4D02146584600F0BDFC206A3A
:1034A000B842F2D3574641462868FFF7C4FC0028CB
:1034B000F9D02868C760C4F814903046BFE7000010
:1034C00070030020007900EB400101EBC0000449CB
:1034D00001EB80004069002800D001207047000007
:1034E000700300202DE9F047044600794FF00009F1
:1034F00000EB400101EBC000284901EB8007206888
:10350000C0F800957868B0B120682549C0F8081364
:10351000206840F3073000280DDB00F01F02012176
:1035200091404009800000F1E020C0F88011BFF315
:103530004F8FBFF36F8F2068D0F80C25D0F814851B
:10354000D0F80865D0F810554FF0FF31C0F81415C9
:10355000C0F80C152068C0F80815C0F81015501CEC
:1035600002D01046FEF7BEFFB8F1FF3F02D0404642
:10357000FEF7B8FF681C02D02846FEF7B3FF701CA8
:1035800002D03046FEF7AEFF2068FFF7D9FD87F87E
:103590002A90C7F80490BDE8F0870000700300206F
:1035A000840202000149024800F054BD9C0300203F
:1035B000002000402DE9F0410546164600790F46EF
:1035C000154A00EBC00102EB810494F8201011B100
:1035D0000820BDE8F081114951F820102868FFF754
:1035E00097FD08B11120F4E739462846FDF7DDFACA
:1035F0006660386920601EB1397F2846FEF700FBFF
:1036000028680821C0F800150020A061E061606111
:10361000012184F82010DCE79C0300206C430000AB
:103620002DE9F04704460E460079274900EBC0001B
:1036300001EB800517463046FFF762FD30B12046AA
:1036400000F044F820B11120BDE8F0871020FBE71E
:103650006F61AE604FF490774FF0000839462068F4
:10366000FFF7FFFB4FF4AC7631462068FFF7F9FB1C
:103670002068AA686969C0F84425C0F84815206820
:103680004FF00109C0F808906868D0B9BA465146B1
:103690002068FFF7E1FB074631462068FFF7DCFBB7
:1036A0000743F4D010B14FF00F0808E02068C0F8CD
:1036B0000C9031462068FFF7CFFB0028F9D000209E
:1036C00068614046C0E700009C030020007905497E
:1036D00000EBC00001EB80004069002800D0012011
:1036E000704700009C0300202DE9F0470646007952
:1036F0003D4900EBC00001EB800534686868012794
:10370000A8B13A49C4F80813306840F307300028DC
:103710000DDB00F01F0107FA01F14009800000F104
:10372000E020C0F88011BFF34F8FBFF36F8FD4F844
:10373000000220F02000C4F80002A8694FF4A2782B
:1037400020B141462046FFF78CFB67604FF4AC790F
:1037500049462046FFF785FBE76047464946204635
:10376000FFF77AFB0028F9D0A86928B1394620462E
:10377000FFF772FB0028F1D04FF0000AC4F800A553
:103780003068D0F80C25D0F81495D0F80885D0F81A
:1037900010754FF0FF31C0F80C15C0F814153068E3
:1037A000C0F80815C0F81015501C02D01046FEF7DE
:1037B000A2FEB9F1FF3F02D04846FEF79CFE781CFE
:1037C00002D03846FEF797FEB8F1FF3F02D04046E0
:1037D000FEF791FE2046FFF7B3FC85F820A0C5F860
:1037E00004A0BDE8F08700009C0300201003420005
:1037F00010B50549C20800F00703885C01249C400D
:103800002043885410BD00005003002004490844A0
:1038100090F93000082801DB012070470020704734
:10382000EC0200200449084490F93000082801D235
:103830000120704700207047EC0200202DE9F84F6E
:10384000314F05464FF001090024381990F96010F6
:10385000491C46D090F86000294620F0C00630464A
:10386000FEF749FC70B3204600F050F882466846E7
:103870000096FEF7ADFE009900EB8100D0F800073E
:10388000C0F30148B8F1020F1DD002213046FEF707
:1038900061FE68460096FEF79BFE009A09FA02F167
:1038A000C0F820153046FDF7CDFC57F820204AB16E
:1038B0005046BAF1030F11D0B8F1020F05D0B8F19C
:1038C000030F07D00DE00321E0E75046BAF1010FE6
:1038D00004D006E05046BAF1020F02D1014630464C
:1038E0009047641C042CB0D32A4602210020FEF726
:1038F00049FE002055F820100029A5D1401C0228BF
:10390000F8D3BDE8F88F0000EC020020024908441B
:1039100090F8600080097047EC02002010B50C465A
:10392000017A052908D0407A38B1084808A1026810
:103930002046FEF76DFC00E01AB106A12046FEF716
:1039400067FC2046BDE81040FEF76FBC4401002034
:10395000257300000D0A000038B5C3880D460446E3
:1039600033B114A0009015A216A12846FEF750FC12
:10397000217A05291CD0607A48B1A088FEF772FF31
:10398000164951F8202016A12846FEF741FCA088D0
:103990000021FFF721F903461049207A143951F824
:1039A000202001B02846BDE830400EA1FEF730BC13
:1039B00038BD00001B5B306D000000001B5B313B1D
:1039C00033316D0025734C6F67732064726F7070B4
:1039D0006564202825642925730D0A004401002010
:1039E000257300003C25733E2025733A200000001B
:1039F0000349884201D10348704700207047000006
:103A0000002000409C00002070B50546FDF771FFC6
:103A1000134C40B1D4E904024FF08071411842F1D7
:103A20000000C4E9041000212846FDF7AFFE30B1C4
:103A3000606820B1606800F05FF9002060600121DB
:103A40002846FDF7A3FE18B1FEF74EF8C4E90601BB
:103A5000284600F07DF92846BDE8704000F034B8F3
:103A6000C000002070B5054600200C460870FEF727
:103A70003BF8D5E90223101A63EB01030026314617
:103A8000361A994112DAB0F5350F03D3FCF7DEFF91
:103A90000B4942184FF4960300210A48FDF735FF01
:103AA00010B10D2806D009E0012070BD00210548A5
:103AB000FDF762FE284600F01FF92070002070BD5F
:103AC000FFFFB400C8000020F8B51A4C07460026D6
:103AD0001948FFF797F9D0B1616871B1D0E90210C8
:103AE0006268D2E90232C91A904120D26068007F30
:103AF00018B161681048FFF774F900F06FF80546D7
:103B00006946FFF7AFFF98B1606840B10AE06068AE
:103B100000280CD13846BDE8F840FDF7F2BE384623
:103B2000FDF7EBFE65609DF800000028D0D1F8BDE0
:103B30006660CDE7C00000208043000070B50546F8
:103B400088690C4600284FF4847128460AD0FFF794
:103B500077F9D5F81805626AE1688854606A401CF4
:103B6000606270BDFFF76CF9D5F8180570BD1FB520
:103B700001238DF80030CDE90121D0E9001268461B
:103B800090471FBD1FB501238DF80030CDE90121FD
:103B9000D0E90012684690471FBD000070B50D4C7B
:103BA0000020D2B22070201D0B4D0378EB5C1BB1BE
:103BB000001DFFF735FD02E00C30FFF72FFC08B1C8
:103BC000FCF707FF6078002802D021780029FAD09E
:103BD00070BD0000F4000020800000200148FFF7C5
:103BE00014B900008043000070B5054602201E464F
:103BF000144608714A71086870B18221600700D5C7
:103C00009221200701D541F02001E00601D521F0E5
:103C100080012868C0F800134FF482712868FFF70C
:103C2000B7F82006286801D5304470BD01218151C4
:103C3000002070BDC207002A03D000BF4FF00F0262
:103C400001E04FF0F00201D04FEA0111044B03EB09
:103C50005003187800EA020040EA0100187070472B
:103C6000E00300202DE9F84F074621489146884699
:103C700005681E46012269461846FDF72FFADFF84F
:103C800074A060B3009800210446801C0AE000BFC5
:103C900000EA050259F821C00AEB8202401C491CC7
:103CA000C2F80CC0B142F3D34FEA1749FDF75AFDF1
:103CB000611C29400AEB810149EA00422C40CA609C
:103CC0000AEB8401C86867F3C50066F3891068F3DE
:103CD0009F2020F00300401C20F00400C8609AF8E8
:103CE000000001E0FEF7E4FD0028FBD1BDE8F88FFD
:103CF000140100202006002070B50446124800255B
:103D00000078F8B1F4B1207FE0B1FDF7EDFED4E921
:103D10000223801A994110D32069002600B9267722
:103D2000D4E905108847206960B1217F51B1D4E9F9
:103D3000022110187141C4E9020121460348FFF72E
:103D400050F80125284670BDC000002080430000C7
:103D5000F8B51B4C69462068FEF749F90026012793
:103D6000184D29E0017821B101290CD002291BD17D
:103D700014E041680A7FBAB90F77416810480830EB
:103D8000FFF72FF810E041686868814201D16E604A
:103D90000AE00B480830FFF73FF805E0FFF71EFF89
:103DA00008B10677FAE72F7069462068FEF714F924
:103DB00069462068FEF71BF90028D3D1F8BD000042
:103DC00078430000C0000020F8B50B4C0D460646B5
:103DD00069462068FEF7F5F858B1067045606946F7
:103DE0002068FEF70FF910B10448FDF76FFD0020C1
:103DF000F8BD0420F8BD000078430000C800002092
:103E0000034880684108034800224068FCF75EBE12
:103E1000A80000207043000070B50C4605464FF422
:103E20008E71FFF70DF8216AA068415C206A401C82
:103E30002062C5F81C1570BD1FB500228DF800204A
:103E40000291816801914261D0E900126846904771
:103E50001FBD1FB500228DF80020029181680191DD
:103E60004261D0E90012684690471FBD1FB50A465F
:103E700001788DF8001041680191017A8DF80810E1
:103E8000C0680390044850F82210083850F82220E7
:103E9000684690471FBD00008C00002001490120AA
:103EA00008707047F400002010B588B00446202246
:103EB0000E496846FCF7DAFA06200090C01F019010
:103EC000029003904FF0EB7006900CB1084A00E0AE
:103ED000002269460748FEF767F908B1FCF779FD4B
:103EE0000448001F447008B010BD0000B443000037
:103EF0009D3E0000F80000202DE9FF470C460546D6
:103F00004FF40071FEF7A2FF01274FF4017800265D
:103F100018B34FF4927949462846FEF78CFFE0B17A
:103F200049462846FEF78CFFC5F8088394F8290017
:103F300000B96F6002208DF80000D5F88004C5F844
:103F400080040390A0690290E0680190A661E66198
:103F5000D4E900126846904728E004212846FEF77D
:103F600075FF18B34FF484712846FEF764FFE8B17B
:103F700021462846FFF7E2FD616AA069884215D113
:103F8000E06938B1E268616AA0612069E661666251
:103F9000E06008E094F8290000B96F60C5F8088374
:103FA000A661E268616A2046FFF7E1FD4FF48E7872
:103FB00041462846FEF73FFF80B16069216A814291
:103FC00002D294F8280028B341462846FEF738FF6D
:103FD000606918B161692046FFF72EFF4FF4A2789F
:103FE00041462846FEF727FF002818D041462846BC
:103FF000FEF726FF94F8290000B12F60A069002881
:104000000DD0A661E268616A04B02046BDE8F047C1
:10401000FFF7ADBD21462846FFF7FEFEDEE7BDE80F
:10402000FF8700001FB50A4601788DF8001041682F
:104030000191017A8DF80810C0680390044850F887
:104040002210083850F82220684690471FBD000013
:104050008C0000202DE9FF410C464FF49277054675
:104060003946FEF7F9FE0026B8B139462846FEF774
:10407000F8FE02208DF80000D5F88004C5F8800411
:104080000390D5F83C050290E0680190A661E661D6
:10409000D4E900126846904723E04FF48877394608
:1040A0002846FEF7D9FEE0B139462846FEF7D9FE8C
:1040B000D5F83C15A069884213D1E06960B1E26887
:1040C000D5F8000220F02000C5F80002E069A061E8
:1040D0002069E661E06001E0A661E2682046FFF742
:1040E00051FD4FF4A27739462846FEF7B5FE68B178
:1040F00039462846FEF7B5FEA06938B1A661E661EB
:10410000D5F83C152046E268FFF73CFD4FF4907669
:1041100031462846FEF7A0FE60B131462846FEF73C
:10412000A0FE0120E860606920B1D5F84C1520465A
:10413000FFF78FFE4FF4AC7631462846FEF78CFE33
:1041400000280ED031462846FEF78BFE6069002815
:1041500007D0D5F84C1504B02046BDE8F041FFF774
:1041600078BEBDE8FF8100002DE9F05F8346DDE900
:104170000A4A994690460D460846012703E000BFCB
:10418000B0FBF8F07F1C4045FAD2B94500D94F4644
:104190005FEACA7012D18CB15FEA8A7002D5B9F1B8
:1041A000000F01D0202607E0302605E031465846B2
:1041B000641EFCF7D9FF0CB1A742F7D35FF00106EC
:1041C000B9F1010F02D9A9F1010903E0B5FBF6F03D
:1041D000404502D306FB08F6F2E7DFF83C9000BF4B
:1041E000B5FBF6F000FB165519F800105846FCF721
:1041F000BBFFB6FBF8F6002EF2D15FEACA7009D019
:10420000002C07D0A74205D220215846641EFCF797
:10421000ABFFF5E7BDE8F09F9643000070B50C4694
:104220000546FCF7C5FF002807D04268002A04D0E5
:1042300021462846BDE87040104770BD1C00002094
:104240000400000000000000000000008D8E908F30
:1042500007040000102702008D8E8F9007050000D4
:10426000102700006C010020190000000100000070
:1042700000000000240000200600000004000000F0
:10428000000000008DFFFFFF07070000A86100008D
:1042900030000020060000000000000004000000C4
:1042A0000000000007000000000000003C000020AB
:1042B0000800000001000000000000009E01002036
:1042C0006400000000000000000000004C0000201E
:1042D0000200000095000000000000004C000020DB
:1042E0000200000031000000000000009E010020DC
:1042F0006400000002000000000000008D8F908E1E
:1043000007070000093D02005000002010000000D7
:104310000000000000000000451300001114000020
:10432000B514000029150000A91600000D0E0F108D
:104330000B0C18196802002088020020B802002027
:104340000B000300310D00000C000300310D0000D4
:1043500018000300310D000019000300310D0000AA
:10436000000000500003005039330000A535000064
:1043700003000000C003002020040020010006000C
:1043800000000000E0000020991200000000000082
:104390000338FDD870473031323334353637383949
:1043A00041424344454600004D28000021280000BA
:1043B00019280000FFFFFFFFFFFFFFFFFFFFFFFFC8
:1043C000FFFFFFFF00000000000000000000D6011A
:1043D00006010000880500207F000000080600207C
:1043E0000040404040404040404041414141414008
:1043F00040404040404040404040404040404040BD
:10440000400502020202020202020202020202024B
:104410000220202020202020202020020202020250
:1044200002029090909090901010101010101010A8
:1044300010101010101010101010101002020202B4
:1044400002028888888888880808080808080808F8
:1044500008080808080808080808080802020202F4
:1044600040000000E14300007761726E696E6700F2
:1044700064656275670000001B5B313B33306D0083
:104480001B5B306D000000001B5B313B33316D0066
:104490001B5B313B33326D001B5B313B33336D00B3
:1044A0001B5B313B33346D001B5B313B33356D009F
:1044B0001B5B313B33366D001B5B313B33376D008B
:1044C000696E666F000000006572726F7200000016
:1044D000636C6F636B000000434C4F434B00000064
:1044E0004750494F544500005052530050574D001B
:1044F00055415254000000005541525445000000FF
:104500006170705F627574746F6E00006170705FCF
:1045100074696D6572000000736F72746C697374F6
:1045200000000000756172745F6C6F675F626163A9
:104530006B656E640000000061707000D84500007B
:10454000000000206C010000080500003C4600004F
:104550006C010020D428000000090000A8430000DE
:1045600000000000244500000C010020D0440000A1
:1045700000000000D844000000000000E0440000FB
:1045800000000000E844000000000000EC440000CF
:1045900000000000F044000000000000F8440000AB
:1045A0000000000000450000000000000C45000075
:1045B0000000000018450000000000003845000021
:1045C000000003032001002018010020200100202A
:1045D000C8040020180000005154C00140451002DA
:1045E0004001E5200240025A8004890A490E8916DA
:1045F0002902891009200A01501510014011022ECC
:1046000004122049F86908315AFF04011C23C844E8
:104610001A68041AC0041A70041A80041A78041A5A
:1046200088041A90041A98041AA0041AA8041AB04C
:0C463000041AB80411040090D00300002C
:0400000500000201F4
:00000001FF
