:020000040000FA
:10000000402C0020C1030000C9030000CB03000006
:10001000CD030000CF030000D1030000000000006A
:10002000000000000000000000000000D3030000FA
:10003000D503000000000000D7030000D903000032
:100040001D060000DB03000011090000850600000A
:10005000DB030000DB03000079050000DB03000088
:10006000DB030000DB030000DB030000DB03000018
:10007000DB030000DB030000DB030000DB03000008
:10008000DB03000075060000DB030000DB0300005B
:10009000DB030000DB030000DB030000DB030000E8
:1000A000DB030000DB030000DB030000DB030000D8
:1000B000DB030000DB030000000000000000000084
:1000C000DB030000DB030000DB030000DB030000B8
:1000D000DB030000DB030000DB030000DB030000A8
:1000E000DB030000DB030000DB0300000000000076
:1000F00000000000DB03000000000000DB03000044
:1001000000000000000000000000000000000000EF
:1001100000000000000000000000000000000000DF
:1001200000000000000000000000000000000000CF
:1001300000000000000000000000000000000000BF
:1001400000000000000000000000000000000000AF
:10015000000000000000000000000000000000009F
:10016000000000000000000000000000000000008F
:10017000000000000000000000000000000000007F
:10018000000000000000000000000000000000006F
:10019000000000000000000000000000000000005F
:1001A000000000000000000000000000000000004F
:1001B000000000000000000000000000000000003F
:1001C000000000000000000000000000000000002F
:1001D000000000000000000000000000000000001F
:1001E000000000000000000000000000000000000F
:1001F00000000000000000000000000000000000FF
:10020000DFF80CD000F07AF900480047091B000025
:10021000402C002030B450E8012F93B2C48923440D
:100220008489A34228BF1B1B0489A34202BFBFF3DA
:100230002F8F002007E0C3EA020340E80134002CBE
:10024000E9D14FF001000A6030BC704750E8012F3F
:10025000C2EA024240E801210029F7D1704730B4D8
:1002600050E8022F1FFAA2F3C488A34202BFBFF3D3
:100270002F8F00200DE0C48923448489A34228BF26
:100280001B1BC2EA034340E80234002CE8D14FF0C4
:1002900001000A6030BC704750E8022FC2EA2242D7
:1002A00040E802210029F7D17047034653E8022FA6
:1002B000D988B2EB324F4FF0000017BF92B241EA3B
:1002C000014142EA014104E05A68B2EB324F08BFF3
:1002D000012043E80212002AE8D1704730B40446F6
:1002E00054E8000F0D4644E80053002BF8D1156088
:1002F00030BC704730B4044654E8000F40EA0105B2
:1003000044E80053002BF7D1156030BC704730B47F
:10031000044654E8000F00EA010544E80053002BAE
:10032000F7D1156030BC704730B4044654E8000F74
:1003300080EA010544E80053002BF7D1156030BC7A
:10034000704730B4044654E8000F00EB010544E860
:100350000053002BF7D1156030BC704730B4044611
:1003600054E8000FA0EB010544E80053002BF7D13F
:10037000156030BC704770B404464FF0000054E87C
:10038000006F0D68AE4207BF44E80023012044E837
:1003900000630E60002B1CBF0020F0E770BC7047AC
:1003A00030B4044654E8000F88422CBF451A054675
:1003B00044E80053002BF5D1156030BC70470000B5
:1003C0000648804706480047FEE7FEE7FEE7FEE7EF
:1003D000FEE7FEE7FEE7FEE7FEE7FEE7C9060000F0
:1003E000010200002DE9F05F0546002092469B4681
:1003F00088460646814640241BE02846414647463B
:10040000224600F06BF853465A46C01A914110D369
:1004100011461846224600F016F82D1A67EB01081F
:100420004F4622460120002100F00DF817EB00098D
:100430004E41201EA4F10104DFDC484631462A4625
:100440004346BDE8F09F202A04DB203A00FA02F17F
:10045000002070479140C2F1200320FA03F31943B2
:100460009040704700487047F458000040EA01038C
:100470009B0703D009E008C9121F08C0042AFAD25A
:1004800003E011F8013B00F8013B521EF9D270471E
:10049000D2B201E000F8012B491EFBD270470022C6
:1004A000F6E710B513460A4604461946FFF7F0FF73
:1004B000204610BD421C10F8011B0029FBD1801AF8
:1004C000704730B504460020034600E05B1C9342B1
:1004D00003D2E05CCD5C401BF8D030BD202A04DBA9
:1004E000203A21FA02F00021704721FA02F3D040AD
:1004F000C2F120029140084319467047064C074D4F
:1005000006E0E06840F0010394E8070098471034E3
:10051000AC42F6D3FFF778FEDC590000FC5900002E
:1005200070B58C1810F8015B15F0070301D110F8B5
:10053000013B2A1106D110F8012B03E010F8016BE2
:1005400001F8016B5B1EF9D12B0705D40023521E65
:100550000DD401F8013BFAE710F8013BCB1A921CCD
:1005600003E013F8015B01F8015B521EF9D5A142CB
:10057000D8D3002070BD00002DE9FC410025DFF834
:10058000948000954FF4807601242F4601953046E3
:1005900002F034FA38B1D8F80403204203D03046D0
:1005A00002F022FA2543361D64007F1CB6B2082FE4
:1005B000EDD34FF4BE74204602F020FA48B1204635
:1005C00002F012FA45F000456A460221002002F0CE
:1005D00017F915F0FF0F16D0012600242E420ED079
:1005E00008EB8401D1F81005D1F81015C0F30520EF
:1005F000094AC1F3014152F8242002B19047760024
:10060000641C082CEAD3002D02DA684603F04AFC89
:10061000BDE8FC8100600040E404002070B54FF4A8
:100620008076304601F007FC114CB50560B13046CC
:1006300001F008FC0120C5F80803607920B9012009
:1006400060712168002088474FF48276304601F0BF
:10065000F2FB00280AD0304601F0F4FB0220C5F876
:1006600008032168BDE870400120084770BD000004
:10067000D400002002490248091F096800680847A1
:100680002C01002038B50E480E4C0025C0F808514A
:10069000D0F808110091214604F0EEF800280ED1A0
:1006A000A07FFF2801D002F06EF965772572D4E9AA
:1006B000002101B004F10800BDE83040104738BD0A
:1006C0000030004050050020F0B54FF080527F4EC2
:1006D000D2F830017E4FD2F83411431C08D00546C1
:1006E0004FEA010400234FF0010C082D05D013E060
:1006F0003B783578C3F30314F4E72CB1012C03D015
:10070000022C01D0032C07D14FF08044C4F80C31E7
:10071000C4F810316F4C2360441C04D005460C46CD
:10072000082D05D061E03C783578C4F30314F7E771
:100730002CB1012C03D0022C01D0032C55D1664CD6
:100740002468664D2C60644C241D24682D1D2C608B
:10075000614C083424682D1D2C605F4C0C342468D7
:100760002D1D2C605C4C103424682D1D2C605A4CBF
:10077000143424682D1D2C60574C18342468574DB0
:1007800020352C60544C1C3424682D1D2C60524C98
:10079000203424682D1D2C604F4C243424682D1DDA
:1007A0002C604D4C283424682D1D2C604A4C2C3470
:1007B00024682D1D2C60484C30342468474D40354A
:1007C0002C60454C343424682D1D2C60424C383448
:1007D00024682D1D2C60404C3C3424682D1D2C6059
:1007E0003D4C403424682D1D2C60082804D10C0099
:1007F00002D13C4D3A4C2C60082804D10C0002D1A7
:10080000394DFB242C60082808D10C0006D192F841
:100810005852364A146865F303041460082804D15A
:100820000A0002D1324C82012260421C03D1397885
:100830003078C1F3031108280DD129B1012903D063
:10084000022901D0032906D12A480168C90702D02C
:100850006FF0010101602848016841F470010160F6
:10086000BFF34F8FBFF36F8F4FF01021D1F800020D
:10087000002803DBD1F80402002823DA1F4AC2F85B
:1008800000C01F480468002CFCD01224C1F80042AC
:100890000568002DFCD0C1F8044201680029FCD095
:1008A000136001680029FCD0BFF34F8F12487C38D9
:1008B0000168144A01F4E06111430160BFF34F8FF6
:1008C00000BFFDE7114910480860F0BDE00F00F0DF
:1008D000E80F00F0380500400404001020C5004077
:1008E000488103008C56004018F50040E40E00409B
:1008F000409602400004004088ED00E004E501401D
:1009000000E401400400FA050090D003B00100208B
:100910000148006800470000DC00002002E008C831
:10092000121F08C1002AFAD170477047002001E069
:1009300001C1121F002AFBD17047022000F0B4B998
:1009400070B50024064D06E06868012110F83400F7
:1009500002F0B2FD641C28788442F5D3002070BDFB
:10096000E8000020F8B516460C4605460A2A01D2D2
:100970000720F8BD02F098FE18B902F059FE0028D1
:10098000F7D1134F202113487D603C70BE60FFF704
:1009900086FD0020C7E904000F4E0DE005EBC40002
:1009A0003168009181788DF8011000780B4A694612
:1009B00002F0CEFD0028DCD1641EE4B2EED2BDE828
:1009C000F84005480021064A001D00F05FB800000D
:1009D000E8000020F0050020C45700008516000044
:1009E0008512000072B602F091FA00BF02F0ECF836
:1009F0000028FBD111481249401AC408012000EB1D
:100A0000044010A102F0FAF911480068C00700D0B4
:100A100000BE022000EB04400EA102F0EFF9BFF38C
:100A20004F8F0B48E43801680E4A01F4E06111432E
:100A30000160BFF34F8F00BFFDE700006C5A00005C
:100A40000C5A0000466174616C206572726F72000E
:100A5000F0ED00E053797374656D20726573657411
:100A6000000000000400FA050EB500210091CDE958
:100A700001106A4644F20100FFF7B4FF0EBD00000A
:100A8000014800F066BC0000080100203AB100688F
:100A90000129426100D00021016100207047072038
:100AA0007047000038B5114808235822416800916A
:100AB0000F49006801F00AF9002815D10D4A69466E
:100AC0000D4800F04BFC04000ED101210A4800F053
:100AD000C0FC0123094A1946074800F012FC0649E8
:100AE000012008390870204638BD0000CC570000AE
:100AF00020060020C540000008010020FFFF7F0005
:100B000070B50446007F0D4608B1002070BDA2619B
:100B100000F09EFD401941F10001C4E90201206985
:100B200000B125612146BDE87040002003F072BE8F
:100B3000014600200877012003F06CBE00F002B8E7
:100B400000F008B872B602480168491C016070479D
:100B50002401002003490868401E086000D162B6E5
:100B6000704700002401002070B5054608680C4657
:100B7000411C04D001F011FF206801F014FE6068F0
:100B8000411C02D0002101F0F2FD2968A069C1F8E2
:100B90002405607D227D29681043C1F86C05D4E9E5
:100BA00000122868C0F81425C0F80C15207D012813
:100BB00014D1A068411C02D0002101F0D8FDE068EA
:100BC000411C04D001F0E9FEE06801F0ECFDD4E93D
:100BD00002122868C0F80825C0F8101570BD70B55D
:100BE000054608680C46411C04D001F0E0FE206870
:100BF00001F0E3FD6068411C02D0002101F0C0FD5E
:100C00002968A069C1F82405607D217D2A68084310
:100C1000C2F86C05D4E900122868C0F80C15C0F8B9
:100C20001425207D012814D1A068411C02D0002188
:100C300001F0A6FDE068411C04D001F0B8FEE068B8
:100C400001F0BBFDD4E902122868C0F80825C0F8FD
:100C5000101570BD2DE9FC410646C0074FF0000598
:100C60000ED0104F00240122385D0095002311465C
:100C7000019501F0EDFC641C042CF4D300F04EF857
:100C8000B0070DD5074E0024361D0022305D03232A
:100C900000951146019501F0DBFC641C042CF4D393
:100CA000BDE8FC81884F0000094908B5085C009048
:100CB000684601F0F7FDD0F80425009B012199401A
:100CC00021EA0203C0F808351140C0F80C1508BD30
:100CD000884F00000249085C012101F072BE00004B
:100CE000884F00000249085C002101F06ABE000044
:100CF000884F0000084908B5085C0090684601F07C
:100D0000D1FDD0F804050099C84010F0010000D0D2
:100D1000012080F0010008BD884F000010B50024BC
:100D20002046FFF7D7FF641C042CF9D310BD10B583
:100D300000242046FFF7D6FF641C042CF9D310BD15
:100D400010B50246064B4FF0FF3000215C5C944228
:100D500001D1084610BD491C0429F7D310BD00007D
:100D60008C4F00002DE9F0470D468146FFF7E8FF64
:100D70000446042836D2DFF874801B481C4EA8F1C4
:100D80000C0725B3012D0ED0022D2BD104EB44000E
:100D900030444578002D25D0B968002922D0284656
:100DA000BDE8F047084704EB4401755C0E447178D8
:100DB00049B10E4A4FF48041093A8068FFF7A0FE1E
:100DC00008B987F80390B17808F80410E2E7806862
:100DD000FFF7AEFE04EB4401314418F804008D78AF
:100DE000A842D7D0BDE8F087904F0000BC0000209B
:100DF000800400200E2805D0112805D100210348C9
:100E000001F0CCBA0121FAE770470000D44D000090
:100E100070B50023042810D20D4D00EB4004012AC8
:100E200002D101290CD00022094E00EB40003044D1
:100E300061B1012906D0022906D00723184670BDEA
:100E40000E30C2B22A55F9E74270F7E78270F5E733
:100E50008004002070B506461E480024C0E90161E8
:100E6000B00720D50025012211462846FFF7D0FF04
:100E70006D1C0446042D02D2002CF4D013E094B96A
:100E800040F2333204211448FFF76CFD04000AD10C
:100E9000FFF756FD040006D10F48104A0021001F3D
:100EA000FFF7F4FD0446F00712D00120FFF7D2FE51
:100EB00074B909480A4A00210C38FFF7E7FD04001D
:100EC00006D10548074A01210838FFF7DFFD04462F
:100ED000204670BDB00000209C4F0000AD11000006
:100EE000991900003B0900002DE9F05F6E4C0546A2
:100EF00000266078B34618B184F801B000F034FDE4
:100F00006A4F4FF47A694FF4C87A4FF00108182DF0
:100F100069D2DFE805F00C1313384754696E727B11
:100F2000727BC58484848484B3B6B9BCC5C500F023
:100F30001BFD3868FFF7FCFD06465CE00020FFF76C
:100F4000D9FE00284FF0000008D0FFF7C3FE022DA5
:100F500002D14FF4E16008E0484606E0FFF7C2FE28
:100F6000022D01D1C82000E05046410CC0034FF4CF
:100F70007A72801841F10001257052000023FFF7BA
:100F800031FA01462AE00020FFF7B4FE00284FF0B6
:100F9000000004D0FFF79EFE4FF44870E5E7FFF72E
:100FA000A1FEDFE70020FFF7A5FE00284FF00000BC
:100FB00002D0FFF78FFECFE7FFF794FED4E70020C3
:100FC000FFF798FE00284FF0000002D0FFF782FEE6
:100FD00001E0FFF787FE257040F6CD41002238681A
:100FE000FFF78EFD064646E00020FFF75DFE257008
:100FF00008E0002051E025703DE084F801800120E8
:10100000FFF752FE002240F26661E8E784F80180B3
:101010000120FFF749FE00224FF40051DFE7786816
:10102000FFF786FD0646D5F1110000D02EB1022053
:10103000FFF750FE84F802B01DE0012816D980B2F7
:10104000C8214843C117C90341EA5041C0034FF4C6
:101050007A72801841F1000152000023FFF7C2F9B3
:10106000014600227868FFF74BFD06460220FFF795
:1010700039FE84F802803046BDE8F09F00F074FC31
:10108000B9E700F071FCB4E700F06EFC04E000F09A
:101090006BFC0020FFF726FE0120FFF723FEAAE7E6
:1010A000FFF745FEA7E70000B0000020904F0000CA
:1010B0002DE9F0470546861C91460F464FF0010A80
:1010C0000020FFF73BFD1B4C04F21C4860683860B1
:1010D000D4E90101184F401A3968081A0EE00121BD
:1010E000404600F038FE00F0BDFC0146404600F0EE
:1010F00032FED4E90101401A3968081A401C8642C0
:10110000EDD8B9F1000F03D0052065F3891002E096
:10111000062065F39F5061683A68114004EB810135
:10112000C8606068304460600020FFF709FD5046E9
:10113000BDE8F0871C0800205C01002070B50D465A
:1011400004460A2902D10D21FFF7F8FFA0682268A2
:10115000411CA1601554D4E90101814204D3204609
:10116000BDE8704000F01DBF70BD000004488168FC
:101170004068814201D10120704700207047000083
:101180001C080020034630B5074800210478426857
:1011900006E000BF02EBC10005789D4203D0491C68
:1011A000A142F7DB002030BDE800002000780221DA
:1011B000FFF7D8BD05494FF0FF32082841F820203D
:1011C00002D3084480F8582070470000E40400204F
:1011D000F0B54FF0FF3512B10023082601E00823D7
:1011E0000C260C4C05E000BF54F823707F1C04D083
:1011F0005B1CB342F8D32846F0BD26185DB286F8D2
:10120000305044F82310002AF5D1E11881F8580035
:10121000F1E70000E40400200249084490F930009E
:1012200070470000E404002070B5084C050009D0A8
:1012300010342168002907D00868206049682846D2
:101240008847F6E70834F4E770BD0000B0040020DA
:10125000054A012120B1012805D19170FFF7E4BFB3
:1012600051700020FAE77047B004002010B5D0E9B3
:101270000234D1E90220D11AA04101D3012010BDCE
:10128000002010BD70B500240F4D10E0686800EB21
:10129000C406307802F0C4F97178012901D0012127
:1012A00000E000214140307800F05CF9641C2878AF
:1012B0008442EBDBD5E90401084303D0BDE870406C
:1012C00003F0C4BA70BD0000E800002010B5002192
:1012D000024800F04BFD80F3100010BD380C0020D8
:1012E0004FF480328A400168C1F848230068C0F892
:1012F000082370474FF4A07202EB810189B200F01D
:101300009DB92DE9F04105460E464FF4A07000EB63
:10131000860081B228684FF48034B440984622F0A9
:101320007F47C0F808432868C0F84843286801F0A0
:10133000C0FF286800EB8600C0F840752868C0F838
:101340004443B8F1000F02D02868C0F80443BDE858
:10135000F0810068D0F804057047000070B543794B
:10136000234C44F823204279231D03EBC202224C74
:101370001579204A121BD4082DB10825022000EB54
:1013800004401EA130E005680A88C5F8082590F9D8
:1013900004208978002A4FEA411104DB02F1E0229F
:1013A00082F8001405E002F00F0202F1E02282F858
:1013B000141D90F904100122002909DB01F01F051A
:1013C00002FA05F54909890001F1E021C1F800514F
:1013D0004179002503EBC1010A71417943F83100DD
:1013E000032000EB04400EA101F008FD284670BD6B
:1013F000280100204C5A00000C5A0000525443208F
:10140000696E7374616E636520616C726561647985
:1014100020696E697469616C697A65642E000000E8
:101420005254433A20696E697469616C697A6564E3
:101430002E00000090F90400002809DB00F01F02D4
:10144000012191404009800000F1E020C0F8001225
:1014500070470A46022100F07CB84FF4827100F018
:10146000EDB800680121016070470068012141600A
:1014700070472DE9F05F07460C464FF4A07000EB73
:1014800084001FFA80FA38684FF48036A6409B46E5
:1014900022F07F45C0F848633868C0F808633868B0
:1014A000D0F8048500EB8402D2F84095C2F840855C
:1014B0005146386801F0FDFEA9EB080020F07F409E
:1014C000012806D1102001F0EFFF5146386801F0E5
:1014D000F0FE3868D0F80485C0F84463A5EB080135
:1014E00021F07F413868012900EB840010D0C0F85A
:1014F00040553868D0F804156FF07F4C6A1A521EB8
:1015000022F07F42ACEB0B03934217D362B118E099
:101510006D1CC0F84055102001F0C6FF3868D0F8A7
:10152000040540450AD10CE000EB84006D1CC0F8B6
:1015300040553868D0F80405884202D00D20BDE837
:10154000F09F01223146384600F003F80020F6E70C
:1015500070470368C3F84413002A02D00068C0F83B
:10156000041370472DE9F0470E463249804601EBDF
:101570005001C007097801D00F0901E001F00F0701
:10158000424601200021FEF75EFFDFF8AC900446E2
:101590000D46052F4BD2DFE807F0031419262A0069
:1015A000002E44D00121404603F020F80020FFF730
:1015B000C5FA4846D0E904120C431543C9E904456D
:1015C00030E00EB1022114E0002112E04EB10321FF
:1015D000404603F00BF84046BDE8F047012103F018
:1015E0007FBB012105E0002E21D1042101E02EB1B5
:1015F00003214046BDE8F04702F0F8BF0021404615
:1016000002F0F4FF0021404603F06AFB0020FFF7E0
:1016100095FA4A46E043D2E90434184024EA050129
:10162000C9E90401BDE8F0470020FFF789BABDE829
:10163000F0870000F0050020E800002010B50068E9
:1016400042581AB101F035FE012010BD002010BD36
:1016500010B50B48FFF77DFE094A083AD2E9043479
:10166000C018D2E9063244F10001C31A71EB02023C
:1016700004D24FF08072801841F1000110BD0000CB
:101680000801002010B5C0B2FFF77CFD04460078C9
:1016900001F0C6FF01466078012801D0012000E07A
:1016A000002090EA010F08D00449D1E90401084361
:1016B00003D1BDE8104003F0C9B810BDE800002018
:1016C000F0B593B01546064631B1012907D002297D
:1016D00007D0072013B0F0BD6FF0270102E0002112
:1016E00000E02821404C01AF0DF1100C0DCC87E833
:1016F0000D0001F14002ADF80420ADF8082089CCBE
:101700008CE88900501FADF81000C01CADF8140023
:10171000B4E888100DF11C0E8EE88810ADF81C009E
:10172000001DADF82000B4E888100DF1280E8EE8F9
:101730008810ADF82800C01CADF82C0054E91A033D
:10174000CDE90D03ADF8342054E91802CDE90F02BC
:1017500001F13C00ADF83C0054E91602CDE911025C
:101760004331ADF844102A4601A9304600F019FE75
:1017700008B1FFF779F92A4604A9304600F011FEB6
:1017800008B1FFF771F92A4607A9304600F009FEB3
:1017900008B1FFF769F92A460AA9304600F001FEB0
:1017A00008B1FFF761F900232A460DA9304600F081
:1017B000F1FC08B1FFF758F901242B4622460FA986
:1017C0003046009400F0C0FE08B1FFF74DF92B46FB
:1017D000012211A93046009400F0B6FE08B1FFF7CF
:1017E00043F9002076E70000F44D00002DE9FC5F8E
:1017F0000E008346DDE90C47C6F10000984692468C
:10180000814600D40846012503E000BF90FBFAF0B2
:101810006D1C5045FADAA84500D9454624B1002E82
:1018200001DB780700D5641EB80702D5B8F1000FB8
:101830000AD0F80708D13CB1A54205D2202158466C
:10184000641EFFF77BFCF6E7002E02DA4E462D21E0
:1018500002E0780703D52B215846FFF76FFC07F00D
:10186000030002280BD1B8F1000F08D13CB1A5420A
:1018700005D230215846641EFFF760FCF6E7CDE93B
:101880000047434652463146584603F0CFF9BDE87B
:10189000FC9F000070B50D46044600684FF4887147
:1018A00001F0BDFD4FF49071206801F0B8FD4FF4D8
:1018B0009271206801F0B3FD4FF4A271206801F02D
:1018C000AEFD4FF4AC71206801F0A9FD206812490B
:1018D000C0F804132068690740F30730090E002898
:1018E00004DB00F1E02080F8001405E000F00F00B8
:1018F00000F1E02080F8141D206840F30730002834
:1019000009DB00F01F02012191404009800000F135
:10191000E020C0F8001170BD100342000246002014
:101920001268530713D502F00300012802D00228E1
:101930000CD105E0C2F383100B68801C184404E04E
:101940000223086803EB925210440860012070479C
:101950000268134602E08A4204D01268002AFAD1D3
:101960000B600160704700000A4810B5807860B1D4
:10197000002401E0022C06D02046FFF7ABF9641CDE
:10198000042CF7D310BD0324F6E7BDE81040FFF7A1
:10199000C5B90000B000002003480179C90702D092
:1019A0000078FFF7A1BA7047B00000202DE9FF4F83
:1019B00083B09946DDF840800F4616464FF0FF3061
:1019C000494501D2012300E003460193424500DA74
:1019D000012000904FF0000BB9EB070000D540420A
:1019E00005B2B8EB060000D5404204B2119B039843
:1019F00002F044FAA54204DA65406C4065404FF0BD
:101A0000010B601B400000B2029060000FFA80FAE8
:101A1000AAEB050004B21EE0002C09DB0198384453
:101A200087B20098304486B20298204404B20CE099
:101A300004EB0A0004B2BBF1000F03D0009830445D
:101A400086B202E00198384487B232463946119B8B
:101A5000039802F013FA4645DED14F45DCD107B0BA
:101A6000BDE8F08F2DE9FF410026244800F070F911
:101A70002248001F074600F06BF9214C2149A0685D
:101A800000900D6800E000986946284004EB800053
:101A90000C30FFF743FF0028F5D101AA009901EAB5
:101AA000050304EB8303491CDB6842F82030401C2B
:101AB00000910228F2D3019800F0030001280BD016
:101AC000022810D10198032101EB90500099BDF834
:101AD0000A6001EB900005E00198BDF80A60C0F3D0
:101AE000831008440090384600F02FF908B10098A0
:101AF000A06004B03046BDE8F0810000340C002046
:101B00001C0800205C0100200EB54FF480442146E3
:101B1000002001F0CFF908B1FEF7A6FF01F046F86A
:101B200000F0A8F908B1FEF79FFF002000F0C0F90F
:101B3000FEF7B8FF08B1FEF797FF234A01212348BB
:101B4000FEF7A4FF08B1FEF78FFF21461F4C0022CD
:101B50002068FEF7D5FF08B1FEF786FF01F0B4FA62
:101B600008B1FEF781FF1A490220FFF773F908B1A7
:101B7000FEF77AFF1548203000F006FC08B1FEF7AA
:101B800073FF14481449401AC008032101EB0040B8
:101B900012A101F033F96068029000211A48CDE9E2
:101BA00000010A4819A3012202A9203000F074FCA8
:101BB00008B1FEF759FF01F09BFA00BF01F004F8ED
:101BC0000028FBD1F7E7000009470000B44D0000F2
:101BD000F50D00006C5A00000C5A000053504920CB
:101BE0007472616E73616374696F6E206D616E6192
:101BF000676572206578616D706C652073746172C1
:101C00007465642E200A0D00B857000020204E4F46
:101C10005244494353454D49000000002DE9F04727
:101C2000C5881E1DB6FBF5F78946B6FBF5F10446DF
:101C300005FB176C407916686843DDF820A0F7189B
:101C4000001F874200D9C61A166001E02468491EA9
:101C50000029FBD1A5EB0C078846B74216D818E03F
:101C600004EB0C00001D09EB0803BAF1000F3A4623
:101C700002D00146184600E01946FEF7F7FB24683B
:101C8000F61B4FF0000CB844B54201D9374600E0CE
:101C90002F46002EE4D1BDE8F087000030B50246A3
:101CA00051B101F01BF90021074C08E034F8213054
:101CB0001568AB4202D11160002030BD491C814241
:101CC000F4D3052030BD00000000000010B531B194
:101CD000B2FBF3F403FB14241CB1092010BD0E2049
:101CE00010BD01600021416081608281C38108468E
:101CF00010BD70B50C460546FEF78CFA002802D0E0
:101D000021882868084470BD10B50A8849888A422D
:101D100003D1FEF7C1FA012010BD002010BD70B53F
:101D20000C460546FEF79BFA002802D06188286819
:101D3000084470BD10B50A8849888A4203D1FEF76D
:101D400085FA012010BD002010BD002100F009B867
:101D5000012100F010B808B56A46FEF7F2FA0098C3
:101D600008BD08B56A46FEF7D2FA08BD08B56A464E
:101D7000FEF7B4FA08BD08B56A46FEF7BBFA00984C
:101D800008BD08B56A46FEF7E9FA009808BD70B5C7
:101D9000044600252846FEF7D1FE216862680868DF
:101DA00090420ED9401E08600178238AE26801FB48
:101DB0000325227A2168101AC0B20A79824200D221
:101DC00008710020FEF7BCFE284670BD70B50546C0
:101DD0000C460020FEF7B2FEE868298A201AB0FB04
:101DE000F1F12A681068431C13600170BDE870406F
:101DF0000020FEF7A5BE10B530B1017A4268036835
:101E0000891AC9B21A6006E00E2010BD03681A686C
:101E1000541C1C601170491EC9B2F7D20068002121
:101E20000171084610BDC20800F007030120895C5B
:101E300098400840704700F180400068002800D0BA
:101E40000120704708B500F1804000210160006862
:101E5000009008BD2DE9F041040007D0044E4FF476
:101E60007A47751C3846A847641EFAD1BDE8F08150
:101E7000304E000070B50C4C0125207808B1852645
:101E80000BE00020A06060602061E060074801F086
:101E9000EBFA064601F0D2FA257001F0C7FA00B15C
:101EA000A570304670BD0000B00400205112000043
:101EB00070B5104D0446A87838B114B1616801209E
:101EC00088470020FEF73AFE0CE00020FEF736FEC1
:101ED00024B1084821461030FFF73AFDE86808B9F8
:101EE00001F0D2FAE868401CE860BDE870400020CC
:101EF000FEF726BEB004002030B41C460378064D21
:101F000045F82320103545F8234002B1034A30BC80
:101F1000001D01F0FDBB0000C4040020E5420000EC
:101F2000F0B505460478154889B0164640F82420D7
:101F3000124A08690832A2F10C0742F82400487FCF
:101F4000385520226846FEF791FA04942878385CC8
:101F500048B10EB10A4A00E000226946281D01F08E
:101F600049FE09B0F0BD0EB1064A00E00022694604
:101F700005F10C0001F008FDF3E70000C4000020AB
:101F8000E94A0000314900000FB408B5039900295F
:101F900004D004AA00926A4600F00FF801B05DF880
:101FA00014FB10B582680446002A05D0D4E9040366
:101FB000216898470020A06010BD2DE9FC4791469C
:101FC0000C00804676D014F8011B39B125290ED0BB
:101FD0004046FFF7B3F820780028F4D198F80C00B9
:101FE000002867D04046BDE8FC47FFF7DABF002075
:101FF000012221782B291BD02D2902D0302908D18C
:1020000002E040F0010001E040F00200641C002A00
:10201000EFD100252A290ED02178A1F130020A2A19
:1020200011D205EB850201EB4205641C303DF1E75E
:1020300040F00400EAE7D9F800100B1DC9F80030A1
:102040000968641C0D44217800232E290BD114F853
:10205000011FA1F130020A2A05D203EB830201EB32
:102060004203303BF3E76C290DD068290BD0692976
:1020700021D00BDC252918D0582931D063290ED066
:10208000642915D117E014F8011FECE7702969D015
:10209000732932D075291BD0782909D120E0D9F8CD
:1020A0000000011DC9F8001001784046FFF746F80E
:1020B000641C90E76CE0D9F800100A1DC9F80020F4
:1020C0000968CDE900500A224046FFF78FFBEFE791
:1020D000D9F800100A1DC9F8002009680A2206E094
:1020E000D9F800100A1DC9F8002009681022CDE9AE
:1020F0000050404602F09AFDDAE7D9F800100027B8
:102100000A1DC9F800200E68C00705D112E040463C
:10211000761C7F1CFFF712F831780029F7D104E014
:10212000202140466D1EFFF709F8BD42C0D9002DA1
:10213000F6D1BDE74EB13046FEF7BCF9074604E0E4
:10214000202140466D1EFEF7F9FFBD4206D9002D45
:10215000F6D103E04046761CFEF7F0FF3178002907
:10216000F8D1A5E7D9F80000011DC9F800100568ED
:1021700030214046FEF7E2FF78214046FEF7DEFFC1
:1021800008200021CDE90001034610222946B0E7CE
:10219000BDE8FC872DE9FF5F0C46B1F90450C16929
:1021A000904683469A462288A08800268B88121A79
:1021B0003746934206DB62884988101A4FF00109BE
:1021C000814277DA072004B0BDE8F09FBAF1000F32
:1021D00072D02188881B01D44A1B33D5701CCDF8DE
:1021E0000090CDE90180084483B260880021401B43
:1021F00082B2584601F048FFCDE900982188681C5A
:102200000390084483B260880021801B82B2584644
:1022100001F03AFFCDE9009821880398084483B281
:1022200060880021304482B2584601F02DFFCDE98C
:10223000009821880298084483B2608800212844CD
:1022400082B233E009EB4601CDF80090CDE901817F
:102250008BB26188491B8AB281B2584601F014FFE3
:1022600009EB4500CDE9009883B203906088801B9C
:1022700082B22088401B81B2584601F005FFCDE9AB
:102280000098039883B26088304482B22088401B53
:1022900081B2584601F0F8FECDE9009860880299B5
:1022A000284482B220888BB2801B81B2584601F04C
:1022B000EBFE51E061E0FFE760884346284482B2CC
:1022C0002088304481B2584601F0D8FD60884346EA
:1022D000284482B22088801B81B2584601F0CEFD8E
:1022E00060884346304482B22088284481B25846F0
:1022F00001F0C4FD60884346304482B22088401B10
:1023000081B2584601F0BAFD60884346401B82B254
:102310002088801B81B2584601F0B0FD608843469A
:10232000401B82B22088304481B2584601F0A6FD9D
:1023300060884346801B82B22088401B81B2584689
:1023400001F09CFD60884346801B82B220882844AF
:1023500081B2584601F092FD002F07DC761C36B2A0
:1023600007EB4600401C07B2002F06DD6D1E2DB2A4
:10237000684207EB4000401E07B2B542BFF626AFE9
:10238000002020E70069004710B504460068804738
:10239000002802D1E2690121117010BD826908464E
:1023A00010472DE9FC47C3690C4681469888098887
:1023B0004FF000081546C446884203D25A88A688C2
:1023C000B24206D36288904206D25888E388984287
:1023D00002D20720BDE8FC87A388E688CF1AA2EBCB
:1023E000060000D57F42002800DA4042874202DD25
:1023F000B4F808C001E0B4F80880994201D0B242B4
:1024000010D1581AB31A00D55B4263449BB2CDE990
:102410000035002800DA4042404483B2484601F0CB
:1024200033FE36E0B8F1000F15D000260FE0B4F906
:102430000600CDE90005A0886288304483B2208878
:10244000304481B24846FFF7B1FA761CB6B2208913
:10245000B042ECD81DE0BCF1000F14D000260EE015
:10246000E088304400B2CDE900056088A38830449C
:1024700082B221884846FFF799FA761CB6B22089C5
:10248000B042EDD805E030B2CDE900054846FFF78F
:102490008DFA00209EE700002DE9FE4F8146088856
:1024A0000C9DADF80800D9F81C0088464C8841887E
:1024B00028781F46081A9346A04202DA0720BDE892
:1024C000FE8F00264FF00A0A2BE00A2A2ED0CDE913
:1024D000004B02AB2946484602F012FCB95D687811
:1024E000081AC0B220292CD0696811F8200000BF5A
:1024F000D9F81C108A88121ABDF8080082420FDA37
:102500000D9888B1B8F80000ADF80800287849881F
:10251000B0FBFAF22244024494B2081AA04203DB50
:10252000761CBA5D002AD0D10020C8E7B8F80000B8
:10253000ADF808002878B0FBFAF12144084484B2D1
:10254000CCE728784008D3E72DE9FE4F9A468B88E0
:1025500015468146581B87B2C8880C46411BDDF8DA
:1025600030C08EB2012B13D0012811D0B3EB450F30
:102570000ED3B0EB450F0BD3D9F81C202188B2F84D
:102580000480884507D25288B4F80280424502D2BE
:102590000720BDE8FE8FBCF1000F06D0CDE9000A90
:1025A0006288484601F070FD50E0ADF80010608888
:1025B000ADF802002088A18852460844ADF8040016
:1025C0006088ADF80600ADF8085069464846FFF748
:1025D000E8FE2088ADF80000608852463044ADF82F
:1025E00002002088A1880844ADF80400608869468C
:1025F0003044ADF806004846FFF7D3FE2088ADF81A
:102600000000608852462844ADF802002088ADF8EA
:102610000400608869463044ADF806004846FFF77C
:10262000C0FE208852463844ADF8000060886946F4
:102630002844ADF8020020883844ADF804006088D2
:102640003044ADF806004846FFF7ABFE0020A0E797
:102650002DE9FF411C46DDE90A7815460E4668461D
:1026600000F020F946EA450141EA840141EA0722E7
:1026700042EA0841009A00EB8200C0F80017BDE86A
:10268000FF812DE9FF411C46DDE90A7815460E461B
:10269000684600F015F946EA450141EA840141EA3D
:1026A000072242EA0841009A00EB8200C0F80017B6
:1026B000BDE8FF812DE9FF411C46DDE90A7815469A
:1026C0000E46684600F00AF946EA450141EA8401EF
:1026D00041EA072242EA0841009A00EB8200C0F872
:1026E0000017BDE8FF812DE9FF411C46DDE90A78AE
:1026F00015460E46684600F0FFF846EA450141EAF5
:10270000840141EA072242EA0841009A00EB820074
:10271000C0F80017BDE8FF812DE9FF411C46DDE947
:102720000A7815460E46684600F0F4F846EA450178
:1027300041EA840141EA072242EA0841009A00EB9B
:102740008200C0F80017BDE8FF811CB50021009190
:102750000B4601220191FFF7C6FF1CBD1CB50021ED
:1027600000910B4601220191FFF7D6FF1CBD1CB55D
:1027700000220B46009211460192FFF7B4FF1CBDE8
:102780001CB500220B46009211460192FFF7C4FFD0
:102790001CBD1CB5002100910B4601220191114680
:1027A000FFF788FF1CBD1CB5002100910B460122DC
:1027B00001911146FFF797FF1CBD1CB50021009148
:1027C0000B46012201911146FFF7A6FF1CBD13B570
:1027D0000C46684600F074F8009900EB8101D1F8CE
:1027E000002722F44032C1F80027009900EB810055
:1027F000D0F8001741EA0441C0F800171CBD0000E2
:102800003CB50A4CD4E90034CDE900346B46441899
:1028100008E000BF53F82010D1F8205520C2C1F8BD
:102820002055401C8442F5D83CBD0000BC4F000040
:1028300001B5684600F028F8009A01219140C0F8DF
:102840000C1508BD01B5684600F048F8009A012152
:102850009140C0F80C1508BD03B581B041B101A885
:1028600000F012F8019A01219140C0F818150EBD30
:1028700001980090684600F007F8009A002100EBEC
:102880008200C0F800170EBD0168202902D24FF067
:10289000A040704701F01F0101600148704700002F
:1028A000000300500168202902D24FF0A040704779
:1028B00001F01F0101600148704700000003005053
:1028C0000168202902D24FF0A040704701F01F019B
:1028D0000160014870470000000300500168202992
:1028E00002D24FF0A040704701F01F010160014883
:1028F00070470000000300500168202902D24FF009
:10290000A040704701F01F010160014870470000BE
:10291000000300500168202902D24FF0A040704708
:1029200001F01F01016001487047000000030050E2
:1029300042094FF0000102D0012A05D102E04FF018
:10294000FF3101E04FF6FF7100F01F0001228240CD
:102950000A4201D0012070470020704701B5684647
:10296000FFF7AEFFD0F810050099C84000F0010055
:1029700008BD01B56846FFF787FF009A0121914025
:10298000C0F8081508BD01B56846FFF7A7FF009A13
:1029900001219140C0F8081508BD01B56846FFF750
:1029A000ABFF009A01219140C0F8081508BD01B5A0
:1029B0006846FFF7AFFF009A01219140C0F8081563
:1029C00008BD38B501240090684631B1FFF76AFFB1
:1029D00000998C40C0F8084538BDFFF763FF0099A7
:1029E0008C40C0F80C4538BD034908B508440021A7
:1029F00001600068009008BD006000400249405836
:102A0000012800D0002070470060004030B5154A12
:102A100001460020D2F8104423460AE0DB681D7905
:102A2000854205D1401C0A28F6DB4FF0FF3030BD4F
:102A30001B68002BF2D1431CF9D0CB681871D2F877
:102A4000103443B1DB68CC681B682360D2F81024D3
:102A5000D268116030BDC2F81014C96800220A6043
:102A600030BD00001C080020F0B595B01C4615468E
:102A70000F4608461A9E00F001FB182109A8FDF731
:102A80000EFD0E96CDE909540023082203A938460D
:102A900000F009FB05980690BDF81000ADF81C0089
:102AA000BDF81200ADF81E0000208DF8210003983B
:102AB000082600F00300012802D0022818D032E0D6
:102AC00003983346850AC0F3C2008DF820000398AE
:102AD0000FA9C0F38314A200384600F0E4FA09A855
:102AE000009006AB22460FA9284600F023FA1AE010
:102AF0000398840DC0F3C2008DF82000082C01D289
:102B0000254600E0082533462A460FA9384600F03E
:102B1000CAFA2E44641B09AB06AA29460FA800F086
:102B200071F9002CEAD1384600F0AEFA15B0F0BDCC
:102B30007047012001F01ABF084810B50178084A13
:102B4000515C19B1001D01F0EFF802E00C3000F00B
:102B5000E9FFBDE81040002001F008BF400100205F
:102B6000C000002008B5034A00924023024AFFF744
:102B70007BFF08BD59420000840600200A4A012953
:102B800002EBC00007D0022907D0032907D004298F
:102B900007D000207047022070470420704700795A
:102BA00070474079704700000C5A000010B5FFF7DD
:102BB000C0FF04210348FFF729FF02490120C9682B
:102BC000487110BDFC5900002DE9F0478CB0FEF7AC
:102BD000CDFA18B100200CB0BDE8F0877D4C002084
:102BE000C4F81804BFF34F8F7B49A06802900D68AA
:102BF0004FF00008284004EB80000BE0D4F81804E4
:102C000070B961680298814201D8A160E2E728406A
:102C100004EB80000C3002A9FEF780FE0028EDD105
:102C2000002003AA029901EA050304EB8303491C6F
:102C3000DB6842F82030401C02910228F2D303984E
:102C400000F00300022802D001284DD0A7E003982D
:102C50005022810D8946B2EB905F00D850210E467C
:102C600066F39F50039008315C4800F0BEF90700FE
:102C700078D000F003FA4346082203A9384600F052
:102C80001AFA029908F1080A2940681A8000001D02
:102C9000864222D94F4D0C3530B1C2B204EB8101CE
:102CA000301A90460C3104E02946F2B200259046D5
:102CB0002846C6B25346384600F0FDF90AEB080331
:102CC00025B132462946384600F0F5F9029909F156
:102CD000030001EB900002903BE004EB81015346BE
:102CE000324638460C31EFE70398C0F383100628CC
:102CF00000D30620039960F38911C1F38310801C6F
:102D000003918100354800F070F9070047D000F0CA
:102D1000B5F94346082203A9384600F0CCF908F17A
:102D2000080800260FE00298434600EA0501401C0F
:102D300004EB81010290042238460C3100F0BBF90B
:102D400008F10408761C0398C0F38310B042EAD857
:102D500047B1D4F81054D4F8180478B1384600F0CC
:102D600093F931E01BE0E8684079012804D12A6832
:102D70002846394612689047E8680568002DF2D168
:102D8000384600F081F90020FDF7D8FED4F8180489
:102D900008B90298A0600020FDF7D2FE14E0D4F834
:102DA000104405E02168204689688847E068046887
:102DB000002CF7D10A480B49401AC008022101EB48
:102DC000004009A100F01AF8FEF7D0F980F00100E8
:102DD00001E700001C0800205C010020745A00007C
:102DE0006C5A00000C5A00004261636B656E64739C
:102DF00020666C75736865640000000000231A4645
:102E000001F00CBC2DE9F0470E4680461C46924668
:102E1000082940D894F80C900020207319461046D9
:102E200001F0CEF80025B54206D218F805201BA106
:102E30002046FFF7A9F803E01AA12046FFF7A4F8FF
:102E40006D1C082DEFD318A12046FFF79DF8002533
:102E5000B54212D218F805707E2F08D8FDF702FB94
:102E60000068C05D10F03E0F01D03A4600E02E220F
:102E70000EA12046FFF788F803E00DA12046FFF7DA
:102E800083F86D1C082DE3D301222146504601F042
:102E900079F884F80C90BDE8F087000020253032E6
:102EA00078000000202020007C0000002563000046
:102EB00020000000064910B500200870054800F009
:102EC000E1F8002803D1044800F0E5F9002010BD26
:102ED0001C080020745A000064580000024803498E
:102EE000401AC00870470000745A00000C5A0000D5
:102EF00013B56846FEF7D2FE08B100201CBD02489B
:102F0000009950F831001CBD0C5A000070B50848FB
:102F10000125D0F81044057007E0E068457121688C
:102F2000204649688847E0680468002CF5D170BDE8
:102F30001C0800202DE9FF4781460C9D00200C460F
:102F40002F7B2873984616462946184601F038F814
:102F5000072E42D2DFE806F004090F161F2A3600BA
:102F600049462846FFF710F837E0494628462268C8
:102F7000FFF70AF831E0D4E9002349462846FFF775
:102F800003F82AE0A0680090D4E9002349462846C7
:102F9000FEF7FAFF21E0D4E90201CDE90001D4E90E
:102FA000002349462846FEF7EFFF16E004F108002B
:102FB00007C88DE80700D4E9002349462846FEF7F4
:102FC000E3FF0AE004F108000FC88DE80F00D4E920
:102FD000002349462846FEF7D7FF002229464046EF
:102FE00000F0D0FF2F73BDE8FF872DE9F041058A7F
:102FF00080462D1F4819C01CB0FBF5F0C6B24046F4
:10300000FEF7C5FE041E19D000202071012060715A
:10301000E58000272546761EC4F800800BE0404678
:10302000FEF7B5FE60B16179491C61712860054603
:103030007F1CC0F80080B742F1D32046BDE8F08184
:10304000204600F002F80020F8E72DE9F04145792C
:1030500001466B1E002201E00968521C9A42FBD314
:103060000F680146002605E038460C68FEF7AEFE04
:103070002146761CAE42F7D3BDE8F0810121001D48
:10308000FEF769BEFEF7B7BE10B504460121001D6C
:10309000FEF777FE10F0FF0F04D12046BDE8104088
:1030A000FFF7D3BF10BD1CB501920122009201AA07
:1030B000FEF7B4FD1CBD1CB501920022009201AACE
:1030C000FEF7ACFD1CBD0000064910B5002048709D
:1030D000091D0860BFF35F8F0349044800F0EFF853
:1030E000002010BD34010020105800007806002098
:1030F00010B50020FDF722FDF1EE100A20F09F0030
:10310000E1EE100ABFF35F8F05494020C1F880024D
:103110000020FDF715FD20BF40BF20BF10BD0000FF
:1031200004E000E02DE9F0410446002790460E46F9
:103130003846FDF703FD204600F038F830B105278A
:103140000020FDF7FDFC3846BDE8F08120680568E9
:10315000B8F1000F05D10168204600F03FF8216862
:103160000860E268012A0CD0022A0ED0042A11D08D
:103170006068082A13D005FB02013046FDF776F996
:10318000DEE76068405D3070DAE7606830F81500AF
:103190003080D5E7606850F825003060D0E700EB5C
:1031A000C500D0E90010C6E90010C9E70168086849
:1031B0004968884201D101207047002070470168AA
:1031C0000A6849688068884201D9491C00E00021EA
:1031D000914201D1012070470020704780688842E9
:1031E00001D9481C7047002070472DE9F041044682
:1031F0004FF000080E464046FDF7A0FC2046FFF7C2
:10320000DEFF070009D0207C38B14FF00408002011
:10321000FDF796FC4046BDE8F081206845684168AE
:103220002046FFF7DBFF2168486037B1206801685E
:103230002046FFF7D3FF21680860E268012A14D016
:10324000022A16D0042A19D0082A1CD060683146F8
:1032500005FB0200FDF70AF9204600F009FF21688E
:103260008A688242D3D28860D1E761683078485555
:10327000F2E76168308821F81500EDE76168306891
:1032800041F82500E8E7D6E90001626802EBC502D3
:10329000C2E90001E0E78268002191608268116163
:1032A000826851618268D160826851608068016083
:1032B000704708B5002242504058009008BD016098
:1032C00009684160AFF3008010B5D0E90021536870
:1032D000994201D1002104E0D1E90034A34202D097
:1032E0001946816010BD08314160F0E770B50D46A8
:1032F0000646446804E0B2682946904718B124683D
:1033000020680028F7D120682860256070BD4068DB
:103310000068704741680868002801D002680A60A8
:10332000704702460020526806E08B4203D10868CD
:103330001060012070471A461368002BF5D17047C2
:1033400070B5044603460D46074A0830FEF7D4FD23
:10335000010007D12068002204C03CCD3CC0A0F190
:1033600010020260084670BDA54200002DE9F04140
:103370008046134888B01D460E9C006816460F46CE
:1033800000900F491822091D01A8FDF76FF8684643
:10339000CDE903068DF8145001A94046069700F0C8
:1033A00011F8002808D101E004B1A0479DF8000001
:1033B0000028F9D19DF8010008B0BDE8F0810000B7
:1033C0001C58000073B50546406801A9FFF70DFFC2
:1033D000040003D10021284601F0A6F820467CBD58
:1033E00010B504460C3000F055FA21680020086042
:1033F00010BD4058002800D00120704708B50022B9
:1034000042504058009008BDD0F80403084000D056
:10341000012070474058002800D00120704708B5AF
:10342000002242504058009008BD00000248006849
:10343000002800D0012070470004014008480068BF
:10344000012110F0010F06D14FF0E020C02280F8DA
:1034500000248430C16703490120086070470000E0
:1034600000E100E0180500400649024600200B7903
:103470000BB1852070470A6001220A7100224A714F
:1034800070470000D400002010B54FF48270FEF7A2
:10349000D9FC02204107C1F8040302490120086059
:1034A00010BD000008000040002802D00149800142
:1034B00008477047E15700002DE9F0410D460646E8
:1034C00000F0C4FC0028304615D0FDF7A5FE0838F2
:1034D00000F050FD032802D001280AD003E0304656
:1034E000FFF73CFA28B103213046BDE8F041FFF771
:1034F0006EB90221F8E700F0B5FC002822D0304672
:10350000FDF78AFE04464FF4807000EB84000E4FF6
:1035100081B207EB8400D0F8102542F00102C0F818
:1035200010250846FFF760FA002D0BD03046FDF756
:1035300073FE064951F82000002803D00120A04066
:10354000C7F80403BDE8F08100600040E4040020F7
:103550002DE9FC41DFF8BC80044608EB040000279D
:1035600090F930001346C0170E46401C01D00827C2
:103570004DE0B0781946C0F340022046FDF728FE22
:103580000546401C42D0B07841071AD4C0070DD080
:1035900068460094FFF794F9009900EB8101D1F897
:1035A000000720F00200C1F8000707E0002173784F
:1035B000204600910A460191FFF763F8204600F08B
:1035C00037FCB078800718D51348317800EB8500B8
:1035D000D0F81025114B1A40C0F810254FF47C523A
:1035E0004FF4403302EA042203EA01410A43D0F8CF
:1035F00010150A43C0F8102509E008EB05003278E1
:1036000010F8581F41EA8211017000E00427384683
:10361000BDE8FC81E404002000600040FFC0FCFF26
:1036200010B5FFF79BF9002800D0012010BD000065
:1036300070B51A4D95F86A0008B1082070BD0024D5
:10364000661E2046FFF774F910B1281980F8306023
:10365000641CE4B2302CF4D300242046FDF7AAFD0C
:10366000641CE4B20C2CF8D30C4800210C4C4166CD
:10367000A0F868100B49C02081F800040126402002
:10368000891FC1F800014FF4BE70FFF7ADF9A00427
:10369000C4F8040385F86A60002070BDE4040020CB
:1036A0000060004006E000E0034890F86A0000284F
:1036B00000D0012070470000E40400200121B1EB9C
:1036C000507F01D1012070470020704770B50D4632
:1036D00000F0C2FC04000FD00020FDF72FFA207983
:1036E00020B10020FDF72CFA112070BD01202560CB
:1036F00020710020FDF724FA002070BD10B500F005
:10370000ABFC002802D000210160017110BD000057
:103710002DE9FC47064600790C46154600EB4001B2
:10372000DFF868A101EBC0020AEB82079846397FF7
:1037300011B10820BDE8FC87554951F820103068C8
:10374000FFF7C4FF08B11120F4E7C7E90058207B58
:103750000128207802D8FFF775F801E0FFF713F988
:103760004FF00009CDF80090CDF8049020784B463A
:103770004A460121FEF79EFF60784FF0FF35FF2893
:1037800006D08046FFF75EF84046FFF702F800E0FB
:10379000A846A078FF2809D0002205460123CDF8CD
:1037A00000901146CDF80490FEF784FF3079A1789F
:1037B00000EB400202EBC0020AEB8200C177E07826
:1037C000FF2804D0FFF7DFF8E078FEF7E2FF327958
:1037D000E07802EB420101EBC2010AEB810188773C
:1037E00031682378C1F80835C1F80C85C1F8105547
:1037F000A068C1F82405237B607B00B10120012B68
:1038000004D0022B05D0032B08D105E040F00200C4
:1038100004E040F0040001E040F00600C1F8540567
:103820003379607903EB430505EBC3030AEB8302AD
:1038300082F820000122C1F80025386808B33068FA
:10384000217940F3073000284FEA411104DB00F1F1
:10385000E02080F8001405E000F00F0000F1E02007
:1038600080F8141D306840F30730002809DB00F0B1
:103870001F0102FA01F14009800000F1E020C0F8C8
:103880000011484687F81D903A7753E7500500200D
:10389000C44F00002DE9FC410646007900EB4001D1
:1038A00001EBC000184901EB8005286890B1306831
:1038B00040F3073100290DDB01F01F020120904089
:1038C0004909890001F1E021C1F88001BFF34F8F60
:1038D000BFF36F8F3768286810B10420C7F808035A
:1038E000E87F0024FF2806D0002300940122194617
:1038F0000194FEF7DFFEC7F800453068FFF7FEFED3
:103900002C77BDE8FC810000500500202DE9F04730
:1039100005460079884600EB400101EBC0001549DF
:10392000914601EB80040026607F10B11120BDE8B4
:10393000F087206808B10120607798E80E00D8F879
:103940000C000027C4E90530C4E9031284F828708C
:10395000A07FFF2801D0FEF775FFB9F1000F02D05C
:103960006777062604E042462146286800F0DAFC24
:103970003046DCE7500500200149024801F01EB83E
:103980007C050020002000402DE9F041054600792B
:1039900016460F4600EB40012D4A01EBC00102EB39
:1039A000810494F82A1011B10820BDE8F08129495A
:1039B00051F820102868FFF789FE08B11120F4E7BC
:1039C00039462846FDF7D0F8666038692060300037
:1039D0004FF001062FD03F7F4FF48E712868FFF71C
:1039E0000DFD4FF4A2712868FFF708FD28681A49F9
:1039F000C0F8041328684FEA471140F30730002845
:103A000004DB00F1E02080F8001405E000F00F0076
:103A100000F1E02080F8141D286840F307300028EA
:103A200009DB00F01F0106FA01F14009800000F1F6
:103A3000E020C0F8001128680421C0F8001500201B
:103A4000A061E06184F8290044F8140FA675ACE782
:103A50007C050020C84F0000800002002DE9F05FC7
:103A6000054600790B4600EB400101EBC0002449FC
:103A700001EB8004284600F045F810B11120BDE8A4
:103A8000F09F62614FF00009C4F82090A36084F8B1
:103A900028904FF48E784E4641462868FFF7AEFCDA
:103AA00028684FF0010AC0F808A02146286800F0F5
:103AB00015FF606808BBD5F800B067690FE000BF6C
:103AC00094F8280008B10F2615E041465846FFF744
:103AD00090FC0028F4D02146584600F0FFFE206AF2
:103AE000B842F2D3574641462868FFF782FC0028C7
:103AF000F9D02868C760C4F814903046BFE70000CA
:103B00007C050020007900EB400101EBC000044976
:103B100001EB80004069002800D0012070470000C0
:103B20007C0500202DE9F047044600794FF000099C
:103B300000EB400101EBC000284901EB8007206841
:103B4000C0F800957868B0B120682549C0F808131E
:103B5000206840F3073000280DDB00F01F02012130
:103B600091404009800000F1E020C0F88011BFF3CF
:103B70004F8FBFF36F8F2068D0F80C25D0F81485D5
:103B8000D0F80865D0F810554FF0FF31C0F8141583
:103B9000C0F80C152068C0F80815C0F81015501CA6
:103BA00002D01046FEF7D1FDB8F1FF3F02D04046EB
:103BB000FEF7CBFD681C02D02846FEF7C6FD701C40
:103BC00002D03046FEF7C1FD2068FFF797FD87F869
:103BD0002A90C7F80490BDE8F08700007C0500201B
:103BE000840202000149024800F096BFA8050020A7
:103BF000002000402DE9F0410546164600790F46A9
:103C0000154A00EBC00102EB810494F8201011B1B9
:103C10000820BDE8F081114951F820102868FFF70D
:103C200055FD08B11120F4E739462846FCF7D7FFC7
:103C30006660386920601EB1397F2846FDF72AFE8C
:103C400028680821C0F800150020A061E0616061CB
:103C5000012184F82010DCE7A8050020CC4F0000EB
:103C60002DE9F04704460E460079274900EBC000D5
:103C700001EB800517463046FFF720FD30B12046A6
:103C800000F044F820B11120BDE8F0871020FBE7D8
:103C90006F61AE604FF490774FF0000839462068AE
:103CA000FFF7BDFB4FF4AC7631462068FFF7B7FB5A
:103CB0002068AA686969C0F84425C0F848152068DA
:103CC0004FF00109C0F808906868D0B9BA4651466B
:103CD0002068FFF79FFB074631462068FFF79AFBF5
:103CE0000743F4D010B14FF00F0808E02068C0F887
:103CF0000C9031462068FFF78DFB0028F9D000209A
:103D000068614046C0E70000A80500200079054929
:103D100000EBC00001EB80004069002800D00120CA
:103D200070470000A80500202DE9F04706460079FD
:103D30003D4900EBC00001EB80053468686801274D
:103D4000A8B13A49C4F80813306840F30730002896
:103D50000DDB00F01F0107FA01F14009800000F1BE
:103D6000E020C0F88011BFF34F8FBFF36F8FD4F8FE
:103D7000000220F02000C4F80002A8694FF4A278E5
:103D800020B141462046FFF74AFB67604FF4AC790B
:103D900049462046FFF743FBE76047464946204631
:103DA000FFF738FB0028F9D0A86928B1394620462A
:103DB000FFF730FB0028F1D04FF0000AC4F800A54F
:103DC0003068D0F80C25D0F81495D0F80885D0F8D4
:103DD00010754FF0FF31C0F80C15C0F8141530689D
:103DE000C0F80815C0F81015501C02D01046FEF798
:103DF000B5FCB9F1FF3F02D04846FEF7AFFC781C96
:103E000002D03846FEF7AAFCB8F1FF3F02D0404688
:103E1000FEF7A4FC2046FFF771FC85F820A0C5F84A
:103E200004A0BDE8F0870000A805002010034200B0
:103E300010B50549C20800F00703885C01249C40C6
:103E40002043885410BD0000480500200449084460
:103E500090F93000082801DB0120704700207047EE
:103E6000E40400200449084490F93000082801D2F5
:103E70000120704700207047E4040020F0B40D4694
:103E8000C16914468A884988954208D28C4206D274
:103E9000866821462846B446F0BC1A466047F0BC06
:103EA000704700002DE9F84F314F05464FF00109EA
:103EB0000024381990F96010491C46D090F8600031
:103EC000294620F0C0063046FDF7ADFF70B320460E
:103ED00000F050F8824668460096FEF7F1FC009923
:103EE00000EB8100D0F80007C0F30148B8F1020FE1
:103EF0001DD002213046FEF76AFC68460096FEF7A8
:103F0000DFFC009A09FA02F1C0F820153046FDF7EF
:103F100083F957F820204AB15046BAF1030F11D067
:103F2000B8F1020F05D0B8F1030F07D00DE003215F
:103F3000E0E75046BAF1010F04D006E05046BAF16E
:103F4000020F02D1014630469047641C042CB0D3C6
:103F50002A4602210020FEF753FC002055F82010CD
:103F60000029A5D1401C0228F8D3BDE8F88F000035
:103F7000E40400200249084490F86000800970477A
:103F8000E404002010B50C46017A052908D0407AD7
:103F900038B1084808A102682046FDF7F5FF00E0A7
:103FA0001AB106A12046FDF7EFFF2046BDE81040FC
:103FB000FDF7F7BF8C010020257300000D0A0000FB
:103FC00038B5C3880D46044633B114A0009015A23D
:103FD00016A12846FDF7D8FF217A05291CD0607A62
:103FE00048B1A088FEF7CAFD164951F8202016A155
:103FF0002846FDF7C9FFA0880021FEF779FF034698
:104000001049207A143951F8202001B02846BDE823
:1040100030400EA1FDF7B8BF38BD00001B5B306D0E
:10402000000000001B5B313B33316D0025734C6F8A
:1040300067732064726F7070656420282564292579
:10404000730D0A008C010020257300003C25733E8F
:104050002025733A200000000349884201D103481B
:10406000704700207047000000200040DC00002066
:1040700001680A684968914201D3881A70478068CC
:10408000801A0844401C7047F8B515460246C069BE
:104090001C460E46DDE90637818840888E420FD2E5
:1040A00085420DD2891BA14200DA8CB2401B984296
:1040B00000DA83B20097D768224629463046B847CF
:1040C000F8BD000070B50546FDF7C7F9134C40B1C7
:1040D000D4E904024FF08071411842F10000C4E9B4
:1040E000041000212846FDF705F930B1606820B1C1
:1040F000606800F0DDFA0020606001212846FDF7CD
:10410000F9F818B1FDF7A4FAC4E90601284600F051
:1041100045FB2846BDE8704000F034B8000100209F
:1041200070B5054600200C460870FDF791FAD5E9F8
:104130000223101A63EB010300263146361A994117
:1041400012DAB0F5350F03D3FCF79AFC0B4942188D
:104150004FF4960300210A48FDF78BF910B10D28A2
:1041600006D009E0012070BD00210548FDF7B8F830
:10417000284600F09DFA2070002070BDFFFFB400BB
:1041800008010020F8B51A4C074600261948FFF729
:10419000BEF8D0B1616871B1D0E902106268D2E9AD
:1041A0000232C91A904120D26068007F18B161685C
:1041B0001048FFF79BF800F06FF805466946FFF7D7
:1041C000AFFF98B1606840B10AE0606800280CD188
:1041D0003846BDE8F840FDF748B93846FDF741F9E3
:1041E00065609DF800000028D0D1F8BD6660CDE77D
:1041F00000010020D457000070B5054688690C46C0
:1042000000284FF4847128460AD0FFF7F7F8D5F854
:104210001805626AE1688854606A401C606270BD7B
:10422000FFF7ECF8D5F8180570BD1FB501238DF820
:104230000030CDE90121D0E90012684690471FBD4A
:104240001FB501238DF80030CDE90121D0E900121E
:10425000684690471FBD000070B50D4C0020D2B2DB
:104260002070201D0B4D0378EB5C1BB1001DFFF788
:10427000F7FC02E00C30FFF7F1FB08B1FCF7F4FBB0
:104280006078002802D021780029FAD070BD0000A3
:104290003C010020C00000200148FFF73BB80000AF
:1042A000D457000010B50C4601462068097849B182
:1042B0000321204600F0D6FA2046BDE81040012137
:1042C00000F032B9027E0021521C0368D2B21B7C7E
:1042D0009342EED90276204600F072F90100E8D14F
:1042E00010BD000000B585B00A4601788DF80010B9
:1042F00041680191017A8DF80810C1680391007C32
:104300008DF81000044850F82210103850F8222080
:104310006846904705B000BDD404002048700020D6
:1043200008707047F8B50026044604204E620D461A
:10433000C4F80803C4F80861D4F808010090506874
:1043400010B11068007801E095F82000C4F81C0551
:104350005068012802D91068407804E0D06801282C
:1043600003D995F82000C4F81C05286818B104206A
:10437000C4F80403F8BDD4F808010028FBD0C4F841
:104380000861D4F8080100902946204600F074FA2C
:104390000028F0D1A87FFF28ECD0BDE8F840FEF758
:1043A000F2BA0000084900EB400001EBC0010648EA
:1043B00010B5F838FFF706F8002803D0BDE8104024
:1043C000FCF752BB10BD0000384F000070B5002450
:1043D0000E4D02E001D3072010E00C4804EB440628
:1043E00005EBC6011838FEF7EDFF30B9074860301D
:1043F00000EBC6017838FEF7E5FF08B1FCF734FBA7
:10440000641CE4B2042CE5D370BD0000584E0000DB
:1044100010B51C4C86B004F168000FC88DE80F0081
:104420006946A4F17000FEF78BFF002828D14FF4F5
:1044300000711548FCF733F801212820FEF70CFA2B
:1044400001212E20FEF708FA2E20FEF7F1F90F20A9
:10445000FDF700FD2E20FEF78CFA0220FDF7FAFC96
:1044600078340DF1040C94E80F008CE80F00002064
:1044700001460090012301AAA4F1E800FEF776FFAF
:1044800006B010BDB04E00004002002070B5C1F370
:10449000C703C3EBC314C1F3C7050444C5EBC5167A
:1044A00030442844084D2344074C405D074D01F03B
:1044B00007011C44695C01238B400AB1184300E0EA
:1044C0009843207070BD000040020020364E00006E
:1044D0002DE9F0438618DDF81C908046802E15D219
:1044E000CF18202F12D2CDB20EE000BF08F0FF048B
:1044F00006E04A4629462046FFF7C8FF641CE4B29E
:10450000A642F6D86D1CEDB2AF42EFD8BDE8F083FD
:104510002820FEF78DB92820FEF72BBA0148FEF7B8
:104520005FBF0000404E00002DE9F0410E460546F9
:10453000002700202C68FCF701FB3EB928680068C2
:1045400020B1BDE8F0410020FCF7FABA0022214674
:104550006868FEF7E7FD08B12760F2E70020FCF786
:10456000EFFA2068406928B3206846691022314676
:104570006069FBF7A6FF60B105F1080805F10C00C2
:10458000FFF788F92B460D4A31464046FDF7B4FC4B
:104590006661277628680068016809B180688847E5
:1045A000284600F00DF8010006D0284600F05AF920
:1045B0000126BEE7261DD9E7BDE8F081A54200002F
:1045C0001FB550F80C2B117E1268D26802EB011156
:1045D0000C790B688A68097BCDE90034CDE90221AA
:1045E00000226946FFF792F904B010BDC207002A05
:1045F00003D000BF4FF00F0201E04FF0F00201D0F6
:104600004FEA0111044B03EB5003187800EA020053
:1046100040EA010018707047F00500202DE9F84FBE
:10462000074621489146884605681E46012269468C
:104630001846FCF73DFDDFF874A060B30098002138
:104640000446801C0AE000BF00EA050259F821C0B8
:104650000AEB8202401C491CC2F80CC0B142F3D3E1
:104660004FEA1749FCF732FE611C29400AEB810131
:1046700049EA00422C40CA600AEB8401C86867F32B
:10468000C50066F3891068F39F2020F00300401CEA
:1046900020F00400C8609AF8000001E0FEF794FAE8
:1046A0000028FBD1BDE8F88F5C0100201C08002029
:1046B00070B50446124800250078F8B1F4B1207FA7
:1046C000E0B1FCF7C5FFD4E90223801A994110D369
:1046D0002069002600B92677D4E9051088472069AB
:1046E00060B1217F51B1D4E9022110187141C4E9B0
:1046F000020121460348FEF7F9FD0125284670BD59
:1047000000010020D457000010B5224C207830B3AF
:1047100001284FF00002204811462CD0FCF7D0FFB2
:1047200008B1FCF7A1F9002201211B48FCF7C8FFE2
:1047300008B1FCF799F9012202211748FCF7C0FFE4
:1047400008B1FCF791F91448FDF71CFE2078401CD5
:10475000C0B22070022801D90020207010BD0122B3
:1047600000210D48FCF7ACFF08B1FCF77DF90022F1
:1047700007E00022E0E7FCF7A3FF08B1FCF774F9BB
:10478000012201210448FCF79BFF0028F1D0FCF72F
:104790006BF9EEE708000020D44D0000F8B51B4C83
:1047A00069462068FDF7BBFA00260127184D29E06D
:1047B000017821B101290CD002291BD114E04168F4
:1047C0000A7FBAB90F77416810480830FEF78EFDAE
:1047D00010E041686868814201D16E600AE00B48D0
:1047E0000830FEF79EFD05E0FFF756FD08B106779D
:1047F000FAE72F7069462068FDF786FA6946206857
:10480000FDF78DFA0028D3D1F8BD0000CC57000089
:1048100000010020F8B50B4C0D460646694620689D
:10482000FDF767FA58B10670456069462068FDF7E4
:1048300081FA10B10448FCF7FDFD0020F8BD04200A
:10484000F8BD0000CC570000080100200348806834
:104850004108034800224068FCF752B9E8000020F4
:10486000C457000000680B4600684268002A02D066
:10487000816818461047704738B5D0F818258DF86C
:1048800000208B694A6A9A4203D29DF800304C6935
:10489000A3544B6A5B1C4B6291F828405A1C3CB1F4
:1048A0000C69944200D90A618C69944200D98A61EA
:1048B0000D69954202D9C968895C04E08C6994420B
:1048C00004D991F82010C0F81C1503E0AB4201D3C5
:1048D000A34201D2012038BD002038BD70B50C467E
:1048E00005464FF48E71FEF789FD216AA068415C90
:1048F000206A401C2062C5F81C1570BD1FB500223F
:104900008DF800200291816801914261D0E9001286
:10491000684690471FBD1FB500228DF80020029108
:10492000816801914261D0E90012684690471FBD3D
:104930001FB50A4601788DF8001041680191017A8F
:104940008DF80810C0680390044850F82210083809
:1049500050F82220684690471FBD0000CC00002080
:1049600001490120087070473C01002010B588B053
:10497000044620220E496846FBF778FD0620009089
:10498000C01F0190029003904FF0EB7006900CB1A5
:10499000084A00E0002269460748FDF7C1FA08B15D
:1049A000FCF762F80448001F447008B010BD000016
:1049B0004458000061490000400100202DE9FF47F4
:1049C0000C4605464FF40071FEF71EFD01274FF41B
:1049D0000178002618B34FF4927949462846FEF72D
:1049E00008FDE0B149462846FEF708FDC5F80883F2
:1049F00094F8290000B96F6002208DF80000D5F806
:104A00008004C5F880040390A0690290E0680190DA
:104A1000A661E661D4E900126846904728E00421C7
:104A20002846FEF7F1FC18B34FF484712846FEF7D0
:104A3000E0FCE8B121462846FFF7DEFB616AA06989
:104A4000884215D1E06938B1E268616AA0612069E5
:104A5000E6616662E06008E094F8290000B96F60E2
:104A6000C5F80883A661E268616A2046FFF7DDFBAE
:104A70004FF48E7841462846FEF7BBFC80B1606952
:104A8000216A814202D294F8280028B34146284680
:104A9000FEF7B4FC606918B161692046FFF72EFF8C
:104AA0004FF4A27841462846FEF7A3FC002818D010
:104AB00041462846FEF7A2FC94F8290000B12F6079
:104AC000A06900280DD0A661E268616A04B02046A2
:104AD000BDE8F047FFF7A9BB21462846FFF7FEFED9
:104AE000DEE7BDE8FF8700001FB50A4601788DF8B4
:104AF000001041680191017A8DF80810C068039098
:104B0000044850F82210083850F822206846904790
:104B10001FBD0000CC0000202DE9FF410C464FF4E2
:104B2000927705463946FEF775FC0026B8B139463E
:104B30002846FEF774FC02208DF80000D5F88004AA
:104B4000C5F880040390D5F83C050290E068019018
:104B5000A661E661D4E900126846904723E04FF46D
:104B6000887739462846FEF755FCE0B13946284695
:104B7000FEF755FCD5F83C15A069884213D1E069D1
:104B800060B1E268D5F8000220F02000C5F800020C
:104B9000E069A0612069E661E06001E0A661E26889
:104BA0002046FFF74DFB4FF4A27739462846FEF723
:104BB00031FC68B139462846FEF731FCA06938B1AE
:104BC000A661E661D5F83C152046E268FFF738FBA0
:104BD0004FF4907631462846FEF71CFC60B1314612
:104BE0002846FEF71CFC0120E860606920B1D5F87A
:104BF0004C152046FFF78FFE4FF4AC763146284621
:104C0000FEF708FC00280ED031462846FEF707FCC8
:104C10006069002807D0D5F84C1504B02046BDE8DF
:104C2000F041FFF778BEBDE8FF8100002DE9F05F9D
:104C30008346DDE90A4A994690460D460846012713
:104C400003E000BFB0FBF8F07F1C4045FAD2B94545
:104C500000D94F465FEACA7012D18CB15FEA8A7000
:104C600002D5B9F1000F01D0202607E0302605E07B
:104C700031465846641EFCF761FA0CB1A742F7D3DF
:104C80005FF00106B9F1010F02D9A9F1010903E0B2
:104C9000B5FBF6F0404502D306FB08F6F2E7DFF875
:104CA0003C9000BFB5FBF6F000FB165519F800105C
:104CB0005846FCF743FAB6FBF8F6002EF2D15FEA4D
:104CC000CA7009D0002C07D0A74205D2202158462F
:104CD000641EFCF733FAF5E7BDE8F09FE6570000E5
:104CE00070B50C460546FCF74DFA002807D042681F
:104CF000002A04D021462846BDE87040104770BD08
:104D00002DE9FF4F487883B0101AC0B20C460090CE
:104D10004968984611F82000C01D4FEAD009202AA2
:104D200001D0002734E0B8F80000217800EB5100F2
:104D30003AE0002628E000250098022101EB800BD4
:104D4000109807FB096A384401906168C5F10702B1
:104D500031F80B00A1680144012011F80A109040BD
:104D600001420BD0B8F8000005EBC601084481B23F
:104D70000198119B82B20398FFF780F86D1CEDB289
:104D8000082DE2D3761CB6B24E45D4D37F1CBFB2F9
:104D90002078B842CDD86168009811F82000E178F9
:104DA0000144B8F800000844A8F8000007B0BDE8C6
:104DB000F08F0000B8010020050001000000150080
:104DC00008000000000013000200020000001300B1
:104DD00002000200114400001D4500008D44000047
:104DE000D1440000CD43000051150000A543000050
:104DF0000000002000001400000016000100000068
:104E00000000170000001900010000000000190058
:104E10000000190001000000000019000000170048
:104E20000100000000000000000000000000000081
:104E30000338FDD87047070605040302010000008F
:104E400024020020885A00000000000000300040CA
:104E500000000000000000001145000000000000FC
:104E6000000000002C0000200100000000000000F5
:104E70001145000000000000000000003C00002080
:104E800001000000000000001145000000000000CB
:104E9000000000004C0000200100000000000000A5
:104EA0001145000000000000000000005C00002030
:104EB0000100000000000000174500000000000095
:104EC000000000006C000020010000000000000055
:104ED0001745000000000000000000007C000020DA
:104EE0000100000000000000174500000000000065
:104EF000000000008C000020010000000000000005
:104F00001745000000000000000000009C00002089
:104F100001000000000000002F2DFF2C07FF000003
:104F200000000080000000001D0000200C000000B8
:104F3000000000000000000011450000000000001B
:104F400000000000684F00000100000000000000A9
:104F5000114500000000000000000000784F000034
:104F60000100000000000000AC0000200100000073
:104F70000000000000000000AD0000200100000063
:104F800000000000000000000D0E0F100B0C18199F
:104F90004004002060040020900400200B00030067
:104FA000650D00000C000300650D000018000300F3
:104FB000650D000019000300650D000000000050A1
:104FC000000300508506000079390000E53B000031
:104FD0000000C08080808080800000C00000000051
:104FE0000000A0A0A0A00000000000000000000041
:104FF0000000222222FF242424FF44440000000059
:1050000010384480C060380C0484C478100000005C
:105010000000E3A2A4E80810262949860000000049
:105020000000384840402050898646390000000082
:105030000000808080800000000000000000000070
:105040002020404080808080808080808040402080
:1050500080C04020202020202020202020204080B0
:105060000000C0E0C00000000000000000000000E0
:1050700000000008080808FF0808080800000000F1
:105080000000000000000000000000808080800020
:105090000000000000000000F80000000000000018
:1050A0000000000000000000000000C00000000040
:1050B0000000030204040808101020204040800073
:1050C00000003844C682828282C644380000000054
:1050D00000003070B0303030303030300000000030
:1050E000000078C8840408103060C0FC0000000094
:1050F000000070C8080830080484C8780000000068
:1051000000000C0C1414244444FE040400000000AD
:1051100000007C8080F88C0404048C78000000007F
:1051200000000810207844868286C47800000000C1
:105130000000FE06040C08101020204000000000B3
:10514000000070C888C870888484887800000000D7
:10515000000078C4868284C47810306000000000AB
:105160000000000000C00000000000C000000000BF
:105170000000000000C00000000000C040408000AF
:10518000000000020C3060C0601806020000000041
:10519000000000000000FF0000FF00000000000011
:1051A00000000080601806020C30C0800000000083
:1051B00000007088880818302020002000000000BF
:1051C0000000000078489CA4A49C403C0000000023
:1051D000000000000C000C0014001200320023003C
:1051E00021007F004080C08000000000000000001F
:1051F0000000F88C848CF884828286FC0000000019
:1052000000003E62C080808080C0623E00000000DE
:105210000000F88482828383828284F80000000088
:105220000000F8808080F880808080F80000000016
:105230000000F8808080F88080808080000000007E
:1052400000001E6140808F818141611E00000000CE
:10525000000083838383FF838383838300000000B4
:10526000000080808080808080808080000000003E
:105270000000202020202020202020C0000000004E
:105280000000868890A0C0A0908884820000000062
:105290000000808080808080808080F80000000096
:1052A00000000000C0C0C0C0A140B34092408C408C
:1052B0008C408840804080400000000000000000DA
:1052C000000081C1A1B191898D8783810000000018
:1052D000000000003E006300C180808080808080EC
:1052E0008080C18063003E000000000000000000DC
:1052F0000000F8848484F8808080808000000000B2
:10530000000000003E006300C180808080808080BB
:105310008480C38063003EC00000000000000000E5
:105320000000F8848484FC90888884860000000053
:10533000000078C480C0700C0486847800000000EF
:105340000000FE10101010101010101000000000CF
:1053500000008282828282828282463C00000000BB
:1053600000000000C0804180410061002200220056
:10537000160014001C000C000000000000000000DB
:10538000000000008404C60C420862182310231099
:1053900013B014A01CE00840000000000000000052
:1053A0000000C362241C1818142662C1000000000B
:1053B0000000C16226141808080808080000000050
:1053C0000000FE040C0810302040C0FE0000000069
:1053D000E08080808080808080808080808080E00D
:1053E0000000804040202010100808040402030040
:1053F000E02020202020202020202020202020E02D
:10540000000008000C0014001600220022004100D9
:10541000C18000000000000000000000000000004B
:10542000000000000000000000000000FE0000007E
:105430000000C0600000000000000000000000004C
:105440000000000000708808F88898E8000000005C
:105450000000808080B8CC848484CCB80000000038
:1054600000000000007090808080907000000000BC
:105470000000040404748C8484848C740000000094
:105480000000000000708888FC8088700000000028
:105490000000704040E040404040404000000000BC
:1054A0000000000000748C8484848C740488700074
:1054B0000000808080B8C884848484840000000058
:1054C0000000C0000080808080808080000000009C
:1054D0000000600000606060606060606040C0006C
:1054E000000080808098B0E0E0B09888080000005C
:1054F00000008080808080808080806000000000CC
:1055000000000000000000000000FB80CCC08840CC
:10551000884088408840884000000000000000006B
:105520000000000000B8C884848484840000000067
:1055300000000000007088848484887000000000EF
:105540000000000000B8CC848484CCB88080800047
:105550000000000000748C8484848C7404040400B3
:105560000000000000B0C08080808080000000004B
:105570000000000000384840380CCC7800000000E3
:105580000000404040F040404040403800000000F3
:1055900000000000008484848484CC740000000037
:1055A0000000000000C444486828301000000000DB
:1055B00000000000000000000000D8804980490081
:1055C0004D003500360032000000000000000000F1
:1055D0000000000000C64C3810384CC60000000027
:1055E00000000000008484848484CC7404887000EB
:1055F0000000000000F818302040C0F80000000053
:10560000604040404040808080804040404040605A
:10561000000080808080808080808080808000008A
:1056200080404040404040406040404040404080DA
:105630000000000000000062528C0000000000002A
:1056400002000000030010000800200006003000E7
:1056500008004000080050000100600003007000D6
:1056600003008000030090000800A0000100B000CB
:105670000500C0000200D0000800E0000700F000B4
:10568000040000010600100106002001070030019F
:10569000060040010700500107006001060070018C
:1056A00007008001020090010200A0010700B00184
:1056B0000800C0010700D0010500E0010600F0016C
:1056C0000900000207002002070030020800400223
:1056D0000500500205006002080070020800800208
:1056E000010090020300A0020700B0020500C00202
:1056F0000A00D0020800F00209000003060020039F
:105700000A0030030700500307006003070070031E
:1057100007008003090090030E00B0030800D003C7
:105720000800E0030700F003030000040800100471
:105730000300200409003004070050040300600443
:105740000500700406008004040090040600A00414
:105750000600B0040400C0040600D0040600E00403
:105760000200F004030000050500100503002005F9
:105770000A003005060050050600600506007005A9
:1057800006008005040090050600A0050500B00590
:105790000600C0050600D0050900E0050700000668
:1057A0000600100605002006030030060100400632
:1057B00003005006070060060F217E0240560000DD
:1057C000D04F000003000000D0050020100600208C
:1057D0000100060000000000200100206D12000002
:1057E0000338FDD8704730313233343536373839E5
:1057F0004142434445460000000000000000000014
:105800000000000000000000000000000000000098
:10581000F8570000105800000400000001000000CC
:10582000000000001D430000000000000000000018
:105830000000000000000000652B0000392B000074
:10584000312B0000FFFFFFFFFFFFFFFFFFFFFFFF08
:10585000FFFFFFFF00000000000000000000D60175
:1058600006010000840700207F00000004080020DB
:105870000040404040404040404041414141414063
:105880004040404040404040404040404040404018
:1058900040050202020202020202020202020202A7
:1058A00002202020202020202020200202020202AC
:1058B0000202909090909090101010101010101004
:1058C0001010101010101010101010100202020210
:1058D0000202888888888888080808080808080854
:1058E0000808080808080808080808080202020250
:1058F00040000000715800007761726E696E6700A9
:1059000064656275670000001B5B313B33306D00DE
:105910001B5B306D000000001B5B313B33316D00C1
:105920001B5B313B33326D001B5B313B33336D000E
:105930001B5B313B33346D001B5B313B33356D00FA
:105940001B5B313B33366D001B5B313B33376D00E6
:10595000696E666F000000006572726F7200000071
:10596000636C6F636B000000434C4F434B000000BF
:105970004750494F5445000050525300535049007E
:10598000554152540000000055415254450000005A
:105990006170705F627574746F6E00006170705F2B
:1059A00074696D6572000000676678007077725FD9
:1059B0006D676D7400000000736F72746C697374AE
:1059C00000000000756172745F6C6F675F626163F5
:1059D0006B656E6400000000617070009C5A0000EE
:1059E00000000020B401000020050000205B000042
:1059F000B40100208C2A00002C0900003858000057
:105A000000000000C459000054010020605900004B
:105A100000000000685900000000000070590000FC
:105A20000000000078590000000000007C590000D0
:105A300000000000805900000000000088590000AC
:105A40000000000090590000000000009C59000078
:105A500000000000A859000000000303AC5900003A
:105A600000000000B859000000000000D8590000F4
:105A7000000003036801002060010020680100208D
:105A8000C40600201800000018020020D8010020E1
:105A90000F0000000400000001000000211220425D
:105AA0008013B3402C10E0B2052AB1052AB00530AE
:105AB0000DE2AEA2A0C0222F40AF8117A61A092D79
:105AC000B205DA0E10DA1310DA18101340023A2079
:105AD0006C71DAC010DB400320D910035BA6A71558
