:020000040000FA
:1000000050320020F9020000010300000303000049
:1000100005030000070300000903000000000000C2
:100020000000000000000000000000000B030000C2
:100030000D030000000000000F030000110300008A
:1000400013030000130300008538000013030000B1
:100050001303000013030000130300001303000048
:100060001303000013030000130300001303000038
:1000700013030000653400001303000013030000A5
:100080001303000013030000130300001303000018
:100090001303000013030000130300001303000008
:1000A00013030000130300001303000013030000F8
:1000B0001303000013030000000000000000000014
:1000C00013030000130300001303000013030000D8
:1000D00013030000130300001303000000000000DE
:1000E0000000000000000000000000000000000010
:1000F0000000000000000000000000000000000000
:1001000000000000000000000000000000000000EF
:1001100000000000000000000000000000000000DF
:1001200000000000000000000000000000000000CF
:1001300000000000000000000000000000000000BF
:1001400000000000000000000000000000000000AF
:10015000000000000000000000000000000000009F
:10016000000000000000000000000000000000008F
:10017000000000000000000000000000000000007F
:10018000000000000000000000000000000000006F
:10019000000000000000000000000000000000005F
:1001A000000000000000000000000000000000004F
:1001B000000000000000000000000000000000003F
:1001C000000000000000000000000000000000002F
:1001D000000000000000000000000000000000001F
:1001E000000000000000000000000000000000000F
:1001F00000000000000000000000000000000000FF
:10020000DFF80CD000F03EFF00480047F14100004D
:100210005032002030B4044654E8000F0D4644E844
:100220000053002BF8D1156030BC704730B4044641
:1002300054E8000F40EA010544E80053002BF7D1D1
:10024000156030BC704730B4044654E8000F00EA33
:10025000010544E80053002BF7D1156030BC70470E
:1002600030B4044654E8000F80EA010544E8005326
:10027000002BF7D1156030BC704730B4044654E809
:10028000000F00EB010544E80053002BF7D1156087
:1002900030BC704730B4044654E8000FA0EB0105B1
:1002A00044E80053002BF7D1156030BC704770B4A0
:1002B00004464FF0000054E8006F0D68AE4207BFDF
:1002C00044E80023012044E800630E60002B1CBFBB
:1002D0000020F0E770BC704730B4044654E8000FCB
:1002E00088422CBF451A054644E80053002BF5D13F
:1002F000156030BC7047000006488047064800473C
:10030000FEE7FEE7FEE7FEE7FEE7FEE7FEE7FEE7C5
:10031000FEE7FEE7ED3400000102000070B491E852
:100320007800B2E802105B1854EB0C04B2E802103B
:100330004D4156EB0C0680E878008041013070BCDE
:10034000704770B491E87800B2E802105B1A74EB61
:100350000C04B2E802108D4176EB0C0680E87800C0
:100360008041404270BC70472DE9F00791E8F807E2
:10037000B2E802105B1854EB0C04B2E802104D41D5
:1003800056EB0C06B2E802104F4158EB0C08B2E8ED
:10039000021059EB01095AEB0C0A80E8F80780417A
:1003A0000130BDE8F00770472DE9F00791E8F80744
:1003B000B2E802105B1A74EB0C04B2E802108D4133
:1003C00076EB0C06B2E802108F4178EB0C08B2E82D
:1003D000021079EB01097AEB0C0A80E8F8078041FA
:1003E0004042BDE8F00770472DE9F007524290E81F
:1003F0007800B1E880071740DB1918EA020854EBCF
:10040000080419EA020955EB09051AEA020A56EB33
:100410000A0678C090E87800B1E8800717407B4171
:1004200018EA020854EB080419EA020955EB090519
:100430001AEA020A56EB0A0678C080410130BDE88C
:10044000F00770472DE9F007524290E87800B1E8D4
:1004500080071740DB1B18EA020874EB080419EA4E
:10046000020975EB09051AEA020A76EB0A0678C05A
:1004700090E87800B1E880071740BB4118EA02080D
:1004800074EB080419EA020975EB09051AEA020A75
:1004900076EB0A0678C080414042BDE8F00770471D
:1004A00090E8300091E8C000A31B1340E41AF6184E
:1004B000EB1B1340ED1AFF1830C0C0C17047F0B5F8
:1004C0005242FFF7EDFFFFF7EBFFFFF7E9FFFFF702
:1004D000E7FFF0BD2DE9F0073AC91668A1FB069ABF
:1004E0004FF0000CE3FB06AC4FF00007E4FB06C73F
:1004F0004FF00008E5FB067840F8049B56684FF083
:100500000009E1FB06A9E3FB66C9E4FB6679E5FBAC
:10051000668940F804AB96684FF0000AE1FB06CA12
:10052000E3FB667AE4FB668AE5FB669A40F804CB57
:10053000D6684FF0000CE1FB067CE3FB668CE4FB25
:10054000669CE5FB66AC80E88017BDE8F007704765
:100550000A462DE9F04F40EC171A92EC080A1EC922
:1005600010EE100AA1FB00784FF00009E2FB0089B1
:100570004FF0000AE3FB009A4FF0000BE4FB00ABE6
:1005800012EE100A4FF0000CE1FB00BC4FF0000E21
:10059000E2FB00CE4FF00005E3FB00E54FF0000664
:1005A000E4FB005604EE107A10EE900A4FF00007BC
:1005B000E1FB0087E2FB6097E3FB60A7E4FB60B729
:1005C00012EE900AE1FB60C7E2FB60E7E3FB6057D5
:1005D000E4FB606704EE908A11EE100A4FF0000809
:1005E000E1FB0098E2FB60A8E3FB60B8E4FB60C8B5
:1005F00013EE100AE1FB60E8E2FB6058E3FB606881
:10060000E4FB607805EE109A11EE900A4FF00009B5
:10061000E1FB00A9E2FB60B9E3FB60C9E4FB60E930
:1006200013EE900AE1FB6059E2FB6069E3FB60793D
:10063000E4FB608905EE90AA17EE101A01F1100193
:100640001EC910EE100A4FF0000AE1FB00BAE2FBEF
:1006500060CAE3FB60EAE4FB605A12EE100AE1FBB9
:10066000606AE2FB607AE3FB608AE4FB609A06EE74
:1006700010BA10EE900A4FF0000BE1FB00CBE2FB4A
:1006800060EBE3FB605BE4FB606B12EE900AE1FB66
:10069000607BE2FB608BE3FB609BE4FB60AB06EE00
:1006A00090CA11EE100A4FF0000CE1FB00ECE2FBE7
:1006B000605CE3FB606CE4FB607C13EE100AE1FB22
:1006C000608CE2FB609CE3FB60ACE4FB60BC07EE8B
:1006D00010EA11EE900A4FF0000EE1FB005EE2FB23
:1006E000606EE3FB607EE4FB608E13EE900AE1FB3C
:1006F000609EE2FB60AEE3FB60BEE4FB60CE17EE03
:10070000900AA0EC074A80E8E05FBDE8F08F00BFE8
:1007100030B44FF0000310F8014B11F8015B013ABF
:1007200084EA050443EA0403F5D1A3F101034FEA87
:10073000D37030BC70474FF0000310F8012B013923
:1007400043EA0203F9D1A3F101034FEAD3707047E2
:1007500011F8013B00F8013B013AF9D17047002242
:1007600000F8012B0139FBD1704700BF2DE9F007DC
:1007700091E8F807B2E802105B1854EB0C04B2E8F9
:1007800002104D4156EB0C06B2E802104F4158EBF7
:100790000C08B2E8021059EB01095AEB0C0A894126
:1007A000B3F1FF3374F1FF3475F1FF3576F10006D4
:1007B00077F1000778F1000879F101097AF1FF3A41
:1007C00051F100014A425B184C414D4156F100067F
:1007D00057F1000758F1000859EB02095AEB010ADA
:1007E00080E8F807BDE8F00770472DE9F00791E8C9
:1007F000F807B2E802105B1A74EB0C04B2E80210BE
:100800008D4176EB0C06B2E802108F4178EB0C08B4
:10081000B2E8021079EB01097AEB0C0A89414A42ED
:100820005B184C414D4156F1000657F1000758F155
:10083000000859EB02095AEB010A80E8F807BDE805
:10084000F00770470A462DE9F04F40EC171A92EC7A
:10085000080A1EC910EE100AA1FB00784FF000092B
:10086000E2FB00894FF0000AE3FB009A4FF0000B17
:10087000E4FB00AB12EE100A4FF0000CE1FB00BCF1
:100880004FF0000EE2FB00CE4FF00005E3FB00E569
:100890004FF00006E4FB005604EE107A10EE900ACA
:1008A0004FF00007E1FB0087E2FB6097E3FB60A7E6
:1008B000E4FB60B712EE900AE1FB60C7E2FB60E781
:1008C000E3FB6057E4FB606704EE908A11EE100AC8
:1008D0004FF00008E1FB0098E2FB60A8E3FB60B882
:1008E000E4FB60C813EE100AE1FB60E8E2FB60582D
:1008F000E3FB6068E4FB607805EE109A11EE900A65
:100900004FF00009E1FB00A9E2FB60B9E3FB60C91D
:10091000E4FB60E913EE900AE1FB6059E2FB6069D9
:10092000E3FB6079E4FB608905EE90AA17EE101AEC
:1009300001F110011EC910EE100A4FF0000AE1FB90
:1009400000BAE2FB60CAE3FB60EAE4FB605A12EE25
:10095000100AE1FB606AE2FB607AE3FB608AE4FB79
:10096000609A06EE10BA10EE900A4FF0000BE1FB11
:1009700000CBE2FB60EBE3FB605BE4FB606B12EE41
:10098000900AE1FB607BE2FB608BE3FB609BE4FB96
:1009900060AB06EE90CA11EE100A4FF0000CE1FBBE
:1009A00000ECE2FB605CE3FB606CE4FB607C13EE5C
:1009B000100AE1FB608CE2FB609CE3FB60ACE4FBB3
:1009C00060BC07EE10EA11EE900A4FF0000EE1FB5A
:1009D000005EE2FB606EE3FB607EE4FB608E13EE84
:1009E000900AE1FB609EE2FB60AEE3FB60BEE4FBCD
:1009F00060CE53EC162A17EE104A12EB0A0253EBA4
:100A00000B0354EB0C0455EB0E05002040F10000E5
:100A100012EB0B0253EB0C0354EB0E0455EB0E05DB
:100A200046410020474158EB000859EB0A0940F1C4
:100A30000000B2EB0E0273F1000374F1000475EBD9
:100A40000A0576EB0B0677EB0C0778EB0A0879EBD7
:100A50000C0960F10000B5EB0B0576EB0C0677EBAB
:100A60000E0778EB0B0879EB0E0960F100005FEAE6
:100A7000E07C7FEA0C0CDCF1000EB2EB0C0273EBB5
:100A80000C0374EB0C0475F1000576F1000677F1A8
:100A9000000778EB0E0879EB0C0960F100005FEAC3
:100AA000E07CDCF1000E12EB0C0253EB0C0354EB78
:100AB0000C0455F1000556F1000657F1000758EBFC
:100AC0000E0859EB0C0940F100005FEAE07CDCF114
:100AD000000E12EB0C0253EB0C0354EB0C0455F11B
:100AE000000556F1000657F1000758EB0E0859EBC8
:100AF0000C095BEC14AA51EC150A1AEB060A5BEB25
:100B0000070B50EB080051EB09015FF0000C4CF1B2
:100B1000000C1AEB070A5BEB080B50EB090051EBDA
:100B2000090152EB0C025FF0000C53EB0C0354EB89
:100B30000C0475414CF1000CBAEB090A7BF1000B77
:100B400070F10000B141BA4173EB0803B44175EB99
:100B500008056CF1000CC91B72EB080273EB09036A
:100B6000BC4175EB09056CF1000C5FEAEC787FEA9B
:100B70000808D8F10009BAEB080A7BEB080B70EB08
:100B8000080071F1000172F1000273F1000374EBCF
:100B9000090475EB08056CF1000C5FEAEC78D8F1FC
:100BA00000091AEB080A5BEB080B50EB080051F147
:100BB000000152F1000253F1000354EB090455EB1C
:100BC00008054CF1000C5FEAEC78D8F100091AEB4B
:100BD000080A5BEB080B50EB080051F1000152F1E1
:100BE000000253F1000354EB090455EB080517EE1E
:100BF000907AA7E8000C87E83F00BDE8F08F00BFBF
:100C00002DE9F00791E8F807B2E802105B1854EB01
:100C10000C04B2E802104D4156EB0C06B2E802108B
:100C20004F4158EB0C08B2E8021059EB01095AEB9E
:100C30000C0A4FF0260261EB010122EA01015B1868
:100C400054F1000455F1000556F1000657F1000774
:100C500058F1000859F100095AF1000A61EB01014D
:100C600022EA01010B4480E8F807BDE8F00770476D
:100C70002DE9F00791E8F807B2E802105B1A74EB6F
:100C80000C04B2E802108D4176EB0C06B2E80210BB
:100C90008F4178EB0C08B2E8021079EB01097AEB8E
:100CA0000C0A4FF0260261EB010102EA01015B1A16
:100CB00074F1000475F1000576F1000677F1000784
:100CC00078F1000879F100097AF1000A61EB01017D
:100CD00002EA0101A3EB010380E8F807BDE8F00791
:100CE00070470A462DE9F04F40EC171A92EC080ABB
:100CF0001EC910EE100AA1FB00784FF00009E2FBBC
:100D000000894FF0000AE3FB009A4FF0000BE4FB70
:100D100000AB12EE100A4FF0000CE1FB00BC4FF0EC
:100D2000000EE2FB00CE4FF00005E3FB00E54FF0C4
:100D30000006E4FB005604EE107A10EE900A4FF025
:100D40000007E1FB0087E2FB6097E3FB60A7E4FBA1
:100D500060B712EE900AE1FB60C7E2FB60E7E3FBDD
:100D60006057E4FB606704EE908A11EE100A4FF0C2
:100D70000008E1FB0098E2FB60A8E3FB60B8E4FB3D
:100D800060C813EE100AE1FB60E8E2FB6058E3FB89
:100D90006068E4FB607805EE109A11EE900A4FF05F
:100DA0000009E1FB00A9E2FB60B9E3FB60C9E4FBD9
:100DB00060E913EE900AE1FB6059E2FB6069E3FB36
:100DC0006079E4FB608905EE90AA17EE101A01F134
:100DD00010011EC910EE100A4FF0000AE1FB00BA24
:100DE000E2FB60CAE3FB60EAE4FB605A12EE100A21
:100DF000E1FB606AE2FB607AE3FB608AE4FB609AF5
:100E000006EE10BA10EE900A4FF0000BE1FB00CB9B
:100E1000E2FB60EBE3FB605BE4FB606B12EE900ACD
:100E2000E1FB607BE2FB608BE3FB609BE4FB60AB80
:100E300006EE90CA11EE100A4FF0000CE1FB00EC38
:100E4000E2FB605CE3FB606CE4FB607C13EE100A89
:100E5000E1FB608CE2FB609CE3FB60ACE4FB60BC0C
:100E600007EE10EA11EE900A4FF0000EE1FB005E73
:100E7000E2FB606EE3FB607EE4FB608E13EE900AA3
:100E8000E1FB609EE2FB60AEE3FB60BEE4FB60CE94
:100E90004FF0260153EC142A4FF00000E6FB01202E
:100EA000E7FB613057EC156AE8FB6160E9FB6170B4
:100EB00059EC168AEAFB6180EBFB619017EE10AAF1
:100EC000ECFB61A0EEFB615000FB01F0121853F146
:100ED000000356F1000657F1000758F1000859F1D8
:100EE00000095AF1000A55F1000B60EB000021EAFD
:100EF0000000024417EE900A80E8CC0FBDE8F08FA6
:100F00002DE9F00791E8F0174EF6A1514FEA4101A3
:100F1000A4FB01234FF00004E5FB01344FF0000572
:100F2000E6FB01454FF00006E7FB01564FF00007D6
:100F3000E8FB01674FF00008E9FB01784FF000097A
:100F4000EAFB01894FF0000AECFB019A4FF0260101
:100F50000AFB01FA12EB0A0253F1000354F10004F8
:100F600055F1000556F1000657F1000758F1000849
:100F700059F100096AEB0A0A21EA0A010A4480E8E9
:100F8000FC03BDE8F00770472DE9F00390E8F81383
:100F90004FEAEC7202F013022CF0004C02F1130144
:100FA000591854F1000155F1000156F1000157F1B3
:100FB000000158F1000159F100015CF100014FEA14
:100FC000E17101F0130111445B1854F1000455F173
:100FD000000556F1000657F1000758F1000859F1D5
:100FE00000094CF1000C2CF0004C80E8F813BDE82F
:100FF000F0037047004870479C96000010B5441AF3
:101000000346944209D28418114403E011F8013DCB
:1010100004F8013D521EF9D210BD40EA0104A407B4
:1010200003D009E010C9121F10C3042AFAD203E04A
:1010300011F8014B03F8014B521EF9D210BDD2B288
:1010400001E000F8012B491EFBD270470022F6E7B1
:1010500010B513460A4604461946FFF7F0FF20462E
:1010600010BD421C10F8011B0029FBD1801A7047EB
:10107000034611F8012B00F8012B002AF9D118467C
:1010800070470000064C074D06E0E06840F00103A1
:1010900094E8070098471034AC42F6D3FFF7B4F851
:1010A000B8A10000D8A100002DE9F0410446B0B07D
:1010B0000D460A46684604F12007002100F028F991
:1010C00004F140083A46214610A804F16006FFF7F3
:1010D00009FE4146324618A8FFF704FE424639464B
:1010E00020A8FFF7FFFD3246214628A8FFF7FAFDAA
:1010F000EB0F20466A4610A900F09CF930B0BDE81D
:10110000F08100BF2DE9F0410446B0B00D460A461B
:10111000684604F12007012100F0FAF804F14008C4
:101120003A46214610A804F16006FFF7DBFD414670
:10113000324618A8FFF7D6FD4246394620A8FFF7E9
:10114000D1FD3246214628A8FFF7CCFDEB0F204603
:101150006A4610A900F06EF930B0BDE8F08100BF1A
:101160002DE9F041B0B0044600F1200768460D4675
:1011700004F1400800F000F904F160063A46214607
:1011800010A8FFF7AFFD4146324618A8FFF7AAFDA9
:101190004246394620A8FFF7A5FD3246214628A839
:1011A000FFF7A0FDEB0F20466A4610A900F042F9B8
:1011B00030B0BDE8F08100BF2DE9F0410D46A2B08E
:1011C0001646044620312A4602A81F46019106F120
:1011D0002008FFF74DFD01992A460AA8FFF710FDE8
:1011E0004146324612A8FFF743FD414632461AA84F
:1011F000FFF706FD3A461AA912A8FFF760F902A9FF
:1012000012AA0846FFF76EFD0AA91AAA0846FFF7B8
:1012100069FD06F1600205F1600112A8FFF762FDA9
:1012200012A90846174AFFF75DFD06F1400205F1D5
:1012300040011AA8FFF756FD1AAA11461046FFF7FB
:10124000DFFC02AA0AA92046FFF712FD04F12005DF
:1012500002AA0AA904F16000FFF7D2FC4034284634
:1012600012AA1AA9FFF704FD12AA1AA92046FFF72D
:10127000C7FC3A4629462046FFF721F922B0BDE8CF
:10128000F08100BFD8A0000070B5A0B0044601F105
:10129000200668460D46FFF724FD314608A8FFF7F3
:1012A00020FD05F1400110A8FFF71BFD10AA114613
:1012B0001046FFF7A5FC694618A800F0BFFD3246AE
:1012C00029462046FFF79CFC21462046FFF709FDF2
:1012D0006A4621462046FFF7CBFC04F1400508AAE8
:1012E00021462046FFF7C4FC284608AA18A9FFF7A4
:1012F00087FC10AA294604F12000FFF7B9FC08AAD0
:1013000018A904F16000FFF7B3FC20B070BD00BF66
:101310002DE9F04102EBE27585EAE27582B00C46F8
:101320000021064600F1200700F07EFD691EC90F6E
:10133000384600F079FD0F4B03EB442440344FF066
:10134000010885EA0802013AD20F2146304601928F
:1013500008F10108FFF748F804F12001019A384626
:10136000FFF742F8B8F1090F04F14004E9D102B0E7
:10137000BDE8F081989A00002DE9F04101EBE1769B
:10138000074682B086EAE176002100F04DFD07F1C4
:101390002008711EC90F404600F046FD0C4D012487
:1013A00086EA0402013AD20F2946384601920134F6
:1013B000FFF71AF805F12001019A4046FFF714F8EB
:1013C000092C05F14005EBD102B0BDE8F08100BF6A
:1013D000D89E0000F0B5D1E908328E6ACD69144F6D
:1013E0008DB00C46110F41EA06114FEA137C1B0128
:1013F0004CEA021C43EA15733A460546029104A8DA
:101400006946360FCDF804C000930396FFF762F8E3
:10141000009B21461B0704AA28460B93FEF7C4FF36
:10142000EA693946D20F2846FEF7DEFF0DB0F0BD5F
:10143000789A00002DE9F0410D46A2B01646044608
:1014400020312A4602A81F4606F120080191FFF725
:101450000FFC01992A460AA8FFF7D2FB4146324603
:1014600012A8FFF705FC414632461AA8FFF7C8FB51
:101470003A461AA912A8FFF722F802A912AA0846AA
:10148000FFF730FC0AA91AAA0846FFF72BFC4246D0
:10149000314612A8FFF726FC12A905F160020846A2
:1014A000FFF720FC12A90846144AFFF71BFC05F1C0
:1014B000400211461AA8FFF7A3FB02AA0AA9204678
:1014C000FFF7D6FB04F1200502AA0AA904F1600087
:1014D000FFF796FB4034284612AA1AA9FFF7C8FB6B
:1014E00012AA1AA92046FFF78BFB3A462946204646
:1014F000FEF7E5FF22B0BDE8F08100BFD8A00000F4
:101500002DE9F047CC7F91F800A0C2B00B4604F063
:101510003F04D1F80110D3F809E0D3F80DC0D3F897
:101520000580D3F81560D3F81950D3F81170CDF8B1
:10153000491044F04004114681462AF0070202A8EF
:1015400093F81DA09B7FCDF851E0CDF855C08DF8E4
:1015500066308DF867408DF84820CDF84D80CDF885
:101560005D60CDF86150CDF859708DF865A000F040
:101570003FFC202202A91AA8FFF7EAF802A80121DD
:1015800000F052FC0AA8002100F04EFC1AA922A883
:101590002022FFF7DDF82AA8012100F045FC1AAE51
:1015A0000DF148080624002516F8017D47FA04F3DA
:1015B0002A4603F001056A4022A902A80192FEF71B
:1015C0007EFF019A2AA90AA8FEF779FF0AAA02A9B2
:1015D00032A8FFF715FB0AAA104602A9FFF748FB3D
:1015E0002AAA22A93AA8FFF70BFB2AAA104622A989
:1015F000FFF73EFB3AA908460AAAFFF773FB2AA9A0
:10160000084632AAFFF76EFB3AAA2AA922A8FFF7DA
:10161000F7FA2AA93AAA0846FFF72AFB22A90846A0
:10162000FFF75FFB2AA90846FFF75BFB2AA91AAA66
:101630000846FFF757FB32A90846FFF752FB0AA9F5
:101640003AA8FFF74EFB3AAA32A902A8FFF74AFBD5
:1016500032A93AAA0846FFF70BFB32A90AA8FFF7FE
:101660004FFC0AA908463AAAFFF7CAFA0AA9013CA0
:1016700032AA0846FFF736FB631C97D146454FF068
:10168000070491D10AA90846012200F0E9FB02A94A
:101690000AAA0846FFF726FB02A9484600F0F2FC1A
:1016A00042B0BDE8F08700BF014AFFF729BF00BF85
:1016B000589700002DE9F043BBB08946804611469B
:1016C00012A8514AFEF770FE5049024612A8FEF7D2
:1016D0008BFE199E4C4900EAD6760746C6F10102F8
:1016E00012A8FEF781FE199D4A462AA91AA8ED43C1
:1016F00001F0AEFBED0F22A9C5F10102084600F092
:10170000D9FCC7F10107FE2402AA1AA92AA801F0F0
:1017100053FB62113AAB03EB820204F01F0152F853
:10172000A03CCB402A4603F001056A402AA91AA82A
:101730000192FEF7C4FE019A32A922A8FEF7BFFE6D
:10174000013C2AA91AA801F0D1FA631CDCD1C5F129
:1017500001020AA822A900F0ADFC754002AA1AA94C
:101760002AA801F029FB2AA92A461AA8FEF7A7FEF3
:101770002A4632A922A8FEF7A2FE0AA902AA084612
:10178000FFF761F80AA9084600F0B0FC0AA908F1C1
:10179000200409F120020846FFF755F822A90AAAF9
:1017A0002046FFF750F80AAA1AA902A8FFF74BF83B
:1017B00002A90846FFF746F81AAA02A90AA8FFF7E5
:1017C00042F8214602A8FFF73DF80AAA02A91046EE
:1017D000FFF70BF80E4A0AA902A8FFF706F8204601
:1017E0002021FEF7A8FF0AA94342024602A81F4390
:1017F000FEF765FE4046074A02A9FFF724F838467F
:101800003BB0BDE8F08300BF98A10000389A00000B
:1018100058A10000589A00000A460149FFF74ABF44
:101820007897000038B504460D4600F00FFD05F12D
:10183000200104F12000BDE8384000F007BD00BFE2
:1018400030B599B00546684600F05EFE694604462C
:1018500008A8FFF7E1FF08A904432846FFF7E2FFC5
:10186000204619B030BD00BF10B52022B0B00446EC
:101870000DEB020000F074FE9DF83F309DF8202033
:1018800003F07F0343F0400322F0070208A96846F3
:101890008DF83F308DF8202000F006FD694618A82D
:1018A00000F084F918A9204600F05EF930B010BDB0
:1018B000F0B5C5B0044616460D461CA819462022B0
:1018C000039500F04DFE9DF88F509DF87070039BBE
:1018D000009605F07F0524AA04A845F0400527F0EE
:1018E000070700218DF88F508DF8707000F04CFACA
:1018F00004A92CA800F05AF92CA9204600F034F9CC
:10190000039B4A9A009621460CA800F03DFA1CA9B8
:1019100014A800F0C9FC0CA914AA084600F04CFD5C
:101920000CA904AA084600F0ABFC0CA904F12000A5
:1019300000F09CFD45B0F0BDF0B5D5B00446039174
:1019400034A819461D46174600F0A8F9039B0097D6
:101950002A46064621460CA800F016FA04F120019A
:1019600014A800F0A1FC14AB0CAA34A91CA800F028
:101970000DF81CA904A800F0F7F8204604A92022BD
:10198000FEF7C6FE0138304355B0F0BD2DE9F04FEB
:10199000ADF20C5D0C4607461646C2A88022994659
:1019A000FEF7D6FE214602A8FFF76EFC02A90AAA9E
:1019B00022A8FFF797F91AAA12A92AA8FFF792F905
:1019C00012AA0AA932A8FFF78DF91AAA02A93AA801
:1019D000FFF788F9C2AC0DF5916800232546214632
:1019E00022AA02A88034FFF7E7FB20460AAA02A930
:1019F000FFF778F91AAA12A905F1A000FFF772F90A
:101A000012AA0AA905F1C000FFF76CF91AAA02A9E7
:101A100005F1E000FFF766F94445DED10DF5847865
:101A20003146404682AE00F0DDFC3046494600F0CB
:101A3000D9FCF0430DF205220DF2053304E013F951
:101A4000011D31B99E427BD012F9011DC418002935
:101A5000F5D00021384607F1200900F0E5F907F13B
:101A6000400A4846012100F0DFF95046012100F00C
:101A7000DBF9002C60DB0134DFF8E8B02644444495
:101A8000394602A8FFF700FC14F9015D0AAA02A971
:101A900022A8EDB1EB0F18BF6D420193FFF722F9B9
:101AA0001AAA12A92AA8FFF71DF912AA0AA932A890
:101AB000FFF718F91AAA02A93AA8FFF713F9C2AB5F
:101AC0006A1003EBC21222A9019B02A8FFF774FB64
:101AD00016F9013D0AAA02A922A81D46DBB1DB0FB7
:101AE00018BF6D420193FFF7FDF81AAA12A92AA8A0
:101AF000FFF7F8F812AA0AA932A8FFF7F3F81AAA12
:101B000002A93AA8FFF7EEF8019B0BEB851222A978
:101B100002A8FFF78FFC0AAA02A93846FFF7E2F8ED
:101B20001AAA12A94846FFF7DDF812AA0AA95046D8
:101B3000FFF7D8F8A045A3D10DF20C5DBDE8F08FFA
:101B4000384600F071F907F12000012100F06CF92E
:101B500007F14000012100F067F90DF20C5DBDE8CE
:101B6000F08F00BF989A000030B599B004460D463A
:101B700010A84031012200F073F9294610AA6846E6
:101B8000FFF7B0F810AA05F1200108A8FFF7AAF89E
:101B900008A9204600F076FA684600F03DF9E37F98
:101BA00083EAC010E07719B030BD00BF2DE9F041E5
:101BB000B0B0E8460446404600F082FC04F140061E
:101BC0009DF93F102046FFF7D7FB3046012100F07A
:101BD0002BF904F120070DF11505214610A8FFF798
:101BE00053FB18AA10A92046FFF77CF828AA20A9C1
:101BF0003846FFF777F820AA18A93046FFF772F8A1
:101C0000214610A8FFF740FB18AA10A92046FFF7AD
:101C100069F828AA20A93846FFF764F820AA18A96D
:101C20003046FFF75FF8214610A8FFF72DFB18AAF2
:101C300010A92046FFF756F828AA20A93846FFF732
:101C400051F820AA18A93046FFF74CF8214610A8F1
:101C5000FFF71AFB15F9011D10A8FFF725FA95F9F2
:101C6000151010A8FFF74EFA95F92A1010A8FFF7E3
:101C700077FA18AA10A92046FFF734F828AA20A955
:101C80003846FFF72FF820AA18A93046FFF72AF8A0
:101C9000A845A2D130B0BDE8F08100BFF0B5044640
:101CA00000F1400699B00D4604F1200730460121AD
:101CB00000F0BAF83846294600F09AF8394608A8E4
:101CC000FFF70FF808A910A82D4AFFF70BF808A98D
:101CD00032460846FEF7CCFF10AA31461046FEF702
:101CE0008FFF10AA08A96846FEF7FCFF6946684600
:101CF000002200F0B5F808AA69462046FEF7F2FF78
:101D000021466846FEF7EDFF10AA69466846FEF7D1
:101D1000E9FF08A9684600F05BF821460646194A23
:101D20006846FEF7DFFFC6F1010220466946FEF76E
:101D3000C6FB21466846FEF7D4FF10AA69466846EE
:101D4000FEF7D0FF08A9684600F042F82146064693
:101D5000684600F073F8204600F05EF8EA7F80EAFB
:101D6000D21269462046C2F10102FEF7A8FB04F137
:101D700060003A462146FEF7B5FF701E19B0F0BD6F
:101D8000F8A0000018A10000F0B5C3B00C4605464D
:101D900010A817461E4600F06BFD24B121462022F4
:101DA00010A800F01BFF394610A8202200F016FFF3
:101DB000489A314610A800F011FF10A8694600F0BB
:101DC00067FC6946284600F09FFA43B0F0BD00BFAB
:101DD00038B50C460546FFF7D7F82046FFF7D4F88C
:101DE000214628462022BDE83840FEF791BC00BFBE
:101DF0000B6803604B6843608B688360CB68C3608B
:101E00000B6903614B6943618B698361CB6923F083
:101E10000043C361704700BF10B50446FFF7B4F834
:101E2000206800F0010010BD0023C0E90013C0E9E4
:101E30000233C0E90433C0E90633704730B589B0D6
:101E4000002400250A466946CDE90045CDE9024552
:101E5000CDE90445CDE90645FEF70AFF09B030BDDE
:101E6000F0B5A1B00446684616460D46FEF739FFA8
:101E7000694618A8FEF735FF18A90846FEF731FF96
:101E80002A4618A908A8FEF72DFF6A4608A9684641
:101E9000FEF728FF694618A8FEF723FF08AA104698
:101EA00018A9FEF71FFF08A918A8FEF71AFF18A91E
:101EB0000846FEF716FF18A90846FEF712FF18A9F4
:101EC0000846FEF70EFF18A90846FEF70AFF08AA03
:101ED00018A91046FEF706FF022708A900E001270F
:101EE00018A8FEF7FEFE18A90846FEF7FAFE18A984
:101EF0000846FEF7F6FE18A90846FEF7F2FE18A9F6
:101F00000846FEF7EEFE012F18A9E8D110A808AA8E
:101F1000FEF7E8FE042710A918A8FEF7E2FE18A9AC
:101F20000846FEF7DEFE18A90846FEF7DAFE18A9F5
:101F30000846FEF7D6FE18A90846FEF7D2FE013F76
:101F400018A9E9D110AA0846FEF7CCFE022700E046
:101F5000012718A90846FEF7C4FE18A90846FEF78F
:101F6000C0FE18A90846FEF7BCFE18A90846FEF7F1
:101F7000B8FE18A90846FEF7B4FE012FE8D118A94B
:101F800008AA10A8FEF7AEFE0A2710A918A8FEF7A7
:101F9000A8FE18A90846FEF7A4FE18A90846FEF7F1
:101FA000A0FE18A90846FEF79CFE18A90846FEF7F1
:101FB00098FE013F18A9E9D110AA08A8FEF792FEE1
:101FC000142708A918A8FEF78CFE18A90846FEF7E2
:101FD00088FE18A90846FEF784FE18A90846FEF7F1
:101FE00080FE18A90846FEF77CFE013F18A9E9D13A
:101FF00008AA0846FEF776FE0A2718A90846FEF743
:1020000070FE18A90846FEF76CFE18A90846FEF7F0
:1020100068FE18A90846FEF764FE18A90846FEF7F0
:1020200060FE013FE9D118A9084610AAFEF75AFE42
:1020300018A9084666B9FEF754FE18A90846FEF727
:1020400050FE2A4618A92046FEF74CFE21B0F0BDEE
:10205000FEF747FE18A90846FEF743FE18A90846F2
:10206000FEF73FFE18A90846FEF73BFE18A90846F2
:10207000FEF737FE6A4618A92046FEF733FE21B068
:10208000F0BD00BF38B50C4605460846FEF77CFF9C
:1020900023682B6063686B60A368AB60E368EB60E8
:1020A00023692B6163696B61A369AB61E369EB61D0
:1020B00038BD00BF70B588B004460D466846202183
:1020C0001646FEF74CFB00232946204620220093AB
:1020D000FEF73EFB2A4669466846FEF786FB324617
:1020E00069462046FEF7EBF908B070BD70B598B0B0
:1020F0000C46054610A8FEF7A5FB224610A9684627
:10210000FEF7A1FB694610A8FEF79CFB10A9084644
:10211000FEF798FB6A4610A908A8FEF794FB08A9E9
:1021200010A8FEF78FFB10A90846FEF78BFB10A93D
:102130000846FEF787FB10A90846FEF783FB10A9A7
:1021400008AA0846FEF77FFB10A90846FEF77AFBAF
:1021500010A90846FEF776FB10A96A4608A8FEF704
:1021600072FB052608A910A8FEF76CFB10A908460B
:10217000FEF768FB013E10A9F5D108AA0846FEF754
:1021800062FB052610A90846FEF75CFB10A908466D
:10219000FEF758FB013EF5D110A908AA0846FEF744
:1021A00052FB10A908A8FEF74DFB08A90846FEF748
:1021B00049FB08A96A466846FEF745FB10266946B2
:1021C00010A8FEF73FFB10A90846FEF73BFB013EB7
:1021D00010A9F5D122460846FEF735FB402610A986
:1021E0000846FEF72FFB10A90846FEF72BFB013E21
:1021F000F5D110A96A460846FEF725FB102610A95E
:102200000846FEF71FFB10A90846FEF71BFB013E20
:10221000F5D110A96A460846FEF715FB102610A94D
:102220000846FEF70FFB10A90846FEF70BFB013E20
:10223000F5D110A908AA0846FEF705FB224610A909
:102240002846FEF700FB18B070BD00BFCB691BBA73
:1022500003608B691BBA43604B691BBA83600B69CF
:102260001BBAC360CB681BBA03618B681BBA43619E
:102270004B681BBA83610B681BBAC361704700BF10
:1022800038B5084D0446FEF76FF821462A46204629
:10229000FEF78AF8294602462046BDE83840FEF798
:1022A000A3B800BF789A0000F0B54B078DB01AD1E3
:1022B000D1E90023D1E90245CDE90023D1E9046742
:1022C000D1E90623CDE90245CDE90467CDE906232E
:1022D0000022002300246946CDE908230A94FFF771
:1022E00079F80DB0F0BD4C688A68CB680E694D690D
:1022F000019402928C69CA6903930B680093CDE93B
:102300000465CDE90642E3E7F0B54B0793B00D460F
:1023100004462FD1D1E90023D1E90201CDE9002300
:10232000D5E90423CDE90201CDE90423D5E906016D
:10233000D5E90823CDE90601CDE90823D5E90A014D
:10234000D5E90C67D5E90E23CDE90A01CDE90C6783
:10235000CDE90E2306A9002308461093FFF73AF8AB
:1023600003A90846FFF736F869462046FFF732F81A
:1023700013B0F0BD4968AA68EB6828690191029220
:102380006969AA6903930490EB69286A059106922A
:10239000696AAA6A2E6B07930890EB6A686B0991C9
:1023A0000A92A96BEA6B0B932B680093CDE90C6042
:1023B000CDE90E12CEE700BF10B592B0044601A8D9
:1023C000FEF7C7F807A9002308461193FFF702F8A4
:1023D00004A90846FEF7FEFF01A92046FEF7FAFF12
:1023E00012B010BD2DE9F0470024451E00F1FC0E8F
:1023F000C0F1010C26466FF009074FF0010812E00A
:10240000C35D53444FFA83F9B9F1070FDBB2A3F16F
:10241000100327DC00F80790002305F8013F7545FD
:102420004FEA54041CD00CEB05035A1113F01F0F94
:1024300008BF51F82240A21912F00102A3EB0709CC
:1024400006EA0406E8D0B9F1030F08FA09FAD7DD65
:102450001F46012305F8013F75454FEA5404E2D1B8
:10246000BDE8F087C35516460023D6E740EA0103CE
:102470005B0714D1C31D5B1A0E2B10D9D1E90023C1
:10248000C0E90023D1E90223C0E90223D1E90423F2
:10249000C0E90423D1E90623C0E9062370470B688D
:1024A00003604B6843608B688360CB68C3600B69D3
:1024B00003614B6943618B698361CB69C361704779
:1024C000F0B40025471E2C462E46E30814F0070FF3
:1024D00008BF51F8235005F00F03334403F10802FD
:1024E00002F47F6601349B1B3F2C4FEA121607F85B
:1024F000013F4FEA1515C2F30712E6D12A4480F8CE
:102500003F20F0BC704700BF70B50B68124E1BBA7D
:10251000C3614B681BBA83618B681BBA4361CB688C
:102520001BBA03610B691BBAC3604B691BBA83609A
:102530008B691BBA4360CB691BBA03603246014604
:102540000446FDF731FF0546314620462A46FDF791
:102550004BFF681E70BD00BF78A1000000000000A6
:102560002DE9F04F0FF2E80BDBE900AB0FF2E809C1
:10257000D9E90089B3B0CDE900ABCDE902890FF20A
:10258000E00BDBE900AB0FF2E009D9E90089CDE906
:1025900004ABCDE906890FF2D80BDBE900AB0FF2F3
:1025A000D809D9E90089CDE908ABCDE90A890FF24C
:1025B000D00BDBE900AB0FF2D009D9E90089002587
:1025C000CDE90CABCDE90E890646319230955AB96A
:1025D0006F464FF0000C31463846CDF8C0C000F0D1
:1025E00057F833B0BDE8F08F6F463846144688463A
:1025F00000F08AFC241A844644440028E9D0431E93
:10260000022B0FD920F003002044234610AA53F8D0
:10261000041B42F8041B8342F9D12CF003056545E5
:102620002C44D8D032AB2B44227803F8882C6B1C76
:102630009C45D0D932AA13440235627803F8882C1D
:10264000AC45C8D932AB1D44A37805F8883CC2E735
:1026500008C9BCF367E6096A3BA7CA8485AE67BBB5
:102660002BF894FE72F36E3CF1361D5F3AF54FA5E0
:10267000D182E6AD7F520E511F6C3E2B8C68059BBC
:102680006BBD41FBABD9831F79217E1319CDE05B74
:10269000F0B5D0F8C0300446C218581C8026702807
:1026A00083B00D4682F840606FD804F14001C0F15C
:1026B0007A03022BC0F17B070FD900F140032344BA
:1026C00027F003021A44002643F8046B9A42FBD118
:1026D00027F00303BB42184411D0231800227A28A4
:1026E00083F8402000F1010309D02344792800F148
:1026F000020683F8402002D0264486F84020D4F811
:10270000C430580F5A0D84F8BB0084F8BC20580B15
:102710005A09DB0084F8BD0084F8BE2084F8BF307D
:10272000204600F07FFDD4E9002312BA1BBA6A608C
:102730002B60D4E9022312BA1BBAEA60AB60D4E979
:10274000042312BA1BBA6A612B61D4E9062312BAB8
:102750001BBAEA61AB61D4E9082312BA1BBA6A62F8
:102760002B62D4E90A2312BA1BBAEA62AB62D4E93B
:102770000C2312BA1BBA6A632B63D4E90E2312BA74
:102780001BBAEA63AB6303B0F0BD7F2862D8204474
:1027900000227E2B80F8402003F102015AD0214410
:1027A0007D2B03F1030081F8402053D020447C2B83
:1027B00003F1040180F840204CD021447B2B03F12D
:1027C000050081F8402045D020447A2B03F1060112
:1027D00080F840203ED02144792B03F1070081F896
:1027E000402037D02044782B03F1080180F84020A6
:1027F00030D02144772B03F1090081F8402029D003
:102800002044762B80F8402003F10A0122D0214495
:10281000752B03F10B0081F840201BD02044742B52
:1028200003F10C0180F8402014D02144732B03F1F4
:102830000D0081F840200DD02044722B03F10E01D1
:1028400080F8402006D02144702B81F8402001D12F
:1028500084F8BF2004F140012046019100F0E2FC21
:102860007A2801997FF623AF49E700BF00000000F6
:1028700017A3D3E90023F0B417A5D5E90045C0E9B3
:10288000002317A3D3E9002317A7D7E90067C0E9FE
:10289000024517A5D5E90045C0E9062316A3D3E9EB
:1028A0000023C0E90467C0E9084515A7D7E9006718
:1028B00015A5D5E90045C0E90C2300220023C0E995
:1028C0000A67C0E90E45C0E93023F0BC704700BF7D
:1028D00008C9BCF367E6096A3BA7CA8485AE67BB33
:1028E000F1361D5F3AF54FA52BF894FE72F36E3C5E
:1028F000D182E6AD7F520E516BBD41FBABD9831F38
:102900001F6C3E2B8C68059B79217E1319CDE05BF3
:102910002DE9F04F93B0A1F108030C93D2E90EB367
:102920000D93136B0393536B0493936A0593D36ACC
:10293000069393690E93D3690F9393680193D368B9
:10294000099313690793D2E90876D2E9005A5369CB
:102950000893034680330A9011930095B44602977A
:102960005646CDF840B008E0009900930B9B0996BD
:10297000019106460293CC461F460A990C9C059D80
:10298000F4E90289F1E802ABB80BBB0C0A910C9494
:1029900040EA8C40039CF90543EA8C331AEB080E9D
:1029A00083EA000341EA5C214BEB090B4B4084EACC
:1029B00005094FEA9C304FEA9C414FEACC58049DF0
:1029C00041EA873148EA572840EA874009EA07097F
:1029D000069F484085EA07040399009F04EA0C0417
:1029E00013EB0E0389EA010984EA050480EA080072
:1029F0003D464FEA17784FEA877E4FEA4761019FCD
:102A00004BEB000013EB090344EB0000B946109CAC
:102A10002F4645EA090B079D1B194FEA16794FEA25
:102A200086740BEA050B49EA07193D4644EA970408
:102A3000019F05EA070A0D9D099F40EB0505284601
:102A40000E9D5D1948EA06180B954EEA960E009DFC
:102A500088EA0E0E4FEA466848EAD51841EAD611D0
:102A6000089D8EEA01014BEA0A0A46EA070E06EAC9
:102A7000070B0F9F89EA04040EEA050E059D1563F6
:102A800040EB0709079D069F576311EB0A0A84EA8A
:102A900008080399049C9163D4639561029F109187
:102AA000C2E90A7C019F1761009F05990391C2E961
:102AB00002760B9F069917624EEA0B0E029F089D45
:102AC000049148EB0E0E0799D5611AEB0303CDE98B
:102AD000057C099D019F0E914EEB000008990D9415
:102AE0000F91C2E900305561C2F82490079708950C
:102AF0000A99119CA1427FF437AF13B0BDE8F08F63
:102B00002DE9F04FA0F1080685B00025AA1E02F0BD
:102B10000F022B46013500EBC20105F00F0450F8FF
:102B200032E04A6850F83410073B00EBC40403F06D
:102B30000F0300EBC3034FEADE474FEACE0BD4F896
:102B400004C04BEA527BD3E9004A47EA42374FEAD6
:102B50009E13F6E9028987EA0B0743EA82637B400A
:102B60004FEAD24B0393D30014EB0804CDE900895C
:102B70004BEA4E3B4FEA112843EA5E7E4FEA51038F
:102B800048EA0C6843EACC738BEA0E0E4FEA5C0904
:102B90004FEA1C2B83EA080349EAC1794FEAD118AE
:102BA0004BEA016B019F039948EA4C684AEB070A1C
:102BB0008EEA9212611883EA080389EA0B044AEB51
:102BC000020284EADC1CC91842EB0C02102DC6E993
:102BD00000129BD105B0BDE8F08F00BF2DE9F8438E
:102BE000D0E930531344074614468846C0F8C43031
:102BF000E5B17F2D76D8D2B105F14006C5F1800947
:102C0000064489440B4601E0002C52D00133A3EB6B
:102C1000080213F8011C06F8011B4B4504F1FF34B0
:102C20002A44F1D1802A49D01546C8461CB9C7F8B4
:102C3000C050BDE8F88322464146384600F064F9AA
:102C4000261A054646440028F1D0231D1B1A43448A
:102C500007F1400207F144018E4238BF9A4237D350
:102C6000431E072B34D920F003003044334653F879
:102C7000041B42F8041B8342F9D125F003039D4253
:102C800006EB0301D3D0FA18F05C82F840005A1C1E
:102C90009542CCD93A440233487882F840009D42AC
:102CA000C5D93B448A7883F84020C7F8C050BDE8B6
:102CB000F8831546C7F8C050BDE8F88307F1400116
:102CC000384600F0AFFAC8460546002CAFD0B2E750
:102CD000444407F13F0316F8012B03F8012FA642E5
:102CE000F9D1A4E72A4689469CE700BFF0B599B020
:102CF00004460D460A4601466846FDF776FD6946DC
:102D00006846FDF79FFD21466A4608A805F12006A2
:102D100004F12007FDF797FD6A4629466846FDF74E
:102D200092FD3946324610A8FDF720FD324639465D
:102D30003046FDF75AFD31462846FDF783FD6A46C9
:102D400008A92046FDF712FD224629462846FDF730
:102D50004CFD6A4608A96846FDF747FD6A463946B4
:102D60003846FDF770FD2A4608A96846FDF73DFD87
:102D70006A4631463046FDF766FD3A4631463046F2
:102D8000FDF733FD10A96846FDF75CFD2246694654
:102D90002046FDF72AFD08A922460846FDF725FD35
:102DA00010A908AA0846FDF74EFD3A4610A9384674
:102DB000FDF71BFD19B0F0BD2DE9F0410C4688B0C0
:102DC00005469046014622466846FDF70EFD6946D7
:102DD0006846FDF737FD6A462946284604F1200675
:102DE000FDF731FD05F120076A4621466846FDF7EB
:102DF0002AFD324630463946FDF7F7FC314620467B
:102E0000FDF720FD2A4621462046FDF7EEFC6A46E6
:102E100021462046FDF7E9FC6A4629464046FDF773
:102E2000E4FC424639463846FDF70DFD2246294668
:102E30006846FDF7DAFC6A4631463046FDF703FD89
:102E40003A4631463046FDF7D0FC08B0BDE8F08187
:102E50002DE9F04188B00C46064602F12001684693
:102E600006F120079046FDF7EDFC6A466946684684
:102E7000FDF77CFC38466946FDF7E4FC3A463946E6
:102E8000384604F12005FDF771FC6A46694668463C
:102E9000FDF76CFC28464146FDF7D4FC6A464146E6
:102EA0003046FDF7D0FC2A4629466846FDF75EFC11
:102EB0002A4669466846FDF759FC124A6946684643
:102EC000FDF754FC69462046FDF7BCFC324621461E
:102ED0002046FDF78AFC324621462046FDF785FC58
:102EE000224631462846FDF780FC6A462946284698
:102EF000FDF7A9FC3A4629462846FDF776FC08B0BE
:102F0000BDE8F08138A100002DE9F04FBDB07F2A67
:102F10000B9240F279818246A2F18004DAF81830EF
:102F20000193DAF81C300293DAF820300393DAF8D0
:102F300024300493DAE90AB3D0E90020DAE9046521
:102F400024F07F0489468034DAE902174C44059363
:102F5000DAE90D8EDAF8303006930A94DAF83C306C
:102F6000CDF81CB014462A463D461746D9F80C2029
:102F70000C94D9F8084008940D901197D9F81400D2
:102F8000099017BA089A109616BA099A0F9515BAA9
:102F9000019A1292029A1392039A1492049A159229
:102FA000079A1692059A1792069AD9F804B0D9F89A
:102FB00000C0D9F81040D9F81C000E91D9F81810AB
:102FC000CDE91828CDE91AE3D9F848300193D9F8AA
:102FD00054300293D9F850300393D9F85C300493FD
:102FE000D9F858300593019BD9F82080D9F82CE006
:102FF000D9F84C209BFA8BFB9CFA8CFC24BA00BAC3
:1030000009BA1BBACDE91CBCCDE91E76D9F824B0AB
:10301000D9F828C0D9F83470D9F83060CDE92054F7
:10302000CDE92201D9F83C50D9F83840D9F844000C
:10303000D9F840102F93029B1BBA3093039B1BBA05
:103040003193049B1BBA3293059B98FA88F89EFA39
:103050008EFE9CFA8CFC3FBA36BA2DBA24BA1BBA43
:103060009BFA8BFBCDE926ECCDE92876D9F860E018
:10307000D9F86CC0D9F86870D9F874603393CDE989
:103080002A54D9F87830D9F87050D9F87C40CDE975
:1030900024B8D9F8648000BA09BA12BA9EFA8EFE32
:1030A0009CFA8CFC1BBACDE92C012E921CA90CAA0F
:1030B000574898FA88F83FBA36BA2DBA24BACDE9FB
:1030C000348ECDE936C7CDE93865CDE93A43FFF70F
:1030D0001FFC1CA8FFF714FD0CAA1CA94D48FFF704
:1030E00017FC1CA8FFF70CFD0CAA1CA94A48FFF707
:1030F0000FFC1CA8FFF704FD0CAA1CA94748FFF70A
:1031000007FC1CA8FFF7FCFC45480CAA1CA9FFF70C
:10311000FFFBDDE90C40DAF80020DAF808300E9900
:10312000119F1419DAF80420CAF80040DAE90356AE
:1031300042EB000059180F9BDAF8242043EB0505F9
:10314000109BF618DAF8143043EB0707DAF818305A
:10315000CAF814709C46129B1CEB03030193DAF827
:103160001C309C46139B4CEB030CDAF82030CDF856
:1031700008C09C46149B1CEB030C159BCDF80CC09F
:1031800043EB0202019B0492CAE90101CAE903561A
:10319000CAF81830029BCAF81C30CAE908C2169B4C
:1031A000DAF82820D3180793179ACAF82830DAF8E3
:1031B0002C3053410593189ACAF82C30DAF8303085
:1031C0009B180693199ACAF83030DAF8343043EB7A
:1031D0000208DAF838201B9BCAF8348094461A9A01
:1031E0001CEB020EDAF83C2042EB03030A9A09F1C9
:1031F00080099145CAE90EE37FF4B8AE0B9B03F05A
:103200007F003DB0BDE8F08F10463DB0BDE8F08FC7
:10321000B897000038980000B8980000389900006E
:10322000B89900002DE9F041D1F804C00D68CC68D0
:103230008A684B690F69CE69B0B080469CFA8CFCF5
:103240002DBA24BA12BA1BBACDE910C5CDE91323A1
:103250001294D8E90223D8E900453FBA36BACDE93D
:103260001576CDE90045D8E90467D8E90645CDE9EA
:103270000223D8E90823CDE90467CDE90645D8E95A
:103280000A67D8E90C45CDE908238869D8E90E23F7
:1032900000BACDE90A67CDE90C451790CDE90E23B8
:1032A000CF6A8E6A4D6B0C6BC86B8A6B4B6CD1F816
:1032B00024E0D1F820C03FBA36BA2DBA24BA00BAF9
:1032C00012BA1BBA1A971B960F6CCE6C1C951D94E4
:1032D0008D6C4C6D1E901F92086DCA6D20938B6D86
:1032E0009EFA8EFE9CFA8CFC3FBA36BA2DBA24BAEE
:1032F00000BA12BA1BBACDE92176CDE92354CDE943
:103300002502CDE918EC2793D1F864E0486FCA6F25
:10331000534CD1F860C0CF6E8E6E0D6F8B6F00BABC
:1033200011BA9EFA8EFE9CFA8CFC1BBA6A462C904F
:103330002E91204610A93FBA36BA2DBA2F93CDE967
:1033400028ECCDE92A762D95FFF7E2FA10A8FFF7D1
:10335000D7FB6A4610A904F18000FFF7D9FA10A83C
:10336000FFF7CEFB6A4610A904F58070FFF7D0FA8C
:1033700010A8FFF7C5FB6A4610A904F5C070FFF757
:10338000C7FA10A8FFF7BCFB6A4610A904F5007045
:10339000FFF7BEFAD8F80000009DD8F80410019E8F
:1033A000D8F80830029CD8F80C20D8F810704019D2
:1033B00046EB0101039DC8F800000498C8F804100A
:1033C0001B190599D8F81440D8F81860C8F80830C7
:1033D00045EB0202069B079DC8F80C203F1844EB02
:1033E0000101D8F81C00089AC8F81070D8F82070AD
:1033F000C8F81410F6180999D8F82430C8F81860DD
:1034000045EB0000BA1841EB0303C8E90702C8F80E
:103410002430D8E90A01DDE90A56D8F830300C9C8E
:10342000D8F83420D8F83870401946EB01010D9DCA
:10343000C8F828000E98C8F82C101B190F99D8F856
:103440003C40C8F8303045EB02023818C8E90D207E
:1034500044EB01010020C8F83C1030B0BDE8F08119
:10346000B8970000064882B0002101600068009013
:10347000044800680449C0B2496802B00847000027
:1034800000D1004008D500404400002000F000BA00
:1034900070B50E46144900EB400001EBC005144620
:1034A000E86A183520B101280FD0022805D113E0B1
:1034B000284600F021FAA04201D2002411E0224661
:1034C0003146284600F050FA0BE0284600F014FA86
:1034D000A042F4D20446F2E73146284600F017FA3B
:1034E0000446204670BD0000C4090020F0B5D34A50
:1034F000D3494FF080541368D4F830010978D4F8D8
:103500003421451CC1F3031107D084461646012718
:103510000025BCF1060F04D013E003F0FF0C0E46AB
:10352000F5E7032E05D0042E03D0052E01D0062E7C
:1035300007D1B4F82463DFF80CC3C6F30426CCF833
:103540000060DEB2062E06D1032904D1DFF8FCC2EA
:10355000BD4ECCF87460461C06D084464FEA020685
:10356000BCF1060F04D013E003F0FF0C0E46F7E7A2
:10357000032E05D0042E03D0052E01D0062E07D130
:10358000D4F84462DFF8C8C2C6F34236CCF8006013
:10359000DEB2062E08D1032906D1AE4ED6F800C001
:1035A0002CF0807CC6F800C0461C05D08446164628
:1035B000BCF1060F04D014E003F0FF0C0E46F7E751
:1035C000032E05D0042E03D0052E01D0062E08D1DF
:1035D0004FF08046C6F80C51C6F810519C4E361F6D
:1035E0003560DEB2062E08D1032906D1DFF860C2AD
:1035F00003260CF1640CCCF80060DEB2062E11D16B
:1036000003290FD1DFF850C20526CCF80060924E96
:1036100078363760904E083635600CF1040C3F2642
:10362000CCF80060461C05D084461646BCF1060F57
:1036300004D087E003F0FF0C0E46F7E7032E7CD0A2
:10364000042E7FD0052E01D0062E7BD1834E366806
:10365000DFF80CC2CCF80060804E361D36680CF1E5
:10366000040CCCF800607D4E083636680CF1040C72
:10367000CCF80060794E0C3636680CF1040CCCF8AE
:103680000060764E103636680CF1040CCCF8006001
:10369000724E143636680CF1040CCCF800606F4E94
:1036A00018363668DFF8B8C10CF1200CCCF8006091
:1036B0006A4E1C3636680CF1040CCCF80060674E7C
:1036C000203636680CF1040CCCF80060634E2436CA
:1036D00036680CF1040CCCF80060604E2836366871
:1036E0000CF1040CCCF800605C4E2C3636680CF102
:1036F000040CCCF80060594E30363668DFF860C1F3
:103700000CF1400CCCF80060544E343636680CF1A5
:10371000040CCCF80060514E383636680CF1040CBD
:10372000CCF800604D4E3C3636680CF1040CCCF8F9
:1037300000604A4E4036366800E003E00CF1040CAD
:10374000CCF80060461C05D084461646BCF1060F36
:1037500004D011E003F0FF0C0E46F7E7032E05D06E
:10376000042E03D0052E01D0062E05D1D4F85842E0
:103770003C4E04F04F043460441C04D00346114610
:10378000062B02D010E0DBB2FAE7032905D00429AA
:1037900003D0052901D0062906D133490B68DB0780
:1037A00002D06FF001030B6006280CD1032A0AD067
:1037B000042A08D0052A06D0062A04D12B4801681D
:1037C00041F48061016023487438016841F470015C
:1037D0000160BFF34F8FBFF36F8F4FF01021D1F80F
:1037E0000002002803DBD1F80402002822DA204A74
:1037F000176020480368002BFCD01523C1F8003265
:103800000468002CFCD0C1F8043201680029FCD007
:10381000156001680029FCD0BFF34F8F0D48F038C8
:103820000168154A01F4E06111430160BFF34F8F55
:1038300000BFFDE7124911480860F0BDE00F00F03D
:10384000E80F00F0403501400DF0ADBA00C0074070
:103850003C050040FCED00E0105600400404001060
:1038600020C50040E40E0040000400403C1700402A
:1038700004E5014000E401400400FA050090D00393
:10388000D400002001480068004700003C000020F0
:1038900010B5124C02202061606111A0A06104F1FA
:1038A0007800E0614FF4006020620020A062606256
:1038B0000BA1A164E06204F67801E1641021A06527
:1038C000C4E91410E06509A1E01DFDF7D1FB08A1D2
:1038D0002046FDF7CDFB2020A07110BDC4090020BB
:1038E0005465726D696E616C0000000052545400A2
:1038F00053454747455200000269C1688A4203D8D0
:103900008068401A104400E0501A401E70472DE9AC
:10391000F047C4681746894606464FF000083069EC
:10392000A04201D9051B02E0B168201A0D1AB06847
:103930006D1E001BA84200D80546BD4200D33D467F
:1039400070682A4620444946FDF758FBB0687F1B43
:103950002C44A844A944A04200D10024F460002FC4
:10396000DDD14046BDE8F0872DE9F04104468846A8
:10397000D4E90207C51BE168606816460844B542F1
:1039800006D94146FDF73AFBB819E060BDE8F08181
:103990002A464146FDF732FB761B08EB050132460D
:1039A0006068FDF72BFBE660F0E702E008C8121F35
:1039B00008C1002AFAD170477047002001E001C118
:1039C000121F002AFBD1704772B602F059FC00BFEB
:1039D00002F060FA0028FBD111481249401AC408CD
:1039E000012000EB044010A102F0C2FB1148006866
:1039F000C00700D000BE022000EB04400EA102F080
:103A0000B7FBBFF34F8F0B48E43801680E4A01F44F
:103A1000E06111430160BFF34F8F00BFFDE700007D
:103A200030A2000000A20000466174616C20657243
:103A3000726F7200F0ED00E053797374656D20725F
:103A400065736574000000000400FA050EB50021DE
:103A50000091CDE901106A4644F20100FFF7B4FF7E
:103A60000EBD00F003B800F009B8000072B60248BD
:103A70000168491C016070474C0000200349086838
:103A8000401E086000D162B6704700004C00002064
:103A90002DE9F041064608680C46411C4FF0A0474E
:103AA0004FF0010506D005FA00F1C7F808152068A7
:103AB00002F0DCF86068411C02D0002102F0C4F87A
:103AC0003168A069C1F82405607D227D316810430A
:103AD000C1F86C05D4E900123068C0F81425C0F8AC
:103AE0000C15207D012815D1A068411C02D00021B1
:103AF00002F0AAF8E068411C05D08540C7F80855D7
:103B0000E06802F0B3F8D4E902123068C0F8082582
:103B1000C0F81015BDE8F0812DE9F04106460868AF
:103B20000C46411C4FF0A0474FF0010506D005FAA6
:103B300000F1C7F80815206802F0A2F86068411C7F
:103B400002D0002102F089F83168A069C1F824058B
:103B5000607D217D32680843C2F86C05D4E900120B
:103B60003068C0F80C15C0F81425207D012815D147
:103B7000A068411C02D0002102F06FF8E068411CEF
:103B800005D08540C7F80855E06802F079F8D4E917
:103B900002123068C0F80825C0F81015BDE8F081A1
:103BA0002DE9F04FADF53F7D14460E468346B2F544
:103BB000C07F05D96FF037000DF53F7DBDE8F08F70
:103BC0004FF4D0716846FDF741FA68A800F02DFC6B
:103BD000200E8DF81000200C8DF81100200A8DF8B1
:103BE000120020208DF8170006AD8DF813402246F4
:103BF00031462846FDF702FA8020285504F11908BD
:103C00000020BAA90854401C1028FBDB802268A8B9
:103C100000F010FC070051D10025AA466E46CDF8F1
:103C2000B8A2CDF8BCA2CDF8C0A244460DF52E79BD
:103C3000CDF8C4A217E000204946335C0A5C5A4024
:103C40000A54401C1028F8DB1036102C01D3102029
:103C500000E02046241AAEAB1A46012168A800F005
:103C6000D1FB07002AD1002CE5D1B2A828441022AC
:103C7000AEA9FDF7C3F99DF803001035401C8DF87F
:103C80000300202DCADB8022B2A968A800F0D2FB75
:103C9000070013D1B6AE5C46002533461A46012113
:103CA00068A800F0AFFB070008D11022314620467B
:103CB000FDF7A4F910341035202DEEDB68A800F0D4
:103CC000ADFB4FF4D071684601F02AFA2021B2A86A
:103CD00001F026FA1021BAA801F022FA1021AEA8AC
:103CE00001F01EFA1FB12021584601F019FA38469A
:103CF00062E700002DE9F0470546861C91460F4615
:103D00004FF0010A0020FFF7ACFE1B4C04F21C48E8
:103D100060683860D4E90101184F401A3968081A00
:103D20000EE00121404601F063FA00F00FFA01466F
:103D3000404601F05DFAD4E90101401A3968081AD9
:103D4000401C8642EDD8B9F1000F03D0052065F381
:103D5000891002E0062065F39F5061683A681140BF
:103D600004EB8101C8606068304460600020FFF7A8
:103D70007AFE5046BDE8F087A40500207C000020B4
:103D800070B50D4604460A2902D10D21FFF7F8FF50
:103D9000A0682268411CA1601554D4E90101814248
:103DA00004D32046BDE8704001F01FBE70BD000086
:103DB000044881684068814201D101207047002099
:103DC00070470000A405002002681368526831B1F2
:103DD0009A4202D38068801A07E0981A70479A4284
:103DE00001D3D01A70478068C01A401C70472DE973
:103DF000F04389B0884604466E4620213046FDF7E0
:103E000025F9002504F120091020211811F8012DB1
:103E1000521C12F0FF020A7002D1401E0028F4DC8E
:103E2000334622460121484600F0ECFA070017D13C
:103E300010351036202DE7DB694618F800200B5CA2
:103E400053400B54401C2028F7DB8022484600F0EA
:103E5000F1FA070004D104AD95E80F0084E80F00E3
:103E60002021684601F05CF909B03846BDE8F083CE
:103E700010B50021024801F0C6F980F3100010BD12
:103E8000C009002010B50846114601F01CFD0020B5
:103E900010BD00002DE9F0410D460600174609D07F
:103EA0005DB1144C14496068884209D048F2025050
:103EB000BDE8F08148F21350FAE748F21450F7E7F2
:103EC00013462A463146206801F02AFCA0F5054138
:103ED0007139EDD100221146104601F083FC002813
:103EE000E6D13B462A4631462068BDE8F04101F064
:103EF00017BC0000200000206572E54B2DE9F0475B
:103F00000024884607461E461546FF212046DDF858
:103F100020A005E02A5C0AB1295C03E0401C0834BB
:103F2000B042F7D3002049000A0A03D1401C641CA8
:103F30000828F8D3BFB3BEB3B8F1000148F210505F
:103F40002FD0002D2DD03246284600F0EDF860B37A
:103F5000DFF86C90534632463946D9F8000001F03C
:103F6000DFFB00281DD1E1083846FDF76FF8600738
:103F700008D007EBD40004F007030178FF22DA40F1
:103F80001140017041463246384600F0CDF8002815
:103F9000E0D032463946284600F0C6F80028D9D08D
:103FA0000020BDE8F08701E003E005E048F213508F
:103FB000F7E748F21450F4E748F21750F1E7000031
:103FC000200000202DE9FC5F0E008346DDE90C4750
:103FD000C6F1000098469246814600D40846012565
:103FE00003E000BF90FBFAF06D1C5045FADAA845DB
:103FF00000D9454624B1002E01DB780700D5641EA8
:10400000B80702D5B8F1000F0AD0F80708D13CB1C3
:10401000A54205D220215846641EFFF7B1FEF6E7FF
:10402000002E02DA4E462D2102E0780703D52B211F
:104030005846FFF7A5FE07F0030002280BD1B8F1A0
:10404000000F08D13CB1A54205D230215846641E6C
:10405000FFF796FEF6E7CDE9004743465246314664
:10406000584603F0DBF8BDE8FC9F000070B50D4634
:10407000044600684FF4887102F0A6FA4FF490717C
:10408000206802F0A1FA4FF49271206802F09CFAC5
:104090004FF4A271206802F097FA4FF4AC712068D7
:1040A00002F092FA20681249C0F8041320686907E8
:1040B00040F30730090E002804DB00F1E02080F80F
:1040C000001405E000F00F0000F1E02080F8141D5E
:1040D000206840F30730002809DB00F01F020121AF
:1040E00091404009800000F1E020C0F8001170BD4F
:1040F00010034200024600201268530713D502F055
:104100000300012802D002280CD105E0C2F383107D
:104110000B68801C184404E00223086803EB9252E9
:10412000104408600120704730B500230AE0C45CE9
:10413000CD5CAC4205D02006B0EB056F04D8002062
:1041400030BD5B1C9342F2D3012030BD2DE9FF410D
:104150000026244801F049F82248001F074601F0D4
:1041600044F8214C2149A06800900D6800E00098B7
:104170006946284004EB80000C30FFF7BBFF0028A5
:10418000F5D101AA009901EA050304EB8303491C58
:10419000DB6842F82030401C00910228F2D30198DD
:1041A00000F0030001280BD0022810D10198032150
:1041B00001EB90500099BDF80A6001EB900005E01A
:1041C0000198BDF80A60C0F3831008440090384697
:1041D00001F008F808B10098A06004B03046BDE8CE
:1041E000F0810000BC090020A40500207C00002014
:1041F00088B040262020CDE90360002105900846C4
:1042000002F012F808B1FFF721FC01F029FE444842
:104210004449401AC508032000EB0540044642A16A
:1042200001F0A6FF01F0F0F908B1FFF70FFC2046FE
:1042300043A101F09DFF20461122444901F044FFB3
:10424000434B4248A3F1480242490C3801F0F8F8C8
:1042500008B1FFF7FBFB3E4904AA4831A1F19000E9
:1042600001F032F908B1FFF7F1FB20463AA101F065
:104270007FFF0498364982B22046483101F024FF7E
:10428000334905AA6831324801F040F908B1FFF717
:10429000DDFB204634A101F06BFF05982C4982B26A
:1042A0002046683101F010FF294F03A88837CDE977
:1042B0000070264A1123A7F1D001A2F1080001F0F5
:1042C00047F908B1FFF7C2FB20462AA101F050FFD1
:1042D00003981F4982B22046883101F0F5FE1B4A3F
:1042E000CDE9007611231A49101F01F05FF988B15A
:1042F000A0F50541423906D0FFF7A8FB204620A1D2
:1043000001F036FFFEE7012000EB054026A101F099
:104310002FFFFEE7204630A101F02AFFEEE7000064
:1043200030A2000000A2000045644453412065789B
:10433000616D706C6520737461727465642E000029
:104340004D6573736167653A000000000C00002042
:10435000200100203C730000507269766174652072
:104360006B65793A000000005075626C6963206BE0
:1043700065793A005369676E61747572653A000039
:104380004564445341206578616D706C65206578A3
:1043900065637574656420737563636573736675AF
:1043A0006C6C792E000000005369676E6174757241
:1043B0006520697320696E76616C69642E204D6595
:1043C0007373616765206973206E6F742061757403
:1043D00068656E7469632E005369676E61747572E7
:1043E000652069732076616C69642E204D65737356
:1043F0006167652069732061757468656E746963AF
:104400002E00000030B4144601291A46214602D07D
:1044100030BC00F0D1B930BC00F028BC002803D07B
:104420004FF48C7100F07CBE70474FF48C71FCF738
:104430000DBE0000F0B5802A07D0C02A07D0B2F523
:10444000807F0BD06FF01F00F0BD0A2300E00C232B
:10445000036000F10803002443600AE00E23F7E73D
:1044600001EB8405EE782D6866F31F6543F8245050
:10447000641CB4EB521FF3D3544A0168A2F50850F0
:104480000A2904D00C292BD00E2928D156E000246B
:1044900053F80C5B52F824104D4002CBC1F30726B1
:1044A000C1F30747865DC75D86EA0726754000EBC6
:1044B0001166367885EA064550FA81F63678641C2E
:1044C00085EA06651D6053F80C6C6E405E6053F81B
:1044D000085C75406940C3E902510A2CD8D373E0E7
:1044E0005FF000041D6852F824104D405969C1F373
:1044F0000726C1F30747865DC75D86EA0726754034
:1045000000EB1166367885EA064550FA81F6367872
:10451000641C85EA06659D615E686E40DE619D688B
:1045200075401D62DE686E405E621D6975406940BF
:10453000C3E90A511833082CD4D345E05FF00005D5
:104540001C6852F825104C40D969C1F30726C1F305
:104550000747865DC75D86EA0726744000EB116653
:10456000367884EA064450FA81F6367884EA06669C
:104570001E625C6874405C629E6866409E62DC6895
:104580007440DC6250FA84F73F781E69C4F3074C2C
:104590007E40C4F3072710F80CC0C75D00EB14641D
:1045A0003F0287EA0C4724787E4086EA04641C6355
:1045B0005E696D1C66405E639C6974406140C3E93E
:1045C0000E412033072DBBD30020F0BDF095000035
:1045D00010B504000AD004F12000FFF71FFF2046A9
:1045E000BDE810404FF4A07100F09ABD10BD4FF42B
:1045F000A071FCF72BBD08B50023009300F001F873
:1046000008BD2DE9F0418CB09846129F154604462E
:104610000E46B2F5806F04D96FF035000CB0BDE8DE
:10462000F081B7F5807F02D96FF03700F6E72021DF
:104630006846FCF70BFDE1692069884201DC60698E
:1046400038B13A464146204600F04AF80028E5D104
:104650002FE077B33A4641466846FFF7A1FA0700D4
:1046600034D169462046FFF7C2FB07002ED120E077
:104670001020211811F8012D521C12F0FF020A70AF
:1046800002D1401E0028F4DC08AB2246012140463E
:10469000FFF7B8FE070019D1102D01D9102700E04F
:1046A0002F463A4608A93046FCF7A8FC3E44ED1BCD
:1046B00001E004F12008002DDAD169462046FFF719
:1046C00096FB070002D12069401C2061202168462A
:1046D00000F026FD102108A800F022FD38469DE7D5
:1046E0002DE9F041044685694FF4C070E0B01646EC
:1046F0000F46854203D8C5F5C071B14204D26FF0B0
:10470000370060B0BDE8F081804601466846FCF79E
:104710009DFCD4E94E302A466946984710B16FF0A7
:104720003300EEE7A5693FB136B10DEB0500324627
:104730003946FCF763FC354469462A460846FFF7CC
:104740002FFA050007D169462046FFF750FB050008
:1047500001D1012020614146684600F0E1FC284675
:10476000CFE72DE9FF4704460020DDF830800090B8
:1047700001900290039004F120001F4616460D465A
:104780008146FFF752FEC4E94E56A06908B92020C1
:10479000A0614FF6F070E061802269464846FFF75D
:1047A00049FE002804D1424639462046FFF798FFCB
:1047B00004B0BDE8F0870000F0B589B0436800930D
:1047C000CC780B6864F31F63009C019324685C4001
:1047D000009B01941B1D0093CC794B6864F31F630D
:1047E000009C029324685C40009B02941B1D009374
:1047F000CC7A8B6864F31F63009C039324685C404D
:10480000009B03941B1D0093CB7BC96863F31F615E
:10481000009B04911B684B4000990493091D009173
:1048200000684FF0FF3101EB6005FE4800F5806144
:1048300000F5006400F5406EE7E01E68019B039FF1
:10484000DBB2C7F3074750F8233054F827705E40B7
:10485000049BDDF810C0C3F30723CCF3074C51F8D9
:1048600023307B405E40029B1F0E73465EF827702C
:104870007E400596009E029F361D0096FFB2366868
:1048800050F8277054F82CC07E40019FC7F30727CB
:1048900051F8277087EA0C077E40039F3F0E53F8BC
:1048A00027707E400696009E039F361D0096FFB23D
:1048B000366850F82770DDF804C07E40029FCCF3C4
:1048C000074CC7F3072754F82CC051F8277087EA24
:1048D0000C077E40049F3F0E53F827707E400796DA
:1048E000009E049F361D0096FFB2366850F8277070
:1048F000DDF808C07E40039FCCF3074CC7F30727C1
:1049000054F82CC051F8277087EA0C077E40019FAD
:10491000DDF81CC03F0ECCF3074C53F827707E40E7
:104920000896009E361D0096059F3668FFB254F823
:104930002CC050F827707E40089FC7F3072751F816
:10494000277087EA0C077E40069FDDF820C03F0EE7
:10495000CCF3074C53F827707E400196009E069FCB
:10496000361D0096FFB2366850F8277054F82CC0F8
:104970007E40059FC7F3072751F8277087EA0C0789
:104980007E40079F3F0E53F827707E400296009EA0
:10499000079F361D0096FFB2366850F82770DDF885
:1049A00014C07E40069FCCF3074CC7F3072754F88A
:1049B0002CC051F8277087EA0C077E40089F3F0EF5
:1049C00053F827707E400396009E089F361D009680
:1049D0003668FFB2DDF818C050F82770CCF3074CEA
:1049E0007E40079F54F82CC0C7F3072751F8277063
:1049F00087EA0C077E40059F3F0E5EF827305E4039
:104A0000009B04961B1D6D1E0093009B002D3FF71D
:104A100014AF019D1B68EDB2039E50F82550C6F3FC
:104A200007466B40049D54F82660C5F3072551F8EE
:104A3000255075406B40029D049E2D0EC6F307461F
:104A40005EF825506B400593009B029D1B1D009353
:104A5000EDB21B6850F8255054F826606B40019D5C
:104A6000C5F3072551F8255075406B40039D2D0E69
:104A70005EF825506B400693009B039D1B1D009321
:104A8000EDB21B6850F82550019E6B40029DC6F3A5
:104A90000746C5F3072554F8266051F825507540A0
:104AA0006B40049D2D0E5EF825506B400793009BD4
:104AB000049D1B1D0093EDB21B6850F82500434078
:104AC0000398C0F3072051F820000299C1F3074171
:104AD00054F82110484043400198000E5EF8200031
:104AE000434000980893001D009001684E48059BC4
:104AF00050FA83F31B78079C5940089BC4F3074482
:104B0000C3F30723045DC35C1B0283EA04435940DB
:104B1000069B00EB13631B7881EA03610191009906
:104B2000069B091D0091096850FA83F31B78089CC5
:104B30005940059BC4F30744C3F30723045DC35CDA
:104B40001B0283EA04435940079B00EB13631B7865
:104B500081EA036102910099079B091D0091096890
:104B600050FA83F31B78059C5940069BC4F3074415
:104B7000C3F30723045DC35C1B0283EA044359406B
:104B8000089B00EB13631B7881EA03610391009992
:104B9000089B091D0091096850FA83F31B78069C55
:104BA0005940079BC4F30744C3F30723045DC35C68
:104BB0001B0283EA04435940059B00EB1360007815
:104BC00081EA006004900098001D00900198107028
:104BD0000198000A50700198000C90700198000E26
:104BE000D07002981071010A5171010C9171000E80
:104BF000D07103981072010A5172010C9172000E6B
:104C0000D07204981073010A5173010C9173000E55
:104C1000D073042101A800F083FA042102A800F057
:104C20007FFA03E0F0850000F0840000042103A86F
:104C300000F076FA042104A800F072FA042105A815
:104C400000F06EFA042106A800F06AFA042107A811
:104C500000F066FA042108A800F062FA0421684610
:104C600000F05EFA09B00020F0BD0000F0B589B098
:104C700043680093CC780B6864F31F63009C019336
:104C800024685C40009B01941B1D0093CC794B6809
:104C900064F31F63009C029324685C40009B0294B1
:104CA0001B1D0093CC7A8B6864F31F63009C0393F5
:104CB00024685C40009B03941B1D0093CB7BC96858
:104CC00063F31F61009B04911B684B4000990493A0
:104CD000091D009100684FF0FF3101EB6005FE48AF
:104CE00000F5806100F5006400F5406EE7E01E68A5
:104CF000019B039FDBB2C7F3074750F8233054F8FA
:104D000027705E40029BDDF810C0C3F30723CCF38D
:104D1000074C51F823307B405E40049B1F0E7346C6
:104D20005EF827707E400596009E029F361D009615
:104D3000FFB2366850F8277054F82CC07E40039FAD
:104D4000C7F3072751F8277087EA0C077E40019FB9
:104D50003F0E53F827707E400696009E039F361D37
:104D60000096FFB2366850F82770DDF804C07E4028
:104D7000049FCCF3074CC7F3072754F82CC051F815
:104D8000277087EA0C077E40029F3F0E53F827707A
:104D90007E400796009E049F361D0096FFB236683F
:104DA00050F82770DDF808C07E40019FCCF3074C17
:104DB000C7F3072754F82CC051F8277087EA0C076F
:104DC0007E40039FDDF81CC03F0ECCF3074C53F828
:104DD00027707E400896009E361D0096059F366817
:104DE000FFB254F82CC050F827707E40069FC7F3DE
:104DF000072751F8277087EA0C077E40089FDDF8E7
:104E000020C03F0ECCF3074C53F827707E4001962C
:104E1000009E069F361D0096FFB2366850F8277038
:104E200054F82CC07E40079FC7F3072751F827701E
:104E300087EA0C077E40059F3F0E53F827707E409F
:104E40000296009E079F361D0096FFB2366850F806
:104E50002770DDF814C07E40089FCCF3074CC7F3E1
:104E6000072754F82CC051F8277087EA0C077E40BA
:104E7000069F3F0E53F827707E400396009E089FC2
:104E8000361D00963668FFB2DDF818C050F827705E
:104E9000CCF3074C7E40059F54F82CC0C7F307277E
:104EA00051F8277087EA0C077E40079F3F0E5EF897
:104EB00027305E40009B04961B1D6D1E0093009BD7
:104EC000002D3FF714AF019D1B68EDB2039E50F813
:104ED0002550C6F307466B40029D54F82660C5F383
:104EE000072551F8255075406B40049D049E2D0EFA
:104EF000C6F307465EF825506B400593009B029D64
:104F00001B1D0093EDB21B6850F8255054F8266025
:104F10006B40039DC5F3072551F8255075406B4044
:104F2000019D2D0E5EF825506B400693009B039D5E
:104F30001B1D0093EDB21B6850F82550019E6B407D
:104F4000049DC6F30746C5F3072554F8266051F8BB
:104F5000255075406B40029D2D0E5EF825506B402C
:104F60000793009B049D1B1D0093EDB21B6850F836
:104F7000250043400198C0F3072051F82000029912
:104F8000C1F3074154F82110484043400398000EF4
:104F90005EF82000434000980893001D00900168CF
:104FA0004E48059B50FA83F31B78079C5940069B9B
:104FB000C4F30744C3F30723045DC35C1B0283EA05
:104FC00004435940089B00EB13631B7881EA03619B
:104FD00001910099069B091D0091096850FA83F31D
:104FE0001B78089C5940079BC4F30744C3F307236D
:104FF000045DC35C1B0283EA04435940059B00EB3C
:1050000013631B7881EA036102910099079B091DD4
:105010000091096850FA83F31B78059C5940089B5E
:10502000C4F30744C3F30723045DC35C1B0283EA94
:1050300004435940069B00EB13631B7881EA03612C
:1050400003910099089B091D0091096850FA83F3A8
:105050001B78069C5940059BC4F30744C3F3072300
:10506000045DC35C1B0283EA04435940079B00EBC9
:105070001360007881EA006004900098001D0090A1
:10508000019810700198000A50700198000C9070FF
:105090000198000ED07002981071010A5171010C34
:1050A0009171000ED07103981072010A5172010CB7
:1050B0009172000ED07204981073010A5173010CA2
:1050C0009173000ED073042101A800F029F8042187
:1050D00002A800F025F803E0F0740000F07300006F
:1050E000042103A800F01CF8042104A800F018F81B
:1050F000042105A800F014F8042106A800F010F817
:10510000042107A800F00CF8042108A800F008F812
:105110000421684600F004F809B00020F0BD00004A
:10512000002904D0024B0A4600211B68184770472B
:10513000D00000202DE9F047C5881E1DB6FBF5F70D
:105140008946B6FBF5F1044605FB176C40791668F5
:105150006843DDF820A0F718001F874200D9C61A5F
:10516000166001E02468491E0029FBD1A5EB0C075D
:105170008846B74216D818E004EB0C00001D09EB76
:105180000803BAF1000F3A4602D00146184600E083
:105190001946FBF733FF2468F61B4FF0000CB844A8
:1051A000B54201D9374600E02F46002EE4D1BDE8D4
:1051B000F087000030B5024651B101F049F80021F6
:1051C000074C08E034F821301568AB4202D1116079
:1051D000002030BD491C8142F4D3052030BD0000C1
:1051E00000000000002100F009B8012100F010B813
:1051F00008B56A46FBF741F8009808BD08B56A464D
:10520000FBF721F808BD08B56A46FBF703F808BDAF
:1052100008B56A46FBF70AF8009808BD08B56A4663
:10522000FBF738F8009808BD70B5044600252846FD
:10523000FEF717FC21686268086890420ED9401E8C
:1052400008600178238AE26801FB0325227A21683D
:10525000101AC0B20A79824200D208710020FEF70B
:1052600002FC284670BD70B505460C460020FEF7CE
:10527000F8FBE868298A201AB0FBF1F12A68106867
:10528000431C13600170BDE870400020FEF7EBBBCB
:1052900010B530B1017A42680368891AC9B21A6040
:1052A00006E00E2010BD03681A68541C1C601170C3
:1052B000491EC9B2F7D2006800210171084610BD2D
:1052C00070B50C4604F1080015462021064601F091
:1052D00075FC002810D114F8080F314600F0F800D2
:1052E0002070E07F00F07F0040F04000E07705F1A3
:1052F0000800FCF7D9F9002070BD10B502F10800D4
:105300000831FCF7D1F9002010BD70B50C4604F14E
:10531000080015462021064601F050FC00280CD15B
:1053200004F1280031460446FCF79EFA202221466B
:1053300005F10800FBF762FE002070BD70B5044661
:10534000083020220546FBF759FE294604F12800C3
:10535000FCF78AFA002070BD104610B520220830F4
:105360002831FBF74BFE002010BD38B515461C4612
:1053700001F1280201F1080300920498224629460F
:10538000FCF796FA002038BD70B51C46154601F1B1
:105390000803224629460498FCF7CEFA002801D0DB
:1053A00048F2425070BD0000024A2023A2F12001C1
:1053B00000F083BA6873000010B542680830936843
:1053C00052799847002010BD10B50C4641684A79C3
:1053D0008B6800F1080120469847002010BD10B5E9
:1053E00042680830936892799847002010BD10B544
:1053F0000C4641688A798B6800F10801204698477D
:10540000002010BD70B501F1080014460546FFF7F5
:10541000CBFF002808D1294604F10800FCF710FA58
:10542000002801D048F2165070BD10B502F10800F6
:105430000831FCF705FA002801D048F2165010BDDB
:105440002DE9F041884606466C4617461D46114632
:10545000404600F005F90028A54616D129464046E9
:1054600000F0FEF80028A5460FD198F80400144972
:1054700051F820C00C39BCF1000F31F8100001D0F8
:105480002EB10CE0A54648F20350BDE8F08130B1E2
:10549000C01D20F00700ADEB000D6E4666B11A4648
:1054A00039463046E04708B1A546EEE70549396080
:1054B000891FA5462960E8E748F21550A546E4E7AC
:1054C000DC7200007652464D70B50D461446034618
:1054D0000C4900F0B9F8002813D15E68214628462F
:1054E000727900F0D5F800280BD13079064951F8CF
:1054F000202022B12946BDE870401846104748F2E6
:10550000035070BD7652464D0073000070B50D46D5
:10551000144603460C4900F097F8002813D15E6842
:1055200021462846B27900F0B3F800280BD1307933
:10553000064951F8202022B12946BDE8704018469E
:10554000104748F2035070BD7052464D187300006A
:105550002DE9F84F6C468246D4E90A691F0090464F
:105560000D46084602D0B8F1000F18D00E4900F0E1
:105570006BF80028A54610D140224946304600F07D
:1055800087F80028A54608D182B03B464246294606
:1055900050460096FFF7E9FEA546BDE8F88F48F2B1
:1055A0001050A546F9E700007652464D2DE9F84F18
:1055B0006C468246D4E90A691F0090460D460846AB
:1055C00002D0B8F1000F18D00E4900F03DF80028C5
:1055D000A54610D140224946304600F04EF800283A
:1055E000A54608D182B03B46424629465046009621
:1055F000FFF7CAFEA546BDE8F88F48F21050A54651
:10560000F9E700007052464D2DE9F0410B480C4D72
:105610000C4F401BC60801203870002406E000BF74
:1056200055F834008047002805D1641CB442F7D3F4
:10563000022038700020BDE8F0810000E0A10000E9
:10564000D8A100001E00002028B10068884205D0C3
:1056500048F24050704748F21050704700207047A1
:1056600028B139B10022C1E900201046704748F244
:105670001050704748F21350704720B1914205D046
:1056800048F21150704748F21050704700207047A0
:1056900030B149B10868904205D248F214507047C1
:1056A00048F2135070470A6000207047054801789F
:1056B000022904D00078012801D000207047012081
:1056C000704700001E00002038B5041D002000F0C7
:1056D0000FF900280ED12046FEF789FF002003466F
:1056E0000246009004492046FFF73BF8BDE83840E9
:1056F00001F01ABB38BD0000853E000010B5114610
:105700001A46001DFEF7ECFFBDE8104001F00CBB8F
:1057100010B5001DFEF75CFF00F016F9002010BD6B
:1057200010B5001DFEF767FFBDE8104001F0FCBAA0
:105730002DE9F0416C460D46074600F025FF70B19B
:105740001B481C49401AC008012101EB00401AA166
:1057500000F00EFDA54648F21950BDE8F081FFF7B4
:10576000A5FF48B11B4A1C4E106848B15068B042B2
:1057700006D10020A546F0E74FF40540A546ECE72A
:1057800048F21750002FA546E7D1002DA546E4D1D9
:1057900010491248083115461060FFF795FF0028A0
:1057A000A546DAD16E602A680D491160A546D4E796
:1057B00030A2000000A20000537461636B206F767A
:1057C0006572666C6F772064657465637465642EBA
:1057D00000000000200000206572E54BE801002079
:1057E0006169614D2DE9F0416C4615460E4607464C
:1057F00000F0CAFE70B116481649401AC0080121CF
:1058000001EB004014A100F0B3FCA54648F219508A
:10581000BDE8F08105B146B11648174A416891428A
:1058200007D048F20250A546F2E748F21050A546CC
:10583000EEE71FB148F21750A546E9E70D492B46A0
:10584000083132460068FFF759FFA546E0E700003F
:1058500030A2000000A20000537461636B206F76D9
:105860006572666C6F772064657465637465642E19
:1058700000000000200000206572E54B0A4930B4AA
:105880000A4B486848F20252984204D10868084C12
:105890000368A34202D030BC104670470022026069
:1058A0004A6030BCFFF734BF200000206572E54B32
:1058B0006169614D0122FEF7EDBA38B5012400940B
:1058C000FEF71CFB38BD70B50C4606460CE0402CBC
:1058D00001D2254600E04025E9B2304600F026F826
:1058E0000028F9D1641B2E44002CF0D170BD0000BB
:1058F00070B50B4C217809B1852070BD00B90948FD
:1059000009490088A4F80100601C00F09DFE050014
:10591000F3D100F0C5FE01202070284670BD0000C4
:105920002C00002088730000296600000A4610B58C
:105930000146044800F0EDFD044600F0B1FE2046AB
:1059400010BD00004CA2000010B500F0B9FE00F040
:10595000C1FE034800F0FAFD02490020087010BDA6
:105960004CA200002C000020F0B505460478154834
:1059700089B0164640F82420124A0869121DA2F187
:10598000080742F82400487F385520226846FBF774
:1059900035FB04942878385C48B10EB10A4A00E01F
:1059A00000226946281D00F0EBFF09B0F0BD0EB1E2
:1059B000064A00E00022694605F10C0000F0AAFE4C
:1059C000F3E7000034000020D9700000216F0000D0
:1059D0000FB408B50399002904D004AA00926A46BE
:1059E00000F00FF801B05DF814FB10B582680446B2
:1059F000002A05D0D4E90403216898470020A0605C
:105A000010BD2DE9FC4791460C00804676D014F875
:105A1000011B39B125290ED04046FEF7B1F9207897
:105A20000028F4D198F80C00002867D04046BDE863
:105A3000FC47FFF7DABF0020012221782B291BD079
:105A40002D2902D0302908D102E040F0010001E008
:105A500040F00200641C002AEFD100252A290ED054
:105A60002178A1F130020A2A11D205EB850201EB5F
:105A70004205641C303DF1E740F00400EAE7D9F844
:105A800000100B1DC9F800300968641C0D44217812
:105A900000232E290BD114F8011FA1F130020A2A8C
:105AA00005D203EB830201EB4203303BF3E76C29A1
:105AB0000DD068290BD0692921D00BDC252918D0FD
:105AC000582931D063290ED0642915D117E014F874
:105AD000011FECE7702969D0732932D075291BD0DA
