:020000040000FA
:1000000000040020810A000015070000610A0000BA
:100010001F07000029070000330700000000000050
:10002000000000000000000000000000A50A000021
:100030003D070000000000004707000051070000D6
:100040005B070000650700006F07000079070000EC
:10005000830700008D07000097070000A10700003C
:10006000AB070000B5070000BF070000C90700008C
:10007000D3070000DD070000E7070000F1070000DC
:10008000FB070000050800000F0800001908000029
:10009000230800002D080000370800004108000078
:1000A0004B080000550800005F08000069080000C8
:1000B000730800007D080000870800009108000018
:1000C0009B080000A5080000AF080000B908000068
:1000D000C3080000CD080000D7080000E1080000B8
:1000E000EB080000F5080000FF0800000909000007
:1000F000130900001D090000270900003109000054
:100100003B0900001FB500F003F88DE80F001FBD8C
:1001100000F0ACBC40F6FC7108684FF01022401CA7
:1001200008D00868401C09D00868401C04D0086842
:1001300000F037BA9069F5E79069F9E7704770B554
:100140000B46010B184400F6FF70040B4FF0805073
:100150000022090303692403406943431D1B104621
:1001600000F048FA29462046BDE8704000F042BA47
:10017000F0B54FF6FF734FF4B4751A466E1E11E0DA
:10018000A94201D3344600E00C46091B30F8027B3B
:10019000641E3B441A44F9D19CB204EB134394B25D
:1001A00004EB12420029EBD198B200EB134002EBB2
:1001B000124140EA0140F0BDF34992B00446D1E952
:1001C0000001CDE91001FF224021684600F0F4FB58
:1001D00094E80F008DE80F00684610A902E004C8FB
:1001E00041F8042D8842FAD110216846FFF7C0FF7C
:1001F0001090AA208DF8440000F099F9FFF78AFFCB
:1002000040F6FC7420684FF01025401C0FD0206889
:1002100010226946803000F078F92068401C08D030
:100220002068082210A900F070F900F061F9A869AF
:10023000EEE7A869F5E74FF080500369406940F6A2
:10024000FC71434308684FF01022401C06D0086838
:1002500000F58050834203D2092070479069F7E788
:100260000868401C04D00868401C03D00020704778
:100270009069F9E70420704770B504460068C34DE3
:10028000072876D2DFE800F033041929631E250021
:10029000D4E9026564682946304600F062F92A46CE
:1002A0002146304600F031F9AA002146304600F0E0
:1002B00057FB002800D0032070BD00F009FC4FF46C
:1002C000805007E0201D00F040F90028F4D100F034
:1002D000FFFB60682860002070BD241D94E80700C3
:1002E000920000F03DFB0028F6D00E2070BDFFF715
:1002F000A2FF0028FAD1D4E901034FF0805100EBAE
:10030000830208694D69684382420ED840F6F8704E
:1003100005684FF010226D1C09D0056805EB8305B8
:100320000B6949694B439D4203D9092070BD55694A
:10033000F4E70168491C03D00068401C02D003E0C8
:100340005069FAE70F2070BD2046FFF735FFFFF731
:1003500072FF0028F7D1201D00F0F7F80028F2D135
:1003600060680028F0D100F0E2F8FFF7D3FE00F05B
:10037000BFF8072070BD10B50C46182802D0012028
:10038000086010BD2068FFF777FF206010BD41684E
:10039000054609B1012700E0002740F6F8742068FF
:1003A0004FF01026401C2BD02068AA68920000F065
:1003B000D7FA38B3A86881002068401C27D020688D
:1003C000FFF7BDFED7B12068401C22D026684FF051
:1003D0008050AC686D68016942695143A9420DD9EA
:1003E000016940694143A14208D92146304600F0E5
:1003F000B8F822462946304600F087F800F078F831
:100400007069D2E700F093F8FFF784FEF6E77069B1
:10041000D6E77669DBE740F6FC7420684FF01026DB
:10042000401C23D02068401C0CD02068401C1FD0EA
:100430002568206805F18005401C1BD027683879A5
:10044000AA2819D040F6F8700168491C42D001680A
:10045000491C45D00168491C3ED001680968491C07
:100460003ED00168491C39D000683EE0B069DAE747
:10047000B569DEE7B769E2E710212846FFF778FEA5
:100480003968814222D12068401C05D0D4F8001080
:1004900001F18002C03107E0B169F9E730B108CA63
:1004A00051F8040D984201D1012000E000208A4259
:1004B000F4D158B1286810B1042803D0FEE72846CB
:1004C000FFF765FF3149686808600EE0FFF722FE1C
:1004D00000F00EF87169BBE77169BFE7706904E06D
:1004E0004FF480500168491C01D000F0CBFAFEE7C0
:1004F000BFF34F8F26480168264A01F4E06111439B
:100500000160BFF34F8F00BFFDE72DE9F0411746B3
:100510000D460646002406E03046296800F054F8EF
:10052000641C2D1D361DBC42F6D3BDE8F08140F69B
:10053000FC700168491C04D0D0F800004FF48051D1
:10054000FDE54FF010208069F8E74FF080510A690F
:10055000496900684A43824201D810207047002050
:10056000704770B50C4605464FF4806608E0284693
:1005700000F017F8B44205D3A4F5806405F5805562
:10058000002CF4D170BD0000F40A0000000000202F
:100590000CED00E00400FA05144801680029FCD0C5
:1005A0007047134A0221116010490B68002BFCD0E0
:1005B0000F4B1B1D186008680028FCD0002010603D
:1005C00008680028FCD07047094B10B501221A605A
:1005D000064A1468002CFCD0016010680028FCD08A
:1005E0000020186010680028FCD010BD00E4014015
:1005F00004E5014070B50C46054600F073F810B9EB
:1006000000F07EF828B121462846BDE8704000F091
:1006100007B821462846BDE8704000F037B8000012
:100620007FB5002200920192029203920A0B000B06
:100630006946012302440AE0440900F01F0651F80C
:10064000245003FA06F6354341F82450401C8242F8
:10065000F2D80D490868009A10430860081D016827
:10066000019A1143016000F03DF800280AD00649C4
:1006700010310868029A10430860091D0868039A3F
:10068000104308607FBD00000006004030B50F4CED
:10069000002200BF04EB0213D3F800582DB9D3F8A1
:1006A000045815B9D3F808581DB1521C082AF1D3C3
:1006B00030BD082AFCD204EB0212C2F80008C3F8CD
:1006C00004180220C3F8080830BD000000E0014013
:1006D0004FF08050D0F83001082801D0002070473A
:1006E000012070474FF08050D0F83011062905D016
:1006F000D0F83001401C01D0002070470120704725
:100700004FF08050D0F830010A2801D00020704707
:100710000120704708208F490968095808471020B0
:100720008C4909680958084714208A4909680958FA
:100730000847182087490968095808473020854923
:100740000968095808473820824909680958084744
:100750003C20804909680958084740207D490968BC
:100760000958084744207B49096809580847482028
:1007700078490968095808474C207649096809589A
:10078000084750207349096809580847542071499F
:1007900009680958084758206E49096809580847E8
:1007A0005C206C4909680958084760206949096854
:1007B00009580847642067490968095808476820AC
:1007C00064490968095808476C2062490968095852
:1007D000084770205F4909680958084774205D4937
:1007E00009680958084778205A490968095808478C
:1007F0007C205849096809580847802055490968EC
:10080000095808478420534909680958084788202F
:1008100050490968095808478C204E490968095809
:10082000084790204B4909680958084794204949CE
:10083000096809580847982046490968095808472F
:100840009C204449096809580847A0204149096883
:1008500009580847A4203F49096809580847A820B3
:100860003C49096809580847AC203A4909680958C1
:100870000847B0203749096809580847B420354966
:10088000096809580847B8203249096809580847D3
:10089000BC203049096809580847C0202D4909681B
:1008A00009580847C4202B49096809580847C82037
:1008B0002849096809580847CC2026490968095879
:1008C0000847D0202349096809580847D4202149FE
:1008D000096809580847D8201E4909680958084777
:1008E000DC201C49096809580847E02019490968B3
:1008F00009580847E4201749096809580847E820BB
:100900001449096809580847EC2012490968095830
:100910000847F0200F49096809580847F4200D4995
:10092000096809580847F8200A490968095808471A
:10093000FC2008490968095808475FF48070054998
:10094000096809580847000003480449024A034B54
:100950007047000000000020000B0000000B0000AA
:1009600040EA010310B59B070FD1042A0DD310C82C
:1009700008C9121F9C42F8D020BA19BA884201D97E
:10098000012010BD4FF0FF3010BD1AB1D30703D0C6
:10099000521C07E0002010BD10F8013B11F8014B7C
:1009A0001B1B07D110F8013B11F8014B1B1B01D198
:1009B000921EF1D1184610BD02F0FF0343EA032254
:1009C00042EA024200F005B87047704770474FF0A6
:1009D00000020429C0F0128010F0030C00F01B800C
:1009E000CCF1040CBCF1020F18BF00F8012BA8BF1A
:1009F00020F8022BA1EB0C0100F00DB85FEAC17CDE
:100A000024BF00F8012B00F8012B48BF00F8012B90
:100A100070474FF0000200B51346944696462039C1
:100A200022BFA0E80C50A0E80C50B1F12001BFF4A7
:100A3000F7AF090728BFA0E80C5048BF0CC05DF80D
:100A400004EB890028BF40F8042B08BF704748BF5B
:100A500020F8022B11F0804F18BF00F8012B7047CF
:100A6000014B1B68DB6818470000002009480A4951
:100A70007047FFF7FBFFFFF745FB00BD20BFFDE719
:100A8000064B1847064A1060016881F308884068E1
:100A900000470000000B0000000B000017040000DE
:100AA000000000201EF0040F0CBFEFF30881EFF3ED
:100AB0000981886902380078182803D100E0000015
:100AC000074A1047074A12682C3212681047000084
:100AD00000B5054B1B68054A9B58984700BD0000B0
:100AE0007703000000000020F00A0000040000006E
:100AF000001000000000000000FFFFFF0090D00386
:02000004000EEC
:1000000030D40020A5040E00AD040E00AF040E0095
:10001000B1040E00B3040E00B5040E000000000091
:10002000000000000000000000000000B7040E0007
:10003000B9040E0000000000BB040E00BD040E0059
:100040003D1B0E00BF040E00BF040E00BF040E00D7
:10005000BF040E00BF040E00BF040E00BF040E005C
:10006000BF040E00BF040E00BF040E00BF040E004C
:10007000BF040E00BF040E00BF040E00BF040E003C
:10008000211F0E004D1B0E00BF040E00BF040E000A
:10009000BF040E00BF040E00BF040E00BF040E001C
:1000A000BF040E00BF040E00BF040E00BF040E000C
:1000B000BF040E00BF040E0000000000000000009E
:1000C000BF040E00BF040E00BF040E00BF040E00EC
:1000D0005D1B0E00BF040E00BF040E00A91E0E0023
:1000E000BF040E00BF040E0091060E0000000000C9
:1000F00000000000BF040E0000000000BF040E005E
:1001000000000000000000000000000000000000EF
:1001100000000000000000000000000000000000DF
:1001200000000000000000000000000000000000CF
:1001300000000000000000000000000000000000BF
:1001400000000000000000000000000000000000AF
:10015000000000000000000000000000000000009F
:10016000000000000000000000000000000000008F
:10017000000000000000000000000000000000007F
:10018000000000000000000000000000000000006F
:10019000000000000000000000000000000000005F
:1001A000000000000000000000000000000000004F
:1001B000000000000000000000000000000000003F
:1001C000000000000000000000000000000000002F
:1001D000000000000000000000000000000000001F
:1001E000000000000000000000000000000000000F
:1001F00000000000000000000000000000000000FF
:10020000DFF80CD000F0F6F90048004799680E00BE
:1002100030D4002030B4044654E8000F0D4644E8C2
:100220000053002BF8D1156030BC704730B4044641
:1002300054E8000F40EA010544E80053002BF7D1D1
:10024000156030BC704730B4044654E8000F00EA33
:10025000010544E80053002BF7D1156030BC70470E
:1002600030B4044654E8000F80EA010544E8005326
:10027000002BF7D1156030BC704730B4044654E809
:10028000000F00EB010544E80053002BF7D1156087
:1002900030BC704730B4044654E8000FA0EB0105B1
:1002A00044E80053002BF7D1156030BC704770B4A0
:1002B00004464FF0000054E8006F0D68AE4207BFDF
:1002C00044E80023012044E800630E60002B1CBFBB
:1002D0000020F0E770BC704730B4044654E8000FCB
:1002E00088422CBF451A054644E80053002BF5D13F
:1002F000156030BC7047000030B450E8012F93B255
:10030000C48923448489A34228BF1B1B0489A342B8
:1003100002BFBFF32F8F002007E0C3EA020340E8CB
:100320000134002CE9D14FF001000A6030BC704765
:1003300050E8012FC2EA024240E801210029F7D12A
:10034000704730B450E8022F1FFAA2F3C488A342CA
:1003500002BFBFF32F8F00200DE0C489234484899E
:10036000A34228BF1B1BC2EA034340E80234002C0F
:10037000E8D14FF001000A6030BC704750E8022F0E
:10038000C2EA224240E802210029F7D17047034621
:1003900053E8022FD988B2EB324F4FF0000017BF5D
:1003A00092B241EA014142EA014104E05A68B2EBEB
:1003B000324F08BF012043E80212002AE8D17047FB
:1003C00030B4044654E8000F0D4644E80053002BB7
:1003D000F8D1156030BC704730B4044654E8000FC3
:1003E00040EA010544E80053002BF7D1156030BC0A
:1003F000704730B4044654E8000F00EA010544E8B1
:100400000053002BF7D1156030BC704730B4044660
:1004100054E8000F80EA010544E80053002BF7D1AF
:10042000156030BC704730B4044654E8000F00EB50
:10043000010544E80053002BF7D1156030BC70472C
:1004400030B4044654E8000FA0EB010544E8005323
:10045000002BF7D1156030BC704770B404464FF0E4
:10046000000054E8006F0D68AE4207BF44E8002367
:10047000012044E800630E60002B1CBF0020F0E761
:1004800070BC704730B4044654E8000F88422CBF5B
:10049000451A054644E80053002BF5D1156030BCE1
:1004A000704700000648804706480047FEE7FEE721
:1004B000FEE7FEE7FEE7FEE7FEE7FEE7FEE7FEE714
:1004C000611C0E0001020E00202A04DB203A00FA13
:1004D00002F1002070479140C2F1200320FA03F39B
:1004E000194390407047000000487047D4FE0E004A
:1004F00010B5441A0346944209D28418114403E00B
:1005000011F8013D04F8013D521EF9D210BD40EA38
:100510000104A40703D009E010C9121F10C3042A64
:10052000FAD203E011F8014B03F8014B521EF9D245
:1005300010BDD2B201E000F8012B491EFBD270477A
:100540000022F6E710B513460A4604461946FFF79F
:10055000F0FF204610BD421C10F8011B0029FBD102
:10056000801A704730B504460020034600E05B1C4B
:10057000934203D2E05CCD5C401BF8D030BD034613
:1005800011F8012B00F8012B002AF9D11846704709
:100590002DE9F05F0546002092469B4688460646B8
:1005A000814640241BE0284641464746224600F04B
:1005B00033F853465A46C01A914110D31146184693
:1005C0002246FFF781FF2D1A67EB01084F462246AE
:1005D00001200021FFF778FF17EB00094E41201E94
:1005E000A4F10104DFDC484631462A464346BDE813
:1005F000F09F0000064C074D06E0E06840F0010364
:1006000094E8070098471034AC42F6D3FFF7FCFD9E
:100610009C0D0F00BC0D0F00202A04DB203A21FAAC
:1006200002F00021704721FA02F3D040C2F120020B
:10063000914008431946704770B58C1810F8015B5B
:1006400015F0070301D110F8013B2A1106D110F86B
:10065000012B03E010F8016B01F8016B5B1EF9D16F
:100660002B0705D40023521E0DD401F8013BFAE7F5
:1006700010F8013BCB1A921C03E013F8015B01F860
:10068000015B521EF9D5A142D8D3002070BD0000F5
:10069000054B4FF0FF321A6053F8042C034B1A60DD
:1006A0001A68034B1A60704704BA02502C94002059
:1006B00008BA025001EB820204388A4201D10020BC
:1006C000704752F8043D1BBA40F8043FF5E70000BC
:1006D000354B8EB019461A680092009AD207FAD5A7
:1006E000324B334A1A600A680192019AD007FAD550
:1006F000304A1A600A680292029AD207FAD52E4A44
:100700001A600A680392039AD007FAD52B4A1A6036
:100710000A680492049AD207FAD5294A1A600A682C
:100720000592059AD007FAD5264A1A600A680692F9
:10073000069AD207FAD5244A1A600A680792079ADD
:10074000D007FAD5214A1A600A680892089AD20797
:10075000FAD51F4A1A600A680992099AD007FAD591
:100760001C4A1A600A680A920A9AD207FAD51A4AEB
:100770001A6008680B900B98C007FAD51A600A68CF
:100780000C920C9AD007FAD5144A1A600A680D9296
:100790000D9AD207FAD5124A1A600E210D230F22A4
:1007A00000200EB000F090BDB0B0025080B00250FA
:1007B0008043012940633921807001298020542120
:1007C00000D13490C0403490C0302029C0530D90E7
:1007D00000413890832308C880E31021004138216C
:1007E000CF4308C810B5504B96B01C461A6801920A
:1007F000019AD207FAD54D4B4D4A1A6022680292EF
:10080000029AD207FAD54B4A1A604B4A42EA804014
:1008100022680392039AD207FAD5186022680492DC
:10082000049AD007FAD5454A1A60A2F5800242EA36
:10083000814122680592059AD207FAD5196022688B
:100840000692069AD007FAD53D4A1A6022680792A6
:10085000079AD107FAD53B4A1A6022680892089A8B
:10086000D207FAD5384A1A6022680992099AD00745
:10087000FAD5364A1A6022680A920A9AD107FAD53E
:10088000334A1A6022680B920B9AD207FAD5314A82
:100890001A6022680C920C9AD007FAD52E4A1A6078
:1008A00022680D920D9AD107FAD52C4A1A60226857
:1008B0000E920E9AD207FAD5294A1A6022680F9230
:1008C0000F9AD007FAD5274A1A602168109110991B
:1008D000C907FAD51A60144B1A4619681191119973
:1008E000C807FAD5114B2049196011681291129965
:1008F000C907FAD51D491960116813911399CC07DE
:10090000FAD50B491960116814911499C807FAD5E2
:1009100017491960116815911599C907FAD5154A33
:100920001A6016B010BD00BFB0B0025080B00250C7
:100930004004419000862929D81001C840144190F4
:1009400040142129401465210034409000310C905E
:10095000C0400C90C030202940960D90004160901E
:10096000031645C80086112100416021594644C83C
:100970004014459040142D902DE9F041484B88B02B
:100980001C461D680195019DEF07FAD5454BDFF820
:1009900020E1454F13449B000A181B681E2A88BF9C
:1009A000C0F11E011F330A185B095A43B2F5806F6C
:1009B00088BF4FF480614FF0000203F1010588BF4A
:1009C000B1FBF3F1944688BF091A25F001058000B8
:1009D000914233DC22680492049AD207FAD5334A52
:1009E0001268216805910599CF07FAD530482E493C
:1009F0000260002215469A4246D15A1C2A4D1946D9
:100A000022F0010200268A4241D821680691069907
:100A1000CE07FAD52749096825680795079DED0790
:100A2000FAD50160002120480C46994232D11E4976
:100A300000209A4231D808B0BDE8F08126680296BD
:100A4000029EF607FAD500F1A04606F52C36366868
:100A5000D4F80080CDF80C80DDF80C8018F0010F80
:100A6000F6D0CEF8006000269E4205D11E46B54263
:100A700006D801320430ABE7C7F800C00136F3E70F
:100A8000C7F800C00136F2E70D600132B3E72E600F
:100A90000131B8E704600131C7E708600133C8E7F6
:100AA000B4B0025024AC0014D8B002507CB0025054
:100AB000D4B0025078B00250F0B52A4D85B02C4623
:100AC0002E680096009EF707FAD500F1A05000F5B9
:100AD0002C4080000568206801900198C607FAD56F
:100AE000214E2248356002EB8307BA422BD15A1CB3
:100AF0001E4822F0010200279A4229D82368029357
:100B0000029BD807FAD51A4B0B449B0018681F307C
:100B1000B2EB501F4FEA501313D22168039103998F
:100B2000C907FAD5154400219B1A104A35600846BA
:100B30008B4210D85A1C0D4922F0010200209A4223
:100B40000CD805B0F0BD52F804CBC0F800C0CCE71B
:100B500007600133D0E710600131E9E70860013335
:100B6000EDE700BFB4B00250D4B00250D8B002508C
:100B700024AC001410B5494B94B019461A68009281
:100B8000009AD207FAD5464B464A1A600A68019283
:100B9000019AD407FAD5444A1A600A680292029A66
:100BA000D007FAD5414818600A680392039AD20721
:100BB000FAD53F4A1A600A680492049AD407FAD513
:100BC0003C4A1A600A680592059AD207FAD53A4A51
:100BD0001A600A680692069AD407FAD5374A1A604C
:100BE0000A680792079AD207FAD5354A1A600A6846
:100BF0000892089AD407FAD5324A1A600A6809920C
:100C0000099AD207FAD5304A1A600A680A920A9AF3
:100C1000D407FAD52D4A1A600A680B920B9AD207AC
:100C2000FAD52B4A1A600A680C920C9AD407FAD5A6
:100C3000284A1A600A680D920D9AD207FAD5264AF8
:100C40001A600A680E920E9AD407FAD5234A1A60DF
:100C50000A680F920F9AD207FAD5214A1A600F4BF1
:100C600019461C681094109CE407FAD50C4B1860C8
:100C7000086811901198C407FAD51A600A68129290
:100C8000129AD007FAD5174A1A600A681392139A73
:100C9000D207FAD5144A1A6014B010BDB0B0025091
:100CA00080B00250809065210004099040966590C4
:100CB00080806121802008218020649000816190E3
:100CC000004610210081112100414421802020296B
:100CD000024610C800860921802060214021282971
:100CE0004096652140962529594614C810B5544BA5
:100CF00098B019461A680192019AD207FAD5514B59
:100D0000514A1A600A680292029AD407FAD54F4AE9
:100D10001A600A680392039AD007FAD54C48186003
:100D20000A680492049AD207FAD54A4A1A600A68F5
:100D30000592059AD407FAD5474A1A600A680692BE
:100D4000069AD207FAD5454A1A600A680792079AA6
:100D5000D407FAD5424A1A600A680892089AD2075C
:100D6000FAD5404A1A600A680992099AD407FAD556
:100D70003D4A1A600A680A920A9AD207FAD53B4A93
:100D80001A600A680B920B9AD407FAD5384A1A608F
:100D90000A680C920C9AD207FAD5364A1A600A6889
:100DA0000D920D9AD407FAD5334A1A600A680E924A
:100DB0000E9AD207FAD5314A1A600A680F920F9A32
:100DC000D407FAD52E4A1A600A681092109AD207F0
:100DD000FAD52C4A1A601A4B19461C681194119CBA
:100DE000E407FAD5174B1860086812901298C407E8
:100DF000FAD51A600A681392139AD007FAD5124AE4
:100E00001A600A681492149AD207FAD51E4A1A6018
:100E10000A681592159AD407FAD51C4A1A600A680E
:100E20001692169AD007FAD5194A1A600A681792CC
:100E3000179AD207FAD5174A1A6018B010BD00BF2A
:100E4000B0B0025080B00250009365210004319090
:100E5000409665900083612100C3302100C36490F7
:100E60000081619000461021008111210041442140
:100E700000C320290C4610C80086312100C3602120
:100E800040C12829409665210013319040962529BC
:100E9000594614C8400432492DE9F041834B1D687E
:100EA00098682033A0B01E461A680192019AD207B2
:100EB000FAD57F4C7F4B236033680293029BDF0798
:100EC000FAD57D4B23607D4B1F461A680392039A27
:100ED000D107FAD57A4B1968C1F3402132680492E0
:100EE000049AD207FAD5774A22603A680592059AA1
:100EF000D207FAD51A68C2F34022002900F0D18047
:100F0000002A00F0CE8032680692069AD107FAD500
:100F10006D4A22603A680792079AD207FAD51A6892
:100F2000C2F34022316808910899C907FAD5674988
:100F30002160396809910999C907FAD51B68C3F37B
:100F40004023002A00F0AF80002B00F0AC80336813
:100F50000A930A9BDA07FAD5564B236033680B9342
:100F60000B9BDB07FAD55A4A226033680C930C9B23
:100F7000DF07FAD5574B236033680D930D9BD907D4
:100F8000FAD5554B236033680E930E9BDB07FAD5D9
:100F9000524B236033680F930F9BDF07FAD5504BFA
:100FA0002360504B1E46196810911099C907FAD555
:100FB0003F4C4D4B236033681193119BDB07FAD5EF
:100FC0004A4B236033681293129BDF07FAD5484BD4
:100FD00023603A4B9846196813911399C907FAD5BB
:100FE000324F386033681493149BDB07FAD52260C4
:100FF00033681593159BD807FAD53E4B23603368A9
:101000001693169BD907FAD53B4B23603368179389
:10101000179BDA07FAD5394B236033681893189B6E
:10102000DB07FAD5364B236033681993199BD80731
:10103000FAD5344B236033681A931A9BD907FAD533
:10104000314B236033681B931B9BDA07FAD52F4B78
:10105000236000F0D3F908BBD8F800301C931C9B28
:10106000DB07F9D53D6033681D931D9BD907FAD581
:10107000274B236033681E931E9BDA07FAD5254B56
:101080002360D8F800301F931F9BDB07F9D50C4B6A
:101090001B6813F4805F204B08BF184620B0BDE8E2
:1010A000F0811E48FAE71E48F8E700BF90B00250F2
:1010B00080B0025000100251C01F7229B4B002501B
:1010C00088B00250C0CF0129C01F0E29C03F00299F
:1010D00040010249003184A800001649400108A1DE
:1010E00080440888B0B00250C044708880077A41BC
:1010F000C0077E4100006A498006164940006E49DB
:1011000000020021008220214082202180822421AF
:1011100040A161A100C861510308F1000108F1007C
:101120000208F10008B540B1202801464FF007023F
:1011300028BF20210020FFF71FFC024B00221A606D
:1011400008BD00BF1CB80250F0B51D6885B001F0A5
:101150001F040DB91F2C25D1154D2E462F68019760
:10116000019FFF07FAD500F1A05000F52C40800048
:10117000006835680395039DED07FAD50D4D00EB2A
:10118000611028600C48006802901F2C18BFC943EA
:1011900002980FBF106001F01F0100FA01F1116009
:1011A0000021196010684300C00F136005B0F0BD46
:1011B000B4B00250E4B00250DCB0025030B51F4B66
:1011C00085B01A46196800910099CC07FAD500F14C
:1011D000A05000F52C408000016813680193019B2A
:1011E000D807FAD5164B174C1B68174D13F11F0083
:1011F00048BF03F13E0040110138002810DA0023F7
:101200000130400153B1A0F120014FF000421342E0
:1012100004D1013888424FEA5202F8D105B030BDFE
:1012200013680393039BDB07FAD5431823602B68ED
:101230000293029B002BE3D10138DEE7B4B00250E9
:10124000ACB00250E4B00250DCB002500A460021BB
:10125000AFF3008038B5A0F12003B3F5426F054627
:101260002CD88F2826D800F1470300F16604DB064E
:101270004FEA541400D0013464013F34A40901340E
:1012800011B18C421AD80C46E3004FF48050B0FBE9
:10129000F3F0202828BF202002B11060084B012263
:1012A0001A60214600F068F82846214600F088F8C8
:1012B000002038BD00F11F046409DDE70148F8E7AC
:1012C0001CB802502221F00070B5264888B00546AF
:1012D00004680094009CE607FAD52348234C046078
:1012E000234C44EA83432C680194019CE407FAD51B
:1012F0000360930143EA824242F0104444F4C04444
:101300002B680293029BDE07FAD504602B680393D7
:10131000039BDB07FAD5174B03608B0143EA81413E
:1013200041F0104343F4C0432E680496049EF60730
:10133000FAD503602B680593059BDE07FAD5046098
:1013400041F058412B680693069BDC07FAD50160F3
:1013500042F058422B680793079BDB07FAD50260DF
:1013600008B070BDB0B0025080B00250C021022958
:101370008071009880611890002230B549001346B2
:10138000023840F6FC75940004F1A04404F52C34B6
:10139000904202F10102CABF236025605B181E2A39
:1013A000F1D1044A13600B445360034B034A1A60A3
:1013B00030BD00BF78B0025084B0025020F80F005A
:1013C0000C4B18603F3020F03F00890140305860DE
:1013D0009960D9601961596199610748D9611C33D5
:1013E00082B002680192019AD207FAD5196002B060
:1013F000704700BF90B00250B4B002502DE9F041E8
:10140000012392B0CDE90333624B1E461A68059260
:10141000059AD107FAD5604C604B2360604B1946A2
:101420001A680692069AD207FAD55E4B1A68D70454
:1014300000F1A88032680792079AD507FAD55A4A70
:1014400022600A680892089AD007FAD51B68DA0465
:10145000C3F3003700F198801220FFF7AFFE054676
:101460001320FFF7ABFE85428CBF12201320FFF73D
:10147000A5FE451EFFF72CF903AB01AA2946122051
:10148000FFF762FE04AB804602AA29461320FFF74D
:101490005BFE00EB4800022832D003283ED0012832
:1014A00074D133680993099BDB07FAD53F4B23605E
:1014B00033680A930A9BD807FAD53D4B23603368FB
:1014C0000F930F9BD907FAD53A4B236033681093DB
:1014D000109BDA07FAD5384B236033681193119BC0
:1014E000DB07FAD5354B2360013D25D510231922A2
:1014F00018210020FFF7E8FE384612B0BDE8F08161
:1015000033680B930B9BD907FAD52D4B23603368B7
:101510000C930C9BDA07FAD52A4BCFE733680D936F
:101520000D9BDB07FAD5284B236033680E930E9B87
:10153000D807FAD5254BC1E703AB01AA29461220EB
:10154000FFF702FE04AB044602AA29461320FFF768
:10155000FBFD10EB440402D1FFF7C8FBC4E7FFF723
:1015600009FB022C08D0032C09D0012C10D1172123
:101570001620FFF737F9B7E715211420F9E70F21F7
:101580000E20F6E7124FB7E7124FB5E7124FB3E759
:10159000124FB1E7B0B0025080B0025000084A517B
:1015A000B4B0025088B0025000084E5100065A49AB
:1015B00040065E49000442410014424940042E495D
:1015C000000652494006564900063A4940063E493F
:1015D0000608F1000708F1000408F1000508F10011
:1015E000014B1860704700BF08BA0250014B1860E9
:1015F000704700BF04BA0250094BC2431A60043B53
:1016000082B01B680193074B019A024204D0064A3C
:101610001060186802B0704720BF1A680192F3E7A3
:1016200004BA02502C94002008BA0250FEF760BFA2
:10163000FEF788BF0A460021FEF784BF2DE9F74375
:1016400005460E461F46114600F058FA044600288B
:1016500040F08280002E00F08380002900F082801C
:10166000202F40F0818005F14404082205F104098F
:101670002046FFF71FF805F12408082231464846A6
:10168000FFF718F806F1200108224046FFF712F88C
:1016900001A94FF480700197FFF7D8FD002865D1AC
:1016A000334A4FF48073136001219360314A082359
:1016B000FFF702FA012108462F4A0523FFF7FCF93C
:1016C00008234A4601211C20FFF7F6F90823424669
:1016D00001210320FFF7F0F922460823012102200F
:1016E000FFF7EAF9254A082301211A20FFF7E4F958
:1016F000234A052301211B20FFF7DEF9214A082395
:1017000001211420FFF7D8F91F4A082301211520D1
:10171000FFF7D2F9082305F1640201211620FFF733
:10172000CBF9082305F1840201211720FFF7C4F942
:101730000823164A01210B20FFF7BEF9FFF7ACFB87
:1017400004460198FFF7EEFC114B002C18BF1C4615
:10175000A4212846FFF76EFF204603B0BDE8F083C2
:101760000C4CF9E70C4CF7E70C4CF5E7084CEFE7AD
:1017700090B00250100D0F00880D0F00D00C0F001C
:10178000740D0F00340D0F00540D0F00F00C0F00FE
:101790008408F0007608F0008008F0008108F0006E
:1017A00038B50D460446B0B1A02200210430FFF741
:1017B0003FFF95B10822294604F16400FEF77AFF45
:1017C000082205F1200104F18400FEF773FF044BA9
:1017D0002360002038BD0348FCE70348FAE700BF58
:1017E000DD55AABB7108F0008308F00037B50193FE
:1017F000069B009304461546FFF7D2FF40B9DDE98A
:1018000000322946204603B0BDE83040FFF716BF3E
:1018100003B030BD2DE9FF41144B04460D460FCBFC
:10182000E84688E80F00204600F078F90746B0B98E
:10183000CDB1636A261D01963BB90123226F636215
:1018400004F13001404600F081F83346043D243471
:1018500053F8042B12BAA34245F8042FF8D13846A6
:1018600004B0BDE8F081024FF9E700BFA00C0F0003
:101870000502F00013B5044670B1043070210190E8
:10188000FFF7D8FE019805492022FFF7CFFE044B51
:101890002360002002B010BD0248FBE7B00C0F002F
:1018A000DD55AABB0002F0002DE9FF47254B044699
:1018B0000F4615460FCBE84688E80F0025B90026ED
:1018C000304604B0BDE8F087204600F027F9064610
:1018D0000028F5D1666A231D01938EBB206FC0B12D
:1018E000C0F14009A94528BFA94604F1300A4A467B
:1018F00039465044FFF79AFE226F4A44402A4F442B
:101900002267A5EB090504D15146404600F01EF8B8
:10191000266705F03F0935F03F0505D039462A46D0
:10192000404600F013F82F44B9F1000FC7D04A46E3
:10193000394604F13000FFF779FEC4F87090BFE734
:10194000014EBDE7A00C0F000C02F0002DE9F74F8F
:10195000314B4468054691469A461A68002AFCD1E4
:101960002E4B9B461A68002AFCD14FF0FF300191A4
:10197000FFF736FE8020FFF739FE294E294ADFF8AF
:10198000B880294F012307203360A2F59E72C2F868
:101990003C011360636AC8F80030A36A3B602B689F
:1019A00042F8043CAB68204698470199DAF80030C9
:1019B000002BFBD1B9F1000F20D11C4B04221A607F
:1019C000DAF80030002BFBD1DBF80090B9F1000F02
:1019D000FAD1EB6820469847D8F8003063623B683C
:1019E000A362134BC3F80090C3F84491DAF80030B7
:1019F000002BFBD1336003B0BDE8F08F236A012BCD
:101A000004BF0B4A13600B4B40201960C3F80490CD
:101A1000FFF7F2FDD4E700BF10B9025020BC02501E
:101A200018B8025000B90250D0B70250C8B70250DF
:101A300084B6025028BC0250CCB70250084B1B6839
:101A40001B0EF02B08D1074B1A68074B9A4205D1A1
:101A5000064B00201860704705207047062070472D
:101A600028B9025024BA02500000E0200CBA0250FB
:101A70000C4B1B68C3610C4B1B6883610B4B1B68D1
:101A800043610B4B1B6803610A4B1B68C3600A4B25
:101A90001B688360094B1B684360094B1B6803602C
:101AA000704700BF5CB6025058B6025054B60250A0
:101AB00050B602504CB6025048B6025044B60250DE
:101AC00040B602500C4BC2691A60826943F8042C7C
:101AD000426943F8082C026943F80C2CC26843F8A9
:101AE000102C826843F8142C426843F8182C0268C2
:101AF00043F81C2C704700BF5CB6025030B102683E
:101B0000034B04489A4208BF0020704702487047C0
:101B1000DD55AABB8208F0007108F00030B1026800
:101B2000034B04489A4208BF0020704702487047A0
:101B3000DD55AABB0202F0000002F00010B509F06A
:101B400077F9BDE8104009F0D9B800000249024811
:101B5000091F096800680847380100202DE9F04195
:101B60001E4E4FF48271D6F8040130B11C48C26891
:101B7000521CC260304608F0E7FC00254FF4A07705
:101B800007EB85018AB23046B25812B389B208F029
:101B9000DBFC1348103000EB051420460DF028F84C
:101BA000104811492246401AC008042101EB0040A8
:101BB0000EA108F07FFA616819B120460CF0C8FE4A
:101BC00007E0A16811B120460CF0C2FE206800B108
:101BD00080476D1C022DD3D3BDE8F0810040024048
:101BE000180000205C0E0F00DC0D0F0074696D659D
:101BF000725F6669726520283078257829000000B8
:101C000000F09EB970B50E46144900EB400001EBA0
:101C1000C0051446E86A183520B101280FD0022803
:101C200005D113E0284600F0C1F9A04201D20024FA
:101C300011E022463146284600F005FA0BE028461E
:101C400000F0B4F9A042F4D20446F2E73146284647
:101C500000F0CCF90446204670BD0000746A0020F4
:101C6000F0B54FF080527F4ED2F830017E4FD2F85F
:101C70003411431C08D005464FEA010400234FF0FD
:101C8000010C082D05D013E03B783578C3F303141D
:101C9000F4E72CB1012C03D0022C01D0032C07D186
:101CA0004FF08044C4F80C31C4F810316F4C2360FD
:101CB000441C04D005460C46082D05D061E03C7854
:101CC0003578C4F30314F7E72CB1012C03D0022CB0
:101CD00001D0032C55D1664C2468664D2C60644CB1
:101CE000241D24682D1D2C60614C083424682D1D92
:101CF0002C605F4C0C3424682D1D2C605C4C10341F
:101D000024682D1D2C605A4C143424682D1D2C6021
:101D1000574C18342468574D20352C60544C1C34D3
:101D200024682D1D2C60524C203424682D1D2C60FD
:101D30004F4C243424682D1D2C604D4C28342468CD
:101D40002D1D2C604A4C2C3424682D1D2C60484CD1
:101D500030342468474D40352C60454C3434246879
:101D60002D1D2C60424C383424682D1D2C60404CB5
:101D70003C3424682D1D2C603D4C403424682D1DBE
:101D80002C60082804D10C0002D13C4D3A4C2C6048
:101D9000082804D10C0002D1394DFB242C600828FE
:101DA00008D10C0006D192F85852364A146865F3EF
:101DB00003041460082804D10A0002D1324C8201C5
:101DC0002260421C03D139783078C1F3031108280E
:101DD0000DD129B1012903D0022901D0032906D14F
:101DE0002A480168C90702D06FF001010160284844
:101DF000016841F470010160BFF34F8FBFF36F8F33
:101E00004FF01021D1F80002002803DBD1F80402C2
:101E1000002823DA1F4AC2F800C01F480468002CBB
:101E2000FCD01224C1F800420568002DFCD0C1F896
:101E3000044201680029FCD0136001680029FCD02D
:101E4000BFF34F8F12487C380168144A01F4E061F7
:101E500011430160BFF34F8F00BFFDE711491048E8
:101E60000860F0BDE00F00F0E80F00F0380500401A
:101E70000404001020C50040488103008C56004037
:101E800018F50040E40E0040409602400004004077
:101E900088ED00E004E5014000E401400400FA059B
:101EA0000090D003B80100202DE9F0411A48D0F885
:101EB0000453002601240FE095FAA5F0B0FA80F74C
:101EC000B80000F5807008F001FE10B104FA07F0C8
:101ED000064304FA07F08543002DEDD1C6F3C05741
:101EE00026F40005DFF834800AE000BF95FAA5F07B
:101EF000B0FA80F658F82600804704FA06F08543C9
:101F0000002DF3D10DF08EF9002F03D0BDE8F04184
:101F100003F0FEBEBDE8F08100700240FCF90E0047
:101F2000064808B5002101600068009008F076F9C5
:101F300007F04EFF0028FBD108BD00000001014062
:101F400010B5124C02202061606111A0A06104F163
:101F50007800E0614FF4805020620020A06260624F
:101F60000BA1A164E0620D49E1641021A065C4E900
:101F70001410E0650AA1E01DFEF701FB09A120464F
:101F8000FEF7FDFA2020A07110BD0000746A002049
:101F90005465726D696E616C00000000EC7A00207F
:101FA0005254540053454747455200000269C168E6
:101FB0008A4203D88068401A104400E0501A401E3C
:101FC00070470000C11700EBD161074B4A1153F86D
:101FD000222021F01F01411A01208840024201D035
:101FE000012070470020704700E100E02DE9F04734
:101FF000C4681746894606464FF000083069A0427B
:1020000001D9051B02E0B168201A0D1AB0686D1ED7
:10201000001BA84200D80546BD4200D33D4670686B
:102020002A4620444946FEF763FAB0687F1B2C44D9
:10203000A844A944A04200D10024F460002FDDD1BF
:102040004046BDE8F0872DE9F04104468846D4E9D2
:102050000207C51BE168606816460844B54206D908
:102060004146FEF745FAB819E060BDE8F0812A461E
:102070004146FEF73DFA761B08EB050132466068E3
:10208000FEF736FAE660F0E70FB41CB50246002012
:1020900007AC00290BD0491ECDE90021054B6A464B
:1020A0002146069800F018F8009A002111701CBC17
:1020B0005DF814FB3B250E0002E008C8121F08C1A2
:1020C000002AFAD170477047002001E001C1121FB9
:1020D000002AFBD1704700002DE9FF4F8DB00F465D
:1020E0000546002606E025280BD0DDE90F129047B3
:1020F0006D1C761C28780028F5D111B03046BDE85B
:10210000F08F0024A246A1460122EC4900E00443DE
:1021100015F8013F203B02FA03F00842F7D1287876
:102120002A2810D06FF02F022878A0F13001092959
:1021300014D80AEB8A0102EB410144F0020400EBDF
:10214000010A6D1CF0E701CF5FEA000A03D544F4F1
:102150000054CAF1000A44F002046D1C28782E28AD
:1021600017D115F8010F44F004042A280ED06FF09F
:102170002F022878A0F1300109290AD809EB89013A
:1021800002EB410100EB01096D1CF2E757F8049BDB
:102190006D1C28786C280FD006DC4C2817D06828D6
:1021A0000DD06A2814D104E0742810D07A280FD1F9
:1021B0000DE044F400140AE044F4801401E044F417
:1021C00040146978814202D104F580146D1C6D1CA5
:1021D0002A786E2A1FD00CDC632A31D004DC002A56
:1021E0008BD0582A11D1A3E0642A68D0692A0CD177
:1021F00065E0732A2ED004DC6F2A73D0702A04D1D4
:102200009BE0752A6FD0782A6ED01046DDE90F1258
:102210009047761C50E1C4F30250022806D00328F0
:1022200009D0042801CF09D0066045E101CFF1179C
:10223000C0E9006140E101CF06803DE106703BE16D
:1022400017F8040B8DF8000000208DF80100EB4614
:10225000012003E057F804BB4FF0FF3061074FF057
:10226000000102D40DE008F10101884649450FDA6A
:102270008045F8DB1BF808100029F4D108E008F1CC
:10228000010188468142FADB1BF808100029F6D1CB
:10229000DDE90F23AAEB08008146214600F036F95C
:1022A000304400EB080604E0DDE90F121BF8010BD7
:1022B0009047B8F10108F7D221464846F7E00A21D5
:1022C000C4F302534FF0000B0891022B04D001CF4E
:1022D000C117032B09D00AE0FF1D27F00707F7E815
:1022E000020108E032E01FE020E000B2C117042B39
:1022F00001D140B2C117031E71F1000307DA4FF09C
:10230000000CD0EB0C006CEB01012D2302E0230547
:1023100004D52B238DF82430012303E0E30701D0FB
:102320002023F7E7984658E00A2110E010210EE03C
:1023300010204FF0000B08900CE010214FF0000B24
:1023400044F004044FF00809089103E008214FF01D
:10235000000B0891C4F30253022B04D001CF0021DB
:10236000032B06D006E0FF1D27F00707F7E8020160
:1023700003E080B2042B00D1C0B24FF00008230765
:102380002BD5702A07D0DDF820C08CF0100C5CEA49
:102390000B0C05D00EE040238DF82430012308E01B
:1023A00050EA010306D030238DF824308DF8252023
:1023B00002239846DDF820C08CF0080C5CEA0B0C78
:1023C0000BD150EA010301D1630706D530238DF804
:1023D00024304FF00108A9F10109582A04D038A28D
:1023E0000B9208AA0A920BE03AA2F9E75B46089A18
:1023F000FEF7CEF80B9B9B5C0A9A521E0A92137052
:1024000050EA0102F2D10A98ADEB000000F1200B76
:10241000600702D524F4803401E04FF00109D9456A
:1024200002DDA9EB0B0000E0002000EB0B014144B2
:102430000890AAEB010AE00306D4DDE90F23214648
:10244000504600F063F806444FF0000908E009A97F
:1024500011F80900DDE90F12904709F10109761C16
:10246000C145F4DBE0030CD5DDE90F2321465046DE
:1024700000F04CF8064404E0DDE90F1230209047EC
:10248000761C0899481E08900029F5DC08E00A9897
:102490000A990078491C0A91DDE90F129047761CD1
:1024A000BBF10001ABF1010BF1DC21465046DDE947
:1024B0000F2300F019F806446D1C1BE609280100E3
:1024C00030313233343536373839616263646566AA
:1024D000000000003031323334353637383941426C
:1024E00043444546000000002DE9F0410446002524
:1024F0001E461746880404D405E039462020B0471C
:102500006D1C641EF9D52846BDE8F0812DE9F04127
:10251000044600251E469046C80301D5302700E03A
:102520002027880404D505E041463846B0476D1C95
:10253000641EF9D52846BDE8F0814A68002A06D015
:102540000A68531C0B6010704868401E4860704752
:10255000800701D00020704701207047C3688B427C
:1025600006D811440069491E814201D801207047F4
:10257000002070472DE9F05FDFF89CB05C46DBF887
:102580004890DBF8246005F069F9216B4718751A4B
:1025900022482349401AC108042000EB014080462C
:1025A00020A107F083FD216B4944B94200D10025E9
:1025B00008232A46384603F075FD070018481749D6
:1025C0004FF0010AA1EB00004FEAD0010AEB0144F1
:1025D00004D020461AA107F069FD19E005F03EF984
:1025E0000022314602F016FDDBF828200546D946C8
:1025F000AA4208D1404619A107F058FDC9E9075A77
:10260000C9F8186004E020462B461A4907F059FD26
:102610003846BDE8F09F0000101D00205C0E0F0042
:10262000DC0D0F00456E746572206E72665F646625
:10263000755F6170705F636F6E74696E75650000C1
:102640004661696C656420746F20636F70792066E1
:1026500069726D776172652E0000000053657474B5
:10266000696E67206170702061732076616C6964A7
:1026700000000000C4FF0E0008B513460246009398
:102680000648074BC01AC008012303EB00400B4665
:1026900004A107F01EFD0AF05DF800005C0E0F00BB
:1026A000DC0D0F0052656365697665642061206604
:1026B00061756C74212069643A203078253038784F
:1026C0002C2070633A203078253038782C20696EC1
:1026D000666F3A2030782530387800000246064888
:1026E0000649401AC008012101EB004004A107F08F
:1026F000E1FC0AF02FF800005C0E0F00DC0D0F006B
:10270000526563656976656420616E206572726FDB
:10271000723A203078253038782100002DE9F041D8
:1027200007461E4E1E481F49326A401AC508012A34
:1027300004D0032000EB05401BA12BE04FF44050D8
:10274000184B174C4168E31A234A0220DB0800EBC0
:102750000344914206D1C1023B462048726B01F00E
:102760003DFC90B105F07AF801461C483B464130EB
:10277000B26901F033FC58B1042000EB054018A108
:1027800007F094FC0120BDE8F081204618A101E08B
:10279000204626A107F08AFC0020F4E7101D002047
:1027A0005C0E0F00DC0D0F00426F6F742076616CC1
:1027B00069646174696F6E206661696C65642E205E
:1027C0004E6F2076616C69642061707020746F2098
:1027D000626F6F742E000000DBE5B151701F0020A6
:1027E0004170702069732076616C6964000000009C
:1027F000426F6F742076616C69646174696F6E20DA
:102800006661696C65642E20536F667444657669F1
:1028100063652069732070726573656E74206275DC
:102820007420696E76616C69642E0000426F6F746B
:102830002076616C69646174696F6E206661696C91
:1028400065642E2041707020697320696E76616C1A
:1028500069642E002DE9F047244C81469246608839
:102860000E4681423FD84FF6FF77002001F08CFAE8
:1028700022786078A188884201DA401C00E00020BC
:10288000C0B2904203D1002001F0ACFA29E0657893
:102890004FF000086078884201DA401C00E0002018
:1028A0006070002001F09EFABD421AD0A068B9F114
:1028B000000F40F835A00DD066B16188E06832465F
:1028C00005FB01004946FDF713FEA06800EBC500BB
:1028D000868003E000EBC500A0F804800020BDE87E
:1028E000F0870420FBE70920F9E70000B000002092
:1028F00010B50E4C03E0401C00E000202070207852
:102900006178814210D022786188E068A36802FB78
:10291000010003EBC20153F83220898890472078E8
:10292000A1888842E9DAE6E710BD0000B000002087
:1029300030B5CB0008339DB293074FF0000401D0AF
:10294000072030BD044B9A602A44DA605C701C702A
:1029500058809980002030BDB0000020014802F06E
:10296000D5BE0000C800002070B514460E46050014
:1029700004D10BA14FF4027001F074FA3CB1286845
:10298000012E44610AD000210161002070BD04A124
:1029900040F2092001F066FA072070BD0121F3E73B
:1029A0002E2E5C2E2E5C2E2E5C2E2E5C2E2E5C632C
:1029B0006F6D706F6E656E74735C6C69627261725C
:1029C0006965735C74696D65725C6170705F746970
:1029D0006D6572322E63000038B511480823582205
:1029E000416800910F49006804F042F8002815D1B1
:1029F0000D4A69460D4802F08DFE04000ED10121FA
:102A00000A4802F06EFF0123094A1946074802F0FE
:102A100035FE0649012008390870204638BD0000FF
:102A200098FA0E00E02600205DD80E00C8000020B5
:102A3000FFFF7F0070B516460D46040004D10DA1BE
:102A40004FF4067001F00EFA207F08B1002070BD2F
:102A5000A66103F0E9FA401941F10001C4E902015D
:102A6000206900B125612146BDE8704000200CF0CE
:102A700095B800002E2E5C2E2E5C2E2E5C2E2E5C29
:102A80002E2E5C636F6D706F6E656E74735C6C6917
:102A9000627261726965735C74696D65725C6170A4
:102AA000705F74696D6572322E63000010B50400AA
:102AB00004D106A140F22E2001F0D4F900202146D5
:102AC0002077BDE8104001200CF068B82E2E5C2E57
:102AD0002E5C2E2E5C2E2E5C2E2E5C636F6D706F26
:102AE0006E656E74735C6C69627261726965735C49
:102AF00074696D65725C6170705F74696D65723266
:102B00002E63000070B505460648446807E0294674
:102B1000204602F0FFF9204600F0AEFA0446002CF1
:102B2000F5D170BDE400002070B50A4845680EE09C
:102B30002E7A002405E02146284600F0C7FE641CDA
:102B4000E4B2B442F7D3284600F096FA0546002DC9
:102B5000EED170BDE40000202DE9F0410E4840F2B6
:102B60004477456814E02E7A00240BE000222146C9
:102B7000284600F00DFF18B108A1384601F072F99F
:102B8000641CE4B2B442F1D3284600F075FA05465D
:102B9000002DE8D1BDE8F081E40000202E2E5C2E4F
:102BA0002E5C2E2E5C2E2E5C2E2E5C636F6D706F55
:102BB0006E656E74735C6C69627261726965735C78
:102BC000757362645C6170705F757362642E63001C
:102BD00070B506460948062544680AE03146204695
:102BE00002F098F90546062805D1204600F044FA7F
:102BF0000446002CF2D1284670BD0000E4000020FD
:102C00002DE9FC4115460E00074604D1294940F242
:102C1000B13001F027F9384601F0D2FC0446007DBE
:102C2000C0070DD0002001F0AFF8A06950B1206AB4
:102C3000D8B31124002001F0D5F82046BDE8FC816E
:102C40000820FBE7E06EA8420DD32A463046A16E6D
:102C5000FDF74EFCE06E401BE066A06E6567284401
:102C6000A0660024E6E7C4E90665384602F04DFA9E
:102C7000054611480069CDE90004E26E6AB1A16E13
:102C8000A069FDF735FCE169E06E091AE161A1690F
:102C90000144A16120670020E0666946284600F0F3
:102CA00021FC0400C6D19224C4E7FFE7C4E908650B
:102CB000F9E7000050050F0000FB0E00FEB51546B9
:102CC0000E46044601F07CFC007D10F0010F0CD094
:102CD000204602F011FAA90609D000210096CDE99C
:102CE0000151694600F048FCFEBD0820FEBD0149C7
:102CF000896AF3E700FB0E00F8B5040004D138A19F
:102D000040F2445001F0AEF8606820B934A140F2BE
:102D1000455001F0A7F86068006820B930A140F282
:102D2000465001F09FF82068006820B12CA140F2C5
:102D3000475001F097F808F007FF10B908F00EFFB0
:102D400020B927A140F24B5001F08CF800250FE08C
:102D5000002705E0007800F0D9FB08B11120F8BD8C
:102D60003946781CC7B2304600F0BEF80028F1D1D1
:102D70002946681CC5B2204600F01AF90600E7D1C2
:102D800000250DE0002703E00078214600F0C4FB99
:102D90003946781CC7B2304600F0A6F80028F3D1B7
:102DA0002946681CC5B2204600F002F90600E9D1A8
:102DB000184D40F2715607E0A04203D108A13046F9
:102DC00001F050F82868056828680028F4D11248F6
:102DD0002C60694680690090204602F09BF8F8BD9F
:102DE0002E2E5C2E2E5C2E2E5C2E2E5C2E2E5C63E8
:102DF0006F6D706F6E656E74735C6C696272617218
:102E00006965735C757362645C6170705F75736231
:102E1000642E6300E8000020ACFA0E002DE9F04FAC
:102E200087B04FF000081D46934689460446DDF8FA
:102E300040A04646CDF80C8000E0761C6068012377
:102E400000224768214603A8B8470028F5D140462C
:102E50008DF800800027B84601903BE060680123B0
:102E60006A46D0F804C0214601A8E0476068012303
:102E700005AAD0F804C0214601A8E0479DF8141027
:102E800049451AD1D84514D19DF80000CAF8000070
:102E900005F8010B6A1C85F8009060689DF8003009
:102EA0002146456801A89B1EA847002007B0BDE841
:102EB000F08F08F1010000F0FF0860689DF8003015
:102EC0000022D0F804C0214601A89B1EE0479DF8CF
:102ED00000000744B742C1D30520E7E70148406836
:102EE00070470000E400002070B50D46040004D1D6
:102EF00006A140F21D1000F0B5FF6078A84201D88D
:102F0000002070BDA0782044284470BD2E2E5C2E79
:102F10002E5C2E2E5C2E2E5C2E2E5C636F6D706FE1
:102F20006E656E74735C6C69627261726965735C04
:102F3000757362645C6170705F757362645F636C0B
:102F40006173735F626173652E68000070B50D4632
:102F5000040004D106A140F21D1000F083FF607848
:102F6000A84201D8002070BDA0782044284470BD3C
:102F70002E2E5C2E2E5C2E2E5C2E2E5C2E2E5C6356
:102F80006F6D706F6E656E74735C6C696272617286
:102F90006965735C757362645C6170705F757362A0
:102FA000645F636C6173735F626173652E680000B8
:102FB00070B50D46040003D106A1EA2000F052FFCF
:102FC000207AA84201D8002070BD05EB45000934E5
:102FD000204470BD2E2E5C2E2E5C2E2E5C2E2E5C80
:102FE0002E2E5C636F6D706F6E656E74735C6C69B2
:102FF000627261726965735C757362645C61707042
:103000005F757362645F636C6173735F6261736544
:103010002E68000070B50D46040003D106A1EA2019
:1030200000F020FF207AA84201D8002070BD05EBF7
:1030300045000934204470BD2E2E5C2E2E5C2E2EB1
:103040005C2E2E5C2E2E5C636F6D706F6E656E74E1
:10305000735C6C69627261726965735C75736264DA
:103060005C6170705F757362645F636C6173735FE2
:10307000626173652E68000010B5040004D1044934
:1030800040F21D2000F0EEFE2068006810BD000038
:103090003C380E0010B5040004D104A140F21D20FC
:1030A00000F0E0FE2068006810BD00002E2E5C2EAF
:1030B0002E5C2E2E5C2E2E5C2E2E5C636F6D706F40
:1030C0006E656E74735C6C69627261726965735C63
:1030D000757362645C6170705F757362642E680002
:1030E00002484078002800D001207047E40000200A
:1030F00010B5002000F0E2F9BDE81040802000F09B
:10310000DDB910B5002000F0DBF9BDE810408020EB
:1031100000F0D6B970B5444E0D4602460978062433
:1031200030780B2933D007DC07296ED2DFE801F0B5
:103130006D0D0F116D2A52000C2930D00D2937D09A
:103140000E293ED0852960D116E0032017E0002427
:103150005BE03548001D03F0CDFC30B13348012160
:103160000160BFF36F8FBFF34F8F30780028EED12F
:103170002FA140F212400FE0032846D104200BF0AB
:1031800035FF42E0104600F08DF804463DE000288F
:10319000DDD027A140F2264000F064FED7E70128E9
:1031A00004D023A140F22C4000F05CFE002005E09A
:1031B0002E48006810F0010F0AD002200BF016FF15
:1031C000C5E7022804D21AA14FF4886000F04AFE35
:1031D0000120F3E7E878032817D0A87830B18028D9
:1031E00004D013A140F24E4000F03CFE0E49E878B6
:1031F00008310A6832B100230B6049689047040027
:1032000005D000E00E2408F0F1FC204670BD0BF064
:1032100043FE28B1A8780028F7D108F0BCFCF4E7F9
:1032200008F0B6FCF1E70000080100205C700240E5
:103230002E2E5C2E2E5C2E2E5C2E2E5C2E2E5C6393
:103240006F6D706F6E656E74735C6C6962726172C3
:103250006965735C757362645C6170705F757362DD
:10326000645F636F72652E630000000038040040E5
:10327000024A0146D2E900021047000080270020E0
:1032800070B50C46054608F07DFCA84201D0102020
:1032900070BD0348D4E90012C0E90212002070BDDD
:1032A000080100207FB5054605208DF800000624A2
:1032B0000DF1010008F072FC0BF0EEFD2949002031
:1032C00008609DF8010010F01F0006D001280FD003
:1032D000022826D0032833D106E0694628460AF0A2
:1032E00019FF044606282AD16846FFF771FC25E03D
:1032F0009DF8050003A900F027FB050008D06A46E9
:103300009DF80C1000F0DEFA0446062802D016E004
:10331000102415E06A469DF80C1028460BF04CF876
:103320000CE09DF80500010705D0694600F07EF825
:103330000446062803D168460AF08EFF044624B1ED
:1033400008F054FC04B0204670BD0BF0A5FD30B170
:1033500008F018FC0028F5D108F01DFCF2E708F091
:1033600017FCEFE710010020FEB5C08814460E469A
:10337000A04201D2054600E01546844207D28020D3
:1033800008F080F8B4FBF0F100FB114068B10020B8
:103390000096CDE90150002000F0F6FC694680203F
:1033A00000F0EAF8040002D006E00120F0E7054949
:1033B0008020FFF765FF0446002000F013FD204643
:1033C000FEBD00003CFB0E0008B140210160014839
:1033D00070470000D427002010B508F0C7FB20B1CB
:1033E00004A140F2AB3000F03DFDBDE8104007F015
:1033F00041BE00002E2E5C2E2E5C2E2E5C2E2E5CEE
:103400002E2E5C636F6D706F6E656E74735C6C698D
:10341000627261726965735C757362645C6170701D
:103420005F757362642E630007F060BE10B50C46D2
:10343000010600F00F02092A08D200F009F800681E
:1034400020B12146BDE8104001F064BD102010BD40
:1034500010B5010600F00F0408D5092C04D309A10A
:103460004FF4B97000F0FEFC134808E0092C04D3B7
:1034700004A14FF4BC7000F0F5FC0F48483000EB9D
:10348000C40010BD2E2E5C2E2E5C2E2E5C2E2E5CCB
:103490002E2E5C636F6D706F6E656E74735C6C69FD
:1034A000627261726965735C757362645C6170708D
:1034B0005F757362642E63003827002007F0E0BE5A
:1034C00010B5044600F00F00082805D2204607F08A
:1034D00007FF204608F058F82046BDE8104007F0E6
:1034E00023BF000070B50C46054607F06DFF18B10C
:1034F00005480078022801D0082070BD21462846E2
:10350000BDE8704007F068BFE400002010B5FFF789
:103510009FFF006810BD000070B50D460646FFF71E
:1035200097FF0446056015B16868006808E00EB1B1
:10353000802E04D103A14FF4CE7000F093FC002044
:10354000606070BD2E2E5C2E2E5C2E2E5C2E2E5CAE
:103550002E2E5C636F6D706F6E656E74735C6C693C
:10356000627261726965735C757362645C617070CC
:103570005F757362642E630070B50C46054607F0F4
:1035800023FF18B105480078022801D0082070BD3B
:1035900021462846BDE8704008F086B8E4000020C7
:1035A000017805290BD107490968064AC9B2121FDB
:1035B000126812F0FF0F02D1052900D10248034919
:1035C0000968084784740240CAFA0E00C827002020
:1035D00070B58A4C0546606820B989A140F2FF3079
:1035E00000F040FC01F070FD062804D284A140F2F6
:1035F000064000F037FC2878092877D008DC092835
:1036000018D2DFE800F07493C29CAFCBD017F30060
:1036100082282DD008DC0A28EFD00F28EDD0802892
:1036200041D0812806D10CE0832847D084284ED091
:1036300085287AD0BDE8704071A14FF4A06000F0F9
:1036400011BC7C48FFF714FE7A48FFF75BFA0D20A7
:103650000BF0E2FFFFF768FAFFF74AFDA06810B928
:103660007548007A00B1012008F0C4FA012088E012
:10367000FFF75AFA08F008FB00200BF03DF96D48FF
:10368000401CFFF73FFA6B48401CFFF7F1FD0E208E
:103690000BF0C2FF207800F05DFB002844D0BDE8AD
:1036A000704005F0F5BD2078052803D0062803D02A
:1036B000072839D1022064E0082062E0207803283E
:1036C00032D108F02BFB00282ED0042059E02078BE
:1036D000032805D108F022FB10B104200BF00CF9EF
:1036E00008F0D8FB00281FD006204AE07FE02078B1
:1036F000032801D0082803D14E48801CFFF768FF3B
:1037000000200BF089FFA46840F239260AE0294620
:10371000204601F0FFFB1CB948A1304600F0A2FB97
:1037200020684468002CF2D170BD37E0FFF7FCF947
:10373000FFF7E7FC02200BF0DFF8012006E020781D
:10374000082809D005200BF0D7F803200BF064FF00
:103750002846FFF78DFD4CE002200BF0CDF808F075
:103760008DF9F2E703200BF057FF3248C01CFFF73A
:103770007FFD3048C01CFFF7C5F92078062899D195
:103780000720BDE870400BF0B7B803200BF0B4F889
:1037900002200BF041FF2846FFF7B4F92846BDE8A8
:1037A0007040FFF765BDA878FFF752FE0446006839
:1037B00020B913A140F2DC4000F054FB606820B94E
:1037C0000FA140F2DD4000F04DFBD4E90002294694
:1037D00090470028A8D0A8780107A5D000F00F01D5
:1037E0000829A1D2BDE8704007F09CBE08200BF06C
:1037F00013FF2846BDE87040FFF784B9E4000020BD
:103800002E2E5C2E2E5C2E2E5C2E2E5C2E2E5C63BD
:103810006F6D706F6E656E74735C6C6962726172ED
:103820006965735C757362645C6170705F75736207
:10383000642E6300BDFA0E00C82700202E2E5C2ED9
:103840002E5C2E2E5C2E2E5C2E2E5C636F6D706FA8
:103850006E656E74735C6C69627261726965735CCB
:10386000757362645C6170705F757362642E68006A
:10387000FFF796BE10B520B104A140F2552000F02C
:10388000F1FABDE810400E48FFF78ABE2E2E5C2EDE
:103890002E5C2E2E5C2E2E5C2E2E5C636F6D706F58
:1038A0006E656E74735C6C69627261726965735C7B
:1038B000757362645C6170705F757362642E63001F
:1038C000ACFA0E00114601F025BB000070B50446AD
:1038D00040680D46C2680AB120469047207AA84247
:1038E00004D20CA140F2F22000F0BCFA2946204696
:1038F000FFF75EFB05464678002408E0214628468F
:10390000FFF7F2FA007807F0BBFC641CE4B2B442A3
:10391000F4D370BD2E2E5C2E2E5C2E2E5C2E2E5CD3
:103920002E2E5C636F6D706F6E656E74735C6C6968
:10393000627261726965735C757362645C617070F8
:103940005F757362642E63002DE9F04180460F4875
:103950000E46456816E02F7A00240DE021462846E1
:10396000FFF726FB0178414504D106B134702846A3
:10397000BDE8F081641CE4B2BC42EFD32846FFF7F7
:103980007BFB0546002DE6D10020F1E7E400002096
:1039900070B50446406815460E4683681BB1204644
:1039A0009847062809D1207AB04204D20E4940F245
:1039B000D32000F057FA0DB1072070BD31462046E4
:1039C000FFF7F6FA05464678002408E02146284627
:1039D000FFF78AFA0078FFF773FD641CE4B2B44283
:1039E000F4D3002070BD000014390E0003460020FF
:1039F0005A681269002A01D0184610477047000023
:103A00002DE9F843044605F0F1FC20B92DA140F260
:103A10000B3000F027FA384808F036F800284DD16E
:103A2000364908704860886048213548FCF788FDB1
:103A3000334848214830FCF783FD3148314D803010
:103A40004CB194E80E00103080E80E002C48903005
:103A5000016821B105E005F134010EC9F3E72A49F7
:103A60000160002005F0C8FC18B1852801D0FEF7E0
:103A700035FE264E00240DE0002703E00078314695
:103A8000FFF74AFD3946781CC7B24046FFF72CFACB
:103A90000028F3D12146641CE4B23046FFF788FACF
:103AA0005FEA0008E8D1686800906946304601F096
:103AB00031FA040004D008F0C3F92046BDE8F883C9
:103AC0000020FBE72E2E5C2E2E5C2E2E5C2E2E5C14
:103AD0002E2E5C636F6D706F6E656E74735C6C69B7
:103AE000627261726965735C757362645C61707047
:103AF0005F757362642E630071380E00E40000206D
:103B000038270020ACFA0E00D1350E007CFB0E00E9
:103B100040B1012808D0022809D007A14FF40F7046
:103B200000F0A0B9114804E01048001D01E00F4862
:103B30000830FFF735BD00002E2E5C2E2E5C2E2E99
:103B40005C2E2E5C2E2E5C636F6D706F6E656E74D6
:103B5000735C6C69627261726965735C75736264CF
:103B60005C6170705F757362642E6300CEFA0E0044
:103B700010B507F0F3FF10B107F0E6FF08B1082019
:103B800010BD044805F04CFC08B1FEF7A7FD00206D
:103B900010BD0000DCFA0E002DE9F0410D4616497B
:103BA00001EB800757F82500017849B10020FFF7A5
:103BB0000BFC57F8255006460024287848B911E038
:103BC000801CBDE8F0811F2C03D30CA1D62000F08F
:103BD00049F9641CE4B215F8010B26F814002878A2
:103BE0000028F0D1022000EB4400C0B240F4407045
:103BF00030803046E5E70000180100202E2E5C2EB4
:103C00002E5C2E2E5C2E2E5C2E2E5C636F6D706FE4
:103C10006E656E74735C6C69627261726965735C07
:103C2000757362645C6170705F757362645F7374F6
:103C300072696E675F646573632E630070B54FF0E1
:103C4000805086B0D0F8A810D0F8A40089B241F412
:103C50004043009009A20D2101A8FEF715FA01AD1D
:103C60000024094E02E0285D3055641C2846FCF70C
:103C700072FCA042F7D806B070BD00002530345861
:103C800025303858000000003828002010B507F013
:103C90005BFF20B909A140F2B23000F0E3F814480C
:103CA0000168C1F3400121B1BDE810401148FFF7A0
:103CB00077BC016811F0010FF2D110BD2E2E5C2EE1
:103CC0002E5C2E2E5C2E2E5C2E2E5C636F6D706F24
:103CD0006E656E74735C6C69627261726965735C47
:103CE000757362645C6170705F757362642E6300EB
:103CF00038040040B1FA0E00034808B5806800900F
:103D00006846FFF74DFC08BDACFA0E0030B44FF02A
:103D1000000180B10D4B002213F8124084420ED1F5
:103D200003EB4200407870B1094A02EB800252F87E
:103D3000212042B100E0002030BCFFF72DBF521C13
:103D4000D2B2062AE8D330BC00207047D8FB0E0060
:103D500018010020092808D2DFE800F0070705074E
:103D60000705050505000120704700207047092858
:103D700008D2DFE800F00707050707070707050077
:103D8000012070470020704710B509F0E9FB0128B9
:103D900003D004A11D2000F065F8BDE8104000F03C
:103DA0004FB800002E2E5C2E2E5C2E2E5C2E2E5C2C
:103DB0002E2E5C636F6D706F6E656E74735C6C69D4
:103DC000627261726965735C7574696C5C61707054
:103DD0005F7574696C5F706C6174666F726D2E6371
:103DE0000000000010B509F0BBFB012803D004A1BE
:103DF0002B2000F037F8BDE8104000F029B8000093
:103E00002E2E5C2E2E5C2E2E5C2E2E5C2E2E5C63B7
:103E10006F6D706F6E656E74735C6C6962726172E7
:103E20006965735C7574696C5C6170705F757469E9
:103E30006C5F706C6174666F726D2E6300000000C1
:103E400072B602480168491C0160704730010020C9
:103E500003490868401E086000D162B67047000040
:103E6000300100201CB56A46CDE90001002144F272
:103E70000200FEF701FC1CBD102802D31038C0B2AE
:103E8000704740F080007047F8B521480146456A08
:103E9000C06A8C6CAC2801D024B106E0486B0444A5
:103EA0002D1A02E003F0EEFC04461A481A49234694
:103EB000401AC708042000EB07400646174A18A11D
:103EC000009506F006F92A4621461448FCF74AFBFD
:103ED000D0B130462B4622461FA106F0F2F800BFB3
:103EE00005F076FF0028FBD103F034FA294620467E
:103EF00004F0AAF8040005D0012000EB074022A13D
:103F000006F0D4F82046F8BD0024304625A1F7E796
:103F1000101D00205C0E0F00DC0D0F0000000E00D5
:103F2000566572696679696E6720424C3A20416431
:103F300064723A203078253038782C205372633AF6
:103F4000203078253038782C204C656E3A20307837
:103F50002530387800000000436F7079696E672063
:103F6000626F6F746C6F616465723A205372633A6A
:103F7000203078253038782C204C656E3A20307807
:103F80002530387800000000526571756573742023
:103F9000746F20636F707920424C206661696C6594
:103FA000640000004E6F20626F6F746C6F61646517
:103FB0007220636F7079206E65656465642C206281
:103FC0006F6F746C6F616465722075706461746585
:103FD00020636F6D706C6574652E000013B90378F3
:103FE000012B01D004F02ABD012070470022C3211B
:103FF00000F5187001F00EB82DE9F043A3B00446A7
:10400000DDE92A9620200F462190984615467C210E
:1040100002A8FCF795FA41212046FCF791FAB7F87F
:10402000940005EB051107EB8101A84201D991F835
:1040300096602670320033D0012A0DD01B481C4DEB
:104040000123401BC00803EB0045022A0CD0032AC1
:1040500020D0284617A117E000224946404600F02C
:10406000D9FFC4F801001BE021A9601CCDE90001C3
:104070004B464246184902A803F0C0FA80B106F048
:1040800053FB0246284615A106F014F8002023B081
:10409000BDE8F083B1F89820601C9A31FCF728FA4B
:1040A0004A464146204604F0C9FCF0E7FC0D0F00EB
:1040B000DC0D0F00496E76616C696420626F6F746D
:1040C0002076616C69646174696F6E2074797065C3
:1040D0003A20256400000000A4F70E006E72665FAF
:1040E00063727970746F5F686173685F63616C633A
:1040F000756C6174652829206661696C6564207738
:10410000697468206572726F722025730000000068
:1041100010B504460A480B49401AC008042101EBB7
:10412000004009A105F0C2FF4FF0000034B10C4976
:104130000870BDE810400B4804F0F6B901F068FAC9
:104140005C0E0F00DC0D0F00526573657474696EB0
:104150006720626F6F746C6F616465722E0000007F
:104160000C00002011560E001CB50446C00701D0FB
:1041700000F06AF8A00708D504480021032300785E
:1041800000910A46019105F0EBFC1CBD7CF70E0086
:1041900038B50446042803D30BA13920FFF762FE8B
:1041A0001448005D0090684605F0F4FCD0F8042542
:1041B000009B0121994021EA0203C0F80835114013
:1041C000C0F80C1538BD00002E2E5C2E2E5C2E2E55
:1041D0005C2E2E5C2E2E5C636F6D706F6E656E7440
:1041E000735C626F617264735C626F617264732E80
:1041F000630000007DF70E0010B50446042803D3C9
:1042000005A12120FFF72EFE0E480121005DBDE82B
:10421000104005F0FDBC00002E2E5C2E2E5C2E2ED4
:104220005C2E2E5C2E2E5C636F6D706F6E656E74EF
:10423000735C626F617264735C626F617264732E2F
:10424000630000007DF70E007CB51E4800684FF04B
:104250000005C00706D04FF01021D1F80403C04379
:10426000400710D0184E00240122305D0095002335
:104270001146019505F074FC641C042CF4D3BDE8D0
:104280007C4000F02BB8114A0120106010480368F0
:10429000002BFCD0D1F8043323F007031B1DC1F819
:1042A0000433156001680029FCD0BFF34F8F094823
:1042B0000168094A01F4E06111430160BFF34F8FC7
:1042C00000BFFDE7400600407DF70E0004E5014019
:1042D00000E401400CED00E00400FA0510B50024F4
:1042E0002046FFF789FF641C042CF9D310BD0000A1
:1042F0002DE9F0470546861C91460F464FF0010A0E
:104300000020FFF741FD1C4C60683860D4E90101D2
:104310001A4F401A3968081A44F21C0104EB0108CC
:104320000EE00121404602F0EEFB02F071F9014679
:10433000404602F0E8FBD4E90101401A3968081A46
:10434000401C8642EDD8B9F1000F03D0052065F37B
:10435000891002E0062065F39F5061683A681140B9
:1043600004EB8101C8606068304460600020FFF7A2
:1043700039FD5046BDE8F087542A00205401002042
:1043800010B543689C18446021B905E013F8010B8F
:1043900001F8010B521EF9D2012010BD70B50D4677
:1043A00004460A2902D10D21FFF7F8FFA068226810
:1043B000411CA1601554D4E90101814204D3204677
:1043C000BDE8704005F07CB870BD0000044881680D
:1043D0004068814201D101207047002070470000F1
:1043E000542A002010B50548012102F0A2FBBFF3BA
:1043F0005F8F08B1002010BD012010BD4C000020CF
:1044000010B5064C2068012803D005A16D20FFF7E8
:1044100029FDBFF35F8F0020206010BD4C000020FD
:104420002E2E5C2E2E5C2E2E5C2E2E5C2E2E5C6391
:104430006F6D706F6E656E74735C6C6962726172C1
:104440006965735C6D757465785C6E72665F6D74BA
:10445000782E680006490020086006494FF4806005
:10446000C1F88001BFF34F8FBFF36F8F704700001B
:1044700000A5025004E000E0034901200860034960
:104480008002C1F80001704700A5025004E000E07E
:1044900070B500F10805106814460E46202802D2B7
:1044A00048F2145070BDFFF79DFF90B1FFF7E4FF95
:1044B00031462846FDF7AEF90546FFF7CBFFFFF77B
:1044C0009FFF284601F0CAFD0028EBD12021216082
:1044D00070BD48F2045070BD10B50830FDF7CAF940
:1044E000BDE8104001F0BABD2DE9F04700F1080920
:1044F0000E461446FFF776FFB8B1FFF7BDFF4FF445
:1045000080584546AC4200D825462A4631460E48DA
:10451000FBF7EEFF2A460C494846FDF7C5F90700B0
:10452000A4EB05042E4404D005E048F20450BDE895
:10453000F087002CE5D1FFF78DFFFFF761FF3846CC
:10454000BDE8F04701F08ABD1006002070B50B48A9
:1045500000240460BFF35F8F094D01202860FDF740
:104560006DFA01002C604FF0030004D0052901D141
:1045700048F2035070BD002070BD00004C000020C8
:1045800000A50250014900200860704700A50250B4
:104590004360CA699A420DD38A69026088691844E7
:1045A0008861086F18440867C869C01AC86100D0DC
:1045B0000120704701F12802026000208B677047DC
:1045C00010B5040003D106493920FFF74BFC2068E1
:1045D00018B903493A20FFF745FC20680C3010BD9C
:1045E00050050F0070B50C46060004D1254940F275
:1045F000B720FFF737FC24B922494FF42E70FFF79C
:1046000031FC207800250F2838D2DFE800F0380888
:104610003838370C113737323738383838003046A9
:1046200000F0A9FB2BE02146304609F05FFE0FE0C9
:10463000304600F0D9FC0146A078002581421ED00A
:104640000106E1784FF0030004D531B901210CE0F7
:10465000054614E021B1012911D00329F8D10EE05B
:10466000304600F099FB0546002130460AF0C6FFAF
:1046700005E0032130460AF0C1FFD0E706252846B1
:1046800070BD000050050F002DE9FF5F0546019841
:10469000DFF8FC931F46017A89F80010164601984E
:1046A00000F048FB804625B9FA4940F2EA20FFF7BE
:1046B000D9FB28684FF0000A54464FF0020BB0F5C2
:1046C000487F72D04ADC40F20232A0F202319042BE
:1046D0006CD027DC40F2F221A0F2F22288426ED0A8
:1046E00013DC40F2EF22A0F2EF23904268D007DC07
:1046F000F0B3A0F50070ED3876D0012863D182E0E8
:10470000012B6ED0022B5ED1A1E0092A6AD004DC15
:10471000012A68D0022A56D1C0E00A2A70D00F2A96
:1047200051D1E6E00E296CD00EDC072969D006DCF9
:10473000012967D0052971D0062944D120E10C292F
:104740006DD00D293FD142E1153909293BD2DFE86F
:1047500001F0FC3A3A3A3AFBFAF9F80040F2333108
:10476000A0F23332884271D00FDCA0F2233000E097
:104770002FE0102827D2DFE800F0F4F3F2F1F02662
:1047800026EFEEEDEC2626EBEAE9242A0CD00EDC2F
:10479000162A73D004DC012A71D0152A13D12DE218
:1047A0001A2A6DD01F2A0ED158E265E1ACE0312AF9
:1047B00067D006DC2B2A70D02C2A04D175E251E098
:1047C0002EE0362AF4D00020C5F800A004B0BDE8E1
:1047D000F09F08202871002F06D840F2ED200DE050
:1047E00002E028E068E04DE00EB1287930700B203F
:1047F00001242871012F06D840F2EE2028602FE016
:1048000065E0C9E08DE00EB12879305598F81400C4
:10481000641C2871BC4203D32A6021E0A5E0CBE0F0
:104820000EB128793055641C85F804B0BC4202D31F
:104830004FF43C70E2E70EB128793055641C85F8DE
:1048400004B0BC4203D340F2F120D7E7ABE10EB194
:1048500028793055641C85F804B0BC4202D3296025
:104860000120B3E70EB12879305598F81900641C7F
:104870002871BC4206D340F2F320BFE7C9E19EE1B4
:10488000DAE126E20EB128793055641C85F804A0DF
:10489000BC4203D34FF43D70B0E7FBE10EB1287981
:1048A000305589F801A0641C37E209202871BC4208
:1048B00002D340F2FB20A1E70EB128793055042045
:1048C000641C2871BC4202D34FF43F7096E70EB1CE
:1048D0002879305599F80110641C0198FEF79AFB6D
:1048E000C9F8040000782871BC4202D340F20130BC
:1048F00084E70EB128793055641C85F804A0BC42C9
:1049000002D340F2023079E70EB128793055D9F858
:104910000400641CBC424078287102D340F203308A
:104920006CE70EB128793055D9F8040098F81410C6
:10493000641C0078814234D185F804B0BC4214D3A1
:1049400010E08EE082E076E06AE057E01FE113E1DC
:1049500007E1FBE0EFE0E3E0D7E0CBE0BDE0B1E072
:10496000A5E099E040F2073048E70EB128793055CC
:10497000641C85F804B0BC4202D34FF442703DE79A
:104980000EB12879305598F81900641C2871BC4282
:1049900002D340F2093031E70EB128793055641C5A
:1049A00025E098F8161081421CD10A202871BC42DB
:1049B00002D340F20E3021E70EB128793055641C45
:1049C00085F804A0BC4202D340F20F3016E70EB1C6
:1049D00028793055641C85F804A0BC42DCD34FF420
:1049E00044700BE72B494FF44570FFF73BFA85F80D
:1049F00004A0BC4202D340F21730FFE60EB1287982
:104A00003055D9F8040098F81410641C00788142DD
:104A10006FD105202871BC4202D34FF44770EDE6F8
:104A20000EB1287930552420641C2871BC4202D371
:104A300040F21D30E2E60EB128793055641C85F84D
:104A400004A0BC4202D340F21E30D7E60EB1287952
:104A500030551020641C2871BC4202D340F21F3034
:104A6000CCE60EB1287930550120641C2871BC4277
:104A700002D34FF44870C1E60EB1287930550520B5
:104A8000641C2871BC4207D340F22330B6E6000014
:104A9000FC00002050050F000EB12879305524206D
:104AA000641C2871BC4202D34FF44970A6E60EB1D3
:104AB000287930550120641C2871BC4202D340F291
:104AC00025309BE60EB1287930550320641C2871EF
:104AD000BC4202D340F2263090E60EB12879305520
:104AE00098F81600641C2871BC4203D340F22730AA
:104AF00084E669E00EB1287930550420641C2871E1
:104B0000BC4202D340F22A3078E60EB12879305503
:104B10002420641C2871BC4202D340F22B306DE685
:104B20000EB128793055641C85F804B0BC4202D31C
:104B30004FF44B7062E60EB128793055641C85F84D
:104B400004B0BC4202D340F22D3057E60EB12879B2
:104B500030550520641C2871BC4202D34FF44C70C0
:104B60004CE60EB1287930552420641C2871BC42D3
:104B700002D340F2313041E60EB12879305506209B
:104B8000641C2871BC4202D340F2323036E60EB1CA
:104B90002879305598F81400641C2871BC4202D35F
:104BA00040F233302AE60EB12879305598F81600D5
:104BB000641C2871BC4202D34FF44D701EE60EB146
:104BC00028793055641C08E098F81610814204D00A
:104BD000574940F23D30FFF745F9D9F804104846EF
:104BE000497889F80210514689F803A08CE0072023
:104BF0002871BC4202D34FF45270FFE50EB1287900
:104C000030550520641C2871BC4202D340F2493063
:104C1000F4E50EB12879305599F80310641CD9F8E1
:104C20000400FEF793F9C9F8080000782871BC4227
:104C300002D340F24D30E1E50EB128793055D9F874
:104C4000040098F81410641C007881420BD10320F2
:104C50002871BC4202D340F25230CFE50EB1287920
:104C60003055641C0FE098F81610814206D185F883
:104C700004B0BC42F2D340F25730BFE52C4940F2B9
:104C80005B30FFF7EFF840202871BC4202D340F2BE
:104C90005E30B3E50EB128793055641C85F804A068
:104CA000BC4202D340F25F30A8E50EB128793055FE
:104CB000D9F8040098F81410641C007881420DD1D2
:104CC000D8F82000BC420078287102D34FF4597004
:104CD00094E50EB128793055641C0FE098F8161051
:104CE000814206D185F804A0BC42F2D340F269307B
:104CF00084E50F4940F26D30FFF7B4F899F80310DE
:104D00004846491C89F803108278C9B29142FFF4E1
:104D10006EAF4178491C89F8011099F8011099F893
:104D200000008142FFF4C1AD4FF45D7066E5000004
:104D300050050F0010B5040003D103492C20FFF7E4
:104D400091F8204610BD000050050F0010B508B1C5
:104D5000032010BD0846FFF733FC0178202901D05D
:104D6000062010BDD0F80210C160C1880182017A0E
:104D70008174002010BD10B5FFF7DCFFFFF720FCA9
:104D80000021818281610162C1660167416781679B
:104D900000F12801816610BD2DE9FC478146FFF72F
:104DA000C9FFFFF70DFC0446484600F0AEF9074680
:104DB0002F4800268068CDE90004E069B0B1D4F83E
:104DC00078804546404500D205462A4604F1280130
:104DD000A069FBF78DFB206F2844C4E91C60A8EB99
:104DE0000500E06660192830A06627E0206F606744
:104DF0002667E666216A304621B1626AA161C4E98C
:104E000007202CE0A06130E004F11802616A82E81A
:104E10004300E26E1AB38A4215D3A36E0A461946BE
:104E2000FBF766FBE16EE069091AE166A16E0144D9
:104E3000A1666067002148460AF0E0FB206A00286E
:104E4000E2D1A66111E0A16EFBF752FBE06E206794
:104E5000E169091AE161A1690818A06105D06946F4
:104E60003846FEF73FFBBDE8FC870020FBE700006B
:104E700000FB0E004360CA699A4204D38A6902604B
:104E80000B67CB6103E001F1280202608B67002011
:104E90007047000010B599B102291ED101220F49B7
:104EA0000F48FDF7ADFE02460E480F49BDE8104021
:104EB000401AC008022101EB00400CA105F0FAB82D
:104EC00006490122A1F1590007F002FD0122034920
:104ED0000348FDF795FE0028F2D010BDE9930020AD
:104EE000FCFD0E006C0E0F00DC0D0F00436F756CA7
:104EF00064206E6F7420726561642066726F6D202D
:104F00004344432E204572726F723A2030782578E0
:104F10002E00000070B50D46040003D10BA1E9205E
:104F2000FEF7A0FF606818B908A1EA20FEF79AFF13
:104F30006068006818B905A1EB20FEF793FF606870
:104F4000294602682046BDE8704010472E2E5C2E90
:104F50002E5C2E2E5C2E2E5C2E2E5C636F6D706F81
:104F60006E656E74735C6C69627261726965735CA4
:104F7000757362645C6170705F757362642E630048
:104F800070B5084C050009D010342168002907D0FD
:104F900008682060496828468847F6E70834F4E73F
:104FA00070BD000084240020054A012120B10128A1
:104FB00005D19170FFF7E4BF51700020FAE7704708
:104FC0008424002010B5040003D10549CA20FEF74F
