:020000040000FA
:10000000282A0020C1030000C9030000CB03000020
:10001000CD030000CF030000D1030000000000006A
:10002000000000000000000000000000D3030000FA
:10003000D503000000000000D7030000D903000032
:1000400069080000DB030000290B0000D108000054
:10005000DB030000DB030000C5070000DB0300003A
:10006000DB030000DB030000DB030000DB03000018
:10007000DB030000DB030000DB030000DB03000008
:10008000DB030000C1080000DB030000DB0300000D
:10009000DB030000DB030000DB030000DB030000E8
:1000A000DB030000DB030000DB030000DB030000D8
:1000B000DB030000DB030000000000000000000084
:1000C000DB030000DB030000DB030000DB030000B8
:1000D000DB030000DB030000DB030000DB030000A8
:1000E000DB030000DB030000DB0300000000000076
:1000F00000000000DB03000000000000DB03000044
:1001000000000000000000000000000000000000EF
:1001100000000000000000000000000000000000DF
:1001200000000000000000000000000000000000CF
:1001300000000000000000000000000000000000BF
:1001400000000000000000000000000000000000AF
:10015000000000000000000000000000000000009F
:10016000000000000000000000000000000000008F
:10017000000000000000000000000000000000007F
:10018000000000000000000000000000000000006F
:10019000000000000000000000000000000000005F
:1001A000000000000000000000000000000000004F
:1001B000000000000000000000000000000000003F
:1001C000000000000000000000000000000000002F
:1001D000000000000000000000000000000000001F
:1001E000000000000000000000000000000000000F
:1001F00000000000000000000000000000000000FF
:10020000DFF80CD000F0AEFA00480047751B000084
:10021000282A002030B450E8012F93B2C489234427
:100220008489A34228BF1B1B0489A34202BFBFF3DA
:100230002F8F002007E0C3EA020340E80134002CBE
:10024000E9D14FF001000A6030BC704750E8012F3F
:10025000C2EA024240E801210029F7D1704730B4D8
:1002600050E8022F1FFAA2F3C488A34202BFBFF3D3
:100270002F8F00200DE0C48923448489A34228BF26
:100280001B1BC2EA034340E80234002CE8D14FF0C4
:1002900001000A6030BC704750E8022FC2EA2242D7
:1002A00040E802210029F7D17047034653E8022FA6
:1002B000D988B2EB324F4FF0000017BF92B241EA3B
:1002C000014142EA014104E05A68B2EB324F08BFF3
:1002D000012043E80212002AE8D1704730B40446F6
:1002E00054E8000F0D4644E80053002BF8D1156088
:1002F00030BC704730B4044654E8000F40EA0105B2
:1003000044E80053002BF7D1156030BC704730B47F
:10031000044654E8000F00EA010544E80053002BAE
:10032000F7D1156030BC704730B4044654E8000F74
:1003300080EA010544E80053002BF7D1156030BC7A
:10034000704730B4044654E8000F00EB010544E860
:100350000053002BF7D1156030BC704730B4044611
:1003600054E8000FA0EB010544E80053002BF7D13F
:10037000156030BC704770B404464FF0000054E87C
:10038000006F0D68AE4207BF44E80023012044E837
:1003900000630E60002B1CBF0020F0E770BC7047AC
:1003A00030B4044654E8000F88422CBF451A054675
:1003B00044E80053002BF5D1156030BC70470000B5
:1003C0000648804706480047FEE7FEE7FEE7FEE7EF
:1003D000FEE7FEE7FEE7FEE7FEE7FEE7E1080000D6
:1003E000010200002DE9F05F0546002092469B4681
:1003F00088460646814640241BE02846414647463B
:10040000224600F00AF953465A46C01A914110D3C9
:1004100011461846224600F016F82D1A67EB01081F
:100420004F4622460120002100F00DF817EB00098D
:100430004E41201EA4F10104DFDC484631462A4625
:100440004346BDE8F09F202A04DB203A00FA02F17F
:10045000002070479140C2F1200320FA03F31943B2
:1004600090407047004870472051000040EA010367
:100470009B0703D009E008C9121F08C0042AFAD25A
:1004800003E011F8013B00F8013B521EF9D270471E
:10049000D2B201E000F8012B491EFBD270470022C6
:1004A000F6E710B513460A4604461946FFF7F0FF73
:1004B000204610BD421C10F8011B0029FBD1801AF8
:1004C000704730B504460020034600E05B1C9342B1
:1004D00003D2E05CCD5C401BF8D030BD2DE9FE4F6F
:1004E00081EA030404F0004421F0004100944FF03D
:1004F000000B23F0004350EA01045ED052EA0304EB
:100500005BD0C3F30A54C1F30A552C44A4F2F3346C
:100510000194A0FB0254C1F3130141F48011C3F311
:10052000130343F4801301FB024400FB034E840ACF
:10053000970A44EA815447EA8357A4FB0768029567
:100540008D0A05FB07854FEA932C04FB0C54270505
:10055000029D4FEA065847EA1637B5EB08056EEBE1
:10056000070C870E920E47EA811742EA8312A7FB17
:100570000201B6EB0B0164EB00042B0D43EA0C33D4
:100580005E1844EB1C50DA465146E7FB0201C5F306
:1005900013044FEA0B3343EA14534FEA0432019C2D
:1005A00043EA0603A4F10C040294009CCDE900B4D4
:1005B00000F089F803B0BDE8F08F00200146F9E7AC
:1005C0000EB5C10F80EAE0700844CA07002140F26E
:1005D00033438DE80E000A460B4600F074F803B072
:1005E00000BD01F0004330B421F0004150EA0102A7
:1005F00006D00A0DA2F56072C1F31301002A02DCD5
:1006000030BC00207047440F44EAC104C100E01828
:1006100030BC00EBC25000F010B8202A04DB203AB6
:1006200021FA02F00021704721FA02F3D040C2F112
:10063000200291400843194670470029A8BF70471F
:10064000401C490008BF20F00100704710B4B0FA08
:1006500080FC00FA0CF050EA010404BF10BC7047A3
:1006600049B1CCF1200421FA04F411FA0CF118BFBD
:10067000012121430843A3EB0C01CB1D4FEA00618C
:100680004FEA102042BF002010BC704700EBC3505F
:1006900010440029A4BF10BC7047401C490008BF8B
:1006A00020F0010010BC704710B5141E73F1000457
:1006B00008DA401C41F1000192185B411A4301D154
:1006C00020F0010010BD2DE9F04D92469B4611B17E
:1006D000B1FA81F202E0B0FA80F220329046FFF7E0
:1006E000B2FE04460F4640EA0A0041EA0B015346B7
:1006F0005A46084313D0114653EA010019D0C8F1F5
:1007000040025046FFF789FF05460E4650465946BF
:100710004246FFF798FE084305D0012004E020463A
:100720003946BDE8F08D0020054346EAE0762C43CB
:1007300037430A986305E40AA0EB08000022FD0A8B
:1007400044EA47540A3002D500200146E9E7010592
:1007500010196941DDE9084500196941BDE8F04D0E
:10076000A2E70000064C074D06E0E06840F00103F8
:1007700094E8070098471034AC42F6D3FFF744FDE5
:10078000045200002452000030B58C1810F8012BE0
:1007900012F00F0301D110F8013B120906D110F835
:1007A000012B03E010F8015B01F8015B5B1EF9D13E
:1007B00001E001F8013B521EFBD1A142E6D300202B
:1007C00030BD00002DE9FC410025DFF89480009544
:1007D0004FF4807601242F460195304601F098FEB3
:1007E00038B1D8F80403204203D0304601F086FE29
:1007F0002543361D64007F1CB6B2082FEDD34FF49D
:10080000BE74204601F084FE48B1204601F076FE19
:1008100045F000456A460221002001F0B5FD15F0C3
:10082000FF0F16D0012600242E420ED008EB8401C3
:10083000D1F81005D1F81015C0F30520094AC1F30D
:10084000014152F8242002B190477600641C082C24
:10085000EAD3002D02DA684603F07AF8BDE8FC819D
:1008600000600040BC02002070B54FF48076304636
:1008700001F007FB114CB50560B1304601F008FBF3
:100880000120C5F80803607920B901206071216852
:10089000002088474FF48276304601F0F2FA0028B3
:1008A0000AD0304601F0F4FA0220C5F808032168A6
:1008B000BDE870400120084770BD0000880000209E
:1008C00002490248091F096800680847DC00002047
:1008D0000149024803F0B6BE280300200030004062
:1008E000F0B54FF080527F4ED2F830017E4FD2F8F3
:1008F0003411431C08D005464FEA010400234FF091
:10090000010C082D05D013E03B783578C3F30314B0
:10091000F4E72CB1012C03D0022C01D0032C07D119
:100920004FF08044C4F80C31C4F810316F4C236090
:10093000441C04D005460C46082D05D061E03C78E7
:100940003578C4F30314F7E72CB1012C03D0022C43
:1009500001D0032C55D1664C2468664D2C60644C44
:10096000241D24682D1D2C60614C083424682D1D25
:100970002C605F4C0C3424682D1D2C605C4C1034B2
:1009800024682D1D2C605A4C143424682D1D2C60B5
:10099000574C18342468574D20352C60544C1C3467
:1009A00024682D1D2C60524C203424682D1D2C6091
:1009B0004F4C243424682D1D2C604D4C2834246861
:1009C0002D1D2C604A4C2C3424682D1D2C60484C65
:1009D00030342468474D40352C60454C343424680D
:1009E0002D1D2C60424C383424682D1D2C60404C49
:1009F0003C3424682D1D2C603D4C403424682D1D52
:100A00002C60082804D10C0002D13C4D3A4C2C60DB
:100A1000082804D10C0002D1394DFB242C60082891
:100A200008D10C0006D192F85852364A146865F382
:100A300003041460082804D10A0002D1324C820158
:100A40002260421C03D139783078C1F303110828A1
:100A50000DD129B1012903D0022901D0032906D1E2
:100A60002A480168C90702D06FF0010101602848D7
:100A7000016841F470010160BFF34F8FBFF36F8FC6
:100A80004FF01021D1F80002002803DBD1F8040256
:100A9000002823DA1F4AC2F800C01F480468002C4F
:100AA000FCD01224C1F800420568002DFCD0C1F82A
:100AB000044201680029FCD0136001680029FCD0C1
:100AC000BFF34F8F12487C380168144A01F4E0618B
:100AD00011430160BFF34F8F00BFFDE7114910487C
:100AE0000860F0BDE00F00F0E80F00F038050040AE
:100AF0000404001020C50040488103008C560040CB
:100B000018F50040E40E004040960240000400400A
:100B100088ED00E004E5014000E401400400FA052E
:100B20000090D003600100200148006800470000E9
:100B30009000002002E008C8121F08C1002AFAD164
:100B400070477047002001E001C1121F002AFBD14D
:100B50007047022000F0B4B970B50024064D06E0DD
:100B60006868012110F8340002F060FA641C2878EB
:100B70008442F5D3002070BD98000020F8B51646D9
:100B80000C4605460A2A01D20720F8BD02F046FBB2
:100B900018B902F007FB0028F7D1134F20211348A2
:100BA0007D603C70BE60FFF77AFC0020C7E904005E
:100BB0000F4E0DE005EBC4003168009181788DF88F
:100BC000011000780B4A694602F07CFA0028DCD15B
:100BD000641EE4B2EED2BDE8F84005480021064AA2
:100BE000001D00F05FB8000098000020D80300202E
:100BF000F04F0000B1180000B114000072B601F00F
:100C00002DFF00BF01F06AFD0028FBD111481249F9
:100C1000401AC408012000EB044010A101F078FE46
:100C200011480068C00700D000BE022000EB04405D
:100C30000EA101F06DFEBFF34F8F0B48E438016841
:100C40000E4A01F4E06111430160BFF34F8F00BF12
:100C5000FDE700008C5200003452000046617461D0
:100C60006C206572726F7200F0ED00E0537973745E
:100C7000656D207265736574000000000400FA055C
:100C80000EB500210091CDE901106A4644F2010041
:100C9000FFF7B4FF0EBD0000014800F070BC00007B
:100CA000B80000203AB100680129426100D000215B
:100CB00001610020704707207047000038B51148D7
:100CC00008235822416800910F49006801F024F878
:100CD000002815D10D4A69460D4800F055FC040066
:100CE0000ED101210A4800F0CAFC0123094A194625
:100CF000074800F01CFC064901200839087020460E
:100D000038BD0000F84F000008040020CD3F00006F
:100D1000B8000020FFFF7F0070B50446007F0D463D
:100D200008B1002070BDA26100F0A8FD401941F19A
:100D30000001C4E90201206900B125612146BDE836
:100D40007040002003F0B8BB014600200877012066
:100D500003F0B2BB00F002B800F008B872B6024867
:100D60000168491C01607047D400002003490868ED
:100D7000401E086000D162B670470000D400002019
:100D800070B5054608680C46411C04D001F08FFB85
:100D9000206801F0CCFA6068411C02D0002101F00B
:100DA000B4FA2968A069C1F82405607D227D29680C
:100DB0001043C1F86C05D4E900122868C0F8142566
:100DC000C0F80C15207D012814D1A068411C02D068
:100DD000002101F09AFAE068411C04D001F067FBA1
:100DE000E06801F0A4FAD4E902122868C0F80825E6
:100DF000C0F8101570BD70B5054608680C46411C5A
:100E000004D001F05EFB206801F09BFA6068411C91
:100E100002D0002101F082FA2968A069C1F82405F6
:100E2000607D217D2A680843C2F86C05D4E9001270
:100E30002868C0F80C15C0F81425207D012814D1AD
:100E4000A068411C02D0002101F068FAE068411C52
:100E500004D001F036FBE06801F073FAD4E9021225
:100E60002868C0F80825C0F8101570BD2DE9FC41B0
:100E70000646C0074FF000050ED0104F0024012297
:100E8000385D009500231146019501F0A5F9641C19
:100E9000042CF4D300F04EF8B0070DD5074E002413
:100EA000361D0022305D032300951146019501F0A7
:100EB00093F9641C042CF4D3BDE8FC81884F000036
:100EC000094908B5085C0090684601F07FFAD0F83F
:100ED0000425009B0121994021EA0203C0F808354E
:100EE0001140C0F80C1508BD884F00000249085C8D
:100EF000012101F0F0BA0000884F00000249085CAF
:100F0000002101F0E8BA0000884F0000084908B548
:100F1000085C0090684601F059FAD0F80405009981
:100F2000C84010F0010000D0012080F0010008BD91
:100F3000884F000010B500242046FFF7D7FF641C3F
:100F4000042CF9D310BD10B500242046FFF7D6FFBE
:100F5000641C042CF9D310BD10B50246064B4FF0AB
:100F6000FF3000215C5C944201D1084610BD491C51
:100F70000429F7D310BD00008C4F00002DE9F04785
:100F80000D468146FFF7E8FF0446042836D2DFF815
:100F900074801B481C4EA8F10C0725B3012D0ED000
:100FA000022D2BD104EB440030444578002D25D090
:100FB000B968002922D02846BDE8F047084704EB6D
:100FC0004401755C0E44717849B10E4A4FF480417A
:100FD000093A8068FFF7A0FE08B987F80390B17856
:100FE00008F80410E2E78068FFF7AEFE04EB440166
:100FF000314418F804008D78A842D7D0BDE8F087B6
:10100000904F0000600000207802002010B50E28EC
:101010000BD011280CD10749074801F08FFF002899
:1010200006D0BDE81040FFF72BBE02491439F3E7A4
:1010300010BD00003C000020E84E000070B5002309
:10104000042810D20D4D00EB4004012A02D10129E1
:101050000CD00022094E00EB4000304461B1012960
:1010600006D0022906D00723184670BD0E30C2B242
:101070002A55F9E74270F7E78270F5E77802002019
:1010800070B506461E480024C0E90161B00720D5AE
:101090000025012211462846FFF7D0FF6D1C0446AB
:1010A000042D02D2002CF4D013E094B940F2333274
:1010B00004211448FFF762FD04000AD1FFF74CFD3C
:1010C000040006D10F48104A0021001FFFF7EAFD77
:1010D0000446F00712D00120FFF7C8FE74B9094892
:1010E0000A4A00210C38FFF7DDFD040006D105484F
:1010F000074A01210838FFF7D5FD0446204670BD98
:10110000540000209C4F0000D9130000A11A0000D9
:10111000530B00002DE9F05F6E4C05460026607809
:10112000B34618B184F801B000F0A2FC6A4F4FF446
:101130007A694FF4C87A4FF00108182D69D2DFE8B8
:1011400005F00C1313384754696E727B727BC584AB
:1011500084848484B3B6B9BCC5C500F089FC386802
:10116000FFF7F2FD06465CE00020FFF7CFFE002807
:101170004FF0000008D0FFF7B9FE022D02D14FF466
:10118000E16008E0484606E0FFF7B8FE022D01D115
:10119000C82000E05046410CC0034FF47A7280181A
:1011A00041F10001257052000023FFF71BF90146B1
:1011B0002AE00020FFF7AAFE00284FF0000004D02C
:1011C000FFF794FE4FF44870E5E7FFF797FEDFE77F
:1011D0000020FFF79BFE00284FF0000002D0FFF731
:1011E00085FECFE7FFF78AFED4E70020FFF78EFEEB
:1011F00000284FF0000002D0FFF778FE01E0FFF773
:101200007DFE257040F6CD4100223868FFF784FD51
:10121000064646E00020FFF753FE257008E0002058
:1012200051E025703DE084F801800120FFF748FE81
:10123000002240F26661E8E784F801800120FFF7B0
:101240003FFE00224FF40051DFE77868FFF77CFD96
:101250000646D5F1110000D02EB10220FFF746FE60
:1012600084F802B01DE0012816D980B2C821484395
:10127000C117C90341EA5041C0034FF47A72801884
:1012800041F1000152000023FFF7ACF801460022B3
:101290007868FFF741FD06460220FFF72FFE84F82D
:1012A00002803046BDE8F09F00F0E2FBB9E700F0B5
:1012B000DFFBB4E700F0DCFB04E000F0D9FB00202A
:1012C000FFF71CFE0120FFF719FEAAE7FFF73BFE20
:1012D000A7E7000054000020904F00002DE9F047E0
:1012E0000546861C91460F464FF0010A0020FFF785
:1012F00031FD1B4C04F21C4860683860D4E90101E0
:10130000184F401A3968081A0EE00121404600F0D3
:1013100048FD00F0DDFB0146404600F042FDD4E907
:101320000101401A3968081A401C8642EDD8B9F10B
:10133000000F03D0052065F3891002E0062065F355
:101340009F5061683A68114004EB8101C860606891
:10135000304460600020FFF7FFFC5046BDE8F08796
:10136000040600200C01002070B50D4604460A2931
:1013700002D10D21FFF7F8FFA0682268411CA1608F
:101380001554D4E90101814204D32046BDE87040E0
:1013900000F029BE70BD00000448816840688142A9
:1013A00001D1012070470020704700000406002092
:1013B000034630B5074800210478426806E000BFC4
:1013C00002EBC10005789D4203D0491CA142F7DB26
:1013D000002030BD9800002000780221FFF7CEBD2C
:1013E00005494FF0FF32082841F8202002D3084475
:1013F00080F8582070470000BC020020F0B54FF084
:10140000FF3512B10023082601E008230C260C4CFE
:1014100005E000BF54F823707F1C04D05B1CB3426E
:10142000F8D32846F0BD26185DB286F8305044F84F
:101430002310002AF5D1E11881F85800F1E70000E7
:10144000BC0200200249084490F9300070470000B7
:10145000BC02002070B5084C050009D0103421688A
:10146000002907D008682060496828468847F6E7C1
:101470000834F4E770BD0000A8020020054A0121ED
:1014800020B1012805D19170FFF7E4BF5170002011
:10149000FAE77047A802002010B5D0E90234D1E97C
:1014A0000220D11AA04101D3012010BD002010BD9F
:1014B00070B500240F4D10E0686800EBC40630786A
:1014C00001F068FE7178012901D0012100E00021BE
:1014D0004140307800F05CF9641C28788442EBDBF2
:1014E000D5E90401084303D0BDE8704003F000B81B
:1014F00070BD00009800002010B50021024800F0E7
:101500005BFC80F3100010BD200A00204FF48032F5
:101510008A400168C1F848230068C0F80823704772
:101520004FF4A07202EB810189B200F09DB92DE960
:10153000F04105460E464FF4A07000EB860081B2E4
:1015400028684FF48034B440984622F07F47C0F8B2
:1015500008432868C0F84843286801F052FC28680E
:1015600000EB8600C0F840752868C0F84443B8F125
:10157000000F02D02868C0F80443BDE8F08100687D
:10158000D0F804057047000070B54379234C44F847
:1015900023204279231D03EBC202224C1579204AF5
:1015A000121BD4082DB10825022000EB04401EA117
:1015B00030E005680A88C5F8082590F90420897884
:1015C000002A4FEA411104DB02F1E02282F8001404
:1015D00005E002F00F0202F1E02282F8141D90F9FA
:1015E00004100122002909DB01F01F0502FA05F5AC
:1015F0004909890001F1E021C1F800514179002534
:1016000003EBC1010A71417943F83100032000EB7B
:1016100004400EA101F07CF9284670BDD8000020DE
:10162000745200003452000052544320696E7374A7
:10163000616E636520616C726561647920696E69B1
:101640007469616C697A65642E0000005254433AF3
:1016500020696E697469616C697A65642E000000A6
:1016600090F90400002809DB00F01F0201219140DD
:101670004009800000F1E020C0F8001270470A46DF
:10168000022100F07BB84FF4827100F0EDB80068E1
:1016900001210160704700680121416070472DE918
:1016A000F05F07460C464FF4A07000EB84001FFA71
:1016B00080FA38684FF48036A6409B4622F07F457A
:1016C000C0F848633868C0F808633868D0F8048503
:1016D00000EB8402D2F84095C2F840855146386844
:1016E00001F08FFBA9EB080020F07F40012806D114
:1016F000102001F093FC5146386801F082FB3868F5
:10170000D0F80485C0F84463A5EB080121F07F41BF
:101710003868012900EB840010D0C0F840553868C3
:10172000D0F804156FF07F4C6A1A521E22F07F42E7
:10173000ACEB0B03934217D362B118E06D1CC0F8F9
:101740004055102001F06AFC3868D0F80405404587
:101750000AD10CE000EB84006D1CC0F840553868DD
:10176000D0F80405884202D00D20BDE8F09F012288
:101770003146384600F002F80020F6E70368C3F867
:101780004413002A02D00068C0F804137047000018
:101790002DE9F0470E463249804601EB5001C00763
:1017A000097801D00F0901E001F00F07424601203E
:1017B0000021FEF748FEDFF8AC9004460D46052FE9
:1017C0004BD2DFE807F0031419262A00002E44D07C
:1017D0000121404602F094FD0020FFF7BBFA484685
:1017E000D0E904120C431543C9E9044530E00EB1B9
:1017F000022114E0002112E04EB10321404602F024
:101800007FFD4046BDE8F047012103F057BB0121B1
:1018100005E0002E21D1042101E02EB10321404634
:10182000BDE8F04702F06CBD0021404602F068FDC3
:101830000021404603F042FB0020FFF78BFA4A46A6
:10184000E043D2E90434184024EA0501C9E904015F
:10185000BDE8F0470020FFF77FBABDE8F087000041
:10186000D80300209800002010B5006842581AB133
:1018700001F0C7FA012010BD002010BD10B50B48C3
:10188000FFF77DFE094A083AD2E90434C018D2E9CC
:10189000063244F10001C31A71EB020204D24FF088
:1018A0008072801841F1000110BD0000B8000020D6
:1018B00010B5C0B2FFF77CFD0446007801F06AFC69
:1018C00001466078012801D0012000E0002090EA64
:1018D000010F08D00449D1E90401084303D1BDE850
:1018E000104002F005BE10BD980000202DE9FC5FFD
:1018F0000E008346DDE90C47C6F10000984692468B
:10190000814600D40846012503E000BF90FBFAF0B1
:101910006D1C5045FADAA84500D9454624B1002E81
:1019200001DB780700D5641EB80702D5B8F1000FB7
:101930000AD0F80708D13CB1A54205D2202158466B
:10194000641EFFF711FDF6E7002E02DA4E462D2148
:1019500002E0780703D52B215846FFF705FD07F075
:10196000030002280BD1B8F1000F08D13CB1A54209
:1019700005D230215846641EFFF7F6FCF6E7CDE9A4
:101980000047434652463146584603F03DFABDE80B
:10199000FC9F4870002008707047000070B50D462D
:1019A000044600684FF4887101F0ECFA4FF490712E
:1019B000206801F0E7FA4FF49271206801F0E2FA32
:1019C0004FF4A271206801F0DDFA4FF4AC71206889
:1019D00001F0D8FA20681249C0F80413206869079A
:1019E00040F30730090E002804DB00F1E02080F806
:1019F000001405E000F00F0000F1E02080F8141D55
:101A0000206840F30730002809DB00F01F020121A5
:101A100091404009800000F1E020C0F8001170BD45
:101A200010034200024600201268530713D502F04B
:101A30000300012802D002280CD105E0C2F3831074
:101A40000B68801C184404E00223086803EB9252E0
:101A500010440860012070470268134602E08A4281
:101A600004D01268002AFAD10B60016070470000B0
:101A70000A4810B5807860B1002401E0022C06D03D
:101A80002046FFF733FA641C042CF7D310BD03245F
:101A9000F6E7BDE81040FFF74DBA00005400002003
:101AA00003480179C90702D00078FFF733BB7047BC
:101AB0005400002010B54FF48041002000F0A2FF38
:101AC00008B1FFF7DDF8BDE8104000F0F9BD0000F7
:101AD0002DE9FF410026244800F060F92248001F4C
:101AE000074600F05BF9214C2149A06800900D6881
:101AF00000E000986946284004EB80000C30FFF7B6
:101B000091FF0028F5D101AA009901EA050304EB31
:101B10008303491CDB6842F82030401C00910228F6
:101B2000F2D3019800F0030001280BD0022810D155
:101B30000198032101EB90500099BDF80A6001EB78
:101B4000900005E00198BDF80A60C0F383100844D6
:101B50000090384600F01FF908B10098A06004B06A
:101B60003046BDE8F08100001C0A00200406002079
:101B70000C0100201FB5FFF79DFF0120FFF776F94C
:101B800000F08EF908B1FFF77BF8002000F0A6F90D
:101B9000FFF794F808B1FFF773F824490220FFF724
:101BA0006FFA08B1FFF76CF801F036F808B1FFF7EB
:101BB00067F81F481F49401AC008052101EB004083
:101BC0001DA100F0A5FE00BF00F088FD0028FBD19C
:101BD000224B0FCB8DE80F0020486946183801F0E2
:101BE00063F908B1FFF74CF802F086F900241B48AE
:101BF00001231B4A21461838009401F073F908B1FB
:101C0000FFF73EF815480123164A002118380094C2
:101C100001F068F908B1FFF733F801F011F800BFDF
:101C200000F05CFD0028FBD1F7E700000D1000007C
:101C30008C520000345200000D0A545749206D6147
:101C400073746572206578616D706C652073746162
:101C5000727465642E200D0A00000000004F000021
:101C6000DC4E0000804F00002DE9F047C5881E1DA6
:101C7000B6FBF5F78946B6FBF5F1044605FB176C94
:101C8000407916686843DDF820A0F718001F8742E6
:101C900000D9C61A166001E02468491E0029FBD14C
:101CA000A5EB0C078846B74216D818E004EB0C00E9
:101CB000001D09EB0803BAF1000F3A4602D00146B5
:101CC000184600E01946FEF7D1FB2468F61B4FF0DA
:101CD000000CB844B54201D9374600E02F46002E2B
:101CE000E4D1BDE8F087000030B5024651B100F004
:101CF0009DFE0021074C08E034F821301568AB4206
:101D000002D11160002030BD491C8142F4D305206E
:101D100030BD00000000000010B531B1B2FBF3F49B
:101D200003FB14241CB1092010BD0E2010BD01605E
:101D30000021416081608281C381084610BD70B579
:101D40000C460546FEF766FA002802D0218828686E
:101D5000084470BD10B50A8849888A4203D1FEF74D
:101D60009BFA012010BD002010BD70B50C46054641
:101D7000FEF775FA002802D061882868084470BD13
:101D800010B50A8849888A4203D1FEF75FFA01201C
:101D900010BD002010BD002100F009B8012100F0A5
:101DA00010B808B56A46FEF7CCFA009808BD08B529
:101DB0006A46FEF7ACFA08BD08B56A46FEF78EFA29
:101DC00008BD08B56A46FEF795FA009808BD08B543
:101DD0006A46FEF7C3FA009808BD70B504460025B0
:101DE0002846FEF7B7FF21686268086890420ED95E
:101DF000401E08600178238AE26801FB0325227AED
:101E00002168101AC0B20A79824200D208710020FB
:101E1000FEF7A2FF284670BD70B505460C460020AF
:101E2000FEF798FFE868298A201AB0FBF1F12A68CA
:101E30001068431C13600170BDE870400020FEF77D
:101E40008BBF10B530B1017A42680368891AC9B2F4
:101E50001A6006E00E2010BD03681A68541C1C604E
:101E60001170491EC9B2F7D20068002101710846FD
:101E700010BDC20800F007030120895C98400840AB
:101E8000704700F180400068002800D001207047B2
:101E900008B500F18040002101600068009008BD95
:101EA00070B50C4C0125207808B185260BE0002088
:101EB000A06060602061E060074801F087F8064696
:101EC00001F06EF8257001F063F800B1A57030469E
:101ED00070BD0000A80200207D14000070B5104DF8
:101EE0000446A87838B114B1616801208847002001
:101EF000FEF730FF0CE00020FEF72CFF24B108486D
:101F000021461030FFF7A8FDE86808B901F06EF827
:101F1000E868401CE860BDE870400020FEF71CBF88
:101F2000A80200202DE9F041064604780B4815462A
:101F30000F4640F82420083040F82430487B10B188
:101F4000084602F0EEFA0DB1054A00E000222346F1
:101F50003946301DBDE8F04101F0C0B964000020F1
:101F600005460000F0B505460478154889B01646C8
:101F700040F82420124A08690832A2F10C0742F8FE
:101F80002400487F385520226846FEF76FFA0494F3
:101F90002878385C48B10EB10A4A00E00022694650
:101FA000281D01F091FB09B0F0BD0EB1064A00E01A
:101FB0000022694605F10C0001F050FAF3E7000039
:101FC00078000020C54C00000D4B00000FB408B590
:101FD0000399002904D004AA00926A4600F00FF881
:101FE00001B05DF814FB10B582680446002A05D0E4
:101FF000D4E90403216898470020A06010BD2DE9B2
:10200000FC4791460C00804676D014F8011B39B18C
:1020100025290ED04046FFF7A7F920780028F4D1F3
:1020200098F80C00002867D04046BDE8FC47FFF751
:10203000DABF0020012221782B291BD02D2902D0C4
:10204000302908D102E040F0010001E040F0020038
:10205000641C002AEFD100252A290ED02178A1F195
:1020600030020A2A11D205EB850201EB4205641CFD
:10207000303DF1E740F00400EAE7D9F800100B1D0D
:10208000C9F800300968641C0D44217800232E290A
:102090000BD114F8011FA1F130020A2A05D203EB7B
:1020A000830201EB4203303BF3E76C290DD0682932
:1020B0000BD0692921D00BDC252918D0582931D023
:1020C00063290ED0642915D117E014F8011FECE73D
:1020D000702969D0732932D075291BD0782909D18C
:1020E00020E0D9F80000011DC9F800100178404631
:1020F000FFF73AF9641C90E76CE0D9F800100A1D6C
:10210000C9F800200968CDE900500A224046FFF7CF
:10211000EDFBEFE7D9F800100A1DC9F800200968A7
:102120000A2206E0D9F800100A1DC9F80020096843
:102130001022CDE90050404602F066FEDAE7D9F8F9
:10214000001000270A1DC9F800200E68C00705D13D
:1021500012E04046761C7F1CFFF706F93178002913
:10216000F7D104E0202140466D1EFFF7FDF8BD4287
:10217000C0D9002DF6D1BDE74EB13046FEF79AF931
:10218000074604E0202140466D1EFFF7EDF8BD42F2
:1021900006D9002DF6D103E04046761CFFF7E4F89F
:1021A00031780029F8D1A5E7D9F80000011DC9F858
:1021B0000010056830214046FFF7D6F878214046E8
:1021C000FFF7D2F808200021CDE9000103461022D4
:1021D0002946B0E7BDE8FC872DE9FF411C46DDE953
:1021E0000A7815460E46684600F0F0F846EA4501C2
:1021F00041EA840141EA072242EA0841009A00EBE1
:102200008200C0F80017BDE8FF812DE9FF411C46A0
:10221000DDE90A7815460E46684600F0F3F846EA0E
:10222000450141EA840141EA072242EA0841009A55
:1022300000EB8200C0F80017BDE8FF8170B52028D0
:10224000DDE9046502D24FF0A04402E0074C00F043
:102250001F0041EA420141EA830141EA062104EB01
:10226000800041EA0541C0F8001770BD000300502E
:102270002DE9FF411C46DDE90A7815460E46684601
:1022800000F0CEF846EA450141EA840141EA07221E
:1022900042EA0841009A00EB8200C0F80017BDE84E
:1022A000FF812DE9FF411C46DDE90A7815460E46FF
:1022B000684600F0C3F846EA450141EA840141EA74
:1022C000072242EA0841009A00EB8200C0F800179A
:1022D000BDE8FF811CB5002100910B460122019150
:1022E000FFF7ACFF1CBD1CB5002100910B4601227D
:1022F0000191FFF7BDFF1CBD1CB5002100910B46ED
:1023000001220191FFF7CDFF1CBD1CB500220B4639
:10231000009211460192FFF7ABFF1CBD1CB50022D5
:102320000B46009211460192FFF7BBFF1CBD1CB586
:10233000002100910B46012201911146FFF798FF01
:102340001CBD1CB5002100910B46012201911146D4
:10235000FFF7A7FF1CBD13B50C46684600F052F806
:10236000009900EB8101D1F8002722F44032C1F836
:102370000027009900EB8100D0F8001741EA0441E2
:10238000C0F800171CBD00003CB50A4CD4E900346D
:10239000CDE900346B46441808E000BF53F8201024
:1023A000D1F8205520C2C1F82055401C8442F5D8F0
:1023B0003CBD0000C84F000001B5684600F014F8AD
:1023C000009A01219140C0F80C1508BD0168202930
:1023D00002D24FF0A040704701F01F010160014898
:1023E00070470000000300500168202902D24FF01E
:1023F000A040704701F01F010160014870470000D4
:10240000000300500168202902D24FF0A04070471D
:1024100001F01F01016001487047000000030050F7
:102420000168202902D24FF0A040704701F01F013F
:102430000160014870470000000300500168202936
:1024400002D24FF0A040704701F01F010160014827
:10245000704700000003005042094FF0000102D015
:10246000012A05D102E04FF0FF3101E04FF6FF7184
:1024700000F01F00012282400A4201D00120704773
:102480000020704701B56846FFF7BCFFD0F8100583
:102490000099C84000F0010008BD01B56846FFF78B
:1024A000A3FF009A01219140C0F8081508BD01B5AD
:1024B0006846FFF7B5FF009A01219140C0F8081562
:1024C00008BD01B56846FFF7B9FF009A01219140A8
:1024D000C0F8081508BD38B501240090684631B130
:1024E000FFF774FF00998C40C0F8084538BDFFF72E
:1024F0006DFF00998C40C0F80C4538BD034908B504
:102500000844002101600068009008BD00600040A0
:1025100002494058012800D0002070470060004068
:1025200030B5154A01460020D2F8104423460AE08F
:10253000DB681D79854205D1401C0A28F6DB4FF087
:10254000FF3030BD1B68002BF2D1431CF9D0CB68A3
:102550001871D2F8103443B1DB68CC681B68236073
:10256000D2F81024D268116030BDC2F81014C968C6
:1025700000220A6030BD000004060020F0B595B0CE
:102580001C4615460F4608461A9E00F01FFB1821F0
:1025900009A8FDF784FF0E96CDE90954002308220F
:1025A00003A9384600F027FB05980690BDF81000F7
:1025B000ADF81C00BDF81200ADF81E0000208DF82B
:1025C00021000398082600F00300012802D0022809
:1025D00018D032E003983346850AC0F3C2008DF864
:1025E000200003980FA9C0F38314A200384600F01E
:1025F00002FB09A8009006AB22460FA9284600F06E
:1026000041FA1AE00398840DC0F3C2008DF820004F
:10261000082C01D2254600E0082533462A460FA99A
:10262000384600F0E8FA2E44641B09AB06AA294696
:102630000FA800F08FF9002CEAD1384600F0CCFA50
:1026400015B0F0BD7047012002F07EBA084810B501
:102650000178084A515C19B1001D01F0CFF802E081
:102660000C3000F0C9FFBDE81040002002F06CBA49
:10267000F00000207400002008B5034A00924023B7
:10268000024AFFF77BFF08BD614100006C04002097
:102690000A4A012902EBC00007D0022907D003290A
:1026A00007D0042907D0002070470220704704207B
:1026B000704700797047407970470000345200003D
:1026C00010B5FFF7C0FF04210348FFF729FF0249B7
:1026D0000120C968487110BD245200002DE9F0475F
:1026E0008CB0FEF759FE18B100200CB0BDE8F087A1
:1026F0007D4C0020C4F81804BFF34F8F7B49A068BD
:1027000002900D684FF00008284004EB80000BE0B9
:10271000D4F8180470B961680298814201D8A160A8
:10272000E2E7284004EB80000C3002A9FFF77AF9B9
:102730000028EDD1002003AA029901EA050304EB69
:102740008303491CDB6842F82030401C02910228B8
:10275000F2D3039800F00300022802D001284DD0E4
:10276000A7E003985022810D8946B2EB905F00D814
:1027700050210E4666F39F50039008315C4800F0EC
:10278000DCF9070078D000F021FA4346082203A9BB
:10279000384600F038FA029908F1080A2940681A08
:1027A0008000001D864222D94F4D0C3530B1C2B297
:1027B00004EB8101301A90460C3104E02946F2B254
:1027C000002590462846C6B25346384600F01BFA0C
:1027D0000AEB080325B132462946384600F013FAC1
:1027E000029909F1030001EB900002903BE004EB39
:1027F00081015346324638460C31EFE70398C0F367
:102800008310062800D30620039960F38911C1F3D1
:102810008310801C03918100354800F08EF9070079
:1028200047D000F0D3F94346082203A9384600F008
:10283000EAF908F1080800260FE00298434600EA8A
:102840000501401C04EB81010290042238460C3142
:1028500000F0D9F908F10408761C0398C0F383103E
:10286000B042EAD847B1D4F81054D4F8180478B17B
:10287000384600F0B1F931E01BE0E8684079012802
:1028800004D12A682846394612689047E8680568E6
:10289000002DF2D1384600F09FF90020FEF75AFAD9
:1028A000D4F8180408B90298A0600020FEF754FA82
:1028B00014E0D4F8104405E0216820468968884770
:1028C000E0680468002CF7D10A480B49401AC00898
:1028D000022101EB004009A100F01AF8FEF75CFDAF
:1028E00080F0010001E70000040600200C01002038
:1028F000945200008C520000345200004261636B1D
:10290000656E647320666C75736865640000000012
:1029100000231A4601F00CBD08B5012300926A4657
:1029200001F006FD08BD3EB5069C8DE81C000323A2
:102930006A4601F0FDFC3EBDF0B587B00DF1300CEC
:102940009CE8F0008DE8FC0006236A4601F0F0FCEC
:1029500007B0F0BD2DE9F0470E4680461C46924672
:10296000082940D894F80C9000202073194610468E
:1029700001F07CF80025B54206D218F805201BA10D
:102980002046FFF723FB03E01AA12046FFF71EFBBA
:102990006D1C082DEFD318A12046FFF717FB00256B
:1029A000B54212D218F805707E2F08D8FDF75AFDEF
:1029B0000068C05D10F03E0F01D03A4600E02E22C4
:1029C0000EA12046FFF702FB03E00DA12046FFF712
:1029D000FDFA6D1C082DE3D301222146504601F07B
:1029E00027F884F80C90BDE8F087000020253032ED
:1029F00078000000202020007C00000025630000FB
:102A000020000000064910B500200870054800F0BD
:102A1000E1F8002803D1044800F0E5F9002010BDDA
:102A20000406002094520000905000000248034920
:102A3000401AC00870470000945200003452000051
:102A400013B56846FFF750F908B100201CBD0248D5
:102A5000009950F831001CBD3452000070B5084890
:102A60000125D0F81044057007E0E0684571216841
:102A7000204649688847E0680468002CF5D170BD9D
:102A8000040600202DE9FF4781460C9D00200C46DE
:102A90002F7B2873984616462946184600F0E6FF15
:102AA000072E42D2DFE806F004090F161F2A36006F
:102AB00049462846FFF78AFA37E049462846226801
:102AC000FFF784FA31E0D4E9002349462846FFF7AE
:102AD0007DFA2AE0A0680090D4E900234946284600
:102AE000FFF774FA21E0D4E90201CDE90001D4E94D
:102AF000002349462846FFF769FA16E004F108006A
:102B000007C88DE80700D4E9002349462846FFF7A7
:102B10005DFA0AE004F108000FC88DE80F00D4E95F
:102B2000002349462846FFF751FA0022294640462D
:102B300000F07EFF2F73BDE8FF872DE9F041058A85
:102B400080462D1F4819C01CB0FBF5F0C6B24046A8
:102B5000FFF743F9041E19D0002020710120607195
:102B6000E58000272546761EC4F800800BE040462D
:102B7000FFF733F960B16179491C6171286005463E
:102B80007F1CC0F80080B742F1D32046BDE8F08139
:102B9000204600F002F80020F8E72DE9F0414579E1
:102BA00001466B1E002201E00968521C9A42FBD3C9
:102BB0000F680146002605E038460C68FFF72CF93F
:102BC0002146761CAE42F7D3BDE8F0810121001DFD
:102BD000FFF7E7B8FFF735B910B504460121001D2E
:102BE000FFF7F5F810F0FF0F04D12046BDE81040C4
:102BF000FFF7D3BF10BD1CB501920122009201AABC
:102C0000FFF732F81CBD1CB501920022009201AA08
:102C1000FFF72AF81CBD0000064910B500204870D7
:102C2000091D0860BFF35F8F0349044800F0EFF807
:102C3000002010BDE400002040500000600400208F
:102C400010B50020FEF786F8F1EE100A20F09F0084
:102C5000E1EE100ABFF35F8F05494020C1F8800202
:102C60000020FEF779F820BF40BF20BF10BD000054
:102C700004E000E02DE9F0410446002790460E46AE
:102C80003846FEF767F8204600F038F830B10527DF
:102C90000020FEF761F83846BDE8F081206805683D
:102CA000B8F1000F05D10168204600F03FF8216817
:102CB0000860E268012A0CD0022A0ED0042A11D042
:102CC0006068082A13D005FB02013046FDF7CEFBF1
:102CD000DEE76068405D3070DAE7606830F8150064
:102CE0003080D5E7606850F825003060D0E700EB11
:102CF000C500D0E90010C6E90010C9E701680868FE
:102D00004968884201D1012070470020704701685E
:102D10000A6849688068884201D9491C00E000219E
:102D2000914201D10120704700207047806888429D
:102D300001D9481C7047002070472DE9F041044636
:102D40004FF000080E464046FEF704F82046FFF715
:102D5000DEFF070009D0207C38B14FF004080020C6
:102D6000FDF7FAFF4046BDE8F081206845684168FC
:102D70002046FFF7DBFF2168486037B12068016813
:102D80002046FFF7D3FF21680860E268012A14D0CB
:102D9000022A16D0042A19D0082A1CD060683146AD
:102DA00005FB0200FDF762FB204600F0B7FE21683C
:102DB0008A688242D3D28860D1E76168307848550A
:102DC000F2E76168308821F81500EDE76168306846
:102DD00041F82500E8E7D6E90001626802EBC50288
:102DE000C2E90001E0E78268002191608268116118
:102DF000826851618268D160826851608068016038
:102E0000704708B5002242504058009008BD01604C
:102E100009684160AFF3008010B5D0E90021536824
:102E2000994201D1002104E0D1E90034A34202D04B
:102E30001946816010BD08314160F0E770B50D465C
:102E40000646446804E0B2682946904718B12468F1
:102E500020680028F7D120682860256070BD406890
:102E60000068704741680868002801D002680A605D
:102E7000704702460020526806E08B4203D1086882
:102E80001060012070471A461368002BF5D1704777
:102E90004058002800D00120704708B50022425059
:102EA0004058009008BD000070B504460346083045
:102EB0000E460B4A0546FFF735F800280FD1281DAE
:102EC00000F0FCF921680020086096E82E002068D8
:102ED000001D80E82E002068011D4161002070BDAA
:102EE000C74500002DE9F0418046134886B01D46D5
:102EF0000C9C006816460F4600900F491422091DCD
:102F000001A8FDF7B3FA6846CDE902068DF8105026
:102F100001A94046059700F011F8002808D101E00A
:102F200004B1A0479DF800000028F9D19DF80100E8
:102F300006B0BDE8F08100004C50000073B50546B6
:102F4000406801A9FFF7F9FE040003D100212846DB
:102F500001F02CF920467CBD4058002800D001200B
:102F6000704708B5002242504058009008BDD0F884
:102F70000403084000D0012070474058002800D0CA
:102F80000120704708B5002242504058009008BD0B
:102F900002480068002800D001207047000401406A
:102FA00008480068012110F0010F06D14FF0E02021
:102FB000C02280F800248430C167034901200860E2
:102FC0007047000000E100E0180500400649024695
:102FD00000200B790BB1852070470A6001220A712D
:102FE00000224A71704700008800002010B54FF49D
:102FF0008270FEF74DFF02204107C1F80403024929
:103000000120086010BD000008000040002802D028
:103010000149800108477047C14F0000002802D0D5
:103020000149800108477047115000002DE9F04127
:103030000D46064600F074FC0028304615D0FEF719
:1030400001FA083800F0ECFC032802D001280AD06D
:1030500003E03046FFF716FA28B103213046BDE8F9
:10306000F041FFF778B90221F8E700F065FC00288D
:1030700022D03046FEF7E6F904464FF4807000EBAC
:1030800084000E4F81B207EB8400D0F8102542F087
:103090000102C0F810250846FFF730FA002D0BD0CA
:1030A0003046FEF7CFF9064951F82000002803D03A
:1030B0000120A040C7F80403BDE8F0810060004093
:1030C000BC0200202DE9FC41DFF8BC80044608EB7F
:1030D0000400002790F930001346C0170E46401C2C
:1030E00001D008274DE0B0781946C0F340022046D1
:1030F000FEF784F90546401C42D0B07841071AD447
:10310000C0070DD068460094FFF77CF9009900EBEA
:103110008101D1F8000720F00200C1F8000707E0A4
:1031200000217378204600910A460191FFF76DF85F
:10313000204600F0E7FBB078800718D513483178B7
:1031400000EB8500D0F81025114B1A40C0F810256F
:103150004FF47C524FF4403302EA042203EA014167
:103160000A43D0F810150A43C0F8102509E008EB0F
:103170000500327810F8581F41EA8211017000E012
:1031800004273846BDE8FC81BC02002000600040F6
:10319000FFC0FCFF10B5FFF775F9002800D0012033
:1031A00010BD000070B51A4D95F86A0008B10820EE
:1031B00070BD0024661E2046FFF74EF910B1281995
:1031C00080F83060641CE4B2302CF4D30024204634
:1031D000FEF706F9641CE4B20C2CF8D30C4800216D
:1031E0000C4C4166A0F868100B49C02081F800041F
:1031F00001264020891FC1F800014FF4BE70FFF77F
:103200007DF9A004C4F8040385F86A60002070BD4D
:10321000BC0200200060004006E000E0034890F897
:103220006A00002800D0012070470000BC02002086
:103230000121B1EB507F01D1012070470020704780
:1032400070B50D4600F05EFC04000FD00020FDF7C5
:1032500081FD207920B10020FDF77EFD112070BD99
:103260000120256020710020FDF776FD002070BD53
:1032700010B500F047FC002802D000210160017168
:1032800010BD000001790B4AC1EB0111006802EB8F
:103290008101094AC0F80823D0F8002222F0030275
:1032A000C0F800220022C0F80025012081F82E007D
:1032B0007047000028030020864204000179064A76
:1032C000C1EB0111006802EB81010522C0F8002565
:1032D000022081F82E007047280300202DE9FC41D0
:1032E0000646174600790D46334AC0EB001102EB43
:1032F0008104984694F82E1011B10820BDE8FC8195
:103300002E4951F820103068FFF79AFF08B11120BC
:10331000F4E7C4E900780027A76084F82D7084F8EA
:10332000317084F83070687B84F838004FF00608FC
:10333000CDE9008703233A4639462868FEF77EFF29
:10334000CDE900870022032311466868FEF776FF67
:10335000D5E900123068C0F80815C0F80C25A96836
:10336000C0F824152068012208B3306840F3073103
:10337000287B00294FEA401004DB01F1E02181F8AD
:10338000000405E001F00F0101F1E02181F8140DC6
:10339000306840F30730002809DB00F01F0102FA13
:1033A00001F14009800000F1E020C0F8001184F82C
:1033B0002E200020A2E7000028030020D04F0000AC
:1033C00070B5044600791849C0EB001001EB800588
:1033D000286890B1206840F3073100290DDB01F027
:1033E0001F02012090404909890001F1E021C1F844
:1033F0008001BFF34F8FBFF36F8F2046FFF742FF6F
:103400002068FFF735FF95F8380048B92068D0F8F4
:103410000805FEF75FFF2068D0F80C05FEF75AFF9D
:10342000002085F82E0070BD2803002030B40379F9
:10343000054CC3EB031304EB830413460A460068F0
:10344000214630BC01F0E6BA2803002001490248B9
:1034500001F0A2BB64030020002000402DE9F041F0
:103460000546007916460F4600EB40012D4A01EB58
:10347000C00102EB810494F82A1011B10820BDE8C4
:10348000F081294951F820102868FFF7D9FE08B1CA
:103490001120F4E739462846FDF772FC666038696A
:1034A000206030004FF001062FD03F7F4FF48E7127
:1034B0002868FFF756FD4FF4A2712868FFF751FD09
:1034C00028681A49C0F8041328684FEA471140F3E6
:1034D0000730002804DB00F1E02080F8001405E04C
:1034E00000F00F0000F1E02080F8141D286840F380
:1034F0000730002809DB00F01F0106FA01F140093E
:10350000800000F1E020C0F8001128680421C0F814
:1035100000150020A061E06184F8290044F8140F30
:10352000A675ACE764030020E84F000080000200AD
:103530002DE9F05F054600790B4600EB400101EBF9
:10354000C000244901EB8004284600F045F810B182
:103550001120BDE8F09F62614FF00009C4F820908F
:10356000A36084F828904FF48E784E464146286830
:10357000FFF7F7FC28684FF0010AC0F808A02146C1
:10358000286801F099FA606808BBD5F800B067694F
:103590000FE000BF94F8280008B10F2615E041465F
:1035A0005846FFF7D9FC0028F4D02146584601F0D0
:1035B00083FA206AB842F2D3574641462868FFF79B
:1035C000CBFC0028F9D02868C760C4F814903046B6
:1035D000BFE7000064030020007900EB400101EB2D
:1035E000C000044901EB80004069002800D00120A0
:1035F00070470000640300202DE9F047044600797D
:103600004FF0000900EB400101EBC000284901EB3D
:1036100080072068C0F800957868B0B12068254917
:10362000C0F80813206840F3073000280DDB00F0D5
:103630001F02012191404009800000F1E020C0F804
:103640008011BFF34F8FBFF36F8F2068D0F80C2528
:10365000D0F81485D0F80865D0F810554FF0FF3138
:10366000C0F81415C0F80C152068C0F80815C0F88B
:103670001015501C02D01046FEF735FEB8F1FF3F82
:1036800002D04046FEF72FFE681C02D02846FEF707
:103690002AFE701C02D03046FEF725FE2068FFF798
:1036A000E7FD87F82A90C7F80490BDE8F08700008E
:1036B00064030020840202000149024801F01ABBA1
:1036C00090030020002000402DE9F04105461646F9
:1036D00000790F46154A00EBC00102EB810494F813
:1036E000201011B10820BDE8F081114951F82010D7
:1036F0002868FFF7A5FD08B11120F4E739462846F0
:10370000FDF779FB6660386920601EB1397F284675
:10371000FEF744F928680821C0F800150020A061D0
:10372000E0616061012184F82010DCE79003002053
:10373000EC4F00002DE9F04704460E46007927497A
:1037400000EBC00001EB800517463046FFF770FD27
:1037500030B1204600F044F820B11120BDE8F087D8
:103760001020FBE76F61AE604FF490774FF00008D8
:1037700039462068FFF706FC4FF4AC7631462068E6
:10378000FFF700FC2068AA686969C0F84425C0F802
:10379000481520684FF00109C0F808906868D0B952
:1037A000BA4651462068FFF7E8FB074631462068D5
:1037B000FFF7E3FB0743F4D010B14FF00F0808E028
:1037C0002068C0F80C9031462068FFF7D6FB00282F
:1037D000F9D0002068614046C0E700009003002057
:1037E0000079054900EBC00001EB8000406900282A
:1037F00000D0012070470000900300202DE9F04721
:10380000064600793D4900EBC00001EB80053468B5
:1038100068680127A8B13A49C4F80813306840F332
:10382000073000280DDB00F01F0107FA01F1400905
:10383000800000F1E020C0F88011BFF34F8FBFF38C
:103840006F8FD4F8000220F02000C4F80002A869AD
:103850004FF4A27820B141462046FFF793FB676002
:103860004FF4AC7949462046FFF78CFBE7604746AA
:1038700049462046FFF781FB0028F9D0A86928B106
:1038800039462046FFF779FB0028F1D04FF0000AB7
:10389000C4F800A53068D0F80C25D0F81495D0F8FD
:1038A0000885D0F810754FF0FF31C0F80C15C0F83E
:1038B00014153068C0F80815C0F81015501C02D057
:1038C0001046FEF719FDB9F1FF3F02D04846FEF75A
:1038D00013FD781C02D03846FEF70EFDB8F1FF3F0D
:1038E00002D04046FEF708FD2046FFF7C1FC85F8F0
:1038F00020A0C5F804A0BDE8F087000090030020D8
:103900001003420010B50549C20800F00703885CA7
:1039100001249C402043885410BD00002003002057
:103920000449084490F93000082801DB0120704761
:1039300000207047BC0200200449084490F9300080
:10394000082801D20120704700207047BC020020E7
:103950002DE9F84F314F05464FF001090024381981
:1039600090F96010491C46D090F86000294620F07C
:10397000C0063046FEF77DFA70B3204600F050F8DE
:10398000824668460096FEF73DFD009900EB8100F7
:10399000D0F80007C0F30148B8F1020F1DD0022192
:1039A0003046FEF7D8FC68460096FEF72BFD009ADD
:1039B00009FA02F1C0F820153046FDF743FD57F82B
:1039C00020204AB15046BAF1030F11D0B8F1020FCE
:1039D00005D0B8F1030F07D00DE00321E0E7504612
:1039E000BAF1010F04D006E05046BAF1020F02D13D
:1039F000014630469047641C042CB0D32A4602216D
:103A00000020FEF7C1FC002055F820100029A5D1A8
:103A1000401C0228F8D3BDE8F88F0000BC0200204B
:103A20000249084490F8600080097047BC020020F9
:103A300010B50C46017A052908D0407A38B10848FB
:103A400008A102682046FEF7C1FA00E01AB106A1FB
:103A50002046FEF7BBFA2046BDE81040FEF7C3BA89
:103A60003C010020257300000D0A000038B5C38812
:103A70000D46044633B114A0009015A216A12846A5
:103A8000FEF7A4FA217A05291CD0607A48B1A088F3
:103A9000FEF7FEFD164951F8202016A12846FEF734
:103AA00095FAA0880021FEF7CBFF03461049207A43
:103AB000143951F8202001B02846BDE830400EA14D
:103AC000FEF784BA38BD00001B5B306D00000000BB
:103AD0001B5B313B33316D0025734C6F6773206482
:103AE000726F70706564202825642925730D0A00A3
:103AF0003C010020257300003C25733E2025733ACD
:103B0000200000000349884201D10348704700208B
:103B100070470000002000409000002001680A6803
:103B20004968914201D3881A70478068801A084416
:103B3000401C70472DE9F04FC549C64A2DED068B54
:103B4000891A85B0CE0860B105B00221BDEC068BA4
:103B500001EB06430246C0A1BDE8F04F1846FEF750
:103B6000DBBEC34CC34D2078864600EB4001C14804
:103B700000EB4101A01C0B88028843F30A03D21A10
:103B80000FFA82F8A0F800808B78428843F305038F
:103B9000D21A12B242809246CB78828843F3050350
:103BA000D21A12B2828091460B79C28843F3050380
:103BB000D21A12B26035C28095F800C06F78934671
:103BC000AB78EA78287947EA0C276D797F090F806E
:103BD0005F0606D49B005BB2DF1703EB97739B1065
:103BE0008B70530606D4920052B2D31702EB937235
:103BF0009210CA70420606D4800040B2C21700EB91
:103C0000927080100871680600D565780888984A17
:103C100040F30A00921C404400B210808F7847F3B2
:103C200005070AEB07031BB25380CF789A4647F388
:103C3000050709EB07031BB293800979994641F305
:103C40000501594409B2D18088460EF10101C9B27B
:103C50002170102902D30021217005E021B1617883
:103C600000297DD0A9427BD005F01C01042947D052
:103C7000082947D0142947D0182947D07EA700BF6C
:103C8000FCF79EFC83469FED7D8B009153EC182B37
:103C9000FCF724FC9FED7B9B53EC192BFCF71EFCDF
:103CA000FCF79FFC00EE100A009953EC182BB5EEC0
:103CB000C00AF1EE10FA41EC10BB51EC100B27DDFD
:103CC000FCF70CFC53EC192BFCF708FCFCF789FC07
:103CD00000990AEE100A41EC10BB53EC182B51EC82
:103CE000100BFCF7FBFB53EC192BFCF7F7FBFCF775
:103CF00078FC00EE100ABDEEC00AB8EEC00A26E05D
:103D000062A7BDE763A7BBE764A7B9E765A7B7E705
:103D1000FCF7E4FB53EC192BFCF7E0FBFCF761FC30
:103D200000EE100A009953EC182BBDEEC00AB8EE55
:103D3000C0AA41EC10BB51EC100BFCF7CFFB53ECCD
:103D4000192BFCF7CBFBFCF74CFC00EE100A3AEE0B
:103D5000400ADFED550A20EE200ABDEEC0AA00E0C1
:103D600070E0009953EC182B41EC10BB51EC100B98
:103D7000FCF7B4FB53EC192BFCF7B0FBFCF731FC60
:103D800000EE100A009953EC182BBDEEC00A10EE9D
:103D9000100A41EC10BB049051EC100BFCF79EFB99
:103DA00053EC192BFCF79AFBFCF71BFC00EE100AF6
:103DB000B5EEC00AF1EE10FA14D2009953EC182BAC
:103DC00041EC10BB51EC100BFCF788FB53EC192BAA
:103DD000FCF784FBFCF705FC10F1814F02D20FF2D7
:103DE000CC0C01E00FF2A80C4FEAE87308EB13705B
:103DF0004FEAE97309EB13718DED00AA0011091167
:103E0000CDE902104FEAEA730AEB13721211052092
:103E1000019200EB06400646624625A1049BFEF790
:103E20008BFD280601D52DA000E019A00090A80662
:103E300001D52CA300E016A330463A462BA1FEF78D
:103E400072FD657005B0BDEC068BBDE8F08F00001B
:103E50008C52000034520000726561645F616C6CCA
:103E60005F6362202D206572726F723A20256400B4
:103E700008000020880100203F0000000000000032
:103E80000000C03F000000000000B03F4C45465419
:103E9000000000005249474854000000444F574E6C
:103EA00000000000555000000000C8422D00000036
:103EB00054656D703A20257325642E2530326420B8
:103EC0007C20583A202533642C20593A202533642D
:103ED0002C205A3A2025336420000000205348410A
:103EE0004B45000020544150000000007C20257309
:103EF000257325730D0A000010B50B4A01210B48EC
:103F0000FCF7D0FE08B1FCF7BBFE0848002240F2E7
:103F100033310068FCF700FF002803D0BDE81040F3
:103F2000FCF7AEBE10BD00001D440000E44E0000D2
:103F300000280BD00649074A891AC908022202EB59
:103F40000143024604A11846FEF7E6BC7047000094
:103F50008C52000034520000726561645F6C6D37F2
:103F600035625F7265676973746572735F6362203F
:103F70002D206572726F723A2025640000280BD0E4
:103F80000649074A891AC908022202EB0143024680
:103F900004A11846FEF7C0BC704700008C52000018
:103FA00034520000726561645F6D6D613736363082
:103FB0005F7265676973746572735F6362202D2039
:103FC0006572726F723A20256400000070B5054674
:103FD000FDF759FB134C40B1D4E904024FF0807156
:103FE000411842F10000C4E9041000212846FDF701
:103FF00097FA30B1606820B1606800F0E3F9002002
:10400000606001212846FDF78BFA18B1FDF736FCF8
:10401000C4E90601284600F013FA2846BDE87040BE
:1040200000F034B8B000002070B5054600200C4602
:104030000870FDF723FCD5E90223101A63EB010396
:1040400000263146361A994112DAB0F5350F03D3FE
:10405000FCF722FE0B4942184FF4960300210A4850
:10406000FDF71DFB10B10D2806D009E0012070BD41
:1040700000210548FDF74AFA284600F0A3F9207010
:10408000002070BDFFFFB400B8000020F8B51A4C46
:10409000074600261948FEF7E2FED0B1616871B10B
:1040A000D0E902106268D2E90232C91A904120D2E6
:1040B0006068007F18B161681048FEF7BFFE00F02D
:1040C0006FF805466946FFF7AFFF98B1606840B1E9
:1040D0000AE0606800280CD13846BDE8F840FDF7DA
:1040E000DABA3846FDF7D3FA65609DF8000000287B
:1040F000D0D1F8BD6660CDE7B000002000500000D0
:1041000070B5054688690C4600284FF4847128462E
:104110000AD0FEF726FFD5F81805626AE1688854D0
:10412000606A401C606270BDFEF71BFFD5F8180581
:1041300070BD1FB501238DF80030CDE90121D0E914
:104140000012684690471FBD1FB501238DF800304F
:10415000CDE90121D0E90012684690471FBD00005B
:1041600070B50D4C0020D2B22070201D0B4D03788D
:10417000EB5C1BB1001DFFF7DDFA02E00C30FFF72E
:10418000D7F908B1FCF77CFD6078002802D02178CF
:104190000029FAD070BD0000EC000020740000205F
:1041A0000148FEF75FBE0000005000002DE9F0411D
:1041B000044605680E460020FCF7CCFD00273EB9FA
:1041C0002068006820B1BDE8F0410020FCF7C4BDC4
:1041D000002229466068FEF74DFD08B12F60F2E726
:1041E0000020FCF7B9FD2868006928B32868066933
:1041F000102231466869FCF764F980B104F10808BF
:1042000004F10C00FFF7DCF823460D4A3146404626
:10421000FDF788FE08F10400FFF750F86E612F7675
:10422000204600F00FF8010008D0204600F06CF99D
:104230000020FCF78FFDCBE72E1DD9E7BDE8F0810C
:10424000C7450000F0B5036885B01A7E1C68A468F5
:1042500004EBC2056E792F79740864F30F2167F3BC
:104260001741AF792C68FD072DD0F5072BD11D68BC
:1042700095F80CC0551CAC4525D91D684FF00D0CA8
:104280000CEBC20CAD6815F80C506D08B5EB560F71
:1042900019D11D68082606EBC202AD682A441679BA
:1042A000156866F31F615679F60701D0022600E013
:1042B0000326927966F30701D20700D020221E7EE2
:1042C000761C1E7609E006F0010262F30701002564
:1042D00065F31F61FA0700D020228DF800100B0A49
:1042E0008DF80130C1F3074302AE090E019386E851
:1042F000320069460C30FFF799F805B0F0BD0000B8
:10430000C207002A03D000BF4FF00F0201E04FF0B8
:10431000F00201D04FEA0111044B03EB500318786F
:1043200000EA020040EA010018707047D80300203C
:104330002DE9F84F074621489146884605681E46F4
:10434000012269461846FCF7C9FFDFF874A060B384
:10435000009800210446801C0AE000BF00EA050224
:1043600059F821C00AEB8202401C491CC2F80CC05B
:10437000B142F3D34FEA1749FDF7BEF8611C29405B
:104380000AEB810149EA00422C40CA600AEB840131
:10439000C86867F3C50066F3891068F39F2020F0B2
:1043A0000300401C20F00400C8609AF8000001E0FF
:1043B000FEF794F90028FBD1BDE8F88F0C0100202E
:1043C0000406002070B50446124800250078F8B1B4
:1043D000F4B1207FE0B1FDF751FAD4E90223801A4D
:1043E000994110D32069002600B92677D4E9051039
:1043F0008847206960B1217F51B1D4E902211018AA
:104400007141C4E9020121460348FEF717FD012569
:10441000284670BDB00000200050000010B50649CD
:104420000648FEF78BFD08B1FCF72AFCBDE81040FA
:104430000320FCF745BD000014000020E84E0000FA
:10444000F8B51B4C69462068FDF78FFC0026012754
:10445000184D29E0017821B101290CD002291BD186
:1044600014E041680A7FBAB90F77416810480830F4
:10447000FEF7E4FC10E041686868814201D16E609B
:104480000AE00B480830FEF7F4FC05E0FFF788FE71
:1044900008B10677FAE72F7069462068FDF75AFCE5
:1044A00069462068FDF761FC0028D3D1F8BD000003
:1044B000F84F0000B0000020F8B50B4C0D46064642
:1044C00069462068FDF73BFC58B1067045606946B7
:1044D0002068FDF755FC10B10448FDF7C1F8002035
:1044E000F8BD0420F8BD0000F84F0000B80000201F
:1044F000034880684108034800224068FCF70CBC70
:1045000098000020F04F000000680B460168096821
:10451000002905D0016800684968026818461047FC
:10452000704738B5044640F20C602168890001F1FB
:10453000A041C1F800076168890001F1A041C1F8FC
:1045400000072068FDF7A9FF6068FDF7A6FF216856
:1045500040F20D60890001F1A041C1F800076168D7
:10456000890001F1A041C1F800070420FEF74EFDCB
:104570000025606800906846FDF736FFD0F810050A
:104580000099C84010F0010F02D0002D1AD00EE0A3
:104590002068FDF711FF0420FEF738FD2068FDF7C5
:1045A0007CFF0420FEF732FD6D1C092DE1DB606805
:1045B000FDF702FF0420FEF729FD6068BDE83840E2
:1045C000FDF76BBF38BD10B500780C4648B103212C
:1045D0002046FFF799FF2046BDE810400121FFF774
:1045E000E5BD20680021027E0368521CD2B21B7B0D
:1045F0009342EDD902762046FFF724FE0100E7D171
:1046000010BD00001FB50A4601788DF80010017931
:104610008DF8041041798DF80510017A8DF8061097
:10462000017B8DF8071001690291406903900448ED
:1046300050F82210083850F82220684690471FBDD5
:104640006C00002070B586B00C46064600F0E5F818
:10465000002853D194F82F00002510BB207B02289E
:1046600001D003281DD1A269616A914219D1E16983
:1046700061626169A16294F820100328C1F34011BE
:1046800084F82C1084F82D502146304604D006B012
:10469000BDE8704000F044B806B0BDE8704000F0DE
:1046A0005DB9142204F10C0101A8FBF7DFFE94F8B8
:1046B0002F0098B1D6F8C414C6F8C414880701D5E1
:1046C000012002E0480703D502208DF8000007E032
:1046D000C80701D00320F8E70420F6E78DF8005062
:1046E00084F8305094F82000400703D594F82F0048
:1046F000002803D0D4E900216846904706B070BD79
:1047000001460320CA0701D04FF402408A0701D5B1
:1047100048F20120490701D548F202207047000005
:10472000F8B504462E480D46009000274FF48271DC
:104730002046FEF7B2FB4FF492712046FEF7ADFB28
:104740004FF48E712046FEF7A8FB4FF4847120468B
:10475000FEF7A3FB00266E6385F82F60A86A012888
:1047600005D195F82000400601D4022000E0012088
:10477000C4F800020120206295F82D10022900D013
:104780002060286830B140F28620A860A868C4F88C
:10479000040322E0009802E00098401E00900028E8
:1047A00005DD2946204600F038F80028F4D195F8B8
:1047B0002F0048B1D4F8C404C4F8C40418B1FFF7FA
:1047C0009FFF074600E003270098002805DCC4F897
:1047D00000650520C4F8000503273846F8BD000031
:1047E000A08601008B6A4A6B9A4204D2496A895CAE
:1047F000C0F81C150FE091F82C3001220BB1C261FA
:1048000006E091F820305B0604D5C26181F82D20C6
:10481000002070474261012070472DE9F05F0C468F
:104820004FF48276054600273146FEF731FB20B172
:1048300031462846FEF731FB012794F82F004FF44C
:104840008E794FF4847A4FF492714FF0000B58B187
:104850002846FEF722FB49462846FEF71EFB514636
:104860002846FEF71AFB5CE088462846FEF710FB58
:10487000012628BB49462846FEF70AFB90B1494667
:104880002846FEF70AFB606B4146401C60632846E1
:10489000FEF7FEFAA0B921462846FFF7A3FF00283D
:1048A00057D03EE051462846FEF7F2FAB8B35146DB
:1048B0002846FEF7F2FA41462846FEF7E9FA38B1F3
:1048C00041462846FEF7E9FA6E6184F82F6028E039
:1048D000A16A606B884224D2D5F81815626A115417
:1048E000606B401C6063A16A4A1E904207D194F835
:1048F0002020520603D40220C5F8000210E08842AE
:1049000003D194F8202052060BD5884208D194F8A0
:104910002000400604D5022084F82D0018E000E0B5
:104920002E62C7B184F82DB094F82F10584679B98B
:10493000A26A616B914206D0C5F800050520C5F852
:104940000005002000E0012080F0010084F82F0025
:104950000020BDE8F09F0120FBE70000F8B5044609
:104960002B480D46009000274FF482712046FEF739
:1049700094FA4FF492712046FEF78FFA4FF48E713D
:104980002046FEF78AFA4FF484712046FEF785FA36
:104990000020C4F800026863064685F82F00012055
:1049A000206295F82D10012900D0A06029462046EC
:1049B000FFF718FF286830B140F28620A860A86889
:1049C000C4F8040322E0009802E00098401E009022
:1049D000002805DD29462046FFF71FFF0028F4D1F7
:1049E00095F82F0048B1D4F8C404C4F8C40418B131
:1049F000FFF786FE074600E003270098002805DC45
:104A0000C4F800650520C4F8000503273846F8BD42
:104A1000A08601002DE9F041074691F82D001E46C1
:104A200015460C46012802D0022804D009E0287857
:104A3000012803D005E02878012802D00820BDE82D
:104A4000F0811C48C7F8080394F8300020B1A06832
:104A5000C7F804031120F2E746F38000401C84F8F5
:104A600030001422294604F10C002662FBF7FEFCFC
:104A70006868A062E86860626878C7F88805287886
:104A800001280CD008B9B00601D5012000E00020B3
:104A900084F82C0021463846FFF760FF03E02146EA
:104AA0003846FFF73DFE21680029C8D184F8301050
:104AB000C5E700008642040070B50C4605464FF479
:104AC0008E71FEF74EFA216AA068415C206A401C94
:104AD0002062C5F81C1570BD1FB500228DF800209E
:104AE0000291816801914261D0E9001268469047C5
:104AF0001FBD1FB500228DF8002002918168019131
:104B00004261D0E90012684690471FBD1FB50A46B2
:104B100001788DF8001041680191017A8DF8081034
:104B2000C0680390044850F82210083850F822203A
:104B3000684690471FBD0000800000200149012009
:104B400008707047EC00002010B588B004462022A1
:104B50000E496846FBF78AFC06200090C01F0190B2
:104B6000029003904FF0EB7006900CB1084A00E001
:104B7000002269460748FDF7F5F908B1FCF780F80F
:104B80000448001F447008B010BD000070500000C1
:104B90003D4B0000F00000202DE9FF470C46054684
:104BA0004FF40071FEF7E3F901274FF40178002676
:104BB00018B34FF4927949462846FEF7CDF9E0B193
:104BC00049462846FEF7CDF9C5F8088394F8290030
:104BD00000B96F6002208DF80000D5F88004C5F898
:104BE00080040390A0690290E0680190A661E661EC
:104BF000D4E900126846904728E004212846FEF7D1
:104C0000B6F918B34FF484712846FEF7A5F9E8B158
:104C100021462846FFF774FA616AA069884215D1D7
:104C2000E06938B1E268616AA0612069E6616662A4
:104C3000E06008E094F8290000B96F60C5F80883C7
:104C4000A661E268616A2046FFF773FA4FF48E7836
:104C500041462846FEF780F980B16069216A8142A9
:104C600002D294F8280028B341462846FEF779F985
:104C7000606918B161692046FFF72EFF4FF4A278F2
:104C800041462846FEF768F9002818D041462846D4
:104C9000FEF767F994F8290000B12F60A069002899
:104CA0000DD0A661E268616A04B02046BDE8F04715
:104CB000FFF73FBA21462846FFF7FEFEDEE7BDE8D4
:104CC000FF8700001FB50A4601788DF80010416883
:104CD0000191017A8DF80810C0680390044850F8DB
:104CE0002210083850F82220684690471FBD000067
:104CF000800000202DE9FF410C464FF492770546D5
:104D00003946FEF73AF90026B8B139462846FEF78B
:104D100039F902208DF80000D5F88004C5F8800428
:104D20000390D5F83C050290E0680190A661E66129
:104D3000D4E900126846904723E04FF4887739465B
:104D40002846FEF71AF9E0B139462846FEF71AF967
:104D5000D5F83C15A069884213D1E06960B1E268DA
:104D6000D5F8000220F02000C5F80002E069A0613B
:104D70002069E661E06001E0A661E2682046FFF795
:104D8000E3F94FF4A27739462846FEF7F6F868B102
:104D900039462846FEF7F6F8A06938B1A661E66103
:104DA000D5F83C152046E268FFF7CEF94FF490762F
:104DB00031462846FEF7E1F860B131462846FEF755
:104DC000E1F80120E860606920B1D5F84C15204673
:104DD000FFF78FFE4FF4AC7631462846FEF7CDF84C
:104DE00000280ED031462846FEF7CCF8606900282E
:104DF00007D0D5F84C1504B02046BDE8F041FFF7C8
:104E000078BEBDE8FF8100002DE9F05F8346DDE953
:104E10000A4A994690460D460846012703E000BF1E
:104E2000B0FBF8F07F1C4045FAD2B94500D94F4697
:104E30005FEACA7012D18CB15FEA8A7002D5B9F10B
:104E4000000F01D0202607E0302605E03146584605
:104E5000641EFCF789FA0CB1A742F7D35FF0010694
:104E6000B9F1010F02D9A9F1010903E0B5FBF6F090
:104E7000404502D306FB08F6F2E7DFF83C9000BF9E
:104E8000B5FBF6F000FB165519F800105846FCF774
:104E90006BFAB6FBF8F6002EF2D15FEACA7009D0C1
:104EA000002C07D0A74205D220215846641EFCF7EB
:104EB0005BFAF5E7BDE8F09F1650000070B50C46B0
:104EC0000546FCF775FA002807D04268002A04D08E
:104ED00021462846BDE87040104770BD0400002000
:104EE000029000006801002018020020A852000073
:104EF0000000000000300040000000000000000042
:104F00001B0000001A0000000000980107000000CC
:104F10000100002001900100E80100200291000042
:104F20005000002001980100EA01002004990000CF
:104F30000000002001900100E80100200191000024
:104F40000100002001900100E90100200291000011
:104F50000200002001900100EB01002002910000FE
:104F60000300002001900100ED01002002910000EB
:104F70005000002001980100E80100200B9900007A
:104F800051000020029800000D0E0F100B0C181994
:104F90003802002058020020880200200B00030085
:104FA0007D0F00000C0003007D0F000018000300BF
:104FB0007D0F0000190003007D0F000000000000BD
:104FC0000338FDD870470000000000500003005077
:104FD000D1080000010000000000000000000000F7
:104FE00000000000000000004D340000B936000051
:104FF00003000000B8030020F803002001000600B1
:1050000000000000D0000020991400000000000003
:105010000338FDD8704730313233343536373839BC
:1050200041424344454600000000000000000000EB
:105030000000000000000000000000000000000070
:105040002850000040500000040000000100000053
:1050500093190000000000000000000000000000A4
:1050600000000000792600004D26000045260000C3
:10507000FFFFFFFFFFFFFFFFFFFFFFFFFFFFFFFF40
:1050800000000000000000000000D6010601000042
:105090006C0500207F000000EC050020004040402F
:1050A00040404040404041414141414040404040FB
:1050B00040404040404040404040404040050202A7
:1050C0000202020202020202020202020220202066
:1050D00020202020202020020202020202029090C2
:1050E00090909090101010101010101010101010C0
:1050F0001010101010101010020202020202888814
:10510000888888880808080808080808080808081F
:105110000808080808080808020202024000000007
:105120009D5000007761726E696E670064656275FC
:10513000670000001B5B313B33306D001B5B306D43
:10514000000000001B5B313B33316D001B5B313BCA
:1051500033326D001B5B313B33336D001B5B313BE6
:1051600033346D001B5B313B33356D001B5B313BD2
:1051700033366D001B5B313B33376D00696E666FF4
:10518000000000006572726F72000000636C6F6354
:105190006B000000434C4F434B0000004750494F09
:1051A0005445000050525300545749005541525441
:1051B0000000000055415254450000006170705FCE
:1051C000627574746F6E00006170705F74696D65F4
:1051D000720000007077725F6D676D7400000000F0
:1051E000736F72746C69737400000000756172747F
:1051F0005F6C6F675F6261636B656E6400000000E7
:1052000061707000BC5200000000002064010000CA
:10521000880700002053000064010020C42800001B
:10522000440B00006450000000000000EC5100003E
:10523000040100208C510000000000009451000087
:10524000000000009C51000000000000A45100007C
:1052500000000000A851000000000000AC51000058
:1052600000000000B451000000000000BC5100002C
:1052700000000000C851000000000000D4510000F0
:1052800000000000E051000000000000005200009B
:105290000000030318010020100100201801002065
:1052A000AC040020180000000C020020F4010020D3
:1052B00005000000040000000100000006100100CD
:1052C00003020173353B33104F820473313F333097
:1052D0004F8208737D3F33704F92020367070107C7
:1052E0003710014011000464200040942000404227
:1052F000FF0220FF338451332451337C51332C512E
:10530000333C51333451334451334C513354513382
:105310005C51336451336C514374511490D0030089
:0400000500000201F4
:00000001FF
