:020000040000FA
:1000000088280020C1030000C9030000CB030000C2
:10001000CD030000CF030000D1030000000000006A
:10002000000000000000000000000000D3030000FA
:10003000D503000000000000D7030000D903000032
:10004000DB030000DB03000005080000DB03000009
:10005000DB030000DB03000009050000DB030000F8
:10006000DB030000DB030000DB030000DB03000018
:10007000DB030000DB030000DB030000DB03000008
:10008000DB030000AD050000DB030000DB03000024
:10009000DB030000DB030000DB030000DB030000E8
:1000A000DB030000DB030000DB030000DB030000D8
:1000B000DB030000DB030000000000000000000084
:1000C000DB030000DB030000DB030000DB030000B8
:1000D000DB030000DB030000DB030000DB030000A8
:1000E000DB030000DB030000DB0300000000000076
:1000F00000000000DB03000000000000DB03000044
:1001000000000000000000000000000000000000EF
:1001100000000000000000000000000000000000DF
:1001200000000000000000000000000000000000CF
:1001300000000000000000000000000000000000BF
:1001400000000000000000000000000000000000AF
:10015000000000000000000000000000000000009F
:10016000000000000000000000000000000000008F
:10017000000000000000000000000000000000007F
:10018000000000000000000000000000000000006F
:10019000000000000000000000000000000000005F
:1001A000000000000000000000000000000000004F
:1001B000000000000000000000000000000000003F
:1001C000000000000000000000000000000000002F
:1001D000000000000000000000000000000000001F
:1001E000000000000000000000000000000000000F
:1001F00000000000000000000000000000000000FF
:10020000DFF80CD000F06EF9004800476D180000D0
:100210008828002030B450E8012F93B2C4892344C9
:100220008489A34228BF1B1B0489A34202BFBFF3DA
:100230002F8F002007E0C3EA020340E80134002CBE
:10024000E9D14FF001000A6030BC704750E8012F3F
:10025000C2EA024240E801210029F7D1704730B4D8
:1002600050E8022F1FFAA2F3C488A34202BFBFF3D3
:100270002F8F00200DE0C48923448489A34228BF26
:100280001B1BC2EA034340E80234002CE8D14FF0C4
:1002900001000A6030BC704750E8022FC2EA2242D7
:1002A00040E802210029F7D17047034653E8022FA6
:1002B000D988B2EB324F4FF0000017BF92B241EA3B
:1002C000014142EA014104E05A68B2EB324F08BFF3
:1002D000012043E80212002AE8D1704730B40446F6
:1002E00054E8000F0D4644E80053002BF8D1156088
:1002F00030BC704730B4044654E8000F40EA0105B2
:1003000044E80053002BF7D1156030BC704730B47F
:10031000044654E8000F00EA010544E80053002BAE
:10032000F7D1156030BC704730B4044654E8000F74
:1003300080EA010544E80053002BF7D1156030BC7A
:10034000704730B4044654E8000F00EB010544E860
:100350000053002BF7D1156030BC704730B4044611
:1003600054E8000FA0EB010544E80053002BF7D13F
:10037000156030BC704770B404464FF0000054E87C
:10038000006F0D68AE4207BF44E80023012044E837
:1003900000630E60002B1CBF0020F0E770BC7047AC
:1003A00030B4044654E8000F88422CBF451A054675
:1003B00044E80053002BF5D1156030BC70470000B5
:1003C0000648804706480047FEE7FEE7FEE7FEE7EF
:1003D000FEE7FEE7FEE7FEE7FEE7FEE7BD050000FD
:1003E000010200002DE9F05F0546002092469B4681
:1003F00088460646814640241BE02846414647463B
:10040000224600F05EF853465A46C01A914110D376
:1004100011461846224600F016F82D1A67EB01081F
:100420004F4622460120002100F00DF817EB00098D
:100430004E41201EA4F10104DFDC484631462A4625
:100440004346BDE8F09F202A04DB203A00FA02F17F
:10045000002070479140C2F1200320FA03F31943B2
:100460009040704700487047143C000040EA010388
:100470009B0703D009E008C9121F08C0042AFAD25A
:1004800003E011F8013B00F8013B521EF9D270471E
:10049000D2B201E000F8012B491EFBD270470022C6
:1004A000F6E710B513460A4604461946FFF7F0FF73
:1004B000204610BD421C10F8011B0029FBD1801AF8
:1004C0007047202A04DB203A21FA02F0002170470D
:1004D00021FA02F3D040C2F12002914008431946AC
:1004E00070470000064C074D06E0E06840F001034D
:1004F00094E8070098471034AC42F6D3FFF784FE27
:10050000D83C0000F83C00002DE9FC410025DFF854
:10051000948000954FF4807601242F460195304653
:1005200001F0C0FD38B1D8F80403204203D03046B2
:1005300001F0AEFD2543361D64007F1CB6B2082FC6
:10054000EDD34FF4BE74204601F0ACFD48B1204617
:1005500001F09EFD45F000456A460221002001F0B1
:10056000FFFC15F0FF0F16D0012600242E420ED0FE
:1005700008EB8401D1F81005D1F81015C0F305205F
:10058000094AC1F3014152F8242002B19047760094
:10059000641C082CEAD3002D02DA684602F000FD44
:1005A000BDE8FC810060004068010020024902486B
:1005B000091F09680068084774000020F0B54FF073
:1005C00080527F4ED2F830017E4FD2F83411431C56
:1005D00008D005464FEA010400234FF0010C082D16
:1005E00005D013E03B783578C3F30314F4E72CB15E
:1005F000012C03D0022C01D0032C07D14FF08044F2
:10060000C4F80C31C4F810316F4C2360441C04D082
:1006100005460C46082D05D061E03C783578C4F3DA
:100620000314F7E72CB1012C03D0022C01D0032CCA
:1006300055D1664C2468664D2C60644C241D24689A
:100640002D1D2C60614C083424682D1D2C605F4CDE
:100650000C3424682D1D2C605C4C103424682D1D36
:100660002C605A4C143424682D1D2C60574C1834BF
:100670002468574D20352C60544C1C3424682D1DA3
:100680002C60524C203424682D1D2C604F4C243497
:1006900024682D1D2C604D4C283424682D1D2C60A1
:1006A0004A4C2C3424682D1D2C60484C303424686E
:1006B000474D40352C60454C343424682D1D2C604A
:1006C000424C383424682D1D2C60404C3C34246846
:1006D0002D1D2C603D4C403424682D1D2C600828B5
:1006E00004D10C0002D13C4D3A4C2C60082804D1B6
:1006F0000C0002D1394DFB242C60082808D10C00D5
:1007000006D192F85852364A146865F3030414600F
:10071000082804D10A0002D1324C82012260421C16
:1007200003D139783078C1F3031108280DD129B1EC
:10073000012903D0022901D0032906D12A480168E2
:10074000C90702D06FF0010101602848016841F437
:1007500070010160BFF34F8FBFF36F8F4FF0102117
:10076000D1F80002002803DBD1F80402002823DAC4
:100770001F4AC2F800C01F480468002CFCD0122495
:10078000C1F800420568002DFCD0C1F804420168A0
:100790000029FCD0136001680029FCD0BFF34F8F03
:1007A00012487C380168144A01F4E0611143016089
:1007B000BFF34F8F00BFFDE7114910480860F0BD3F
:1007C000E00F00F0E80F00F03805004004040010CE
:1007D00020C50040488103008C56004018F50040B9
:1007E000E40E0040409602400004004088ED00E026
:1007F00004E5014000E401400400FA050090D00344
:10080000F000002001480068004700002800002098
:1008100002E008C8121F08C1002AFAD170477047C9
:10082000002001E001C1121F002AFBD17047022005
:1008300000F0C8B970B50024064D06E068680121D3
:1008400010F8340001F0FEFF641C28788442F5D3D0
:10085000002070BD30000020F8B516460C46054655
:100860000A2A01D20720F8BD02F0E4F818B902F014
:10087000A5F80028F7D1134F202113487D603C7064
:10088000BE60FFF70CFE0020C7E904000F4E0DE02C
:1008900005EBC4003168009181788DF80110007873
:1008A0000B4A694602F01AF80028DCD1641EE4B253
:1008B000EED2BDE8F84005480021064A001D00F0D0
:1008C0005FB8000030000020480200201C3B000000
:1008D000E5150000E511000072B601F073FE00BFDF
:1008E00001F0C6FC0028FBD111481249401AC40887
:1008F000012000EB044010A101F0D4FD1148006874
:10090000C00700D000BE022000EB04400EA101F0A1
:10091000C9FDBFF34F8F0B48E43801680E4A01F45C
:10092000E06111430160BFF34F8F00BFFDE700009E
:10093000403D0000083D0000466174616C20657216
:10094000726F7200F0ED00E053797374656D207280
:1009500065736574000000000400FA050EB50021FF
:100960000091CDE901106A4644F20100FFF7B4FF9F
:100970000EBD0000014800F09CBC000050000020AB
:100980003AB100680129426100D0002101610020D4
:10099000704707207047000038B5114808235822D7
:1009A000416800910F49006801F036F8002815D120
:1009B0000D4A69460D4800F081FC04000ED101216A
:1009C0000A4800F0F6FC0123094A1946074800F0DE
:1009D00048FC0649012008390870204638BD00004F
:1009E000243B0000780200204D320000500000201F
:1009F000FFFF7F0070B50446007F0D4608B1002060
:100A000070BDA26100F0D4FD401941F10001C4E9BC
:100A10000201206900B125612146BDE87040002037
:100A200002F020BE014600200877012002F01ABE25
:100A300000F002B800F008B872B602480168491C1C
:100A4000016070476C00002003490868401E086080
:100A500000D162B6704700006C00002070B50546FA
:100A600008680C46411C04D001F0EBFA206801F044
:100A70004BFA6068411C02D0002101F033FA29686A
:100A8000A069C1F82405607D227D29681043C1F862
:100A90006C05D4E900122868C0F81425C0F80C15BC
:100AA000207D012814D1A068411C02D0002101F052
:100AB00019FAE068411C04D001F0C3FAE06801F0C3
:100AC00023FAD4E902122868C0F80825C0F81015E6
:100AD00070BD70B5054608680C46411C04D001F095
:100AE000BAFA206801F01AFA6068411C02D00021AD
:100AF00001F001FA2968A069C1F82405607D217D13
:100B00002A680843C2F86C05D4E900122868C0F8C6
:100B10000C15C0F81425207D012814D1A068411CB3
:100B200002D0002101F0E7F9E068411C04D001F097
:100B300092FAE06801F0F2F9D4E902122868C0F8EC
:100B40000825C0F8101570BD084908B5085C00906C
:100B5000684601F01DFAD0F810050099C84010F061
:100B6000010000D0012080F0010008BDDC3A000047
:100B70002DE9FC410646C0074FF000050ED0104F8E
:100B800000240122385D009500231146019501F0F3
:100B900033F9641C042CF4D300F04EF8B0070DD5E3
:100BA000074E0024361D0022305D032300951146B8
:100BB000019501F021F9641C042CF4D3BDE8FC81FB
:100BC000D83A0000094908B5085C0090684601F071
:100BD000DFF9D0F80425009B0121994021EA0203A6
:100BE000C0F808351140C0F80C1508BDD83A00000F
:100BF0000249085C012101F038BA0000D83A00002F
:100C00000249085C002101F030BA0000D83A000027
:100C1000084908B5085C0090684601F0B9F9D0F8B9
:100C200004050099C84010F0010000D0012080F0B8
:100C3000010008BDD83A000010B500242046FFF797
:100C4000D7FF641C042CF9D310BD10B50024204636
:100C5000FFF7D6FF641C042CF9D310BD10B5024673
:100C6000064B4FF0FF3000215C5C944201D10846F6
:100C700010BD491C0429F7D310BD0000DC3A000068
:100C80002DE9F0470D468146FFF7E8FF04460428AA
:100C900036D2DFF874801B481C4EA8F10C0725B330
:100CA000012D0ED0022D2BD104EB440030444578A9
:100CB000002D25D0B968002922D02846BDE8F0478C
:100CC000084704EB4401755C0E44717849B10E4A43
:100CD0004FF48041093A8068FFF78CFE08B987F825
:100CE0000390B17808F80410E2E78068FFF79AFEF5
:100CF00004EB4401314418F804008D78A842D7D0A1
:100D0000BDE8F087E03A0000100000203801002024
:100D100070B50023042810D20D4D00EB4004012AC9
:100D200002D101290CD00022094E00EB40003044D2
:100D300061B1012906D0022906D00723184670BDEB
:100D40000E30C2B22A55F9E74270F7E78270F5E734
:100D50003801002070B500250E3807280BD8002474
:100D600001262046FFF7F0FE08B106FA04F005431D
:100D7000641C042CF5DB0148056070BD00000020F8
:100D8000044A014600201279D20702D0084600F03A
:100D90004DB870470400002070B506461E48002478
:100DA000C0E90161B00720D500250122114628467F
:100DB000FFF7AEFF6D1C0446042D02D2002CF4D0C8
:100DC00013E094B940F2333204211448FFF744FD94
:100DD00004000AD1FFF72EFD040006D10F48104A87
:100DE0000021001FFFF7CCFD0446F00712D00120C0
:100DF000FFF7BEFE74B909480A4A00210C38FFF714
:100E0000BFFD040006D10548074A01210838FFF755
:100E1000B7FD0446204670BD04000020EC3A0000F7
:100E2000F1100000B51700002F0800002DE9F05F59
:100E30006E4C054600266078B34618B184F801B0C0
:100E400000F0A0FC6A4F4FF47A694FF4C87A4FF073
:100E50000108182D69D2DFE805F00C131338475448
:100E6000696E727B727BC58484848484B3B6B9BC9A
:100E7000C5C500F087FC3868FFF7D4FD06465CE086
:100E80000020FFF7C5FE00284FF0000008D0FFF754
:100E9000AFFE022D02D14FF4E16008E0484606E0C3
:100EA000FFF7AEFE022D01D1C82000E05046410CF4
:100EB000C0034FF47A72801841F10001257052008E
:100EC0000023FFF78FFA01462AE00020FFF7A0FE7B
:100ED00000284FF0000004D0FFF78AFE4FF448705E
:100EE000E5E7FFF78DFEDFE70020FFF791FE002822
:100EF0004FF0000002D0FFF77BFECFE7FFF780FE48
:100F0000D4E70020FFF784FE00284FF0000002D055
:100F1000FFF76EFE01E0FFF773FE257040F6CD414E
:100F200000223868FFF766FD064646E00020FFF71E
:100F300049FE257008E0002051E025703DE084F86E
:100F400001800120FFF73EFE002240F26661E8E7E3
:100F500084F801800120FFF735FE00224FF4005194
:100F6000DFE77868FFF75EFD0646D5F1110000D097
:100F70002EB10220FFF73CFE84F802B01DE00128EC
:100F800016D980B2C8214843C117C90341EA50416C
:100F9000C0034FF47A72801841F10001520000231F
:100FA000FFF720FA014600227868FFF723FD064686
:100FB0000220FFF725FE84F802803046BDE8F09F4E
:100FC00000F0E0FBB9E700F0DDFBB4E700F0DAFB8E
:100FD00004E000F0D7FB0020FFF712FE0120FFF72E
:100FE0000FFEAAE7FFF731FEA7E70000040000208C
:100FF000E03A00002DE9F0470546861C91460F4671
:101000004FF0010A0020FFF713FD1B4C04F21C48AF
:1010100060683860D4E90101184F401A3968081A2D
:101020000EE00121404600F03CFD00F0CDFB014602
:10103000404600F036FDD4E90101401A3968081A2B
:10104000401C8642EDD8B9F1000F03D0052065F3AE
:10105000891002E0062065F39F5061683A681140EC
:1010600004EB8101C8606068304460600020FFF7D5
:10107000E1FC5046BDE8F087680400209C00002099
:1010800070B50D4604460A2902D10D21FFF7F8FF7D
:10109000A0682268411CA1601554D4E90101814275
:1010A00004D32046BDE8704000F0ADBD70BD000027
:1010B000044881684068814201D1012070470020C6
:1010C0007047000068040020034630B5074800213F
:1010D0000478426806E000BF02EBC10005789D423B
:1010E00003D0491CA142F7DB002030BD30000020B6
:1010F00000780221FFF7C4BD70B50446000E02F06F
:1011000037FA0506200C02F033FA45EA0045200ABA
:1011100002F02EFA45EA0025204602F029FA28437B
:1011200070BD000005494FF0FF32082841F820202B
:1011300002D3084480F8582070470000680100205E
:10114000F0B54FF0FF3512B10023082601E0082367
:101150000C260C4C05E000BF54F823707F1C04D013
:101160005B1CB342F8D32846F0BD26185DB286F862
:10117000305044F82310002AF5D1E11881F85800C6
:10118000F1E70000680100200249084490F93000AE
:1011900070470000680100204FF080400022C0F836
:1011A00000210121C0F80010D0F80031002BFBD045
:1011B000054B1960C0F80421C0F80810D0F80411DC
:1011C0000029FBD0704700001805004010B5D0E999
:1011D0000234D1E90220D11AA04101D3012010BD6F
:1011E000002010BD70B500240F4D10E0686800EBC2
:1011F000C406307801F0DAFB7178012901D00121B1
:1012000000E000214140307800F05CF9641C28784F
:101210008442EBDBD5E90401084303D0BDE870400C
:1012200002F03CBA70BD00003000002010B5002173
:10123000024800F041FC80F3100010BD840800203B
:101240004FF480328A400168C1F848230068C0F832
:10125000082370474FF4A07202EB810189B200F0BD
:101260009DB92DE9F04105460E464FF4A07000EB04
:10127000860081B228684FF48034B440984622F04A
:101280007F47C0F808432868C0F84843286801F041
:1012900084FA286800EB8600C0F840752868C0F81A
:1012A0004443B8F1000F02D02868C0F80443BDE8F9
:1012B000F0810068D0F804057047000070B54379EC
:1012C000234C44F823204279231D03EBC202224C15
:1012D0001579204A121BD4082DB10825022000EBF5
:1012E00004401EA130E005680A88C5F8082590F979
:1012F00004208978002A4FEA411104DB02F1E02240
:1013000082F8001405E002F00F0202F1E02282F8F8
:10131000141D90F904100122002909DB01F01F05BA
:1013200002FA05F54909890001F1E021C1F80051EF
:101330004179002503EBC1010A71417943F831007D
:10134000032000EB04400EA101F0ACF8284670BD6C
:1013500070000020303D0000083D00005254432042
:10136000696E7374616E636520616C726561647926
:1013700020696E697469616C697A65642E00000089
:101380005254433A20696E697469616C697A656484
:101390002E00000090F90400002809DB00F01F0275
:1013A000012191404009800000F1E020C0F80012C6
:1013B00070470A46022100F07BB84FF4827100F0BA
:1013C000EDB80068012101607047006801214160AB
:1013D00070472DE9F05F07460C464FF4A07000EB14
:1013E00084001FFA80FA38684FF48036A6409B4686
:1013F00022F07F45C0F848633868C0F80863386851
:10140000D0F8048500EB8402D2F84095C2F84085FC
:101410005146386801F0C1F9A9EB080020F07F407F
:10142000012806D1102001F005FA5146386801F074
:10143000B4F93868D0F80485C0F84463A5EB080116
:1014400021F07F413868012900EB840010D0C0F8FA
:1014500040553868D0F804156FF07F4C6A1A521E58
:1014600022F07F42ACEB0B03934217D362B118E03A
:101470006D1CC0F84055102001F0DCF93868D0F838
:10148000040540450AD10CE000EB84006D1CC0F857
:1014900040553868D0F80405884202D00D20BDE8D8
:1014A000F09F01223146384600F002F80020F6E7AE
:1014B0000368C3F84413002A02D00068C0F804137C
:1014C000704700002DE9F0470E463249804601EB97
:1014D0005001C007097801D00F0901E001F00F07A2
:1014E000424601200021FEF7AEFFDFF8AC90044633
:1014F0000D46052F4BD2DFE807F0031419262A000A
:10150000002E44D00121404601F0D0FF0020FFF71B
:101510008FFA4846D0E904120C431543C9E9044543
:1015200030E00EB1022114E0002112E04EB103219F
:10153000404601F0BBFF4046BDE8F047012102F004
:10154000BBBA012105E0002E21D1042101E02EB11A
:1015500003214046BDE8F04701F0A8BF0021404606
:1015600001F0A4FF0021404602F0A6FA0020FFF798
:101570005FFA4A46E043D2E90434184024EA050100
:10158000C9E90401BDE8F0470020FFF753BABDE800
:10159000F0870000480200203000002010B50068ED
:1015A00042581AB101F0F9F8012010BD002010BD19
:1015B00010B50B48FFF77DFE094A083AD2E904341A
:1015C000C018D2E9063244F10001C31A71EB0202DD
:1015D00004D24FF08072801841F1000110BD00006C
:1015E0005000002010B5C0B2FFF76EFD0446007831
:1015F00001F0DCF901466078012801D0012000E00B
:10160000002090EA010F08D00449D1E90401084301
:1016100003D1BDE8104002F041B810BD30000020F9
:101620002DE9FC5F0E008346DDE90C47C6F10000A2
:1016300098469246814600D40846012503E000BF43
:1016400090FBFAF06D1C5045FADAA84500D94546E2
:1016500024B1002E01DB780700D5641EB80702D53F
:10166000B8F1000F0AD0F80708D13CB1A54205D265
:1016700020215846641EFFF703FDF6E7002E02DA2C
:101680004E462D2102E0780703D52B215846FFF75F
:10169000F7FC07F0030002280BD1B8F1000F08D1C6
:1016A0003CB1A54205D230215846641EFFF7E8FC44
:1016B000F6E7CDE90047434652463146584602F028
:1016C000A1F9BDE8FC9F000070B50D460446006816
:1016D0004FF4887101F0A7F84FF49071206801F081
:1016E000A2F84FF49271206801F09DF84FF4A271B6
:1016F000206801F098F84FF4AC71206801F093F87D
:1017000020681249C0F804132068690740F30730C5
:10171000090E002804DB00F1E02080F8001405E049
:1017200000F00F0000F1E02080F8141D206840F365
:101730000730002809DB00F01F0201219140400919
:10174000800000F1E020C0F8001170BD10034200DD
:10175000024600201268530713D502F00300012847
:1017600002D002280CD105E0C2F383100B68801C64
:10177000184404E00223086803EB92521044086006
:10178000012070470A4810B5807860B1002401E05C
:10179000022C06D02046FFF72BFA641C042CF7D34A
:1017A00010BD0324F6E7BDE81040FFF745BA00007E
:1017B0000400002003480179C90702D00078FFF730
:1017C00035BB7047040000202DE9FF410026244866
:1017D00000F064F92248001F074600F05FF9214C31
:1017E0002149A06800900D6800E0009869462840F3
:1017F00004EB80000C30FFF7ABFF0028F5D101AA05
:10180000009901EA050304EB8303491CDB6842F8F5
:101810002030401C00910228F2D3019800F0030010
:1018200001280BD0022810D10198032101EB905020
:101830000099BDF80A6001EB900005E00198BDF841
:101840000A60C0F3831008440090384600F023F982
:1018500008B10098A06004B03046BDE8F0810000F7
:1018600080080020680400209C000020FFF794FC02
:10187000FFF792F808B1FFF771F84FF480410020AC
:1018800000F074FE08B1FFF769F800F0E3FC1A49B4
:101890000320FFF781FA08B1FFF760F801F066FC5A
:1018A0001748164D05601220FFF76AFA06461548DC
:1018B0001549401AC108032000EB014413A120463A
:1018C00000F0F0FD20461AA100F0ECFD300001D040
:1018D000FFF744F80026286838B101F081FD204662
:1018E00018A12A6800F0E2FD2E6000F0C1FC00287B
:1018F000FBD120BFEFE70000550D000000000020E5
:1019000004150040403D0000083D0000526164693C
:101910006F207472616E736D69747465722065787E
:10192000616D706C6520737461727465642E000063
:10193000507265737320416E7920427574746F6EB6
:101940000000000054686520636F6E74656E7473E8
:10195000206F6620746865207061636B6167652025
:1019600077617320257500002DE9F047C5881E1D9D
:10197000B6FBF5F78946B6FBF5F1044605FB176C97
:10198000407916686843DDF820A0F718001F8742E9
:1019900000D9C61A166001E02468491E0029FBD14F
:1019A000A5EB0C078846B74216D818E004EB0C00EC
:1019B000001D09EB0803BAF1000F3A4602D00146B8
:1019C000184600E01946FEF751FD2468F61B4FF05B
:1019D000000CB844B54201D9374600E02F46002E2E
:1019E000E4D1BDE8F087000030B5024651B100F007
:1019F000D1FD0021074C08E034F821301568AB42D6
:101A000002D11160002030BD491C8142F4D3052071
:101A100030BD00000000000010B531B1B2FBF3F49E
:101A200003FB14241CB1092010BD0E2010BD016061
:101A30000021416081608281C381084610BD70B57C
:101A40000C460546FEF7E6FB002802D021882868F0
:101A5000084470BD10B50A8849888A4203D1FEF750
:101A60001BFC012010BD002010BD70B50C460546C2
:101A7000FEF7F5FB002802D061882868084470BD95
:101A800010B50A8849888A4203D1FEF7DFFB01209E
:101A900010BD002010BD002100F009B8012100F0A8
:101AA00010B808B56A46FEF74CFC009808BD08B5AA
:101AB0006A46FEF72CFC08BD08B56A46FEF70EFC28
:101AC00008BD08B56A46FEF715FC009808BD08B5C4
:101AD0006A46FEF743FC009808BD70B50446002531
:101AE0002846FEF7A5FF21686268086890420ED973
:101AF000401E08600178238AE26801FB0325227AF0
:101B00002168101AC0B20A79824200D208710020FE
:101B1000FEF790FF284670BD70B505460C460020C4
:101B2000FEF786FFE868298A201AB0FBF1F12A68DF
:101B30001068431C13600170BDE870400020FEF780
:101B400079BF10B530B1017A42680368891AC9B209
:101B50001A6006E00E2010BD03681A68541C1C6051
:101B60001170491EC9B2F7D2006800210171084600
:101B700010BDC20800F007030120895C98400840AE
:101B800070470000F0B505460478154889B0164640
:101B900040F82420124A08690832A2F10C0742F8E2
:101BA0002400487F385520226846FEF75FFC0494E5
:101BB0002878385C48B10EB10A4A00E00022694634
:101BC000281D01F0A9F809B0F0BD0EB1064A00E0E9
:101BD0000022694605F10C0000F068FFF3E7000001
:101BE00018000020C1380000093700000FB408B504
:101BF0000399002904D004AA00926A4600F00FF865
:101C000001B05DF814FB10B582680446002A05D0C7
:101C1000D4E90403216898470020A06010BD2DE995
:101C2000FC4791460C00804676D014F8011B39B170
:101C300025290ED04046FFF723FA20780028F4D15A
:101C400098F80C00002867D04046BDE8FC47FFF735
:101C5000DABF0020012221782B291BD02D2902D0A8
:101C6000302908D102E040F0010001E040F002001C
:101C7000641C002AEFD100252A290ED02178A1F179
:101C800030020A2A11D205EB850201EB4205641CE1
:101C9000303DF1E740F00400EAE7D9F800100B1DF1
:101CA000C9F800300968641C0D44217800232E29EE
:101CB0000BD114F8011FA1F130020A2A05D203EB5F
:101CC000830201EB4203303BF3E76C290DD0682916
:101CD0000BD0692921D00BDC252918D0582931D007
:101CE00063290ED0642915D117E014F8011FECE721
:101CF000702969D0732932D075291BD0782909D170
:101D000020E0D9F80000011DC9F800100178404614
:101D1000FFF7B6F9641C90E76CE0D9F800100A1DD3
:101D2000C9F800200968CDE900500A224046FFF7B3
:101D300077FCEFE7D9F800100A1DC9F80020096800
:101D40000A2206E0D9F800100A1DC9F80020096827
:101D50001022CDE90050404601F054FEDAE7D9F8F0
:101D6000001000270A1DC9F800200E68C00705D121
:101D700012E04046761C7F1CFFF782F9317800297B
:101D8000F7D104E0202140466D1EFFF779F9BD42EE
:101D9000C0D9002DF6D1BDE74EB13046FEF78AFB23
:101DA000074604E0202140466D1EFFF769F9BD4259
:101DB00006D9002DF6D103E04046761CFFF760F906
:101DC00031780029F8D1A5E7D9F80000011DC9F83C
:101DD0000010056830214046FFF752F9782140464F
:101DE000FFF74EF908200021CDE90001034610223B
:101DF0002946B0E7BDE8FC872DE9FF411C46DDE937
:101E00000A7815460E46684600F0C2F846EA4501D3
:101E100041EA840141EA072242EA0841009A00EBC4
:101E20008200C0F80017BDE8FF812DE9FF411C4684
:101E3000DDE90A7815460E46684600F0B7F846EA2E
:101E4000450141EA840141EA072242EA0841009A39
:101E500000EB8200C0F80017BDE8FF812DE9FF41CB
:101E60001C46DDE90A7815460E46684600F0ACF8D7
:101E700046EA450141EA840141EA072242EA084173
:101E8000009A00EB8200C0F80017BDE8FF812DE941
:101E9000FF411C46DDE90A7815460E46684600F00B
:101EA000A1F846EA450141EA840141EA072242EAF3
:101EB0000841009A00EB8200C0F80017BDE8FF81DE
:101EC0001CB5002100910B4601220191FFF7C6FFCE
:101ED0001CBD1CB5002100910B4601220191FFF7AA
:101EE000D6FF1CBD1CB500220B4600921146019284
:101EF000FFF7B4FF1CBD1CB500220B460092114633
:101F00000192FFF7C4FF1CBD1CB5002100910B46D8
:101F1000012201911146FFF7A1FF1CBD1CB5002154
:101F200000910B46012201911146FFF7B0FF1CBD45
:101F300013B50C46684600F039F8009900EB8101B2
:101F4000D1F8002722F44032C1F80027009900EBB5
:101F50008100D0F8001741EA0441C0F800171CBD09
:101F60003CB50A4CD4E90034CDE900346B46441842
:101F700008E000BF53F82010D1F8205520C2C1F866
:101F80002055401C8442F5D83CBD00000C3B0000AD
:101F90000168202902D24FF0A040704701F01F01D4
:101FA00001600148704700000003005001682029CB
:101FB00002D24FF0A040704701F01F0101600148BC
:101FC00070470000000300500168202902D24FF042
:101FD000A040704701F01F010160014870470000F8
:101FE000000300500168202902D24FF0A040704742
:101FF00001F01F010160014870470000000300501C
:1020000042094FF0000102D0012A05D102E04FF051
:10201000FF3101E04FF6FF7100F01F000122824006
:102020000A4201D0012070470020704701B5684680
:10203000FFF7BCFFD0F810050099C84000F0010080
:1020400008BD01B56846FFF7BFFF009A0121914026
:10205000C0F8081508BD01B56846FFF7C3FF009A30
:1020600001219140C0F8081508BD38B50124009041
:10207000684631B1FFF78CFF00998C40C0F80845E5
:1020800038BDFFF785FF00998C40C0F80C4538BD7E
:10209000034908B50844002101600068009008BDAC
:1020A0000060004002494058012800D000207047DD
:1020B0000060004030B5154A01460020D2F81044B7
:1020C00023460AE0DB681D79854205D1401C0A28B9
:1020D000F6DB4FF0FF3030BD1B68002BF2D1431C04
:1020E000F9D0CB681871D2F8103443B1DB68CC68F2
:1020F0001B682360D2F81024D268116030BDC2F88A
:102100001014C96800220A6030BD00006804002075
:10211000F0B595B01C4615460F4608461A9E00F0CD
:1021200009FB182109A8FEF7BAF90E96CDE9095462
:102130000023082203A9384600F011FB05980690F9
:10214000BDF81000ADF81C00BDF81200ADF81E007F
:1021500000208DF821000398082600F003000128D4
:1021600002D0022818D032E003983346850AC0F323
:10217000C2008DF8200003980FA9C0F38314A200B9
:10218000384600F0ECFA09A8009006AB22460FA9E9
:10219000284600F02BFA1AE00398840DC0F3C20021
:1021A0008DF82000082C01D2254600E00825334692
:1021B0002A460FA9384600F0D2FA2E44641B09AB18
:1021C00006AA29460FA800F079F9002CEAD1384672
:1021D00000F0B6FA15B0F0BD7047012001F0B2BAB8
:1021E000084810B50178084A515C19B1001D00F08B
:1021F0002DFE02E00C3000F027FDBDE8104000206D
:1022000001F0A0BA800000201400002008B5034AA5
:1022100000924023024AFFF77BFF08BD61340000B3
:10222000D00200200A4A012902EBC00007D002298F
:1022300007D0032907D0042907D0002070470220C7
:10224000704704207047007970474079704700005C
:10225000083D000010B5FFF7C0FF04210348FFF759
:1022600029FF02490120C968487110BDF83C0000EF
:102270002DE9F0478CB0FEF71BFF18B100200CB021
:10228000BDE8F0877D4C0020C4F81804BFF34F8FE1
:102290007B49A06802900D684FF00008284004EBCD
:1022A00080000BE0D4F8180470B96168029881428C
:1022B00001D8A160E2E7284004EB80000C3002A9BD
:1022C000FFF746FA0028EDD1002003AA029901EA9F
:1022D000050304EB8303491CDB6842F82030401CF3
:1022E00002910228F2D3039800F00300022802D0E2
:1022F00001284DD0A7E003985022810D8946B2EB0A
:10230000905F00D850210E4666F39F50039008312D
:102310005C4800F0C6F9070078D000F00BFA43469D
:10232000082203A9384600F022FA029908F1080AA7
:102330002940681A8000001D864222D94F4D0C3575
:1023400030B1C2B204EB8101301A90460C3104E086
:102350002946F2B2002590462846C6B25346384672
:1023600000F005FA0AEB080325B132462946384643
:1023700000F0FDF9029909F1030001EB90000290D1
:102380003BE004EB81015346324638460C31EFE71F
:102390000398C0F38310062800D30620039960F346
:1023A0008911C1F38310801C03918100354800F02E
:1023B00078F9070047D000F0BDF94346082203A989
:1023C000384600F0D4F908F1080800260FE002981A
:1023D000434600EA0501401C04EB810102900422FF
:1023E00038460C3100F0C3F908F10408761C039854
:1023F000C0F38310B042EAD847B1D4F81054D4F8EF
:10240000180478B1384600F09BF931E01BE0E86829
:102410004079012804D12A68284639461268904735
:10242000E8680568002DF2D1384600F089F90020EF
:10243000FEF7FEFAD4F8180408B90298A06000204C
:10244000FEF7F8FA14E0D4F8104405E021682046BD
:1024500089688847E0680468002CF7D10A480B496E
:10246000401AC008022101EB004009A100F01AF84F
:10247000FEF71EFE80F0010001E700006804002066
:102480009C000020483D0000403D0000083D000049
:102490004261636B656E647320666C757368656416
:1024A0000000000000231A4601F018B808B5012307
:1024B00000926A4601F012F808BD00002DE9F047CD
:1024C0000E4680461C469246082940D894F80C9047
:1024D000002020731946104600F0F0FD0025B5429B
:1024E00006D218F805201BA12046FFF77FFB03E06A
:1024F0001AA12046FFF77AFB6D1C082DEFD318A117
:102500002046FFF773FB0025B54212D218F805707C
:102510007E2F08D8FDF7A6FF0068C05D10F03E0FC3
:1025200001D03A4600E02E220EA12046FFF75EFBC6
:1025300003E00DA12046FFF759FB6D1C082DE3D3E6
:1025400001222146504600F09BFD84F80C90BDE826
:10255000F087000020253032780000002020200085
:102560007C0000002563000020000000064910B533
:1025700000200870054800F0E1F8002803D1044865
:1025800000F0FDF8002010BD68040020483D000068
:10259000843B000002480349401AC008704700000D
:1025A000483D0000083D000013B56846FFF71CFADF
:1025B00008B100201CBD0248009950F831001CBD34
:1025C000083D000070B508480125D0F8104405709A
:1025D00007E0E06845712168204649688847E0685F
:1025E0000468002CF5D170BD680400202DE9FF4778
:1025F00081460C9D00200C462F7B2873984616467A
:102600002946184600F05AFD072E42D2DFE806F0B0
:1026100004090F161F2A360049462846FFF7E6FA36
:1026200037E0494628462268FFF7E0FA31E0D4E96E
:10263000002349462846FFF7D9FA2AE0A06800900F
:10264000D4E9002349462846FFF7D0FA21E0D4E92F
:102650000201CDE90001D4E9002349462846FFF7ED
:10266000C5FA16E004F1080007C88DE80700D4E9B0
:10267000002349462846FFF7B9FA0AE004F10800AA
:102680000FC88DE80F00D4E9002349462846FFF71C
:10269000ADFA00222946404600F0F2FC2F73BDE857
:1026A000FF872DE9F041058A80462D1F4819C01C7F
:1026B000B0FBF5F0C6B24046FFF70FFA041E19D082
:1026C0000020207101206071E58000272546761EDC
:1026D000C4F800800BE04046FFF7FFF960B1617974
:1026E000491C6171286005467F1CC0F80080B74214
:1026F000F1D32046BDE8F081204600F002F800202A
:10270000F8E72DE9F041457901466B1E002201E012
:102710000968521C9A42FBD30F680146002605E067
:1027200038460C68FFF7F8F92146761CAE42F7D31D
:10273000BDE8F0810121001DFFF7B3B9FFF701BA31
:1027400010B504460121001DFFF7C1F910F0FF0F7D
:1027500004D12046BDE81040FFF7D3BF10BD1CB523
:1027600001920122009201AAFFF7FEF81CBD1CB5E0
:1027700001920022009201AAFFF7F6F81CBD8268C0
:102780000021916082681161826851618268D16024
:102790008268516080680160704708B5002242502D
:1027A0004058009008BD70B50D460646446804E0E8
:1027B000B2682946904718B1246820680028F7D1EC
:1027C00020682860256070BD4068006870474168D7
:1027D0000868002801D002680A607047024600209D
:1027E000526806E08B4203D10868106001207047F0
:1027F0001A461368002BF5D170474058002800D0C6
:102800000120704708B5002242504058009008BD92
:10281000D0F80403084000D0012070474058002839
:1028200000D00120704708B5002242504058009067
:1028300008BD0000002802D0014980010847704708
:10284000413B00002DE9F0410D46064600F090FBAB
:102850000028304615D0FEF797FC083800F008FC39
:10286000032802D001280AD003E03046FFF7DEFB40
:1028700028B103213046BDE8F041FFF759BB0221E2
:10288000F8E700F081FB002822D03046FEF77CFC00
:1028900004464FF4807000EB84000E4F81B207EBCA
:1028A0008400D0F8102542F00102C0F81025084637
:1028B000FFF7EEFB002D0BD03046FEF765FC064916
:1028C00051F82000002803D00120A040C7F80403DD
:1028D000BDE8F08100600040680100202DE9FC4166
:1028E000DFF8BC80044608EB0400002790F93000B4
:1028F0001346C0170E46401C01D008274DE0B078A3
:102900001946C0F340022046FEF71AFC0546401C5B
:1029100042D0B07841071AD4C0070DD06846009461
:10292000FFF744FB009900EB8101D1F8000720F08C
:102930000200C1F8000707E00021737820460091EB
:102940000A460191FFF771FA204600F003FBB078C8
:10295000800718D51348317800EB8500D0F8102592
:10296000114B1A40C0F810254FF47C524FF44033FD
:1029700002EA042203EA01410A43D0F810150A438F
:10298000C0F8102509E008EB0500327810F8581F50
:1029900041EA8211017000E004273846BDE8FC815D
:1029A0006801002000600040FFC0FCFF10B5FFF789
:1029B0003DFB002800D0012010BD000070B51A4D6D
:1029C00095F86A0008B1082070BD0024661E2046F4
:1029D000FFF716FB10B1281980F83060641CE4B2D0
:1029E000302CF4D300242046FEF79CFB641CE4B298
:1029F0000C2CF8D30C4800210C4C4166A0F8681050
:102A00000B49C02081F8000401264020891FC1F82D
:102A100000014FF4BE70FFF73BFBA004C4F80403B1
:102A200085F86A60002070BD6801002000600040E9
:102A300006E000E0034890F86A00002800D001207A
:102A400070470000680100200121B1EB507F01D1E7
:102A5000012070470020704770B50D4600F07AFBEA
:102A600004000FD00020FDF7E3FF207920B1002003
:102A7000FDF7E0FF112070BD0120256020710020CE
:102A8000FDF7D8FF002070BD10B500F063FB0028F3
:102A900002D000210160017110BD0000014902480F
:102AA00000F078BED4010020002000402DE9F04164
:102AB0000546007916460F4600EB40012D4A01EB12
:102AC000C00102EB810494F82A1011B10820BDE87E
:102AD000F081294951F820102868FFF7BDFF08B19F
:102AE0001120F4E739462846FDF7B8FF66603869DB
:102AF000206030004FF001062FD03F7F4FF48E71E1
:102B00002868FFF77FFE4FF4A2712868FFF77AFE6E
:102B100028681A49C0F8041328684FEA471140F39F
:102B20000730002804DB00F1E02080F8001405E005
:102B300000F00F0000F1E02080F8141D286840F339
:102B40000730002809DB00F01F0106FA01F14009F7
:102B5000800000F1E020C0F8001128680421C0F8CE
:102B600000150020A061E06184F8290044F8140FEA
:102B7000A675ACE7D4010020143B000080000200E1
:102B80002DE9F05F054600790B4600EB400101EBB3
:102B9000C000244901EB8004284600F045F810B13C
:102BA0001120BDE8F09F62614FF00009C4F8209049
:102BB000A36084F828904FF48E784E4641462868EA
:102BC000FFF720FE28684FF0010AC0F808A0214650
:102BD000286800F06FFD606808BBD5F800B0676931
:102BE0000FE000BF94F8280008B10F2615E0414619
:102BF0005846FFF702FE0028F4D02146584600F060
:102C000059FD206AB842F2D3574641462868FFF77B
:102C1000F4FD0028F9D02868C760C4F81490304645
:102C2000BFE70000D4010020007900EB400101EB78
:102C3000C000044901EB80004069002800D0012059
:102C400070470000D40100202DE9F04704460079C8
:102C50004FF0000900EB400101EBC000284901EBF7
:102C600080072068C0F800957868B0B120682549D1
:102C7000C0F80813206840F3073000280DDB00F08F
:102C80001F02012191404009800000F1E020C0F8BE
:102C90008011BFF34F8FBFF36F8F2068D0F80C25E2
:102CA000D0F81485D0F80865D0F810554FF0FF31F2
:102CB000C0F81415C0F80C152068C0F80815C0F845
:102CC0001015501C02D01046FFF7FAF8B8F1FF3F7C
:102CD00002D04046FFF7F4F8681C02D02846FFF700
:102CE000EFF8701C02D03046FFF7EAF82068FFF7D3
:102CF000CBFE87F82A90C7F80490BDE8F087000063
:102D0000D4010020840202000149024800F0F0BD15
:102D100000020020002000402DE9F0410546164643
:102D200000790F46154A00EBC00102EB810494F8CC
:102D3000201011B10820BDE8F081114951F8201090
:102D40002868FFF789FE08B11120F4E739462846C4
:102D5000FDF7BFFE6660386920601EB1397F2846E6
:102D6000FEF7B2FC28680821C0F800150020A06119
:102D7000E0616061012184F82010DCE7000200209E
:102D8000183B00002DE9F04704460E46007927491C
:102D900000EBC00001EB800517463046FFF754FEFC
:102DA00030B1204600F044F820B11120BDE8F08792
:102DB0001020FBE76F61AE604FF490774FF0000892
:102DC00039462068FFF72FFD4FF4AC763146206876
:102DD000FFF729FD2068AA686969C0F84425C0F892
:102DE000481520684FF00109C0F808906868D0B90C
:102DF000BA4651462068FFF711FD07463146206864
:102E0000FFF70CFD0743F4D010B14FF00F0808E0B6
:102E10002068C0F80C9031462068FFF7FFFC0028BE
:102E2000F9D0002068614046C0E7000000020020A1
:102E30000079054900EBC00001EB800040690028E3
:102E400000D0012070470000000200202DE9F0476B
:102E5000064600793D4900EBC00001EB800534686F
:102E600068680127A8B13A49C4F80813306840F3EC
:102E7000073000280DDB00F01F0107FA01F14009BF
:102E8000800000F1E020C0F88011BFF34F8FBFF346
:102E90006F8FD4F8000220F02000C4F80002A86967
:102EA0004FF4A27820B141462046FFF7BCFC676092
:102EB0004FF4AC7949462046FFF7B5FCE76047463A
:102EC00049462046FFF7AAFC0028F9D0A86928B196
:102ED00039462046FFF7A2FC0028F1D04FF0000A47
:102EE000C4F800A53068D0F80C25D0F81495D0F8B7
:102EF0000885D0F810754FF0FF31C0F80C15C0F8F8
:102F000014153068C0F80815C0F81015501C02D010
:102F10001046FEF7DEFFB9F1FF3F02D04846FEF74C
:102F2000D8FF781C02D03846FEF7D3FFB8F1FF3F38
:102F300002D04046FEF7CDFF2046FFF7A5FD85F8FD
:102F400020A0C5F804A0BDE8F08700000002002022
:102F50001003420010B50549C20800F00703885C61
:102F600001249C402043885410BD0000CC01002067
:102F70000449084490F93000082801DB012070471B
:102F800000207047680100200449084490F930008F
:102F9000082801D2012070470020704768010020F6
:102FA0002DE9F84F314F05464FF00109002438193B
:102FB00090F96010491C46D090F86000294620F036
:102FC000C0063046FEF7D5FD70B3204600F050F83D
:102FD000824668460096FEF7E9FF009900EB810003
:102FE000D0F80007C0F30148B8F1020F1DD002214C
:102FF0003046FEF79DFF68460096FEF7D7FF009A21
:1030000009FA02F1C0F820153046FEF7BDF857F86E
:1030100020204AB15046BAF1030F11D0B8F1020F87
:1030200005D0B8F1030F07D00DE00321E0E75046CB
:10303000BAF1010F04D006E05046BAF1020F02D1F6
:10304000014630469047641C042CB0D32A46022126
:103050000020FEF785FF002055F820100029A5D19B
:10306000401C0228F8D3BDE8F88F0000680100205A
:103070000249084490F86000800970476801002008
:1030800010B50C46017A052908D0407A38B10848B5
:1030900008A102682046FEF7A9FD00E01AB106A1CA
:1030A0002046FEF7A3FD2046BDE81040FEF7ABBD6D
:1030B000CC000020257300000D0A000038B5C3883D
:1030C0000D46044633B114A0009015A216A128465F
:1030D000FEF78CFD217A05291CD0607A48B1A088C2
:1030E000FFF7A0F8164951F8202016A12846FEF750
:1030F0007DFDA0880021FFF757FA03461049207A8A
:10310000143951F8202001B02846BDE830400EA106
:10311000FEF76CBD38BD00001B5B306D0000000089
:103120001B5B313B33316D0025734C6F677320643B
:10313000726F70706564202825642925730D0A005C
:10314000CC000020257300003C25733E2025733AF7
:10315000200000000349884201D103487047002045
:1031600070470000002000402800002070B5324861
:103170000024046030490720091F08602E48001D04
:103180000460C32000F0F4F90506C22000F0F0F955
:1031900045EA0045C12000F0EBF945EA0025C020D2
:1031A00000F0E6F90543244818300560C72000F018
:1031B000DFF90506C62000F0DBF945EA0045C4202A
:1031C00000F0D6F905431C481C3005601B48FDF78C
:1031D00093FF1949103108601948FDF78DFF164912
:1031E0001431086014482030046013490120243150
:1031F00008601148083004600F4912480C3108601B
:103200000D480221283001600168021D01F003030E
:1032100009493031022B0AD0006800F00300012870
:1032200004D1FF20086040F20710106070BD4FF617
:10323000FF7008600448F8E70C150040674523015B
:10324000EFCDAB89010104012110010070B50546E5
:10325000FEF7B3F8134C40B1D4E904024FF080718B
:10326000411842F10000C4E9041000212846FDF78E
:10327000F1FF30B1606820B1606800F08BF9002088
:10328000606001212846FDF7E5FF18B1FEF790F9CF
:10329000C4E90601284600F0A9F92846BDE87040B7
:1032A00000F034B84800002070B5054600200C46F8
:1032B0000870FEF77DF9D5E90223101A63EB0103CC
:1032C00000263146361A994112DAB0F5350F03D38C
:1032D000FDF750FB0B4942184FF4960300210A48B2
:1032E000FEF777F810B10D2806D009E0012070BD77
:1032F00000210548FDF7A4FF284600F04BF9207097
:10330000002070BDFFFFB40050000020F8B51A4C3B
:10331000074600261948FFF757FAD0B1616871B126
:10332000D0E902106268D2E90232C91A904120D273
:103330006068007F18B161681048FFF734FA00F048
:10334000AFF805466946FFF7AFFF98B1606840B136
:103350000AE0606800280CD13846BDE8F840FEF766
:1033600034B83846FEF72DF865609DF80000002857
:10337000D0D1F8BD6660CDE7480000202C3B0000AE
:1033800070B5054688690C4600284FF484712846BC
:103390000AD0FFF737FAD5F81805626AE168885451
:1033A000606A401C606270BDFFF72CFAD5F8180502
:1033B00070BD1FB501238DF80030CDE90121D0E9A2
:1033C0000012684690471FBD1FB501238DF80030DD
:1033D000CDE90121D0E90012684690471FBD0000E9
:1033E0002DE9F041164C0025C4F800510126266055
:1033F000D4F800010028FBD0C4F80C51C4F80860D0
:10340000D4F80C010028FBD00820FDF7B9FC0746D2
:103410000C480D49401AC008032101EB00400BA1E4
:10342000FFF740F8380001D0FDF798FAC4F81051C2
:10343000C4F81060D4F810010028FBD0BDE8F0817A
:1034400000100040403D0000083D00005468652029
:103450007061636B6574207761732073656E7400AF
:1034600070B50D4C0020D2B22070201D0B4D03789A
:10347000EB5C1BB1001DFFF785FC02E00C30FFF791
:103480007FFB08B1FDF76AFA6078002802D0217846
:103490000029FAD070BD00007C000020140000203C
:1034A0000148FFF794B900002C3B0000C207002A36
:1034B00003D000BF4FF00F0201E04FF0F00201D047
:1034C0004FEA0111044B03EB5003187800EA0200A5
:1034D00040EA010018707047480200202DE9F84FBB
:1034E000074621489146884605681E4601226946DE
:1034F0001846FDF77FFDDFF874A060B30098002147
:103500000446801C0AE000BF00EA050259F821C009
:103510000AEB8202401C491CC2F80CC0B142F3D332
:103520004FEA1749FDF782FE611C29400AEB810131
:1035300049EA00422C40CA600AEB8401C86867F37C
:10354000C50066F3891068F39F2020F00300401C3B
:1035500020F00400C8609AF8000001E0FEF788FE41
:103560000028FBD1BDE8F88F9C00002068040020F3
:10357000014610B50020CBB24FEA000123FA01F258
:1035800002F00102C1F10704A2401043491C0829BE
:10359000F4D310BD70B50446124800250078F8B188
:1035A000F4B1207FE0B1FEF703F8D4E90223801ADA
:1035B000994110D32069002600B92677D4E9051077
:1035C0008847206960B1217F51B1D4E902211018E8
:1035D0007141C4E9020121460348FFF7E4F80125DF
:1035E000284670BD480000202C3B0000F8B51B4C5D
:1035F00069462068FEF739FA00260127184D29E0B0
:10360000017821B101290CD002291BD114E04168B5
:103610000A7FBAB90F77416810480830FFF7C3F83E
:1036200010E041686868814201D16E600AE00B4891
:103630000830FFF7D3F805E0FFF732FF08B106774F
:10364000FAE72F7069462068FEF704FA6946206899
:10365000FEF70BFA0028D3D1F8BD0000243B000090
:1036600048000020F8B50B4C0D4606466946206818
:10367000FEF7E5F958B10670456069462068FEF727
:10368000FFF910B10448FDF785FE0020F8BD0420C5
:10369000F8BD0000243B0000500000200348806873
:1036A0004108034800224068FDF7A4B9300000201B
:1036B0001C3B000070B50C4605464FF48E71FFF7B9
:1036C000A1F8216AA068415C206A401C2062C5F80C
:1036D0001C1570BD1FB500228DF800200291816875
:1036E00001914261D0E90012684690471FBD1FB5A5
:1036F00000228DF800200291816801914261D0E999
:103700000012684690471FBD1FB50A4601788DF824
:10371000001041680191017A8DF80810C06803908B
:10372000044850F82210083850F822206846904784
:103730001FBD0000200000200149012008707047D3
:103740007C00002010B588B0044620220E4968464F
:10375000FCF78CFE06200090C01F019002900390A1
:103760004FF0EB7006900CB1084A00E00022694669
:103770000748FEF707FA08B1FDF7F0F80448001F04
:10378000447008B010BD0000643B000039370000F1
:10379000800000202DE9FF470C4605464FF40071DC
:1037A000FFF736F801274FF40178002618B34FF4DD
:1037B000927949462846FFF720F8E0B14946284665
:1037C000FFF720F8C5F8088394F8290000B96F6066
:1037D00002208DF80000D5F88004C5F8800403901D
:1037E000A0690290E0680190A661E661D4E9001248
:1037F0006846904728E004212846FFF709F818B3E7
:103800004FF484712846FEF7F8FFE8B121462846B8
:10381000FFF7B6FD616AA069884215D1E06938B149
:10382000E268616AA0612069E6616662E06008E0C2
:1038300094F8290000B96F60C5F80883A661E268B2
:10384000616A2046FFF7B5FD4FF48E784146284661
:10385000FEF7D3FF80B16069216A814202D294F8F9
:10386000280028B341462846FEF7CCFF606918B10E
:1038700061692046FFF72EFF4FF4A27841462846A3
:10388000FEF7BBFF002818D041462846FEF7BAFFD6
:1038900094F8290000B12F60A06900280DD0A6611E
:1038A000E268616A04B02046BDE8F047FFF781BDD9
:1038B00021462846FFF7FEFEDEE7BDE8FF87000051
:1038C0001FB50A4601788DF8001041680191017A10
:1038D0008DF80810C0680390044850F8221008388A
:1038E00050F82220684690471FBD000020000020AD
:1038F0002DE9FF410C464FF4927705463946FEF715
:103900008DFF0026B8B139462846FEF78CFF02200D
:103910008DF80000D5F88004C5F880040390D5F830
:103920003C050290E0680190A661E661D4E90012CE
:103930006846904723E04FF4887739462846FEF7DB
:103940006DFFE0B139462846FEF76DFFD5F83C150E
:10395000A069884213D1E06960B1E268D5F800023D
:1039600020F02000C5F80002E069A0612069E6614E
:10397000E06001E0A661E2682046FFF725FD4FF414
:10398000A27739462846FEF749FF68B139462846EE
:10399000FEF749FFA06938B1A661E661D5F83C158C
:1039A0002046E268FFF710FD4FF490763146284636
:1039B000FEF734FF60B131462846FEF734FF0120A0
:1039C000E860606920B1D5F84C152046FFF78FFEFE
:1039D0004FF4AC7631462846FEF720FF00280ED083
:1039E00031462846FEF71FFF6069002807D0D5F84A
:1039F0004C1504B02046BDE8F041FFF778BEBDE8A5
:103A0000FF8100002DE9F05F8346DDE90A4A99460F
:103A100090460D460846012703E000BFB0FBF8F0D2
:103A20007F1C4045FAD2B94500D94F465FEACA70BB
:103A300012D18CB15FEA8A7002D5B9F1000F01D0C2
:103A4000202607E0302605E031465846641EFDF783
:103A500017FB0CB1A742F7D35FF00106B9F1010FD4
:103A600002D9A9F1010903E0B5FBF6F0404502D304
:103A700006FB08F6F2E7DFF83C9000BFB5FBF6F076
:103A800000FB165519F800105846FDF7F9FAB6FB79
:103A9000F8F6002EF2D15FEACA7009D0002C07D0E8
:103AA000A74205D220215846641EFDF7E9FAF5E742
:103AB000BDE8F09F463B000070B50C460546FDF79B
:103AC00003FB002807D04268002A04D0214628467C
:103AD000BDE87040104770BD0D0E0F100B0C18198B
:103AE000F800002018010020480100200B0003000E
:103AF000810C00000C000300810C00001800030082
:103B0000810C000019000300810C0000000000502F
:103B1000000300509D2A0000092D00000300000052
:103B200028020020680200200100060000000000BA
:103B300068000020CD11000000000000000000001F
:103B40000338FDD8704730313233343536373839A1
:103B500041424344454600000D220000E12100009F
:103B6000D9210000FFFFFFFFFFFFFFFFFFFFFFFF67
:103B7000FFFFFFFF00000000000000000000D60172
:103B800006010000D00300207F0000005004002048
:103B90000040404040404040404041414141414060
:103BA0004040404040404040404040404040404015
:103BB00040050202020202020202020202020202A4
:103BC00002202020202020202020200202020202A9
:103BD0000202909090909090101010101010101001
:103BE000101010101010101010101010020202020D
:103BF0000202888888888888080808080808080851
:103C0000080808080808080808080808020202024C
:103C100040000000913B00007761726E696E6700A2
:103C200064656275670000001B5B313B33306D00DB
:103C30001B5B306D000000001B5B313B33316D00BE
:103C40001B5B313B33326D001B5B313B33336D000B
:103C50001B5B313B33346D001B5B313B33356D00F7
:103C60001B5B313B33366D001B5B313B33376D00E3
:103C7000696E666F000000006572726F720000006E
:103C80004750494F5445000050525300554152543B
:103C90000000000055415254450000006170705F03
:103CA000627574746F6E00006170705F74696D6529
:103CB00072000000736F72746C697374000000000E
:103CC000756172745F6C6F675F6261636B656E6470
:103CD00000000000617070005C3D000000000020EA
:103CE000F400000010080000503E0000F400002026
:103CF0009427000020080000583B0000000000004E
:103D0000C03C000094000020803C00000000000047
:103D1000883C0000000000008C3C00000000000017
:103D2000943C0000000000009C3C000000000000EB
:103D3000A83C000000000000B43C000000000000AF
:103D4000D43C000000000303A8000020A0000020D5
:103D5000A800002010030020180000000000000050
:103D60000000000000000000000000000000000053
:103D70000000000000000000000000000000000043
:103D80000000000000000000000000000000000033
:103D90000000000000000000000000000000000023
:103DA00000000000000000000000000000100140C2
:103DB00011000400000000000000000000000000EE
:103DC00000000000000000000000000000000000F3
:103DD00000000000000000000000000000000000E3
:103DE0000020004000000000002000400000000013
:103DF00000000000FF000000FF00000000000000C5
:103E000000000000000000000000000000000000B2
:103E10000000000000000000783C0000183C00009A
:103E2000703C0000203C0000303C0000283C0000BA
:103E3000383C0000403C0000483C0000503C000082
:103E4000583C0000603C0000683C00000090D0033B
:0400000500000201F4
:00000001FF
