:020000040000FA
:10000000182900202D030000350300001502000010
:10001000390300003B0300003D0300000000000026
:100020000000000000000000000000003F0300008E
:1000300041030000000000004303000045030000EE
:100040001908000047030000090B000047030000E7
:100050004703000025060000470300004703000097
:100060004703000047030000470300004703000068
:100070004703000047030000470300004703000058
:100080004703000047030000470300004703000048
:100090004703000047030000470300004703000038
:1000A000470300004703000047030000B90A0000AF
:1000B00047030000470300000000000000000000AC
:1000C0004703000047030000470300004703000008
:1000D00047030000470300004703000047030000F8
:1000E0004703000047030000470300000000000032
:1000F000000000004703000000000000470300006C
:1001000000000000000000000000000000000000EF
:1001100000000000000000000000000000000000DF
:1001200000000000000000000000000000000000CF
:1001300000000000000000000000000000000000BF
:1001400000000000000000000000000000000000AF
:10015000000000000000000000000000000000009F
:10016000000000000000000000000000000000008F
:10017000000000000000000000000000000000007F
:10018000000000000000000000000000000000006F
:10019000000000000000000000000000000000005F
:1001A000000000000000000000000000000000004F
:1001B000000000000000000000000000000000003F
:1001C000000000000000000000000000000000002F
:1001D000000000000000000000000000000000001F
:1001E000000000000000000000000000000000000F
:1001F00000000000000000000000000000000000FF
:10020000DFF80CD000F0E4F8004800477D11000052
:1002100018290020094B1EF0040F1CBFEFF30980C2
:100220001847EFF308800649064A884201D89042F1
:1002300002D88D464FF0000018470000310400003E
:10024000182900201809002030B4044654E8000F93
:100250000D4644E80053002BF8D1156030BC7047C0
:1002600030B4044654E8000F40EA010544E8005366
:10027000002BF7D1156030BC704730B4044654E809
:10028000000F00EA010544E80053002BF7D1156088
:1002900030BC704730B4044654E8000F80EA0105D2
:1002A00044E80053002BF7D1156030BC704730B4E0
:1002B000044654E8000F00EB010544E80053002B0E
:1002C000F7D1156030BC704730B4044654E8000FD5
:1002D000A0EB010544E80053002BF7D1156030BCBA
:1002E000704770B404464FF0000054E8006F0D688A
:1002F000AE4207BF44E80023012044E800630E60DB
:10030000002B1CBF0020F0E770BC704730B40446DF
:1003100054E8000F88422CBF451A054644E80053B4
:10032000002BF5D1156030BC7047000006488047AF
:1003300006480047FEE7FEE7FEE7FEE7FEE7FEE7CA
:10034000FEE7FEE7FEE7FEE771080000010200009D
:10035000202A04DB203A21FA02F00021704721FA1A
:1003600002F3D040C2F12002914008431946704781
:1003700000487047C03A000040EA01039B0703D0E1
:1003800009E008C9121F08C0042AFAD203E011F8D4
:10039000013B00F8013B521EF9D27047D2B201E096
:1003A00000F8012B491EFBD270470022F6E710B57A
:1003B00013460A4604461946FFF7F0FF204610BDD3
:1003C000421C10F8011B0029FBD1801A7047000065
:1003D000064C074D06E0E06840F0010394E8070092
:1003E00098471034AC42F6D3FFF70EFF944000005C
:1003F000B440000030B58C1810F8012B12F00F0338
:1004000001D110F8013B120906D110F8012B03E0CD
:1004100010F8015B01F8015B5B1EF9D101E001F806
:10042000013B521EFBD1A142E6D3002030BD0000AB
:100430001CB5814601F0D8FF01F01AFE0028FBD15F
:100440002D485FEA090507682C482D494FF0010641
:10045000A0EB01004FEAD00006EB004417D0204685
:1004600028A1AA6901F022FFD5E90201CDE9000126
:10047000D5E90023204629A101F028FFE869009072
:10048000D5E90423204633A101F017FF03E02046FD
:100490003AA101F007FF1848001D0068800703D546
:1004A0002046434901F0FEFEDFF80881002500BF29
:1004B00006FA05F0384206D058F825201AB1204631
:1004C0003DA101F0F3FE6D1C1A2DF1D3380606D5BF
:1004D00009480C30026820463AA101F0E7FE3804D2
:1004E00006D505481030026820463EA101F0DEFE28
:1004F000484600F085F8000028ED00E0FC400000D0
:10050000C440000048415244204641554C542061AB
:1005100074203078253038580000000020205230F8
:100520003A2020307825303858202052313A202087
:10053000307825303858202052323A202030782523
:10054000303858202052333A20203078253038581F
:100550000000000020205231323A20307825303817
:100560005820204C523A202030782530385820200E
:100570005053523A20307825303858005374616314
:100580006B2076696F6C6174696F6E3A2073746169
:10059000636B20706F696E746572206F7574736918
:1005A000646520737461636B20617265612E000065
:1005B0009C3B00003800002043617573653A20259C
:1005C000732E00004D656D4D616E6167652046615B
:1005D000756C7420416464726573733A20307825B9
:1005E00030385800427573204661756C7420416440
:1005F00064726573733A20307825303858000000F3
:10060000BFF34F8F05480168054A01F4E0611143CB
:100610000160BFF34F8F00BFFDE700000CED00E06D
:100620000400FA052DE9FF5F4FF482750024284687
:1006300001F0B8FF38B1022001F0C4FF18B128461C
:1006400001F0B8FF02244FF48475284601F0AAFF98
:1006500058B1042001F0B6FF38B1284601F0AAFFD6
:100660000CB1032402E0012400E014B1204602F0A2
:1006700031F94FF48C7001F095FFDFF88891624FEB
:10068000624E634C4FF000084FF4947A4FF4867B2F
:1006900078B3402001F096FF58B34FF48C7001F00E
:1006A00089FFB068CDE90008D9F8000003905548EB
:1006B000143000685546C0F30B001038C0F3CC006E
:1006C0000290504601F06EFF60B1381501F07AFFDC
:1006D00040B1386800F00D000190284601F06AFF33
:1006E0000D203860616809B168468847584601F0B6
:1006F00061FF4FF4887001F055FFA0B1102001F0A8
:1007000061FF80B14FF4887001F054FF06F11800CA
:100710000FC88DE80F003F491820C1F80803616831
:1007200009B1684688474FF4A67001F03BFF364D8B
:10073000083D30B34FF4002001F044FF08B34FF4FC
:10074000A67001F037FF4FF48C7001F033FF504674
:1007500001F030FF584601F02DFF4FF4887001F092
:1007600029FF002002F012F90D20386001202860D6
:1007700006F128000FC88DE80F00616809B16846CE
:1007800088474FF48E7A504601F00CFFC0B18020AC
:1007900001F018FFA0B12F68504601F00BFF38366A
:1007A00096E80F008DE80F00F80707D001202860B9
:1007B0008DF80480616809B1684688470120286087
:1007C0005D46584601F0EEFE002819D0082001F0E1
:1007D000F9FE002814D0284601F0ECFE61680029DB
:1007E0000ED008200090D9F80000029005480C3087
:1007F000006840F2FF1202EAD00001906846884784
:10080000BDE8FF9F105500400C540040883900009F
:100810006C0200200050004070B54FF480763046E6
:1008200001F0D1F8114CB50560B1304601F0D2F8B5
:100830000120C5F80803607920B9012060712168A2
:10084000002088474FF48276304601F0BCF800283B
:100850000AD0304601F0BEF80220C5F8080321682E
:10086000BDE870400120084770BD00001400002062
:10087000F0B54FF080527F4ED2F830017E4FD2F863
:100880003411431C08D005464FEA010400234FF001
:10089000010C082D05D013E03B783578C3F3031421
:1008A000F4E72CB1012C03D0022C01D0032C07D18A
:1008B0004FF08044C4F80C31C4F810316F4C236001
:1008C000441C04D005460C46082D05D061E03C7858
:1008D0003578C4F30314F7E72CB1012C03D0022CB4
:1008E00001D0032C55D1664C2468664D2C60644CB5
:1008F000241D24682D1D2C60614C083424682D1D96
:100900002C605F4C0C3424682D1D2C605C4C103422
:1009100024682D1D2C605A4C143424682D1D2C6025
:10092000574C18342468574D20352C60544C1C34D7
:1009300024682D1D2C60524C203424682D1D2C6001
:100940004F4C243424682D1D2C604D4C28342468D1
:100950002D1D2C604A4C2C3424682D1D2C60484CD5
:1009600030342468474D40352C60454C343424687D
:100970002D1D2C60424C383424682D1D2C60404CB9
:100980003C3424682D1D2C603D4C403424682D1DC2
:100990002C60082804D10C0002D13C4D3A4C2C604C
:1009A000082804D10C0002D1394DFB242C60082802
:1009B00008D10C0006D192F85852364A146865F3F3
:1009C00003041460082804D10A0002D1324C8201C9
:1009D0002260421C03D139783078C1F30311082812
:1009E0000DD129B1012903D0022901D0032906D153
:1009F0002A480168C90702D06FF001010160284848
:100A0000016841F470010160BFF34F8FBFF36F8F36
:100A10004FF01021D1F80002002803DBD1F80402C6
:100A2000002823DA1F4AC2F800C01F480468002CBF
:100A3000FCD01224C1F800420568002DFCD0C1F89A
:100A4000044201680029FCD0136001680029FCD031
:100A5000BFF34F8F12487C380168144A01F4E061FB
:100A600011430160BFF34F8F00BFFDE711491048EC
:100A70000860F0BDE00F00F0E80F00F0380500401E
:100A80000404001020C50040488103008C5600403B
:100A900018F50040E40E004040960240000400407B
:100AA00088ED00E004E5014000E401400400FA059F
:100AB0000090D0031C0100202DE9F047104E0627BE
:100AC00000244FF4A0784FF4803900BF08EB840570
:100AD00009FA04F0715961B1D6F80413014208D043
:100AE0002946304601F0ECFD0648D0E900212846B1
:100AF0009047641CE4B2BC42E8D3BDE8F087000034
:100B000000B001407C02002001480068004700005E
:100B10002C000020002809DB00F01F020121914079
:100B20004009800000F1E020C0F88012704702E028
:100B300008C8121F08C1002AFAD170477047002068
:100B400001E001C1121F002AFBD1704770B5254C8E
:100B5000A0421ED1F1B1012936D0022928D00329A3
:100B600017D1072000F0C6FB002812D194F86800C6
:100B700094F8691088420CD194F86A00002808D1D2
:100B80000023D4E901501A460321A847012084F824
:100B90006A0070BD052000F0ADFB0028F9D1A06807
:100BA00064680023A446BDE870401A4601216047EE
:100BB00010461900EDD00028EBD00278302AE8D199
:100BC000BDE8704000F0B6BB082000F093FB28B9E8
:100BD000A068002364681A460221A047BDE870405F
:100BE00000F05CBC9008002072B601F0FDFB00BF75
:100BF00001F03EFA0028FBD111481249401AC408FE
:100C0000012000EB044010A101F04CFB11480068EA
:100C1000C00700D000BE022000EB04400EA101F08E
:100C200041FBBFF34F8F0B48E43801680E4A01F4D3
:100C3000E06111430160BFF34F8F00BFFDE700008B
:100C400004410000C4400000466174616C2065727C
:100C5000726F7200F0ED00E053797374656D20726D
:100C600065736574000000000400FA050EB50021EC
:100C70000091CDE901106A4644F20100FFF7B4FF8C
:100C80000EBD00F003B800F009B8000072B60248CB
:100C90000168491C0160704734000020034908685E
:100CA000401E086000D162B670470000340000208A
:100CB00070B5054608680C46411C04D001F0D2F816
:100CC000206801F090F86068411C02D0002101F01A
:100CD00078F82968A069C1F82405607D227D29681B
:100CE0001043C1F86C05D4E900122868C0F8142537
:100CF000C0F80C15207D012814D1A068411C02D039
:100D0000002101F05EF8E068411C04D001F0AAF86F
:100D1000E06801F068F8D4E902122868C0F80825F4
:100D2000C0F8101570BD70B5054608680C46411C2A
:100D300004D001F0A1F8206801F05FF86068411C60
:100D400002D0002101F046F82968A069C1F8240505
:100D5000607D217D2A680843C2F86C05D4E9001241
:100D60002868C0F80C15C0F81425207D012814D17E
:100D7000A068411C02D0002101F02CF8E068411C61
:100D800004D001F079F8E06801F037F8D4E90212F4
:100D90002868C0F80825C0F8101570BD2DE9FC4181
:100DA0000646C0074FF000050ED0104F0024012268
:100DB000385D009500231146019500F0A5FF641CE5
:100DC000042CF4D300F024F8B0070DD5074E00240E
:100DD000361D0022305D032300951146019500F079
:100DE00093FF641C042CF4D3BDE8FC81803900001F
:100DF0000249085C012101F049B800008039000077
:100E00000249085C002101F041B80000803900006F
:100E100010B500242046FFF7EBFF641C042CF9D327
:100E200010BD00002DE9F0470546861C91460F468F
:100E30004FF0010A0020FFF724FF1B4C04F21C486E
:100E400060683860D4E90101184F401A3968081AFF
:100E50000EE00121404600F04EFD00F03DF9014654
:100E6000404600F048FDD4E90101401A3968081AEB
:100E7000401C8642EDD8B9F1000F03D0052065F380
:100E8000891002E0062065F39F5061683A681140BE
:100E900004EB8101C8606068304460600020FFF7A7
:100EA000F2FE5046BDE8F08770040020C00000202C
:100EB00070B50D4604460A2902D10D21FFF7F8FF4F
:100EC000A0682268411CA1601554D4E90101814247
:100ED00004D32046BDE8704000F01DBE70BD000088
:100EE000044881684068814201D101207047002098
:100EF000704700007004002070B5084C050009D050
:100F000010342168002907D0086820604968284605
:100F10008847F6E70834F4E770BD00005802002067
:100F2000002801D101F000BE70470000054A0121F0
:100F300020B1012805D19170FFF7DEBF517000206C
:100F4000FAE770475802002010B50021024800F06F
:100F5000DDFC80F3100010BD8C0800202DE9FC5F43
:100F60000E008346DDE90C47C6F100009846924624
:100F7000814600D40846012503E000BF90FBFAF04B
:100F80006D1C5045FADAA84500D9454624B1002E1B
:100F900001DB780700D5641EB80702D5B8F1000F51
:100FA0000AD0F80708D13CB1A54205D22021584605
:100FB000641EFFF77DFFF6E7002E02DA4E462D2174
:100FC00002E0780703D52B215846FFF771FF07F0A1
:100FD000030002280BD1B8F1000F08D13CB1A542A3
:100FE00005D230215846641EFFF762FFF6E7CDE9CF
:100FF0000047434652463146584602F0B7FBBDE82B
:10100000FC9F000070B50D46044600684FF48871DF
:1010100001F072FB4FF49071206801F06DFB4FF40A
:101020009271206801F068FB4FF4A271206801F012
:1010300063FB4FF4AC71206801F05EFB206812493D
:10104000C0F804132068690740F30730090E002830
:1010500004DB00F1E02080F8001405E000F00F0050
:1010600000F1E02080F8141D206840F307300028CC
:1010700009DB00F01F02012191404009800000F1CE
:10108000E020C0F8001170BD1003420002460020AD
:101090001268530713D502F00300012802D002287A
:1010A0000CD105E0C2F383100B68801C184404E0E7
:1010B0000223086803EB9252104408600120704735
:1010C0000268134602E08A4204D01268002AFAD16C
:1010D0000B600160704700002DE9FF4100262448A5
:1010E00000F006FC2248001F074600F001FC214CDE
:1010F0002149A06800900D6800E0009869462840EA
:1011000004EB80000C30FFF7C1FF0028F5D101AAE5
:10111000009901EA050304EB8303491CDB6842F8EC
:101120002030401C00910228F2D3019800F0030007
:1011300001280BD0022810D10198032101EB905017
:101140000099BDF80A6001EB900005E00198BDF838
:101150000A60C0F3831008440090384600F0C5FBD5
:1011600008B10098A06004B03046BDE8F0810000EE
:101170008808002070040020C000002008B54FF44B
:10118000807000210090084601F002F908B1FFF7D5
:101190006DFD00F05FFF0120FFF700FE00210F480A
:1011A00000F04AFB08B1FFF761FD69460C4802F008
:1011B00037FB08B1FFF75AFD0948009900F01CFB06
:1011C00008B1FFF753FD00F085FA08B1FFF74EFDB7
:1011D00000F04EFF0028FBD120BFF9E741150000C9
:1011E000580100202DE9F047C5881E1DB6FBF5F714
:1011F0008946B6FBF5F1044605FB176C4079166885
:101200006843DDF820A0F718001F874200D9C61AEE
:10121000166001E02468491E0029FBD1A5EB0C07EC
:101220008846B74216D818E004EB0C00001D09EB05
:101230000803BAF1000F3A4602D00146184600E012
:101240001946FFF799F82468F61B4FF0000CB844D4
:10125000B54201D9374600E02F46002EE4D1BDE863
:10126000F087000030B5024651B101F0A5F8002129
:10127000074C08E034F821301568AB4202D1116008
:10128000002030BD491C8142F4D3052030BD000050
:101290000000000010B51C46934200D914462246B7
:1012A000FFF76AF8204610BD10B51C46934200D9DE
:1012B00014460A462146FFF771F8204610BD00008B
:1012C0000B4900F1100213464A610A6913448B610D
:1012D00028B14FF47C73CB614FF4806301E00023AD
:1012E000CB61C01C104480080B6281F86900704714
:1012F0009008002070B50D4D0D4A00212C7800BFDC
:1013000001EB4103D65CA6420AD113445B788342C9
:1013100006D101EB4100104480782870002070BD98
:10132000491C0E29ECD3082070BD00009008002055
:101330002001002070B50446022920D10620FFF7C5
:10134000D9FF00281BD10E4964784B69A2002046C2
:10135000934208D88D69103D954204D3C968C3EB08
:101360008400084403E000F017F8054838301021E5
:1013700000F014FA2046BDE8704000F0B3B870BD2C
:1013800090080020034902684A6242688A62008924
:1013900088857047900800202DE9F041334E840085
:1013A000102529463046FFF700F8A6F1380778697E
:1013B000A0420BD9021B39192B4630462431FFF7C6
:1013C00069FFD0F11005044406444CD0B869A0422E
:1013D0000CD978693969201A0A1AF9682B46014430
:1013E0003046FFF757FF2D1A04440644002D3AD02B
:1013F000B869A0420ED1396A61B1F969884209D051
:101400002B460122FE213046FFF74EFF2D1A0444E1
:10141000064428D0F869A04209D9021B2B460021B6
:101420003046FFF741FF2D1A044406441BD0386AAA
:10143000A04210D9021B2B46FF213046FFF734FF94
:10144000F969611AC1F10E01A94201D83F22725413
:101450002D1A064407D02B463046BDE8F0411A4607
:101460000021FFF721BFBDE8F0810000C80800207F
:1014700070B50C460546914201D90C2070BD012083
:10148000FFF738FF08B1082070BD05B900240248F5
:10149000C0E90354002070BD9008002070B5002101
:1014A00003230A460C460E4801260CE006FA03F513
:1014B0000D43E9B25B1E05D5831883F84810072356
:1014C0000021521C641C90F86950A542EEDC0244D5
:1014D00082F84810002100F8681F817070BD00007C
:1014E00090080020F0B5C208514200EBC101002471
:1014F000124BC1F107010125042813D305FA01F6A7
:1015000003EB020CF7B29CF848603E4204D0BE43A5
:101510008CF848602E4600E0002693F868703E4440
:1015200083F86860491E01D50721521C401C10F049
:10153000FF0002D0641C042CDEDBF0BD900800200C
:10154000012904D0022905D10020FFF751BC002059
:10155000FFF756BC70472DE9F843904689460700CF
:101560004FF0000606D0B8F1000F03D03D680DB172
:10157000002422E00E20BDE8F88324B1611C8842DB
:1015800007D1402106E0012801D0802102E0C021DE
:1015900000E00021D8F800006B46801B00904A460E
:1015A000286800F01FF80028E5D10098B9F1000F75
:1015B000064400D08144641C2D1DB868A042DCD8CC
:1015C0000020C8F80060D6E7D0E901329A4201D382
:1015D00004207047036843F822108168491C816029
:1015E000002070472DE9F843144698460A46050046
:1015F0004FF000074AD06878297A4618B61D00B126
:10160000761C8CB332F0C00002D00720BDE8F8830E
:10161000D8F80000B04201D20420F7E722702B78FE
:10162000601C1A4322702A7A00F8012B21460746D3
:10163000041D687828B104F8010B087840F0080010
:1016400008702A7A2046E968FEF796FE287A6A78BA
:1016500004442AB120466968FEF78EFE6878044487
:10166000D8F80000801B00902B697BB16A462146A8
:10167000686998470028C9D114B1009800BA386049
:10168000009831180020C8F80010BFE70E20BDE711
:101690000068022803D0042804D100F0A3B902484E
:1016A00000F0B6B97047000014010020084810B5DA
:1016B000064941600021016000F0CEF9852803D081
:1016C000002800D0032010BD002010BD210F000015
:1016D0001401002010B50420FFF70CFE08B108200B
:1016E00010BD00F087F8002010BD000010B518B143
:1016F0000A2902D00C2010BD0248FFF743FE00204B
:1017000010BD0000213A0000FEB5224847780A2F9C
:1017100023D0214A0324072F167855789378D1785F
:101720008DF800608DF8015086EA05008DF80230D2
:101730001AD04B4058408DF803108DF80400FF225A
:1017400004210DF10500FEF729FE00BF8DF80940C8
:101750000A216846FFF7CAFFFEBD03B00A21BDE8B3
:10176000F0400D48FFF7C2BF83F0880358408DF862
:1017700003008DF8041013798DF8053050798DF839
:10178000060092795940504041408DF807208DF86D
:101790000810DBE74C0100200C0900201CB5CDE946
:1017A00000100321684601F0CDF91CBD1CB50E4B9D
:1017B000D3E90223CDE900230C4AC2E901015078A4
:1017C00038B9072050700A21094801F063F9002850
:1017D00008D1FFF799FFFFF769FF002802D168469B
:1017E00001F0E2F81CBD00002C3A00004C01002082
:1017F0000C09002001F00CB810B54FF47772FFF718
:1018000037FE040013D10B480322016900F8342F7E
:10181000FE2902D84170022005E0FF2242700A0A28
:101820008270C1700420FFF74BFDFFF737FE2046A2
:1018300010BD00009008002070B50E46050005D0D0
:101840000020FFF757FD18B1082070BD072070BDBC
:101850000B4C0C48C4E901561434FFF793FDFF20EC
:10186000A076E076E1202077102060777C20A077BA
:101870000F20E077BDE8704001490348FFF796BFAD
:1018800090080020213A00004D0B00002DE9F041A6
:101890000446007A164698B1420611D402060FD4C7
:1018A00062686AB122695AB1E3684BB146B18518E2
:1018B0006D1CB9B13268AA4204D20420BDE8F0819F
:1018C0000720FBE722784F1C00EBC2100870227A39
:1018D00038466168FEF750FD207AD4E90312384497
:1018E000FEF74AFD00203560E8E7002100F009B866
:1018F000012100F010B808B56A46FEF7D8FC009840
:1019000008BD08B56A46FEF7B8FC08BD08B56A46CA
:10191000FEF79AFC08BD08B56A46FEF7A1FC0098E0
:1019200008BD08B56A46FEF7CFFC009808BD70B543
:10193000044600252846FFF7A4F921686268086874
:1019400090420ED9401E08600178238AE26801FBAC
:101950000325227A2168101AC0B20A79824200D285
:1019600008710020FFF78FF9284670BD70B5054655
:101970000C460020FFF785F9E868298A201AB0FB99
:10198000F1F12A681068431C13600170BDE87040D3
:101990000020FFF778B910B530B1017A42680368CA
:1019A000891AC9B21A6006E00E2010BD03681A68D1
:1019B000541C1C601170491EC9B2F7D20068002186
:1019C0000171084610BD00F180400068002800D079
:1019D0000120704708B500F18040002101600068D7
:1019E000009008BD10B50020FFF74BF9074C606868
:1019F000401E6060606818B900F0AEFE00206070A4
:101A0000BDE810400020FFF73EB90000580200205A
:101A100070B5104D0446687838B114B16168002083
:101A200088470020FFF72DF90CE00020FFF729F987
:101A300024B1084821460830FFF742FB686808B91E
:101A400000F07EFE6868401C6860BDE870400020C1
:101A5000FFF719B95802002070B50C4C0125207809
:101A600008B185260BE00020A06060602061E06086
:101A7000074800F08FFE064600F04CFE257000F08F
:101A800041FE00B1A570304670BD00005802002034
:101A90002D0F0000F0B505460478154889B01646AC
:101AA00040F82420124A08690832A2F10C0742F8D3
:101AB0002400487F385520226846FEF75DFC0494D8
:101AC0002878385C48B10EB10A4A00E00022694625
:101AD000281D01F075FA09B0F0BD0EB1064A00E00C
:101AE0000022694605F10C0001F034F9F3E700002B
:101AF0000400002029360000713400000FB408B53E
:101B00000399002904D004AA00926A4600F00FF855
:101B100001B05DF814FB10B582680446002A05D0B8
:101B2000D4E90403216898470020A06010BD2DE986
:101B3000FC4791460C00804676D014F8011B39B161
:101B400025290ED04046FFF7B3F920780028F4D1BC
:101B500098F80C00002867D04046BDE8FC47FFF726
:101B6000DABF0020012221782B291BD02D2902D099
:101B7000302908D102E040F0010001E040F002000D
:101B8000641C002AEFD100252A290ED02178A1F16A
:101B900030020A2A11D205EB850201EB4205641CD2
:101BA000303DF1E740F00400EAE7D9F800100B1DE2
:101BB000C9F800300968641C0D44217800232E29DF
:101BC0000BD114F8011FA1F130020A2A05D203EB50
:101BD000830201EB4203303BF3E76C290DD0682907
:101BE0000BD0692921D00BDC252918D0582931D0F8
:101BF00063290ED0642915D117E014F8011FECE712
:101C0000702969D0732932D075291BD0782909D160
:101C100020E0D9F80000011DC9F800100178404605
:101C2000FFF746F9641C90E76CE0D9F800100A1D34
:101C3000C9F800200968CDE900500A224046FFF7A4
:101C40008DF9EFE7D9F800100A1DC9F800200968DE
:101C50000A2206E0D9F800100A1DC9F80020096818
:101C60001022CDE90050404601F080FDDAE7D9F8B6
:101C7000001000270A1DC9F800200E68C00705D112
:101C800012E04046761C7F1CFFF712F931780029DC
:101C9000F7D104E0202140466D1EFFF709F9BD424F
:101CA000C0D9002DF6D1BDE74EB13046FEF788FB16
:101CB000074604E0202140466D1EFFF7F9F8BD42BB
:101CC00006D9002DF6D103E04046761CFFF7F0F868
:101CD00031780029F8D1A5E7D9F80000011DC9F82D
:101CE0000010056830214046FFF7E2F878214046B1
:101CF000FFF7DEF808200021CDE90001034610229D
:101D00002946B0E7BDE8FC872DE9FF411C46DDE927
:101D10000A7815460E46684600F07AF846EA45010C
:101D200041EA840141EA072242EA0841009A00EBB5
:101D30008200C0F80017BDE8FF812DE9FF411C4675
:101D4000DDE90A7815460E46684600F06FF846EA67
:101D5000450141EA840141EA072242EA0841009A2A
:101D600000EB8200C0F80017BDE8FF812DE9FF41BC
:101D70001C46DDE90A7815460E46684600F064F810
:101D800046EA450141EA840141EA072242EA084164
:101D9000009A00EB8200C0F80017BDE8FF811CB577
:101DA000002100910B4601220191FFF7C6FF1CBDE7
:101DB0001CB5002100910B4601220191FFF7D6FFCF
:101DC0001CBD1CB500220B46009211460192FFF784
:101DD000B4FF1CBD1CB500220B46009211460192B7
:101DE000FFF7C4FF1CBD1CB5002100910B4601226A
:101DF00001911146FFF7A1FF1CBD1CB50021009108
:101E00000B46012201911146FFF7B0FF1CBD0000F7
:101E10000168202902D24FF0A040704701F01F0155
:101E2000016001487047000000030050016820294C
:101E300002D24FF0A040704701F01F01016001483D
:101E400070470000000300500168202902D24FF0C3
:101E5000A040704701F01F01016001487047000079
:101E60000003005001B56846FFF7E0FF009A01212A
:101E70009140C0F8081508BD01B56846FFF7E4FFBA
:101E8000009A01219140C0F8081508BD38B5012419
:101E90000090684631B1FFF7BBFF00998C40C0F855
:101EA000084538BDFFF7B4FF00998C40C0F80C45D9
:101EB00038BD000030B5154A01460020D2F8104464
:101EC00023460AE0DB681D79854205D1401C0A28BB
:101ED000F6DB4FF0FF3030BD1B68002BF2D1431C06
:101EE000F9D0CB681871D2F8103443B1DB68CC68F4
:101EF0001B682360D2F81024D268116030BDC2F88C
:101F00001014C96800220A6030BD0000700400206F
:101F1000F0B595B01C4615460F4608461A9E00F0CF
:101F20001BFB182109A8FEF740FA0E96CDE90954CB
:101F30000023082203A9384600F023FB05980690E9
:101F4000BDF81000ADF81C00BDF81200ADF81E0081
:101F500000208DF821000398082600F003000128D6
:101F600002D0022818D032E003983346850AC0F325
:101F7000C2008DF8200003980FA9C0F38314A200BB
:101F8000384600F0FEFA09A8009006AB22460FA9D9
:101F9000284600F03DFA1AE00398840DC0F3C20011
:101FA0008DF82000082C01D2254600E00825334694
:101FB0002A460FA9384600F0E4FA2E44641B09AB08
:101FC00006AA29460FA800F08BF9002CEAD1384662
:101FD00000F0C8FA15B0F0BD7047012001F066BAF4
:101FE000084810B50178084A515C19B1001D01F08C
:101FF00081F802E00C3000F07BFFBDE810400020CB
:1020000001F054BAA40000200000002008B5034AE3
:1020100000924023024AFFF77BFF08BD49330000CE
:10202000D80200200A4A012902EBC00007D0022989
:1020300007D0032907D0042907D0002070470220C9
:10204000704704207047007970474079704700005E
:10205000C440000010B5FFF7C0FF04210348FFF79C
:1020600029FF02490120C968487110BDB440000031
:102070002DE9F0478CB0FEF733FF18B100200CB00B
:10208000BDE8F0877D4C0020C4F81804BFF34F8FE3
:102090007B49A06802900D684FF00008284004EBCF
:1020A00080000BE0D4F8180470B96168029881428E
:1020B00001D8A160E2E7284004EB80000C3002A9BF
:1020C000FEF7E4FF0028EDD1002003AA029901EAFF
:1020D000050304EB8303491CDB6842F82030401CF5
:1020E00002910228F2D3039800F00300022802D0E4
:1020F00001284DD0A7E003985022810D8946B2EB0C
:10210000905F00D850210E4666F39F50039008312F
:102110005C4800F0D8F9070078D000F01DFA43467B
:10212000082203A9384600F034FA029908F1080A97
:102130002940681A8000001D864222D94F4D0C3577
:1021400030B1C2B204EB8101301A90460C3104E088
:102150002946F2B2002590462846C6B25346384674
:1021600000F017FA0AEB080325B132462946384633
:1021700000F00FFA029909F1030001EB90000290C0
:102180003BE004EB81015346324638460C31EFE721
:102190000398C0F38310062800D30620039960F348
:1021A0008911C1F38310801C03918100354800F030
:1021B0008AF9070047D000F0CFF94346082203A967
:1021C000384600F0E6F908F1080800260FE002980A
:1021D000434600EA0501401C04EB81010290042201
:1021E00038460C3100F0D5F908F10408761C039844
:1021F000C0F38310B042EAD847B1D4F81054D4F8F1
:10220000180478B1384600F0ADF931E01BE0E86819
:102210004079012804D12A68284639461268904737
:10222000E8680568002DF2D1384600F09BF90020DF
:10223000FEF727FDD4F8180408B90298A060002022
:10224000FEF721FD14E0D4F8104405E02168204693
:1022500089688847E0680468002CF7D10A480B4970
:10226000401AC008022101EB004009A100F01AF851
:10227000FEF736FE80F0010001E700007004002048
:10228000C00000200C41000004410000C4400000D8
:102290004261636B656E647320666C757368656418
:1022A0000000000000231A4601F06EB808B50123B3
:1022B00000926A4601F068F808BD3EB5069C8DE8BC
:1022C0001C0003236A4601F05FF83EBD7FB5DDE9DF
:1022D00008458DE83C0004236A4601F055F87FBDAF
:1022E0002DE9F0470E4680461C469246082940D804
:1022F00094F80C90002020731946104600F09CFFC3
:102300000025B54206D218F805201BA12046FFF78C
:10231000F5FB03E01AA12046FFF7F0FB6D1C082D2A
:10232000EFD318A12046FFF7E9FB0025B54212D2F2
:1023300018F805707E2F08D8FEF71AF80068C05DFF
:1023400010F03E0F01D03A4600E02E220EA12046AA
:10235000FFF7D4FB03E00DA12046FFF7CFFB6D1C78
:10236000082DE3D301222146504600F047FF84F8B0
:102370000C90BDE8F0870000202530327800000086
:10238000202020007C0000002563000020000000C9
:10239000064910B500200870054800F0E1F8002853
:1023A00003D1044800F07EF9002010BD7004002025
:1023B0000C410000143A000002480349401AC008CA
:1023C000704700000C410000C440000013B568468F
:1023D000FEF748FF08B100201CBD0248009950F8E4
:1023E00031001CBDC440000070B508480125D0F87C
:1023F0001044057007E0E06845712168204649688F
:102400008847E0680468002CF5D170BD7004002096
:102410002DE9FF4781460C9D00200C462F7B287339
:10242000984616462946184600F006FF072E42D267
:10243000DFE806F004090F161F2A36004946284631
:10244000FFF75CFB37E0494628462268FFF756FB5A
:1024500031E0D4E9002349462846FFF74FFB2AE044
:10246000A0680090D4E9002349462846FFF746FBC0
:1024700021E0D4E90201CDE90001D4E90023494675
:102480002846FFF73BFB16E004F1080007C88DE87B
:102490000700D4E9002349462846FFF72FFB0AE04E
:1024A00004F108000FC88DE80F00D4E90023494665
:1024B0002846FFF723FB00222946404600F09EFEF7
:1024C0002F73BDE8FF872DE9F041058A80462D1F57
:1024D0004819C01CB0FBF5F0C6B24046FFF727FA1A
:1024E000041E19D00020207101206071E5800027B2
:1024F0002546761EC4F800800BE04046FFF717FA29
:1025000060B16179491C6171286005467F1CC0F883
:102510000080B742F1D32046BDE8F081204600F0AC
:1025200002F80020F8E72DE9F041457901466B1EDD
:10253000002201E00968521C9A42FBD30F68014651
:10254000002605E038460C68FFF710FA2146761C95
:10255000AE42F7D3BDE8F0810121001DFFF7CBB9F2
:10256000FFF719BA10B504460121001DFFF7D9F98C
:1025700010F0FF0F04D12046BDE81040FFF7D3BF95
:1025800010BD1CB501920122009201AAFEF72AFE9D
:102590001CBD1CB501920022009201AAFEF722FE8A
:1025A0001CBD000002494058002800D0012070479F
:1025B00000500040024A00218150BFF34F8F704706
:1025C000005000400449D1F80413014201D0012019
:1025D000704700207047000000500040C02903D021
:1025E000E9B1802902D00DE040210BE010F8012B69
:1025F00010F8013B120442EA032210F8013B1A438F
:102600000F4B1A6010F8012B10F8013B120442EA3C
:10261000032210F8013B1A43094B1B1F1A60026882
:10262000C07812BA22F0FF0202430548083802605F
:1026300003480830026822F0C0020A430260704773
:102640009855004030B4016809B129201BE01249B7
:102650000A78124C302A03D00A78A22A0AD00CE059
:102660006568002D16D04368A068AC4630BC0A4AA5
:10267000022160474068062808D008785028E4D135
:1026800001202070282030BC00F0E6B930BC04489E
:1026900000F030BA30BC7047FC0800204C0100202C
:1026A0002C3A000082680021916082681161826882
:1026B00051618268D16082685160806801607047B2
:1026C00008B5002242504058009008BD40580028EC
:1026D00000D00120704708B50022425040580090B9
:1026E00008BDD0F80403084000D0012070474058CE
:1026F000002800D00120704708B500224250405801
:10270000009008BD02480068002800D001207047F2
:102710000004014008480068012110F0010F06D1B3
:102720004FF0E020C02280F800248430C1670349C4
:10273000012008607047000000E100E0180500403B
:1027400010B54FF48070FFF745F901208107C1F8FB
:102750000403086010BD0000012010B58107C1F816
:1027600008030002FFF736F907490120086007490E
:102770004FF001100A6802F001128242FAD00449B7
:102780000020487110BD0000040000400C0400400F
:10279000140000200649024600200B790BB1852069
:1027A00070470A6001220A7100224A7170470000D6
:1027B000140000200121B1EB507F01D101207047AE
:1027C00000207047104810B503780021021D33B176
:1027D00001701172BDE81040032000F07BB8517AFF
:1027E000002910D0917A00290DD0084A01211160EA
:1027F00001700548001D00F0F2F90348BDE81040E3
:10280000001D00F01BBA10BD1C000020005000404D
:10281000074901200860074A01460832054811604F
:102820000549C0F804130421C0F8041370470000E0
:1028300004540040005000408200080070B5054676
:10284000FEF726FF28681D4C40281DD00DDC04280B
:102850001FD0102830D11A4800F04CF96568002DBF
:102860002AD000231A46032119E080281CD0B0F595
:10287000002F21D1124800F03DF96568002D1BD0D2
:1028800000231A4619460AE0281DBDE87040FFF7EC
:10289000D9BE6568002D0FD000231A460121A0681B
:1028A000AC46BDE8704060472879002804D1207804
:1028B000002801D00020207070BD00004C010020D5
:1028C0002C3A000002480068800700D001207047C1
:1028D0003C54004031B5214984B0087A002826D103
:1028E0009DF81000032807D1FFF7ECFF08B1022084
:1028F00000E001208DF810009DF810200020012537
:10290000174C012A15D0022A11D1627A002A0ED161
:10291000487288720D72114800F061F90F4800F09A
:102920008DF965720220009014E06846884705B072
:1029300030BD617A0029FAD00A4A0A490832156086
:102940004FF48F62C1F808236072042000900120C8
:1029500000F01CF861680029E7D1E8E720000020BA
:102960006C0200200050004010B5B0F5A07F09D1E6
:10297000054901208872084600F052F9BDE8104070
:10298000FFF720BF10BD000020000020044908B15F
:10299000881403E00348C068C0F313000860704760
:1029A000085500406C020020FEB5254C217A09B183
:1029B0000820FEBDD0E9001021606060214903209D
:1029C000086020489430016821F01F0141F00401A3
:1029D00001600520FEF79EF81B49C02081F8000425
:1029E00001252020491FC1F800011849184AD1E9E2
:1029F0000001CDE9010101A9164800F043F90028C2
:102A0000D7D114480068D0F810050021C2B24FF4A5
:102A10007A50FDF79DFC0246012300210D480095E8
:102A200000F01AF90721684600F034F80646C02184
:102A30006846FFF7D3FD25722803E0603046FEBDEF
:102A40006C0200200C55004005E000E088390000D1
:102A5000692900002000002010B501210B4C292815
:102A600001D0204409E00A48006810F0010F02D0AC
:102A70000648283001E00548243001600120FFF7B6
:102A800085FF4FF48F60C4F8080310BD005000406C
:102A90002054004030B5042905D0072903D00A2965
:102AA00001D0092030BD124A1468121D1268104B63
:102AB00008331B680470250A240C45708470D4B256
:102AC000C470042912D0150A0571150C120E457137
:102AD00082710A2902D0882C06D007E0C371190A36
:102AE0000172190C417201E09921C170002030BDC2
:102AF00050040010094A416800881160111DC0F39C
:102B00000800086006480749008800F48C60C1F896
:102B10000403044901201C3108607047105500402F
:102B20006C02002000500040012110B1034A815086
:102B3000704703484172FFF745BE00000050004057
:102B40002000002010B50268FAB1114C43682360E0
:102B5000231DC2F308021A6000884FF6FF7202EAD2
:102B6000C0000B4AC0F30B000C321060201F016044
:102B700008480949007800F01800C1F80403064924
:102B800001200C310860002010BD092010BD00009C
:102B9000105500406C0200200050004070B50D46FA
:102BA00000F096FB04000FD00020FEF76AF82079B1
:102BB00020B10020FEF767F8112070BD01202560CC
:102BC00020710020FEF75FF8002070BD10B500F006
:102BD0007FFB002802D000210160017110BD006858
:102BE0000121C16070472DE9F04106460D464FF4C2
:102BF000803400681746AC404BB14FF4A07101EB34
:102C00008501FFF75DFD3068C0F8044301E0C0F8BE
:102C10000843306800EB8500C0F84075BDE8F081DE
:102C20000268012111610079034A00EB400002EBC8
:102C300080000172704700007C02002001680122C0
:102C40000A600079034A00EB400002EB8000022199
:102C5000017270477C020020F0B40468049E40F2C8
:102C60000115D4F800728D40AF43C4F800720468B7
:102C7000D4F800521D43C4F800523346F0BCFFF7AD
:102C8000B2BF00002DE9F04104460E4600792C4900
:102C900000EB400001EB8007387A10B10820BDE856
:102CA000F0813A60706800254FF4A078786006E003
:102CB00008EB85012068FFF703FD6D1CEDB260791C
:102CC000A842F5D82068F17840F3073000284FEA91
:102CD000411104DB00F1E02080F8001405E000F071
:102CE0000F0000F1E02080F8141D2068012140F35E
:102CF0000730002809DB00F01F0201FA02F2400948
:102D0000800000F1E020C0F8002120687278D0F83F
:102D1000043562F30103C0F804352068B278D0F8B6
:102D2000083562F30103C0F8083520683278D0F81E
:102D3000103562F30303C0F8103539720020AEE796
:102D40007C0200200149024800F0D8BB8802002024
:102D5000002000402DE9F0410546007916460F4657
:102D600000EB40012D4A01EBC00102EB810494F815
:102D70002A1011B10820BDE8F081294951F820102E
:102D80002868FFF70BFF08B11120F4E73946284601
:102D9000FDF78EFF66603869206030004FF0010655
:102DA0002FD03F7F4FF48E712868FFF794FC4FF4CB
:102DB000A2712868FFF78FFC28681A49C0F804132D
:102DC00028684FEA471140F30730002804DB00F180
:102DD000E02080F8001405E000F00F0000F1E02092
:102DE00080F8141D286840F30730002809DB00F044
:102DF0001F0106FA01F14009800000F1E020C0F84F
:102E0000001128680421C0F800150020A061E061CD
:102E100084F8290044F8140FA675ACE78802002056
:102E2000D0390000800002002DE9F05F05460079EE
:102E30000B4600EB400101EBC000244901EB80048C
:102E4000284600F045F810B11120BDE8F09F6261FE
:102E50004FF00009C4F82090A36084F828904FF444
:102E60008E784E4641462868FFF735FC28684FF0BB
:102E7000010AC0F808A02146286800F0CFFA60686F
:102E800008BBD5F800B067690FE000BF94F82800D0
:102E900008B10F2615E041465846FFF717FC0028F9
:102EA000F4D02146584600F0B9FA206AB842F2D36D
:102EB000574641462868FFF709FC0028F9D02868E2
:102EC000C760C4F814903046BFE7000088020020B5
:102ED000007900EB400101EBC000044901EB8000E8
:102EE0004069002800D001207047000088020020BF
:102EF0002DE9F047044600794FF0000900EB40014E
:102F000001EBC000284901EB80072068C0F800955C
:102F10007868B0B120682549C0F80813206840F3EC
:102F2000073000280DDB00F01F020121914040090D
:102F3000800000F1E020C0F88011BFF34F8FBFF395
:102F40006F8F2068D0F80C25D0F81485D0F808656C
:102F5000D0F810554FF0FF31C0F81415C0F80C151B
:102F60002068C0F80815C0F81015501C02D0104693
:102F7000FEF715FFB8F1FF3F02D04046FEF70FFF06
:102F8000681C02D02846FEF70AFF701C02D03046AB
:102F9000FEF705FF2068FFF719FE87F82A90C7F8AB
:102FA0000490BDE8F087000088020020840202003F
:102FB0000149024800F050BBB4020020002000404C
:102FC0002DE9F0410546164600790F46154A00EBFB
:102FD000C00102EB810494F8201011B10820BDE873
:102FE000F081114951F820102868FFF7D7FD08B18A
:102FF0001120F4E739462846FDF795FE66603869EA
:1030000020601EB1397F2846FDF7FCFF28680821A3
:10301000C0F800150020A061E0616061012184F822
:103020002010DCE7B4020020D43900002DE9F0477D
:1030300004460E460079274900EBC00001EB8005ED
:1030400017463046FFF7B6FB30B1204600F044F893
:1030500020B11120BDE8F0871020FBE76F61AE6062
:103060004FF490774FF0000839462068FFF744FB93
:103070004FF4AC7631462068FFF73EFB2068AA6823
:103080006969C0F84425C0F8481520684FF0010967
:10309000C0F808906868D0B9BA4651462068FFF772
:1030A00026FB074631462068FFF721FB0743F4D093
:1030B00010B14FF00F0808E02068C0F80C903146BE
:1030C0002068FFF714FB0028F9D000206861404613
:1030D000C0E70000B40200200079054900EBC00001
:1030E00001EB80004069002800D0012070470000FB
:1030F000B40200202DE9F047064600793D4900EB77
:10310000C00001EB8005346868680127A8B13A491E
:10311000C4F80813306840F3073000280DDB00F0D6
:103120001F0107FA01F14009800000F1E020C0F81A
:103130008011BFF34F8FBFF36F8FD4F8000220F0E0
:103140002000C4F80002A8694FF4A27820B14146DB
:103150002046FFF7D1FA67604FF4AC794946204624
:10316000FFF7CAFAE760474649462046FFF7BFFA2D
:103170000028F9D0A86928B139462046FFF7B7FAE8
:103180000028F1D04FF0000AC4F800A53068D0F84C
:103190000C25D0F81495D0F80885D0F810754FF0AC
:1031A000FF31C0F80C15C0F814153068C0F80815C8
:1031B000C0F81015501C02D01046FEF7F9FDB9F109
:1031C000FF3F02D04846FEF7F3FD781C02D0384698
:1031D000FEF7EEFDB8F1FF3F02D04046FEF7E8FDF6
:1031E0002046FFF7F3FC85F820A0C5F804A0BDE851
:1031F000F0870000B40200201003420010B50C4616
:10320000017A052908D0407A38B1084808A1026837
:103210002046FEF773FC00E01AB106A12046FEF737
:103220006DFC2046BDE81040FEF775BCF0000020A4
:10323000257300000D0A000038B5C3880D4604460A
:1032400033B114A0009015A216A12846FEF756FC33
:10325000217A05291CD0607A48B1A088FEF7E2FEE9
:10326000164951F8202016A12846FEF747FCA088F1
:103270000021FFF7ABF803461049207A143951F8C2
:10328000202001B02846BDE830400EA1FEF736BC34
:1032900038BD00001B5B306D000000001B5B313B44
:1032A00033316D0025734C6F67732064726F7070DB
:1032B0006564202825642925730D0A00F00000208C
:1032C000257300003C25733E2025733A2000000042
:1032D0000349884201D1034870470020704700002D
:1032E000002000402C00002070B5054688690C467F
:1032F00000284FF4847128460AD0FFF7ECF9D5F87E
:103300001805626AE1688854606A401C606270BD9A
:10331000FFF7E1F9D5F8180570BD1FB501238DF849
:103320000030CDE90121D0E90012684690471FBD69
:103330001FB501238DF80030CDE90121D0E900123D
:10334000684690471FBD000070B50D4C0020D2B2FA
:103350002070201D0B4D0378EB5C1BB1001DFFF7A7
:1033600065FE02E00C30FFF75FFD08B1FDF77EFC63
:103370006078002802D021780029FAD070BD0000C2
:10338000A0000020000000202DE9F84F074621484A
:103390009146884605681E46012269461846FDF793
:1033A00041FDDFF874A060B3009800210446801C42
:1033B0000AE000BF00EA050259F821C00AEB8202C8
:1033C000401C491CC2F80CC0B142F3D34FEA174964
:1033D000FDF7BAFD611C29400AEB810149EA004270
:1033E0002C40CA600AEB8401C86867F3C50066F325
:1033F000891068F39F2020F00300401C20F0040097
:10340000C8609AF8000001E0FEF732FE0028FBD108
:10341000BDE8F88FC00000207004002070B50C4695
:1034200005464FF48E71FFF756F9216AA068415C9A
:10343000206A401C2062C5F81C1570BD1FB5002213
:103440008DF800200291816801914261D0E900125B
:10345000684690471FBD1FB500228DF800200291DD
:10346000816801914261D0E90012684690471FBD12
:103470001FB50A4601788DF8001041680191017A64
:103480008DF80810C0680390044850F822100838DE
:1034900050F82220684690471FBD00000C00002015
:1034A0000149012008707047A000002010B588B0C5
:1034B000044620220E496846FCF75EFF0620009075
:1034C000C01F0190029003904FF0EB7006900CB17A
:1034D000084A00E0002269460748FEF7DBFA08B117
:1034E000FDF7C4FB0448001F447008B010BD000085
:1034F000F4390000A1340000A40000202DE9FF47AA
:103500000C4605464FF40071FFF7EBF801274FF426
:103510000178002618B34FF4927949462846FFF700
:10352000D5F8E0B149462846FFF7D5F8C5F8088335
:1035300094F8290000B96F6002208DF80000D5F8DA
:103540008004C5F880040390A0690290E0680190AF
:10355000A661E661D4E900126846904728E004219C
:103560002846FFF7BEF818B34FF484712846FFF7DA
:10357000ADF8E8B121462846FFF7B6FE616AA069BA
:10358000884215D1E06938B1E268616AA0612069BA
:10359000E6616662E06008E094F8290000B96F60B7
:1035A000C5F80883A661E268616A2046FFF7B5FEA8
:1035B0004FF48E7841462846FFF788F880B160695D
:1035C000216A814202D294F8280028B34146284655
:1035D000FFF781F8606918B161692046FFF72EFF97
:1035E0004FF4A27841462846FFF770F8002818D01B
:1035F00041462846FFF76FF894F8290000B12F6084
:10360000A06900280DD0A661E268616A04B0204676
:10361000BDE8F047FFF781BE21462846FFF7FEFED2
:10362000DEE7BDE8FF8700001FB50A4601788DF888
:10363000001041680191017A8DF80810C06803906C
:10364000044850F82210083850F822206846904765
:103650001FBD00000C0000202DE9FF410C464FF477
:10366000927705463946FFF742F80026B8B1394649
:103670002846FFF741F802208DF80000D5F88004B5
:10368000C5F880040390D5F83C050290E0680190ED
:10369000A661E661D4E900126846904723E04FF442
:1036A000887739462846FFF722F8E0B139462846A0
:1036B000FFF722F8D5F83C15A069884213D1E069DC
:1036C00060B1E268D5F8000220F02000C5F80002E1
:1036D000E069A0612069E661E06001E0A661E2685E
:1036E0002046FFF725FE4FF4A27739462846FEF71D
:1036F000FEFF68B139462846FEF7FEFFA06938B1E3
:10370000A661E661D5F83C152046E268FFF710FE99
:103710004FF4907631462846FEF7E9FF60B1314616
:103720002846FEF7E9FF0120E860606920B1D5F87E
:103730004C152046FFF78FFE4FF4AC7631462846F5
:10374000FEF7D5FF00280ED031462846FEF7D4FFFD
:103750006069002807D0D5F84C1504B02046BDE8B4
:10376000F041FFF778BEBDE8FF8100002DE9F05F72
:103770008346DDE90A4A994690460D4608460127E8
:1037800003E000BFB0FBF8F07F1C4045FAD2B9451A
:1037900000D94F465FEACA7012D18CB15FEA8A70D5
:1037A00002D5B9F1000F01D0202607E0302605E050
:1037B00031465846641EFDF77BFB0CB1A742F7D398
:1037C0005FF00106B9F1010F02D9A9F1010903E087
:1037D000B5FBF6F0404502D306FB08F6F2E7DFF84A
:1037E0003C9000BFB5FBF6F000FB165519F8001031
:1037F0005846FDF75DFBB6FBF8F6002EF2D15FEA06
:10380000CA7009D0002C07D0A74205D22021584603
:10381000641EFDF74DFBF5E7BDE8F09FD8390000C9
:1038200030B5A7B00C4605461422244915A8FCF76C
:10383000A3FD22491822143103A8FCF79DFD15A809
:103840001E49089014222C311AA8FCF795FD1B493B
:103850001822403109A8FCF78FFD1AA817490E90CD
:10386000142258311FA8FCF787FD144918226C3127
:103870000FA8FCF781FD11491FA880311490D1E9F0
:103880000201CDE9010124A8009003A96846FDF7D3
:103890009BFE002810D109A96846FDF795FE002877
:1038A0000AD10FA96846FDF78FFE002804D12246F1
:1038B00029466846FDF74FFE27B030BDF0380000BE
:1038C00048656C6C6F20576F726C6421656E48613F
:1038D0006C6C6F2056657264656E214E4F5769742B
:1038E000616A20C59A77696563696521504C00005B
:1038F00000000000CC38000002000000C0380000CA
:103900000C000000010000000000000001000000A9
:10391000203A00008D1800000000000000000000A8
:10392000DB38000002000000CE3800000D0000006F
:10393000010000000000000001000000203A00002B
:103940008D1800000000000000000000EC380000AE
:1039500002000000DD3800000F0000000100000040
:103960000000000001000000203A00008D18000057
:103970000000000000000000030000000000000044
:103980000D0E0F100B0C18190400000600000000AB
:1039900040000000000000000000000000000000E7
:1039A0001000000000000000000000000000000007
:1039B00000000800000000000000000000000000FF
:1039C0008000000000000000000000000000000077
:1039D000452D0000B12F00003031323334353637F9
:1039E00038394142434445460D200000E11F0000A4
:1039F000D91F0000FFFFFFFFFFFFFFFFFFFFFFFFDB
:103A0000FFFFFFFF00000000000000000000D601E3
:103A100006010000D80300207F00000058040020A9
:103A20005400010203040506070809001000000005
:103A3000FC080020500400003D28000000404040E9
:103A40004040404040404141414141404040404071
:103A5000404040404040404040404040400502021D
:103A600002020202020202020202020202202020DC
:103A70002020202020202002020202020202909038
:103A80009090909010101010101010101010101036
:103A9000101010101010101002020202020288888A
:103AA0008888888808080808080808080808080896
:103AB000080808080808080802020202400000007E
:103AC0003D3A000044617461206275732065727232
:103AD0006F72202872657475726E206164647265FD
:103AE000737320696E2074686520737461636B2042
:103AF0006672616D65206973206E6F742072656CEB
:103B00006174656420746F2074686520696E7374D5
:103B100072756374696F6E20746861742063617577
:103B200073656420746865206572726F7229000085
:103B30004461746120627573206572726F7220280F
:103B400050432076616C756520737461636B6564A6
:103B500020666F722074686520657863657074698B
:103B60006F6E2072657475726E20706F696E7473FB
:103B700020746F2074686520696E73747275637445
:103B8000696F6E2074686174206361757365642069
:103B9000746865206661756C7429000043617573F3
:103BA000653A204275734661756C74206F6E2061B2
:103BB00020766563746F72207461626C6520726533
:103BC000616420647572696E6720657863657074DE
:103BD000696F6E2070726F63657373696E672E0014
:103BE0005468652070726F636573736F72206861CB
:103BF0007320657865637574656420616E20534435
:103C00004956206F72205544495620696E7374726C
:103C1000756374696F6E20776974682061206469C8
:103C20007669736F72206F662030000054686520DB
:103C300070726F636573736F722068617320617453
:103C400074656D7074656420746F20657865637544
:103C5000746520616E20696E737472756374696F28
:103C60006E2074686174206D616B657320696C6C83
:103C70006567616C20757365206F662074686520C8
:103C800045505352000000005468652070726F6305
:103C90006573736F722068617320617474656D70F1
:103CA00074656420616E20696C6C6567616C206C62
:103CB0006F6164206F66204558435F5245545552EA
:103CC0004E20746F207468652050432C206173204F
:103CD0006120726573756C74206F6620616E206957
:103CE0006E76616C696420636F6E746578742C20E5
:103CF0006F7220616E20696E76616C696420455830
:103D0000435F52455455524E2076616C75650000F4
:103D10005468652070726F636573736F722061748D
:103D200074656D707465642061206C6F6164206FD0
:103D3000722073746F72652061742061206C6F63F0
:103D40006174696F6E207468617420646F6573209C
:103D50006E6F74207065726D697420746865206F71
:103D60007065726174696F6E0000000041204D65DE
:103D70006D4D616E616765206661756C74206F635F
:103D800063757272656420647572696E6720666C13
:103D90006F6174696E672D706F696E74206C617AE3
:103DA00079207374617465207072657365727661D1
:103DB00074696F6E000000004120627573206661B7
:103DC000756C74206F6363757272656420647572BC
:103DD000696E6720666C6F6174696E672D706F69BC
:103DE0006E74206C617A79207374617465207072CE
:103DF00065736572766174696F6E00005468652042
:103E000070726F636573736F722068617320617481
:103E100074656D7074656420746F20657865637572
:103E2000746520616E20756E646566696E656420D8
:103E3000696E737472756374696F6E00496E737422
:103E400072756374696F6E20627573206572726F2C
:103E5000720000005468652070726F636573736F41
:103E6000722068617320617474656D70746564207C
:103E7000746F20616363657373206120636F707278
:103E80006F636573736F7200556E737461636B203B
:103E9000666F7220616E20657863657074696F6EFD
:103EA0002072657475726E2068617320636175732A
:103EB0006564206F6E65206F72206D6F7265206182
:103EC00063636573732076696F6C6174696F6E7379
:103ED00000000000537461636B696E6720666F7247
:103EE00020616E20657863657074696F6E20656E01
:103EF0007472792068617320636175736564206FE3
:103F00006E65206F72206D6F7265206163636573EB
:103F1000732076696F6C6174696F6E7300000000C6
:103F20005468652070726F636573736F7220686187
:103F300073206D61646520616E20756E616C6967C8
:103F40006E6564206D656D6F727920616363657362
:103F500073000000556E737461636B20666F72208E
:103F6000616E20657863657074696F6E2072657428
:103F700075726E2068617320636175736564206F6C
:103F80006E65206F72206D6F726520427573466199
:103F9000756C747300000000537461636B696E6725
:103FA00020666F7220616E20657863657074696F3A
:103FB0006E20656E74727920686173206361757319
:103FC0006564206F6E65206F72206D6F7265204290
:103FD00075734661756C7473000000007761726ED2
:103FE000696E670064656275670000001B5B313BAA
:103FF00033306D001B5B306D000000001B5B313BFC
:1040000033316D001B5B313B33326D001B5B313B49
:1040100033336D001B5B313B33346D001B5B313B35
:1040200033356D001B5B313B33366D001B5B313B21
:1040300033376D00696E666F00000000636C6F635C
:104040006B000000434C4F434B0000004E4643546E
:10405000000000005052530054494D4552000000EA
:104060005541525400000000554152544500000093
:10407000686172646661756C7400000075617274C9
:104080005F6C6F675F6261636B656E640000000068
:104090006170700020410000000000205801000005
:1040A000F4030000C041000058010020C0270000B8
:1040B0003E0B0000E8390000000000007C400000DA
:1040C000B80000203C400000000000004440000018
:1040D000000000004C4000000000000054400000C0
:1040E0000000000058400000000000006040000098
:1040F0000000000068400000000000007040000068
:10410000000003039040000000000303CC000020E7
:10411000C4000020CC00002018030020180000007C
:1041200001220613B00140000633FC3D73103D33FD
:10413000883E33D43EB36C3D333C3E33303B33C4D6
:104140003A33543F33983FB3B83D33FC3D332C3CB6
:1041500033883C0313543E33203FC3E03B642000CC
:10416000409420004042FF0220FF334C3E33DC3FAE
:1041700033344033E43F33F43F33EC3F33FC3F33DD
:104180000440330C40331440331C40332440C32CD0
:1041900040301C90D00304060504080304090205FE
:1041A00007040508030509020305040309022A019F
:1041B000010102020403020AF702010202090200DD
:0400000500000201F4
:00000001FF
