:020000040000FA
:10000000102900202D030000350300001502000018
:10001000390300003B0300003D0300000000000026
:100020000000000000000000000000003F0300008E
:1000300041030000000000004303000045030000EE
:10004000ED070000470300002D0C000047030000EF
:100050004703000025060000470300004703000097
:100060004703000047030000470300004703000068
:100070004703000047030000470300004703000058
:100080004703000047030000470300004703000048
:100090004703000047030000470300004703000038
:1000A000470300004703000047030000DD0B00008A
:1000B00047030000470300000000000000000000AC
:1000C0004703000047030000470300004703000008
:1000D0004703000047030000470300000000000042
:1000E0000000000000000000000000000000000010
:1000F0000000000000000000000000000000000000
:1001000000000000000000000000000000000000EF
:1001100000000000000000000000000000000000DF
:1001200000000000000000000000000000000000CF
:1001300000000000000000000000000000000000BF
:1001400000000000000000000000000000000000AF
:10015000000000000000000000000000000000009F
:10016000000000000000000000000000000000008F
:10017000000000000000000000000000000000007F
:10018000000000000000000000000000000000006F
:10019000000000000000000000000000000000005F
:1001A000000000000000000000000000000000004F
:1001B000000000000000000000000000000000003F
:1001C000000000000000000000000000000000002F
:1001D000000000000000000000000000000000001F
:1001E000000000000000000000000000000000000F
:1001F00000000000000000000000000000000000FF
:10020000DFF80CD000F0E4F800480047C512000009
:1002100010290020094B1EF0040F1CBFEFF30980CA
:100220001847EFF308800649064A884201D89042F1
:1002300002D88D464FF0000018470000310400003E
:10024000102900201009002030B4044654E8000FA3
:100250000D4644E80053002BF8D1156030BC7047C0
:1002600030B4044654E8000F40EA010544E8005366
:10027000002BF7D1156030BC704730B4044654E809
:10028000000F00EA010544E80053002BF7D1156088
:1002900030BC704730B4044654E8000F80EA0105D2
:1002A00044E80053002BF7D1156030BC704730B4E0
:1002B000044654E8000F00EB010544E80053002B0E
:1002C000F7D1156030BC704730B4044654E8000FD5
:1002D000A0EB010544E80053002BF7D1156030BCBA
:1002E000704770B404464FF0000054E8006F0D688A
:1002F000AE4207BF44E80023012044E800630E60DB
:10030000002B1CBF0020F0E770BC704730B40446DF
:1003100054E8000F88422CBF451A054644E80053B4
:10032000002BF5D1156030BC7047000006488047AF
:1003300006480047FEE7FEE7FEE7FEE7FEE7FEE7CA
:10034000FEE7FEE7FEE7FEE74508000001020000C9
:10035000202A04DB203A21FA02F00021704721FA1A
:1003600002F3D040C2F12002914008431946704781
:1003700000487047F03B000040EA01039B0703D0B0
:1003800009E008C9121F08C0042AFAD203E011F8D4
:10039000013B00F8013B521EF9D27047D2B201E096
:1003A00000F8012B491EFBD270470022F6E710B57A
:1003B00013460A4604461946FFF7F0FF204610BDD3
:1003C000421C10F8011B0029FBD1801A7047000065
:1003D000064C074D06E0E06840F0010394E8070092
:1003E00098471034AC42F6D3FFF70EFFC44100002B
:1003F000E441000030B58C1810F8012B12F00F0307
:1004000001D110F8013B120906D110F8012B03E0CD
:1004100010F8015B01F8015B5B1EF9D101E001F806
:10042000013B521EFBD1A142E6D3002030BD0000AB
:100430001CB5814602F020F801F062FE0028FBD1D5
:100440002D485FEA090507682C482D494FF0010641
:10045000A0EB01004FEAD00006EB004417D0204685
:1004600028A1AA6901F06AFFD5E90201CDE90001DE
:10047000D5E90023204629A101F070FFE86900902A
:10048000D5E90423204633A101F05FFF03E02046B5
:100490003AA101F04FFF1848001D0068800703D5FE
:1004A0002046434901F046FFDFF80881002500BFE0
:1004B00006FA05F0384206D058F825201AB1204631
:1004C0003DA101F03BFF6D1C1A2DF1D3380606D576
:1004D00009480C30026820463AA101F02FFF380489
:1004E00006D505481030026820463EA101F026FFDF
:1004F000484600F085F8000028ED00E02C4200009E
:10050000F441000048415244204641554C5420617A
:1005100074203078253038580000000020205230F8
:100520003A2020307825303858202052313A202087
:10053000307825303858202052323A202030782523
:10054000303858202052333A20203078253038581F
:100550000000000020205231323A20307825303817
:100560005820204C523A202030782530385820200E
:100570005053523A20307825303858005374616314
:100580006B2076696F6C6174696F6E3A2073746169
:10059000636B20706F696E746572206F7574736918
:1005A000646520737461636B20617265612E000065
:1005B000CC3C00002C00002043617573653A202577
:1005C000732E00004D656D4D616E6167652046615B
:1005D000756C7420416464726573733A20307825B9
:1005E00030385800427573204661756C7420416440
:1005F00064726573733A20307825303858000000F3
:10060000BFF34F8F05480168054A01F4E0611143CB
:100610000160BFF34F8F00BFFDE700000CED00E06D
:100620000400FA052DE9FF5F4FF48274204602F0C2
:1006300001F848B1022002F00DF828B1204602F07E
:1006400001F8022002F06EF94FF48C7001F0F2FF15
:10065000DFF88491614F624E624C4FF000084FF416
:10066000947A4FF4867B78B3402001F0F3FF58B3BF
:100670004FF48C7001F0E6FFB069CDE90008D9F8BD
:10068000000003905448143000685546C0F30B0036
:100690001038C0F3CC000290504601F0CBFF60B19F
:1006A000381501F0D7FF40B1386800F00D00019017
:1006B000284601F0C7FF0D203860616809B168461F
:1006C0008847584601F0BEFF4FF4887001F0B2FF32
:1006D000A0B1102001F0BEFF80B14FF4887001F08E
:1006E000B1FF06F128000FC88DE80F003E49182021
:1006F000C1F80803616809B1684688474FF4A670DD
:1007000001F098FF354D083D28B34FF4002001F06B
:10071000A1FF00B34FF4A67001F094FF4FF48C706A
:1007200001F090FF504601F08DFF584601F08AFF1E
:100730004FF4887001F086FF002002F067F90D2069
:100740003860286006F138000FC88DE80F00616836
:1007500009B1684688474FF48E7A504601F06AFF27
:10076000C0B1802001F076FFA0B12F68504601F0A3
:1007700069FF483696E80F008DE80F00F80707D0AC
:10078000012028608DF80480616809B168468847B7
:100790000D2028605D46584601F04CFF002819D016
:1007A000082001F057FF002814D0284601F04AFF26
:1007B000616800290ED008200090D9F8000002904E
:1007C00005480C30006840F2FF1202EAD0000190A8
:1007D00068468847BDE8FF9F105500400C54004014
:1007E000A83A0000600200200050004070B54FF4AD
:1007F0008076304601F08BF9114CB50560B130467A
:1008000001F08CF90120C5F80803607920B90120B6
:1008100060712168002088474FF48276304601F0ED
:1008200076F900280AD0304601F078F90220C5F8A0
:1008300008032168BDE870400120084770BD000032
:100840000C000020F0B5D34AD3494FF08054136810
:10085000D4F830010978D4F83421451CC1F30311D0
:1008600007D08446164601270025BCF1060F04D0A8
:1008700013E003F0FF0C0E46F5E7032E05D0042E1F
:1008800003D0052E01D0062E07D1B4F82463DFF87B
:100890000CC3C6F30426CCF80060DEB2062E06D1E7
:1008A000032904D1DFF8FCC2BD4ECCF87460461CAD
:1008B00006D084464FEA0206BCF1060F04D013E0CE
:1008C00003F0FF0C0E46F7E7032E05D0042E03D0ED
:1008D000052E01D0062E07D1D4F84462DFF8C8C235
:1008E000C6F34236CCF80060DEB2062E08D10329EA
:1008F00006D1AE4ED6F800C02CF0807CC6F800C001
:10090000461C05D084461646BCF1060F04D014E000
:1009100003F0FF0C0E46F7E7032E05D0042E03D09C
:10092000052E01D0062E08D14FF08046C6F80C5196
:10093000C6F810519C4E361F3560DEB2062E08D127
:10094000032906D1DFF860C203260CF1640CCCF851
:100950000060DEB2062E11D103290FD1DFF850C29C
:100960000526CCF80060924E78363760904E0836F7
:1009700035600CF1040C3F26CCF80060461C05D015
:1009800084461646BCF1060F04D087E003F0FF0C46
:100990000E46F7E7032E7CD0042E7FD0052E01D023
:1009A000062E7BD1834E3668DFF80CC2CCF800608F
:1009B000804E361D36680CF1040CCCF800607D4E7C
:1009C000083636680CF1040CCCF80060794E0C3611
:1009D00036680CF1040CCCF80060764E10363668A0
:1009E0000CF1040CCCF80060724E143636680CF131
:1009F000040CCCF800606F4E18363668DFF8B8C1CA
:100A00000CF1200CCCF800606A4E1C3636680CF1F4
:100A1000040CCCF80060674E203636680CF1040CEC
:100A2000CCF80060634E243636680CF1040CCCF828
:100A30000060604E283636680CF1040CCCF800607B
:100A40005C4E2C3636680CF1040CCCF80060594E24
:100A500030363668DFF860C10CF1400CCCF800602D
:100A6000544E343636680CF1040CCCF80060514E0C
:100A7000383636680CF1040CCCF800604D4E3C362C
:100A800036680CF1040CCCF800604A4E40363668EB
:100A900000E003E00CF1040CCCF80060461C05D02B
:100AA00084461646BCF1060F04D011E003F0FF0C9B
:100AB0000E46F7E7032E05D0042E03D0052E01D0F5
:100AC000062E05D1D4F858423C4E04F04F04346051
:100AD000441C04D003461146062B02D010E0DBB2C2
:100AE000FAE7032905D0042903D0052901D00629F6
:100AF00006D133490B68DB0702D06FF001030B60AE
:100B000006280CD1032A0AD0042A08D0052A06D0C8
:100B1000062A04D12B48016841F480610160234812
:100B20007438016841F470010160BFF34F8FBFF367
:100B30006F8F4FF01021D1F80002002803DBD1F8AD
:100B40000402002822DA204A176020480368002B9C
:100B5000FCD01523C1F800320468002CFCD0C1F889
:100B6000043201680029FCD0156001680029FCD01E
:100B7000BFF34F8F0D48F0380168154A01F4E0616A
:100B800011430160BFF34F8F00BFFDE712491148C9
:100B90000860F0BDE00F00F0E80F00F040350140C4
:100BA0000DF0ADBA00C007403C050040FCED00E090
:100BB000105600400404001020C50040E40E004020
:100BC000000400403C17004004E5014000E40140FF
:100BD0000400FA050090D003100100202DE9F04731
:100BE000104E062700244FF4A0784FF4803900BF40
:100BF00008EB840509FA04F0715961B1D6F80413C1
:100C0000014208D02946304601F0ACFD0648D0E943
:100C1000002128469047641CE4B2BC42E8D3BDE8FA
:100C2000F087000000B00140700200200148006819
:100C30000047000020000020002809DB00F01F0210
:100C4000012191404009800000F1E020C0F88012AD
:100C5000704702E008C8121F08C1002AFAD1704785
:100C60007047002001E001C1121F002AFBD170472C
:100C700070B5254CA0421ED1F1B1012936D0022910
:100C800028D0032917D1072000F0D8FB002812D163
:100C900094F8680094F8691088420CD194F86A00BE
:100CA000002808D10023D4E901501A460321A8479F
:100CB000012084F86A0070BD052000F0BFFB002809
:100CC000F9D1A06864680023A446BDE870401A46C4
:100CD0000121604710461900EDD00028EBD00278C2
:100CE000302AE8D1BDE8704000F0C8BB082000F011
:100CF000A5FB28B9A068002364681A460221A04712
:100D0000BDE8704000F06EBC8408002072B601F0AF
:100D1000B3FB00BF01F0F4F90028FBD111481249E0
:100D2000401AC408012000EB044010A101F002FBAE
:100D300011480068C00700D000BE022000EB04404C
:100D40000EA101F0F7FABFF34F8F0B48E4380168AA
:100D50000E4A01F4E06111430160BFF34F8F00BF01
:100D6000FDE7000034420000F44100004661746178
:100D70006C206572726F7200F0ED00E0537973744D
:100D8000656D207265736574000000000400FA054B
:100D90000EB500210091CDE901106A4644F2010030
:100DA000FFF7B4FF0EBD00F003B800F009B8000073
:100DB00072B602480168491C016070472800002093
:100DC00003490868401E086000D162B67047000001
:100DD000280000202DE9F041064608680C46411C19
:100DE0004FF0A0474FF0010506D005FA00F1C7F813
:100DF0000815206801F086F86068411C02D00021C7
:100E000001F06EF83168A069C1F82405607D227D8B
:100E100031681043C1F86C05D4E900123068C0F89D
:100E20001425C0F80C15207D012815D1A068411C9F
:100E300002D0002101F054F8E068411C05D0854043
:100E4000C7F80855E06801F05DF8D4E9021230688F
:100E5000C0F80825C0F81015BDE8F0812DE9F04173
:100E6000064608680C46411C4FF0A0474FF00105AC
:100E700006D005FA00F1C7F80815206801F04CF813
:100E80006068411C02D0002101F033F83168A0698C
:100E9000C1F82405607D217D32680843C2F86C05E5
:100EA000D4E900123068C0F80C15C0F81425207D74
:100EB000012815D1A068411C02D0002101F019F8C9
:100EC000E068411C05D08540C7F80855E06801F08E
:100ED00023F8D4E902123068C0F80825C0F81015CC
:100EE000BDE8F0812DE9FC410646C0074FF0000542
:100EF0000ED0104F00240122385D009500231146CA
:100F0000019500F0A5FF641C042CF4D300F024F834
:100F1000B0070DD5074E0024361D0022305D032397
:100F200000951146019500F093FF641C042CF4D346
:100F3000BDE8FC81A03A00000249085C012100F0F4
:100F4000F5BF0000A03A00000249085C002100F053
:100F5000EDBF0000A03A000010B500242046FFF7C6
:100F6000EBFF641C042CF9D310BD00002DE9F04701
:100F70000546861C91460F464FF0010A0020FFF7F8
:100F800012FF1B4C04F21C4860683860D4E9010170
:100F9000184F401A3968081A0EE00121404600F047
:100FA0004EFD00F03DF90146404600F048FDD4E911
:100FB0000101401A3968081A401C8642EDD8B9F17F
:100FC000000F03D0052065F3891002E0062065F3C9
:100FD0009F5061683A68114004EB8101C860606805
:100FE000304460600020FFF7E0FE5046BDE8F08727
:100FF00064040020B400002070B50D4604460A29A0
:1010000002D10D21FFF7F8FFA0682268411CA16002
:101010001554D4E90101814204D32046BDE8704053
:1010200000F01DBE70BD0000044881684068814228
:1010300001D10120704700207047000064040020A7
:1010400070B5084C050009D010342168002907D07C
:1010500008682060496828468847F6E70834F4E7BE
:1010600070BD00004C020020002801D101F0F4BD49
:1010700070470000054A012120B1012805D1917077
:10108000FFF7DEBF51700020FAE770474C020020E6
:1010900010B50021024800F0DDFC80F3100010BD07
:1010A000800800202DE9FC5F0E008346DDE90C4737
:1010B000C6F1000098469246814600D408460125B4
:1010C00003E000BF90FBFAF06D1C5045FADAA8452A
:1010D00000D9454624B1002E01DB780700D5641EF7
:1010E000B80702D5B8F1000F0AD0F80708D13CB113
:1010F000A54205D220215846641EFFF77DFFF6E782
:10110000002E02DA4E462D2102E0780703D52B216E
:101110005846FFF771FF07F0030002280BD1B8F122
:10112000000F08D13CB1A54205D230215846641EBB
:10113000FFF762FFF6E7CDE90047434652463146E6
:10114000584602F0A3FBBDE8FC9F000070B50D46B9
:10115000044600684FF4887101F020FB4FF4907151
:10116000206801F01BFB4FF49271206801F016FB20
:101170004FF4A271206801F011FB4FF4AC712068AC
:1011800001F00CFB20681249C0F8041320686907BD
:1011900040F30730090E002804DB00F1E02080F85E
:1011A000001405E000F00F0000F1E02080F8141DAD
:1011B000206840F30730002809DB00F01F020121FE
:1011C00091404009800000F1E020C0F8001170BD9E
:1011D00010034200024600201268530713D502F0A4
:1011E0000300012802D002280CD105E0C2F38310CD
:1011F0000B68801C184404E00223086803EB925239
:1012000010440860012070470268134602E08A42D9
:1012100004D01268002AFAD10B6001607047000008
:101220002DE9FF410026244800F006FC2248001F5B
:10123000074600F001FC214C2149A06800900D6890
:1012400000E000986946284004EB80000C30FFF76E
:10125000C1FF0028F5D101AA009901EA050304EBBA
:101260008303491CDB6842F82030401C00910228AF
:10127000F2D3019800F0030001280BD0022810D10E
:101280000198032101EB90500099BDF80A6001EB31
:10129000900005E00198BDF80A60C0F3831008448F
:1012A0000090384600F0C5FB08B10098A06004B07B
:1012B0003046BDE8F08100007C0800206404002076
:1012C000B400002008B54FF480700021009008465B
:1012D00001F0A6F808B1FFF75BFD00F003FF012065
:1012E000FFF700FE00210F4800F04AFB08B1FFF7AE
:1012F0004FFD69460C4802F023FB08B1FFF748FD9B
:101300000948009900F01CFB08B1FFF741FD00F00F
:1013100085FA08B1FFF73CFD00F0F2FE0028FBD192
:1013200020BFF9E7891600004C0100202DE9F047A5
:10133000C5881E1DB6FBF5F78946B6FBF5F10446D8
:1013400005FB176C407916686843DDF820A0F71894
:10135000001F874200D9C61A166001E02468491EA2
:101360000029FBD1A5EB0C078846B74216D818E038
:1013700004EB0C00001D09EB0803BAF1000F3A461C
:1013800002D00146184600E01946FEF7F5FF246832
:10139000F61B4FF0000CB844B54201D9374600E0C7
:1013A0002F46002EE4D1BDE8F087000030B502469C
:1013B00051B101F049F80021074C08E034F8213020
:1013C0001568AB4202D11160002030BD491C81423A
:1013D000F4D3052030BD00000000000010B51C460D
:1013E000934200D914462246FEF7C6FF204610BDA0
:1013F00010B51C46934200D914460A462146FEF712
:10140000CDFF204610BD00000B4900F1100213462D
:101410004A610A6913448B6128B14FF47C73CB6134
:101420004FF4806301E00023CB61C01C10448008AE
:101430000B6281F8690070478408002070B50D4D7B
:101440000D4A00212C7800BF01EB4103D65CA64277
:101450000AD113445B78834206D101EB410010446A
:1014600080782870002070BD491C0E29ECD308201C
:1014700070BD0000840800201401002070B50446EF
:10148000022920D10620FFF7D9FF00281BD10E49E1
:1014900064784B69A2002046934208D88D69103DBC
:1014A000954204D3C968C3EB8400084403E000F00C
:1014B00017F805483830102100F014FA2046BDE82E
:1014C000704000F0B3B870BD840800200349026882
:1014D0004A6242688A6200898885704784080020D1
:1014E0002DE9F041334E8400102529463046FEF7A1
:1014F0005CFFA6F138077869A0420BD9021B3919A5
:101500002B4630462431FFF769FFD0F11005044423
:1015100006444CD0B869A0420CD978693969201AC0
:101520000A1AF9682B4601443046FFF757FF2D1A77
:1015300004440644002D3AD0B869A0420ED1396A5D
:1015400061B1F969884209D02B460122FE2130465B
:10155000FFF74EFF2D1A0444064428D0F869A04234
:1015600009D9021B2B4600213046FFF741FF2D1AF7
:10157000044406441BD0386AA04210D9021B2B46F3
:10158000FF213046FFF734FFF969611AC1F10E01FE
:10159000A94201D83F2272542D1A064407D02B4687
:1015A0003046BDE8F0411A460021FFF721BFBDE8F3
:1015B000F0810000BC08002070B50C460546914241
:1015C00001D90C2070BD0120FFF738FF08B10820B9
:1015D00070BD05B900240248C0E90354002070BD65
:1015E0008408002070B5002103230A460C460E48EB
:1015F00001260CE006FA03F50D43E9B25B1E05D5A2
:10160000831883F8481007230021521C641C90F8AB
:101610006950A542EEDC024482F84810002100F82F
:10162000681F817070BD000084080020F0B5C208FA
:10163000514200EBC1010024124BC1F10701012509
:10164000042813D305FA01F603EB020CF7B29CF859
:1016500048603E4204D0BE438CF848602E4600E00D
:10166000002693F868703E4483F86860491E01D5EF
:101670000721521C401C10F0FF0002D0641C042CF7
:10168000DEDBF0BD84080020012904D0022905D149
:101690000020FFF751BC0020FFF756BC70472DE932
:1016A000F8439046894607004FF0000606D0B8F18F
:1016B000000F03D03D680DB1002422E00E20BDE8EC
:1016C000F88324B1611C884207D1402106E001283B
:1016D00001D0802102E0C02100E00021D8F8000004
:1016E0006B46801B00904A46286800F01FF80028CF
:1016F000E5D10098B9F1000F064400D08144641C84
:101700002D1DB868A042DCD80020C8F80060D6E7DC
:10171000D0E901329A4201D304207047036843F8AC
:1017200022108168491C8160002070472DE9F84330
:10173000144698460A4605004FF000074AD06878DC
:10174000297A4618B61D00B1761C8CB332F0C00061
:1017500002D00720BDE8F883D8F80000B04201D2DB
:101760000420F7E722702B78601C1A4322702A7A33
:1017700000F8012B21460746041D687828B104F8BB
:10178000010B087840F0080008702A7A2046E968C2
:10179000FEF7F2FD287A6A7804442AB12046696887
:1017A000FEF7EAFD68780444D8F80000801B00903A
:1017B0002B697BB16A462146686998470028C9D1E0
:1017C00014B1009800BA3860009831180020C8F8A9
:1017D0000010BFE70E20BDE70068022803D00428F0
:1017E00004D100F0A3B9024800F0B6B97047000078
:1017F00008010020084810B5064941600021016039
:1018000000F0CEF9852803D0002800D0032010BDB9
:10181000002010BD691000000801002010B5042050
:10182000FFF70CFE08B1082010BD00F087F800207B
:1018300010BD000010B518B10A2902D00C2010BD4F
:101840000248FFF743FE002010BD0000513B00009E
:10185000FEB5224847780A2F23D0214A0324072FB8
:10186000167855789378D1788DF800608DF801500E
:1018700086EA05008DF802301AD04B4058408DF8AA
:1018800003108DF80400FF2204210DF10500FEF77E
:1018900085FD00BF8DF809400A216846FFF7CAFFA1
:1018A000FEBD03B00A21BDE8F0400D48FFF7C2BFFE
:1018B00083F0880358408DF803008DF804101379E5
:1018C0008DF8053050798DF80600927959405040D6
:1018D00041408DF807208DF80810DBE7400100201B
:1018E000000900201CB5CDE900100321684601F075
:1018F000B9F91CBD1CB50E4BD3E90223CDE9002379
:101900000C4AC2E90101507838B9072050700A2109
:10191000094801F003F9002808D1FFF799FFFFF704
:1019200069FF002802D1684601F08CF81CBD000058
:101930005C3B0000400100200009002000F094BF43
:1019400010B54FF47772FFF737FE040013D10B4840
:101950000322016900F8342FFE2902D841700220C9
:1019600005E0FF2242700A0A8270C1700420FFF76E
:101970004BFDFFF737FE204610BD00008408002015
:1019800070B50E46050005D00020FFF757FD18B1D1
:10199000082070BD072070BD0B4C0C48C4E90156EF
:1019A0001434FFF793FDFF20A076E076E120207746
:1019B000102060777C20A0770F20E077BDE8704092
:1019C00001490348FFF796BF84080020513B0000FF
:1019D000710C00002DE9F0410446007A164698B1DA
:1019E000420611D402060FD462686AB122695AB164
:1019F000E3684BB146B185186D1CB9B13268AA4293
:101A000004D20420BDE8F0810720FBE722784F1CB8
:101A100000EBC2100870227A38466168FEF7ACFC11
:101A2000207AD4E903123844FEF7A6FC0020356082
:101A3000E8E7002100F009B8012100F010B808B56E
:101A40006A46FEF734FC009808BD08B56A46FEF702
:101A500014FC08BD08B56A46FEF7F6FB08BD08B5DC
:101A60006A46FEF7FDFB009808BD08B56A46FEF71A
:101A70002BFC009808BD70B5044600252846FFF7EA
:101A800092F921686268086890420ED9401E086089
:101A90000178238AE26801FB0325227A2168101A63
:101AA000C0B20A79824200D208710020FFF77DF9A6
:101AB000284670BD70B505460C460020FFF773F947
:101AC000E868298A201AB0FBF1F12A681068431CE3
:101AD00013600170BDE870400020FFF766B910B5D3
:101AE00030B1017A42680368891AC9B21A6006E007
:101AF0000E2010BD03681A68541C1C601170491E2A
:101B0000C9B2F7D2006800210171084610BD00F18A
:101B100080400068002800D00120704708B500F11F
:101B20008040002101600068009008BD10B50020D1
:101B3000FFF739F9074C6068401E6060606818B9AB
:101B400000F05CFE00206070BDE810400020FFF750
:101B50002CB900004C02002070B5104D0446687886
:101B600038B114B16168002088470020FFF71BF9E5
:101B70000CE00020FFF717F924B10848214608308F
:101B8000FFF742FB686808B900F02CFE6868401C4B
:101B90006860BDE870400020FFF707B94C020020E4
:101BA00070B50C4C0125207808B185260BE000208B
:101BB000A06060602061E060074800F03DFE0646DE
:101BC00000F0FAFD257000F0EFFD00B1A570304681
:101BD00070BD00004C02002075100000F0B50546F5
:101BE0000478154889B0164640F82420124A08693E
:101BF000121DA2F1080742F82400487F3855202220
:101C00006846FEF7B9FB04942878385C48B10EB1F9
:101C10000A4A00E000226946281D01F061FA09B075
:101C2000F0BD0EB1064A00E00022694605F10C0045
:101C300001F020F9F3E7000004000020493700001C
:101C4000913500000FB408B50399002904D004AA07
:101C500000926A4600F00FF801B05DF814FB10B571
:101C600082680446002A05D0D4E904032168984715
:101C70000020A06010BD2DE9FC4791460C00804675
:101C800076D014F8011B39B125290ED04046FFF754
:101C9000B3F920780028F4D198F80C00002867D018
:101CA0004046BDE8FC47FFF7DABF0020012221785B
:101CB0002B291BD02D2902D0302908D102E040F079
:101CC000010001E040F00200641C002AEFD1002571
:101CD0002A290ED02178A1F130020A2A11D205EB6F
:101CE000850201EB4205641C303DF1E740F0040041
:101CF000EAE7D9F800100B1DC9F800300968641C28
:101D00000D44217800232E290BD114F8011FA1F1D5
:101D100030020A2A05D203EB830201EB4203303B77
:101D2000F3E76C290DD068290BD0692921D00BDC91
:101D3000252918D0582931D063290ED0642915D10E
:101D400017E014F8011FECE7702969D0732932D02D
:101D500075291BD0782909D120E0D9F80000011D90
:101D6000C9F8001001784046FFF746F9641C90E777
:101D70006CE0D9F800100A1DC9F800200968CDE907
:101D800000500A224046FFF78DF9EFE7D9F800101E
:101D90000A1DC9F8002009680A2206E0D9F80010D7
:101DA0000A1DC9F8002009681022CDE900504046FC
:101DB00001F06CFDDAE7D9F8001000270A1DC9F818
:101DC00000200E68C00705D112E04046761C7F1C3B
:101DD000FFF712F931780029F7D104E020214046BD
:101DE0006D1EFFF709F9BD42C0D9002DF6D1BDE740
:101DF0004EB13046FEF7E4FA074604E020214046A3
:101E00006D1EFFF7F9F8BD4206D9002DF6D103E0AB
:101E10004046761CFFF7F0F831780029F8D1A5E7A5
:101E2000D9F80000011DC9F80010056830214046AE
:101E3000FFF7E2F878214046FFF7DEF8082000219E
:101E4000CDE90001034610222946B0E7BDE8FC8732
:101E500070B541EA4201DDE904564FF0A04441EA81
:101E6000830141EA052104EB800041EA0641C0F804
:101E7000001770BD70B541EA4201DDE904564FF02C
:101E8000A04441EA830141EA052104EB800041EAD4
:101E90000641C0F8001770BD70B541EA4201DDE9A6
:101EA00004564FF0A04441EA830141EA052104EBC6
:101EB000800041EA0641C0F8001770BD1CB5002142
:101EC00000910B4601220191FFF7D4FF1CBD1CB508
:101ED000002100910B4601220191FFF7DDFF1CBD9F
:101EE0001CB500220B46009211460192FFF7C2FF7B
:101EF0001CBD1CB500220B46009211460192FFF753
:101F0000CBFF1CBD1CB5002100910B4601220191A5
:101F10001146FFF7AFFF1CBD1CB5002100910B4619
:101F2000012201911146FFF7B7FF1CBD01224FF0BE
:101F3000A043824011B1C3F808257047C3F80C25AF
:101F40007047000030B5154A01460020D2F8104411
:101F500023460AE0DB681D79854205D1401C0A282A
:101F6000F6DB4FF0FF3030BD1B68002BF2D1431C75
:101F7000F9D0CB681871D2F8103443B1DB68CC6863
:101F80001B682360D2F81024D268116030BDC2F8FB
:101F90001014C96800220A6030BD000064040020EB
:101FA000F0B595B01C4615460F4608461A9E00F03F
:101FB0001BFB182109A8FEF7F8F90E96CDE9095484
:101FC0000023082203A9384600F023FB0598069059
:101FD000BDF81000ADF81C00BDF81200ADF81E00F1
:101FE00000208DF821000398082600F00300012846
:101FF00002D0022818D032E003983346850AC0F395
:10200000C2008DF8200003980FA9C0F38314A2002A
:10201000384600F0FEFA09A8009006AB22460FA948
:10202000284600F03DFA1AE00398840DC0F3C20080
:102030008DF82000082C01D2254600E00825334603
:102040002A460FA9384600F0E4FA2E44641B09AB77
:1020500006AA29460FA800F08BF9002CEAD13846D1
:1020600000F0C8FA15B0F0BD7047012001F0AEBA1B
:10207000084810B50178084A515C19B1001D01F0FB
:10208000C9F802E00C3000F0C3FFBDE810400020AA
:1020900001F09CBA980000200000002008B5034A17
:1020A00000924023024AFFF77BFF08BD693400001D
:1020B000CC0200200A4A012902EBC00007D0022905
:1020C00007D0032907D0042907D000207047022039
:1020D00070470420704700797047407970470000CE
:1020E000F441000010B5FFF7C0FF04210348FFF7DB
:1020F00029FF02490120C968487110BDE441000070
:102100002DE9F0478CB0FEF78FFF18B100200CB01E
:10211000BDE8F0877D4C0020C4F81804BFF34F8F52
:102120007B49A06802900D684FF00008284004EB3E
:1021300080000BE0D4F8180470B9616802988142FD
:1021400001D8A160E2E7284004EB80000C3002A92E
:10215000FFF740F80028EDD1002003AA029901EA18
:10216000050304EB8303491CDB6842F82030401C64
:1021700002910228F2D3039800F00300022802D053
:1021800001284DD0A7E003985022810D8946B2EB7B
:10219000905F00D850210E4666F39F50039008319F
:1021A0005C4800F0D8F9070078D000F01DFA4346EB
:1021B000082203A9384600F034FA029908F1080A07
:1021C0002940681A8000001D864222D94F4D0C35E7
:1021D00030B1C2B204EB8101301A90460C3104E0F8
:1021E0002946F2B2002590462846C6B253463846E4
:1021F00000F017FA0AEB080325B1324629463846A3
:1022000000F00FFA029909F1030001EB900002902F
:102210003BE004EB81015346324638460C31EFE790
:102220000398C0F38310062800D30620039960F3B7
:102230008911C1F38310801C03918100354800F09F
:102240008AF9070047D000F0CFF94346082203A9D6
:10225000384600F0E6F908F1080800260FE0029879
:10226000434600EA0501401C04EB81010290042270
:1022700038460C3100F0D5F908F10408761C0398B3
:10228000C0F38310B042EAD847B1D4F81054D4F860
:10229000180478B1384600F0ADF931E01BE0E86889
:1022A0004079012804D12A682846394612689047A7
:1022B000E8680568002DF2D1384600F09BF900204F
:1022C000FEF771FDD4F8180408B90298A060002048
:1022D000FEF76BFD14E0D4F8104405E021682046B9
:1022E00089688847E0680468002CF7D10A480B49E0
:1022F000401AC008022101EB004009A100F01AF8C1
:10230000FEF792FE80F0010001E700006404002067
:10231000B40000203C42000034420000F4410000C0
:102320004261636B656E647320666C757368656487
:102330000000000000231A4601F0B6B808B50123DA
:1023400000926A4601F0B0F808BD3EB5069C8DE8E3
:102350001C0003236A4601F0A7F83EBD7FB5DDE906
:1023600008458DE83C0004236A4601F09DF87FBDD6
:102370002DE9F0470E4680461C469246082940D873
:1023800094F80C90002020731946104600F0E4FFEA
:102390000025B54206D218F805201BA12046FFF7FC
:1023A00051FC03E01AA12046FFF74CFC6D1C082DE0
:1023B000EFD318A12046FFF745FC0025B54212D205
:1023C00018F805707E2F08D8FDF7D2FF0068C05DB1
:1023D00010F03E0F01D03A4600E02E220EA120461A
:1023E000FFF730FC03E00DA12046FFF72BFC6D1C2E
:1023F000082DE3D301222146504600F08FFF84F8D8
:102400000C90BDE8F08700002025303278000000F5
:10241000202020007C000000256300002000000038
:10242000064910B500200870054800F0E1F80028C2
:1024300003D1044800F088F9002010BD6404002096
:102440003C420000443B000002480349401AC008D7
:10245000704700003C420000F441000013B568469C
:10246000FEF7A4FF08B100201CBD0248009950F8F7
:1024700031001CBDF441000070B508480125D0F8BA
:102480001044057007E0E0684571216820464968FE
:102490008847E0680468002CF5D170BD6404002012
:1024A0002DE9FF4781460C9D00200C462F7B2873A9
:1024B000984616462946184600F04EFF072E42D28F
:1024C000DFE806F004090F161F2A360049462846A1
:1024D000FFF7B8FB37E0494628462268FFF7B2FB12
:1024E00031E0D4E9002349462846FFF7ABFB2AE058
:1024F000A0680090D4E9002349462846FFF7A2FBD4
:1025000021E0D4E90201CDE90001D4E900234946E4
:102510002846FFF797FB16E004F1080007C88DE88E
:102520000700D4E9002349462846FFF78BFB0AE061
:1025300004F108000FC88DE80F00D4E900234946D4
:102540002846FFF77FFB00222946404600F0E6FEC2
:102550002F73BDE8FF872DE9F041058A80462D1FC6
:102560004819C01CB0FBF5F0C6B24046FFF783FA2D
:10257000041E19D00020207101206071E580002721
:102580002546761EC4F800800BE04046FFF773FA3C
:1025900060B16179491C6171286005467F1CC0F8F3
:1025A0000080B742F1D32046BDE8F081204600F01C
:1025B00002F80020F8E72DE9F041457901466B1E4D
:1025C000002201E00968521C9A42FBD30F680146C1
:1025D000002605E038460C68FFF76CFA2146761CA9
:1025E000AE42F7D3BDE8F0810121001DFFF727BA05
:1025F000FFF775BA10B504460121001DFFF735FA43
:1026000010F0FF0F04D12046BDE81040FFF7D3BF04
:1026100010BD1CB501920122009201AAFEF786FEB0
:102620001CBD1CB501920022009201AAFEF77EFE9D
:102630001CBD000002494058002800D0012070470E
:1026400000500040024A00218150BFF34F8F704775
:10265000005000400449D1F80413014201D0012088
:10266000704700207047000000500040C02903D090
:10267000E9B1802902D00DE040210BE010F8012BD8
:1026800010F8013B120442EA032210F8013B1A43FE
:102690000F4B1A6010F8012B10F8013B120442EAAC
:1026A000032210F8013B1A43094B1B1F1A600268F2
:1026B000C07812BA22F0FF020243054808380260CF
:1026C00003480830026822F0C0020A4302607047E3
:1026D0009855004030B4016809B129201BE0124927
:1026E0000A78124C302A03D00A78A22A0AD00CE0C9
:1026F0006568002D16D04368A068AC4630BC0A4A15
:10270000022160474068062808D008785028E4D1A4
:1027100001202070282030BC00F0E2B930BC044811
:1027200000F080BA30BC7047F00800204001002063
:102730005C3B000003490A6822F0600242EA401054
:1027400008607047A455004082680021916082684B
:102750001161826851618268D160826851608068CD
:102760000160704708B5002242504058009008BDF3
:102770004058002800D00120704708B50022425080
:102780004058009008BDD0F80403084000D0012054
:1027900070474058002800D00120704708B500223B
:1027A00042504058009008BD02480068002800D000
:1027B000012070470004014008480068012110F022
:1027C000010F06D14FF0E020C02280F800248430B1
:1027D000C1670349012008607047000000E100E084
:1027E0001805004010B54FF48070FFF797F90120ED
:1027F0008107C1F80403086010BD0000012010B576
:102800008107C1F808030002FFF788F90749012092
:10281000086007494FF001100A6802F00112824275
:10282000FAD004490020487110BD000004000040A7
:102830000C0400400C0000200649024600200B79E1
:102840000BB1852070470A6001220A7100224A718B
:10285000704700000C0000200121B1EB507F01D136
:10286000012070470020704705490D200860054A87
:1028700001210832034811600349C0F8041370476E
:1028800004540040005000408200080070B5054626
:10289000FEF7A2FF28681D4C40281DD00DDC04283F
:1028A0001FD0102830D11A4800F0BCF96568002DFF
:1028B0002AD000231A46032119E080281CD0B0F545
:1028C000002F21D1124800F0ADF96568002D1BD012
:1028D00000231A4619460AE0281DBDE87040FFF79C
:1028E000F9BE6568002D0FD000231A460121A068AB
:1028F000AC46BDE8704060472879002804D12078B4
:10290000002801D00020207070BD00004001002090
:102910005C3B000002480068800700D0012070473F
:102920003C54004071B585B09DF81400032807D1D0
:10293000FFF7F0FF08B1022000E001208DF814003D
:102940009DF8140000250126164C012814D00228F9
:1029500010D1607A00280DD1134800F0D0F9124848
:1029600000F0FCF91048856066720220009014E0C7
:102970006846884706B070BD607A0028FAD00B49D7
:102980000A4808310E604FF48F61C0F80813657271
:1029900004200090012000F039F861680029E7D197
:1029A000E8E7000060020020140000200050004012
:1029B0007FB5FFF7AFFF0F49002508B18D607FBDE0
:1029C0008868401C88600728F9D90B4B0FCB8DE82D
:1029D0000F00084800F0B4F9084C6572012000F0BF
:1029E00015F800F0CBF861680029E8D06846884700
:1029F0007FBD000014000020B03A000060020020FB
:102A0000B0F5A07F01D1FFF7D3BF7047044908B1EB
:102A1000881402E00348808980B208607047000093
:102A20000855004060020020054903200860044862
:102A30009430016821F01F0141F0040101607047EA
:102A40000C550040FEB5214C217A09B10820FEBD8D
:102A5000D0E9001021606060FFF7E6FF0520FEF777
:102A6000EBF81B49C02081F8000401252020491FF4
:102A7000C1F800011749184AD1E90001CDE9010167
:102A800001A9164800F08EF90028E0D1134800682B
:102A9000D0F810050021C2B24FF4C860FDF758FC11
:102AA0000246012300210D48009500F065F9072139
:102AB000684600F033F80646C0216846FFF7D6FDA9
:102AC00025722803E0603046FEBD00006002002051
:102AD00005E000E0A83A0000012A000014000020F0
:102AE00010B501210B4C292801D0204408E00A48E8
:102AF0000068C00702D00748283001E005482430AC
:102B000001600120FFF782FF4FF48F60C4F80803D3
:102B100010BD0000005000402054004030B5042992
:102B200005D0072903D00A2901D0092030BD124A57
:102B30001468121D1268104B08331B680470250AB4
:102B4000240C45708470D4B2C470042912D0150AC4
:102B50000571150C120E457182710A2902D0882C5C
:102B600006D007E0C371190A0172190C417201E025
:102B70009921C170002030BD50040010F0B5264BE3
:102B8000A1B01868244982B2883168460C6822498D
:102B90009831096811F0C00118D01F4D8C352D688F
:102BA00080290BD11C4E90363668370C8DF800709A
:102BB000370A8DF801708DF80260C01C2E0C00F8E9
:102BC000016B2E0A00F8016B00F8015B250E057001
:102BD000250C4570250A8570C4700F489C3000682C
:102BE0000E4DC0F34116D5F804430D480027076089
:102BF0000768012707601A60684605F54175FFF709
:102C000035FD3046FFF796FDFFF70EFF2C604FF4C1
:102C10008F60686021B0F0BD085500400050004052
:102C2000FC5F0040094A416800881160111DC0F333
:102C30000800086006480749008800F48C60C1F865
:102C40000403044901201C310860704710550040FE
:102C50006002002000500040014A0121815070476D
:102C60000050004010B50268FAB1114C436823606F
:102C7000231DC2F308021A6000884FF6FF7202EAB1
:102C8000C0000B4AC0F30B000C321060201F016023
:102C900008480949007800F01800C1F80403064903
:102CA00001200C310860002010BD092010BD00007B
:102CB00010550040600200200050004070B50D46E5
:102CC00000F096FB04000FD00020FEF76CF820798E
:102CD00020B10020FEF769F8112070BD01202560A9
:102CE00020710020FEF761F8002070BD10B500F0E3
:102CF0007FFB002802D000210160017110BD006837
:102D00000121C16070472DE9F04106460D464FF4A0
:102D1000803400681746AC404BB14FF4A07101EB12
:102D20008501FFF71FFD3068C0F8044301E0C0F8DB
:102D30000843306800EB8500C0F84075BDE8F081BD
:102D40000268012111610079034A00EB400002EBA7
:102D500080000172704700007002002001680122AB
:102D60000A600079034A00EB400002EB8000022178
:102D70000172704770020020F0B40468049E40F2B3
:102D80000115D4F800728D40AF43C4F80072046896
:102D9000D4F800521D43C4F800523346F0BCFFF78C
:102DA000B2BF00002DE9F04104460E4600792C49DF
:102DB00000EB400001EB8007387A10B10820BDE835
:102DC000F0813A60706800254FF4A078786006E0E2
:102DD00008EB85012068FFF7C5FC6D1CEDB260793A
:102DE000A842F5D82068F17840F3073000284FEA70
:102DF000411104DB00F1E02080F8001405E000F050
:102E00000F0000F1E02080F8141D2068012140F33C
:102E10000730002809DB00F01F0201FA02F2400926
:102E2000800000F1E020C0F8002120687278D0F81E
:102E3000043562F30103C0F804352068B278D0F895
:102E4000083562F30103C0F8083520683278D0F8FD
:102E5000103562F30303C0F8103539720020AEE775
:102E6000700200200149024800F0D8BB7C0200201B
:102E7000002000402DE9F0410546007916460F4636
:102E800000EB40012D4A01EBC00102EB810494F8F4
:102E90002A1011B10820BDE8F081294951F820100D
:102EA0002868FFF70BFF08B11120F4E739462846E0
:102EB000FDF790FF66603869206030004FF0010632
:102EC0002FD03F7F4FF48E712868FFF756FC4FF4E8
:102ED000A2712868FFF751FC28681A49C0F804134A
:102EE00028684FEA471140F30730002804DB00F15F
:102EF000E02080F8001405E000F00F0000F1E02071
:102F000080F8141D286840F30730002809DB00F022
:102F10001F0106FA01F14009800000F1E020C0F82D
:102F2000001128680421C0F800150020A061E061AC
:102F300084F8290044F8140FA675ACE77C02002041
:102F4000003B0000800002002DE9F05F054600799B
:102F50000B4600EB400101EBC000244901EB80046B
:102F6000284600F045F810B11120BDE8F09F6261DD
:102F70004FF00009C4F82090A36084F828904FF423
:102F80008E784E4641462868FFF7F7FB28684FF0D9
:102F9000010AC0F808A02146286800F0CFFA60684E
:102FA00008BBD5F800B067690FE000BF94F82800AF
:102FB00008B10F2615E041465846FFF7D9FB002817
:102FC000F4D02146584600F0B9FA206AB842F2D34C
:102FD000574641462868FFF7CBFB0028F9D0286800
:102FE000C760C4F814903046BFE700007C020020A0
:102FF000007900EB400101EBC000044901EB8000C7
:103000004069002800D00120704700007C020020A9
:103010002DE9F047044600794FF0000900EB40012C
:1030200001EBC000284901EB80072068C0F800953B
:103030007868B0B120682549C0F80813206840F3CB
:10304000073000280DDB00F01F02012191404009EC
:10305000800000F1E020C0F88011BFF34F8FBFF374
:103060006F8F2068D0F80C25D0F81485D0F808654B
:10307000D0F810554FF0FF31C0F81415C0F80C15FA
:103080002068C0F80815C0F81015501C02D0104672
:10309000FEF714FFB8F1FF3F02D04046FEF70EFFE7
:1030A000681C02D02846FEF709FF701C02D030468B
:1030B000FEF704FF2068FFF719FE87F82A90C7F88B
:1030C0000490BDE8F08700007C020020840202002A
:1030D0000149024800F050BBA80200200020004037
:1030E0002DE9F0410546164600790F46154A00EBDA
:1030F000C00102EB810494F8201011B10820BDE852
:10310000F081114951F820102868FFF7D7FD08B168
:103110001120F4E739462846FDF7A0FE66603869BD
:1031200020601EB1397F2846FEF710F82868082174
:10313000C0F800150020A061E0616061012184F801
:103140002010DCE7A8020020043B00002DE9F04736
:1031500004460E460079274900EBC00001EB8005CC
:1031600017463046FFF778FB30B1204600F044F8B0
:1031700020B11120BDE8F0871020FBE76F61AE6041
:103180004FF490774FF0000839462068FFF706FBB0
:103190004FF4AC7631462068FFF700FB2068AA6840
:1031A0006969C0F84425C0F8481520684FF0010946
:1031B000C0F808906868D0B9BA4651462068FFF751
:1031C000E8FA074631462068FFF7E3FA0743F4D0F0
:1031D00010B14FF00F0808E02068C0F80C9031469D
:1031E0002068FFF7D6FA0028F9D000206861404631
:1031F000C0E70000A80200200079054900EBC000EC
:1032000001EB80004069002800D0012070470000D9
:10321000A80200202DE9F047064600793D4900EB61
:10322000C00001EB8005346868680127A8B13A49FD
:10323000C4F80813306840F3073000280DDB00F0B5
:103240001F0107FA01F14009800000F1E020C0F8F9
:103250008011BFF34F8FBFF36F8FD4F8000220F0BF
:103260002000C4F80002A8694FF4A27820B14146BA
:103270002046FFF793FA67604FF4AC794946204641
:10328000FFF78CFAE760474649462046FFF781FA88
:103290000028F9D0A86928B139462046FFF779FA05
:1032A0000028F1D04FF0000AC4F800A53068D0F82B
:1032B0000C25D0F81495D0F80885D0F810754FF08B
:1032C000FF31C0F80C15C0F814153068C0F80815A7
:1032D000C0F81015501C02D01046FEF7F8FDB9F1E9
:1032E000FF3F02D04846FEF7F2FD781C02D0384678
:1032F000FEF7EDFDB8F1FF3F02D04046FEF7E7FDD7
:103300002046FFF7F3FC85F820A0C5F804A0BDE82F
:10331000F0870000A80200201003420010B50C4600
:10332000017A052908D0407A38B1084808A1026816
:103330002046FEF787FC00E01AB106A12046FEF702
:1033400081FC2046BDE81040FEF789BCE400002067
:10335000257300000D0A000038B5C3880D460446E9
:1033600033B114A0009015A216A12846FEF76AFCFE
:10337000217A05291CD0607A48B1A088FEF79AFE10
:10338000164951F8202016A12846FEF75BFCA088BC
:103390000021FFF763F803461049207A143951F8E9
:1033A000202001B02846BDE830400EA1FEF74ABCFF
:1033B00038BD00001B5B306D000000001B5B313B23
:1033C00033316D0025734C6F67732064726F7070BA
:1033D0006564202825642925730D0A00E400002077
:1033E000257300003C25733E2025733A2000000021
:1033F0000349884201D1034870470020704700000C
:10340000002000402000002070B5054688690C4669
:1034100000284FF4847128460AD0FFF7AEF9D5F89A
:103420001805626AE1688854606A401C606270BD79
:10343000FFF7A3F9D5F8180570BD1FB501238DF866
:103440000030CDE90121D0E90012684690471FBD48
:103450001FB501238DF80030CDE90121D0E900121C
:10346000684690471FBD000070B50D4C0020D2B2D9
:103470002070201D0B4D0378EB5C1BB1001DFFF786
:1034800065FE02E00C30FFF75FFD08B1FDF780FC40
:103490006078002802D021780029FAD070BD0000A1
:1034A00094000020000000202DE9F84F0746214835
:1034B0009146884605681E46012269461846FDF772
:1034C00055FDDFF874A060B3009800210446801C0D
:1034D0000AE000BF00EA050259F821C00AEB8202A7
:1034E000401C491CC2F80CC0B142F3D34FEA174943
:1034F000FDF7CEFD611C29400AEB810149EA00423B
:103500002C40CA600AEB8401C86867F3C50066F303
:10351000891068F39F2020F00300401C20F0040075
:10352000C8609AF8000001E0FEF7EAFD0028FBD130
:10353000BDE8F88FB40000206404002070B50C468C
:1035400005464FF48E71FFF718F9216AA068415CB7
:10355000206A401C2062C5F81C1570BD1FB50022F2
:103560008DF800200291816801914261D0E900123A
:10357000684690471FBD1FB500228DF800200291BC
:10358000816801914261D0E90012684690471FBDF1
:103590001FB50A4601788DF8001041680191017A43
:1035A0008DF80810C0680390044850F82210001FDE
:1035B00050F82220684690471FBD000008000020F8
:1035C00001490120087070479400002010B588B0B0
:1035D000044620220E496846FCF7CEFE06200090E5
:1035E000C01F0190029003904FF0EB7006900CB159
:1035F000084A00E0002269460748FEF7EFFA08B1E2
:10360000FDF7C6FB0448001F447008B010BD000061
:10361000243B0000C1350000980000202DE9FF4741
:103620000C4605464FF40071FFF7ADF801274FF443
:103630000178002618B34FF4927949462846FFF7DF
:1036400097F8E0B149462846FFF797F8C5F8088390
:1036500094F8290000B96F6002208DF80000D5F8B9
:103660008004C5F880040390A0690290E06801908E
:10367000A661E661D4E900126846904728E004217B
:103680002846FFF780F818B34FF484712846FFF7F7
:103690006FF8E8B121462846FFF7B6FE616AA069D7
:1036A000884215D1E06938B1E268616AA061206999
:1036B000E6616662E06008E094F8290000B96F6096
:1036C000C5F80883A661E268616A2046FFF7B5FE87
:1036D0004FF48E7841462846FFF74AF880B160697A
:1036E000216A814202D294F8280028B34146284634
:1036F000FFF743F8606918B161692046FFF72EFFB4
:103700004FF4A27841462846FFF732F8002818D037
:1037100041462846FFF731F894F8290000B12F60A0
:10372000A06900280DD0A661E268616A04B0204655
:10373000BDE8F047FFF781BE21462846FFF7FEFEB1
:10374000DEE7BDE8FF8700001FB50A4601788DF867
:10375000001041680191017A8DF80810C06803904B
:10376000044850F82210001F50F822206846904765
:103770001FBD0000080000202DE9FF410C464FF45A
:10378000927705463946FFF704F80026B8B1394666
:103790002846FFF703F802208DF80000D5F88004D2
:1037A000C5F880040390D5F83C050290E0680190CC
:1037B000A661E661D4E900126846904723E04FF421
:1037C000887739462846FEF7E4FFE0B139462846B7
:1037D000FEF7E4FFD5F83C15A069884213D1E069F3
:1037E00060B1E268D5F8000220F02000C5F80002C0
:1037F000E069A0612069E661E06001E0A661E2683D
:103800002046FFF725FE4FF4A27739462846FEF7FB
:10381000C0FF68B139462846FEF7C0FFA06938B13D
:10382000A661E661D5F83C152046E268FFF710FE78
:103830004FF4907631462846FEF7ABFF60B1314633
:103840002846FEF7ABFF0120E860606920B1D5F89B
:103850004C152046FFF78FFE4FF4AC7631462846D4
:10386000FEF797FF00280ED031462846FEF796FF58
:103870006069002807D0D5F84C1504B02046BDE893
:10388000F041FFF778BEBDE8FF8100002DE9F05F51
:103890008346DDE90A4A994690460D4608460127C7
:1038A00003E000BFB0FBF8F07F1C4045FAD2B945F9
:1038B00000D94F465FEACA7012D18CB15FEA8A70B4
:1038C00002D5B9F1000F01D0202607E0302605E02F
:1038D00031465846641EFDF78FFB0CB1A742F7D363
:1038E0005FF00106B9F1010F02D9A9F1010903E066
:1038F000B5FBF6F0404502D306FB08F6F2E7DFF829
:103900003C9000BFB5FBF6F000FB165519F800100F
:103910005846FDF771FBB6FBF8F6002EF2D15FEAD0
:10392000CA7009D0002C07D0A74205D220215846E2
:10393000641EFDF761FBF5E7BDE8F09F083B000062
:1039400030B5A7B00C4605461422244915A8FCF74B
:1039500013FD22491822143103A8FCF70DFD15A808
:103960001E49089014222C311AA8FCF705FD1B49AA
:103970001822403109A8FCF7FFFC1AA817490E903D
:10398000142258311FA8FCF7F7FC144918226C3197
:103990000FA8FCF7F1FC11491FA880311490D1E960
:1039A0000201CDE9010124A8009003A96846FDF7B2
:1039B000AFFE002810D109A96846FDF7A9FE00282E
:1039C0000AD10FA96846FDF7A3FE002804D12246BC
:1039D00029466846FDF763FE27B030BD103A000067
:1039E00048656C6C6F20576F726C6421656E48611E
:1039F0006C6C6F2056657264656E214E4F5769740A
:103A0000616A20C59A77696563696521504C000039
:103A100000000000EC39000002000000E039000066
:103A20000C00000001000000000000000100000088
:103A3000503B0000D519000000000000000000000D
:103A4000FB39000002000000EE3900000D0000000C
:103A5000010000000000000001000000503B0000D9
:103A6000D519000000000000000000000C3A000022
:103A700002000000FD3900000F00000001000000FE
:103A80000000000001000000503B0000D5190000BC
:103A90000000000000000000030000000000000023
:103AA000111213140D0E0F10040000060000000088
:103AB0000400000000000000000000000000000002
:103AC00040000000000000000000000000000000B6
:103AD00010000000000000000000000000000000D6
:103AE00000000800000000000000000000000000CE
:103AF0008000000000000000000000000000000046
:103B0000652E0000D1300000303132333435363785
:103B100038394142434445469D2000007120000051
:103B200069200000FFFFFFFFFFFFFFFFFFFFFFFF18
:103B3000FFFFFFFF00000000000000000000D601B2
:103B400006010000CC0300207F0000004C04002090
:103B500054000102030405060708090010000000D4
:103B6000F0080020500400008D2800000040404074
:103B70004040404040404141414141404040404040
:103B800040404040404040404040404040050202EC
:103B900002020202020202020202020202202020AB
:103BA0002020202020202002020202020202909007
:103BB0009090909010101010101010101010101005
:103BC0001010101010101010020202020202888859
:103BD0008888888808080808080808080808080865
:103BE000080808080808080802020202400000004D
:103BF0006D3B0000446174612062757320657272D0
:103C00006F72202872657475726E206164647265CB
:103C1000737320696E2074686520737461636B2010
:103C20006672616D65206973206E6F742072656CB9
:103C30006174656420746F2074686520696E7374A4
:103C400072756374696F6E20746861742063617546
:103C500073656420746865206572726F7229000054
:103C60004461746120627573206572726F722028DE
:103C700050432076616C756520737461636B656475
:103C800020666F722074686520657863657074695A
:103C90006F6E2072657475726E20706F696E7473CA
:103CA00020746F2074686520696E73747275637414
:103CB000696F6E2074686174206361757365642038
:103CC000746865206661756C7429000043617573C2
:103CD000653A204275734661756C74206F6E206181
:103CE00020766563746F72207461626C6520726502
:103CF000616420647572696E6720657863657074AD
:103D0000696F6E2070726F63657373696E672E00E2
:103D10005468652070726F636573736F7220686199
:103D20007320657865637574656420616E20534403
:103D30004956206F72205544495620696E7374723B
:103D4000756374696F6E2077697468206120646997
:103D50007669736F72206F662030000054686520AA
:103D600070726F636573736F722068617320617422
:103D700074656D7074656420746F20657865637513
:103D8000746520616E20696E737472756374696FF7
:103D90006E2074686174206D616B657320696C6C52
:103DA0006567616C20757365206F66207468652097
:103DB00045505352000000005468652070726F63D4
:103DC0006573736F722068617320617474656D70C0
:103DD00074656420616E20696C6C6567616C206C31
:103DE0006F6164206F66204558435F5245545552B9
:103DF0004E20746F207468652050432C206173201E
:103E00006120726573756C74206F6620616E206925
:103E10006E76616C696420636F6E746578742C20B3
:103E20006F7220616E20696E76616C6964204558FE
:103E3000435F52455455524E2076616C75650000C3
:103E40005468652070726F636573736F722061745C
:103E500074656D707465642061206C6F6164206F9F
:103E6000722073746F72652061742061206C6F63BF
:103E70006174696F6E207468617420646F6573206B
:103E80006E6F74207065726D697420746865206F40
:103E90007065726174696F6E0000000041204D65AD
:103EA0006D4D616E616765206661756C74206F632E
:103EB00063757272656420647572696E6720666CE2
:103EC0006F6174696E672D706F696E74206C617AB2
:103ED00079207374617465207072657365727661A0
:103EE00074696F6E00000000412062757320666186
:103EF000756C74206F63637572726564206475728B
:103F0000696E6720666C6F6174696E672D706F698A
:103F10006E74206C617A792073746174652070729C
:103F200065736572766174696F6E00005468652010
:103F300070726F636573736F722068617320617450
:103F400074656D7074656420746F20657865637541
:103F5000746520616E20756E646566696E656420A7
:103F6000696E737472756374696F6E00496E7374F1
:103F700072756374696F6E20627573206572726FFB
:103F8000720000005468652070726F636573736F10
:103F9000722068617320617474656D70746564204B
:103FA000746F20616363657373206120636F707247
:103FB0006F636573736F7200556E737461636B200A
:103FC000666F7220616E20657863657074696F6ECC
:103FD0002072657475726E206861732063617573F9
:103FE0006564206F6E65206F72206D6F7265206151
:103FF00063636573732076696F6C6174696F6E7348
:1040000000000000537461636B696E6720666F7215
:1040100020616E20657863657074696F6E20656ECF
:104020007472792068617320636175736564206FB1
:104030006E65206F72206D6F7265206163636573BA
:10404000732076696F6C6174696F6E730000000095
:104050005468652070726F636573736F7220686156
:1040600073206D61646520616E20756E616C696797
:104070006E6564206D656D6F727920616363657331
:1040800073000000556E737461636B20666F72205D
:10409000616E20657863657074696F6E20726574F7
:1040A00075726E2068617320636175736564206F3B
:1040B0006E65206F72206D6F726520427573466168
:1040C000756C747300000000537461636B696E67F4
:1040D00020666F7220616E20657863657074696F09
:1040E0006E20656E747279206861732063617573E8
:1040F0006564206F6E65206F72206D6F726520425F
:1041000075734661756C7473000000007761726EA0
:10411000696E670064656275670000001B5B313B78
:1041200033306D001B5B306D000000001B5B313BCA
:1041300033316D001B5B313B33326D001B5B313B18
:1041400033336D001B5B313B33346D001B5B313B04
:1041500033356D001B5B313B33366D001B5B313BF0
:1041600033376D00696E666F00000000636C6F632B
:104170006B000000434C4F434B0000004E4643543D
:10418000000000005052530054494D4552000000B9
:104190005541525400000000554152544500000062
:1041A000686172646661756C740000007561727498
:1041B0005F6C6F675F6261636B656E640000000037
:1041C0006170700050420000000000204C010000AF
:1041D000F4030000F04200004C010020C42700005E
:1041E000620C0000183B000000000000AC41000021
:1041F000AC0000206C410000000000007441000091
:10420000000000007C41000000000000844100002C
:104210000000000088410000000000009041000004
:10422000000000009841000000000000A0410000D4
:1042300000000303C041000000000303C000002091
:10424000B8000020C00000200C030020180000006F
:1042500001160613B001400006332C3F73403E3375
:10426000B83F330440B39C3E336C3F33603C33F47F
:104270003B33844033C840B3E83E332C3F335C3D8E
:1042800033B83D0313843F335040C3103D642000D6
:10429000409420004042FF0220FF337C3F330C411A
:1042A000336441331441332441331C41332C4133B3
:1042B0003441333C41334441334C41335441C35C7A
:1042C00041301C90D00304060504080304090205CC
:1042D00007040508030509020305040309022A016E
:1042E000010102020403020AF702010202090200AC
:0400000500000201F4
:00000001FF
