:020000040000FA
:10000000E0330020150300001D0300001F03000063
:10001000210300002303000025030000000000006E
:1000200000000000000000000000000027030000A6
:1000300029030000000000002B0300002D03000036
:100040002F0300002F030000311600002F030000D3
:100050002F030000000000002F030000000000003C
:100060002F0300002F0300002F0300002F030000C8
:100070002F030000D11300002F0300002F03000006
:100080002F0300002F0300002F0300002F030000A8
:100090002F0300002F0300002F0300002F03000098
:1000A0002F0300002F0300002F03000000000000BA
:1000B0000000000000000000000000000000000040
:1000C0000000000000000000000000000000000030
:1000D0000000000000000000000000002F030000EE
:1000E0000000000000000000000000000000000010
:1000F0000000000000000000000000000000000000
:1001000000000000000000000000000000000000EF
:1001100000000000000000000000000000000000DF
:1001200000000000000000000000000000000000CF
:1001300000000000000000000000000000000000BF
:1001400000000000000000000000000000000000AF
:10015000000000000000000000000000000000009F
:10016000000000000000000000000000000000008F
:10017000000000000000000000000000000000007F
:10018000000000000000000000000000000000006F
:10019000000000000000000000000000000000005F
:1001A000000000000000000000000000000000004F
:1001B000000000000000000000000000000000003F
:1001C000000000000000000000000000000000002F
:1001D000000000000000000000000000000000001F
:1001E000000000000000000000000000000000000F
:1001F00000000000000000000000000000000000FF
:10020000DFF80CD000F02AFB0048004791200000E6
:10021000E033002000B583B002900091019244F2D7
:10022000010071466A4601F0CDFA03B000BD00003E
:1002300030B4044654E8000F0D4644E80053002B48
:10024000F8D1156030BC704730B4044654E8000F54
:1002500040EA010544E80053002BF7D1156030BC9B
:10026000704730B4044654E8000F00EA010544E842
:100270000053002BF7D1156030BC704730B40446F2
:1002800054E8000F80EA010544E80053002BF7D141
:10029000156030BC704730B4044654E8000F00EBE2
:1002A000010544E80053002BF7D1156030BC7047BE
:1002B00030B4044654E8000FA0EB010544E80053B5
:1002C000002BF7D1156030BC704770B404464FF076
:1002D000000054E8006F0D68AE4207BF44E80023F9
:1002E000012044E800630E60002B1CBF0020F0E7F3
:1002F00070BC704730B4044654E8000F88422CBFED
:10030000451A054644E80053002BF5D1156030BC72
:10031000704700000648804706480047FEE7FEE7B2
:10032000FEE7FEE7FEE7FEE7FEE7FEE7FEE7FEE7A5
:1003300059140000010200002DE9F04F92E8F00F7F
:100340004FF0020E4FEAB81C8CEAF82C8CEA786C5D
:10035000DC448AEA090303EA080383EA0A039C44AB
:1003600050F8043B9C4451F8043B9C44674444EAE5
:10037000050B0BEA060B04EA05034BEA030BE34407
:100380004FEAB40383EA743383EAB4539B444FEADD
:10039000B71C8CEAF72C8CEA776CD44489EA080302
:1003A00003EA070383EA09039C4450F8043B9C4496
:1003B00051F8043B9C4466444BEA040A0AEA050AE5
:1003C0000BEA04034AEA030AE2444FEABB0383EA66
:1003D0007B3383EABB539A444FEAB61C8CEAF62C73
:1003E0008CEA766CCC4488EA070303EA060383EAC6
:1003F00008039C4450F8043B9C4451F8043B9C4443
:1004000065444AEA0B0909EA04090AEA0B0349EAC6
:100410000309E1444FEABA0383EA7A3383EABA5321
:1004200099444FEAB51C8CEAF52C8CEA756CC444EF
:1004300087EA060303EA050383EA07039C4450F8AE
:10044000043B9C4451F8043B9C44644449EA0A0838
:1004500008EA0B0809EA0A0348EA0308E0444FEAFD
:10046000B90383EA793383EAB95398444FEAB41C59
:100470008CEAF42C8CEA746CBC4486EA050303EA2B
:10048000040383EA06039C4450F8043B9C4451F85F
:10049000043B9C44E34448EA090707EA0A0708EAE0
:1004A000090347EA030767444FEAB80383EA78334E
:1004B00083EAB8531F444FEABB1C8CEAFB2C8CEA3E
:1004C0007B6CB44485EA040303EA0B0383EA050367
:1004D0009C4450F8043B9C4451F8043B9C44E24447
:1004E00047EA080606EA090607EA080346EA030699
:1004F00066444FEAB70383EA773383EAB7531E446F
:100500004FEABA1C8CEAFA2C8CEA7A6CAC4484EA86
:100510000B0303EA0A0383EA04039C4450F8043BF8
:100520009C4451F8043B9C44E14446EA070505EA33
:10053000080506EA070345EA030565444FEAB603E2
:1005400083EA763383EAB6531D444FEAB91C8CEA3A
:10055000F92C8CEA796CA4448BEA0A0303EA0903B8
:1005600083EA0B039C4450F8043B9C4451F8043B41
:100570009C44E04445EA060404EA070405EA06034D
:1005800044EA030464444FEAB50383EA753383EA1B
:10059000B5531C44BEF1010E7FF4D4AE82E8F00FD7
:1005A000BDE8F08F2DE9F04F90E8FC03D0E9091C7D
:1005B000D0E90EAB0A444FEA7A4E8EEAFA4E8EEA42
:1005C0009A2E72444FEAF31E8EEAB34E8EEAD30E91
:1005D000724463444FEA7B4E8EEAFB4E8EEA9B2EBA
:1005E00073444FEAF41E8EEAB44E8EEAD40E73447E
:1005F000D0E90B1A0C444FEA724E8EEAF24E8EEAA4
:10060000922E74444FEAF51E8EEAB54E8EEAD50E50
:10061000744455444FEA734E8EEAF34E8EEA932E9D
:1006200075444FEAF61E8EEAB64E8EEAD60E754433
:10063000D0E90DEA76444FEA744E8EEAF44E8EEA23
:10064000942E76444FEAF71E8EEAB74E8EEAD70E06
:10065000764457444FEA754E8EEAF54E8EEA952E53
:1006600077444FEAF81E8EEAB84E8EEAD80E7744E9
:10067000D8444FEA764E8EEAF64E8EEA962EF04435
:100680004FEAF91E8EEAB94E8EEAD90EF044D0E94F
:1006900008AB91444FEA774E8EEAF74E8EEA972EDA
:1006A000F1444FEAFA1E8EEABA4E8EEADA0EF144AF
:1006B0009A444FEA784E8EEAF84E8EEA982EF2442B
:1006C0004FEAFB1E8EEABB4E8EEADB0EF244A344D9
:1006D0004FEA794E8EEAF94E8EEA992EF3444FEAAC
:1006E000FC1E8EEABC4E8EEADC0EF344AC444FEAAC
:1006F0007A4E8EEAFA4E8EEA9A2EF4444FEAF11EB2
:100700008EEAB14E8EEAD10EF444A0E8FC1FD0E987
:10071000014531444FEA7B4E8EEAFB4E8EEA9B2E1A
:1007200071444FEAF41E8EEAB44E8EEAD40E714440
:100730003C444FEA7C4E8EEAFC4E8EEA9C2E74447A
:100740004FEAF51E8EEAB54E8EEAD50E7444D0E916
:10075000036745444FEA714E8EEAF14E8EEA912EC0
:1007600075444FEAF61E8EEAB64E8EEAD60E7544F2
:100770004E444FEA744E8EEAF44E8EEA942E76443E
:100780004FEAF71E8EEAB74E8EEAD70E76445744EC
:100790004FEA754E8EEAF54E8EEA952E77444FEA73
:1007A000F21E8EEAB24E8EEAD20E7744F2C0BDE857
:1007B000F08F00BF00487047BC7C000010B5441AA1
:1007C0000346944209D28418114403E011F8013D14
:1007D00004F8013D521EF9D210BD40EA0104A407FD
:1007E00003D009E010C9121F10C3042AFAD203E093
:1007F00011F8014B03F8014B521EF9D210BDD2B2D1
:1008000001E000F8012B491EFBD270470022F6E7F9
:1008100010B513460A4604461946FFF7F0FF204676
:1008200010BD421C10F8011B0029FBD1801A704733
:1008300030B504460020034600E05B1C934203D21F
:10084000E05CCD5C401BF8D030BD034611F8012BB5
:1008500000F8012B002AF9D118467047064C074DC5
:1008600006E0E06840F0010394E807009847103480
:10087000AC42F6D3FFF7C8FC608300008083000021
:1008800038B504460D4600F09DFA204600F05EFBA8
:1008900004F1A8012046402200F07EFB29462046B4
:1008A000202200F079FB29462046BDE8384000F0C0
:1008B00089BA00BF402AF8B516460D46044600F234
:1008C0004782002A00F06F82291D04F1680704F1B5
:1008D0006C03AB4288BFB94200F25682062E40F24A
:1008E0005382002E2A6814BF30460120830882F00C
:1008F0003632012BA26600F0A1816A68022B82F0D9
:100900003632E26600F09A81AA68032B82F0363212
:10091000226700F09381EA68042B82F03632626726
:1009200000F08C812A69052B82F03632A26700F034
:1009300085816A69062B82F03632E26700F07E819B
:10094000AA69072B82F03632C4F8802000F0768145
:10095000EA69082B82F03632C4F8842000F06E81F8
:100960002A6A092B82F03632C4F8882000F06681AA
:100970006A6A0A2B82F03632C4F88C2000F05E815D
:10098000AA6A0B2B82F03632C4F8902000F0568110
:10099000EA6A0C2B82F03632C4F8942000F04E81C3
:1009A0002A6B0D2B82F03632C4F8982000F0468175
:1009B0006A6B0E2B82F03632C4F89C2000F03E8128
:1009C000AA6B102B82F03632C4F8A02040F036819A
:1009D000EB6B83F03633C4F8A430002E14BF3346DB
:1009E0000123402B57D05A1C402AC3F13F01C3F1C9
:1009F000400C88BF4FF0010C022940F2478103F1FF
:100A000068024FF03630A118A0504FEA9C02012A2C
:100A100001F1040100F033814FF03630022A086002
:100A200000F02D81032A486000F02981042A8860A3
:100A300000F02581052AC86000F02181062A08619E
:100A400000F01D81072A486100F01981082A886199
:100A500000F01581092AC86100F011810A2A086294
:100A600000F00D810B2A486200F009810C2A88628F
:100A700000F005810D2AC86200F001810E2A08638A
:100A800000F0FD80102A486340F0F9808863002E52
:100A900000F01081291D04F1A80004F1AC02AA4263
:100AA00088BF814206F1FF3300F26181052B40F2DD
:100AB0005E812A68B30882F05C32012BC4F8A8205A
:100AC00000F026816A68022B82F05C32C4F8AC2008
:100AD00000F01E81AA68032B82F05C32C4F8B020BB
:100AE00000F01681EA68042B82F05C32C4F8B4206E
:100AF00000F00E812A69052B82F05C32C4F8B82020
:100B000000F006816A69062B82F05C32C4F8BC20D2
:100B100000F0FE80AA69072B82F05C32C4F8C02086
:100B200000F0F680EA69082B82F05C32C4F8C42039
:100B300000F0EE802A6A092B82F05C32C4F8C820EB
:100B400000F0E6806A6A0A2B82F05C32C4F8CC209E
:100B500000F0DE80AA6A0B2B82F05C32C4F8D02051
:100B600000F0D680EA6A0C2B82F05C32C4F8D42004
:100B700000F0CE802A6B0D2B82F05C32C4F8D820B6
:100B800000F0C6806A6B0E2B82F05C32C4F8DC2069
:100B900000F0BE80AA6B102B82F05C32C4F8E0201B
:100BA00040F0B680EB6B83F05C33C4F8E430402E49
:100BB00000F0A480731C402BC6F13F02C6F1400137
:100BC00088BF0121022A40F2898006F1A8034FF074
:100BD0005C30E218E0508B08012B02F1040277D060
:100BE0004FF05C30022B106072D0032B50606FD03E
:100BF000042B90606CD0052BD06069D0062B10615F
:100C000066D0072B506163D0082B906160D0092B10
:100C1000D0615DD00A2B10625AD00B2B506257D096
:100C20000C2B906254D00D2BD06251D00E2B106340
:100C30004ED0102B50634BD190635FE020F0030344
:100C400080073FF4CAAE15F803C0E0185A1C8CF0B8
:100C5000360C964280F868C07FF6BFAEA85C0233BF
:100C6000224480F036009E4282F868007FF6B5AEDE
:100C7000EA5C234482F0360283F86820ADE6BCEBE0
:100C8000820F03EB82033FF402AF5A1CE1183620B7
:100C9000402A81F868003FF4FAAE991C3E2B2244AA
:100CA00018BF091982F8680018BF81F86800002E83
:100CB0007FF4F0AE4FF05C33C4F8A83004F1AC021E
:100CC00010234FF05C30022B4FF0400110608CD1AC
:100CD000B1EB830F06EB830610D0731CA2195C21C5
:100CE000402B82F8A81009D023443E2E06F10202C0
:100CF00083F8A81002D0224482F8A810204600F001
:100D000025F9394620464022BDE8F84000F044B9B4
:100D1000B20726F003033FF44AAFE85CE1185A1C1F
:100D200080F05C00B24281F8A800BFF440AFA95C3B
:100D30000233224481F05C01B34282F8A810BFF470
:100D400036AFEA5C234482F05C0283F8A8202EE7E9
:100D500000F0FCF832462946204604F1E80500F090
:100D60001BF92946204600F02DF82026ACE5EA18AC
:100D700004F1A701013D15F8013F83F05C03AA428D
:100D800001F8013FF7D112E7681E04F1670C034632
:100D9000023310F8012F5B1B82F036029E420CF8E2
:100DA000012FF4D819E64FF03633836600F16C0159
:100DB00013464FF0400C102200F168072CE600BFEC
:100DC00000F0EAB82DE9F041026E82B0531C0191A7
:100DD00081180446382B4FF08000019D81F82000D7
:100DE0007BD804F12008C3F13A02022AC3F13B0187
:100DF00032D903F120078A080020012AE05104EBD0
:100E0000070624D0022A706021D0032AB0601ED0C9
:100E1000042AF0601BD0052A306118D0062A7061C0
:100E200015D0072AB06112D0082AF0610FD0092A24
:100E300030620CD00A2A706209D00B2AB06206D048
:100E40000C2AF06203D00E2A306308BF706321F0D1
:100E500003028A42134411D0E21800213A2B82F88F
:100E6000201003F1010209D02244392B03F10200C2
:100E700082F8201002D0204480F82010636E580FB2
:100E80005A0D84F85B0084F85C20580B5A09DB008B
:100E900084F85D0084F85F30414684F85E20204687
:100EA00000F0F0F923681BBA2B6063681BBA6B6013
:100EB000A3681BBAAB60E3681BBAEB6023691BBA7B
:100EC0002B6163691BBA6B61A3691BBAAB61E369F0
:100ED0001BBAEB6102B0BDE8F0813F2B2AD8234456
:100EE00000213E2A83F8201002F1020322D023447D
:100EF0003D2A02F1030083F820101BD020443C2A35
:100F000002F1040380F8201014D023443B2A02F19C
:100F1000050083F820100DD020443A2A02F1060380
:100F200080F8201006D02344382A83F8201001D1FD
:100F300084F85F1004F120084146204600F0A2F931
:100F40003A28019003467FF64EAF97E730B40A493E
:100F50000A4C0B4A0B4B0C4D046041600B4C0C4986
:100F600082600C4AC3600023C0E90454C0E9061241
:100F700030BCC0E91833704785AE67BB67E6096AC5
:100F800072F36E3C3AF54FA57F520E518C68059B6B
:100F9000ABD9831F19CDE05B2DE9F843D0E9185395
:100FA00013440746144688464366F5B13F2D00F2C8
:100FB000A980DAB105F12006C5F14009064489444B
:100FC0000B4602E0002C00F084800133A3EB080202
:100FD00013F8011C06F8011B4B4504F1FF342A44A9
:100FE000F0D1402A79D01546C84614B93D66BDE80F
:100FF000F88322464146384600F088F8221A054612
:1010000042440028F2D0231D1B1A434407F120015B
:1010100007F12400824238BF994269D36B1E072B27
:1010200066D913683B6253687B62AB08022B35D0EC
:101030009168B962032B31D0D168F962042B2DD0AD
:1010400011693963052B29D051697963062B25D0A5
:101050009169B963072B21D0D169F963082B1DD0A1
:10106000116A3964092B19D0516A79640A2B15D099
:10107000916AB9640B2B11D0D16AF9640C2B0DD095
:10108000116B39650D2B09D0516B79650E2B05D08D
:10109000916BB9650F2B1CBFD36BFB6525F0030368
:1010A0009D4202EB0300A1D0D45CF9185A1C954272
:1010B00081F820409AD93A440233417882F82010CE
:1010C0009D4293D93B44827883F820203D66BDE859
:1010D000F88315463D66BDE8F88307F120013846E0
:1010E00000F0D0F8C8460546002C3FF47FAF80E7FB
:1010F000444407F11F0312F8011B03F8011FA24229
:10110000F9D173E72A4689466BE700BF2DE9F04F16
:101110009BB03F2A019240F2A880A2F1400605460A
:1011200026F03F060C464036D0E90001D5E90229F9
:10113000D5E9048ED5E906C3A6190096D4F800A017
:101140006768A668D4F828B002900391E068216926
:101150000492CDF814906269D4F81890CDF81880F4
:10116000CDF81CE0D4F81C80D4F820E0CDF820C0E5
:101170000993D4F824C0E36A9EFA8EFE3FBA36BAC9
:1011800000BA09BA12BA99FA89F998FA88F89CFA59
:101190008CFC1BBA9AFA8AFA9BFA8BFBCDE912EC0B
:1011A000CDE90C60CDE90E12CDE91098CDE90AA782
:1011B000CDE914B3D4F830C0676BA66BE36B2D4850
:1011C0009CFA8CFC1BBA02AA0AA93FBA36BACDE92E
:1011D00016C7CDE91863FFF7AFF80AA8FFF7E2F9E1
:1011E00002AA0AA92448FFF7A7F80AA8FFF7DAF924
:1011F00002AA0AA92148FFF79FF80AA8FFF7D2F927
:101200001F4802AA0AA9FFF797F86E68AA68049B0C
:1012100003992F68029831441A44059EEB6869606F
:1012200003EB06092B69069E03EB06086B69EE6962
:101230009C46079B38440CEB030EAF69089B286063
:1012400007EB030C099B3344009E4034B442C5E9CC
:101250000229C5E9048EC5E906C37FF46FAF019B7F
:1012600003F03F001BB0BDE8F08F10461BB0BDE897
:10127000F08F00BF60820000A0820000E0820000CA
:10128000208300002DE9F04180468E68CD680C690E
:1012900048698A69CB69D1F800C04F689AB036BAFC
:1012A0002DBA24BA00BA12BA1BBA0C960D95D8F80A
:1012B0000460D8F808500E940F90D8F80C40D8F875
:1012C000100010921193D8F81420D8F81830039613
:1012D0000495D8F81C60D8F8005009969CFA8CFC4C
:1012E0003FBACDE90AC7CDE90540CDE9072302950C
:1012F000086B8A6B354CD1F820E0D1F824C08F6A96
:10130000CE6A4D6BCB6B00BA11BA9EFA8EFE9CFA78
:101310008CFC1BBA02AA1690189120460AA93FBA63
:1013200036BA2DBA1993CDE912ECCDE9147617959A
:10133000FFF702F80AA8FFF735F902AA0AA904F193
:101340004000FEF7F9FF0AA8FFF72CF902AA0AA944
:1013500004F18000FEF7F0FF0AA8FFF723F902AAC4
:101360000AA904F1C000FEF7E7FFD8E90041D8F868
:101370000C30039F0193029BD8F80860049A059DE6
:10138000D8F8100039441C44C8F80410019B069991
:10139000079FC8F800403244D8F81460D8F81840C5
:1013A000C8F808202B440844089DD8F81C10099A56
:1013B000C8F80C303E44C8E904062C44114400200F
:1013C000C8E906411AB0BDE8F08100BF60820000A4
:1013D000064882B00021016000680090044800685F
:1013E0000449C0B2496802B00847000000D100407B
:1013F00008D500405000002000F048B970B50E46F6
:10140000144900EB400001EBC0051446E86A1835AA
:1014100020B101280FD0022805D113E0284600F0A2
:1014200069F9A04201D2002411E022463146284643
:1014300000F098F90BE0284600F05CF9A042F4D2E5
:101440000446F2E73146284600F05FF9044620469C
:1014500070BD0000540B0020F0B54FF08051684F74
:10146000D1F83001674E421C09D0D1F8344103460F
:10147000012500220D2B07D0102B05D00FE032786C
:101480003B78C2F30314F3E70CB1012C07D14FF002
:101490008043C3F80C21C3F810215B4B1A60431C36
:1014A00007D0D1F8344103460D2B07D0102B05D0BF
:1014B0005DE034783B78C4F30314F5E70CB1012CFC
:1014C00055D1524B1B68524C2360504B1B1D1B685F
:1014D000241D23604D4B08331B68241D23604B4B98
:1014E0000C331B68241D2360484B10331B68241DDC
:1014F0002360464B14331B68241D2360434B183371
:101500001B68434C20342360404B1C331B68241D54
:1015100023603E4B20331B68241D23603B4B243348
:101520001B68241D2360394B28331B68241D23604E
:10153000364B2C331B68241D2360344B30331B681F
:10154000334C40342360314B34331B68241D2360FB
:101550002E4B38331B68241D23602C4B3C331B68F7
:10156000241D2360294B40331B68241D2360431C2A
:1015700006D0D1F834110D2807D0102805D00EE080
:1015800031783878C1F30311F5E709B1012906D1A3
:1015900020480168C90702D06FF0010101604FF0D7
:1015A0001021D1F80002002803DBD1F80402002842
:1015B00021DA194C256019480368002BFCD012234E
:1015C000C1F800320568002DFCD0C1F80432016872
:1015D0000029FCD0226001680029FCD0BFF34F8FA6
:1015E0000F4801680F4A01F4E06111430160BFF345
:1015F0004F8F00BFFDE70D490B480860F0BD0000AC
:10160000E00F00F0E80F00F038050040040400107F
:1016100020C500400004004004E5014000E4014012
:101620000CED00E00400FA050090D003E00000207B
:1016300010B5054C206818B904A1252000F022FA45
:101640002068BDE810400047480000202E2E5C2E88
:101650002E5C2E2E5C2E2E5C2E2E5C2E2E5C2E2EC4
:101660005C6D6F64756C65735C6E7266785C6472D9
:1016700069766572735C7372635C7072735C6E72B0
:1016800066785F7072732E630000000010B5124C14
:1016900002202061606111A0A06104F17800E06186
:1016A0004FF4006020620020A06260620BA1A16480
:1016B000E06204F67801E1641021A065C4E9141029
:1016C000E06509A1E01DFFF7C0F808A12046FFF77B
:1016D000BCF82020A07110BD540B00205465726D21
:1016E000696E616C00000000525454005345474736
:1016F000455200000269C1688A4203D88068401AD6
:10170000104400E0501A401E70472DE9F047C468AD
:101710001746894606464FF000083069A04201D9B5
:10172000051B02E0B168201A0D1AB0686D1E001B7F
:10173000A84200D80546BD4200D33D4670682A46FF
:1017400020444946FFF73AF8B0687F1B2C44A84470
:10175000A944A04200D10024F460002FDDD140460E
:10176000BDE8F0872DE9F04104468846D4E9020738
:10177000C51BE168606816460844B54206D9414673
:10178000FFF71CF8B819E060BDE8F0812A46414631
:10179000FFF714F8761B08EB050132466068FFF787
:1017A0000DF8E660F0E702E008C8121F08C1002A41
:1017B000FAD170477047002001E001C1121F002AD2
:1017C000FBD17047FEB514460E46074672B602F0CE
:1017D000CBFC00BF02F0B4FA0028FBD11D4A1E4921
:1017E0006FF480403B18A2EB01014FF001004FEA7B
:1017F000D10100EB014519D0012B284610D032460B
:1018000016A102F00FFC1B480068C00700D000BE04
:10181000224603B031463846BDE8F04000F058B8E3
:10182000D4E9003214A102F004FCECE7A06802F055
:101830009BFF0346D4E90001CDE90010029628463B
:1018400014A1A26802F0FDFB28461CA102F0E6FBF1
:10185000D9E70000D8830000A8830000554E4B4E06
:101860004F574E204641554C542061742030782506
:1018700030385800F0ED00E0415353455254494F81
:101880004E204641494C45442061742025733A2539
:10189000750000004552524F52202575205B25737C
:1018A0005D2061742025733A25750D0A504320612F
:1018B000743A20307825303878000000456E642076
:1018C0006F66206572726F72207265706F7274003D
:1018D00008B501238DF800309DF80030144B1860D6
:1018E00059609A606FF48041401807D001280FD1E9
:1018F000DA60D86800689861D86807E01A611869EA
:101900008068586118690068986118694068D861F2
:10191000186858689868D868186958699869D869C3
:1019200072B600BF9DF800000028FBD162B608BD6A
:101930003C05002010B503F045FC012803D0044904
:101940001D2000F09FF8BDE8104000F013B8000023
:10195000C07C000010B503F035FC012803D0044919
:101960002B2000F08FF8BDE8104000F00BB800000D
:10197000C07C000072B602480168491C01607047D3
:101980005800002003490868401E086000D162B674
:10199000704700005800002070B5054608680C46E6
:1019A000411C04D002F0AAF8206802F013F8606825
:1019B000411C02D0002101F0FBFF2968A069C1F899
:1019C0002405607D227D29681043C1F86C05D4E9A7
:1019D00000122868C0F81425C0F80C15207D0128D5
:1019E00014D1A068411C02D0002101F0E1FFE068A1
:1019F000411C04D002F082F8E06801F0EBFFD4E96A
:101A000002122868C0F80825C0F8101570BD70B51E
:101A1000054608680C46411C04D002F079F820689D
:101A200001F0E2FF6068411C02D0002101F0C9FF13
:101A30002968A069C1F82405607D217D2A680843D2
:101A4000C2F86C05D4E900122868C0F80C15C0F87B
:101A50001425207D012814D1A068411C02D000214A
:101A600001F0AFFFE068411C04D002F051F8E068DB
:101A700001F0BAFFD4E902122868C0F80825C0F8BE
:101A8000101570BD1CB56A46CDE90001002144F275
:101A90000200FFF797FE1CBD2DE9F04FADF53F7D2D
:101AA00014460E468346B2F5C07F05D96FF0370065
:101AB0000DF53F7DBDE8F08F4FF4D0716846FEF71D
:101AC000A5FE68A800F0A5FB200E8DF81000200CE4
:101AD0008DF81100200A8DF8120020208DF81700D3
:101AE00006AD8DF81340224631462846FEF766FEC5
:101AF0008020285504F119080020BAA90854401C78
:101B00001028FBDB802268A800F088FB070051D179
:101B10000025AA466E46CDF8B8A2CDF8BCA2CDF8F5
:101B2000C0A244460DF52E79CDF8C4A217E00020DE
:101B30004946335C0A5C5A400A54401C1028F8DBC2
:101B40001036102C01D3102000E02046241AAEAB32
:101B50001A46012168A800F049FB07002AD1002C91
:101B6000E5D1B2A828441022AEA9FEF727FE9DF8C1
:101B700003001035401C8DF80300202DCADB8022A5
:101B8000B2A968A800F04AFB070013D1B6AE5C46C4
:101B9000002533461A46012168A800F027FB0700FC
:101BA00008D1102231462046FEF708FE10341035C9
:101BB000202DEEDB68A800F025FB4FF4D0716846BD
:101BC00001F02CF92021B2A801F028F91021BAA8BF
:101BD00001F024F91021AEA801F020F91FB1202155
:101BE000584601F01BF9384662E700002DE9F0473E
:101BF0000546861C91460F464FF0010A0020FFF76C
:101C000099FE1B4C04F21C4860683860D4E901015D
:101C1000184F401A3968081A0EE00121404601F0B9
:101C200097F900F0DBF90146404601F091F9D4E95B
:101C30000101401A3968081A401C8642EDD8B9F1F2
:101C4000000F03D0052065F3891002E0062065F33C
:101C50009F5061683A68114004EB8101C860606878
:101C6000304460600020FFF775FE5046BDE8F08705
:101C7000340700208800002070B50D4604460A296C
:101C800002D10D21FFF7F8FFA0682268411CA16076
:101C90001554D4E90101814204D32046BDE87040C7
:101CA00001F0EABC70BD00000448816840688142D0
:101CB00001D1012070470020704700003407002048
:101CC00002681368526831B19A4202D38068801A60
:101CD00007E0981A70479A4201D3D01A704780687B
:101CE000C01A401C70472DE9F04389B0884604466D
:101CF0006E4620213046FEF789FD002504F12009BB
:101D00001020211811F8012D521C12F0FF020A7048
:101D100002D1401E0028F4DC334622460121484609
:101D200000F064FA070017D110351036202DE7DBDC
:101D3000694618F800200B5C53400B54401C2028C7
:101D4000F7DB8022484600F069FA070004D104ADB1
:101D500095E80F0084E80F002021684601F05EF846
:101D600009B03846BDE8F08310B50021024801F003
:101D7000FAF880F3100010BD500B002010B5084693
:101D8000114601F037FB002010BD00002DE9FC5F7B
:101D90000E008346DDE90C47C6F1000098469246E6
:101DA000814600D40846012503E000BF90FBFAF00D
:101DB0006D1C5045FADAA84500D9454624B1002EDD
:101DC00001DB780700D5641EB80702D5B8F1000F13
:101DD0000AD0F80708D13CB1A54205D220215846C7
:101DE000641EFFF749FFF6E7002E02DA4E462D216A
:101DF00002E0780703D52B215846FFF73DFF07F097
:101E0000030002280BD1B8F1000F08D13CB1A54264
:101E100005D230215846641EFFF72EFFF6E7CDE9C4
:101E20000047434652463146584603F0B1FCBDE8F0
:101E3000FC9F000070B50E46054600684FF48E7199
:101E400002F0A1FC4FF4A271286802F09CFC286803
:101E50001549C0F804132868082E40F3073403D34B
:101E600012A14520FFF70EFE7007000E002C04DBC8
:101E700004F1E02484F8000405E004F00F0101F10E
:101E8000E02181F8140D286840F30730002809DBB1
:101E900000F01F02012191404009800000F1E02084
:101EA000C0F8001170BD0000800002002E2E5C2ED4
:101EB0002E5C2E2E5C2E2E5C2E2E5C2E2E5C2E2E5C
:101EC0005C696E746567726174696F6E5C6E726670
:101ED000785C6E7266785F676C75652E68000000CE
:101EE00070B50E46044600684FF4887102F05CFC41
:101EF0004FF49071206802F057FC4FF49271206803
:101F000002F052FC4FF4A271206802F04DFC4FF435
:101F1000AC71206802F048FC20681549C0F8041331
:101F20002068082E40F3073503D312A14520FFF7A0
:101F3000A9FD7007000E002D04DB05F1E02585F8F2
:101F4000000405E005F00F0101F1E02181F8140D16
:101F5000206840F30730002809DB00F01F02012150
:101F600091404009800000F1E020C0F8001170BDF0
:101F7000100342002E2E5C2E2E5C2E2E5C2E2E5C2C
:101F80002E2E5C2E2E5C2E2E5C696E74656772613F
:101F900074696F6E5C6E7266785C6E7266785F678D
:101FA0006C75652E68000000024600201268530719
:101FB00013D502F00300012802D002280CD105E05D
:101FC000C2F383100B68801C184404E002230868E5
:101FD00003EB925210440860012070472DE9FF4145
:101FE0000026274800F0B1FF2548001F074600F0F3
:101FF000ACFF244C2449A06800900D6800E00098D4
:102000006946284004EB80000C30FFF7CDFF002824
:10201000F5D101AA009901EA050304EB8303491CE9
:10202000DB6842F82030401C00910228F2D301986E
:1020300000F0030001281AD002280ED013494FF4F3
:10204000AF70FFF71FFD384600F07CFF08B1009825
:10205000A06004B03046BDE8F0810198032101EB97
:1020600090500099BDF80A6001EB900005E00198DE
:10207000BDF80A60C0F3831008440090E3E7000055
:102080004C0B0020340700208800002060810000F5
:1020900008B5202000210090084602F039F818B158
:1020A0002CA22621FEF7B6F801F022FE01F0D2F8AC
:1020B00018B128A23321FEF7ADF82A482A49401A60
:1020C000C508032000EB0540044628A101F0A6FF47
:1020D00003232C4A2C492D4801F07CF818B11DA28D
:1020E0003C21FEF797F827490722C91C274801F031
:1020F00099F818B117A24021FEF78CF823496A46D7
:102100002039224801F04AF818B112A24421FEF702
:1021100081F820461EA1009A01F084FF00981B4917
:1021200082B22046203901F025FF164917480A31AE
:102130002038009AFEF77CFB30B1012000EB05400F
:102140001BA101F06BFFFEE720461FA101F066FF17
:10215000FEE700002E2E5C2E2E5C2E2E5C6D61693B
:102160006E2E6300D8830000A8830000484D4143D1
:10217000206578616D706C6520737461727465643C
:102180002E0000000000002064580000080100201C
:1021900043616C63756C6174656420484D414320F4
:1021A000286C656E6774682025753A290000000068
:1021B000484D4143206578616D706C6520666169AA
:1021C0006C65642121210000484D41432065786100
:1021D0006D706C65206578656375746564207375D2
:1021E000636365737366756C6C792E0030B4144646
:1021F00001291A46214602D030BC00F05BB930BC40
:1022000000F0B2BB002803D04FF48C7100F006BE82
:1022100070474FF48C71FEF7F9BA0000F0B5802AD0
:1022200007D0C02A07D0B2F5807F0BD06FF01F0017
:10223000F0BD0A2300E00C23036000F10803002432
:1022400043600AE00E23F7E701EB8405EE782D6882
:1022500066F31F6543F82450641CB4EB521FF3D39C
:10226000544A0168A2F508500A2904D00C292BD041
:102270000E2928D156E0002453F80C5B52F82410A4
:102280004D4002CBC1F30726C1F30747865DC75D0A
:1022900086EA0726754000EB1166367885EA064522
:1022A00050FA81F63678641C85EA06651D6053F89D
:1022B0000C6C6E405E6053F8085C75406940C3E981
:1022C00002510A2CD8D373E05FF000041D6852F865
:1022D00024104D405969C1F30726C1F30747865DB5
:1022E000C75D86EA0726754000EB1166367885EAF9
:1022F000064550FA81F63678641C85EA06659D61CC
:102300005E686E40DE619D6875401D62DE686E40ED
:102310005E621D6975406940C3E90A511833082C93
:10232000D4D345E05FF000051C6852F825104C40FE
:10233000D969C1F30726C1F30747865DC75D86EA01
:102340000726744000EB1166367884EA064450FA9A
:1023500081F6367884EA06661E625C6874405C62C8
:102360009E6866409E62DC687440DC6250FA84F7C6
:102370003F781E69C4F3074C7E40C4F3072710F86A
:102380000CC0C75D00EB14643F0287EA0C47247859
:102390007E4086EA04641C635E696D1C66405E6371
:1023A0009C6974406140C3E90E412033072DBBD3C3
:1023B0000020F0BD107C000010B504000AD004F12C
:1023C0002000FFF71FFF2046BDE810404FF4A0712A
:1023D00000F024BD10BD4FF4A071FEF717BA2DE92F
:1023E000F041044685694FF4C070E0B016460F46D0
:1023F000854203D8C5F5C071B14204D26FF03700F1
:1024000060B0BDE8F081804601466846FEF7FEF9FF
:10241000D4E94E302A466946984710B16FF0330030
:10242000EEE7A5693FB136B10DEB050032463946FE
:10243000FEF7C4F9354469462A460846FFF72CFBE7
:10244000050007D169462046FFF74DFC050001D184
:10245000012020614146684600F0E0FC2846CFE7B5
:102460002DE9FF4704460020DDF830800090019000
:102470000290039004F120001F4616460D46814647
:10248000FFF7C7FEC4E94E56A06908B92020A06135
:102490004FF6F070E061802269464846FFF7BEFEC5
:1024A000002804D1424639462046FFF798FF04B081
:1024B000BDE8F087F0B589B043680093CC780B682D
:1024C00064F31F63009C019324685C40009B0194AB
:1024D0001B1D0093CC794B6864F31F63009C02932F
:1024E00024685C40009B02941B1D0093CC7A8B688F
:1024F00064F31F63009C039324685C40009B039477
:102500001B1D0093CB7BC96863F31F61009B049183
:102510001B684B4000990493091D009100684FF01F
:10252000FF3101EB6005FE4800F5806100F50064B5
:1025300000F5406EE7E01E68019B039FDBB2C7F326
:10254000074750F8233054F827705E40049BDDF8AD
:1025500010C0C3F30723CCF3074C51F823307B4062
:102560005E40029B1F0E73465EF827707E40059604
:10257000009E029F361D0096FFB2366850F8277005
:1025800054F82CC07E40019FC7F3072751F82770ED
:1025900087EA0C077E40039F3F0E53F827707E406A
:1025A0000696009E039F361D0096FFB2366850F8CF
:1025B0002770DDF804C07E40029FCCF3074CC7F3C0
:1025C000072754F82CC051F8277087EA0C077E4083
:1025D000049F3F0E53F827707E400796009E049F8D
:1025E000361D0096FFB2366850F82770DDF808C037
:1025F0007E40039FCCF3074CC7F3072754F82CC049
:1026000051F8277087EA0C077E40019FDDF81CC057
:102610003F0ECCF3074C53F827707E400896009E7F
:10262000361D0096059F3668FFB254F82CC050F84E
:1026300027707E40089FC7F3072751F8277087EA65
:102640000C077E40069FDDF820C03F0ECCF3074C00
:1026500053F827707E400196009E069F361D009617
:10266000FFB2366850F8277054F82CC07E40059FA2
:10267000C7F3072751F8277087EA0C077E40079FAA
:102680003F0E53F827707E400296009E079F361D2E
:102690000096FFB2366850F82770DDF814C07E400F
:1026A000069FCCF3074CC7F3072754F82CC051F80A
:1026B000277087EA0C077E40089F3F0E53F827706B
:1026C0007E400396009E089F361D00963668FFB236
:1026D000DDF818C050F82770CCF3074C7E40079FF8
:1026E00054F82CC0C7F3072751F8277087EA0C0766
:1026F0007E40059F3F0E5EF827305E40009B0496AB
:102700001B1D6D1E0093009B002D3FF714AF019D14
:102710001B68EDB2039E50F82550C6F307466B4088
:10272000049D54F82660C5F3072551F825507540DF
:102730006B40029D049E2D0EC6F307465EF82550A1
:102740006B400593009B029D1B1D0093EDB21B681F
:1027500050F8255054F826606B40019DC5F30725BD
:1027600051F8255075406B40039D2D0E5EF82550A5
:102770006B400693009B039D1B1D0093EDB21B68ED
:1027800050F82550019E6B40029DC6F30746C5F3E5
:10279000072554F8266051F8255075406B40049D7C
:1027A0002D0E5EF825506B400793009B049D1B1D6A
:1027B0000093EDB21B6850F8250043400398C0F326
:1027C000072051F820000299C1F3074154F8211065
:1027D000484043400198000E5EF8200043400098B6
:1027E0000893001D009001684E48059B50FA83F342
:1027F0001B78079C5940089BC4F30744C3F3072385
:10280000045DC35C1B0283EA04435940069B00EB52
:1028100013631B7881EA036101910099069B091DEE
:102820000091096850FA83F31B78089C5940059B76
:10283000C4F30744C3F30723045DC35C1B0283EAAC
:1028400004435940079B00EB13631B7881EA036143
:1028500002910099079B091D0091096850FA83F3C2
:102860001B78059C5940069BC4F30744C3F3072318
:10287000045DC35C1B0283EA04435940089B00EBE0
:1028800013631B7881EA036103910099089B091D7A
:102890000091096850FA83F31B78069C5940079B06
:1028A000C4F30744C3F30723045DC35C1B0283EA3C
:1028B00004435940059B00EB1360007881EA0060F7
:1028C00004900098001D0090019810700198000A73
:1028D00050700198000C90700198000ED070029812
:1028E0001071010A5171010C9171000ED0710398A1
:1028F0001072010A5172010C9172000ED07204988C
:102900001073010A5173010C9173000ED0730421EE
:1029100001A800F083FA042102A800F07FFA03E086
:10292000106C0000106B0000042103A800F076FA80
:10293000042104A800F072FA042105A800F06EFA40
:10294000042106A800F06AFA042107A800F066FA3C
:10295000042108A800F062FA0421684600F05EFA3B
:1029600009B00020F0BD0000F0B589B043680093C5
:10297000CC780B6864F31F63009C019324685C406F
:10298000009B01941B1D0093CC794B6864F31F637B
:10299000009C029324685C40009B02941B1D0093E2
:1029A000CC7A8B6864F31F63009C039324685C40BB
:1029B000009B03941B1D0093CB7BC96863F31F61CD
:1029C000009B04911B684B4000990493091D0091E2
:1029D00000684FF0FF3101EB6005FE4800F58061B3
:1029E00000F5006400F5406EE7E01E68019B039F60
:1029F000DBB2C7F3074750F8233054F827705E4026
:102A0000029BDDF810C0C3F30723CCF3074C51F849
:102A100023307B405E40049B1F0E73465EF8277098
:102A20007E400596009E029F361D0096FFB23668D6
:102A300050F8277054F82CC07E40039FC7F3072737
:102A400051F8277087EA0C077E40019F3F0E53F82C
:102A500027707E400696009E039F361D0096FFB2AB
:102A6000366850F82770DDF804C07E40049FCCF330
:102A7000074CC7F3072754F82CC051F8277087EA92
:102A80000C077E40029F3F0E53F827707E4007964A
:102A9000009E049F361D0096FFB2366850F82770DE
:102AA000DDF808C07E40019FCCF3074CC7F3072731
:102AB00054F82CC051F8277087EA0C077E40039F1A
:102AC000DDF81CC03F0ECCF3074C53F827707E4056
:102AD0000896009E361D0096059F3668FFB254F892
:102AE0002CC050F827707E40069FC7F3072751F887
:102AF000277087EA0C077E40089FDDF820C03F0E54
:102B0000CCF3074C53F827707E400196009E069F39
:102B1000361D0096FFB2366850F8277054F82CC066
:102B20007E40079FC7F3072751F8277087EA0C07F5
:102B30007E40059F3F0E53F827707E400296009E10
:102B4000079F361D0096FFB2366850F82770DDF8F3
:102B500014C07E40089FCCF3074CC7F3072754F8F6
:102B60002CC051F8277087EA0C077E40069F3F0E65
:102B700053F827707E400396009E089F361D0096EE
:102B80003668FFB2DDF818C050F82770CCF3074C58
:102B90007E40059F54F82CC0C7F3072751F82770D3
:102BA00087EA0C077E40079F3F0E5EF827305E40A5
:102BB000009B04961B1D6D1E0093009B002D3FF78C
:102BC00014AF019D1B68EDB2039E50F82550C6F36B
:102BD00007466B40029D54F82660C5F3072551F85F
:102BE000255075406B40049D049E2D0EC6F307468C
:102BF0005EF825506B400593009B029D1B1D0093C2
:102C0000EDB21B6850F8255054F826606B40039DC8
:102C1000C5F3072551F8255075406B40019D2D0ED9
:102C20005EF825506B400693009B039D1B1D00938F
:102C3000EDB21B6850F82550019E6B40049DC6F311
:102C40000746C5F3072554F8266051F8255075400E
:102C50006B40029D2D0E5EF825506B400793009B44
:102C6000049D1B1D0093EDB21B6850F825004340E6
:102C70000198C0F3072051F820000299C1F30741E1
:102C800054F82110484043400398000E5EF820009D
:102C9000434000980893001D009001684E48059B32
:102CA00050FA83F31B78079C5940069BC4F30744F2
:102CB000C3F30723045DC35C1B0283EA044359404A
:102CC000089B00EB13631B7881EA03610191009973
:102CD000069B091D0091096850FA83F31B78089C34
:102CE0005940079BC4F30744C3F30723045DC35C47
:102CF0001B0283EA04435940059B00EB13631B78D6
:102D000081EA036102910099079B091D00910968FE
:102D100050FA83F31B78059C5940089BC4F3074481
:102D2000C3F30723045DC35C1B0283EA04435940D9
:102D3000069B00EB13631B7881EA03610391009902
:102D4000089B091D0091096850FA83F31B78069CC3
:102D50005940059BC4F30744C3F30723045DC35CD8
:102D60001B0283EA04435940079B00EB1360007881
:102D700081EA006004900098001D00900198107096
:102D80000198000A50700198000C90700198000E94
:102D9000D07002981071010A5171010C9171000EEE
:102DA000D07103981072010A5172010C9172000ED9
:102DB000D07204981073010A5173010C9173000EC4
:102DC000D073042101A800F029F8042102A800F022
:102DD00025F803E0105B0000105A0000042103A84E
:102DE00000F01CF8042104A800F018F8042105A83C
:102DF00000F014F8042106A800F010F8042107A838
:102E000000F00CF8042108A800F008F80421684636
:102E100000F004F809B00020F0BD0000002904D043
:102E2000024B0A4600211B6818477047DC0000204F
:102E30002DE9F05F1E46DDF828B091468A46040071
:102E400003D124A19020FEF71DFEB4F8068060791E
:102E500008FB00F8A8F10408464503D31DA19E20F5
:102E6000FEF710FEE788301DB0FBF7F1B0FBF7F27C
:102E700007FB1200D9F80050AA19424501D9A8EB66
:102E80000605C9F8005001E02468491E0029FBD15D
:102E90003E1A8846AE4215D817E000BF2044001DF8
:102EA0000AEB0803BBF1000F324602D00146184678
:102EB00000E01946FDF782FC00202468AD1BB044F9
:102EC000AF4201D92E4600E03E46002DE6D1BDE8D6
:102ED000F09F00002E2E5C2E2E5C2E2E5C2E2E5C83
:102EE0002E2E5C2E2E5C2E2E5C636F6D706F6E65C9
:102EF0006E74735C6C69627261726965735C6D6536
:102F00006D6F626A5C6E72665F6D656D6F626A2E70
:102F10006300000030B5024651B101F00DF9002107
:102F2000074C08E034F821301568AB4202D111603B
:102F3000002030BD491C8142F4D3052030BD000083
:102F400000000000002100F009B8012100F010B8D5
:102F500008B56A46FDF79FF9009808BD08B56A46AE
:102F6000FDF77FF908BD08B56A46FDF761F908BDB0
:102F700008B56A46FDF768F9009808BD08B56A46C5
:102F8000FDF796F9009808BD70B5040003D113A1B0
:102F9000FE20FEF777FD00252846FEF7CBFC2068D3
:102FA00062680168914214D9491E01600D781CB90C
:102FB0001AA1C220FEF766FD208AE16805FB001514
:102FC0002068217A0278891A0279C9B28A4200D22D
:102FD00001710020FEF7BEFC284670BD2E2E5C2E2F
:102FE0002E5C2E2E5C2E2E5C2E2E5C2E2E5C2E2E1B
:102FF0005C636F6D706F6E656E74735C6C6962722A
:1030000061726965735C62616C6C6F635C6E726641
:103010005F62616C6C6F632E630000002E2E5C2E6D
:103020002E5C2E2E5C2E2E5C2E2E5C2E2E5C2E2EDA
:103030005C636F6D706F6E656E74735C6C696272E9
:1030400061726965735C62616C6C6F635C6E726601
:103050005F62616C6C6F632E6300000070B50C469C
:10306000050004D110A140F22110FEF70BFD24B998
:103070000DA14FF49170FEF705FD0020FEF75AFCFC
:103080001DB91949CF20FEF7FDFCE8682A68211A0E
:10309000288AB1FBF0F11068431C13600170BDE891
:1030A00070400020FEF756BC2E2E5C2E2E5C2E2E7D
:1030B0005C2E2E5C2E2E5C2E2E5C2E2E5C636F6D95
:1030C000706F6E656E74735C6C6962726172696553
:1030D000735C62616C6C6F635C6E72665F62616C84
:1030E0006C6F632E630000001C30000010B50400FC
:1030F00002D0206830B901E00E2010BD17A1D92000
:10310000FEF7C0FC606818B914A1DA20FEF7BAFC1B
:10311000A06818B911A1DB20FEF7B4FCE06818B96B
:103120000EA1DC20FEF7AEFC208A18B90BA1DD2031
:10313000FEF7A8FC207A61682268401AC0B21160CC
:1031400004E0226811684B1C13600870401EC0B276
:10315000F7D221680020087110BD00002E2E5C2ED1
:103160002E5C2E2E5C2E2E5C2E2E5C2E2E5C2E2E99
:103170005C636F6D706F6E656E74735C6C696272A8
:1031800061726965735C62616C6C6F635C6E7266C0
:103190005F62616C6C6F632E6300000070B5154652
:1031A0000E46044602F04EFB002807D13EB160688F
:1031B0002968C268914205D248F2145070BD48F2A5
:1031C000135070BD83682A4631462046BDE87040E2
:1031D000184700002DE9F0411E4617460D460446EB
:1031E00000F058F898B1ACB148F21050002D0CD056
:1031F000002F0AD08EB165602B68204632463946D2
:103200009847002801D106492160BDE8F0814FF4BC
:103210000540FAE748F20150F7E748F21150F4E7A9
:1032200011BADEBA70B515460E46044602F00AFB26
:1032300000280BD146B155B160682A463146436833
:103240002046BDE87040184748F2105070BD48F263
:10325000115070BD2DE9F0410B480C4D0C4F401B37
:10326000C60801203870002406E000BF55F834007D
:103270008047002805D1641CB442F7D3022038707F
:103280000020BDE8F08100008883000080830000FA
:103290002A00002003480078022801D0002070474F
:1032A000012070472A00002005480178022904D037
:1032B0000078012801D000207047012070470000ED
:1032C0002A00002038B5041D002000F0CFF80028A7
:1032D0000ED12046FFF77FF80020034602460090FB
:1032E00004492046FFF7BCF8BDE8384001F0C2BFF2
:1032F00038BD00007D1D000010B5001DFFF75CF813
:1033000000F010F9002010BD2DE9F0416C460D468B
:10331000074601F003FA70B11B481C49401AC00867
:10332000012101EB00401AA100F078FEA54648F209
:103330001950BDE8F081FFF7B7FF48B11B4A1C4E9A
:10334000106848B15068B04206D10020A546F0E7A9
:103350004FF40540A546ECE748F21750002FA5466C
:10336000E7D1002DA546E4D1104912480831154691
:103370001060FFF7A7FF0028A546DAD16E602A6823
:103380000D491160A546D4E7D8830000A88300004A
:10339000537461636B206F766572666C6F7720641F
:1033A000657465637465642E000000002C000020C5
:1033B0006572E54B580300206169614D0A4930B4DC
:1033C0000A4B486848F20252984204D10868084CF7
:1033D0000368A34202D030BC10467047002202604E
:1033E0004A6030BCFFF788BF2C0000206572E54BB7
:1033F0006169614D70B506460C480C46007801289D
:1034000011D00BA1BA20FEF73DFB0CE0402C01D2FD
:10341000254600E04025E9B2304600F045F8002896
:10342000F9D1641B2E44002CF0D170BD380000206F
:103430002E2E5C2E2E5C2E2E5C2E2E5C2E2E5C2EC6
:103440002E5C2E2E5C696E746567726174696F6E96
:103450005C6E7266785C6C65676163795C6E7266DF
:103460005F6472765F726E672E63000070B50B4CFE
:10347000217809B1852070BD00B909480949008843
:10348000A4F80100601C01F01DFA0500F3D101F061
:103490008FFA01202070284670BD000038000020FF
:1034A0007C580000A548000070B50C460C49054644
:1034B0000978012903D00BA19120FEF7E3FA2246F7
:1034C0002946174801F06CF8044601F071FA2CB156
:1034D000052C03D003A1AB20FEF7D4FA204670BD23
:1034E000380000202E2E5C2E2E5C2E2E5C2E2E5CA4
:1034F0002E2E5C2E2E5C2E2E5C696E7465677261BA
:1035000074696F6E5C6E7266785C6C656761637916
:103510005C6E72665F6472765F726E672E63000027
:10352000F483000010B5094C2078012803D008A1CD
:103530006A20FEF7A7FA01F073FA01F0A3FA134824
:1035400001F078F80020207010BD00003800002045
:103550002E2E5C2E2E5C2E2E5C2E2E5C2E2E5C2EA5
:103560002E5C2E2E5C696E746567726174696F6E75
:103570005C6E7266785C6C65676163795C6E7266BE
:103580005F6472765F726E672E630000F4830000E2
:10359000F0B505460478154889B0164640F8242051
:1035A000124A0869121DA2F1080742F82400487F58
:1035B000385520226846FDF701F904942878385CD4
:1035C00048B10EB10A4A00E000226946281D01F008
:1035D000F9FB09B0F0BD0EB1064A00E000226946D1
:1035E00005F10C0001F094FAF3E700004000002020
:1035F0004D5600008D5400000FB438B5040003D1BF
:1036000010A11C20FEF73EFA606918B90DA11D201B
:10361000FEF738FA206818B90AA11E20FEF732FA20
:10362000606818B907A11F20FEF72CFA0599002938
:1036300005D006A800906A46204600F049F838BC3C
:103640005DF814FB2E2E5C2E2E5C2E2E5C2E2E5C36
:103650002E2E5C2E2E5C2E2E5C65787465726E614B
:103660006C5C667072696E74665C6E72665F6670C2
:1036700072696E74662E630010B5040003D107A151
:103680000B20FEF7FFF9A268002A05D0D4E9040355
:10369000216898470020A06010BD00002E2E5C2EEF
:1036A0002E5C2E2E5C2E2E5C2E2E5C2E2E5C2E2E54
:1036B0005C65787465726E616C5C667072696E745C
:1036C000665C6E72665F667072696E74662E630009
:1036D0002DE9FC4791460C465FEA000804D183A11E
:1036E00040F25220FEF7CEF9D8F8140020B97FA19D
:1036F0004FF41570FEF7C6F9D8F8000020B97BA189
:1037000040F25520FEF7BEF9D8F8040020B977A1A1
:1037100040F25620FEF7B6F9002C76D014F8011BC3
:1037200039B125290ED04046FEF7A6FA20780028A8
:10373000F4D198F80C00002867D04046BDE8FC475B
:10374000FFF79ABF0020012221782B291BD02D29B9
:1037500002D0302908D102E040F0010001E040F041
:103760000200641C002AEFD100252A290ED02178FE
:10377000A1F130020A2A11D205EB850201EB4205C4
:10378000641C303DF1E740F00400EAE7D9F800108E
:103790000B1DC9F800300968641C0D442178002312
:1037A0002E290BD114F8011FA1F130020A2A05D2EB
:1037B00003EB830201EB4203303BF3E76C290DD0AE
:1037C00068290BD0692921D00BDC252918D058296C
:1037D00031D063290ED0642915D117E014F8011FE8
:1037E000ECE7702969D0732932D075291BD078296C
:1037F00009D120E0D9F80000011DC9F800100178B6
:103800004046FEF739FA641C90E76CE0D9F80010E6
:103810000A1DC9F800200968CDE900500A22404677
:10382000FEF7B4FAEFE7D9F800100A1DC9F8002036
:1038300009680A2206E0D9F800100A1DC9F800201C
:1038400009681022CDE90050404601F0A1FFDAE7F7
:10385000D9F8001000270A1DC9F800200E68C0071B
:1038600005D112E04046761C7F1CFEF705FA317840
:103870000029F7D104E0202140466D1EFEF7FCF937
:10388000BD42C0D9002DF6D1BDE74EB13046FCF7A0
:10389000C8FF074604E0202140466D1EFEF7ECF904
:1038A000BD4206D9002DF6D103E04046761CFEF756
:1038B000E3F931780029F8D1A5E7D9F80000011D16
:1038C000C9F80010056830214046FEF7D5F9782187
:1038D0004046FEF7D1F908200021CDE9000103465A
:1038E00010222946B0E7BDE8FC8700002E2E5C2E92
:1038F0002E5C2E2E5C2E2E5C2E2E5C2E2E5C2E2E02
:103900005C65787465726E616C5C667072696E7409
:10391000665C6E72665F667072696E74665F666F13
:10392000726D61742E6300002DE9FF411C46DDE9D4
:103930000A7815460E46684600F060F846EA4501EA
:1039400041EA840141EA072242EA0841009A00EB79
:103950008200C0F80017BDE8FF812DE9FF411C4639
:10396000DDE90A7815460E46684600F087F846EA13
:10397000450141EA840141EA072242EA0841009AEE
:1039800000EB8200C0F80017BDE8FF811CB50021E4
:1039900000910B4601220191FFF7C6FF1CBD1CB52B
:1039A000002100910B4601220191FFF7D6FF1CBDBB
:1039B0001CB500220B46009211460192FFF7B4FF9E
:1039C0001CBD1CB500220B46009211460192FFF768
:1039D000C4FF1CBD1CB5002100910B4601220191C2
:1039E0001146FFF7A1FF1CBD1CB5002100910B463D
:1039F000012201911146FFF7B0FF1CBD10B502680E
:103A00004FF0000053094FF0010108D10B07D3E933
:103A10004C03102800D17BB10848094B184302F031
:103A20001F029140014204D106A14FF4E370FEF75A
:103A300029F84FF0A04010BD0F48EEE7FFC1177006
:103A4000003800032E2E5C2E2E5C2E2E5C2E2E5C5B
:103A50002E2E5C2E2E5C2E2E5C6D6F64756C657345
:103A60005C6E7266785C68616C2F6E72665F677000
:103A7000696F2E68000000003F8E16F010B50268D6
:103A80004FF0000053094FF0010108D10B07D3E9B3
:103A90004C03102800D17BB10848094B184302F0B1
:103AA0001F029140014204D106A14FF4E370FDF7DB
:103AB000E9FF4FF0A04010BD0F48EEE7FFC11770BF
:103AC000003800032E2E5C2E2E5C2E2E5C2E2E5CDB
:103AD0002E2E5C2E2E5C2E2E5C6D6F64756C6573C5
:103AE0005C6E7266785C68616C2F6E72665F677080
:103AF000696F2E68000000003F8E16F001B5684621
:103B0000FFF77CFF009A01219140C0F8081508BD1D
:103B100001B56846FFF7B2FF009A01219140C0F855
:103B2000081508BD00210846FFF7EEBBFFF746BCAD
:103B300030B5154A01460020D2F8104423460AE069
:103B4000DB681D79854205D1401C0A28F6DB4FF061
:103B5000FF3030BD1B68002BF2D1431CF9D0CB687D
:103B60001871D2F8103443B1DB68CC681B6823604D
:103B7000D2F81024D268116030BDC2F81014C968A0
:103B800000220A6030BD0000340700207047FDF7B6
:103B900033BC704708B5034A00924023024A00F044
:103BA00005F808BDF55200005C050020F0B595B0A1
:103BB0001C4615460F4608461A9E00F08DFB18213C
:103BC00009A8FCF723FE0E96CDE90954002308222C
:103BD00003A9384600F096FB05980690BDF8100042
:103BE000ADF81C00BDF81200ADF81E0000208DF8E5
:103BF00021000398082600F00300012802D00228C3
:103C000018D032E003983346850AC0F3C2008DF81D
:103C1000200003980FA9C0F38314A200384600F0D7
:103C200071FB09A8009006AB22460FA9284600F0B8
:103C3000AFFA1AE00398840DC0F3C2008DF820009B
:103C4000082C01D2254600E0082533462A460FA954
:103C5000384600F057FB2E44641B09AB06AA2946E0
:103C60000FA800F0FDF9002CEAD1384600F03AFB2D
:103C700015B0F0BD7047002001F026BC084810B513
:103C80000178084A515C19B1001D01F095F902E074
:103C90000C3001F02FF8BDE81040002001F014BCFA
:103CA000640000203C00002008B5034A0092402335
:103CB000024AFFF77BFF08BD455300009C0500202A
:103CC0000A4A012902EBC00007D0022907D00329C4
:103CD00007D0042907D00020704702207047042035
:103CE000704700797047407970470000A883000052
:103CF00010B5FFF74CFF04210F48FFF719FF00280C
:103D000003DA0E491B20FDF7BDFE0B480124C068F5
:103D10004471FFF7B0FF084804211030FFF708FF97
:103D2000002803DA05492220FDF7ACFE02481030D6
:103D3000C068447110BD000088830000108100003D
:103D40002DE9F0478CB0FDF7AFFF18B100200CB0A3
:103D5000BDE8F0877D4C0020C4F81804BFF34F8FF6
:103D60007B49A06802900D684FF00008284004EBE2
:103D700080000BE0D4F8180470B9616802988142A1
:103D800001D8A160E2E7284004EB80000C3002A9D2
:103D9000FEF70AF90028EDD1002003AA029901EAF2
:103DA000050304EB8303491CDB6842F82030401C08
:103DB00002910228F2D3039800F00300022802D0F7
:103DC00001284DD0A7E003985022810D8946B2EB1F
:103DD000905F00D850210E4666F39F500390083143
:103DE0005C4800F030FA070078D000F075FA4346DE
:103DF000082203A9384600F0B5FA029908F1080A2A
:103E00002940681A8000001D864222D94F4D0C358A
:103E100030B1C2B204EB8101301A90460C3104E09B
:103E20002946F2B2002590462846C6B25346384687
:103E300000F098FA0AEB080325B1324629463846C5
:103E400000F090FA029909F1030001EB9000029052
:103E50003BE004EB81015346324638460C31EFE734
:103E60000398C0F38310062800D30620039960F35B
:103E70008911C1F38310801C03918100354800F043
:103E8000E2F9070047D000F027FA4346082203A9C9
:103E9000384600F067FA08F1080800260FE002989B
:103EA000434600EA0501401C04EB81010290042214
:103EB00038460C3100F056FA08F10408761C0398D5
:103EC000C0F38310B042EAD847B1D4F81054D4F804
:103ED000180478B1384600F005FA31E01BE0E868D4
:103EE0004079012804D12A6828463946126890474B
:103EF000E8680568002DF2D1384600F0F3F900209B
:103F0000FDF718FDD4F8180408B90298A060002045
:103F1000FDF720FD14E0D4F8104405E021682046A8
:103F200089688847E0680468002CF7D10A480B4983
:103F3000401AC008022101EB004009A100F06EF810
:103F4000FDF7B2FE80F0010001E700003407002019
:103F500088000020E0830000D8830000A8830000D0
:103F60004261636B656E647320666C75736865642B
:103F7000000000002DE9F84F8146264FD01C154661
:103F80008A468008002269463E68FDF72FFEDFF86A
:103F90008880B0B3009CA01C009039683040091A9A
:103FA0008F003F1DBD4208EB800002D82A465146D3
:103FB00008E03A4651460C30FCF700FC1648EA1B74
:103FC0000AEB07010C30FCF7F9FB4FEA1947FDF744
:103FD000CBFE47EA0042601C304008EB80003440D2
:103FE00008EB8401C260C8684FF6C07269F3C5006F
:103FF000904365F39F5020F00300801C20F00400E4
:10400000C86098F8000001E0FFF79AFE0028FBD195
:10401000BDE8F88F880000203407002000231A46EE
:1040200001F0B4B908B5012300926A4601F0AEF977
:1040300008BD1CB5CDE9002302236A4601F0A6F9AC
:104040001CBD70B586B00DF1280C9CE870008DE8A1
:104050007C0005236A4601F099F906B070BD0000A6
:104060002DE9F0470E4680461C469246082940D866
:1040700094F80C90002020731946104601F056F871
:104080000025B54206D218F805201BA12046FFF7EF
:10409000B3FA03E01AA12046FFF7AEFA6D1C082D13
:1040A000EFD318A12046FFF7A7FA0025B54212D298
:1040B00018F805707E2F08D8FCF77CFB0068C05DFF
:1040C00010F03E0F01D03A4600E02E220EA120460D
:1040D000FFF792FA03E00DA12046FFF78DFA6D1C61
:1040E000082DE3D301222146504601F001F884F85F
:1040F0000C90BDE8F08700002025303278000000E9
:10410000202020007C00000025630000200000002B
:10411000064910B501200870054800F0E1F80028B4
:1041200003D1044800F0ECFA002010BD3407002051
:10413000E0830000045A000002480349401AC00806
:1041400070470000E0830000A883000013B56846B4
:10415000FEF7E0FE08B100201CBD0248009950F8AF
:1041600031001CBDA883000070B508480125D0F8B7
:104170001044057007E0E0684571216820464968F1
:104180008847E0680468002CF5D170BD3407002032
:104190002DE9FF4781460C9D00200C462F7B28739C
:1041A000984616462946184600F0C0FF072E42D210
:1041B000DFE806F004090F161F2A36004946284694
:1041C000FFF71AFA37E0494628462268FFF714FA43
:1041D00031E0D4E9002349462846FFF70DFA2AE0EA
:1041E000A0680090D4E9002349462846FFF704FA66
:1041F00021E0D4E90201CDE90001D4E900234946D8
:104200002846FFF7F9F916E004F1080007C88DE821
:104210000700D4E9002349462846FFF7EDF90AE0F4
:1042200004F108000FC88DE80F00D4E900234946C7
:104230002846FFF7E1F900222946404600F058FFE2
:104240002F73BDE8FF872DE9F041058A80462D1FB9
:104250004819C01CB0FBF5F0C6B24046FEF794FE0C
:10426000041E19D00020207101206071E580002714
:104270002546761EC4F800800BE04046FEF784FE1B
:1042800060B16179491C6171286005467F1CC0F8E6
:104290000080B742F1D32046BDE8F081204600F00F
:1042A00002F80020F8E72DE9F041457901466B1E40
:1042B000002201E00968521C9A42FBD30F680146B4
:1042C000002605E038460C68FEF7C8FE2146761C3D
:1042D000AE42F7D3BDE8F0810121001DFEF738BEE4
:1042E000FEF704BF10B504460121001DFEF746FE8F
:1042F00010F0FF0F04D12046BDE81040FFF7D3BFF8
:1043000010BD00001CB514460122CDE9002401AA0D
:10431000FEF78EFD0198A04203D002A1DA20FDF73E
:10432000B1FB1CBD2E2E5C2E2E5C2E2E5C2E2E5C28
:104330002E2E5C2E2E5C2E2E5C636F6D706F6E6564
:104340006E74735C6C69627261726965735C6D65D1
:104350006D6F626A5C6E72665F6D656D6F626A2E0C
:10436000630000001CB514460022CDE9002401AA18
:10437000FEF75EFD0198A04203D002A1D020FDF718
:1043800081FB1CBD2E2E5C2E2E5C2E2E5C2E2E5CF8
:104390002E2E5C2E2E5C2E2E5C636F6D706F6E6504
:1043A0006E74735C6C69627261726965735C6D6571
:1043B0006D6F626A5C6E72665F6D656D6F626A2EAC
:1043C0006300000010B5040004D105A140F20D20E7
:1043D000FDF758FB204600F061F9A168081A10BDEE
:1043E0002E2E5C2E2E5C2E2E5C2E2E5C2E2E5C2E07
:1043F0002E5C2E2E5C636F6D706F6E656E74735CD9
:104400006C69627261726965735C71756575655C12
:104410006E72665F71756575652E630070B5040018
:1044200003D108A17220FDF72DFB206805684168C3
:10443000204600F025F8A84201D1012070BD0020DF
:1044400070BD00002E2E5C2E2E5C2E2E5C2E2E5C5F
:104450002E2E5C2E2E5C2E2E5C636F6D706F6E6543
:104460006E74735C6C69627261726965735C71759C
:104470006575655C6E72665F71756575652E630046
:1044800070B50C46050003D105495D20FDF7FAFA29
:10449000A868A04201D9601C70BD002070BD00005A
:1044A000E04300002DE9F0410E4604004FF0000803
:1044B00003D12CA17D20FDF7E5FA1EB929A17E20AC
:1044C000FDF7E0FA0020FDF735FA2046FFF7A6FFDA
:1044D000070009D0207C38B14FF004080020FDF718
:1044E00039FA4046BDE8F0812068456841682046B9
:1044F000FFF7C6FF2168486037B120680168204691
:10450000FFF7BEFF21680860E268012A14D0022A82
:1045100016D0042A19D0082A1CD06068314605FB41
:104520000200FCF74BF9204600F098FE21688A68EB
:104530008242D3D28860D1E7616830784855F2E78B
:104540006168308821F81500EDE76168306841F84E
:104550002500E8E7D6E90001626802EBC502C2E97E
:104560000001E0E72E2E5C2E2E5C2E2E5C2E2E5CA3
:104570002E2E5C2E2E5C2E2E5C636F6D706F6E6522
:104580006E74735C6C69627261726965735C71757B
:104590006575655C6E72665F71756575652E630025
:1045A0002DE9F04115460E4607004FF0000404D1F6
:1045B00011A14FF4D970FDF765FA26B90EA140F2AA
:1045C000B310FDF75FFA4FF00000002D11D0FDF79A
:1045D000B1F9384600F042FEA84205D32A463146DA
:1045E000384600F009FE00E005240020FDF7B2F98E
:1045F0002046BDE8F08100002E2E5C2E2E5C2E2E73
:104600005C2E2E5C2E2E5C2E2E5C2E2E5C636F6D2F
:10461000706F6E656E74735C6C69627261726965ED
:10462000735C71756575655C6E72665F71756575D5
:10463000652E630010B5040004D109A14FF4F57094
:10464000FDF720FA0020FDF775F9206800210160D0
:1046500041608160BDE810400846FDF77BB900006D
:104660002E2E5C2E2E5C2E2E5C2E2E5C2E2E5C2E84
:104670002E5C2E2E5C636F6D706F6E656E74735C56
:104680006C69627261726965735C71756575655C90
:104690006E72665F71756575652E630010B50400F6
:1046A00004D108A14FF4FC70FDF7ECF90020FDF7F0
:1046B00041F9204600F0D2FD04460020FDF74AF9FA
:1046C000204610BD2E2E5C2E2E5C2E2E5C2E2E5CD7
:1046D0002E2E5C2E2E5C2E2E5C636F6D706F6E65C1
:1046E0006E74735C6C69627261726965735C71751A
:1046F0006575655C6E72665F71756575652E6300C4
:1047000082680021916082681161826851618268CB
:10471000D1608268516080680160704703496846D3
:10472000884201D20120704700207047E01300202A
:104730000C4A10B502F58C730EE0991AC91001EB02
:10474000D171491002EBC1010C68844201D90B46BA
:1047500002E005D201F108029A42EED3002010BD1A
:10476000486810BDAC58000000B5FFF7E1FF002815
:1047700000D1014800BD00009858000040580028B2
:1047800000D00120704708B50022425040580090E8
:1047900008BDD0F80403084000D0012070474058FD
:1047A000002800D00120704708B500224250405830
:1047B000009008BD0121B1EB507F01D1012070476D
:1047C0000020704770B50D46040003D10DA15120A3
:1047D000FDF758F9204600F003FD04000FD000203B
:1047E000FDF7A8F8207920B10020FDF7B3F81120DB
:1047F00070BD0120256020710020FDF7ABF800207E
:1048000070BD00002E2E5C2E2E5C2E2E5C2E2E5C9B
:104810002E2E5C2E2E5C2E2E5C6D6F64756C657377
:104820005C6E7266785C647269766572735C7372D2
:10483000635C7072735C6E7266785F7072732E6305
:104840000000000010B5040003D106A17520FDF79B
:1048500019F9204600F0C4FC002802D000210160B4
:10486000017110BD2E2E5C2E2E5C2E2E5C2E2E5C29
:104870002E2E5C2E2E5C2E2E5C6D6F64756C657317
:104880005C6E7266785C647269766572735C737272
:10489000635C7072735C6E7266785F7072732E63A5
:1048A0000000000001B569460548FFF7FBFD04481C
:1048B000FFF7B4FD002801D000F0B2F808BD0000F9
:1048C000F483000070B50E46040003D118A118202F
:1048D000FDF7D8F81EB916A11920FDF7D3F8234D1E
:1048E000287808B1852070BD6E602078C00704D09C
:1048F0001F48016841F0010101601E48D0F8001214
:1049000021F00101C0F800126478082C03D31AA129
:104910004520FDF7B7F82549600181F80004012022
:104920004FF0E0224103C2F800112870002070BD52
:104930002E2E5C2E2E5C2E2E5C2E2E5C2E2E5C2EB1
:104940002E5C2E2E5C6D6F64756C65735C6E72668A
:10495000785C647269766572735C7372635C6E72A4
:1049600066785F726E672E630000000050000020C2
:1049700004D5004000D000402E2E5C2E2E5C2E2E42
:104980005C2E2E5C2E2E5C2E2E5C2E2E5C696E74A0
:104990006567726174696F6E5C6E7266785C6E7268
:1049A00066785F676C75652E680000000DE000E0BA
:1049B000094808B50078012803D008A13020FDF788
:1049C00061F81649002214480A6009680091012123
:1049D000C0F80413016008BD500000202E2E5C2E8C
:1049E0002E5C2E2E5C2E2E5C2E2E5C2E2E5C2E2E01
:1049F0005C6D6F64756C65735C6E7266785C647216
:104A000069766572735C7372635C6E7266785F72EE
:104A10006E672E630000000000D0004000D100400F
:104A2000074810B50078012803D006A13820FDF70B
:104A300029F813490120C1F80803091D086010BDB9
:104A4000500000202E2E5C2E2E5C2E2E5C2E2E5C16
:104A50002E2E5C2E2E5C2E2E5C6D6F64756C657335
:104A60005C6E7266785C647269766572735C737290
:104A7000635C6E7266785F726E672E630000000082
:104A800000D0004010B50D4C2078012803D00CA1B7
:104A90003F20FCF7F7FF19490120C1F80803091D61
:104AA000086041034FF0E0220020C2F88011BFF3FC
:104AB0004F8FBFF36F8F207010BD0000500000209B
:104AC0002E2E5C2E2E5C2E2E5C2E2E5C2E2E5C2E20
:104AD0002E5C2E2E5C6D6F64756C65735C6E7266F9
:104AE000785C647269766572735C7372635C6E7213
:104AF00066785F726E672E630000000000D0004091
:104B00000149024800F00CBDEC04002000200040E8
:104B10002DE9F04117460D00064603D11AA1842065
:104B2000FCF7B0FF3079274A00EB400101EBC001F0
:104B300002EB810494F82A1011B10820BDE8F0813D
:104B4000214951F820103068FFF73CFE08B11120D0
:104B5000F4E729463046FCF71FFF676028692060AC
:104B60001FB1297F3046FDF765F930680421C0F890
:104B700000150020A061E06184F8290044F8140FBA
:104B80000121A175DAE700002E2E5C2E2E5C2E2E60
:104B90005C2E2E5C2E2E5C2E2E5C2E2E5C6D6F6499
:104BA000756C65735C6E7266785C6472697665724A
:104BB000735C7372635C6E7266785F756172742E7B
:104BC00063000000EC040020805800002DE9F05F35
:104BD000054600790F4600EB400101EBC0002D496E
:104BE000164601EB800494F82A00012803D02AA17C
:104BF000F220FCF747FF1FB927A1F320FCF742FF83
:104C00001EB925A1F420FCF73DFF284600F062F80C
:104C100010B11120BDE8F09F66614FF00009C4F8A3
:104C20002090A76084F828904FF48E784E46414635
:104C30002868FFF7A8FD28684FF0010AC0F808A00F
:104C40002146286800F0F8FB606800BBD5F800B08A
:104C500067690EE094F8280008B10F2615E0414678
:104C60005846FFF78BFD0028F4D02146584600F047
:104C7000E3FB206AB842F2D3574641462868FFF763
:104C80007DFD0028F9D02868C760C4F8149030462C
:104C9000C0E70000EC0400202E2E5C2E2E5C2E2E91
:104CA0005C2E2E5C2E2E5C2E2E5C2E2E5C6D6F6488
:104CB000756C65735C6E7266785C64726976657239
:104CC000735C7372635C6E7266785F756172742E6A
:104CD00063000000007900EB400101EBC0000449D3
:104CE00001EB80004069002800D0012070470000DF
:104CF000EC0400202DE9F047044600794FF000094C
:104D000000EB400101EBC000284901EB800720685F
:104D1000C0F800957868B0B120682549C0F808133C
:104D2000206840F3073000280DDB00F01F0201214E
:104D300091404009800000F1E020C0F88011BFF3ED
:104D40004F8FBFF36F8F2068D0F80C25D0F81485F3
:104D5000D0F80865D0F810554FF0FF31C0F81415A1
:104D6000C0F80C152068C0F80815C0F81015501CC4
:104D700002D01046FEF70AFEB8F1FF3F02D04046CF
:104D8000FEF704FE681C02D02846FEF7FFFD701CEB
:104D900002D03046FEF7FAFD2068FFF753FD87F892
:104DA0002A90C7F80490BDE8F0870000EC040020CA
:104DB000840202000149024800F060BC180500208E
:104DC000002000402DE9F04117460D00064603D1B2
:104DD00018A1A920FCF756FE3079254A00EBC00146
:104DE00002EB810494F8201011B10820BDE8F08195
:104DF000204951F820103068FFF7E4FC08B1112079
:104E0000F4E729463046FCF702FE67602869206017
:104E10001FB1297F3046FDF763F830680821C0F8DC
:104E200000150020A061E0616061012184F820107C
:104E3000DCE700002E2E5C2E2E5C2E2E5C2E2E5CCF
:104E40002E2E5C2E2E5C2E2E5C6D6F64756C657341
:104E50005C6E7266785C647269766572735C73729C
:104E6000635C6E7266785F75617274652E630000B4
:104E700018050020845800002DE9F04704460F462D
:104E80000079364900EBC00001EB8005164695F825
:104E90002000012804D032A140F22D10FCF7F2FDD1
:104EA00027B92FA14FF49770FCF7ECFD26B92CA180
:104EB00040F22F10FCF7E6FD207910B9B6F5803FDF
:104EC00004D327A14FF49870FCF7DCFD3846FFF7B8
:104ED00071FC30B1204600F061F820B11120BDE82E
:104EE000F0871020FBE76E61AF604FF490774FF0D2
:104EF000000839462068FFF757FC4FF4AC7631467E
:104F00002068FFF751FC2068AA686969C0F8442549
:104F1000C0F8481520684FF00109C0F8089068688B
:104F2000D0B9BA4651462068FFF739FC07463146EA
:104F30002068FFF734FC0743F4D010B14FF00F089E
:104F400008E02068C0F80C9031462068FFF727FC85
:104F50000028F9D0002068614046C0E7180500200D
:104F60002E2E5C2E2E5C2E2E5C2E2E5C2E2E5C2E7B
:104F70002E5C2E2E5C6D6F64756C65735C6E726654
:104F8000785C647269766572735C7372635C6E726E
:104F900066785F75617274652E630000007905495B
:104FA00000EBC00001EB80004069002800D0012028
:104FB00070470000180500202DE9F04706460079EB
:104FC0003D4900EBC00001EB8005346868680127AB
:104FD000A8B13A49C4F80813306840F307300028F4
:104FE0000DDB00F01F0107FA01F14009800000F11C
:104FF000E020C0F88011BFF34F8FBFF36F8FD4F85C
:10500000000220F02000C4F80002A8694FF4A27842
:1050100020B141462046FFF7C7FB67604FF4AC79EB
:1050200049462046FFF7C0FBE76047464946204611
:10503000FFF7B5FB0028F9D0A86928B1394620460A
:10504000FFF7ADFB0028F1D04FF0000AC4F800A52F
:105050003068D0F80C25D0F81495D0F80885D0F831
:1050600010754FF0FF31C0F80C15C0F814153068FA
:10507000C0F80815C0F81015501C02D01046FEF7F5
:105080008EFCB9F1FF3F02D04846FEF788FC781C41
:1050900002D03846FEF783FCB8F1FF3F02D040460D
:1050A000FEF77DFC2046FFF7CDFB85F820A0C5F874
:1050B00004A0BDE8F087000018050020100342009E
:1050C00070B5044615460830FBF7DAFB6068C06827
:1050D0002860002070BD10B50830FBF7EBFB002006
:1050E00010BD10B50830FBF76BFE002010BD0000AE
:1050F00010B50C46017A052908D0407A38B1084825
:1051000008A102682046FEF777FA00E01AB106A16E
:105110002046FEF771FA2046BDE81040FEF7ACBA13
:10512000B8000020257300000D0A000038B5C388C0
:105130000D46044633B114A0009015A216A12846CE
:10514000FEF75AFA217A05291CD0607A48B1A08866
:10515000FEF7B6FD164951F8202016A12846FEF7A5
:105160004BFAA0880021FEF7F1FF03461049207A90
:10517000143951F8202001B02846BDE830400EA176
:10518000FEF73ABA38BD00001B5B306D000000002E
:105190001B5B313B33316D0025734C6F67732064AB
:1051A000726F70706564202825642925730D0A00CC
:1051B000B8000020257300003C25733E2025733A7B
:1051C00020000000EFF30580C005C00D01D00120D4
:1051D0007047EFF3148040F30000401C704700005C
:1051E0000349884201D103487047002070470000FE
:1051F00000200040480000202DE9F04704460068E8
:1052000016468946076800212046FCF759FD0546E9
:10521000D4F80C806068AE4207FB08010DD808FB8B
:1052200006F24846FBF7CAFAA168B819884200D9C5
:10523000002021680860BDE8F08708FB05F84246B9
:105240004846FBF7BBFAE268751B6A4309EB0800A6
:105250006168FBF7B3FA20680560ECE701680A684B
:105260004968914201D3881A70478068801A0844BF
:10527000401C704710F1380F07D010F1360F07D0DF
:10528000002801D048F21650704748F2115070477C
:1052900048F21450704770B5054688690C460028DE
:1052A0004FF4847128460AD0FFF76DFAD5F8180537
:1052B000626AE1688854606A401C606270BDFFF7F2
:1052C00062FAD5F8180570BD1FB501238DF80030BE
:1052D000CDE90121D0E90012684690471FBD1FB5F6
:1052E00001238DF80030CDE90121D0E90012684694
:1052F00090471FBD2DE9F0411400884618D00025C5
:105300000E4F032608EB050122460020FCF776F835
:105310000544241A40B93878002809D008494FF4C8
:105320007A408847761E05D001203870002CE9D1DC
:10533000BDE8F08100203870FAE700005C00002032
:10534000D159000070B50E4C0020D2B22070201D43
:105350000C4D0378EB5C1BB1001DFFF78DFD02E0E7
:105360000C30FFF733FC18B1074A2D21FAF752FF32
:105370006078002802D021780029FAD070BD0000A2
:10538000600000203C000020C48000002DE9F84FA0
:10539000054626489146884606681F46012269460A
:1053A0001846FCF723FCDFF888A0B0B30098002172
:1053B0000446801C0AE000BF00EA060259F821C03A
:1053C0000AEB8202401C491CC2F80CC0B942F3D35C
:1053D000B9462F0CFCF7C8FC8346FEF7ADFEB84279
:1053E00004D8144940F28310FCF74CFB601C304099
:1053F0000AEB800047EA0B423440C2600AEB8400AB
:10540000C16865F3C50169F3891168F39F2121F033
:105410000301491C21F00401C1609AF8000001E079
:10542000FEF78EFC0028FBD1BDE8F88F8800002035
:10543000340700206081000070B50C4605464FF42B
:105440008E71FFF7A0F9216AA068415C206A401CB8
:105450002062C5F81C1570BD1FB500228DF8002014
:105460000291816801914261D0E90012684690473B
:105470001FBD1FB500228DF80020029181680191A7
:105480004261D0E90012684690471FBD1FB50A4629
:1054900001788DF8001041680191017A8DF80810AB
:1054A000C0680390044850F82210001F50F82220D2
:1054B000684690471FBD00004400002001490120BC
:1054C000087070476000002010B588B004462022A4
:1054D0000F496846FBF772F906200090C01F019043
:1054E000029003904FF0EB7006900CB1094A00E077
:1054F000002269460848FEF74BF818B1074A1D21FB
:10550000FAF788FE0448001F447008B010BD000080
:10551000E4590000BD54000064000020C480000075
:105520002DE9FF470C4605464FF40071FFF731F9AE
:1055300001274FF40178002618B34FF492794946B9
:105540002846FFF71BF9E0B149462846FFF71BF94B
:10555000C5F8088394F8290000B96F6002208DF81F
:105560000000D5F88004C5F880040390A06902907B
:10557000E0680190A661E661D4E9001268469047B0
:1055800028E004212846FFF704F918B34FF484718A
:105590002846FFF7F3F8E8B121462846FFF77BFEDF
:1055A000616AA069884215D1E06938B1E268616A30
:1055B000A0612069E6616662E06008E094F8290075
:1055C00000B96F60C5F80883A661E268616A204689
:1055D000FFF77AFE4FF48E7841462846FFF7CEF863
:1055E00080B16069216A814202D294F8280028B310
:1055F00041462846FFF7C7F8606918B1616920463F
:10560000FFF72AFF4FF4A27841462846FFF7B6F885
:10561000002818D041462846FFF7B5F894F829002D
:1056200000B12F60A06900280DD0A661E268616A10
:1056300004B02046BDE8F047FFF746BE21462846A5
:10564000FFF7FAFEDEE7BDE8FF8700001FB50A4658
:1056500001788DF8001041680191017A8DF80810E9
:10566000C0680390044850F82210001F50F8222010
:10567000684690471FBD0000440000202DE9FF410F
:105680000C464FF4927705463946FFF788F8002616
:10569000B8B139462846FFF787F802208DF8000098
:1056A000D5F88004C5F880040390D5F83C05029035
:1056B000E0680190A661E661D4E90012684690476F
:1056C00023E04FF4887739462846FFF768F8E0B1C1
:1056D00039462846FFF768F8D5F83C15A069884296
:1056E00013D1E06960B1E268D5F8000220F0200033
:1056F000C5F80002E069A0612069E661E06001E0B0
:10570000A661E2682046FFF7EAFD4FF4A27739462A
:105710002846FFF744F868B139462846FFF744F8B1
:10572000A06938B1A661E661D5F83C152046E2686B
:10573000FFF7D5FD4FF4907631462846FFF72FF856
:1057400060B131462846FFF72FF80120E860606914
:1057500020B1D5F84C152046FFF78BFE4FF4AC7600
:1057600031462846FFF71BF800280ED03146284660
:10577000FFF71AF86069002807D0D5F84C1504B077
:105780002046BDE8F041FFF774BEBDE8FF81000090
:105790002DE9F05F8346DDE90A4A994690460D46B9
:1057A0000846012703E000BFB0FBF8F07F1C40452E
:1057B000FAD2B94500D94F465FEACA7012D18CB10E
:1057C0005FEA8A7002D5B9F1000F01D0202607E008
:1057D000302605E031465846641EFCF74DFA0CB100
:1057E000A742F7D35FF00106B9F1010F02D9A9F181
:1057F000010903E0B5FBF6F0404502D306FB08F6CD
:10580000F2E7DFF83C9000BFB5FBF6F000FB165561
:1058100019F800105846FCF72FFAB6FBF8F6002EE0
:10582000F2D15FEACA7009D0002C07D0A74205D296
:1058300020215846641EFCF71FFAF5E7BDE8F09FEB
:105840008858000030B100680549884205D048F208
:105850000250704748F20150704700207047000026
:1058600011BADEBAD7500000E3500000C15000006A
:1058700020000000300100000000000001060000D0
:10588000014B0000B54D000030313233343536372E
:105890003839414243444546556E6B6E6F776E20F2
:1058A0006572726F7220636F646500000000000013
:1058B0006880000001000000287F00000200000056
:1058C0001C7D0000030000009C7F0000040000001D
:1058D000F07F000005000000D07E00000600000000
:1058E0006C7E000007000000D87F00000800000068
:1058F000E47E000009000000487F00000A0000006C
:10590000508000000B000000047D00000C0000002F
:10591000FC7E00000D000000A08000000E000000D2
:10592000C87F00000F00000004800000100000008D
:105930003880000011000000B480000080000000EA
:10594000847E000081000000C07D00008200000015
:10595000807D000083000000607D00008400000066
:105960009C7D000085000000A87E000086000000ED
:10597000B07F0000900000004C7E0000910000000D
:10598000407D000092000000107F000000820000B7
:105990001880000001820000647F00000282000085
:1059A000807F000000840000DC7D00000184000096
:1059B0007480000002840000247E00000384000044
:1059C000007E0000953B0000933B00008D3B0000F3
:1059D0000338FDD870470000A93C00007D3C000062
:1059E000753C0000FFFFFFFFFFFFFFFFFFFFFFFF12
:1059F000FFFFFFFF00000000000000000000D601D4
:105A0000060100009C0600207F0000001C0700200B
:105A1000637C777BF26B6FC53001672BFED7AB766B
:105A2000CA82C97DFA5947F0ADD4A2AF9CA472C016
:105A3000B7FD9326363FF7CC34A5E5F171D8311583
:105A400004C723C31896059A071280E2EB27B275A4
:105A500009832C1A1B6E5AA0523BD6B329E32F841C
:105A600053D100ED20FCB15B6ACBBE394A4C58CF14
:105A7000D0EFAAFB434D338545F9027F503C9FA8E8
:105A800051A3408F929D38F5BCB6DA2110FFF3D2B6
:105A9000CD0C13EC5F974417C4A77E3D645D19736A
:105AA00060814FDC222A908846EEB814DE5E0BDB64
:105AB000E0323A0A4906245CC2D3AC629195E4799B
:105AC000E7C8376D8DD54EA96C56F4EA657AAE08F5
:105AD000BA78252E1CA6B4C6E8DD741F4BBD8B8A90
