:020000040000FA
:10000000A0200020150200001D0200001F020000B9
:100010002102000023020000250200000000000071
:1000200000000000000000000000000027020000A7
:1000300029020000000000002B0200002D02000039
:100040002F0200002F0200002F0200002F020000EC
:100050002F0200002F0200005D0200002F020000AE
:100060002F020000590500002F0200002F0200009F
:100070002F0200002F0200002F0200002F020000BC
:100080002F020000010300002F0200002F020000D9
:100090002F0200002F0200002F0200002F0200009C
:1000A0002F0200002F0200002F0200002F0200008C
:1000B0002F0200002F0200000000000000000000DE
:1000C0002F0200002F0200002F0200002F0200006C
:1000D0002F0200002F0200002F0200002F0200005C
:1000E0002F0200002F0200002F020000000000007D
:1000F000000000002F020000000000002F0200009E
:1001000000000000000000000000000000000000EF
:1001100000000000000000000000000000000000DF
:1001200000000000000000000000000000000000CF
:1001300000000000000000000000000000000000BF
:1001400000000000000000000000000000000000AF
:10015000000000000000000000000000000000009F
:10016000000000000000000000000000000000008F
:10017000000000000000000000000000000000007F
:10018000000000000000000000000000000000006F
:10019000000000000000000000000000000000005F
:1001A000000000000000000000000000000000004F
:1001B000000000000000000000000000000000003F
:1001C000000000000000000000000000000000002F
:1001D000000000000000000000000000000000001F
:1001E000000000000000000000000000000000000F
:1001F00000000000000000000000000000000000FF
:10020000DFF80CD000F018F800480047F5070000B0
:10021000A02000200648804706480047FEE7FEE78A
:10022000FEE7FEE7FEE7FEE7FEE7FEE7FEE7FEE7A6
:100230001103000001020000064C074D06E0E068D3
:1002400040F0010394E8070098471034AC42F6D31D
:10025000FFF7DAFF980C0000B80C00002DE9FC4114
:100260000025DFF8948000954FF4807601242F4616
:100270000195304600F074FB38B1D8F804032042F1
:1002800003D0304600F062FB2543361D64007F1C1E
:10029000B6B2082FEDD34FF4BE74204600F060FBD9
:1002A00048B1204600F052FB45F000456A46022165
:1002B000002000F003FB15F0FF0F16D001260024EC
:1002C0002E420ED008EB8401D1F81005D1F810159C
:1002D000C0F30520094AC1F3014152F8242002B1BC
:1002E00090477600641C082CEAD3002D02DA684699
:1002F00000F0F2FBBDE8FC81006000402800002017
:1003000002490248091F0968006808471C000020CC
:10031000F0B54FF080527F4ED2F830017E4FD2F8C8
:100320003411431C08D005464FEA010400234FF066
:10033000010C082D05D013E03B783578C3F3031486
:10034000F4E72CB1012C03D0022C01D0032C07D1EF
:100350004FF08044C4F80C31C4F810316F4C236066
:10036000441C04D005460C46082D05D061E03C78BD
:100370003578C4F30314F7E72CB1012C03D0022C19
:1003800001D0032C55D1664C2468664D2C60644C1A
:10039000241D24682D1D2C60614C083424682D1DFB
:1003A0002C605F4C0C3424682D1D2C605C4C103488
:1003B00024682D1D2C605A4C143424682D1D2C608B
:1003C000574C18342468574D20352C60544C1C343D
:1003D00024682D1D2C60524C203424682D1D2C6067
:1003E0004F4C243424682D1D2C604D4C2834246837
:1003F0002D1D2C604A4C2C3424682D1D2C60484C3B
:1004000030342468474D40352C60454C34342468E2
:100410002D1D2C60424C383424682D1D2C60404C1E
:100420003C3424682D1D2C603D4C403424682D1D27
:100430002C60082804D10C0002D13C4D3A4C2C60B1
:10044000082804D10C0002D1394DFB242C60082867
:1004500008D10C0006D192F85852364A146865F358
:1004600003041460082804D10A0002D1324C82012E
:100470002260421C03D139783078C1F30311082877
:100480000DD129B1012903D0022901D0032906D1B8
:100490002A480168C90702D06FF0010101602848AD
:1004A000016841F470010160BFF34F8FBFF36F8F9C
:1004B0004FF01021D1F80002002803DBD1F804022C
:1004C000002823DA1F4AC2F800C01F480468002C25
:1004D000FCD01224C1F800420568002DFCD0C1F800
:1004E000044201680029FCD0136001680029FCD097
:1004F000BFF34F8F12487C380168144A01F4E06161
:1005000011430160BFF34F8F00BFFDE71149104851
:100510000860F0BDE00F00F0E80F00F03805004083
:100520000404001020C50040488103008C560040A0
:1005300018F50040E40E00404096024000040040E0
:1005400088ED00E004E5014000E401400400FA0504
:100550000090D003240000202DE9F047104E04271E
:1005600000244FF4A0784FF4803900BF08EB8405D5
:1005700009FA04F0715961B1D6F80413014208D0A8
:100580002946304600F0F4F90648D0E90021284613
:100590009047641CE4B2BC42E8D3BDE8F087000099
:1005A000009000409400002002E008C8121F08C11B
:1005B000002AFAD170477047002001E001C1121FE4
:1005C000002AFBD1704700F0E7F84FF47A74204618
:1005D00000F032F9002000F0B9F8012000F0B6F880
:1005E000F5E70EB500210091CDE901106A4644F20D
:1005F0000100FFF7E8FF0EBDB0F5A07F07D1044969
:10060000487808B902200870886849680847704728
:100610000C0000201CB50C490C4AD1E90201CDE9BF
:10062000000100208DF801008DF8020004208DF8F3
:1006300000006946044800F0E7F9002802D1044AA6
:10064000012111701CBD0000880C0000F90500009C
:100650000C0000202DE9F843984691460F0005460E
:1006600005D0012D05D035B10720BDE8F8830E2057
:10067000FBE7012601E04FF48076154C207810B19D
:10068000032802D006E00820EFE700F025F808B1C3
:10069000FFF7A7FF2078022802D10E4800F06EF97C
:1006A0006570C4E901780120009033464A46002174
:1006B000084800F093F920780228064805D000F099
:1006C0007FF9032020700020CFE700F001FAF8E75F
:1006D0000C000020880C000010B5054C2078032881
:1006E00004D1044800F0F0F902202070002010BD71
:1006F0000C000020880C00002DE9FC410646C007D4
:100700004FF000050ED0104F00240122385D0095F7
:1007100000231146019500F09FF8641C042CF4D3CB
:1007200000F03AF8B0070DD5074E0024361D002220
:10073000305D032300951146019500F08DF8641C8F
:10074000042CF4D3BDE8FC81760C0000094908B5FF
:10075000085C0090684600F0C9F8D0F80425009BBA
:100760000121994021EA0203C0F808351140C0F880
:100770000C1508BD760C00000249085C012100F050
:10078000D1B80000760C00000249085C002100F09E
:10079000C9B80000760C000010B500242046FFF711
:1007A000EBFF641C042CF9D310BD0000024908447F
:1007B00090F93000704700002800002010B50C466A
:1007C000FFF7C4FF094A282050600A2090600023E8
:1007D0004CF2503206492046FFF73CFF002803D078
:1007E000BDE81040FFF7FDBE10BD00000000002076
:1007F000DD0B0000FFF70EFF08B1FFF7F2FE01204E
:10080000FFF77AFF0020FFF7BFFF0120FFF7BCFFD3
:100810004FF47A7000F010F8002000F0CDF920BFFE
:1008200040BF20BFFBE7C20800F007030120895C3E
:1008300098400840704700002DE9F041040007D0BF
:10084000044E4FF47A47751C3846A847641EFAD107
:10085000BDE8F081700C00002DE9FF411C46DDE988
:100860000A7815460E46684600F040F846EA45010B
:1008700041EA840141EA072242EA0841009A00EB7A
:100880008200C0F80017BDE8FF8113B50C4668462A
:1008900000F03AF8009900EB8101D1F8002722F42A
:1008A0004032C1F80027009900EB8100D0F8001712
:1008B00041EA0441C0F800171CBD00003CB50A4CD9
:1008C000D4E90034CDE900346B46441808E000BF99
:1008D00053F82010D1F8205520C2C1F82055401CF3
:1008E0008442F5D83CBD0000800C0000016820293E
:1008F00002D24FF0A040704701F01F010160014893
:1009000070470000000300500168202902D24FF018
:10091000A040704701F01F010160014870470000CE
:100920000003005038B501240090684631B1FFF74C
:10093000DDFF00998C40C0F8084538BDFFF7D6FFB1
:1009400000998C40C0F80C4538BD0000034908B53B
:100950000844002101600068009008BD006000406C
:1009600002494058012800D0002070470060004034
:1009700008B5002242504058009008BD006801218F
:10098000C16070472DE9F04106460D464FF48034B2
:1009900000681746AC404BB14FF4A07101EB8501E4
:1009A000FFF7E6FF3068C0F8044301E0C0F80843F1
:1009B000306800EB8500C0F84075BDE8F0810000AC
:1009C000016801220A600079034A00EB400002EB53
:1009D000800002210172704794000020F0B4046886
:1009E000049E40F20115D4F800728D40AF43C4F864
:1009F00000720468D4F800521D43C4F80052334614
:100A0000F0BCFFF7BFBF00002DE9F04104460E46E1
:100A100000792C4900EB400001EB8007387A10B1D7
:100A20000820BDE8F0813A60706800254FF4A07896
:100A3000786006E008EB85012068FFF799FF6D1CE0
:100A4000EDB26079A842F5D82068F17840F307301C
:100A500000284FEA411104DB00F1E02080F8001487
:100A600005E000F00F0000F1E02080F8141D206880
:100A7000012140F30730002809DB00F01F0201FAD2
:100A800002F24009800000F1E020C0F80021206857
:100A90007278D0F8043562F30103C0F80435206899
:100AA000B278D0F8083562F30103C0F80835206841
:100AB0003278D0F8103562F30303C0F8103539727C
:100AC0000020AEE7940000200068012141607047DB
:100AD00000680121016070472DE9F84F314F05464C
:100AE0004FF001090024381990F96010491C46D0D4
:100AF00090F86000294620F0C0063046FFF793FECC
:100B000070B3204600F050F8824668460096FFF722
:100B1000FBFE009900EB8100D0F80007C0F301480C
:100B2000B8F1020F1DD002213046FFF7AEFE684635
:100B30000096FFF7E9FE009A09FA02F1C0F82015C5
:100B40003046FFF733FE57F820204AB15046BAF13D
:100B5000030F11D0B8F1020F05D0B8F1030F07D081
:100B60000DE00321E0E75046BAF1010F04D006E0A2
:100B70005046BAF1020F02D1014630469047641C3C
:100B8000042CB0D32A4602210020FFF797FE002054
:100B900055F820100029A5D1401C0228F8D3BDE843
:100BA000F88F0000280000200249084490F86000F7
:100BB000800970472800002007490870087820B194
:100BC000012805D00878FFF70CBD0021084601E098
:100BD00001210846FFF7F2BD00000020234810B5B0
:100BE00002780A211AB1012A1DD0007815E0426866
:100BF000521E426015D08268521E826003D181600D
:100C00000020FFF7A3FD00234CF25032AFF2330176
:100C10001846FFF71FFD002827D0BDE81040FFF75A
:100C2000E0BC01201DE04268521E426009D082688B
:100C3000521E826019D18160BDE810400120FFF78B
:100C400085BD0020FFF7A0FD0120FFF79DFDFFF708
:100C500043FD08B1FFF7C5FC4FF47A70FFF7ECFDD8
:100C60000020BDE81040FFF7A7BF10BD0000002026
:100C70000338FDD870470D0E0F100B0C181900002B
:100C800000000050000300500090004000040000ED
:100C90000000000600000000B80C0000000000206A
:100CA00028000000A8050000E00C0000280000203B
:100CB00078200000B80500000000000000000000DF
:100CC0000000000000000000000000000000000024
:100CD0000000000000000000000000000090D003B1
:0400000500000201F4
:00000001FF
