:020000040000FA
:10000000002F0020C1030000C9030000CB03000043
:10001000CD030000CF030000D1030000000000006A
:10002000000000000000000000000000D3030000FA
:10003000D503000000000000D7030000D903000032
:10004000250700007D070000790A0000DB0300009F
:10005000DB030000DB030000DB030000DB03000028
:10006000290A0000DB030000DB030000DB030000C3
:10007000DB030000DB030000DB030000DB03000008
:10008000DB030000D1070000DB030000DB030000FE
:10009000DB030000DB030000DB030000DB030000E8
:1000A000DB030000DB030000DB030000DB030000D8
:1000B000DB030000DB030000000000000000000084
:1000C000DB030000DB030000DB030000DB030000B8
:1000D000DB030000DB030000DB030000DB030000A8
:1000E000DB030000DB030000DB0300000000000076
:1000F00000000000DB03000000000000DB03000044
:1001000000000000000000000000000000000000EF
:1001100000000000000000000000000000000000DF
:1001200000000000000000000000000000000000CF
:1001300000000000000000000000000000000000BF
:1001400000000000000000000000000000000000AF
:10015000000000000000000000000000000000009F
:10016000000000000000000000000000000000008F
:10017000000000000000000000000000000000007F
:10018000000000000000000000000000000000006F
:10019000000000000000000000000000000000005F
:1001A000000000000000000000000000000000004F
:1001B000000000000000000000000000000000003F
:1001C000000000000000000000000000000000002F
:1001D000000000000000000000000000000000001F
:1001E000000000000000000000000000000000000F
:1001F00000000000000000000000000000000000FF
:10020000DFF80CD000F0F4F900480047614300002B
:10021000002F002030B450E8012F93B2C48923444A
:100220008489A34228BF1B1B0489A34202BFBFF3DA
:100230002F8F002007E0C3EA020340E80134002CBE
:10024000E9D14FF001000A6030BC704750E8012F3F
:10025000C2EA024240E801210029F7D1704730B4D8
:1002600050E8022F1FFAA2F3C488A34202BFBFF3D3
:100270002F8F00200DE0C48923448489A34228BF26
:100280001B1BC2EA034340E80234002CE8D14FF0C4
:1002900001000A6030BC704750E8022FC2EA2242D7
:1002A00040E802210029F7D17047034653E8022FA6
:1002B000D988B2EB324F4FF0000017BF92B241EA3B
:1002C000014142EA014104E05A68B2EB324F08BFF3
:1002D000012043E80212002AE8D1704730B40446F6
:1002E00054E8000F0D4644E80053002BF8D1156088
:1002F00030BC704730B4044654E8000F40EA0105B2
:1003000044E80053002BF7D1156030BC704730B47F
:10031000044654E8000F00EA010544E80053002BAE
:10032000F7D1156030BC704730B4044654E8000F74
:1003300080EA010544E80053002BF7D1156030BC7A
:10034000704730B4044654E8000F00EB010544E860
:100350000053002BF7D1156030BC704730B4044611
:1003600054E8000FA0EB010544E80053002BF7D13F
:10037000156030BC704770B404464FF0000054E87C
:10038000006F0D68AE4207BF44E80023012044E837
:1003900000630E60002B1CBF0020F0E770BC7047AC
:1003A00030B4044654E8000F88422CBF451A054675
:1003B00044E80053002BF5D1156030BC70470000B5
:1003C0000648804706480047FEE7FEE7FEE7FEE7EF
:1003D000FEE7FEE7FEE7FEE7FEE7FEE7E1070000D7
:1003E00001020000202A04DB203A21FA02F0002159
:1003F000704721FA02F3D040C2F120029140084335
:100400001946704700487047A08800002DE9FE4358
:10041000994615468846074601AC022942D3002D6D
:1004200040D000200290A8F101004FF0FF3600906C
:1004300022E000FB057201FB057011464A46904719
:10044000002805DC54F82600304444F8260013E068
:1004500060682A4600FB057154F8040C00FB057027
:1004600007E00B7890F800C001F801CB00F8013BE1
:10047000521E002AF5D1764254F8040C6168884275
:10048000D7DC4B462A463846FFF7C0FF54F8040C29
:100490004B46A8EB0001401C00FB05702A46491E94
:1004A000FFF7B4FFBDE8FE8310B5431A934209D2AB
:1004B0008318881803E010F8011D03F8011D521E6F
:1004C000F9D210BD40EA01039B0703D009E008C937
:1004D000121F08C0042AFAD203E011F8013B00F809
:1004E000013B521EF9D210BDD2B201E000F8012B3F
:1004F000491EFBD270470022F6E710B513460A46A4
:1005000004461946FFF7F0FF204610BD421C10F8C4
:10051000011B0029FBD1801A704710B5002200E0B2
:10052000521C835C8C5CA34201D1002BF8D1D8B261
:10053000E1B2401A10BD034611F8012B00F8012B5F
:10054000002AF9D11846704730B505460020034609
:1005500000E05B1C934205D2EC5CC85C201A01D120
:10056000002CF6D130BD70B5064600F08BFA046859
:1005700005460A220021304600F002F82C6070BDCA
:100580002DE9F04791460F4680460446002614F8B0
:10059000015B2DB1FFF736FF0068405DC007F6D163
:1005A0002B2D02D02D2D18D0641E4A4639462046E8
:1005B00000F030F827B13968A14201D1C7F80080B6
:1005C00071054FF002040BD54042002803DD00F016
:1005D00059FA0460A007BDE8F08746F48066E4E7B6
:1005E0000028F8DA00F04EFA04606FF00040F2E7FD
:1005F000064C074D06E0E06840F0010394E8070070
:1006000098471034AC42F6D3FFF7FEFD189900006E
:10061000389900002DE9F05F8246007800271546E2
:100620008B460AF10104B946302801D09DB113E090
:1006300014F8010B0127782803D0582801D045B1C0
:100640000AE00DB1102D07D10027102514F8010B79
:1006500002E0082500E00A250026B0460EE005FB72
:10066000080005FB06F1012701EB10461FFA80F890
:10067000B6F5803F00D3B94614F8010B294600F0C7
:1006800018F80028EBDABBF1000F05D00FB1641E9B
:1006900000E05446CBF80040B9F1000F06D000F05E
:1006A000F1F902210160C81EBDE8F09F48EA06404A
:1006B000FAE73A2800D2303820F02002412A01D34C
:1006C000A2F13700884201D34FF0FF30704770B578
:1006D0008C1810F8015B15F0070301D110F8013BED
:1006E0002A1106D110F8012B03E010F8016B01F874
:1006F000016B5B1EF9D12B0705D40023521E0DD4CC
:1007000001F8013BFAE710F8013BCB1A921C03E019
:1007100013F8015B01F8015B521EF9D5A142D8D351
:10072000002070BD70B54FF48076304604F012FEA4
:10073000114CB50560B1304604F013FE0120C5F838
:100740000803607920B90120607121680020884782
:100750004FF48276304604F0FDFD00280AD0304682
:1007600004F0FFFD0220C5F808032168BDE87040D1
:100770000120084770BD00009C00002070B54FF4B8
:100780009875284605F0BAFD104C28B1284605F0AA
:10079000BDFDA068401CA0604FF48675284605F09A
:1007A000ADFD002810D0284605F0B0FD6068401C63
:1007B0006060E1688968814206D106F04FFDE0681B
:1007C000C068BDE87040004770BD000078000020A0
:1007D00002490248091F096800680847F000002024
:1007E000F0B54FF080527F4ED2F830017E4FD2F8F4
:1007F0003411431C08D005464FEA010400234FF092
:10080000010C082D05D013E03B783578C3F30314B1
:10081000F4E72CB1012C03D0022C01D0032C07D11A
:100820004FF08044C4F80C31C4F810316F4C236091
:10083000441C04D005460C46082D05D061E03C78E8
:100840003578C4F30314F7E72CB1012C03D0022C44
:1008500001D0032C55D1664C2468664D2C60644C45
:10086000241D24682D1D2C60614C083424682D1D26
:100870002C605F4C0C3424682D1D2C605C4C1034B3
:1008800024682D1D2C605A4C143424682D1D2C60B6
:10089000574C18342468574D20352C60544C1C3468
:1008A00024682D1D2C60524C203424682D1D2C6092
:1008B0004F4C243424682D1D2C604D4C2834246862
:1008C0002D1D2C604A4C2C3424682D1D2C60484C66
:1008D00030342468474D40352C60454C343424680E
:1008E0002D1D2C60424C383424682D1D2C60404C4A
:1008F0003C3424682D1D2C603D4C403424682D1D53
:100900002C60082804D10C0002D13C4D3A4C2C60DC
:10091000082804D10C0002D1394DFB242C60082892
:1009200008D10C0006D192F85852364A146865F383
:1009300003041460082804D10A0002D1324C820159
:100940002260421C03D139783078C1F303110828A2
:100950000DD129B1012903D0022901D0032906D1E3
:100960002A480168C90702D06FF0010101602848D8
:10097000016841F470010160BFF34F8FBFF36F8FC7
:100980004FF01021D1F80002002803DBD1F8040257
:10099000002823DA1F4AC2F800C01F480468002C50
:1009A000FCD01224C1F800420568002DFCD0C1F82B
:1009B000044201680029FCD0136001680029FCD0C2
:1009C000BFF34F8F12487C380168144A01F4E0618C
:1009D00011430160BFF34F8F00BFFDE7114910487D
:1009E0000860F0BDE00F00F0E80F00F038050040AF
:1009F0000404001020C50040488103008C560040CC
:100A000018F50040E40E004040960240000400400B
:100A100088ED00E004E5014000E401400400FA052F
:100A20000090D003980100202DE9F047104E0427D4
:100A300000244FF4A0784FF4803900BF08EB840500
:100A400009FA04F0715961B1D6F80413014208D0D3
:100A50002946304605F0CEFD0648D0E9002128465B
:100A60009047641CE4B2BC42E8D3BDE8F0870000C4
:100A70000080004094080020014800680047000002
:100A8000A4000020004870479C01002002E008C834
:100A9000121F08C1002AFAD170477047002001E0F8
:100AA00001C1121F002AFBD17047000072B605F089
:100AB00009FA00BF04F0B4FF0028FBD1144D15491A
:100AC00015486A88081AC4082AB1012000EB0440BE
:100AD00012A105F0DFF814480068C00700D000BE7E
:100AE0006888022805D3022000EB04400FA105F01E
:100AF000D1F8BFF34F8F0C48E43801680F4A01F476
:100B0000E06111430160BFF34F8F00BFFDE70000BC
:100B100038020020889A0000109A00004661746133
:100B20006C206572726F7200F0ED00E0537973749F
:100B3000656D207265736574000000000400FA059D
:100B40000EB500210091CDE901106A4644F2010082
:100B5000FFF7ACFF0EBD0000014802F0B6BC00007C
:100B6000B80000203AB100680129426100D000219C
:100B700001610020704707207047000038B5114818
:100B800008235822416800910F49006803F0A8FD2E
:100B9000002815D10D4A69460D4802F09BFC04005F
:100BA0000ED101210A4802F01AFD0123094A194613
:100BB000074802F062FC0649012008390870204607
:100BC00038BD00001C840000F0080020E175000022
:100BD000B8000020FFFF7F0070B5044690F82000A9
:100BE0000D4608B1002070BDA26102F04BFE401915
:100BF00041F10001C4E90201206900B125612146EB
:100C0000BDE87040002006F075BF0146002081F865
:100C10002000012006F06EBF00F002B800F008B816
:100C200072B602480168491C01607047E800002064
:100C300003490868401E086000D162B67047000092
:100C4000E800002070B5054608680C46411C04D039
:100C500004F0AEFD206804F07BFD6068411C02D00A
:100C6000002104F063FD2968A069C1F82405607DB6
:100C7000227D29681043C1F86C05D4E90012286868
:100C8000C0F81425C0F80C15207D012814D1A068E7
:100C9000411C02D0002104F049FDE068411C04D051
:100CA00004F086FDE06804F053FDD4E902122868E0
:100CB000C0F80825C0F8101570BD70B50546086865
:100CC0000C46411C04D004F07DFD206804F04AFD70
:100CD0006068411C02D0002104F031FD2968A06940
:100CE000C1F82405607D217D2A680843C2F86C059F
:100CF000D4E900122868C0F80C15C0F81425207D2E
:100D0000012814D1A068411C02D0002104F017FD75
:100D1000E068411C04D004F055FDE06804F022FDB9
:100D2000D4E902122868C0F80825C0F8101570BD73
:100D3000F0B500220D4BCA60C1E901230C4B0D4DEB
:100D40001446EE1A0A600CE003EB0215EF683F79D7
:100D5000FF2F05D0A04202D1A8680860F0BD641C36
:100D6000521CB2EB161FEFD3F0BD0000B886000096
:100D7000F0990000109A00002DE9F0470546861C06
:100D800091460F464FF0010A0020FFF745FF1B4C2C
:100D900004F21C4860683860D4E90101184F401A19
:100DA0003968081A0EE00121404603F0E4FC03F024
:100DB000E5F90146404603F0DEFCD4E90101401AA2
:100DC0003968081A401C8642EDD8B9F1000F03D0EB
:100DD000052065F3891002E0062065F39F506168E5
:100DE0003A68114004EB8101C8606068304460607B
:100DF0000020FFF713FF5046BDE8F087E00A00200F
:100E00001C01002070B50D4604460A2902D10D21AF
:100E1000FFF7F8FFA0682268411CA1601554D4E9CF
:100E20000101814204D32046BDE8704004F041BB7B
:100E300070BD0000044881684068814201D10120F2
:100E40007047002070470000E00A002070B58168FC
:100E500004468A7F002A4DD0C87F00284AD0121A43
:100E60000844D5B200F120016A1C1F30FFF71CFBBB
:100E7000A068C17F491EC177A068817F491E817724
:100E80008DB308221C49206904F006FB204603F0BC
:100E9000FFFB8178C078814211D1A06817A2C17F81
:100EA000431808212046203304F006F8204600F0BD
:100EB00013F929462046BDE8704002F0D1B920461A
:100EC00000F01EF9204600F007F9A0680BA2C17FD0
:100ED000431808212046203303F0EEFF2046BDE8EA
:100EE000704000F003B92069BDE87040044A03A1D6
:100EF00004F0D2BA70BD0000D410000025730000C9
:100F0000F185000070B504468068827FC17F521A67
:100F100012F0FF053AD0084400F121012A462030A2
:100F2000FFF7C2FAA068817F491E8177204603F04F
:100F3000AFFB8178C078814214D1A06814A2C17F30
:100F4000431808212046203303F0B6FF114A10A1B0
:100F5000206904F0A1FA6D1EE9B22046BDE8704098
:100F600002F07EB9204600F0CBF8204600F0B4F83D
:100F7000A06807A2C17F431808212046203303F050
:100F80009BFF2046BDE8704000F0B0B870BD000087
:100F900025730000F58500002DE9F04104468068C6
:100FA0000F46D0F86411C27F11F00106817FA1EBDA
:100FB0000203DDB20BD07F2901D3002D7ED0A068C3
:100FC000C17F0844002180F8207066B113E07F29BA
:100FD0007CD2002DF3D0831803F120012A46481C4F
:100FE000FFF762FAEBE7A068827F521CD2B28277E9
:100FF000A068203281544DB3204603F049FB81782C
:10100000C07881420ED1A06831A2C17F4318082167
:101010002046203303F050FFA81BC1B2204602F047
:101020001FF921E0204600F06BF8A06828A2C17FDC
:10103000431808212046203303F03EFF204600F0ED
:1010400055F80121204602F0E5F90DE03EB1A06817
:10105000827F521CD2B28277A068203281543A46F5
:101060001CA1206904F018FAA168C87F401CC87749
:10107000204602F0E2F80028204603D0BDE8F04107
:1010800002F0FAB802F0B7FB00281FD0204603F0A8
:10109000FFFA0546C078A978401A401EC1B2204622
:1010A00002F06CF8204602F0E7F8E878A978401AD8
:1010B000C1B2204602F0BAF9287800E006E0401EEE
:1010C000C1B22046BDE8F04102F0A4B9BDE8F0810C
:1010D00025730000256300000069024A02A104F0A4
:1010E000DBB90000E9850000257300000069024AB1
:1010F000024904F0D1B90000E3850000E8100000C7
:101100000069024A024904F0C7B90000E085000006
:10111000E81000002DE9F04F4FF0000995B00546AA
:101120004F464C4601F0BAFE284602F0D7FC28464E
:1011300002F030F8284602F080F810B9284602F094
:101140009BF8AA680C2301A90EA8203203F07AF9B3
:1011500003460E9840B15BB149A20221284603F034
:10116000ABFE15B0BDE8F08F284602F085F8F8E731
:10117000494848490026A1EB00080DF1040A8346BE
:1011800013E008D345A0009049A202212846019B04
:1011900003F092FEE5E70BEBC604606801685AF8BD
:1011A0002900FFF7BAF918B1761CB6EBD80FE8D9C9
:1011B0004FF000000F90A96848608860C86008611F
:1011C0006168C86828B14AC9AA68C2E90360C2E96F
:1011D0000113606809F101044FF00006D0F808809F
:1011E0000E98844235D25AF8240033A1FFF795F9BE
:1011F00040B35AF8240031A1FFF78FF910B310A8BB
:1012000032460090761C0FAB2146404600F0BEFEF1
:10121000FEB10F98E8B101685AF82400FFF77DF994
:101220000028DDD10F98C16839B190E84810AA684C
:101230002746C2E903C1C2E901360026641CD0F882
:101240000880CDE7A868D0F8641141F00201C0F829
:101250006411A868036933B10E980AEB8702C11BB9
:101260002846984704E017A20221284603F024FEEE
:10127000A868D0F8641121F00201C0F8641170E789
:101280006E6F74207465726D696E617465643A2066
:1012900025630A00F0990000389900003A20636F36
:1012A0006D6D616E64206E6F7420666F756E640084
:1012B000257325730A0000002D6800002D2D686538
:1012C0006C700000506C65617365207370656369B4
:1012D0006679206120737562636F6D6D616E642E37
:1012E0000A0000008068D0F86401C0F3C0007047B5
:1012F0002DE9F0410446C0688EB00D4640680026D6
:101300003246006801A904F0BBFE18B100200EB0FF
:10131000BDE8F0816DB1019804F092FEA168D1F8AA
:101320005401401CC1F8540100F0070001287AD193
:101330000126204603F0ACF905468078012804D93F
:10134000401EC1B2204602F071F82878012804D965
:10135000401EC1B2204601F083FF2046FFF7BCFECD
:101360002EB132A20221204603F0A6FD5BE04FF031
:1013700000080023082202A9019804F070FE0498D6
:101380000590BDF80C00ADF81800BDF80E00ADF8E2
:101390001A008DF81D800298082700F0030001282C
:1013A00002D0022818D032E002983B46860AC0F3E9
:1013B000C2008DF81C00029808A9C0F38315AA008A
:1013C000019804F04CFE2069009005AB2A4608A95C
:1013D000304604F08BFD1AE00298850DC0F3C20080
:1013E0008DF81C00082D01D22E4600E008263B4651
:1013F000324608A9019804F032FE3744AD1B05AA15
:10140000314608A8236904F051FC002DEAD1019867
:1014100004F016FEE068002201A94068006804F0AC
:101420002FFE0028A5D0012071E700004C6F7374D7
:10143000206C6F6773202D20696E63726561736520
:10144000206C6F67206261636B656E6420717565E7
:1014500075652073697A652E0A00000030B4406813
:1014600004682469A44630BC60472DE9FC4100268D
:1014700004460127019601AB012269462046FFF789
:10148000EDFF0198002836D09DF800007F28F2D8A3
:1014900004F0F5FDA068417821B101296FD002293F
:1014A0006ED18DE09DF800500D2D09D00A2D07D08A
:1014B000D0F86421002161F38D12C0F8642122E08C
:1014C000D0F86411C1F3871129B1D0F86411C1F3C8
:1014D0008711A94217D1D0F8641165F38D11C0F8B6
:1014E0006411A068817F41B12046FFF713FE0221FD
:1014F000204600F0F5F8BDE8FC81C0F860612046A8
:1015000001F0BAFEF3E7092D1ED004DC002DB2D0A5
:10151000082D04D121E01B2D12D07F2D26D0FEF7FF
:1015200071FF0068405D10F03E0FA4D02046FFF729
:10153000D9FE30B39DF800102046FFF72DFD9AE745
:10154000A1680120487096E72046FFF7CBFE0028EF
:1015500091D0204600F0DEF88DE72046FFF7C2FE6E
:10156000002888D02046FFF771FC84E72046FFF76B
:10157000B9FE0028E3D02046FFF7C4FC7BE716E065
:1015800019E0A1689DF80020887F7F28D7D2C87F06
:101590000B18401CC87783F82020A068C17F08443E
:1015A00080F82060A168887F401C887763E79DF8F9
:1015B00000105B2901D0002100E0022141705AE7B0
:1015C000002141702046FFF78DFE002893D09DF842
:1015D0000000422840D01BDC33287CD012DC3128AC
:1015E00072D03228ABD1A16803204870A068D0F82F
:1015F0006411D0F8642127EA010161F30002C0F808
:10160000642138E7342856D0412898D1012124E0BC
:10161000462853D01BDC432823D044288FD12046B2
:1016200003F036F805460078A979491C884202D1B2
:10163000A978012987D001284FF0010120462FD039
:1016400001F00EFEA168C87F401EC87713E7482846
:101650003DD04C2889D1C9E70021204602F02CF961
:1016600009E7204603F014F80546007869788842B7
:1016700003D1A978EA78914298D0697988424FF0ED
:101680000101204606D101F079FD6979204601F07B
:10169000E7FD01E001F0BEFEA168C87F401CD4E771
:1016A00001F0C4FE6979204601F0B4FEA068C17F54
:1016B000491EC177DFE6A16803204870204601F08B
:1016C00069FDD8E607E0FFE7A168032048702046DF
:1016D00001F089FDCFE6A1680320487046E70000CD
:1016E0008268022911700CD18268002182F82010D2
:1016F0008268D1778268917702A20321036803F0A0
:10170000DBBB704725730000002801D0FEF7FEBE4A
:10171000704700002DE9F04F05460020A7B00746AE
:101720001590064620900690A868817FC1F17F0140
:10173000C9B25FEA010970D0C27F00F12001A03078
:10174000FEF7B2FEA8680024C17F084480F8A040DC
:10175000FEF758FE21900168A8680C23C27F02445E
:10176000D27F895CC0F86041AA6801F0010A07A92C
:1017700016A8A03202F066FE0798FFF7C5FF00F03A
:10178000FF08A34617941894169818B15044401EA9
:10179000B0426CD8BAF1000F01D0002005E007A8D4
:1017A00050F82600FFF7B0FFC0B28046002419A809
:1017B00022460090641C17AB3146584600F0E6FB09
:1017C000179800286CD0016807A8424650F82600F8
:1017D00002F0D2FA0028EAD018987F1CF0B11798CE
:1017E0000068FFF791FF0699C0B2884200D90690C1
:1017F000B9F1000F2ED022A8009018AB3146584600
:10180000159A00F0C3FB17980168189801EB0802BD
:101810000168002001EB080316E08DE0601E2090B7
:1018200017980068FFF770FFC0B20690A0EB0800A1
:1018300048450FDAC0B20CE013F800C0614506D18C
:10184000401C10F0FF0010D0115C0029F4D181453C
:1018500000D98146601E159017981890A7D266A2ED
:101860000421284603F028FB1AE0FF20EFE70024BC
:1018700019A822460090641C17AB3146584600F068
:1018800085FBECB31798002856D0016807A850F8DC
:101890002600FEF742FE0028EAD11798D0F808B0DB
:1018A000BBF1000F09D0179838B11699761CF6B223
:1018B00001EB0A008642FFF467AF002F3CD0012FF6
:1018C00043D000212846069A05F04CFB209C0DF1E0
:1018D0001C0A19A822460090641C17AB31465846D2
:1018E00000F054FB1798424601685AF8260002F0AF
:1018F00043FA40B117987F1E069A0168284600E017
:101900001DE005F02FFB002FE3D146A2032128465E
:101910002B6803F0D1FAAB6843A208212846203394
:1019200003F0CAFA284601F03FFD18984A460168BC
:101930002846414401F0D8FB27B0BDE8F08F2EA225
:101940000421284603F0B8FAF6E79BF8000038B106
:1019500019A8009018AB31465846159A00F016FBAE
:1019600018980068FFF7D0FE404506D018984A4600
:1019700001682846414401F0B7FB2198A968026834
:10198000C87F0B1893F82030D25CD20715D0897F1E
:101990008842D1D2284602F07BFE8478A868C17FB5
:1019A000491CC177284602F073FE8078A0421FD1FF
:1019B0000121284601F02EFDBEE7D1F86401C007E1
:1019C00011D0D1F8640120F00100C1F86401202198
:1019D0002846FFF7E1FAA868D0F8641141F0010148
:1019E000C0F86411A8E720212846FFF7D5FAA3E73D
:1019F000284601F041FC9FE75461622066756E63E2
:101A000074696F6E3A20636F6D6D616E64732063ED
:101A10006F756E746572206F766572666C6F776530
:101A2000642E0A000A25730025730000002806D0E2
:101A30008868D0F8641141F02001C0F86411704743
:101A400070B5044640680D4690F8280030B1A06893
:101A50000068FFF7DAF808B108280CD1012685B133
:101A6000606903F00DFD616800220831606903F0D0
:101A7000C3FC08B1062070BD606880F829600020B2
:101A800070BD606890F8280048B9074A0021A06836
:101A9000FFF768F86168002881F82860F0D12046D7
:101AA000BDE8704005F078BE5D7A000070B5044670
:101AB00040680D460260606800224360606880F8FC
:101AC0002820606880F82920606820220830FEF70E
:101AD000EBFC2C61074A2946606903F08DFC050088
:101AE00005D1E06804F030FD206904F02DFD2846A2
:101AF00070BD0000F17B00001A60C0681A4604F057
:101B000061BC10B50446406903F0BAFCA0680068E7
:101B1000BDE81040FFF779B87CB51A60044600694B
:101B20001A4604F08DFC050025D16069134A01783E
:101B3000515C19B1001D05F083F902E00C3004F08E
:101B4000E3FFC0B9FF20009001236A4601A9206984
:101B500004F0C2FC78B900980199C2B2606903F040
:101B60007FFC0546606890F8290020B11DB9206906
:101B7000009904F09EFC28467CBD000088000020EF
:101B80002DE9F8431E4615468846074600241BE00B
:101B9000786808EB04016B460268D2F80CC02A464C
:101BA000E047009804442D1A70B9B86801780329F9
:101BB0000AD000BFD0F864118906FBD5D0F86411B3
:101BC00021F02001C0F86411002DE1D1002E01D0D8
:101BD00000983060BDE8F88370B5084C050009D066
:101BE00010342168002907D0086820604968284619
:101BF0008847F6E70834F4E770BD0000800800204D
:101C0000054A012120B1012805D19170FFF7E4BFF9
:101C100051700020FAE7704780080020034A032132
:101C200003A3517009A203F047B900006800002027
:101C30004E52465F524144494F5F4D4F44455F42CB
:101C40004C455F314D4249540000000044617461CD
:101C500020726174653A2025730D0A00034A04213D
:101C600003A3517009A2032103F026B968000020E4
:101C70004E52465F524144494F5F4D4F44455F428B
:101C80004C455F324D42495400000000446174618C
:101C900020726174653A2025730D0A00034A0F21F2
:101CA00003A351700BA2032103F006B968000020C2
:101CB0004E52465F524144494F5F4D4F44455F4944
:101CC0004545453830323135345F3235304B424945
:101CD000540000004461746120726174653A2025EB
:101CE000730D0A00034A052103A351700AA20321C0
:101CF00003F0E2B8680000204E52465F524144496A
:101D00004F5F4D4F44455F424C455F4C5231323539
:101D10004B424954000000004461746120726174B8
:101D2000653A2025730D0A00034A062103A351706A
:101D30000AA2032103F0C0B8680000204E52465F9B
:101D4000524144494F5F4D4F44455F424C455F4CC3
:101D5000523530304B4249540000000044617461F8
:101D600020726174653A2025730D0A0010B504468F
:101D700003F008FA30B120460022BDE810401146B9
:101D800003F0C2B8BDE8104005F058BB70B514466A
:101D90000D460646012902D003F0F4F930B1304671
:101DA000BDE870400022114603F0AEB8022D02D902
:101DB00006A2236802E008D163680BA23046BDE8A2
:101DC00070404FF0020103F077B870BD25733A20E0
:101DD00062616420706172616D6574657273206305
:101DE0006F756E742E0D0A00556B6E6F776E2061E5
:101DF0007267756D656E743A2025732E0D0A0000AA
:101E000070B514460E460546012902D003F0BAF912
:101E100030B12846BDE870400022114603F074B886
:101E2000022E07D928462368BDE8704016A2022179
:101E300003F042B86068FEF796FB642806D928468E
:101E4000BDE8704017A2032103F036B81F4CE060D4
:101E5000E178284601F086FE1D48002101604160BE
:101E6000C1600521017061784170A178017121780C
:101E70004171E1788171E168816005F033FB0120F7
:101E8000211F087070BD000025733A206261642034
:101E9000706172616D657465727320636F756E74C5
:101EA0002E0D0A0044757479206379636C65206D8A
:101EB000757374206265206265747765656E203184
:101EC00020616E642039392E0D0A00006800002060
:101ED0007006002070B514460D460646012902D052
:101EE00003F050F930B13046BDE870400022114691
:101EF00003F00AB8022D03D90CA20221236810E0D6
:101F00006068FEF730FB0346502806D93046BDE82E
:101F100070400DA2022102F0CFBF144814A2032189
:101F200003713046BDE8704002F0C6BF25733A2009
:101F300062616420706172616D65746572732063A3
:101F40006F756E742E0D0A004368616E6E656C20AD
:101F50006D757374206265206265747765656E20A7
:101F60003020616E642038302E0D0A006800002099
:101F7000456E64206368616E6E656C2073657420C5
:101F8000746F3A2025642E0D0A0000002DE9F05FE1
:101F90001C460A9E15464FF0000959B180B30178DE
:101FA00039B342683146284690473068D8B1266038
:101FB000BDE8F09F14491548A1EB0008B5EBD80F18
:101FC00011D2DFF84CA00026834609E00BEBC607D0
:101FD000786801685AF82500FEF79FFA30B1761C40
:101FE000B6EBD80FF2D3C4F80090E1E77868206030
:101FF000DEE7406800EB0210016809B11860D7E71E
:10200000FFE7C3F80090D3E7F0990000389900008B
:10201000A0010020034AF42103A3917009A2032127
:1020200002F04ABF680000204E52465F52414449C8
:102030004F5F5458504F5745525F4E4547313244D9
:10204000424D0000545820706F7765723A20257316
:102050000D0A0000034AF02103A3917009A2032195
:1020600002F02ABF680000204E52465F52414449A8
:102070004F5F5458504F5745525F4E454731364495
:10208000424D0000545820706F7765723A202573D6
:102090000D0A0000034AEC2103A3917009A2032159
:1020A00002F00ABF680000204E52465F5241444988
:1020B0004F5F5458504F5745525F4E45473230445A
:1020C000424D0000545820706F7765723A20257396
:1020D0000D0A0000034AE22103A3917009A2032123
:1020E00002F0EABE680000204E52465F5241444969
:1020F0004F5F5458504F5745525F4E454733304419
:10210000424D0000545820706F7765723A20257355
:102110000D0A0000034AD82103A3917009A20321EC
:1021200002F0CABE680000204E52465F5241444948
:102130004F5F5458504F5745525F4E4547343044D7
:10214000424D0000545820706F7765723A20257315
:102150000D0A0000034AFC2103A3917009A2032188
:1021600002F0AABE680000204E52465F5241444928
:102170004F5F5458504F5745525F4E454734444285
:102180004D000000545820706F7765723A20257317
:102190000D0A0000034AF82103A3917009A203214C
:1021A00002F08ABE680000204E52465F5241444908
:1021B0004F5F5458504F5745525F4E454738444241
:1021C0004D000000545820706F7765723A202573D7
:1021D0000D0A0000034A002103A3517009A2032144
:1021E00002F06ABE680000204E52465F52414449E8
:1021F0004F5F4D4F44455F4E52465F314D4249540B
:10220000000000004461746120726174653A202509
:10221000730D0A00034A012103A3517009A203218F
:1022200002F04ABE680000204E52465F52414449C7
:102230004F5F4D4F44455F4E52465F324D424954C9
:10224000000000004461746120726174653A2025C9
:10225000730D0A0070B514460D460646012902D0DA
:1022600002F090FF30B13046BDE8704000221146C8
:1022700002F04ABE022D02D906A2236802E008D16C
:1022800063680BA23046BDE870404FF0020102F0D7
:1022900013BE70BD25733A20626164207061726163
:1022A0006D657465727320636F756E742E0D0A0010
:1022B000556B6E6F776E20617267756D656E743ADF
:1022C0002025732E0D0A0000034A022103A311707A
:1022D00009A2032102F0F0BD680000205452414ED3
:1022E000534D49545F5041545445524E5F31313043
:1022F00030313130300000005472616E736D69739B
:1023000073696F6E207061747465726E3A20257304
:102310002E0D0A00034A012103A3117009A2032113
:1023200002F0CABD680000205452414E534D49543A
:102330005F5041545445524E5F313131313030306D
:10234000300000005472616E736D697373696F6E53
:10235000207061747465726E3A2025732E0D0A0028
:10236000034A002103A3117008A2032102F0A4BDB7
:10237000680000205452414E534D49545F5041541F
:102380005445524E5F52414E444F4D005472616E5F
:10239000736D697373696F6E207061747465726EAA
:1023A0003A2025732E0D0A00034A002103A39170E1
:1023B00008A2032102F080BD680000204E52465F53
:1023C000524144494F5F5458504F5745525F304433
:1023D000424D0000545820706F7765723A20257383
:1023E0000D0A0000034A022103A3917009A20321F0
:1023F00002F062BD680000204E52465F52414449DF
:102400004F5F5458504F5745525F504F53324442DC
:102410004D000000545820706F7765723A20257384
:102420000D0A0000034A032103A3917009A202F0E0
:1024300043BD0000680000204E52465F52414449AF
:102440004F5F5458504F5745525F504F533344429B
:102450004D000000545820706F7765723A20257344
:102460000D0A0000034A042103A3917009A203216D
:1024700002F022BD680000204E52465F524144499E
:102480004F5F5458504F5745525F504F533444425A
:102490004D000000545820706F7765723A20257304
:1024A0000D0A0000034A052103A3917009A203212C
:1024B00002F002BD680000204E52465F524144497E
:1024C0004F5F5458504F5745525F504F5335444219
:1024D0004D000000545820706F7765723A202573C4
:1024E0000D0A0000034A062103A3917009A20321EB
:1024F00002F0E2BC680000204E52465F524144495F
:102500004F5F5458504F5745525F504F53364442D7
:102510004D000000545820706F7765723A20257383
:102520000D0A0000034A072103A3917009A20321A9
:1025300002F0C2BC680000204E52465F524144493E
:102540004F5F5458504F5745525F504F5337444296
:102550004D000000545820706F7765723A20257343
:102560000D0A0000034A082103A3917009A2032168
:1025700002F0A2BC680000204E52465F524144491E
:102580004F5F5458504F5745525F504F5338444255
:102590004D000000545820706F7765723A20257303
:1025A0000D0A00003EB5054602F0ECFD38B103B05F
:1025B0002846BDE830400022114602F0A5BC42A2E8
:1025C0000321284602F078FC434C6378042B24D086
:1025D00005DC63B1012B0CD0032B06D11BE0052BCE
:1025E0001DD0062B1DD00F2B1DD03CA203E045A310
:1025F00000E04BA351A20321284602F05DFCA37822
:10260000082B22D011DC082B1DD2DFE803F0391C87
:10261000333735312F204DA3ECE753A3EAE759A315
:10262000E8E760A3E6E767A3E4E7F42B2ED006DC37
:10263000D82B31D0EC2B2DD0F02B04D128E0F82B67
:1026400022D0FC2B1ED068A203E06DA300E073A390
:1026500079A20321284602F02FFC2378002B1DD0FD
:10266000012B1DD0022B2DD077A21BE07FA3EFE71B
:1026700085A3EDE78BA3EBE791A3E9E797A3E7E752
:102680009DA3E5E7A2A3E3E7A8A3E1E7AEA3DFE705
:10269000B4A3DDE7BAA3DBE7C0A3D9E7C6A300E094
:1026A000CBA3D2A20321284602F006FCD4E90212F1
:1026B00020798DE80700E378D34A0321284602F009
:1026C000FBFB3EBDD1A3ECE7506172616D657465A3
:1026D00072733A0D0A0000006800002044617461C2
:1026E000207261746520756E6B6E6F776E206F72ED
:1026F00020646570726563617465643A20256C7549
:102700000A0D00004E52465F524144494F5F4D4F03
:1027100044455F4E52465F314D424954000000002F
:102720004E52465F524144494F5F4D4F44455F4EC4
:1027300052465F324D4249540000000044617461CA
:1027400020726174653A2025730D0A004E52465F6F
:10275000524144494F5F4D4F44455F424C455F31C4
:102760004D424954000000004E52465F52414449D8
:102770004F5F4D4F44455F424C455F324D42495497
:10278000000000004E52465F524144494F5F4D4F9A
:1027900044455F424C455F4C523132354B424954BF
:1027A000000000004E52465F524144494F5F4D4F7A
:1027B00044455F424C455F4C523530304B424954A2
:1027C000000000004E52465F524144494F5F4D4F5A
:1027D00044455F494545453830323135345F3235FF
:1027E000304B424954000000545820706F77657296
:1027F00020756E6B6E6F776E3A20256400000000C6
:102800004E52465F524144494F5F5458504F5745CE
:10281000525F504F533844424D0000004E52465FC5
:10282000524144494F5F5458504F5745525F504FA3
:10283000533744424D000000545820706F77657242
:102840003A2025730D0A00005472616E736D69732E
:1028500073696F6E207061747465726E20756E6B33
:102860006E6F776E3A202564000000004E52465F7E
:10287000524144494F5F5458504F5745525F504F53
:10288000533644424D0000004E52465F5241444987
:102890004F5F5458504F5745525F504F5335444245
:1028A0004D0000004E52465F524144494F5F54581C
:1028B000504F5745525F504F533244424D00000035
:1028C0004E52465F524144494F5F5458504F57450E
:1028D000525F504F533444424D0000004E52465F09
:1028E000524144494F5F5458504F5745525F504FE3
:1028F000533344424D0000004E52465F524144491A
:102900004F5F5458504F5745525F3044424D00007E
:102910004E52465F524144494F5F5458504F5745BD
:10292000525F4E45473444424D0000004E52465FD0
:10293000524144494F5F5458504F5745525F4E459E
:10294000473844424D0000004E52465F52414449D0
:102950004F5F5458504F5745525F4E4547313244B0
:10296000424D00004E52465F524144494F5F545819
:10297000504F5745525F4E4547313644424D000057
:102980004E52465F524144494F5F5458504F57454D
:10299000525F4E4547323044424D00004E52465F32
:1029A000524144494F5F5458504F5745525F4E452E
:1029B00047343044424D00005452414E534D495427
:1029C0005F5041545445524E5F52414E444F4D006A
:1029D0005452414E534D49545F5041545445524E08
:1029E0005F31313131303030300000005472616E6F
:1029F000736D697373696F6E207061747465726E44
:102A00003A2025730D0A0000509000005452414EA8
:102A1000534D49545F5041545445524E5F3131300B
:102A200030313130300000003EB5054602F0AAFBDF
:102A300028B100221146284602F066FA3EBD002069
:102A4000009001900290684604F0AEFC0CA20321B5
:102A5000284602F031FA002407E000980DA2032175
:102A6000035D284602F028FA641C0198A042F4D8BD
:102A70000BA203212846029B02F01EFA3EBD000075
:102A80005265636569766564207061796C6F616415
:102A90003A0D0A00446174613A2025640D0A000071
:102AA0004E756D626572206F66207061636B657430
:102AB000733A2025640D0A0070B5064602F062FBE9
:102AC00030B13046BDE870400022114602F01CBA19
:102AD0000E4C0025207810B104F0B0FC25700B4C92
:102AE0003046241DE17801F03DF8094802210560D7
:102AF00045608560C560017061784170E178417121
:102B000021780171BDE8704004F0ECBC6400002045
:102B10007006002010B5044602F034FB30B12046A8
:102B20000022BDE81040114602F0EEB90E49002027
:102B30000E4A08604860C8600420087050784870E9
:102B4000D07808711079487190688860084604F060
:102B5000C9FC06490120091F05A208702046BDE8EE
:102B60001040032102F0A8B9700600206800002080
:102B700052582073776565700D0A000070B51446D1
:102B80000D460646012902D002F0FCFA30B130466B
:102B9000BDE870400022114602F0B6B9022D03D9FB
:102BA0000CA20221236810E06068FDF7DCFC0346FC
:102BB000502806D93046BDE870400DA2022102F02F
:102BC0007BB9144814A20321C3703046BDE870409D
:102BD00002F072B925733A206261642070617261FB
:102BE0006D657465727320636F756E742E0D0A00C7
:102BF0004368616E6E656C206D757374206265202C
:102C00006265747765656E203020616E64203830AF
:102C10002E0D0A00680000205374617274206368EE
:102C2000616E6E656C2073657420746F3A20256444
:102C30002E0D0A0070B514460D460646012902D035
:102C400002F0A0FA30B13046BDE8704000221146D3
:102C500002F05AB9022D03D90CA20221236810E018
:102C60006068FDF780FC0346632806D93046BDE85E
:102C700070400DA2022102F01FB9164816A20321CE
:102C800083603046BDE8704002F016B925733A20E3
:102C900062616420706172616D6574657273206336
:102CA0006F756E742E0D0A0044656C61792074692D
:102CB0006D65206D7573742062652062657477653B
:102CC000656E203020616E64203939206D732E0DC1
:102CD0000A0000006800002044656C617920746976
:102CE0006D652073657420746F3A2025642E0D0A7B
:102CF000000000007FB514460D460646012902D0AB
:102D000002F040FA38B104B03046BDE8704000220D
:102D1000114602F0F9B8022D05D912A2022130465F
:102D2000236802F0C9F86068FDF71DFC044601281D
:102D300004D913A20221304602F0BEF8E0B204F03A
:102D4000F5FE174B1B68164A0832126815A11FA022
:102D50008DE80F0028A32EA20321304602F0ACF824
:102D60007FBD000025733A2062616420706172614A
:102D70006D657465727320636F756E740D0A000063
:102D8000496E76616C696420444344432076616CEB
:102D900075652070726F76696465640A0D000000C5
:102DA0007805004057726974652027312720746FB9
:102DB00020746F67676C65207374617465206F663B
:102DC0002044434443205245473100005772697400
:102DD000652027302720746F20746F67676C65202B
:102DE0007374617465206F662044434443205245E8
:102DF00047300D0A00000000444344432052454739
:102E00003120737461746520256C750D0A00000013
:102E10004443444320524547302073746174652015
:102E2000256C750D0A00000070B514460D46064667
:102E3000012902D002F0A6F930B13046BDE8704059
:102E40000022114602F060B8022D02D906A22368C2
:102E500002E008D163680BA23046BDE870404FF035
:102E6000020102F029B870BD25733A206261642026
:102E7000706172616D657465727320636F756E74D5
:102E80002E0D0A00556B6E6F776E20617267756D3F
:102E9000656E743A2025732E0D0A00002DE9F0416D
:102EA00085680646002495F82000002811D0A04629
:102EB000FDF7A8FA0746006804F1200104F10104B7
:102EC000695CE4B2415CC90705D0002CF4D185F8F7
:102ED0002080BDE8F081641E14F0FF040FD0A87FAD
:102EE000021B04F12000291805F12000521CFDF7F7
:102EF000DBFAB168887F001B8877B168C877B26851
:102F00003D68937FD0181F300446002102E0491C21
:102F1000C9B2401E0778EF5DFF07F8D18442D8D0D0
:102F20005B1A203302F80380B268907F401A9077D2
:102F3000B168C877CDE7000070B5064602F022F907
:102F400030B13046BDE870400022114601F0DCBFD0
:102F5000114C0025207810B104F070FA25700E4C49
:102F60003046241DE17800F0FDFD0C490D604D60F8
:102F70008D60CD600D7060784870A0780871E07841
:102F80004871084604F0AEFA3046BDE8704004A22D
:102F9000032101F091BF00006400002070060020B2
:102FA0005374617274207468652054582063617290
:102FB000726965722E0D0A002DE9F04717468846A2
:102FC000814602F0DFF830B14846BDE8F047002204
:102FD000114601F099BF174C0026207810B104F07B
:102FE0002DFA2670134D48462D1DE97800F0BAFDE4
:102FF000114C0120B8F1020F26606660A660E66001
:10300000207068786070A8782071E878A0712878BE
:10301000607105D17868FDF7A6FAA0600748E06006
:10302000054804F05FFA4846BDE8F04704A20321D2
:1030300001F042BF6400002070060020A57B000064
:10304000537461727420746865206D6F64756C616F
:1030500074656420545820636172726965722E0D24
:103060000A00000010B5044602F08CF830B120468A
:103070000022BDE81040114601F046BF0F49002074
:103080000F4A08604860C860032008705078487094
:10309000D07848711079887190688860907808714C
:1030A000084604F01FFA06490120091F05A208700E
:1030B0002046BDE81040032101F0FEBE700600204E
:1030C0006800002054582073776565700D0A000071
:1030D00010B5D0E90234D1E90220D11AA04101D3C0
:1030E000012010BD002010BD2DE9F041044680688C
:1030F00015460F46827FC17F531A2A44DEB27F2ACB
:1031000037D8002D35D0084400F1200105F1200208
:103110001044721CFDF7C8F9A0682A46C17F084414
:1031200039462030FDF7C0F9A0682030FEF7ECFAF0
:10313000A16811A28877A068C17F431808212046A2
:10314000203301F0B9FEA068C17F2944C177204631
:1031500000F073F818B9204600F04DFB10B120467E
:1031600000F08AF8002E04D02046BDE8F04100F0BF
:103170001BB9BDE8F081000025730000002904D0D0
:103180000A46006901A102F087B970471B5B2564FC
:103190004200000070B5054601F07AFA0446007856
:1031A0006178884203D1A078E17888421AD0E1782A
:1031B000A078814204D9081AC1B22846FFF7DEFF81
:1031C00020786178884205D9401AC1B2284600F0BB
:1031D00047F804E0081AC1B2284600F01BF9A868B5
:1031E000817FC17770BD70B5054601F051FA044684
:1031F00001788079401C814202D1A07801281BD03F
:10320000A078012804D9401EC1B2284600F00EF96A
:103210002078A179884206D9401A401EC1B22846BA
:1032200000F01EF805E0081A401CC1B2284600F064
:10323000F1F8A9680020C87770BD10B50446006891
:10324000FEF762FA0146A068C27F407E1144B1FBDE
:10325000F0F200FB121008B1002010BD012010BDDB
:10326000002904D00A46006901A102F015B970478F
:103270001B5B256444000000006901A102F00CB949
:103280000A0000002DE9FC47002604468DF8046082
:1032900080683546B146B0468021A030FDF72BF955
:1032A0004049206902F0F8F8206902F002F900278D
:1032B0006B46012201A92046FEF7D0F80098D8B14C
:1032C0009DF804001B2806D0A16891F8A0101B29C6
:1032D000EED152281FD0A26808F1A001505408F185
:1032E000010000F0FF08B8F1090F0AD9A168042015
:1032F00081F8A090BDE8FC872A494FF6C010103134
:10330000884700980028D3D17F1CBFB2B7F57A7FD9
:10331000CED30D20EEE7A16808F1A0004A4601F8DF
:103320000090A16891F8A1005B2803D081F8A0204B
:103330000B20DFE702206FF02F0309E005EB850586
:1033400003EB4505401C3D44C0B2ADB2802808D215
:1033500000F1A007CF5D3B2FF0D1401CC0B2802808
:1033600009D30C20C6E700BF06EB860603EB460632
:103370003E44B6B2F1E700F1A007CF5D002FF3D1D4
:10338000FA20FA2E01D9087500E00E75FA2D02D93F
:10339000A168887501E0A0688575A06880F8A02004
:1033A0000020A7E70186000070B5054601F070F91E
:1033B00004468078E178884201D1012600E00026A9
:1033C0002846FFF73AFF18B9284600F014FA10B162
:1033D0002846FFF751FF1EB160782178401A12E0AD
:1033E000E078A178401AC1B2284600F01FF8207892
:1033F0006178884206D9401AC1B22846BDE87040BB
:1034000000F008B8081AC1B22846BDE87040FFF7BE
:1034100027BF0000002904D00A46006901A102F07C
:103420003BB870471B5B256443000000002904D0B3
:103430000A46006901A102F02FB870471B5B2564A2
:103440004100000010B50021024801F0AAF980F304
:10345000100010BDFC0E00204FF480328A4001683D
:10346000C1F848230068C0F8082370474FF4A072E1
:1034700002EB810189B200F03AB92DE9F04105462D
:103480000E464FF4A07000EB860081B228684FF41E
:103490008034B440984622F07F47C0F8084328683B
:1034A000C0F84843286803F075F8286800EB8600E8
:1034B000C0F840752868C0F84443B8F1000F02D046
:1034C0002868C0F80443BDE8F0810068D0F804051E
:1034D0007047000070B54379274C2A4D44F82320EB
:1034E0004279231D03EBC202254C1679234A121B95
:1034F000D40846B16888082602283AD3022000EB97
:10350000044021A133E006680A88C6F8082590F92E
:1035100004208978002A4FEA411104DB02F1E022FD
:1035200082F8001405E002F00F0202F1E02282F8B6
:10353000141D90F904100122002909DB01F01F0677
:1035400002FA06F64909890001F1E021C1F800619B
:103550004179002603EBC1010A71417943F831003A
:103560006888032805D3032000EB04400FA102F074
:1035700091FB304670BD0000EC000020589A00001E
:10358000109A00002002002052544320696E737488
:10359000616E636520616C726561647920696E6932
:1035A0007469616C697A65642E0000005254433A74
:1035B00020696E697469616C697A65642E00000027
:1035C00090F90400002809DB00F01F02012191405E
:1035D0004009800000F1E020C0F8001270470A4660
:1035E000022100F07BB84FF4827100F080B80068CF
:1035F00001210160704700680121416070472DE999
:10360000F05F07460C464FF4A07000EB84001FFAF1
:1036100080FA38684FF48036A6409B4622F07F45FA
:10362000C0F848633868C0F808633868D0F8048583
:1036300000EB8402D2F84095C2F8408551463868C4
:1036400002F0A8FFA9EB080020F07F40012806D176
:10365000102003F02FF85146386802F09BFF3868BD
:10366000D0F80485C0F84463A5EB080121F07F4140
:103670003868012900EB840010D0C0F84055386844
:10368000D0F804156FF07F4C6A1A521E22F07F4268
:10369000ACEB0B03934217D362B118E06D1CC0F87A
:1036A0004055102003F006F83868D0F8040540456E
:1036B0000AD10CE000EB84006D1CC0F8405538685E
:1036C000D0F80405884202D00D20BDE8F09F012209
:1036D0003146384600F002F80020F6E70368C3F8E8
:1036E0004413002A02D00068C0F80413704710B5D4
:1036F000006842581AB102F04DFF012010BD0020B1
:1037000010BD00002DE9F05F17460E00814670D015
:1037100013B1F9B2FFF77EFE0024FCF773FE824678
:10372000006800E0641C315D415CC907FAD10025E6
:103730003046FDF7E9FFD9F80810001B4A7ED11B7F
:10374000814228D306EB040805E000BF18F80510F5
:103750000A290CD06D1C8542F8D33119D9F8100014
:1037600001F09AFE4846BDE8F05FFFF785BDD9F845
:10377000100001F09EFE414600232A464846FEF70F
:10378000FFF92C444846641CFFF776FDF9B2484621
:10379000FFF740FEE1E78B46DAF8001006EB04087D
:1037A00018F805000B5CDB0702D0AB460A2804D0F2
:1037B000E819904201D26D1CF2E7D9F8100001F02F
:1037C00078FE414600235A464846FEF7D9F95C4444
:1037D000DAF8000000E0641C315D415CC907FAD1F1
:1037E0004846FFF749FDF9B24846FFF713FE9EE74A
:1037F000FFE7BDE8F09F10B504460068FDF784FFC1
:103800000146A068827F407E1144B1FBF0F200FBCC
:10381000121008B1002010BD012010BDF8B50C46F3
:10382000054603F081FC134B0F2D0AD0FF201870C2
:103830000020114A014634B1022C0DD0012C0DD0CC
:103840000FE07E20F3E71160156800951568002DE4
:10385000FCD00A4D2D6802E0CC2500E0F0251E18B2
:103860007570401CC0B2FF28E5D3054901480860C7
:10387000F8BD00008006002000D1004008D50040BF
:103880000415004010B50B48FFF71FFE094A083A1F
:10389000D2E90434C018D2E9063244F10001C31A57
:1038A00071EB020204D24FF08072801841F10001E6
:1038B00010BD0000B8000020FEB5002604460096AA
:1038C000019602968068E9B3D0E957128A4272D015
:1038D000D0F8580100286ED02046FFF784FCA0687D
:1038E000D0F86051002D69D000230922694628468E
:1038F00002F0B5FBA1689DF808500098C1F860017E
:10390000A06800230922D0F86001694602F0A7FBF5
:10391000A1689DF808200923D1F860012031521CCC
:1039200002F09DFBA1689DF80800C877A1689DF88A
:10393000080088779DF80800A84202D22046FDF7CB
:10394000CBFB00E00BE0A3682BA20821204620332C
:1039500001F0B2FA2046FFF770FC68BB43E0D0F8F4
:103960006001002847D02046FFF73DFCA0680023F7
:103970000922D0F86001694602F071FBA068019944
:10398000C0F86011A0680029857FB9D1A030FDF78B
:10399000BBFE0028A06805D000F1A0012030FCF794
:1039A000CAFD01E080F82060A0682030FDF7ACFE81
:1039B0008DF80800B6E71EE01AE0FFE72030FDF7BB
:1039C000A3FE10F0FF05A068D0F85811C0F86011F0
:1039D000A06805D000F12001A030FCF7ACFD8FE716
:1039E00080F8A0608CE72046FFF705FF002802D092
:1039F0002046FFF741FCFEBD25730000FEB50D46D5
:103A0000816804460026D1F8580138B30023092202
:103A1000694602F024FB0195A06800230922D0F832
:103A20005801694602F023FB0196A068D0F85811AE
:103A30000091807F8DF80800A068C0F858510023DD
:103A400009226946284602F012FBA168092328468C
:103A50008A7F2031521C02F00AFBFEBDC1F858518A
:103A6000A068C0F85C5100960196A068807F8DF830
:103A70000800E4E7FEB504468068D0F85C61002EDB
:103A800028D0002309226946304602F0E8FAA168EE
:103A900001980025C1F85C01009501952B4609228B
:103AA00069463046029502F0E2FA304602F0A9FA81
:103AB000A168D1F85C0170B100230922694602F0C7
:103AC000CEFA0095A06800230922D0F85C0169466F
:103AD00002F0CDFAFEBDC1F85851FEBDFEB5044658
:103AE00080682030FDF710FE10F0FF05A0684FF051
:103AF0000006C0F8606133D0A068D0F85801E0B18A
:103B000000230922694602F0AAFA9DF80820AA4279
:103B100013D1A068092300F1A001D0F85801521C6C
:103B200002F09DFAA06800F1A0012030FCF7F5FC3E
:103B30000028A06880F8A06012D000260A35294627
:103B4000606902F02EFA0100204604D003B0BDE8FF
:103B5000F040FFF753BFFFF78DFF761C082EEED322
:103B6000FEBD00001CB504460D4840780F2815D155
:103B70000B39102912D31A210B20CDE9000109A31A
:103B800011A20221204601F097F902B020460B2332
:103B9000BDE8104019A2032101F08EB91CBD000040
:103BA00068000020524144494F5F4D4F44455F4DEE
:103BB0004F44455F496565653830323135345F3291
:103BC00035304B6269740000466F72202573206D9A
:103BD0006F6465206368616E6E656C206D757374CB
:103BE000206265206265747765656E2025642061BA
:103BF0006E642025642E0D0A000000004368616E8B
:103C00006E656C2073657420746F2025642E0D0A18
:103C1000000000002DE9FC5F0E008346DDE90C4743
:103C2000C6F1000098469246814600D40846012518
:103C300003E000BF90FBFAF06D1C5045FADAA8458E
:103C400000D9454624B1002E01DB780700D5641E5B
:103C5000B80702D5B8F1000F0AD0F80708D13CB177
:103C6000A54205D220215846641EFDF7CBF8F6E7A1
:103C7000002E02DA4E462D2102E0780703D52B21D3
:103C80005846FDF7BFF807F0030002280BD1B8F142
:103C9000000F08D13CB1A54205D230215846641E20
:103CA000FDF7B0F8F6E7CDE9004743465246314606
:103CB000584604F053F9BDE8FC9F000070B50D466E
:103CC000044600684FF4887102F0B0FC4FF4907124
:103CD000206802F0ABFC4FF49271206802F0A6FC61
:103CE0004FF4A271206802F0A1FC4FF4AC7120687F
:103CF00002F09CFC20681249C0F804132068690790
:103D000040F30730090E002804DB00F1E02080F8C2
:103D1000001405E000F00F0000F1E02080F8141D11
:103D2000206840F30730002809DB00F01F02012162
:103D300091404009800000F1E020C0F8001170BD02
:103D400010034200024600201268530713D502F008
:103D50000300012802D002280CD105E0C2F3831031
:103D60000B68801C184404E00223086803EB92529D
:103D7000104408600120704710B5FCF7E5FB08B15E
:103D8000002010BD012010BD0268134602E08A42E7
:103D900004D01268002AFAD10B600160704700005D
:103DA000014B00F0BFBD00006D3F0000014B00F073
:103DB000B9BD000039410000014B00F0B3BD000067
:103DC00041410000014B00F0ADBD00002142000068
:103DD0007CB514460546012902D001F0D9F938B165
:103DE00002B02846BDE870400022114601F08CB8B0
:103DF000616805A0CDE9000109A2022128462368D7
:103E000001F05AF87CBD000020756E6B6E6F776E06
:103E100020706172616D657465723A200000000067
:103E200025733A257325730D0A0000002DE9FC4126
:103E3000074601F0ADF938B102B03846BDE8F041AF
:103E40000022114601F060B81248134E801B05098C
:103E500000241AE006EB0410C2681179FF2903D090
:103E6000527942B10DA207E083680EA208213846BC
:103E700001F022F808E013A2CDE90021836814A222
:103E80000821384601F018F8641CAC42E2D3BDE8C2
:103E9000FC810000109A0000F0990000656E6162DC
:103EA0006C65640025730D0A092D205374617475C7
:103EB000733A2064656163746976617465640D0AA0
:103EC0000D0A000064697361626C656400000000A3
:103ED00025730D0A092D205374617475733A2025DA
:103EE000730D0A092D2049443A2025640D0A0D0A54
:103EF0000000000010B5044601F04AF930B1204638
:103F00000022BDE81040114600F0FEBF2046BDE88B
:103F1000104002A2022100F0CFBF00004E6F7420BB
:103F2000737570706F727465642E0D0A0000000066
:103F300010B5044601F02CF930B120460022BDE84E
:103F40001040114600F0E0BF2046BDE8104002A23C
:103F5000022100F0B1BF00004E6F742073757070C5
:103F60006F727465642E0D0A000000002DE9FF4F8A
:103F7000C86881B01D46007917004FF00006009018
:103F800057D0072245A12868FCF7DEFA78B108224D
:103F900044A12868FCF7D8FA00282FD02B6843A248
:103FA000019805B00221BDE8F04F00F085BF012F58
:103FB00002D0022F08D008E0019805B041A2BDE868
:103FC000F04F022100F078BF0126DFF810810024B5
:103FD0000A2258F824106868FCF7B6FA10B1641C7D
:103FE000052CF5D3052C06D004F0FF090224002E81
:103FF00051D0002419E03AA26B68D1E7012F4FF0AD
:104000000009F6D0012446E04A462146009800F017
:1040100005FB48B90021204601F046FF034638A2BF
:104020000221019800F048FF641C01F0E7FEA04265
:10403000EAD805B0BDE8F08F4FF0000A55F824B07B
:1040400001F0DCFE8046002609E00021304601F048
:104050002BFF20225946FCF777FA58B1761C4645CB
:10406000F3D3464508D04A465146009800F0D6FAA8
:1040700030B10FE0B246F4E755F8243029A205E04C
:104080000021504601F010FF03461DA202210198B5
:1040900000F012FF641CBC42CED3CAE7656E6162B9
:1040A0006C65000064697361626C6500556E6B6ECF
:1040B0006F776E206F7074696F6E3A2025730D0AEA
:1040C0000000000042616420706172616D6574657A
:1040D0007220636F756E742E0D0A0000200100209F
:1040E000556E6B6E6F776E20736576657269747945
:1040F000206C6576656C3A2025730D0A000000007F
:104100004C6576656C20756E617661696C61626C78
:104110006520666F72206D6F64756C653A2025733B
:104120000D0A0000556E6B6E6F776E206D6F6475B3
:104130006C653A25730D0A00C96801204871704703
:10414000C96800204871704730B41346C4680A46F5
:10415000214630BCFFF70ABFC0680121C068417129
:104160007047C0680021C0684171704730B4134681
:10417000C4680A46214630BC00F052B82DE9FF4120
:104180000026244800F0F1FA2248001F074600F0FC
:10419000ECFA214C2149A06800900D6800E00098DD
:1041A0006946284004EB80000C30FFF7CBFD002867
:1041B000F5D101AA009901EA050304EB8303491C28
:1041C000DB6842F82030401C00910228F2D30198AD
:1041D00000F0030001280BD0022810D10198032120
:1041E00001EB90500099BDF80A6001EB900005E0EA
:1041F0000198BDF80A60C0F3831008440090384667
:1042000000F0B0FA08B10098A06004B03046BDE8F4
:10421000F0810000F80E0020E00A00201C010020C0
:104220002DE9FE4F8846824601F0E8FD0746D8F8A2
:104230000C00407920B922A20221504600F03CFE39
:1042400024A327A20821504600F036FE2CA2082104
:10425000504600F031FE00242DE000BFD8F80C00DD
:1042600001231A4605792146284601F0D1FD8146F1
:10427000002301222146284601F0CAFD05460328F5
:1042800001D2064600E003260121204601F00CFE83
:104290000346AE4201D22AA200E028A2294850F8E3
:1042A000261050F829008DE8070027A20821504663
:1042B00000F002FE641CBC42D0D3BDE8FE8F0000BB
:1042C0004C6F6773206172652068616C746564214E
:1042D0000D0A00006D6F64756C655F6E616D650041
:1042E000252D343073207C2063757272656E7420C6
:1042F0007C206275696C742D696E200D0A000000C7
:104300002D2D2D2D2D2D2D2D2D2D2D2D2D2D2D2DDD
:104310002D2D2D2D2D2D2D2D2D2D2D2D2D2D2D2DCD
:104320002D2D2D2D2D2D2D2D2D2D2D2D2D2D2D2DBD
:104330002D2D2D2D2D2D2D2D2D2D0D0A00000000A4
:104340002A00000020010020252D343073207C201D
:10435000252D3773207C20257325730D0A0000005E
:104360008AB04FF480412A4801F0F8FC08B1FCF70C
:10437000E7FB00F0FFFF08B1FCF7E2FB002001F0D3
:1043800017F8FCF7FBFB08B1FCF7DAFB4FF08040B5
:104390000024C0F800410121C0F80010D0F800113D
:1043A0000029FBD002F0BAFE20221A4901A8FCF72E
:1043B0007BF8062001900820029003200090154809
:1043C00001238DF818401A4601A9183800F0E6FEBE
:1043D00008B1FCF7B5FB0F48183800F097FF08B19B
:1043E000FCF7AEFB0C484088032809D30B480C4966
:1043F000401AC008052101EB00400AA101F04AFC67
:1044000001F00EFB0348183800F046FFF8E7000003
:10441000590B0000FC80000038020020889A000040
:10442000109A0000526164696F207465737420658E
:1044300078616D706C6520737461727465642E0DA3
:104440000A0000002DE9FF4F4FF0000881B014462C
:104450008B468146C246C0F800802578002D71D079
:10446000FBF7D0FF00900068405DC00702D004F861
:1044700001AB84E0D9F800008300401CC9F80000BB
:104480004BF8034015E02678002E78D0B8F1000FE5
:1044900005D1222E10D0272E0ED05C2E1ED0B04576
:1044A00014D12046FDF730F90246611C2046FBF787
:1044B000FBFF4FF00008E6E72046FDF725F902462E
:1044C000611C2046FBF7F0FFB046DCE7B8F1000FB7
:1044D00050D05C2E61D16078404508D12046FDF770
:1044E00013F90246611C2046FBF7DEFF55E0302839
:1044F0001CD100270225605DA0F13001072906D8F4
:104500006D1C41EAC701EDB2CFB2052DF3D3022DE8
:104510000CD92046FDF7F8F8421B61192046491EC8
:10452000921CFBF7C1FF04F8017BACE778281ED191
:1045300000270225605DA0F13001092903D841EA76
:1045400007100DE021E0A0F16101052901D85738DD
:1045500004E0A0F14101052907D8373840EA0710E7
:104560006D1CEDB2C7B2042DE4D3022DD1D8B8F141
:10457000000F12D100980068805DC0070DD0D9F8F7
:10458000001004988142FFF468AFD9F8002040463B
:104590004BF822A005B0BDE8F08F641C73E72DE94D
:1045A000F047C5881E1DB6FBF5F78946B6FBF5F149
:1045B000044605FB176C407916686843DDF820A0B7
:1045C000F718001F874200D9C61A166001E0246858
:1045D000491E0029FBD1A5EB0C078846B74216D827
:1045E00018E004EB0C00001D09EB0803BAF1000F02
:1045F0003A4602D00146184600E01946FBF754FF40
:104600002468F61B4FF0000CB844B54201D9374678
:1046100000E02F46002EE4D1BDE8F08770B51446C7
:1046200000230D4606461A4601F0F2FB844201D9EA
:10463000002070BD22462946304601F00DFC0120C5
:1046400070BD000030B5024651B101F0D7FB00212A
:10465000074C08E034F821301568AB4202D11160F4
:10466000002030BD491C8142F4D3052030BD00003C
:10467000FC01002010B50C460021E1606160034997
:10468000A160012101F010FC206010BDB086000087
:1046900070B58468006804F11405FDF735F8C1B2FF
:1046A000A971E07F6A790844B0FBF2F302FB1303BF
:1046B0005B1C2B70E07F0844B0FBF2F35B1CAB701B
:1046C000A07F0844B0FBF2F35B1CEB70A07F0844B2
:1046D000B0FBF2F102FB1101491C6970284670BD64
:1046E00010B531B1B2FBF3F403FB14241CB1092063
:1046F00010BD0E2010BD01600021416081608281EB
:10470000C381084610BD70B50C460546FBF782FD17
:10471000002802D021882868084470BD10B50A8896
:1047200049888A4203D1FBF7B7FD012010BD002064
:1047300010BD70B50C460546FBF791FD002802D070
:1047400061882868084470BD10B50A8849888A4283
:1047500003D1FBF77BFD012010BD002010BD00211F
:1047600000F00FB8002100F012B8012100F01EB8CF
:10477000012100F011B808B56A46FBF7E2FD009888
:1047800008BD08B56A46FBF7C2FD009808BD08B52C
:104790006A46FBF7BCFD08BD08B56A46FBF7AAFDF3
:1047A00008BD08B56A46FBF799FD08BD08B56A461D
:1047B000FBF7A0FD009808BD08B56A46FBF7CEFDE3
:1047C000009808BD70B5044600252846FCF724FA79
:1047D00021686268086890420ED9401E086001781E
:1047E000238BE26801FB0325227A2168101AC0B2EC
:1047F0000A79824200D208710020FCF70FFA28469D
:1048000070BD70B505460C460020FCF705FAE86857
:10481000298B201AB0FBF1F12A681068431C136041
:104820000170BDE870400020FCF7F8B910B530B158
:10483000017A42680368891AC9B21A6006E00E203C
:1048400010BD03681A68541C1C601170491EC9B25F
:10485000F7D2006800210171084610BD2DE9F0472C
:104860000646806888B0D0F86401C0F3400038B1D3
:1048700008B03046BDE8F0470022114600F044BBC6
:10488000012907D908B03046BDE8F0471DA2022132
:1048900000F012BB2049DFF884A0A1EB0A001C2124
:1048A000B0FBF1F5002428E0C4EBC4010AEB81035E
:1048B0004FF000091F68D3E901103A793F78411A97
:1048C000B3F81880C01B5B69C0B2642712FB07F7FE
:1048D000B7FBF1FC642710FB07F7B7FBF1F7CDE955
:1048E0000621CDE9041CCDE902700D4A08213046AD
:1048F000CDE9008900F0E0FA641CAC42D4D308B0E2
:10490000BDE8F08742616420617267756D656E7401
:1049100020636F756E740000C89A0000909A0000C2
:10492000049100002DE9FF5F8B46164814499A4612
:10493000091A0F09914652F8046C0025804607E0D9
:1049400008EB05143046A168FBF7E7FD18B16D1CB4
:10495000BD42F5D30BE0210009D0009804B04B46CE
:104960005A46D446BDE8F04F5DF804EB6047009826
:1049700004B03346BDE8F05F03A2022100F09CBA08
:10498000109A0000F0990000496E76616C6964200D
:104990006261636B656E643A2025730D0A00000046
:1049A00070B515468268D2F86441C4F3400424B15E
:1049B0001A46294600F0A8FA05E031B1536804A26E
:1049C000022100F079FA012070BD002070BD0000C6
:1049D00025733A2077726F6E6720706172616D6522
:1049E00074657220636F756E740A000010B504461A
:1049F00002290CD1A068D0F86401C0F3400030B1A6
:104A000020460022BDE81040114600F07DBA064A5B
:104A100006A1206900F040FD034A2069BDE810406E
:104A2000093202A100F038BDFD85000025730000A9
:104A3000012907D0022909D18168D1F86411C1F395
:104A4000400119B10022114600F05EBA01A2022114
:104A500000F032BA506C65617365207370656369EC
:104A60006679206120737562636F6D6D616E642E6F
:104A70000A0000001CB5012905D002290BD014D969
:104A80004FF0010112E002B04FF00002BDE810400B
:104A9000114600F039BA536808A1CDE90013136834
:104AA0000CA2022100F008FA1CBD002102B0002374
:104AB000BDE810401A46FFF773BF000020756E6B0B
:104AC0006E6F776E20706172616D657465723A20E9
:104AD0000000000025733A257325730A00000000CA
:104AE00010B50446012901D0012100E00021002376
:104AF0001A46FFF755FF002809D1A168C1F85401F3
:104B0000E06840680068BDE8104001F018BB10BDC7
:104B10003EB50546012901D0012100E00021002316
:104B20001A46FFF73DFF002818D1E868406804687E
:104B3000204601F001FBC0B2642110FB01F2A16824
:104B4000B2FBF1F2D2B20092CDE90101A86804A251
:104B50000021D0F85431284600F0AEF93EBD0000E7
:104B60004C6F7374206C6F67733A2025750A4D6122
:104B700078206C6F67207175657565207574696C38
:104B8000697A6174696F6E3A2025752525205B2549
:104B9000752F25755D0A00007CB514460546012970
:104BA00003D0022908D0012107E002B00022BDE8AD
:104BB0007040114600F0A8B9002100231A46FFF703
:104BC000EFFE002809D1616804A0CDE9000109A227
:104BD00002212846236800F06FF97CBD20756E6BBA
:104BE0006E6F776E20706172616D657465723A20C8
:104BF0000000000025733A257325730A00000000A9
:104C000010B50446012901D0012100E00021002354
:104C10001A46FFF7C5FE002806D1A068D0F8641137
:104C200021F00401C0F8641110BD10B5044601293B
:104C300001D0012100E0002100231A46FFF7B0FE59
:104C4000002806D1A068D0F8641141F00401C0F832
:104C5000641110BD7CB514460D460646022901D9E3
:104C6000012100E0002100231A46FFF799FE0028E9
:104C700011D1022D05D03046FCF734FB60B10BA3F7
:104C80000BE061680AA0CDE900010FA202213046C5
:104C9000236800F011F97CBD0EA302B03046BDE8D8
:104CA00070400DA2002100F007B900006F6E0000F7
:104CB00020756E6B6E6F776E20706172616D6574BA
:104CC00065723A200000000025733A257325730AA7
:104CD000000000006F6666004563686F20737461B2
:104CE0007475733A2025730A0000000010B504465D
:104CF000012901D0012100E0002100231A46FFF71D
:104D00004FFE002806D1A068D0F8641121F00801F8
:104D1000C0F8641110BD10B50446012901D001216D
:104D200000E0002100231A46FFF73AFE002806D1D2
:104D3000A068D0F8641141F00801C0F8641110BDFA
:104D40007FB50446012901D0012100E000210023A4
:104D50001A46FFF725FE002827D1A0680026D0F8C4
:104D60005C51F5B101E0082E1BD20023092201A9F4
:104D7000284601F074F99DF80C20A1680923284603
:104D8000A031521C01F06BF9A0683346A0300090AE
:104D9000029D761C05A20021204600F08DF8002D12
:104DA000E1D1A168002081F8A0007FBD5B253364BC
:104DB0005D2025730A0000007CB5154604460129D4
:104DC00003D0022917D9012116E0A16801F11802C8
:104DD000193102F091FD00281ED0A16850200FA2C9
:104DE0004876A1681820087602B02046BDE87040D9
:104DF000042100F061B8002100231A46FFF7D0FD1E
:104E0000002809D1696814A0CDE9000118A2022187
:104E100020462B6800F050F87CBD00004E6F2072D9
:104E20006573706F6E73652066726F6D2074686550
:104E3000207465726D696E616C2C20617373756D81
:104E400065642038307832342073637265656E2073
:104E500073697A650A00000020756E6B6E6F776E5D
:104E600020706172616D657465723A200000000007
:104E700025733A257325730A0000000010B5044617
:104E8000012901D0012100E0002100231A46FFF78B
:104E900087FD00280AD1064A06A1206900F0FCFA25
:104EA000A16850204876A1681820087610BD00003F
:104EB00016860000257300000FB438B5044607A815
:104EC0000090A068D0F86421520717D5C27E8A42AC
:104ED00014D0B0F81B50204603F0B8F86A46206999
:104EE000069900F0F2FAE9B2204603F0AFF8290A79
:104EF000204603F08DF838BC5DF814FB6A46206943
:104F0000069900F0E2FAF6E72DE9F04F804689B005
:104F100017460C468648FCF7F7FB054684483638AA
:104F2000FCF7F2FB281A1FFA80F9814881A2233886
:104F30000090D8F80800082143684046FFF7BCFFFE
:104F4000D8F808004068FCF7DFFB054678482338AE
:104F5000FCF7DAFB284482B2D8F808000023816805
:104F60004046FEF7CFFB75A200214046FFF7A4FFA5
:104F70000FB304B300251CE005EB450A04EB8A0BD4
:104F8000DBF80400FCF7C0FB064654F82A00FCF7E7
:104F9000BBFB311849450BD9DBF80400FCF7B4FB27
:104FA000064654F82A00FCF7AFFB30441FFA80F99C
:104FB0006D1CBD42E0D35E483638FCF7A5FB484483
:104FC000801C1FFA80F95A4800904B465EA20821C7
:104FD0004046FFF771FF09F1030086B207900023F6
:104FE00032465BA14046FEF78DFB002C52D00025D7
:104FF0004EE000BF05EB450A04EB8A0B54F82A008B
:10500000DBF804306BB350B3494956A23639CDE9C9
:10501000001008214046FFF74FFF09F10200009001
:10502000DBF80400FCF770FB064654F82A00FCF796
:105030006BFB06443E483638FCF766FB3118009897
:10504000401A801EC1B24046FEF7E4F93A224849B0
:10505000D8F8100000F020FA0098401C0AE00093F5
:1050600001E040B100904B4637A208214046FFF7CF
:1050700023FF079886B2DBF8081029B100233246D7
:105080004046FEF73FFB02E04046FEF7F5F86D1C98
:10509000BD42AFD3D8F80800C068002845D081468B
:1050A00000200446064603AD02903246761C02AB51
:1050B000012148460095FCF769FF029850B100684D
:1050C000FCF722FBA042F0D902980068FCF71CFB19
:1050D00084B2EAE7012E28D026A200214046FFF73D
:1050E000EBFE00263246761C02AB012148460095B5
:1050F000FCF74CFF0298002817D0A11C8FB2006863
:1051000000903B4610A208214046FFF7D5FE0298CA
:10511000FF1CBAB2416821B100234046FEF7F2FA03
:10512000E0E74046FEF7A8F8DCE709B0BDE8F08FFD
:105130001C86000025732573000000004F70746901
:105140006F6E733A0A0000002020252D2A733A0062
:1051500053686F7720636F6D6D616E642068656C56
:10516000702E000020202573257325730000000099
:10517000D4100000537562636F6D6D616E64733A95
:105180000A0000008068D0F86401C0F34000704756
:105190008068D0F86401C0F3400070472DE9F04109
:1051A0001E460546069F00F013F804000DD166B1B7
:1051B0003946E86800F010FB002802DA0420BDE858
:1051C000F081E8680121C06841712046F7E70000DE
:1051D00070B50446C0681546234640688460606820
:1051E00002681668254AB047002845D1606900F07A
:1051F00025FF002840D1A168C1F85801A168C1F875
:105200005C014FF4B471A068FBF775F9A068D0F8A1
:10521000641141F02001C0F86411A068D0F8641155
:1052200065F38201C0F86411A068D0F8641141F000
:105230000801C0F86411A1680120124B0870A16830
:105240005020114A4876A1681820087600210C48A1
:10525000D21A06E003EBC1046468246840F82140D8
:10526000491CB1EBD20FF5D3072A04D9D108074B5B
:105270000422FBF7CBF8002070BD00002D1A0000BF
:10528000A001002038990000F0990000F17800009A
:105290000023FCF775BC000010B50446806810219F
:1052A00000F5B270FFF782FAA0680078F8B1012823
:1052B0001DD002281BD12046FCF7D7F8002120463C
:1052C000FCF716F898B110A2032120462368FFF7D7
:1052D000F3FD2046FCF706F848B1A3680AA20821AE
:1052E00020462033FFF7E8FD2046FEF75DF82069F1
:1052F00000F0DFF8A068BDE810406FF0100100F585
:10530000B270FFF73EBA00002573000070B5044686
:1053100080680078012801D0082070BD60680168AD
:105320008A680021904705000FD10821204602F02D
:105330008DFE0121204602F06BFE05A1206900F0E0
:10534000ABF802212046FCF7CBF9284670BD0000DF
:105350000A0A000000F180400068002800D0012007
:10536000704708B500F1804000210160006800909E
:1053700008BD000070B50C4C0125207808B18526C9
:105380000BE00020A06060602061E060074801F051
:1053900071F9064601F058F9257001F04DF900B198
:1053A000A570304670BD000080080020011C000080
:1053B00070B5104D0446A87838B114B16168012069
:1053C00088470020FBF728FC0CE00020FBF724FCBA
:1053D00024B1084821461030FEF7D6FCE86808B929
:1053E00001F058F9E868401CE860BDE87040002012
:1053F000FBF714BC80080020F0B50546047815487A
:1054000089B0164640F82420124A08690832A2F1F1
:105410000C0742F82400487F385520226846FBF7E5
:1054200043F804942878385C48B10EB10A4A00E089
:1054300000226946281D01F0DFFB09B0F0BD0EB166
:10544000064A00E00022694605F10C0001F01EFA50
:10545000F3E700008C000020197E0000617C000052
:1054600030B40378054CE35C1BB130BC001D01F087
:1054700091BC30BC0C3001F0F3BA00008800002071
:105480000178044A515C11B1001D01F0E7BC0C30F9
:1054900001F04ABB880000200FB408B50399002929
:1054A00004D004AA00926A4600F00FF801B05DF83B
:1054B00014FB10B582680446002A05D0D4E9040321
:1054C000216898470020A06010BD2DE9FC47914657
:1054D0000C00804676D014F8011B39B125290ED076
:1054E0004046FBF78FFC20780028F4D198F80C0098
:1054F000002867D04046BDE8FC47FFF7DABF002030
:10550000012221782B291BD02D2902D0302908D146
:1055100002E040F0010001E040F00200641C002ABB
:10552000EFD100252A290ED02178A1F130020A2AD4
:1055300011D205EB850201EB4205641C303DF1E719
:1055400040F00400EAE7D9F800100B1DC9F800305C
:105550000968641C0D44217800232E290BD114F80E
:10556000011FA1F130020A2A05D203EB830201EBED
:105570004203303BF3E76C290DD068290BD0692931
:1055800021D00BDC252918D0582931D063290ED021
:10559000642915D117E014F8011FECE7702969D0D0
:1055A000732932D075291BD0782909D120E0D9F888
:1055B0000000011DC9F8001001784046FBF722FCED
:1055C000641C90E76CE0D9F800100A1DC9F80020AF
:1055D0000968CDE900500A224046FEF71BFBEFE7C1
:1055E000D9F800100A1DC9F8002009680A2206E04F
:1055F000D9F800100A1DC9F8002009681022CDE969
:105600000050404602F0AAFCDAE7D9F80010002763
:105610000A1DC9F800200E68C00705D112E04046F7
:10562000761C7F1CFBF7EEFB31780029F7D104E0F4
:10563000202140466D1EFBF7E5FBBD42C0D9002D81
:10564000F6D1BDE74EB13046FAF760FF074604E0F9
:10565000202140466D1EFBF7D5FBBD4206D9002D2B
:10566000F6D103E04046761CFBF7CCFB31780029ED
:10567000F8D1A5E7D9F80000011DC9F800100568A8
:1056800030214046FBF7BEFB78214046FBF7BAFBD2
:1056900008200021CDE90001034610222946B0E789
:1056A000BDE8FC872DE9FF411C46DDE90A78154677
:1056B0000E46684600F060F846EA450141EA84017A
:1056C00041EA072242EA0841009A00EB8200C0F852
:1056D0000017BDE8FF812DE9FF411C46DDE90A788E
:1056E00015460E46684600F055F846EA450141EA7F
:1056F000840141EA072242EA0841009A00EB820055
:10570000C0F80017BDE8FF811CB5002100910B46D1
:1057100001220191FFF7C6FF1CBD1CB500210091BD
:105720000B4601220191FFF7D6FF1CBD1CB50022DC
:105730000B46009211460192FFF7B4FF1CBD1CB549
:1057400000220B46009211460192FFF7C4FF1CBDD8
:105750001CB5002100910B46012201911146FFF773
:10576000A1FF1CBD1CB5002100910B460122019137
:105770001146FFF7B0FF1CBD0168202902D24FF08F
:10578000A040704701F01F01016001487047000010
:10579000000300500168202902D24FF0A04070475A
:1057A00001F01F0101600148704700000003005034
:1057B00001B56846FFF7E0FF009A01219140C0F86B
:1057C000081508BD01B56846FFF7E4FF009A0121FE
:1057D0009140C0F8081508BD2DE9F0410546204864
:1057E0000E460024D0F8103419460AE0CA68117930
:1057F000A14205D1641C0A2CF6DB4FF0FF342BE0EC
:1058000011680029F2D1611C26D0E9680C71D0F82A
:10581000101459B1C968EA6809681160D0F8100419
:10582000C06805600027DFF83C8011E0C0F8105424
:10583000E96800200860F5E708EBC700C279B242CA
:1058400000D33246E8683946007900F005FB7F1C3A
:1058500000F0D4FAB842EFD82046BDE8F08100004D
:10586000E00A0020109A0000406801218068FBF7E0
:105870003FBD10B540688468606801688A6801218E
:10588000904718B10420A168087010BD0320FAE702
:105890002DE9F3414468A668B068007804281ED05A
:1058A000032807D0002501A9206800F053FC85F0EB
:1058B000010709E00125F6E739463046FBF718FDF8
:1058C00001A9206800F046FC0028F5D1019800F0FD
:1058D000B1FB002D03D000213046FBF709FDBDE8E8
:1058E000FC81F0B595B01C4615460F4608461A9E39
:1058F00000F0A0FB182109A8FAF7FDFD0E96CDE9EE
:1059000009540023082203A9384600F0A8FB059893
:105910000690BDF81000ADF81C00BDF81200ADF8FF
:105920001E0000208DF821000398082600F00300D7
:10593000012802D0022818D032E003983346850AA5
:10594000C0F3C2008DF8200003980FA9C0F38314A0
:10595000A200384600F083FB09A8009006AB22465F
:105960000FA9284600F0C2FA1AE00398840DC0F38C
:10597000C2008DF82000082C01D2254600E0082541
:1059800033462A460FA9384600F069FB2E44641BB3
:1059900009AB06AA29460FA800F088F9002CEAD125
:1059A000384600F04DFB15B0F0BD7047084810B503
:1059B0000178084A515C19B1001D01F04FFA02E06C
:1059C0000C3001F0B1F8BDE81040002002F066B9DB
:1059D000000100208800002008B5034A00924023FF
:1059E000024AFFF77EFF08BDED770000480900205E
:1059F0000A4A012902EBC00007D0022907D0032977
:105A000007D0042907D000207047022070470420E7
:105A1000704700797047407970470000109A000085
:105A20002DE9FF5FFBF706FA18B1002004B0BDE8CE
:105A3000F09F8C4C0020C4F81804BFF34F8F8A49A4
:105A4000A06800900D684FF00009284004EB80002A
:105A50000CE000BFD4F8180470B961680098814266
:105A600001D8A160E1E7284004EB80000C306946D2
:105A7000FEF768F90028EDD1002001A9A046009AA0
:105A800002EA050308EB8303521CDB6841F820306F
:105A9000401C00920228F2D3019800F00300022873
:105AA00002D0012850D0BEE001985022810D8A46D4
:105AB000B2EB905F00D850210C4664F39F50C0F3C6
:105AC000C20701900831694800F06BFA0600EAD07D
:105AD00000F0B0FA4B46082201A9304600F0C7FAA0
