:020000040000FA
:10000000004100202D030000350300001502000010
:10001000390300003B0300003D0300000000000026
:100020000000000000000000000000003F0300008E
:1000300041030000000000004303000045030000EE
:100040004508000047030000950B0000470300002F
:10005000470300005106000047030000470300006B
:100060004703000047030000470300004703000068
:100070004703000047030000470300004703000058
:100080004703000047030000470300004703000048
:100090004703000047030000470300004703000038
:1000A000470300004703000047030000450B000022
:1000B00047030000470300000000000000000000AC
:1000C0004703000047030000470300004703000008
:1000D00047030000470300004703000047030000F8
:1000E0004703000047030000470300000000000032
:1000F000000000004703000000000000470300006C
:1001000000000000000000000000000000000000EF
:1001100000000000000000000000000000000000DF
:1001200000000000000000000000000000000000CF
:1001300000000000000000000000000000000000BF
:1001400000000000000000000000000000000000AF
:10015000000000000000000000000000000000009F
:10016000000000000000000000000000000000008F
:10017000000000000000000000000000000000007F
:10018000000000000000000000000000000000006F
:10019000000000000000000000000000000000005F
:1001A000000000000000000000000000000000004F
:1001B000000000000000000000000000000000003F
:1001C000000000000000000000000000000000002F
:1001D000000000000000000000000000000000001F
:1001E000000000000000000000000000000000000F
:1001F00000000000000000000000000000000000FF
:10020000DFF80CD000F0FAF8004800477D1B000032
:1002100000410020094B1EF0040F1CBFEFF30980C2
:100220001847EFF308800649064A884201D89042F1
:1002300002D88D464FF00000184700005D04000012
:10024000004100200021002030B4044654E8000F93
:100250000D4644E80053002BF8D1156030BC7047C0
:1002600030B4044654E8000F40EA010544E8005366
:10027000002BF7D1156030BC704730B4044654E809
:10028000000F00EA010544E80053002BF7D1156088
:1002900030BC704730B4044654E8000F80EA0105D2
:1002A00044E80053002BF7D1156030BC704730B4E0
:1002B000044654E8000F00EB010544E80053002B0E
:1002C000F7D1156030BC704730B4044654E8000FD5
:1002D000A0EB010544E80053002BF7D1156030BCBA
:1002E000704770B404464FF0000054E8006F0D688A
:1002F000AE4207BF44E80023012044E800630E60DB
:10030000002B1CBF0020F0E770BC704730B40446DF
:1003100054E8000F88422CBF451A054644E80053B4
:10032000002BF5D1156030BC7047000006488047AF
:1003300006480047FEE7FEE7FEE7FEE7FEE7FEE7CA
:10034000FEE7FEE7FEE7FEE7FD0800000102000011
:10035000202A04DB203A21FA02F00021704721FA1A
:1003600002F3D040C2F12002914008431946704781
:1003700000487047FC46000040EA01039B0703D099
:1003800009E008C9121F08C0042AFAD203E011F8D4
:10039000013B00F8013B521EF9D27047D2B201E096
:1003A00000F8012B491EFBD270470022F6E710B57A
:1003B00013460A4604461946FFF7F0FF204610BDD3
:1003C000421C10F8011B0029FBD1801A704730B580
:1003D00004460020034600E05B1C934203D2E05C2D
:1003E000CD5C401BF8D030BD034611F8012B00F85E
:1003F000012B002AF9D1184670470000064C074D22
:1004000006E0E06840F0010394E8070098471034E4
:10041000AC42F6D3FFF7F8FECC4C0000EC4C0000E9
:1004200030B58C1810F8012B12F00F0301D110F821
:10043000013B120906D110F8012B03E010F8015B13
:1004400001F8015B5B1EF9D101E001F8013B521E8E
:10045000FBD1A142E6D3002030BD00001CB581468F
:1004600002F078FD02F0BAFB0028FBD12D485FEACC
:10047000090507682C482D494FF00106A0EB010043
:100480004FEAD00006EB004417D0204628A1AA6905
:1004900002F0C2FCD5E90201CDE90001D5E9002353
:1004A000204629A102F0C8FCE8690090D5E90423A0
:1004B000204633A102F0B7FC03E020463AA102F047
:1004C000A7FC1848001D0068800703D52046434953
:1004D00002F09EFCDFF80881002500BF06FA05F057
:1004E000384206D058F825201AB120463DA102F026
:1004F00093FC6D1C1A2DF1D3380606D509480C3033
:10050000026820463AA102F087FC380406D5054867
:100510001030026820463EA102F07EFC484600F002
:1005200085F8000028ED00E0344D0000FC4C000090
:1005300048415244204641554C5420617420307843
:100540002530385800000000202052303A2020305A
:100550007825303858202052313A20203078253004
:100560003858202052323A20203078253038582010
:100570002052333A202030782530385800000000CF
:1005800020205231323A2030782530385820204C03
:10059000523A202030782530385820205053523A93
:1005A0002030782530385800537461636B207669A9
:1005B0006F6C6174696F6E3A20737461636B207045
:1005C0006F696E746572206F7574736964652073EA
:1005D0007461636B20617265612E0000D847000072
:1005E0005800002043617573653A2025732E000082
:1005F0004D656D4D616E616765204661756C742057
:10060000416464726573733A20307825303858003D
:10061000427573204661756C742041646472657321
:10062000733A20307825303858000000BFF34F8FE0
:1006300005480168054A01F4E06111430160BFF318
:100640004F8F00BFFDE700000CED00E00400FA054D
:100650002DE9FF5F4FF482750024284602F058FD13
:1006600038B1022002F064FD18B1284602F058FDAE
:1006700002244FF48475284602F04AFD58B1042044
:1006800002F056FD38B1284602F04AFD0CB10324B1
:1006900002E0012400E014B1204602F017FF4FF4FD
:1006A0008C7002F035FDDFF88891624F624E634C2A
:1006B0004FF000084FF4947A4FF4867B78B34020D3
:1006C00002F036FD58B34FF48C7002F029FDB0688B
:1006D000CDE90008D9F800000390554814300068AF
:1006E0005546C0F30B001038C0F3CC0002905046C2
:1006F00002F00EFD60B1381502F01AFD40B1386805
:1007000000F00D000190284602F00AFD0D2038602F
:10071000616809B168468847584602F001FD4FF408
:10072000887002F0F5FCA0B1102002F001FD80B14C
:100730004FF4887002F0F4FC06F118000FC88DE841
:100740000F003F491820C1F80803616809B16846E5
:1007500088474FF4A67002F0DBFC364D083D30B3FD
:100760004FF4002002F0E4FC08B34FF4A67002F04E
:10077000D7FC4FF48C7002F0D3FC504602F0D0FC52
:10078000584602F0CDFC4FF4887002F0C9FC0020FE
:1007900002F0F8FE0D2038600120286006F12800E4
:1007A0000FC88DE80F00616809B1684688474FF4AB
:1007B0008E7A504602F0ACFCC0B1802002F0B8FC4A
:1007C000A0B12F68504602F0ABFC383696E80F0017
:1007D0008DE80F00F80707D0012028608DF804800D
:1007E000616809B168468847012028605D4658461F
:1007F00002F08EFC002819D0082002F099FC002895
:1008000014D0284602F08CFC616800290ED0082024
:100810000090D9F80000029005480C30006840F2C2
:10082000FF1202EAD000019068468847BDE8FF9FAA
:10083000105500400C5400404C450000801500202D
:100840000050004070B54FF48076304601F078FEDD
:10085000114CB50560B1304601F079FE0120C5F8B4
:100860000803607920B90120607121680020884761
:100870004FF48276304601F063FE00280AD03046FD
:1008800001F065FE0220C5F808032168BDE870404C
:100890000120084770BD00001800002000F080B95A
:1008A00070B50E46144900EB400001EBC00514463C
:1008B000E86A183520B101280FD0022805D113E0CD
:1008C000284600F0A1F9A04201D2002411E02246FE
:1008D0003146284600F0DDF90BE0284600F094F997
:1008E000A042F4D20446F2E73146284600F0A4F9CB
:1008F0000446204670BD0000C41B0020F0B54FF038
:1009000080527F4ED2F830017E4FD2F83411431C12
:1009100008D005464FEA010400234FF0010C082DD2
:1009200005D013E03B783578C3F30314F4E72CB11A
:10093000012C03D0022C01D0032C07D14FF08044AE
:10094000C4F80C31C4F810316F4C2360441C04D03F
:1009500005460C46082D05D061E03C783578C4F397
:100960000314F7E72CB1012C03D0022C01D0032C87
:1009700055D1664C2468664D2C60644C241D246857
:100980002D1D2C60614C083424682D1D2C605F4C9B
:100990000C3424682D1D2C605C4C103424682D1DF3
:1009A0002C605A4C143424682D1D2C60574C18347C
:1009B0002468574D20352C60544C1C3424682D1D60
:1009C0002C60524C203424682D1D2C604F4C243454
:1009D00024682D1D2C604D4C283424682D1D2C605E
:1009E0004A4C2C3424682D1D2C60484C303424682B
:1009F000474D40352C60454C343424682D1D2C6007
:100A0000424C383424682D1D2C60404C3C34246802
:100A10002D1D2C603D4C403424682D1D2C60082871
:100A200004D10C0002D13C4D3A4C2C60082804D172
:100A30000C0002D1394DFB242C60082808D10C0091
:100A400006D192F85852364A146865F303041460CC
:100A5000082804D10A0002D1324C82012260421CD3
:100A600003D139783078C1F3031108280DD129B1A9
:100A7000012903D0022901D0032906D12A4801689F
:100A8000C90702D06FF0010101602848016841F4F4
:100A900070010160BFF34F8FBFF36F8F4FF01021D4
:100AA000D1F80002002803DBD1F80402002823DA81
:100AB0001F4AC2F800C01F480468002CFCD0122452
:100AC000C1F800420568002DFCD0C1F8044201685D
:100AD0000029FCD0136001680029FCD0BFF34F8FC0
:100AE00012487C380168144A01F4E0611143016046
:100AF000BFF34F8F00BFFDE7114910480860F0BDFC
:100B0000E00F00F0E80F00F038050040040400108A
:100B100020C50040488103008C56004018F5004075
:100B2000E40E0040409602400004004088ED00E0E2
:100B300004E5014000E401400400FA050090D00300
:100B4000280100202DE9F047104E062700244FF41D
:100B5000A0784FF4803900BF08EB840509FA04F04F
:100B6000715961B1D6F80413014208D029463046C4
:100B700002F06CFB0648D0E9002128469047641C2F
:100B8000E4B2BC42E8D3BDE8F087000000B0014009
:100B90009015002001480068004700003000002048
:100BA00010B5124C02202061606111A0A06104F117
:100BB0007800E0614FF4007020620020A062606263
:100BC0000BA1A164E06204F51E71E1641021A0652F
:100BD000C4E91410E06509A1E01DFFF705FC08A1B8
:100BE0002046FFF701FC2020A07110BDC41B00208F
:100BF0005465726D696E616C0000000052545400BF
:100C000053454747455200000269C1688A4203D8EC
:100C10008068401A104400E0501A401E70470028B7
:100C200009DB00F01F02012191404009800000F122
:100C3000E020C0F8801270472DE9F047C4681746DD
:100C4000894606464FF000083069A04201D9051BCD
:100C500002E0B168201A0D1AB0686D1E001BA84290
:100C600000D80546BD4200D33D4670682A46204460
:100C70004946FFF781FBB0687F1B2C44A844A94478
:100C8000A04200D10024F460002FDDD14046BDE831
:100C9000F0872DE9F04104468846D4E90207C51BD8
:100CA000E168606816460844B54206D94146FFF738
:100CB00063FBB819E060BDE8F0812A464146FFF7C2
:100CC0005BFB761B08EB050132466068FFF754FBBF
:100CD000E660F0E702E008C8121F08C1002AFAD156
:100CE00070477047002001E001C1121F002AFBD1AC
:100CF00070470000F8B5264CA04239D100250446C3
:100D0000052935D2DFE801F003350E151A00D4F8B5
:100D10002C61002E2CD0002300951A460121D4F816
:100D2000300133E0C4E902232046BDE8F84000F07A
:100D3000EDBC2046BDE8F84000F02BBC107800F078
:100D4000F700F22804D0002084F8240118B901E04B
:100D50000120F9E70023A361107800F0E6010229E1
:100D600003D1C00601D5012000E0002084F8230152
:100D7000F8BD204600F0E4FBD4F82C61002EF7D03B
:100D8000002300951A460221D4F83001B047F8BD7F
:100D9000AC1E002072B602F0DDF800BF01F01EFFAD
:100DA0000028FBD111481249401AC408012000EB69
:100DB000044010A102F02CF811480068C00700D0D0
:100DC00000BE022000EB04400EA102F021F8BFF3A8
:100DD0004F8F0B48E43801680E4A01F4E06111437B
:100DE0000160BFF34F8F00BFFDE700003C4D0000E6
:100DF000FC4C0000466174616C206572726F720079
:100E0000F0ED00E053797374656D2072657365745D
:100E1000000000000400FA050EB500210091CDE9A4
:100E200001106A4644F20100FFF7B4FF0EBDC1682D
:100E300081600020704710B58268C368934203D078
:100E400000F082FA002010BD052010BD29B112B1BA
:100E5000531E134203D0092070470E2070470160D3
:100E6000838000218160C1600846704710B58268A8
:100E7000C3689A1A83889A4203D800F06FFA002058
:100E800010BD042010BD2DE9F0411646884607002C
:100E90000ED06EB1B868F9683468081A002584422B
:100EA00000D30446306030B15FEA080001D00AE0A8
:100EB0000E20BDE8F0810520FBE708EB0501384670
:100EC0006D1C00F041FAA542F7D300203460F0E732
:100ED0002DE9F04116468846070011D086B1B86862
:100EE000F9683468081AB9880025081A401C844239
:100EF00000D30446306030B15FEA080001D00BE057
:100F00000E20BDE8F0810420FBE700BF18F80510B3
:100F100038466D1C00F022FAA542F7D30020346059
:100F2000EFE7000010B50648FFF781FF002805D164
:100F30000348BDE810401030FFF779BF10BD000036
:100F4000EC15002070B50A4E01460A48B578FFF747
:100F500072FF04464DB10020B070711C0122C81D03
:100F600001F08AFB08B1FFF757FF204670BD000073
:100F700038000020EC150020F0B5244E89B01F4643
:100F80000D00044672603FD0A888296882B22048CC
:100F9000FFF75CFF002835D1A889A96882B21C48F8
:100FA0001030FFF753FF00282CD120221949684642
:100FB000FFF7E2F960690690207C00B101208DF80E
:100FC00014008DF81C70607C00B10E208DF81500A7
:100FD000E0680290A068039020680190606800902B
:100FE0000A480D4A6946083001F012FB002809D171
:100FF000B0702068401C05D004490122491CC81D5E
:1010000001F03AFB09B0F0BD0720FBE738000020F3
:10101000EC1500209C4500003541000010B501464C
:101020001048FFF723FF040019D10F480F4A017839
:10103000515C19B1001D02F013FF02E00C3002F008
:10104000E9FD60B9084907480839FFF7F4FE30B9EF
:10105000054901220839044801F01EFB04462046D8
:1010600010BD0000FC1500204000002004000020FE
:1010700000F002B800F008B872B602480168491CD6
:10108000016070475400002003490868401E086052
:1010900000D162B6704700005400002070B50546CC
:1010A00008680C46411C04D001F0A8FC206801F03F
:1010B00066FC6068411C02D0002101F04EFC2968EA
:1010C000A069C1F82405607D227D29681043C1F81C
:1010D0006C05D4E900122868C0F81425C0F80C1576
:1010E000207D012814D1A068411C02D0002101F00C
:1010F00034FCE068411C04D001F080FCE06801F0A1
:101100003EFCD4E902122868C0F80825C0F8101582
:1011100070BD70B5054608680C46411C04D001F04E
:1011200077FC206801F035FC6068411C02D000218A
:1011300001F01CFC2968A069C1F82405607D217DAF
:101140002A680843C2F86C05D4E900122868C0F880
:101150000C15C0F81425207D012814D1A068411C6D
:1011600002D0002101F002FCE068411C04D001F033
:101170004FFCE06801F00DFCD4E902122868C0F8C9
:101180000825C0F8101570BD2DE9FC410646C007C2
:101190004FF000050ED0104F00240122385D00955D
:1011A00000231146019501F08DFB641C042CF4D33F
:1011B00000F024F8B0070DD5074E0024361D00229C
:1011C000305D032300951146019501F07BFB641C03
:1011D000042CF4D3BDE8FC81444500000249085CBE
:1011E000012101F01FBC0000444500000249085CD9
:1011F000002101F017BC00004445000010B5002498
:101200002046FFF7EBFF641C042CF9D310BD00004F
:101210002DE9F0470546861C91460F464FF0010A1E
:101220000020FFF725FF1B4C04F21C486068386063
:10123000D4E90101184F401A3968081A0EE001215B
:10124000404601F015F900F047FC0146404601F028
:101250000FF9D4E90101401A3968081A401C864286
:10126000EDD8B9F1000F03D0052065F3891002E035
:10127000062065F39F5061683A68114004EB8101D4
:10128000C8606068304460600020FFF7F3FE50469D
:10129000BDE8F087A4170020CC00002070B50D46F3
:1012A00004460A2902D10D21FFF7F8FFA068226841
:1012B000411CA1601554D4E90101814204D32046A8
:1012C000BDE8704001F005BA70BD000004488168B7
:1012D0004068814201D10120704700207047000022
:1012E000A417002070B5084C050009D010342168FF
:1012F000002907D008682060496828468847F6E733
:101300000834F4E770BD00006C150020002801D1FE
:1013100002F03EBA70470000054A012120B10128C1
:1013200005D19170FFF7DEBF51700020FAE77047DA
:101330006C15002010B50021024801F0A4F880F3DC
:10134000100010BDC01B0020826883881A4003680B
:101350009A5C0A708168491C81607047C268838802
:101360001A4003689954C168491CC1607047000065
:101370002DE9FC5F0E008346DDE90C47C6F1000055
:1013800098469246814600D40846012503E000BFF6
:1013900090FBFAF06D1C5045FADAA84500D9454695
:1013A00024B1002E01DB780700D5641EB80702D5F2
:1013B000B8F1000F0AD0F80708D13CB1A54205D218
:1013C00020215846641EFFF769FFF6E7002E02DA77
:1013D0004E462D2102E0780703D52B215846FFF712
:1013E0005DFF07F0030002280BD1B8F1000F08D110
:1013F0003CB1A54205D230215846641EFFF74EFF8E
:10140000F6E7CDE90047434652463146584603F0D9
:1014100033F8BDE8FC9F000070B50D460446006837
:101420004FF4887101F02EFF4FF49071206801F0A5
:1014300029FF4FF49271206801F024FF4FF4A2714C
:10144000206801F01FFF4FF4AC71206801F01AFF13
:1014500020681249C0F804132068690740F3073078
:10146000090E002804DB00F1E02080F8001405E0FC
:1014700000F00F0000F1E02080F8141D206840F318
:101480000730002809DB00F01F02012191404009CC
:10149000800000F1E020C0F8001170BD1003420090
:1014A000024600201268530713D502F003000128FA
:1014B00002D002280CD105E0C2F383100B68801C17
:1014C000184404E00223086803EB925210440860B9
:1014D0000120704738B5194C049DA0422DD104F16C
:1014E000280080E82C0020460022D0E90150012984
:1014F0000DD0022917D0052905D006291DD1BDE838
:10150000384000F081BDBDE8384000F0C5BD0B4952
:10151000002D0A644A648A64CA640ED000230092D3
:101520001A46012108E04FF0FF316162002D04D01E
:10153000002300921A460221A84738BD4C1E002005
:1015400001210177002180F8241180F8251180F80D
:10155000231180F8281180F8291101714171C0F818
:101560004011C0F83411C0F8381170478268117802
:101570000B07017906D5527802F00F028A4202D198
:10158000012102E009B10020704780F829110120F3
:101590007047F8B504468069002813D194F82601F5
:1015A00000280FD000250095D4E94C03D4F82C6115
:1015B000D4F84021052104F59274B047E56104F8A0
:1015C000025CA570F8BD10B5044690F8240118B16E
:1015D000002084F8240110BD2046FFF7C7FF002833
:1015E000F9D0204600F0DEF92046BDE81040FFF7B4
:1015F000A7BFF8B50446012590F82401002610B1D4
:1016000084F82461F8BD2046FFF7B0FF0028F9D028
:10161000A06801780A0700D5022594F8232112B1A9
:1016200084F82361F8BD490704D5415D6279914290
:1016300000D16D1C217F81F0010121770278D30751
:10164000B3EBC17FEED1D1064FF001070CD5009767
:10165000E1684B1B4219D4E94B500621A8472046AC
:10166000BDE8F84000F00CB9204600F0ABF984F872
:1016700022710096E068431BA0684219D4F830013B
:10168000D4F82C410621A047F8BD70B504460125C9
:10169000FFF76CFF002838D0A0680078010700D55C
:1016A0000225E168A94230D1C6064FF0010204F2DA
:1016B0001F1304F11D051AD400F00101207F81429F
:1016C0001FD080F0010020772046BDE8704000F078
:1016D000ECB884F824210022184604E0616900294E
:1016E00013D000222846BDE8704000F04DBE217F97
:1016F00000F00100884204D02046BDE8704000F0B0
:10170000BFB8A1690029E9D0E3E770BD70B5C16831
:1017100000292FD0816800292CD0097801F0F0022F
:10172000902A27D0D02A25D08A0748D590F828219A
:101730008AB34A0635D501F0F701C2291BD0F22938
:1017400018D1044690F824010125002812D0204623
:10175000FFF70CFF00280DD0A0680178090700D51D
:1017600002256119405D91F81F110025884206D0BD
:1017700084F8245170BDBDE87040FFF724BF94F891
:10178000250148B1002204F11D00616900F0FCFD53
:1017900084F82551ECE712E02046BDE8704000F0E7
:1017A00011B901F0E601022905D0A229E2D1BDE874
:1017B0007040FFF76ABFBDE87040FFF71ABF1D29F0
:1017C000D8D05029D6D0E029D4D190F828110029BA
:1017D000D0D10121017780F8281181680D4A49781C
:1017E000090952F82110891E01618168497811F0B8
:1017F0000F01017100D0012180F8291101790F2911
:1018000003D0BDE8704000F01BB8BDE87040FFF7A2
:1018100097BE000028460000024610B50920074B7D
:10182000002100BF53F82140944201D1084610BD69
:10183000491CC9B20929F5D310BD00002846000093
:1018400010B504460068FFF7E7FF092816D040F0FE
:101850007000A0778021E177E179A279022041EA46
:10186000021184F8201084F821000521617704F129
:101870001D00BDE81040002200F086BD032010BD11
:10188000027F002102F0010242F0A202427790F8AA
:1018900029312BB142F00801417702790121827789
:1018A00000221D30491C00F06FBD2DE9F0410446B7
:1018B000007F002700F00101891C617794F829213D
:1018C000D4F838013E4632B128B941F008016177B9
:1018D00021790127A177D4F834117F1C0D1A2169D1
:1018E000C91B8D4204D9627F0D4642F01002627717
:1018F0003DB1D4F840112A460144E0191D30FEF7ED
:101900003BFD627F7919D00629D4D4F83C0108B395
:1019100023698B4232D9D4F84421C0F10200105C13
:10192000621801F101015077D4F83C01401EC4F85F
:101930003C0114D022698A420DD9D4F84421C0F167
:101940000200105C62185077D4F83C01401E491C1C
:10195000C4F83C0103E0607F40F0100060776161F3
:10196000D4F8380101222844C4F83801D4F83431BD
:10197000984208D3D4F83C0118B104E042F01000BA
:10198000ECE784F8262194F8240120B184F825217D
:101990003046BDE8F081002204F11D0000F0F4FCA7
:1019A0000646F5E70021C222427790F8292122B1AC
:1019B000CA21417702790121827700221D30491C1A
:1019C00000F0E2BC82790021C2F1070301229A40B3
:1019D000F22380F81F3190F82931D2B233B1FA21C5
:1019E00080F81F110379012180F82031491C3B2A1E
:1019F00000D93B22431800F21F1083F81F21012257
:101A0000491C00F0C1BC00002DE9F843164C042627
:101A100080468DF8006094F8270115460F4608BBF4
:101A200005B34FF4A4712046FEF7BFFCB00120605F
:101A30000220E071A6712C60C4E94B78012269464E
:101A4000104600F047FC002808D12146074800F066
:101A5000A7FC28B15FF0000184F82711BDE8F883E6
:101A60000121F9E70720F9E7AC1E0020F50C000082
:101A700030B4124CA04204D119B14FF6F074A24216
:101A800002D9072030BC7047D0F8404154B990F8D3
:101A900022413CB100243BB10225C0F83C51C0F8C2
:101AA000443103E00820EDE7C0F83C41C0F84011A4
:101AB000C0E94D2430BCFFF7F8BE0000AC1E00208A
:101AC0000268134602E08A4204D01268002AFAD162
:101AD0000B600160704700002DE9FF41002624489B
:101AE00000F0C3FC2248001F074600F0BEFC214C5A
:101AF0002149A06800900D6800E0009869462840E0
:101B000004EB80000C30FFF7CBFC0028F5D101AAD4
:101B1000009901EA050304EB8303491CDB6842F8E2
:101B20002030401C00910228F2D3019800F00300FD
:101B300001280BD0022810D10198032101EB90500D
:101B40000099BDF80A6001EB900005E00198BDF82E
:101B50000A60C0F3831008440090384600F082FC0D
:101B600008B10098A06004B03046BDE8F0810000E4
:101B7000BC1B0020A4170020CC00002000218AB04C
:101B8000084601F0BBF908B1FFF746F901F018F873
:101B90000120FFF7F9FA182231496846FEF7ECFBFD
:101BA00030484FF48064CDE9060400F58060CDE94B
:101BB000080407232C4A06A96846FFF7DDF908B197
:101BC000FFF72AF92949224601F50060FFF73EF99F
:101BD00028B92749224601F58260FFF737F908B195
:101BE000FFF71AF90021234800F020FC08B1FFF7A5
:101BF00013F921482149401AC408032000EB04408E
:101C00001FA101F005F900F059FB08B1FFF704F935
:101C1000022000EB044405E09DF80000FFF7FEF908
:101C20000028F9D169461E48FFF705F90028F3D0CE
:101C30000BE000BF1A489DF800101030FFF716F9AE
:101C400018B1204617A101F0E3F86846FFF77AF9CA
:101C50000028EFD000F0C2FF0028FBD1E2E700002F
:101C60002C4500004C050020214100004C0D0020B7
:101C70004C110020ED2000003C4D0000FC4C000009
:101C80004E46432055415254205461672065786187
:101C90006D706C6520737461727465642E00000051
:101CA0004C1500204E4643205458204649464F20AC
:101CB000627566666572206F766572666C6F770016
:101CC0002DE9F047C5881E1DB6FBF5F78946B6FB22
:101CD000F5F1044605FB176C407916686843DDF89A
:101CE00020A0F718001F874200D9C61A166001E02D
:101CF0002468491E0029FBD1A5EB0C078846B74292
:101D000016D818E004EB0C00001D09EB0803BAF12B
:101D1000000F3A4602D00146184600E01946FEF789
:101D20002BFB2468F61B4FF0000CB844B54201D9D8
:101D3000374600E02F46002EE4D1BDE8F0870000D2
:101D400030B5024651B101F0EDF80021074C08E032
:101D500034F821301568AB4202D11160002030BD4B
:101D6000491C8142F4D3052030BD00000000000072
:101D700004480022816B11B101618263816180F8A6
:101D80003E2070474C1E002010B50F2209490A481A
:101D9000FEF7F2FA0849A1F15000C16041610F213C
:101DA000C161002101614A1E8161C0E9081280F809
:101DB0003D1010BD164600009C1E002070B50D4D54
:101DC0000D4A00212C7800BF01EB4103D65CA642EE
:101DD0000AD113445B78834206D101EB41001044E1
:101DE00080782870002070BD491C0529ECD308209C
:101DF00070BD00004C1E00202C010020F8B51C4DC9
:101E000005F140042869A1680844D5E90A12FEF7E3
:101E1000B3FAA068E96A0844A060296B012926D0BA
:101E200061682268134E401A0027904210D1361F75
:101E300001290DD82A6950781178009700EB012408
:101E4000D5E901C023460421E0470CB1FFF790FF1C
:101E5000074833460749076447648764C764686B6B
:101E600001B00022BDE8F040491FFFF701BEF8BDF8
:101E70004C1E0020F94500002DE9F0411848174B91
:101E80000022C46A591F052C23D3856A476AEC785F
:101E9000AE782D7904EB062400EB870604EB050CE5
:101EA000D6F81CE0F44514D84B1C71692A4621442D
:101EB000012F0ED185696E782D7806EB0525AD1CB6
:101EC000AC4203D2AC4501D3012400E0002480F8E9
:101ED0003C40406BBDE8F041FFF7CABDF94500004A
:101EE0004C1E002070B51D4C1B4D0026E06A0D28CD
:101EF00008D10D2205F11201A06AFEF768FA08B9AF
:101F0000AD1E6662606A401C1DD0E06A07281AD1C7
:101F100011490722091DA06AFEF759FA10B90E4DA2
:101F20006662AD1E606A401C0DD0E06A07280AD1C7
:101F3000094907220B31A06AFEF749FA18B90120B6
:101F4000054D6062AD1E2B46606BBDE870400249D6
:101F50000022C91EFFF78CBDF74500004C1E002073
:101F6000F8B5284D264FEA6A052A2FD3686A01285A
:101F70002CD195F83D0028B3A96AC8788B780E79E2
:101F800000EB03242B6AA01998421FD82846531F40
:101F90000069B34217D12044491D521FFEF7ECF9E6
:101FA0003F1F012C12D82A695078117800EB0124C8
:101FB00000200090D5E9016023460421B0470CB110
:101FC000FFF7D6FE02E02B6B012B09D0686B01B046
:101FD0003B46BDE8F0400A490022491FFFF748BDD3
:101FE0002044491D521FFEF7C7F906480121403021
:101FF00001734460E96A641F214406608160F8BD92
:10200000F94500004C1E002038B521490878022807
:1020100014D10846D0E90A230C690CB9886938B193
:102020001B484030007B50B1BDE83840FFF7E6BEAA
:10203000086B0090D1E901400621A04738BD022B72
:1020400009D3107838B95078A42810D00122B028CC
:1020500011D0D62815D00E48406B03B10D4B01B0FE
:102060000C49BDE830400022C91EFFF701BDBDE8A4
:102070003840FFF737BF81F83E20BDE83840FFF712
:10208000FBBE81F83E20BDE83840FFF769BF000085
:102090004C1E0020F7450000F8B5134C0025A06940
:1020A00018B14178007801EB002594F83C0060B14C
:1020B000FFF75EFE002635B100960023D4E90150FB
:1020C0001A460321A84784F83C60206900280AD1F9
:1020D000A069002807D1206B0090D4E90A23A068EA
:1020E00064680521A047F8BD4C1E00202DE9FC477F
:1020F0009146394A3948DDF82880101AC70803206C
:102100001E4600EB074001292BD002293AD00629B0
:1021100036D1334C20683044B0F5806F02D90420AA
:10212000FEF77AFE2F4D2068324628444946FEF7D6
:1021300023F92068B8F1010F3044206047D001280E
:102140002CD9401E2060019001AA691C05F5A05001
:10215000FEF7BEFE01992268914219D1042817D0DA
:102160001CE021A100F054FE0020FFF73FF8FEF72D
:10217000D9FE2C48FEF75BFE2A481030FEF757FECA
:10218000BDE8FC8728A100F043FEFFF737F8F7E72A
:10219000022000EB074031A100F03AFE0026F020BB
:1021A000266000901F486A46691C1030FEF76BFEDF
:1021B000052800D1009600990A48491C00F018F93A
:1021C00008B1FEF729FE0120FFF708F8D8E7012043
:1021D000FFF70CF8D4E700003C4D0000FC4C000079
:1021E000000000204C0100204E464320546167202F
:1021F000686173206265656E2073656C65637465E4
:10220000642E2055415254207472616E736D69734F
:1022100073696F6E2063616E2073746172742E2E09
:102220002E0000004C1500204E4643206669656C68
:1022300064206C6F73742E20446174612066726F29
:102240006D20554152542077696C6C206265206482
:1022500069736361726465642E2E2E004E464320BE
:102260005258204649464F20627566666572206F57
:10227000766572666C6F77000068022803D00428C8
:1022800004D100F06DB9024800F080B97047000039
:1022900020010020084810B5064941600021016076
:1022A00000F098F9852803D0002800D0032010BD45
:1022B000002010BD0D1300002001002010B50220E9
:1022C000FFF77CFD08B1082010BD00F08FF800205A
:1022D00010BD00003EB52A4C012804D0022813D0BE
:1022E000032823D020E00D784FF48050A840012A25
:1022F0002CD1002101908DF80010684601F0F6F90C
:10230000002812D165700FE0012A1FD101208DF83D
:10231000000008788DF80400684601F0E7F900280D
:1023200003D19DF80400E07000203EBD012A06D0D4
:10233000042A15D0072A13D00A2A11D006E00878FB
:10234000042805D0072803D00A2801D009203EBD63
:1023500020710A210B4801F099F90028F7D103E018
:1023600022710848FEF708F802208DF800000548A1
:10237000019020798DF80800684601F0B7F93EBD5C
:102380003C010020F42000201CB5CDE900100AB16A
:10239000022100E00321684601F008FA1CBD00009C
:1023A0001CB5104BD3E90223CDE900230E4AC2E944
:1023B00002010D490122C91C0220FFF78BFF0028F2
:1023C0000ED109490122491C1046FFF783FF00285E
:1023D00006D1FFF75FFF002802D1684601F0E0F860
:1023E0001CBD0000684600003C01002000F0E6BF74
:1023F00010B508224FF6F073994206D829B130B1D2
:10240000094B1C78022C04D00BE00C2010BD0720D7
:1024100010BD5C6B0A46014600232046FFF728FBEF
:102420000246104610BD00004C1E002070B50D463F
:10243000040005D00020FFF7C1FC18B1082070BDD2
:10244000072070BDFFF7A0FC0448054900F13402E5
:10245000C0E90145BDE87040FFF7D6BA4C1E002028
:10246000D5140000002100F009B8012100F010B8D7
:1024700008B56A46FDF71BFF009808BD08B56A4617
:10248000FDF7FBFE08BD08B56A46FDF7DDFE08BD99
:1024900008B56A46FDF7E4FE009808BD08B56A462F
:1024A000FDF712FF009808BD70B5044600252846C8
:1024B000FEF7DEFD21686268086890420ED9401E72
:1024C00008600178238AE26801FB0325227A2168EB
:1024D000101AC0B20A79824200D208710020FEF7B9
:1024E000C9FD284670BD70B505460C460020FEF7B4
:1024F000BFFDE868298A201AB0FBF1F12A6810684C
:10250000431C13600170BDE870400020FEF7B2BDAF
:1025100010B530B1017A42680368891AC9B21A60ED
:1025200006E00E2010BD03681A68541C1C60117070
:10253000491EC9B2F7D2006800210171084610BDDA
:1025400000F180400068002800D00120704708B5E5
:1025500000F18040002101600068009008BD00008B
:1025600010B50020FEF784FD074C6068401E6060D7
:10257000606818B900F0B6FE00206070BDE8104039
:102580000020FEF777BD00006C15002070B5104DDF
:102590000446687838B114B161680020884700208B
:1025A000FEF766FD0CE00020FEF762FD24B108484E
:1025B00021460830FFF784FA686808B900F086FE03
:1025C0006868401C6860BDE870400020FEF752BD9E
:1025D0006C15002070B50C4C0125207808B18526BB
:1025E0000BE00020A06060602061E060074800F020
:1025F00097FE064600F054FE257000F049FE00B13B
:10260000A570304670BD00006C1500201913000045
:10261000F0B505460478154889B0164640F82420E0
:10262000124A08690832A2F10C0742F82400487FD8
:10263000385520226846FDF79FFE04942878385CC0
:1026400048B10EB10A4A00E000226946281D01F097
:10265000F9FA09B0F0BD0EB1064A00E00022694661
:1026600005F10C0001F0A2F9F3E7000008000020DA
:1026700035430000D941000030B40378054CE35CD9
:102680001BB130BC001D01F013BB30BC0C3001F09D
:10269000F7B900000400002030B40378054CE35C77
:1026A0001BB130BC001D01F085BB30BC0C3001F00B
:1026B0005DBA0000040000200FB408B5039900299A
:1026C00004D004AA00926A4600F00FF801B05DF849
:1026D00014FB10B582680446002A05D0D4E904032F
:1026E000216898470020A06010BD2DE9FC47914665
:1026F0000C00804676D014F8011B39B125290ED084
:102700004046FEF7CBFD20780028F4D198F80C0065
:10271000002867D04046BDE8FC47FFF7DABF00203D
:10272000012221782B291BD02D2902D0302908D154
:1027300002E040F0010001E040F00200641C002AC9
:10274000EFD100252A290ED02178A1F130020A2AE2
:1027500011D205EB850201EB4205641C303DF1E727
:1027600040F00400EAE7D9F800100B1DC9F800306A
:102770000968641C0D44217800232E290BD114F81C
:10278000011FA1F130020A2A05D203EB830201EBFB
:102790004203303BF3E76C290DD068290BD069293F
:1027A00021D00BDC252918D0582931D063290ED02F
:1027B000642915D117E014F8011FECE7702969D0DE
:1027C000732932D075291BD0782909D120E0D9F896
:1027D0000000011DC9F8001001784046FEF75EFDBB
:1027E000641C90E76CE0D9F800100A1DC9F80020BD
:1027F0000968CDE900500A224046FEF7B9FDEFE72F
:10280000D9F800100A1DC9F8002009680A2206E05C
:10281000D9F800100A1DC9F8002009681022CDE976
:102820000050404601F028FEDAE7D9F800100027F2
:102830000A1DC9F800200E68C00705D112E0404605
:10284000761C7F1CFEF72AFD31780029F7D104E0C1
:10285000202140466D1EFEF721FDBD42C0D9002D4E
:10286000F6D1BDE74EB13046FDF7AAFD074604E0BC
:10287000202140466D1EFEF711FDBD4206D9002DF8
:10288000F6D103E04046761CFEF708FD31780029BA
:10289000F8D1A5E7D9F80000011DC9F800100568B6
:1028A00030214046FEF7FAFC78214046FEF7F6FC60
:1028B00008200021CDE90001034610222946B0E797
:1028C000BDE8FC872DE9FF411C46DDE90A78154685
:1028D0000E46684600F068F846EA450141EA840180
:1028E00041EA072242EA0841009A00EB8200C0F860
:1028F0000017BDE8FF812DE9FF411C46DDE90A789C
:1029000015460E46684600F05DF846EA450141EA84
:10291000840141EA072242EA0841009A00EB820062
:10292000C0F80017BDE8FF812DE9FF411C46DDE935
:102930000A7815460E46684600F052F846EA450108
:1029400041EA840141EA072242EA0841009A00EB89
:102950008200C0F80017BDE8FF811CB500220B46BD
:10296000009211460192FFF7C6FF1CBD1CB5002264
:102970000B46009211460192FFF7D6FF1CBD1CB515
:10298000002100910B46012201911146FFF7B3FF90
:102990001CBD1CB5002100910B460122019111467E
:1029A000FFF7C2FF1CBD00000168202902D24FF0D2
:1029B000A040704701F01F0101600148704700000E
:1029C000000300500168202902D24FF0A040704758
:1029D00001F01F0101600148704700000003005032
:1029E0000168202902D24FF0A040704701F01F017A
:1029F00001600148704700000003005001B56846BF
:102A0000FFF7E0FF009A01219140C0F8081508BDCA
:102A100001B56846FFF7E4FF009A01219140C0F834
:102A2000081508BD38B501240090684631B1FFF79C
:102A3000BBFF00998C40C0F8084538BDFFF7B4FFD4
:102A400000998C40C0F80C4538BD000030B5154ADF
:102A500001460020D2F8104423460AE0DB681D79C5
:102A6000854205D1401C0A28F6DB4FF0FF3030BD0F
:102A70001B68002BF2D1431CF9D0CB681871D2F837
:102A8000103443B1DB68CC681B682360D2F8102493
:102A9000D268116030BDC2F81014C96800220A6003
:102AA00030BD0000A41700207047FDF7F7BE704747
:102AB00008B5034A00924023024A00F005F808BD19
:102AC000E93F00000C160020F0B595B01C461546F5
:102AD0000F4608461A9E00F0F5FA182109A8FDF7DE
:102AE00064FC0E96CDE909540023082203A9384658
:102AF00000F0FDFA05980690BDF81000ADF81C0036
:102B0000BDF81200ADF81E0000208DF821000398DA
:102B1000082600F00300012802D0022818D032E075
:102B200003983346850AC0F3C2008DF8200003984D
:102B30000FA9C0F38314A200384600F0D8FA09A800
:102B4000009006AB22460FA9284600F017FA1AE0BB
:102B50000398840DC0F3C2008DF82000082C01D228
:102B6000254600E0082533462A460FA9384600F0DE
:102B7000BEFA2E44641B09AB06AA29460FA800F032
:102B800065F9002CEAD1384600F0A2FA15B0F0BD84
:102B90000A4A012902EBC00007D0022907D0032905
:102BA00007D0042907D00020704702207047042076
:102BB000704700797047407970470000FC4C000076
:102BC00010B5FFF772FF04210348FFF73FFF0249EA
:102BD0000120C968487110BDEC4C00002DE9F04798
:102BE0008CB0FEF773FB18B100200CB0BDE8F08785
:102BF0007D4C0020C4F81804BFF34F8F7B49A068B8
:102C000002900D684FF00008284004EB80000BE0B4
:102C1000D4F8180470B961680298814201D8A160A3
:102C2000E2E7284004EB80000C3002A9FEF738FCF4
:102C30000028EDD1002003AA029901EA050304EB64
:102C40008303491CDB6842F82030401C02910228B3
:102C5000F2D3039800F00300022802D001284DD0DF
:102C6000A7E003985022810D8946B2EB905F00D80F
:102C700050210E4666F39F50039008315C4800F0E7
:102C8000D8F9070078D000F01DFA4346082203A9BE
:102C9000384600F034FA029908F1080A2940681A07
:102CA0008000001D864222D94F4D0C3530B1C2B292
:102CB00004EB8101301A90460C3104E02946F2B24F
:102CC000002590462846C6B25346384600F017FA0B
:102CD0000AEB080325B132462946384600F00FFAC0
:102CE000029909F1030001EB900002903BE004EB34
:102CF00081015346324638460C31EFE70398C0F362
:102D00008310062800D30620039960F38911C1F3CC
:102D10008310801C03918100354800F08AF9070078
:102D200047D000F0CFF94346082203A9384600F007
:102D3000E6F908F1080800260FE00298434600EA89
:102D40000501401C04EB81010290042238460C313D
:102D500000F0D5F908F10408761C0398C0F383103D
:102D6000B042EAD847B1D4F81054D4F8180478B176
:102D7000384600F0ADF931E01BE0E8684079012801
:102D800004D12A682846394612689047E8680568E1
:102D9000002DF2D1384600F09BF90020FEF768F9CB
:102DA000D4F8180408B90298A0600020FEF762F970
:102DB00014E0D4F8104405E021682046896888476B
:102DC000E0680468002CF7D10A480B49401AC00893
:102DD000022101EB004009A100F01AF8FEF776FA93
:102DE00080F0010001E70000A4170020CC000020C3
:102DF000444D00003C4D0000FC4C00004261636B00
:102E0000656E647320666C7573686564000000000D
:102E100000231A4601F010B908B5012300926A4652
:102E200001F00AF908BD3EB5069C8DE81C0003239D
:102E30006A4601F001F93EBD7FB5DDE908458DE840
:102E40003C0004236A4601F0F7F87FBD2DE9F04706
:102E50000E4680461C469246082940D894F80C90AD
:102E6000002020731946104601F026F80025B542CF
:102E700006D218F805201BA12046FFF71DFC03E031
:102E80001AA12046FFF718FC6D1C082DEFD318A1DE
:102E90002046FFF711FC0025B54212D218F8057044
:102EA0007E2F08D8FDF764FA0068C05D10F03E0F71
:102EB00001D03A4600E02E220EA12046FFF7FCFB8F
:102EC00003E00DA12046FFF7F7FB6D1C082DE3D3AF
:102ED00001222146504600F0D1FF84F80C90BDE855
:102EE000F0870000202530327800000020202000EC
:102EF0007C0000002563000020000000064910B59A
:102F000000200870054800F0E1F8002803D10448CB
:102F100000F08EF9002010BDA4170020444D0000E1
:102F2000E845000002480349401AC0087047000005
:102F3000444D0000FC4C000013B56846FEF700FF4E
:102F400008B100201CBD0248009950F831001CBD9A
:102F5000FC4C000070B508480125D0F810440570FD
:102F600007E0E06845712168204649688847E068C5
:102F70000468002CF5D170BDA41700202DE9FF478F
:102F800081460C9D00200C462F7B287398461646E0
:102F90002946184600F090FF072E42D2DFE806F0DF
:102FA00004090F161F2A360049462846FFF784FBFE
:102FB00037E0494628462268FFF77EFB31E0D4E936
:102FC000002349462846FFF777FB2AE0A0680090D7
:102FD000D4E9002349462846FFF76EFB21E0D4E9F7
:102FE0000201CDE90001D4E9002349462846FFF754
:102FF00063FB16E004F1080007C88DE80700D4E978
:10300000002349462846FFF757FB0AE004F1080071
:103010000FC88DE80F00D4E9002349462846FFF782
:103020004BFB00222946404600F028FF2F73BDE8E5
:10303000FF872DE9F041058A80462D1F4819C01CE5
:10304000B0FBF5F0C6B24046FFF72EFA041E19D0C9
:103050000020207101206071E58000272546761E42
:10306000C4F800800BE04046FFF71EFA60B16179BA
:10307000491C6171286005467F1CC0F80080B7427A
:10308000F1D32046BDE8F081204600F002F8002090
:10309000F8E72DE9F041457901466B1E002201E079
:1030A0000968521C9A42FBD30F680146002605E0CE
:1030B00038460C68FFF717FA2146761CAE42F7D364
:1030C000BDE8F0810121001DFFF7D2B9FFF720BA5A
:1030D00010B504460121001DFFF7E0F910F0FF0FC5
:1030E00004D12046BDE81040FFF7D3BF10BD1CB58A
:1030F00001920122009201AAFEF7E2FD1CBD1CB55F
:1031000001920022009201AAFEF7DAFD1CBD000028
:1031100002494058002800D001207047005000406C
:10312000024A00218150BFF34F8F7047005000408A
:103130000449D1F80413014201D001207047002056
:103140007047000000500040C02903D0E9B1802939
:1031500002D00DE040210BE010F8012B10F8013BEC
:10316000120442EA032210F8013B1A430F4B1A6083
:1031700010F8012B10F8013B120442EA032210F868
:10318000013B1A43094B1B1F1A600268C07812BA30
:1031900022F0FF0202430548083802600348083065
:1031A000026822F0C0020A4302607047985500404E
:1031B00070B5054600681B4C002860790AD020B124
:1031C000BDE87040184800F0C9BABDE87040292039
:1031D00000F03EBA68B1144800F0C0FAA668002EAC
:1031E0001ED06B68E068B446BDE870400F4A02210B
:1031F00060470E4801780126E02907D14178C9438C
:10320000090703D000F0CAF86671E7E70078502894
:1032100003D0292000F01CFAE0E726702820F9E707
:1032200070BD00003C01002068460000F41F002033
:1032300082680021916082681161826851618268B0
:10324000D1608268516080680160704708B50022D3
:1032500042504058009008BD4058002800D001203E
:10326000704708B5002242504058009008BDD0F881
:103270000403084000D0012070474058002800D0C7
:103280000120704708B5002242504058009008BD08
:1032900002480068002800D0012070470004014067
:1032A00008480068012110F0010F06D14FF0E0201E
:1032B000C02280F800248430C167034901200860DF
:1032C0007047000000E100E01805004010B54FF421
:1032D0008070FFF73CF901208107C1F80403086002
:1032E00010BD0000012010B58107C1F808030002DD
:1032F000FFF72DF907490120086007494FF0011039
:103300000A6802F001128242FAD004490020487192
:1033100010BD0000040000400C0400401800002014
:103320000649024600200B790BB1852070470A60E0
:1033300001220A7100224A71704700001800002023
:103340000121B1EB507F01D101207047002070476F
:10335000104810B503780021021D33B101701172BD
:10336000BDE81040032000F0B1B8517A002910D018
:10337000917A00290DD0084A012111600170054899
:10338000001D00F057FA0348BDE81040001D00F092
:1033900081BA10BD200000200050004002480168A2
:1033A00041F00101016070479C55004002480168EE
:1033B00021F00101016070479C5500400749012040
:1033C0000860074A01460832054811600549C0F8FF
:1033D00004130421C0F80413704700000454004093
:1033E000005000408200080070B50546FEF744FF1B
:1033F000286800262F4C402821D00FDC042843D019
:10340000082821D0102819D1A07890B3FFF7CEFF5B
:10341000282000F01DF9A67066712EE0802840D0AB
:10342000B0F5002F0AD1244800F098F9A56825B11D
:1034300000231A461946E068A847667170BD281D2A
:10344000BDE87040FFF7B4BE60790028F6D0AA68E6
:10345000107800F0F700C22801D10120A070A66802
:10346000002EEBD06B68E068B446BDE870400421E4
:103470006047FFE7104800F071F9A568002DDDD026
:1034800000231A46032107E0FFF790FFA568002DEF
:10349000D4D000231A460121E068AC46BDE8704054
:1034A000604728790028C9D120780028C6D0267026
:1034B00070BD00003C010020684600000248006822
:1034C000800700D0012070473C54004031B52149AD
:1034D00084B0087A002826D19DF81000032807D16F
:1034E000FFF7ECFF08B1022000E001208DF810008A
:1034F0009DF8102000200125174C012A15D0022A22
:1035000011D1627A002A0ED1487288720D72114868
:1035100000F090F90F4800F0BDF9657202200090AC
:1035200014E06846884705B030BD617A0029FAD0BA
:103530000A4A0A49083215604FF48F62C1F808231D
:10354000607204200090012000F01CF861680029DE
:10355000E7D1E8E72400002080150020005000405B
:1035600010B5B0F5A07F09D1054901208872084641
:1035700000F082F9BDE81040FFF7EABE10BD000080
:1035800024000020044908B1881403E00348C068FF
:10359000C0F31300086070470855004080150020F4
:1035A000FEB5254C217A09B10820FEBDD0E90010F6
:1035B0002160606021490320086020489430016840
:1035C00021F01F0141F0040101600520FDF727FBF8
:1035D0001B49C02081F8000401252020491FC1F8A3
:1035E00000011849184AD1E90001CDE9010101A9FA
:1035F000164800F073F90028D7D114480068D0F8B5
:1036000010050021C2B24FF47A50FCF7A1FE024629
:10361000012300210D48009500F04AF90721684672
:1036200000F034F80646C0216846FFF78DFD25728C
:103630002803E0603046FEBD801500200C55004098
:1036400005E000E04C45000061350000240000204A
:1036500010B501210B4C292801D0204409E00A486B
:10366000006810F0010F02D00648283001E005483C
:10367000243001600120FFF785FF4FF48F60C4F80C
:10368000080310BD005000402054004030B504290C
:1036900005D0072903D00A2901D0092030BD124ADC
:1036A0001468121D1268104B08331B680470250A39
:1036B000240C45708470D4B2C470042912D0150A49
:1036C0000571150C120E457182710A2902D0882CE1
:1036D00006D007E0C371190A0172190C417201E0AA
:1036E0009921C170002030BD5004001010B5017840
:1036F00021B101290DD0022923D117E040681449D6
:10370000B0F5801F08D8884200D908461149C86022
:1037100017E00079032801D9072010BD0E490A6877
:1037200022F0600242EA401008600AE0017A0429AF
:1037300009D0072901D00A2907D040214068FFF7A6
:1037400003FD002010BD0021F8E78021F6E700000E
:10375000FFFF0F0080150020A4550040094A416872
:1037600000881160111DC0F3080008600648074971
:10377000008800F48C60C1F80403044901201C3166
:103780000860704710550040801500200050004030
:10379000012110B1034A8150704703484172FFF77D
:1037A000D7BD0000005000402400002010B5026882
:1037B000FAB1114C43682360231DC2F308021A605A
:1037C00000884FF6FF7202EAC0000B4AC0F30B00FC
:1037D0000C321060201F016008480949007800F091
:1037E0001800C1F80403064901200C3108600020CC
:1037F00010BD092010BD00001055004080150020AC
:103800000050004070B50D4600F0A2FB04000FD040
:103810000020FDF72DFC207920B10020FDF72AFCC7
:10382000112070BD0120256020710020FDF722FCD1
:10383000002070BD00680121C16070472DE9F04192
:1038400006460D464FF4803400681746AC404BB135
:103850004FF4A07101EB8501FFF7F8FC3068C0F868
:10386000044301E0C0F80843306800EB8500C0F86D
:103870004075BDE8F0810000026801211161007906
:10388000034A00EB400002EB800001727047000029
:1038900090150020016801220A600079034A00EBBC
:1038A000400002EB80000221017270479015002059
:1038B000F0B40468049E40F20115D4F800728D4003
:1038C000AF43C4F800720468D4F800521D43C4F832
:1038D00000523346F0BCFFF7B1BF00002DE9F041C4
:1038E00004460E4600792C4900EB400001EB8007AE
:1038F000387A10B10820BDE8F0813A607068002580
:103900004FF4A078786006E008EB85012068FFF7A7
:103910009DFC6D1CEDB26079A842F5D82068F17865
:1039200040F3073000284FEA411104DB00F1E020AA
:1039300080F8001405E000F00F0000F1E02080F8AE
:10394000141D2068012140F30730002809DB00F036
:103950001F0201FA02F24009800000F1E020C0F8E5
:10396000002120687278D0F8043562F30103C0F8B2
:1039700004352068B278D0F8083562F30103C0F846
:10398000083520683278D0F8103562F30303C0F8A8
:10399000103539720020AEE7901500200149024829
:1039A00000F032BC9C150020002000402DE9F041C1
:1039B0000546007916460F4600EB40012D4A01EB03
:1039C000C00102EB810494F82A1011B10820BDE86F
:1039D000F081294951F820102868FFF713FF08B13A
:1039E0001120F4E739462846FDF758FB6660386930
:1039F000206030004FF001062FD03F7F4FF48E71D2
:103A00002868FFF72EFC4FF4A2712868FFF729FC05
:103A100028681A49C0F8041328684FEA471140F390
:103A20000730002804DB00F1E02080F8001405E0F6
:103A300000F00F0000F1E02080F8141D286840F32A
:103A40000730002809DB00F01F0106FA01F14009E8
:103A5000800000F1E020C0F8001128680421C0F8BF
:103A600000150020A061E06184F8290044F8140FDB
:103A7000A675ACE79C15002094450000800002006C
:103A80002DE9F05F054600794FF4017600EB400325
:103A900003EBC000344B03EB80040020636813B1D8
:103AA0002B68C3F80863A3694FF000096BB1E069A4
:103AB00038B1606810B12868C0F804631120BDE80F
:103AC000F09FE2610120216105E0C4F82490A26129
:103AD000E160C4F81C9094F82910014302D12846F3
:103AE00000F071FA60680028286803D0C0F8046309
:103AF0000020E4E74FF4A2763146FFF7B2FBB2466E
:103B00004FF4927B59462868FFF7A6FB06464FF410
:103B100084712868FFF7A0FB804651462868FFF7AC
:103B20009BFB074648EA07003043EBD056EA070004
:103B300007D12146286800F017FAA169606A81421E
:103B4000E0D8C4F818900EB10320B8E70FB10F20E9
:103B5000B5E794F8291001200029296801D00860F0
:103B6000C6E74860C4E700009C1500202DE9F05F1F
:103B7000054600790B4600EB400101EBC0002449EB
:103B800001EB8004284600F045F810B11120BDE893
:103B9000F09F62614FF00009C4F82090A36084F8A0
:103BA00028904FF48E784E4641462868FFF759FB1F
:103BB00028684FF0010AC0F808A02146286800F0E4
:103BC00085FA606808BBD5F800B067690FE000BFF0
:103BD00094F8280008B10F2615E041465846FFF733
:103BE0003BFB0028F4D02146584600F06FFA206ACB
:103BF000B842F2D3574641462868FFF72DFB00280C
:103C0000F9D02868C760C4F814903046BFE70000B8
:103C10009C150020007900EB400101EBC000044935
:103C200001EB80004069002800D0012070470000AF
:103C30009C1500200149024800F094BBC8150020E3
:103C4000002000402DE9F0410546164600790F4658
:103C5000154A00EBC00102EB810494F8201011B169
:103C60000820BDE8F081114951F820102868FFF7BD
:103C7000C9FD08B11120F4E739462846FDF749FA95
:103C80006660386920601EB1397F2846FDF7C4FBA5
:103C900028680821C0F800150020A061E06160617B
:103CA000012184F82010DCE7C815002098450000A9
:103CB0002DE9F05F044600790E4600EBC001DFF805
:103CC000F0A017460AEB81053046FFF739FBB0B18B
:103CD00068684FF000084FF4047910B12168C1F80A
:103CE0000893A8694FF0000B80B1E86948B1686893
:103CF00010B12068C0F804931120BDE8F09F102097
:103D0000FBE7EF614FF001082E6102E0EE60C5E9CC
:103D1000067B00254FF488712068FFF7B3FA4FF453
:103D2000A2712068FFF7AEFA2068C0F83465C0F8C9
:103D300038752068B8F1000F12D0D0F8001241F0A9
:103D40002001C0F800122079D04600EBC0010AEB38
:103D50008100406838B12068C0F804932846CCE759
:103D600001210160EFE74FF4887A4FF4A2795146C0
:103D70002068FFF782FA074649462068FFF77DFA78
:103D800006464FF492712068FFF777FA014647EA3A
:103D900006000843EBD0227902EBC20308EB830252
:103DA000C2F818B001B10325002ED7D00F25D5E7F2
:103DB000C81500202DE9F04704460E460079274932
:103DC00000EBC00001EB800517463046FFF7B8FA5C
:103DD00030B1204600F044F820B11120BDE8F08752
:103DE0001020FBE76F61AE604FF490774FF0000852
:103DF00039462068FFF746FA4FF4AC763146206822
:103E0000FFF740FA2068AA686969C0F84425C0F83D
:103E1000481520684FF00109C0F808906868D0B9CB
:103E2000BA4651462068FFF728FA0746314620680F
:103E3000FFF723FA0743F4D010B14FF00F0808E062
:103E40002068C0F80C9031462068FFF716FA002869
:103E5000F9D0002068614046C0E70000C815002086
:103E60000079054900EBC00001EB800040690028A3
:103E700000D0012070470000C815002010B50C4686
:103E8000017A052908D0407A38B1084808A10268AB
:103E90002046FEF711FC00E01AB106A12046FEF70D
:103EA0000BFC2046BDE81040FEF713BCFC000020D0
:103EB000257300000D0A000038B5C3880D4604467E
:103EC00033B114A0009015A216A12846FEF7F4FB0A
:103ED000217A05291CD0607A48B1A088FEF758FEE7
:103EE000164951F8202016A12846FEF7E5FBA088C8
:103EF0000021FFF721F803461049207A143951F8C0
:103F0000202001B02846BDE830400EA1FEF7D4BB0A
:103F100038BD00001B5B306D000000001B5B313BB7
:103F200033316D0025734C6F67732064726F70704E
:103F30006564202825642925730D0A00FC000020F3
:103F4000257300003C25733E2025733A20000000B5
:103F50000349884201D103487047002070470000A0
:103F6000002000403000002070B5054688690C46EE
:103F700000284FF4847128460AD0FFF772F9D5F86B
:103F80001805626AE1688854606A401C606270BD0E
:103F9000FFF767F9D5F8180570BD1FB501238DF837
:103FA0000030CDE90121D0E90012684690471FBDDD
:103FB0001FB501238DF80030CDE90121D0E90012B1
:103FC000684690471FBD10B5044600684FF49271D3
:103FD000FFF747F94FF484712068FFF742F9206832
:103FE0000121016010BD00002DE9F0411400884658
:103FF00018D000250E4F032608EB050122460020AD
:10400000FCF74EFC0544241A40B93878002809D042
:1040100008494FF47A408847761E05D00120387051
:10402000002CE9D1BDE8F08100203870FAE70000EB
:10403000C0000020E14500002DE9F84F0746214867
:104040009146884605681E46012269461846FDF7D6
:10405000DFF8DFF874A060B3009800210446801CEC
:104060000AE000BF00EA050259F821C00AEB82020B
:10407000401C491CC2F80CC0B142F3D34FEA1749A7
:10408000FDF758F9611C29400AEB810149EA004219
:104090002C40CA600AEB8401C86867F3C50066F368
:1040A000891068F39F2020F00300401C20F00400DA
:1040B000C8609AF8000001E0FEF790FD0028FBD1EF
:1040C000BDE8F88FCC000020A417002070B50C4686
:1040D00005464FF48E71FFF7C4F8216AA068415C71
:1040E000206A401C2062C5F81C1570BD1FB5002257
:1040F0008DF800200291816801914261D0E900129F
:10410000684690471FBD1FB500228DF80020029120
:10411000816801914261D0E90012684690471FBD55
:104120000178022901D0012902D14068FCF774BE50
:10413000704700007CB50178254DA1B301290BD053
:1041400002291DD18DF80010C068691C0190012260
:10415000C81DFEF791FA30E0017A59B14068017844
:104160001C48FCF783FE1B4C012650B18DF8006003
:1041700001900DE016490122491CC81DFEF77CFA8A
:104180007CBDA068E168814205D000208DF8000068
:10419000696868468847A068E168081AA18888426B
:1041A000E8D9AE707CBDFFE70A4809491030FCF73A
:1041B00042FE30B103208DF80000696868468847E8
:1041C000F0E70349012201F10800FEF765FAE9E78B
:1041D00038000020EC1500201FB50A4601788DF844
:1041E000001041680191017A8DF80810C0680390B1
:1041F000044850F82210083850F8222068469047AA
:104200001FBD0000100000202DE9FF470C460546A9
:104210004FF40071FFF72BF801274FF401780026C7
:1042200018B34FF4927949462846FFF715F8E0B1E4
:1042300049462846FFF715F8C5F8088394F8290081
:1042400000B96F6002208DF80000D5F88004C5F831
:1042500080040390A0690290E0680190A661E66185
:10426000D4E900126846904728E004212846FEF76A
:10427000FEFF18B34FF484712846FEF7EDFFE8B156
:1042800021462846FFF770FE616AA069884215D171
:10429000E06938B1E268616AA0612069E66166623E
:1042A000E06008E094F8290000B96F60C5F8088361
:1042B000A661E268616A2046FFF76FFE4FF48E78D0
:1042C00041462846FEF7C8FF80B16069216A8142F5
:1042D00002D294F8280028B341462846FEF7C1FFD1
:1042E000606918B161692046FFF700FF4FF4A278BA
:1042F00041462846FEF7B0FF002818D04146284620
:10430000FEF7AFFF94F8290000B12F60A0690028E4
:104310000DD0A661E268616A04B02046BDE8F047AE
:10432000FFF73BBE21462846FFF7D0FEDEE7BDE89B
:10433000FF8700001FB50A4601788DF8001041681C
:104340000191017A8DF80810C0680390044850F874
:104350002210083850F82220684690471FBD000000
:10436000100000202DE9FF410C464FF492770546DE
:104370003946FEF782FF0026B8B139462846FEF7D7
:1043800081FF02208DF80000D5F88004C5F8800474
:104390000390D5F83C050290E0680190A661E661C3
:1043A000D4E900126846904723E04FF488773946F5
:1043B0002846FEF762FFE0B139462846FEF762FF65
:1043C000D5F83C15A069884213D1E06960B1E26874
:1043D000D5F8000220F02000C5F80002E069A061D5
:1043E0002069E661E06001E0A661E2682046FFF72F
:1043F000DFFD4FF4A27739462846FEF73EFF68B14D
:1044000039462846FEF73EFFA06938B1A661E6614D
:10441000D5F83C152046E268FFF7CAFD4FF49076C8
:1044200031462846FEF729FF60B131462846FEF79F
:1044300029FF0120E860606920B1D5F84C152046BD
:10444000FFF761FE4FF4AC7631462846FEF715FFC4
:1044500000280ED031462846FEF714FF6069002878
:1044600007D0D5F84C1504B02046BDE8F041FFF761
:104470004ABEBDE8FF8100002DE9F05F8346DDE91B
:104480000A4A994690460D460846012703E000BFB8
:10449000B0FBF8F07F1C4045FAD2B94500D94F4631
:1044A0005FEACA7012D18CB15FEA8A7002D5B9F1A5
:1044B000000F01D0202607E0302605E0314658469F
:1044C000641EFCF7EBFE0CB1A742F7D35FF00106C8
:1044D000B9F1010F02D9A9F1010903E0B5FBF6F02A
:1044E000404502D306FB08F6F2E7DFF83C9000BF38
:1044F000B5FBF6F000FB165519F800105846FCF70E
:10450000CDFEB6FBF8F6002EF2D15FEACA7009D0F4
:10451000002C07D0A74205D220215846641EFCF784
:10452000BDFEF5E7BDE8F09FBC45000008000000B7
:104530000600000005000000070000000000000069
:1045400000E0D7010D0E0F100B0C18190400000627
:10455000000000004000000000000000000000001B
:10456000000000001000000000000000000000003B
:104570000000000000000800000000000000000033
:1045800000000000800000000000000000000000AB
:10459000000000009D390000353C0000FFFFFFFFD8
:1045A000FFFFFFFFFFFFFFFFFFFFFFFF0000000017
:1045B000000000000000D601060100003031323357
:1045C000343536373839414243444546B12A000034
:1045D000AF2A0000A92A000000000000000000002F
:1045E0000338FDD8704700000C1700207F00000042
:1045F0008C1700200090006A826B0000A4000C025F
:10460000E10300A4000C02E10400A4040007D27638
:10461000000085010100000F2000F800F80406E109
:10462000040000000000000010000000180000005E
:1046300020000000280000003000000040000000C2
:104640006000000080000000000100000000000089
:10465000000000000000000000000000000000005A
:10466000000000000000000000010000F41F002016
:1046700058040000E9330000004040404040404002
:104680004040414141414140404040404040404025
:1046900040404040404040404005020202020202C9
:1046A0000202020202020202022020202020202018
:1046B000202020020202020202029090909090902C
:1046C00010101010101010101010101010101010EA
:1046D000101010100202020202028888888888885E
:1046E000080808080808080808080808080808084A
:1046F0000808080802020202400000007946000093
:104700004461746120627573206572726F72202833
:1047100072657475726E206164647265737320696A
:104720006E2074686520737461636B206672616DBE
:1047300065206973206E6F742072656C61746564A6
:1047400020746F2074686520696E73747275637469
:10475000696F6E207468617420636175736564208D
:10476000746865206572726F72290000446174611B
:1047700020627573206572726F7220285043207614
:10478000616C756520737461636B656420666F721C
:104790002074686520657863657074696F6E207237
:1047A000657475726E20706F696E747320746F20FB
:1047B00074686520696E737472756374696F6E20B6
:1047C0007468617420636175736564207468652022
:1047D0006661756C7429000043617573653A204207
:1047E00075734661756C74206F6E20612076656309
:1047F000746F72207461626C6520726561642064FC
:104800007572696E6720657863657074696F6E2074
:1048100070726F63657373696E672E0054686520EC
:1048200070726F636573736F72206861732065784F
:1048300065637574656420616E2053444956206F2A
:1048400072205544495620696E7374727563746999
:104850006F6E207769746820612064697669736F70
:1048600072206F66203000005468652070726F639C
:104870006573736F722068617320617474656D7005
:1048800074656420746F2065786563757465206154
:104890006E20696E737472756374696F6E207468CC
:1048A0006174206D616B657320696C6C6567616C08
:1048B00020757365206F66207468652045505352DB
:1048C000000000005468652070726F636573736F39
:1048D000722068617320617474656D707465642002
:1048E000616E20696C6C6567616C206C6F6164201F
:1048F0006F66204558435F52455455524E20746FA1
:10490000207468652050432C2061732061207265FB
:1049100073756C74206F6620616E20696E76616CB1
:10492000696420636F6E746578742C206F722061E7
:104930006E20696E76616C6964204558435F52450C
:104940005455524E2076616C7565000054686520A0
:1049500070726F636573736F7220617474656D70CC
:104960007465642061206C6F6164206F72207374C1
:104970006F72652061742061206C6F636174696F70
:104980006E207468617420646F6573206E6F74208C
:104990007065726D697420746865206F70657261EE
:1049A00074696F6E0000000041204D656D4D616EB1
:1049B000616765206661756C74206F6363757272E0
:1049C000656420647572696E6720666C6F617469D6
:1049D0006E672D706F696E74206C617A79207374C4
:1049E00061746520707265736572766174696F6E4B
:1049F000000000004120627573206661756C7420B0
:104A00006F6363757272656420647572696E672086
:104A1000666C6F6174696E672D706F696E74206C5F
:104A2000617A792073746174652070726573657240
:104A3000766174696F6E00005468652070726F63F0
:104A40006573736F722068617320617474656D7033
:104A500074656420746F2065786563757465206182
:104A60006E20756E646566696E656420696E737428
:104A700072756374696F6E00496E737472756374D6
:104A8000696F6E20627573206572726F720000002C
:104A90005468652070726F636573736F722068610C
:104AA0007320617474656D7074656420746F206127
:104AB0006363657373206120636F70726F636573E6
:104AC000736F7200556E737461636B20666F722032
:104AD000616E20657863657074696F6E20726574AD
:104AE00075726E2068617320636175736564206FF1
:104AF0006E65206F72206D6F7265206163636573F0
:104B0000732076696F6C6174696F6E7300000000CA
:104B1000537461636B696E6720666F7220616E20EB
:104B2000657863657074696F6E20656E7472792044
:104B300068617320636175736564206F6E65206FB3
:104B400072206D6F7265206163636573732076698F
:104B50006F6C6174696F6E730000000054686520AB
:104B600070726F636573736F7220686173206D611B
:104B7000646520616E20756E616C69676E65642086
:104B80006D656D6F727920616363657373000000FA
:104B9000556E737461636B20666F7220616E206561
:104BA0007863657074696F6E2072657475726E20BB
:104BB00068617320636175736564206F6E65206F33
:104BC00072206D6F7265204275734661756C7473E7
:104BD00000000000537461636B696E6720666F723A
:104BE00020616E20657863657074696F6E20656EF4
:104BF0007472792068617320636175736564206FD6
:104C00006E65206F72206D6F72652042757346610C
:104C1000756C7473000000007761726E696E6700D6
:104C200064656275670000001B5B313B33306D00CB
:104C30001B5B306D000000001B5B313B33316D00AE
:104C40001B5B313B33326D001B5B313B33336D00FB
:104C50001B5B313B33346D001B5B313B33356D00E7
:104C60001B5B313B33366D001B5B313B33376D00D3
:104C7000696E666F00000000636C6F636B0000007C
:104C8000434C4F434B0000004E464354000000008D
:104C90005052530054494D45520000005541525462
:104CA00000000000554152544500000068617264E4
:104CB0006661756C740000007274745F6C6F675F7E
:104CC0006261636B656E640061707000584D000036
:104CD000000000204C01000020040000E04D000016
:104CE0004C010020B43F0000E40C0000CC45000063
:104CF00000000000B84C0000C4000020784C000008
:104D000000000000804C000000000000884C000003
:104D100000000000904C000000000000944C0000D7
:104D2000000000009C4C000000000000A44C0000AB
:104D300000000000AC4C000000000303C84C000061
:104D400000000303D8000020D0000020D80000207D
:104D50004C160020180000000126061CB00140007F
:104D600006642000409420004033384A734C493395
:104D7000C44A33104BB3A84933784A436C4732478F
:104D800033904B33D44BB3F44933384A3368483308
:104D9000C4480313904A335C4BB31C4842FF0220C3
:104DA000FF33884A33184C33704C33204C33304C2B
:104DB00033284C33384C33404C33484C33504C330D
:104DC000584C33604CC3684C3790D0030203014AFF
:104DD000010101010102020104D4040001000000EC
:0400000500000201F4
:00000001FF
