:020000040000FA
:10000000F8230020150200001D0200001F0200005E
:100010002102000023020000250200000000000071
:1000200000000000000000000000000027020000A7
:1000300029020000000000002B0200002D02000039
:100040002F0200002F020000590600002F020000BE
:100050002F0200002F0200002F0200002F020000DC
:100060002F0200002F0200002F0200002F020000CC
:100070002F0200002F0200002F0200002F020000BC
:100080002F0200002F0200002F0200002F020000AC
:100090002F0200002F0200002F0200002F0200009C
:1000A0002F0200002F0200002F0200002F0200008C
:1000B0002F0200002F0200000000000000000000DE
:1000C0002F0200002F0200002F0200002F0200006C
:1000D0002F0200002F0200002F020000000000008D
:1000E0000000000000000000000000000000000010
:1000F0000000000000000000000000000000000000
:1001000000000000000000000000000000000000EF
:1001100000000000000000000000000000000000DF
:1001200000000000000000000000000000000000CF
:1001300000000000000000000000000000000000BF
:1001400000000000000000000000000000000000AF
:10015000000000000000000000000000000000009F
:10016000000000000000000000000000000000008F
:10017000000000000000000000000000000000007F
:10018000000000000000000000000000000000006F
:10019000000000000000000000000000000000005F
:1001A000000000000000000000000000000000004F
:1001B000000000000000000000000000000000003F
:1001C000000000000000000000000000000000002F
:1001D000000000000000000000000000000000001F
:1001E000000000000000000000000000000000000F
:1001F00000000000000000000000000000000000FF
:10020000DFF80CD000F04AF800480047C1100000A9
:10021000F82300200648804706480047FEE7FEE72F
:10022000FEE7FEE7FEE7FEE7FEE7FEE7FEE7FEE7A6
:10023000C10200000102000040EA01039B0703D055
:1002400009E008C9121F08C0042AFAD203E011F815
:10025000013B00F8013B521EF9D27047D2B201E0D7
:1002600000F8012B491EFBD270470022F6E710B5BB
:1002700013460A4604461946FFF7F0FF204610BD14
:1002800030B504460020034600E05B1C934203D2D5
:10029000E05CCD5C401BF8D030BD0000064C074D43
:1002A00006E0E06840F0010394E807009847103446
:1002B000AC42F6D3FFF7A8FF442000006420000002
:1002C000F0B5D34AD3494FF080541368D4F83001C5
:1002D0000978D4F83421451CC1F3031107D08446B2
:1002E000164601270025BCF1060F04D013E003F0E9
:1002F000FF0C0E46F5E7032E05D0042E03D0052E85
:1003000001D0062E07D1B4F82463DFF80CC3C6F37E
:100310000426CCF80060DEB2062E06D1032904D1F3
:10032000DFF8FCC2BD4ECCF87460461C06D0844693
:100330004FEA0206BCF1060F04D013E003F0FF0CF5
:100340000E46F7E7032E05D0042E03D0052E01D06C
:10035000062E07D1D4F84462DFF8C8C2C6F342368D
:10036000CCF80060DEB2062E08D1032906D1AE4ECD
:10037000D6F800C02CF0807CC6F800C0461C05D022
:1003800084461646BCF1060F04D014E003F0FF0CBF
:100390000E46F7E7032E05D0042E03D0052E01D01C
:1003A000062E08D14FF08046C6F80C51C6F8105101
:1003B0009C4E361F3560DEB2062E08D1032906D1C9
:1003C000DFF860C203260CF1640CCCF80060DEB2EA
:1003D000062E11D103290FD1DFF850C20526CCF823
:1003E0000060924E78363760904E083635600CF1DA
:1003F000040C3F26CCF80060461C05D08446164607
:10040000BCF1060F04D087E003F0FF0C0E46F7E7BF
:10041000032E7CD0042E7FD0052E01D0062E7BD15A
:10042000834E3668DFF80CC2CCF80060804E361D73
:1004300036680CF1040CCCF800607D4E0836366846
:100440000CF1040CCCF80060794E0C3636680CF1D7
:10045000040CCCF80060764E103636680CF1040CB3
:10046000CCF80060724E143636680CF1040CCCF8EF
:1004700000606F4E18363668DFF8B8C10CF1200CFA
:10048000CCF800606A4E1C3636680CF1040CCCF8CF
:100490000060674E203636680CF1040CCCF8006022
:1004A000634E243636680CF1040CCCF80060604EC4
:1004B000283636680CF1040CCCF800605C4E2C3603
:1004C00036680CF1040CCCF80060594E30363668B2
:1004D000DFF860C10CF1400CCCF80060544E3436AB
:1004E00036680CF1040CCCF80060514E3836366892
:1004F0000CF1040CCCF800604D4E3C3636680CF123
:10050000040CCCF800604A4E4036366800E003E048
:100510000CF1040CCCF80060461C05D0844616464D
:10052000BCF1060F04D011E003F0FF0C0E46F7E714
:10053000032E05D0042E03D0052E01D0062E05D1A2
:10054000D4F858423C4E04F04F043460441C04D0AC
:1005500003461146062B02D010E0DBB2FAE703296E
:1005600005D0042903D0052901D0062906D1334935
:100570000B68DB0702D06FF001030B6006280CD17B
:10058000032A0AD0042A08D0052A06D0062A04D154
:100590002B48016841F48061016023487438016888
:1005A00041F470010160BFF34F8FBFF36F8F4FF0C5
:1005B0001021D1F80002002803DBD1F80402002842
:1005C00022DA204A176020480368002BFCD015234C
:1005D000C1F800320468002CFCD0C1F80432016874
:1005E0000029FCD0156001680029FCD0BFF34F8FB3
:1005F0000D48F0380168154A01F4E06111430160CB
:10060000BFF34F8F00BFFDE7124911480860F0BDEE
:10061000E00F00F0E80F00F0403501400DF0ADBAFA
:1006200000C007403C050040FCED00E010560040D3
:100630000404001020C50040E40E00400004004007
:100640003C17004004E5014000E401400400FA05C5
:100650000090D0037C0000200148006800470000A3
:1006600054000020002809DB00F01F020121914006
:100670004009800000F1E020C0F88012704702E0DD
:1006800008C8121F08C1002AFAD17047704700201D
:1006900001E001C1121F002AFBD17047024801216D
:1006A000016481637047000000100040064800218B
:1006B000C0F81C1101214161D0F81C110029FBD0A8
:1006C00002480068C0B27047001000404815004062
:1006D00072B609480068C00700D000BEBFF34F8F54
:1006E0000548E4380168054A01F4E06111430160FE
:1006F000BFF34F8F00BFFDE7F0ED00E00400FA0507
:100700000EB500210091CDE901106A4644F20100C6
:10071000FFF7DEFF0EBD10B58268C368934203D0B9
:1007200000F076FC002010BD052010BD29B112B1EB
:10073000531E134203D0092070470E2070470160FA
:10074000838000218160C1600846704710B58268CF
:10075000C3689A1A83889A4203D800F063FC002089
:1007600010BD042010BD000070B50A4E01460A48B5
:10077000B578FFF7D0FF04464DB10020B070711C72
:100780000122C81D00F032FD08B1FFF7B9FF204675
:1007900070BD00005C000020D4030020F0B5244EA2
:1007A00089B01F460D00044672603FD0A8882968B2
:1007B00082B22048FFF7BAFF002835D1A889A9687E
:1007C00082B21C481030FFF7B1FF00282CD1202244
:1007D00019496846FFF730FD60690690207C00B13A
:1007E00001208DF814008DF81C70607C00B10E2083
:1007F0008DF81500E0680290A068039020680190D1
:10080000606800900A480D4A6946083000F0BAFC5A
:10081000002809D1B0702068401C05D0044901228D
:10082000491CC81D00F0E2FC09B0F0BD0720FBE741
:100830005C000020D403002024200000B91B00002D
:1008400010B501461048FFF781FF040019D10F4889
:100850000F4A0178515C19B1001D00F0EDFF02E074
:100860000C3000F0C3FE60B9084907480839FFF7AB
:1008700052FF30B9054901220839044800F0C6FC8E
:100880000446204610BD0000E40300206400002060
:100890004800002000F002B800F008B872B6024824
:1008A0000168491C0160704778000020034908680E
:1008B000401E086000D162B670470000780000203A
:1008C0002DE9F041064608680C46411C4FF0A04750
:1008D0004FF0010506D005FA00F1C7F808152068A9
:1008E00000F0ECFC6068411C02D0002100F0D4FC58
:1008F0003168A069C1F82405607D227D316810430C
:10090000C1F86C05D4E900123068C0F81425C0F8AD
:100910000C15207D012815D1A068411C02D00021B2
:1009200000F0BAFCE068411C05D08540C7F80855C6
:10093000E06800F0C3FCD4E902123068C0F8082572
:10094000C0F81015BDE8F0812DE9F04106460868B1
:100950000C46411C4FF0A0474FF0010506D005FAA8
:1009600000F1C7F80815206800F0B2FC6068411C6F
:1009700002D0002100F099FC3168A069C1F824057B
:10098000607D217D32680843C2F86C05D4E900120D
:100990003068C0F80C15C0F81425207D012815D149
:1009A000A068411C02D0002100F07FFCE068411CDF
:1009B00005D08540C7F80855E06800F089FCD4E907
:1009C00002123068C0F80825C0F81015BDE8F081A3
:1009D0002DE9FC410646C0074FF000050ED0104F30
:1009E00000240122385D009500231146019500F096
:1009F0001DFC641C042CF4D300F01CF8B0070DD5CA
:100A0000074E0024361D0022305D03230095114659
:100A1000019500F00BFC641C042CF4D3BDE8FC81B0
:100A2000141F00000249085C012100F05BBC0000BB
:100A3000141F000010B500242046FFF7F3FF641CCC
:100A4000042CF9D310BD0000184810B50178427885
:100A500001F00F01FF2A16D8154B5B7A032B01D04A
:100A6000042B01D102290ED831B101290DD0022960
:100A70000DD003290DD006E00E49801CFFF700FCC5
:100A800008B9012010BD002010BD0F2302E055233E
:100A900000E0FF23002105E04418A4789C42F2D135
:100AA000491CC9B29142F7D3EBE700008002002055
:100AB000000000201C1F00002DE9F05F8F4C0E4647
:100AC000174614F83C1F02F03F0201F0C001114329
:100AD0004AC414F83F2C483C032A01D0042A03D10D
:100AE000032B01D1FF222264012525734FF000085A
:100AF000A4F81080227862B14FF003094FF0040A85
:100B000048B1032857D0012A5ED025820220BDE8D3
:100B1000F09F0520FBE700F09DF956B1012E11D0A2
:100B2000022E14D0032E30D0042E31D0052E32D018
:100B3000B6E0002F62D1C4F83C8084F8099084F8B4
:100B40000580B4E0032F59D8B801E063AFE06C4EE4
:100B5000012F02D0022F51D10AE084F809904746B4
:100B600084F80580002000F07BFF3561A77208E063
:100B700084F809A06571002000F072FF356184F8E7
:100B80000A80BDE8F05F00F071BE012F36D88EE01C
:100B9000A7BB06200BE04FF4FF7047B140F64801B9
:100BA000012F06D0022F02D0032F79D101E020823D
:100BB0007DE021827BE0012AA7D0E08940F400405B
:100BC000208200F047F972E0032B04D0272E02D9CF
:100BD000258201209BE74246A4F80E80012802D01E
:100BE00002280CD063E040F201114648FFF73DFBBC
:100BF000012000F095FE84F800A058E050E0236C3E
:100C0000FF2B04D0FF2902D9258203207FE73D482E
:100C1000DFF8F4B04FF002084170022B14D003DC6F
:100C20003BB1012B3CD10BE0032B1DD0FF2B37D167
:100C30001EE000F8022B0A463449FFF7FDFA08E0EF
:100C400000F8025B0F2202E000F8028B5522FFF74A
:100C500005FB002000F064FE627A0020E16B042AAC
:100C600027D0032A27D027E000F802ABFF22EEE7C7
:100C7000304637B1012F04D0022F0ED0032F16D1EA
:100C800011E0002000F04CFE00F044F8CBF80052D8
:100C9000CBF8005084F8009009E000F0C3F804E0BD
:100CA0002582042033E700F0ADF80028F8D00020BA
:100CB0002DE7582000E0502000EBC101042A00D1AC
:100CC0004908002011F1F90140F27122401C424311
:100CD0009142F9D840F271214843E169C1F84005D9
:100CE0000B4801F5A0710160011DC1F800B0084872
:100CF0000C38056084F80080D9E70000000000206F
:100D00000090004080020020001000401C1F0000E6
:100D100010F5014002494FF4007008607047000070
:100D200050160040034900230A7B0B73098A0160B7
:100D300010467047000000204AB1012A0BD0022A59
:100D40000DD0032A0FD0042A11D0002070470B4A7F
:100D5000026008200EE00A4A026009200AE0094AFF
:100D600002600A2006E0084A02601A2002E0074AF0
:100D700002601B20087001207047000000800040C6
:100D80000090004000A0004000A0014000B00140E1
:100D900010B500F08DFE10B900F068FD08B1042018
:100DA00010BD07480022012102730170C26305488B
:100DB000026842F01002026003480160002010BD8A
:100DC0000000002010ED00E040E50140042810D0B4
:100DD00003280ED068B1FC280BD0F82809D0F428DD
:100DE00007D0F02805D0EC2803D0FF2801D0D82860
:100DF00003D1032903D0042901D004207047002027
:100E00007047000006490978012901D90020704780
:100E100003490246491C01F11B00FFF78DBF00008A
:100E20000000002070B5C4B214F0300F01D044F0BF
:100E3000C004074D2878012804D8697A2046FFF7B6
:100E4000C5FF08B1002070BD0120AC6170BD00007D
:100E50000000002010B500F017F8084801240460D5
:100E60000649002008310860091D08600448046133
:100E700000F098FD0348047010BD000008F5014023
:100E80000090004000000020704700002DE9F05F56
:100E90005748016841F010010160DFF860B1554E1C
:100EA000554C574F4FF0010940F2E24A00250BF133
:100EB00004082078042809D1D6F80401012805D1B6
:100EC000C6F80451A07A08B1C7F81090D6F80C0102
:100ED00030B3C6F80C510120FFF7C4FB207804287A
:100EE0002DD14846C6F80490A17A51B1CBF800A0A4
:100EF0003F22C8F80020F860C7F84051C7F84451B5
:100F0000386040480068012805D1FFF79DFD10B109
:100F1000E089401CE08140F201113B48FFF7A5F950
:100F2000207804280BD1D6F80001012807D1C6F893
:100F30000051A07A18B1C7F80C90C7F80090E0698A
:100F4000D0F8401111B1C0F840510EE0D0F8440182
:100F500058B1E069C0F8445194F90100FFF782FBF1
:100F60006069401C6061BDE8F09FD7F8400101282E
:100F700026D1FFF79BFBE17A19B15F2811D9002038
:100F80000DE02249002209688BB2090C0F2B02D90F
:100F9000022900D201225F2800D312B1012000F003
:100FA0005FFDFFF77BFBCBF800A0C7F80490C7F804
:100FB0000C90C7F84051C7F800900920FFF752FB8A
:100FC000D7F8440100283FF474AFFFF76FFB5F28A8
:100FD00001D3002000E0012000F042FDFFF75EFB9E
:100FE000C8F80050C7F844510920FFF73BFB60E701
:100FF00010ED00E00010004000000020409500408F
:101000000090004000140040800200207415004051
:10101000826883881A4003689A5C0A708168491C58
:1010200081607047C26883881A4003689954C16818
:10103000491CC1607047000070B50D460446006849
:101040004FF4887100F06FF94FF49071206800F050
:101050006AF94FF49271206800F065F94FF4A271BB
:10106000206800F060F94FF4AC71206800F05BF983
:1010700020681249C0F804132068690740F307305C
:10108000090E002804DB00F1E02080F8001405E0E0
:1010900000F00F0000F1E02080F8141D206840F3FC
:1010A0000730002809DB00F01F02012191404009B0
:1010B000800000F1E020C0F8001170BD1003420074
:1010C000F0B500258DB02F462C460120FFF780FC9F
:1010D0001822284906A8FFF7AFF8274802902749A9
:1010E0004FF48070CDE9030105900723244A02A93B
:1010F00006A8FFF753FB08B1FFF702FBFFF748FE16
:1011000018B10DB04FF0FF30F0BDFFF7BFFE06463F
:101110006846FFF729FB0028F7D147B105F1150014
:10112000864206D99DF8000035460402EDE7012706
:10113000F8E79DF8000000270443A00BC4F3052145
:10114000C4F3850204F00303FFF7B6FC01A8FFF720
:10115000E9FD0028D9D00198C0F30720FFF770FB04
:101160000028F8D10198C0B2FFF76AFB0028F9D136
:10117000CBE70000FC1E0000800000208001002062
:10118000A51B0000F0B505460478154889B0164641
:1011900040F82420124A0869121DA2F1080742F8FB
:1011A0002400487F385520226846FFF745F804940C
:1011B0002878385C48B10EB10A4A00E0002269463E
:1011C000281D00F02BFA09B0F0BD0EB1064A00E070
:1011D0000022694605F10C0000F0D4F8F3E70000A6
:1011E0004C000020B91D00005D1C000030B40378E5
:1011F000054CE35C1BB130BC001D00F045BA30BCAF
:101200000C3000F029B900004800002030B4037809
:10121000054CE35C1BB130BC001D00F0B7BA30BC1C
:101220000C3000F08FB900004800002070B541EA92
:101230004201DDE904564FF0A04441EA830141EA4E
:10124000052104EB800041EA0641C0F8001770BD9B
:1012500070B541EA4201DDE904564FF0A04441EA8D
:10126000830141EA052104EB800041EA0641C0F810
:10127000001770BD70B541EA4201DDE904564FF038
:10128000A04441EA830141EA052104EB800041EAE0
:101290000641C0F8001770BD1CB500220B46009235
:1012A00011460192FFF7D4FF1CBD1CB500220B466E
:1012B000009211460192FFF7DDFF1CBD1CB5002115
:1012C00000910B46012201911146FFF7C1FF1CBDA1
:1012D0001CB5002100910B46012201911146FFF738
:1012E000C9FF1CBD01224FF0A043824011B1C3F8D9
:1012F00008257047C3F80C2570474058002800D0D7
:101300000120704708B5002242504058009008BDA7
:10131000D0F80403084000D001207047405800284E
:1013200000D00120704708B500224250405800907C
:1013300008BD0121B1EB507F01D101207047002091
:10134000704770B50D4600F085FA04000FD00020FC
:10135000FFF7A0FA207920B10020FFF79DFA1120B5
:1013600070BD0120256020710020FFF795FA002054
:1013700070BD00000149024800F088BC84030020D1
:10138000002000402DE9F0410546007916460F4641
:1013900000EB40012D4A01EBC00102EB810494F8FF
:1013A0002A1011B10820BDE8F081294951F8201018
:1013B0002868FFF7C6FF08B11120F4E73946284630
:1013C000FFF77EFA66603869206030004FF0010652
:1013D0002FD03F7F4FF48E712868FFF793FF4FF4B3
:1013E000A2712868FFF78EFF28681A49C0F8041315
:1013F00028684FEA471140F30730002804DB00F16A
:10140000E02080F8001405E000F00F0000F1E0207B
:1014100080F8141D286840F30730002809DB00F02D
:101420001F0106FA01F14009800000F1E020C0F838
:10143000001128680421C0F800150020A061E061B7
:1014400084F8290044F8140FA675ACE78403002043
:101450001C200000800002002DE9F05F05460079A5
:101460004FF4017600EB400303EBC000344B03EB79
:1014700080040020636813B12B68C3F80863A36974
:101480004FF000096BB1E06938B1606810B12868AD
:10149000C0F804631120BDE8F09FE26101202161E2
:1014A00005E0C4F82490A261E160C4F81C9094F8AF
:1014B0002910014302D1284600F0C1FA60680028D3
:1014C000286803D0C0F804630020E4E74FF4A27654
:1014D0003146FFF717FFB2464FF4927B5946286812
:1014E000FFF70BFF06464FF484712868FFF705FFEE
:1014F000804651462868FFF700FF074648EA070084
:101500003043EBD056EA070007D12146286800F0A7
:1015100067FAA169606A8142E0D8C4F818900EB1F8
:101520000320B8E70FB10F20B5E794F82910012088
:101530000029296801D00860C6E74860C4E70000B8
:10154000840300202DE9F05F054600790B4600EB8F
:10155000400101EBC000244901EB8004284600F063
:1015600045F810B11120BDE8F09F62614FF000090D
:10157000C4F82090A36084F828904FF48E784E46EB
:1015800041462868FFF7BEFE28684FF0010AC0F800
:1015900008A02146286800F0DBFA606808BBD5F88F
:1015A00000B067690FE000BF94F8280008B10F266B
:1015B00015E041465846FFF7A0FE0028F4D021462A
:1015C000584600F0C5FA206AB842F2D35746414661
:1015D0002868FFF792FE0028F9D02868C760C4F891
:1015E00014903046BFE7000084030020007900EB30
:1015F000400101EBC000044901EB80004069002874
:1016000000D00120704700008403002001490248F7
:1016100000F0EABBB0030020002000402DE9F041BB
:101620000546164600790F46154A00EBC00102EB4D
:10163000810494F8201011B10820BDE8F08111490F
:1016400051F820102868FFF77CFE08B11120F4E75C
:1016500039462846FFF778F96660386920601EB180
:10166000397F2846FFF7E8FC28680821C0F80015F4
:101670000020A061E0616061012184F82010DCE7B6
:10168000B0030020202000002DE9F05F044600791F
:101690000E4600EBC001DFF8F0A017460AEB81050B
:1016A0003046FFF746FEB0B168684FF000084FF4CF
:1016B000047910B12168C1F80893A8694FF0000BB4
:1016C00080B1E86948B1686810B12068C0F8049337
:1016D0001120BDE8F09F1020FBE7EF614FF00108FB
:1016E0002E6102E0EE60C5E9067B00254FF48871AB
:1016F0002068FFF718FE4FF4A2712068FFF713FE71
:101700002068C0F83465C0F838752068B8F1000F5B
:1017100012D0D0F8001241F02001C0F80012207958
:10172000D04600EBC0010AEB8100406838B1206868
:10173000C0F804932846CCE701210160EFE74FF49D
:10174000887A4FF4A27951462068FFF7E7FD0746F3
:1017500049462068FFF7E2FD06464FF49271206883
:10176000FFF7DCFD014647EA06000843EBD022798B
:1017700002EBC20308EB8302C2F818B001B10325E3
:10178000002ED7D00F25D5E7B00300202DE9F04774
:1017900004460E460079274900EBC00001EB8005A6
:1017A00017463046FFF7C5FD30B1204600F044F83B
:1017B00020B11120BDE8F0871020FBE76F61AE601B
:1017C0004FF490774FF0000839462068FFF7ABFDE3
:1017D0004FF4AC7631462068FFF7A5FD2068AA6873
:1017E0006969C0F84425C0F8481520684FF0010920
:1017F000C0F808906868D0B9BA4651462068FFF72B
:101800008DFD074631462068FFF788FD0743F4D079
:1018100010B14FF00F0808E02068C0F80C90314676
:101820002068FFF77BFD0028F9D000206861404662
:10183000C0E70000B00300200079054900EBC000BC
:1018400001EB80004069002800D0012070470000B3
:10185000B00300200349884201D1034870470020AB
:1018600070470000002000405400002070B52A4C52
:10187000617AA069FFF7AAFA012510B12582042038
:1018800070BD00F08FF82549A06908602348617A8F
:10189000001D016021481830026822F0FF0202603A
:1018A0000368E26A43EA1263036010021B4A1032C3
:1018B00010601A4824300560184A00202032106059
:1018C000207AA27940EA0220144A283210600329C3
:1018D00001D004290CD12079E178000440EA0120EC
:1018E000A1780843617940EA01600C490831086039
:1018F00094F8280094F82410400640EA0160218CF6
:1019000040EA0140E17940EA0120044940F0FF004B
:101910000C310860002070BD000000200C15004054
:101920002DE9F0410746FFF7AFFA1948194A016B54
:101930001160121D416B1160416C022202EB4101EA
:10194000144A303A1160121F13491160134C0025DC
:10195000C4F800510321C4F8001201264FB1807A67
:1019600010B1012000F07CF8C4F80C516660BDE8AD
:10197000F081084A017E2C3A1160807A0028F6D066
:101980000748C6604660C0F84051C0F84451EEE7D1
:1019900000000020381500408002002000100040A8
:1019A000009000400B49032008600B490020C1F85B
:1019B0000002C1F810010122C1F81020D1F8102155
:1019C000002AFBD0C1F81001486008600349C881B3
:1019D0007047000008F501400010004000000020A2
:1019E00070B5054688690C4600284FF48471284676
:1019F0000AD0FFF787FCD5F81805626AE1688854B9
:101A0000606A401C606270BDFFF77CFCD5F8180569
:101A100070BD1FB501238DF80030CDE90121D0E95B
:101A20000012684690471FBD1FB501238DF8003096
:101A3000CDE90121D0E90012684690471FBD10B5DD
:101A4000044600684FF49271FFF75CFC4FF4847118
:101A50002068FFF757FC20680121016010BD0000DD
:101A60000F4910B50E4A403180B113680D4C234028
:101A700043F07D0343F0004313600A68094B8F3342
:101A80001A4042F0600242F0004204E0064B13604C
:101A90000A6822F000420A600449C87210BD0000C2
:101AA0003C17004000FFFF7F343000400000002062
:101AB00010B54FF080410020C1F8000101220A60FA
:101AC000D1F80031002BFBD01E4BD9694A60CA60A7
:101AD000C1F80405C1F84001C1F84401C1F848014A
:101AE000C1F84C014FF48034C1F80443C1F800221E
:101AF0000424C1F810459C6BC1F840454FF4827432
:101B0000C1F844450A60104958614A60CA600F4AEA
:101B10001060C1F84001C1F84401C1F84801C1F8A2
:101B20004C010A4A40F2E2413C321160111D08604A
:101B30000920FEF797FD054907200C3108600020B9
:101B400010BD0000000000200090004004950040FF
:101B500070B50C4605464FF48E71FFF7D3FB216A32
:101B6000A068415C206A401C2062C5F81C1570BD4D
:101B70001FB500228DF80020029181680191426119
:101B8000D0E90012684690471FBD1FB500228DF8AE
:101B900000200291816801914261D0E900126846FB
:101BA00090471FBD0178022901D0012902D1406868
:101BB000FEF7A6BD704700007CB50178254DA1B3A6
:101BC00001290BD002291DD18DF80010C068691CB5
:101BD00001900122C81DFFF709FB30E0017A59B1DD
:101BE000406801781C48FEF7B1FD1B4C012650B13E
:101BF0008DF8006001900DE016490122491CC81DB6
:101C0000FFF7F4FA7CBDA068E168814205D00020AE
:101C10008DF80000696868468847A068E168081A7E
:101C2000A1888842E8D9AE707CBDFFE70A4809491F
:101C30001030FEF770FD30B103208DF800006968A8
:101C400068468847F0E70349012201F10800FFF7E1
:101C5000DDFAE9E75C000020D40300201FB50A4646
:101C600001788DF8001041680191017A8DF8081013
:101C7000C0680390044850F82210001F50F822203A
:101C8000684690471FBD0000500000202DE9FF4727
:101C90000C4605464FF40071FFF73AFB01274FF45D
:101CA0000178002618B34FF4927949462846FFF789
:101CB00024FBE0B149462846FFF724FBC5F808831A
:101CC00094F8290000B96F6002208DF80000D5F863
:101CD0008004C5F880040390A0690290E068019038
:101CE000A661E661D4E900126846904728E0042125
:101CF0002846FFF70DFB18B34FF484712846FFF711
:101D0000FCFAE8B121462846FFF76AFE616AA0693D
:101D1000884215D1E06938B1E268616AA061206942
:101D2000E6616662E06008E094F8290000B96F603F
:101D3000C5F80883A661E268616A2046FFF769FE7C
:101D40004FF48E7841462846FFF7D7FA80B1606994
:101D5000216A814202D294F8280028B341462846DD
:101D6000FFF7D0FA606918B161692046FFF700FFFC
:101D70004FF4A27841462846FFF7BFFA002818D052
:101D800041462846FFF7BEFA94F8290000B12F60BB
:101D9000A06900280DD0A661E268616A04B02046FF
:101DA000BDE8F047FFF735BE21462846FFF7D0FED5
:101DB000DEE7BDE8FF8700001FB50A4601788DF811
:101DC000001041680191017A8DF80810C0680390F5
:101DD000044850F82210001F50F82220684690470F
:101DE0001FBD0000500000202DE9FF410C464FF4BC
:101DF000927705463946FFF791FA0026B8B1394681
:101E00002846FFF790FA02208DF80000D5F88004EC
:101E1000C5F880040390D5F83C050290E068019075
:101E2000A661E661D4E900126846904723E04FF4CA
:101E3000887739462846FFF771FAE0B139462846D7
:101E4000FFF771FAD5F83C15A069884213D1E06913
:101E500060B1E268D5F8000220F02000C5F8000269
:101E6000E069A0612069E661E06001E0A661E268E6
:101E70002046FFF7D9FD4FF4A27739462846FFF7F1
:101E80004DFA68B139462846FFF74DFAA06938B1D6
:101E9000A661E661D5F83C152046E268FFF7C4FD6F
:101EA0004FF4907631462846FFF738FA60B1314654
:101EB0002846FFF738FA0120E860606920B1D5F8BC
:101EC0004C152046FFF761FE4FF4AC7631462846AC
:101ED000FFF724FA00280ED031462846FFF723FAF0
:101EE0006069002807D0D5F84C1504B02046BDE83D
:101EF000F041FFF74ABEBDE8FF8100000800000086
:101F000006000000050000000700000000000000BF
:101F100000A04E00111213140D0E0F10FFC1FBE8AC
:101F20004C90728BE7B3518963AB23230284187200
:101F3000AA612F3B51A8E53749FBC9CA0C18532C9D
:101F4000FD45E39AE6F15DB0B61BB4BE2A50EAE95E
:101F50000E9C4B5E5724CCA1B759B887FFE07D7427
:101F60002648B9C5F3D9A8C4B1D5911101420C399D
:101F7000D5B0979D28D4F29BA4FD6465068C299664
:101F8000FEA2714DF3F82E58DB0D5A5F1528F5743B
:101F900007CE25AF2B12E6D0DB2CDCC37FF03E3A18
:101FA00013A4DCE2F96C54E2D8EAC8880021869CCC
:101FB0006AD8CB4E146AF94DD27EB23203C6144BA6
:101FC0007FD1B8A6797C17ACED06ADAF0A947ABA8A
:101FD00003E792D7150973E86D16EEE13F781F9D70
:101FE00009526EF17C362A716C7564448010434E40
:101FF00035EC65270AB5FC26693F599901638AA526
:10200000BF685CD33CBE0BD67683D657054A3DDD10
:102010008173C9EB8A8439F4360BF700751300001D
:102020000D160000FFFFFFFFFFFFFFFFFFFFFFFF99
:10203000FFFFFFFF00000000000000000000D601CD
:102040000601000064200000000000208000000065
:102050007E060000E42000008000002078230000BD
:102060008E060000000808010000010003030000C4
:102070000000000000000000000000000000000060
:10208000008000400300000000000000000000008D
:10209000294176715B06000055555500C4090000C2
:1020A0000000000000000000000000000000000030
:1020B0000000000000000000000000000000000020
:1020C00000000000000000000000000000200040B0
:1020D00000000000002000400000000000000000A0
:0420E0000090D00399
:0400000500000201F4
:00000001FF
