:020000040000FA
:10000000F8C80020F902000001030000030300000B
:1000100005030000070300000903000000000000C2
:100020000000000000000000000000000B030000C2
:100030000D030000000000000F030000110300008A
:100040001303000013030000130300001303000058
:100050001303000013030000130300001303000048
:100060001303000013030000130300001303000038
:1000700013030000551800001303000013030000D1
:10008000130300007D180000130300001303000099
:100090001303000013030000130300001303000008
:1000A00013030000130300001303000013030000F8
:1000B0001303000013030000000000000000000014
:1000C00013030000130300001303000013030000D8
:1000D00013030000130300001303000013030000C8
:1000E00013030000130300001303000000000000CE
:1000F00000000000130300000000000013030000D4
:1001000000000000000000000000000000000000EF
:1001100000000000000000000000000000000000DF
:1001200000000000000000000000000000000000CF
:1001300000000000000000000000000000000000BF
:1001400000000000000000000000000000000000AF
:10015000000000000000000000000000000000009F
:10016000000000000000000000000000000000008F
:10017000000000000000000000000000000000007F
:10018000000000000000000000000000000000006F
:10019000000000000000000000000000000000005F
:1001A000000000000000000000000000000000004F
:1001B000000000000000000000000000000000003F
:1001C000000000000000000000000000000000002F
:1001D000000000000000000000000000000000001F
:1001E000000000000000000000000000000000000F
:1001F00000000000000000000000000000000000FF
:10020000DFF80CD000F0DEF800480047492C000071
:10021000F8C8002030B4044654E8000F0D4644E806
:100220000053002BF8D1156030BC704730B4044641
:1002300054E8000F40EA010544E80053002BF7D1D1
:10024000156030BC704730B4044654E8000F00EA33
:10025000010544E80053002BF7D1156030BC70470E
:1002600030B4044654E8000F80EA010544E8005326
:10027000002BF7D1156030BC704730B4044654E809
:10028000000F00EB010544E80053002BF7D1156087
:1002900030BC704730B4044654E8000FA0EB0105B1
:1002A00044E80053002BF7D1156030BC704770B4A0
:1002B00004464FF0000054E8006F0D68AE4207BFDF
:1002C00044E80023012044E800630E60002B1CBFBB
:1002D0000020F0E770BC704730B4044654E8000FCB
:1002E00088422CBF451A054644E80053002BF5D13F
:1002F000156030BC7047000006488047064800473C
:10030000FEE7FEE7FEE7FEE7FEE7FEE7FEE7FEE7C5
:10031000FEE7FEE7ED18000001020000004870470C
:100320001852000010B5441A0346944209D28418AA
:10033000114403E011F8013D04F8013D521EF9D2C9
:1003400010BD40EA0104A40703D009E010C9121F40
:1003500010C3042AFAD203E011F8014B03F8014B51
:10036000521EF9D210BDD2B201E000F8012B491E95
:10037000FBD270470022F6E710B513460A46044642
:100380001946FFF7F0FF204610BD421C10F8011B74
:100390000029FBD1801A704730B50446002003467F
:1003A00000E05B1C934203D2E05CCD5C401BF8D0C4
:1003B00030BD034611F8012B00F8012B002AF9D1BA
:1003C00018467047064C074D06E0E06840F0010310
:1003D00094E8070098471034AC42F6D3FFF714FFB7
:1003E000009C0000209C000001EB820204388A423D
:1003F00001D10020704752F8043D1BBA40F8043F79
:10040000F5E70000354B8EB019461A680092009A45
:10041000D207FAD5324B334A1A600A680192019A20
:10042000D007FAD5304A1A600A680292029AD207B7
:10043000FAD52E4A1A600A680392039AD007FAD5B1
:100440002B4A1A600A680492049AD207FAD5294AFC
:100450001A600A680592059AD007FAD5264A1A60EA
:100460000A680692069AD207FAD5244A1A600A68E0
:100470000792079AD007FAD5214A1A600A680892AB
:10048000089AD207FAD51F4A1A600A680992099A8F
:10049000D007FAD51C4A1A600A680A920A9AD2074B
:1004A000FAD51A4A1A6008680B900B98C007FAD55B
:1004B0001A600A680C920C9AD007FAD5144A1A608E
:1004C0000A680D920D9AD207FAD5124A1A600E21C7
:1004D0000D230F2200200EB000F090BDB0B00250EE
:1004E00080B0025080430129406339218070012986
:1004F0008020542100D13490C0403490C030202955
:10050000C0530D9000413890832308C880E3102128
:1005100000413821CF4308C810B5504B96B01C4657
:100520001A680192019AD207FAD54D4B4D4A1A60CA
:1005300022680292029AD207FAD54B4A1A604B4AB5
:1005400042EA804022680392039AD207FAD51860E3
:1005500022680492049AD007FAD5454A1A60A2F597
:10056000800242EA814122680592059AD207FAD5B3
:10057000196022680692069AD007FAD53D4A1A6099
:1005800022680792079AD107FAD53B4A1A60226877
:100590000892089AD207FAD5384A1A602268099256
:1005A000099AD007FAD5364A1A6022680A920A9A3E
:1005B000D107FAD5334A1A6022680B920B9AD207F8
:1005C000FAD5314A1A6022680C920C9AD007FAD5F3
:1005D0002E4A1A6022680D920D9AD107FAD52C4A3C
:1005E0001A6022680E920E9AD207FAD5294A1A602A
:1005F00022680F920F9AD007FAD5274A1A6021680D
:1006000010911099C907FAD51A60144B1A46196847
:1006100011911199C807FAD5114B20491960116839
:1006200012911299C907FAD51D49196011681391E1
:100630001399CC07FAD50B491960116814911499D4
:10064000C807FAD517491960116815911599C90796
:10065000FAD5154A1A6016B010BD00BFB0B00250EE
:1006600080B002504004419000862929D81001C86A
:1006700040144190401421294014652100344090D9
:1006800000310C90C0400C90C030202940960D9055
:1006900000416090031645C8008611210041602189
:1006A000594644C84014459040142D902DE9F0411E
:1006B000484B88B01C461D680195019DEF07FAD58F
:1006C000454BDFF820E1454F13449B000A181B6897
:1006D0001E2A88BFC0F11E011F330A185B095A4346
:1006E000B2F5806F88BF4FF480614FF0000203F1D4
:1006F000010588BFB1FBF3F1944688BF091A25F0C4
:1007000001058000914233DC22680492049AD207EA
:10071000FAD5334A1268216805910599CF07FAD5B1
:1007200030482E490260002215469A4246D15A1C92
:100730002A4D194622F0010200268A4241D821683A
:1007400006910699CE07FAD52749096825680795C5
:10075000079DED07FAD50160002120480C4699421B
:1007600032D11E4900209A4231D808B0BDE8F0814C
:1007700026680296029EF607FAD500F1A04606F515
:100780002C363668D4F80080CDF80C80DDF80C806B
:1007900018F0010FF6D0CEF8006000269E4205D179
:1007A0001E46B54206D801320430ABE7C7F800C098
:1007B0000136F3E7C7F800C00136F2E70D600132F9
:1007C000B3E72E600131B8E704600131C7E7086084
:1007D0000133C8E7B4B0025024AC0014D8B00250C2
:1007E0007CB00250D4B0025078B00250F0B52A4D1F
:1007F00085B02C462E680096009EF707FAD500F1CA
:10080000A05000F52C4080000568206801900198F8
:10081000C607FAD5214E2248356002EB8307BA425B
:100820002BD15A1C1E4822F0010200279A4229D8D7
:1008300023680293029BD807FAD51A4B0B449B00FE
:1008400018681F30B2EB501F4FEA501313D22168C3
:1008500003910399C907FAD5154400219B1A104A40
:10086000356008468B4210D85A1C0D4922F001020F
:1008700000209A420CD805B0F0BD52F804CBC0F865
:1008800000C0CCE707600133D0E710600131E9E731
:1008900008600133EDE700BFB4B00250D4B002509D
:1008A000D8B0025024AC001410B5494B94B019468E
:1008B0001A680092009AD207FAD5464B464A1A6047
:1008C0000A680192019AD407FAD5444A1A600A6864
:1008D0000292029AD007FAD5414818600A6803923A
:1008E000039AD207FAD53F4A1A600A680492049A1A
:1008F000D407FAD53C4A1A600A680592059AD207CD
:10090000FAD53A4A1A600A680692069AD407FAD5C6
:10091000374A1A600A680792079AD207FAD5354A09
:100920001A600A680892089AD407FAD5324A1A60FF
:100930000A680992099AD207FAD5304A1A600A68F9
:100940000A920A9AD407FAD52D4A1A600A680B92BD
:100950000B9AD207FAD52B4A1A600A680C920C9AA5
:10096000D407FAD5284A1A600A680D920D9AD20760
:10097000FAD5264A1A600A680E920E9AD407FAD55A
:10098000234A1A600A680F920F9AD207FAD5214AB1
:100990001A600F4B19461C681094109CE407FAD596
:1009A0000C4B1860086811901198C407FAD51A60AA
:1009B0000A681292129AD007FAD5174A1A600A6882
:1009C0001392139AD207FAD5144A1A6014B010BDC4
:1009D000B0B0025080B002508090652100040990B0
:1009E000409665908080612180200821802064905D
:1009F00000816190004610210081112100414421B5
:100A000080202029024610C800860921802060210C
:100A1000402128294096652140962529594614C829
:100A200010B5544B98B019461A680192019AD20732
:100A3000FAD5514B514A1A600A680292029AD407B9
:100A4000FAD54F4A1A600A680392039AD007FAD57A
:100A50004C4818600A680492049AD207FAD54A4AA8
:100A60001A600A680592059AD407FAD5474A1A60AF
:100A70000A680692069AD207FAD5454A1A600A68A9
:100A80000792079AD407FAD5424A1A600A68089270
:100A9000089AD207FAD5404A1A600A680992099A58
:100AA000D407FAD53D4A1A600A680A920A9AD20710
:100AB000FAD53B4A1A600A680B920B9AD407FAD50A
:100AC000384A1A600A680C920C9AD207FAD5364A4C
:100AD0001A600A680D920D9AD407FAD5334A1A6043
:100AE0000A680E920E9AD207FAD5314A1A600A683D
:100AF0000F920F9AD407FAD52E4A1A600A681092FC
:100B0000109AD207FAD52C4A1A601A4B19461C685B
:100B10001194119CE407FAD5174B186008681290DD
:100B20001298C407FAD51A600A681392139AD0076C
:100B3000FAD5124A1A600A681492149AD207FAD5A2
:100B40001E4A1A600A681592159AD407FAD51C4AEB
:100B50001A600A681692169AD007FAD5194A1A60CE
:100B60000A681792179AD207FAD5174A1A6018B06E
:100B700010BD00BFB0B0025080B00250009365219C
:100B800000043190409665900083612100C33021BC
:100B900000C3649000816190004610210081112102
:100BA0000041442100C320290C4610C80086312191
:100BB00000C3602140C1282940966521001331906F
:100BC00040962529594614C8400432492DE9F04180
:100BD000834B1D6898682033A0B01E461A680192A6
:100BE000019AD207FAD57F4C7F4B2360336802937A
:100BF000029BDF07FAD57D4B23607D4B1F461A68A9
:100C00000392039AD107FAD57A4B1968C1F34021B0
:100C100032680492049AD207FAD5774A22603A6879
:100C20000592059AD207FAD51A68C2F34022002924
:100C300000F0D180002A00F0CE8032680692069A39
:100C4000D107FAD56D4A22603A680792079AD2070F
:100C5000FAD51A68C2F34022316808910899C90789
:100C6000FAD567492160396809910999C907FAD508
:100C70001B68C3F34023002A00F0AF80002B00F074
:100C8000AC8033680A930A9BDA07FAD5564B236087
:100C900033680B930B9BDB07FAD55A4A2260336803
:100CA0000C930C9BDF07FAD5574B236033680D93E9
:100CB0000D9BD907FAD5554B236033680E930E9BD5
:100CC000DB07FAD5524B236033680F930F9BDF0786
:100CD000FAD5504B2360504B1E461968109110995D
:100CE000C907FAD53F4C4D4B236033681193119BD4
:100CF000DB07FAD54A4B236033681293129BDF0758
:100D0000FAD5484B23603A4B9846196813911399CA
:100D1000C907FAD5324F386033681493149BDB0748
:100D2000FAD5226033681593159BD807FAD53E4B48
:100D3000236033681693169BD907FAD53B4B236083
:100D400033681793179BDA07FAD5394B236033685A
:100D50001893189BDB07FAD5364B23603368199339
:100D6000199BD807FAD5344B236033681A931A9B22
:100D7000D907FAD5314B236033681B931B9BDA07E5
:100D8000FAD52F4B236000F0D3F908BBD8F8003018
:100D90001C931C9BDB07F9D53D6033681D931D9B9D
:100DA000D907FAD5274B236033681E931E9BDA07B9
:100DB000FAD5254B2360D8F800301F931F9BDB0723
:100DC000F9D50C4B1B6813F4805F204B08BF184605
:100DD00020B0BDE8F0811E48FAE71E48F8E700BFE2
:100DE00090B0025080B0025000100251C01F722912
:100DF000B4B0025088B00250C0CF0129C01F0E29E4
:100E0000C03F002940010249003184A80000164972
:100E1000400108A180440888B0B00250C0447088E6
:100E200080077A41C0077E4100006A498006164962
:100E300040006E49000200210082202140822021D2
:100E40008082242140A161A100C861510308F10002
:100E50000108F1000208F10008B540B12028014660
:100E60004FF0070228BF20210020FFF71FFC024B94
:100E700000221A6008BD00BF1CB80250F0B51D6802
:100E800085B001F01F040DB91F2C25D1154D2E463C
:100E90002F680197019FFF07FAD500F1A05000F5D8
:100EA0002C408000006835680395039DED07FAD556
:100EB0000D4D00EB611028600C48006802901F2C5B
:100EC00018BFC94302980FBF106001F01F0100FA5C
:100ED00001F111600021196010684300C00F136018
:100EE00005B0F0BDB4B00250E4B00250DCB0025026
:100EF00030B51F4B85B01A46196800910099CC0790
:100F0000FAD500F1A05000F52C408000016813686C
:100F10000193019BD807FAD5164B174C1B68174D48
:100F200013F11F0048BF03F13E00401101380028B3
:100F300010DA00230130400153B1A0F120014FF03D
:100F40000042134204D1013888424FEA5202F8D1DC
:100F500005B030BD13680393039BDB07FAD5431834
:100F600023602B680293029B002BE3D10138DEE75C
:100F7000B4B00250ACB00250E4B00250DCB0025049
:100F80000A460021AFF3008038B5A0F12003B3F585
:100F9000426F05462CD88F2826D800F1470300F170
:100FA0006604DB064FEA541400D0013464013F3478
:100FB000A409013411B18C421AD80C46E3004FF455
:100FC0008050B0FBF3F0202828BF202002B1106031
:100FD000084B01221A60214600F068F82846214695
:100FE00000F088F8002038BD00F11F046409DDE737
:100FF0000148F8E71CB802502221F00070B52648DD
:1010000088B0054604680094009CE607FAD523489A
:10101000234C0460234C44EA83432C680194019CD4
:10102000E407FAD50360930143EA824242F0104498
:1010300044F4C0442B680293029BDE07FAD5046097
:101040002B680393039BDB07FAD5174B03608B01D7
:1010500043EA814141F0104343F4C0432E680496B3
:10106000049EF607FAD503602B680593059BDE07FF
:10107000FAD5046041F058412B680693069BDC07C3
:10108000FAD5016042F058422B680793079BDB07B3
:10109000FAD5026008B070BDB0B0025080B0025006
:1010A000C02102298071009880611890002230B51B
:1010B00049001346023840F6FC75940004F1A04440
:1010C00004F52C34904202F10102CABF236025606E
:1010D0005B181E2AF1D1044A13600B445360034B82
:1010E000034A1A6030BD00BF78B0025084B002508D
:1010F00020F80F000C4B18603F3020F03F008901B2
:10110000403058609960D960196159619961074808
:10111000D9611C3382B002680192019AD207FAD5D4
:10112000196002B0704700BF90B00250B4B00250D6
:101130002DE9F041012392B0CDE90333624B1E4605
:101140001A680592059AD107FAD5604C604B236066
:10115000604B19461A680692069AD207FAD55E4B7A
:101160001A68D70400F1A88032680792079AD50759
:10117000FAD55A4A22600A680892089AD007FAD526
:101180001B68DA04C3F3003700F198801220FFF7E0
:10119000AFFE05461320FFF7ABFE85428CBF122041
:1011A0001320FFF7A5FE451EFFF72CF903AB01AA9C
:1011B00029461220FFF762FE04AB804602AA2946A8
:1011C0001320FFF75BFE00EB4800022832D0032813
:1011D0003ED0012874D133680993099BDB07FAD507
:1011E0003F4B236033680A930A9BD807FAD53D4BDF
:1011F000236033680F930F9BD907FAD53A4B2360CE
:1012000033681093109BDA07FAD5384B23603368A4
:101210001193119BDB07FAD5354B2360013D25D592
:101220001023192218210020FFF7E8FE384612B0DB
:10123000BDE8F08133680B930B9BD907FAD52D4B92
:10124000236033680C930C9BDA07FAD52A4BCFE75F
:1012500033680D930D9BDB07FAD5284B2360336869
:101260000E930E9BD807FAD5254BC1E703AB01AA15
:1012700029461220FFF702FE04AB044602AA2946C3
:101280001320FFF7FBFD10EB440402D1FFF7C8FB6E
:10129000C4E7FFF709FB022C08D0032C09D0012C6E
:1012A00010D117211620FFF737F9B7E715211420C1
:1012B000F9E70F210E20F6E7124FB7E7124FB5E717
:1012C000124FB3E7124FB1E7B0B0025080B00250F6
:1012D00000084A51B4B0025088B0025000084E5184
:1012E00000065A4940065E49000442410014424942
:1012F00040042E49000652494006564900063A4924
:1013000040063E490608F1000708F1000408F10014
:101310000508F100014B1860704700BF08BA025081
:10132000014B1860704700BF04BA0250034A1368AB
:101330001842FCD0024A10601846704700BA0250AA
:1013400008BA0250FEF7EEBFFFF716B80A460021B2
:10135000FFF712B82DE9F74305460E461F46114622
:1013600000F058FA0446002840F08280002E00F079
:101370008380002900F08280202F40F0818005F1D9
:101380004404082205F104092046FFF72DF805F171
:101390002408082231464846FFF726F806F12001C6
:1013A00008224046FFF720F801A94FF4807001970A
:1013B000FFF7E6FD002865D1334A4FF480731360D0
:1013C00001219360314A0823FFF710FA01210846F2
:1013D0002F4A0523FFF70AFA08234A4601211C2059
:1013E000FFF704FA0823424601210320FFF7FEF924
:1013F0002246082301210220FFF7F8F9254A082395
:1014000001211A20FFF7F2F9234A052301211B20AD
:10141000FFF7ECF9214A082301211420FFF7E6F930
:101420001F4A082301211520FFF7E0F9082305F1E1
:10143000640201211620FFF7D9F9082305F184027F
:1014400001211720FFF7D2F90823164A01210B20AA
:10145000FFF7CCF9FFF7BAFB04460198FFF7FCFC55
:10146000114B002C18BF1C46A4212846FFF76EFF25
:10147000204603B0BDE8F0830C4CF9E70C4CF7E7CD
:101480000C4CF5E7084CEFE790B00250749B00005D
:10149000EC9B0000349B0000D89B0000989B000050
:1014A000B89B0000549B00008408F0007608F00010
:1014B0008008F0008108F00038B50D460446B0B150
:1014C000A02200210430FFF73FFF95B108222946F2
:1014D00004F16400FEF788FF082205F1200104F101
:1014E0008400FEF781FF044B2360002038BD0348D1
:1014F000FCE70348FAE700BFDD55AABB7108F0001E
:101500008308F00037B50193069B00930446154607
:10151000FFF7D2FF40B9DDE900322946204603B08B
:10152000BDE83040FFF716BF03B030BD2DE9FF41E5
:10153000144B04460D460FCBE84688E80F002046C2
:1015400000F078F90746B0B9CDB1636A261D01965F
:101550003BB90123226F636204F13001404600F081
:1015600081F83346043D243453F8042B12BAA342C5
:1015700045F8042FF8D1384604B0BDE8F081024F99
:10158000F9E700BF049B00000502F00013B5044614
:1015900070B1043070210190FFF7D8FE0198054921
:1015A0002022FFF7CFFE044B2360002002B010BDC5
:1015B0000248FBE7149B0000DD55AABB0002F000C7
:1015C0002DE9FF47254B04460F4615460FCBE8464D
:1015D00088E80F0025B90026304604B0BDE8F08742
:1015E000204600F027F906460028F5D1666A231D3B
:1015F00001938EBB206FC0B1C0F14009A94528BF3F
:10160000A94604F1300A4A4639465044FFF79AFE8B
:10161000226F4A44402A4F442267A5EB090504D1B2
:101620005146404600F01EF8266705F03F0935F0A8
:101630003F0505D039462A46404600F013F82F44AE
:10164000B9F1000FC7D04A46394604F13000FFF720
:1016500079FEC4F87090BFE7014EBDE7049B00001F
:101660000C02F0002DE9F74F314B446805469146D6
:101670009A461A68002AFCD12E4B9B461A68002A0B
:10168000FCD14FF0FF300191FFF744FE8020FFF7BF
:1016900047FE294E294ADFF8B880294F0123072049
:1016A0003360A2F59E72C2F83C011360636AC8F809
:1016B0000030A36A3B602B6842F8043CAB682046CC
:1016C00098470199DAF80030002BFBD1B9F1000FEF
:1016D00020D11C4B04221A60DAF80030002BFBD119
:1016E000DBF80090B9F1000FFAD1EB68204698477B
:1016F000D8F8003063623B68A362134BC3F80090D4
:10170000C3F84491DAF80030002BFBD1336003B00A
:10171000BDE8F08F236A012B04BF0B4A13600B4B0B
:1017200040201960C3F80490FFF700FED4E700BF23
:1017300010B9025020BC025018B8025000B9025033
:10174000D0B70250C8B7025084B6025028BC02502D
:10175000CCB70250084B1B681B0EF02B08D1074B6F
:101760001A68074B9A4205D1064B00201860704753
:10177000052070470620704728B9025024BA02504D
:101780000000E0200CBA02500C4B1B68C3610C4BEC
:101790001B6883610B4B1B6843610B4B1B68036128
:1017A0000A4B1B68C3600A4B1B688360094B1B68AC
:1017B0004360094B1B680360704700BF5CB6025072
:1017C00058B6025054B6025050B602504CB60250B1
:1017D00048B6025044B6025040B602500C4BC269A3
:1017E0001A60826943F8042C426943F8082C0269A4
:1017F00043F80C2CC26843F8102C826843F8142C70
:10180000426843F8182C026843F81C2C704700BF4C
:101810005CB6025030B10268034B04489A4208BFDC
:101820000020704702487047DD55AABB8208F000CF
:101830007108F00030B10268034B04489A4208BFB7
:101840000020704702487047DD55AABB0202F00035
:101850000002F000064882B000210160006800909C
:10186000044800680449C0B2496802B00847000053
:1018700000D1004008D500401C0000200249024869
:10188000091F0968006808472C00002000F052B9C1
:1018900070B50E46144900EB400001EBC00514463C
:1018A000E86A183520B101280FD0022805D113E0CD
:1018B000284600F073F9A04201D2002411E022462C
:1018C0003146284600F0A2F90BE0284600F066F900
:1018D000A042F4D20446F2E73146284600F069F906
:1018E0000446204670BD00006C780020F0B54FF033
:1018F00080527F4ED2F830017E4FD2F83411431C13
:1019000008D005464FEA010400234FF0010C082DD2
:1019100005D013E03B783578C3F30314F4E72CB11A
:10192000012C03D0022C01D0032C07D14FF08044AE
:10193000C4F80C31C4F810316F4C2360441C04D03F
:1019400005460C46082D05D061E03C783578C4F397
:101950000314F7E72CB1012C03D0022C01D0032C87
:1019600055D1664C2468664D2C60644C241D246857
:101970002D1D2C60614C083424682D1D2C605F4C9B
:101980000C3424682D1D2C605C4C103424682D1DF3
:101990002C605A4C143424682D1D2C60574C18347C
:1019A0002468574D20352C60544C1C3424682D1D60
:1019B0002C60524C203424682D1D2C604F4C243454
:1019C00024682D1D2C604D4C283424682D1D2C605E
:1019D0004A4C2C3424682D1D2C60484C303424682B
:1019E000474D40352C60454C343424682D1D2C6007
:1019F000424C383424682D1D2C60404C3C34246803
:101A00002D1D2C603D4C403424682D1D2C60082871
:101A100004D10C0002D13C4D3A4C2C60082804D172
:101A20000C0002D1394DFB242C60082808D10C0091
:101A300006D192F85852364A146865F303041460CC
:101A4000082804D10A0002D1324C82012260421CD3
:101A500003D139783078C1F3031108280DD129B1A9
:101A6000012903D0022901D0032906D12A4801689F
:101A7000C90702D06FF0010101602848016841F4F4
:101A800070010160BFF34F8FBFF36F8F4FF01021D4
:101A9000D1F80002002803DBD1F80402002823DA81
:101AA0001F4AC2F800C01F480468002CFCD0122452
:101AB000C1F800420568002DFCD0C1F8044201685D
:101AC0000029FCD0136001680029FCD0BFF34F8FC0
:101AD00012487C380168144A01F4E0611143016046
:101AE000BFF34F8F00BFFDE7114910480860F0BDFC
:101AF000E00F00F0E80F00F038050040040400108B
:101B000020C50040488103008C56004018F5004075
:101B1000E40E0040409602400004004088ED00E0E2
:101B200004E5014000E401400400FA050090D00300
:101B30009400002010B5114C022011A12061C4E9CD
:101B4000050104F17801E161C10221620021A16275
:101B50000BA2A2646162E0620C4AE2641022A165F9
:101B6000C4E91421E0650AA1E01DFEF722FC09A1E9
:101B70002046FEF71EFC2020A07110BD6C780020CE
:101B80005465726D696E616C00000000E48800208D
:101B90005254540053454747455200000269C168FA
:101BA0008A4203D88068401A104400E0501A401E50
:101BB00070472DE9F047C4681746894606464FF03E
:101BC00000083069A04201D9051B02E0B168201A63
:101BD0000D1AB0686D1E001BA84200D80546BD4214
:101BE00000D33D4670682A4620444946FEF79AFBDA
:101BF000B0687F1B2C44A844A944A04200D1002413
:101C0000F460002FDDD14046BDE8F0872DE9F041BA
:101C100004468846D4E90207C51BE1686068164699
:101C20000844B54206D94146FEF77CFBB819E0608E
:101C3000BDE8F0812A464146FEF774FB761B08EBAF
:101C4000050132466068FEF76DFBE660F0E702E0F2
:101C500008C8121F08C1002AFAD170477047002037
:101C600001E001C1121F002AFBD1704772B601F0DA
:101C700081FF00BF01F0B4FD0028FBD111481249DB
:101C8000401AC408012000EB044010A101F0C2FE7C
:101C900011480068C00700D000BE022000EB0440DD
:101CA0000EA101F0B7FEBFF34F8F0B48E438016877
:101CB0000E4A01F4E06111430160BFF34F8F00BF92
:101CC000FDE70000609C0000389C000046617461E4
:101CD0006C206572726F7200F0ED00E053797374DE
:101CE000656D207265736574000000000400FA05DC
:101CF0000EB500210091CDE901106A4644F20100C1
:101D0000FFF7B4FF0EBD00F003B800F009B8000003
:101D100072B602480168491C016070472400002027
:101D200003490868401E086000D162B67047000091
:101D30002400002041094A4200EB421010B5044A39
:101D40000124844052F82130234342F8213010BD51
:101D5000907200202DE9FC410646C0074FF00005B7
:101D60000ED0104F00240122385D0095002311464B
:101D7000019501F023FC641C042CF4D300F01CF842
:101D8000B0070DD5074E0024361D0022305D032319
:101D900000951146019501F011FC641C042CF4D34C
:101DA000BDE8FC81364100000249085C012101F0D8
:101DB0003BBC00003641000010B500242046FFF770
:101DC000F3FF641C042CF9D310BD00002DE9F0478B
:101DD0000546861C91460F464FF0010A0020FFF78A
:101DE00092FF1B4C04F21C4860683860D4E9010182
:101DF000184F401A3968081A0EE00121404601F0D8
:101E0000D1F800F0CFFE0146404601F0CBF8D4E90E
:101E10000101401A3968081A401C8642EDD8B9F110
:101E2000000F03D0052065F3891002E0062065F35A
:101E30009F5061683A68114004EB8101C860606896
:101E4000304460600020FFF760FF5046BDE8F08737
:101E50004C7400204000002070B50D4604460A294D
:101E600002D10D21FFF7F8FFA0682268411CA16094
:101E70001554D4E90101814204D32046BDE87040E5
:101E800001F0A3BA70BD0000044881684068814237
:101E900001D1012070470020704700004C740020E1
:101EA00010B50548012101F088F8BFF35F8F08B134
:101EB000002010BD012010BD18000020BFF35F8F6F
:101EC00001490020086070471800002001490020E7
:101ED0000860704700A50250014901200860704762
:101EE00000A5025070B500F10805106814460E46B2
:101EF000202802D248F2145070BDFFF7D1FF90B1F4
:101F0000FFF7EAFF31462846FFF710FB0546FFF7CB
:101F1000DDFFFFF7D3FF284600F0B2FD0028EBD12C
:101F20002021216070BD48F2045070BD10B508300A
:101F3000FFF72CFBBDE8104000F0A2BD2DE9F047F3
:101F400014460D4600F1080AFFF7AAFF50B1FFF74B
:101F5000C3FF0121B1EB557F08D14FF480384FF614
:101F6000FF7906E048F20450BDE8F08748F21250CD
:101F7000FAE7444501D34E4600E02646324629465C
:101F80005046FFF71DFB0700A4EB0604354401D1C2
:101F9000002CEED1FFF79AFFFFF790FF3846BDE81F
:101FA000F04700F06DBD000070B50B4800240460E0
:101FB000BFF35F8F094D01202860FFF7CBFB0100C5
:101FC0002C604FF0030004D0052901D148F20350E2
:101FD00070BD002070BD00001800002000A5025058
:101FE000014900200860704700A5025010B500218B
:101FF000024800F0E2FF80F3100010BD6878002076
:102000002DE9FF5FDFF87CB104465B48DFF86CA187
:102010005B49CBF80010A0EB0A0040314709CBF830
:102020000410594859490026401AC008032101EB01
:1020300000489AE020680AEB4615401C20604021C9
:102040004F48FEF797F94E4840214030FEF792F98D
:102050004B4840218030FEF78DF949482021C0309F
:10206000FEF788F94648296901F096FF0290444836
:102070006969803001F090FF414A8146803202EB6D
:102080000900A96901F088FF81443D48E969C03031
:1020900001F082FF00903A4A4020039080324B4684
:1020A00002F16001286801F057F808B138A209E090
:1020B000334A34492868C0320C31009B01F02EF8B5
:1020C00028B13CA2E9680091CDE9012018E001F0B7
:1020D000F1FE2B4803A94030CDE900012949029BBC
:1020E0000C31081FDBF8002001F050F8814601F0A8
:1020F00037FF696849450DD0E96837A28DE80602C7
:10210000D4E9002340463AA101F0A2FC6089401CBA
:1021100060811DE0039ADBF80410CDE90012184934
:10212000029BE03101F14800DBF8002001F052F899
:10213000A968814201D03AA2C4E7E8680090D4E9D6
:10214000002340463CA101F070FC2089401C208106
:102150000C480C3000F0D6FF0948E03000F0F0FFEA
:1021600001F03EFB0028FBD1761CBE42FFF462AFBB
:1021700004B00020BDE8F09F000000000000000057
:10218000F400002000000020609C0000389C00004B
:102190006E72665F63727970746F5F6563635F70A0
:1021A00075626C69635F6B65795F66726F6D5F7294
:1021B000617700006E72665F63727970746F5F653D
:1021C00063635F707269766174655F6B65795F6682
:1021D000726F6D5F726177006E72665F63727970A5
:1021E000746F5F65636473615F7369676E0000009D
:1021F0002325303464205465737420766563746FCE
:1022000072206661696C65643A2025732025732C01
:10221000202573206572723A2030782530780000CE
:102220006E72665F63727970746F5F656364736109
:102230005F766572696679002325303464205465C1
:10224000737420766563746F722070617373656454
:102250003A202573202573002DE9FE4F4949DFF808
:1022600028B10446A1EB0B0047094849484801F151
:10227000400A0026C0E9001A46484749401AC008EB
:10228000032101EB004878E020680BEB4615401C69
:10229000206040213D48FEF76DF83C484021403029
:1022A000FEF768F8394840218030FEF763F8374878
:1022B000E96801F071FE02903448A969403001F0EC
:1022C0006BFE81460AEB0900E96901F065FE4844AE
:1022D00000902E482969803001F05EFE2B4A81462D
:1022E000803202EB0900696901F056FE274A00EBD3
:1022F0000903803202F16001286800F02DFF28B147
:10230000A96826A20091CDE9012018E001F0D2FDD4
:102310001F48009A029B4168CDE900121B490268E0
:10232000E03101F1480000F055FF814601F018FE50
:10233000696849450DD0A96821A28DE80602D4E953
:102340000023404624A101F083FB6089401C60818A
:102350000AE0A8680090D4E9002340462AA101F0D1
:1023600064FB2089401C20810848E03000F0E8FE32
:1023700001F036FA0028FBD1761CBE4284D300203F
:10238000BDE8FE8F709D0000909C0000F4000020CE
:1023900000000020609C0000389C00006E72665FA8
:1023A00063727970746F5F6563635F7075626C6987
:1023B000635F6B65795F66726F6D5F726177000056
:1023C0006E72665F63727970746F5F656364736168
:1023D0005F76657269667900232530346420546520
:1023E000737420766563746F72206661696C6564CE
:1023F0003A2025732025732C202573206572723AAC
:10240000203078253078000023253034642054654E
:10241000737420766563746F722070617373656482
:102420003A202573202573002DE9FF5F4A49DFF824
:102430002C910446A1EB0900470949484949002667
:10244000401AC008032101EB00487DE0206809EB39
:102450004615401C206041F21D014348FDF78AFFEC
:1024600040214248FDF786FF404840214030FDF7BB
:1024700081FF3D48A96901F08FFD83463B48E9692A
:10248000403001F089FD8246039001F013FD36488B
:1024900029687C3800F00CFF08B135A209E0324908
:1024A0005A46A1F17C0000F019FF696881420ED004
:1024B00035A269690091CDE90120D4E900234046A5
:1024C00037A101F0C5FA6089401C608137E02648D9
:1024D00003AA26497C3800F0D0FE834601F040FD77
:1024E0006968594504D0696939A28DE80608E4E7AE
:1024F000039950468A4501D03CA10BE01B49024696
:1025000040311A48FDF748FF00B10120297A88427E
:102510000AD03BA16869CDE90001D4E90023404617
:102520003BA101F08BFACEE768690090D4E9002363
:10253000404640A101F079FA2089401C208101F039
:102540004FF90028FBD1761CBE42FFF47FAF04B0E8
:102550000020BDE8F09F0000709E0000709D00000C
:10256000609C0000389C00003C03002059130020B0
:102570006E72665F63727970746F5F686173685FB3
:10258000696E6974000000006E72665F6372797034
:10259000746F5F686173685F757064617465000073
:1025A0002325303464205465737420766563746F1A
:1025B00072206661696C65643A2025732025732C4E
:1025C000202573206572723A20307825307800001B
:1025D0006E72665F63727970746F5F686173685F53
:1025E00066696E616C697A6500000000496E636F10
:1025F0007272656374206C656E6774680000000019
:10260000496E636F7272656374206861736800005D
:102610002325303464205465737420766563746FA9
:1026200072206661696C65643A2025732025732CDD
:10263000202573002325303464205465737420767C
:102640006563746F72207061737365643A202573DB
:10265000202573002DE9FF5F04464148DFF804A1FF
:102660004249A0EB0A0047093F480026401AC0082B
:10267000032101EB00496CE020680AEB4615401C81
:10268000206041F21D013A48FDF774FE40213948AF
:10269000FDF770FE374840214030FDF76BFE3448AF
:1026A000A96901F079FC80463248E969403001F0BF
:1026B00073FC8346039001F0FDFB03A92D48CDE98F
:1026C00000012B4A4346A2F17C00296800F0BAFDC4
:1026D000804601F045FC696841450AD0696926A237
:1026E0008DE80601D4E9002348462AA101F0B0F99B
:1026F00005E0039958468B4505D032A10FE060896B
:10270000401C608120E01B49024640311948FDF71A
:1027100043FE00B10120297A88420AD02EA16869BF
:10272000CDE90001D4E9002348462FA101F086F944
:10273000E5E768690090D4E90023484633A101F039
:1027400074F92089401C208101F04AF80028FBD14F
:10275000761CBE4290D304B00020BDE8F09F00007C
:10276000709E0000709D0000609C0000389C00007E
:102770003C030020591300206E72665F637279700B
:10278000746F5F686173685F63616C63756C6174BB
:10279000650000002325303464205465737420766E
:1027A0006563746F72206661696C65643A20257395
:1027B0002025732C202573206572723A20307825ED
:1027C00030780000496E636F7272656374206C65C7
:1027D0006E67746800000000496E636F7272656313
:1027E00074206861736800002325303464205465C8
:1027F000737420766563746F72206661696C6564BA
:102800003A2025732025732C20257300232530348E
:1028100064205465737420766563746F72207061F0
:10282000737365643A202573202573002DE9FF5FDB
:1028300004465448DFF850A15449A0EB0A004FEA7F
:10284000501853480026081AC008032101EB00491C
:1028500090E000BF20680AEB4615401C206041F262
:102860001D014C48FDF786FD40214B48FDF782FDD8
:10287000494840214030FDF77DFDE868009046481A
:10288000E969403001F088FB03908346A96941481B
:10289000009AFDF747FD01F00DFB3E4829687C38A2
:1028A00000F006FD6968814201D03CA213E00027D8
:1028B00020E0687A012804D102033648A969FDF7AF
:1028C00031FD3449009AA1F17C0000F007FD6968F0
:1028D00081420ED037A269690091CDE90120D4E987
:1028E0000023484639A101F0B3F86089401C60819B
:1028F0003BE07F1C2869B842DBD8264803AA26495A
:102900007C3800F0BAFC074601F02AFB6868B84240
:1029100004D0686939A18DE88300E0E7039958463F
:102920008B4501D03CA10BE01B49024640311A48BF
:10293000FDF732FD00B10120297A88420AD03BA17F
:102940006869CDE90001D4E9002348463BA101F0C4
:1029500075F8CAE768690090D4E90023484640A1A9
:1029600001F063F82089401C208100F039FF002825
:10297000FBD1761C4645FFF46DAF04B00020BDE8E6
:10298000F09F0000B09E0000709E0000609C000060
:10299000389C00003C030020591300206E72665FD3
:1029A00063727970746F5F686173685F696E697470
:1029B000000000006E72665F63727970746F5F680A
:1029C0006173685F7570646174650000232530343D
:1029D00064205465737420766563746F7220666139
:1029E000696C65643A2025732025732C202573209B
:1029F0006572723A20307825307800006E72665F1A
:102A000063727970746F5F686173685F66696E6125
:102A10006C697A6500000000496E636F72726563CD
:102A200074206C656E67746800000000496E636F07
:102A30007272656374206861736800002325303406
:102A400064205465737420766563746F72206661C8
:102A5000696C65643A2025732025732C202573004A
:102A60002325303464205465737420766563746F55
:102A700072207061737365643A202573202573009A
:102A800010B50F4C48F20351031B48F21652A042F6
:102A900011D007DC00280AD00A4BC01808D0012842
:102AA00004D10BE00A2B01D00D2B07D0104610BD2E
:102AB00048F2015010BD48F2025010BD084610BD4A
:102AC0000202F00000FE0FFF2DE9FC5F0E008346BE
:102AD000DDE90C47C6F1000098469246814600D4D5
:102AE0000846012503E000BF90FBFAF06D1C50453D
:102AF000FADAA84500D9454624B1002E01DB780753
:102B000000D5641EB80702D5B8F1000F0AD0F80747
:102B100008D13CB1A54205D220215846641EFFF7DA
:102B20009BF9F6E7002E02DA4E462D2102E07807E7
:102B300003D52B215846FFF78FF907F00300022831
:102B40000BD1B8F1000F08D13CB1A54205D230211C
:102B50005846641EFFF780F9F6E7CDE90047434683
:102B600052463146584601F073FABDE8FC9F0246D2
:102B700000201268530713D502F00300012802D089
:102B800002280CD105E0C2F383100B68801C1844A6
:102B900004E00223086803EB92521044086001200D
:102BA000704700002DE9FF410026244800F0F7F9A6
:102BB0002248001F074600F0F2F9214C2149A06885
:102BC00000900D6800E000986946284004EB800002
:102BD0000C30FFF7CCFF0028F5D101AA009901EADB
:102BE000050304EB8303491CDB6842F82030401CDA
:102BF00000910228F2D3019800F0030001280BD0C5
:102C0000022810D10198032101EB90500099BDF8E2
:102C10000A6001EB900005E00198BDF80A60C0F37E
:102C2000831008440090384600F0B6F908B10098C7
:102C3000A06004B03046BDE8F08100006478002058
:102C40004C740020400000205049DFF844A108B532
:102C5000A1EB0A004FEA10184FF48041002000F069
:102C60005DFF08B1FFF744F800F0ACFD00F04EFB4B
:102C700008B1FFF73DF800F0EDFF08B1FFF738F8B5
:102C80000120FFF767F843490120086042494348A3
:102C9000081A4FEAD00B032000EB0B4440A120465A
:102CA00000F0B8FE204646A100F0B4FE4FF4FA65ED
:102CB0004D4E6F01711C384688476D1EFAD1DFF802
:102CC0002C910027002636E00AEB061520462A68DC
:102CD00047A1C9F8042000F0A1FE6868804730B120
:102CE0000090204648A34AA12A6800F09EFEA968E9
:102CF0003E48884730B1009020464CA344A12A6842
:102D000000F093FEE868804730B10090204649A368
:102D10003FA12A6800F089FE204649A12A6800F0F8
:102D20007DFE204626A100F075FE00BF00F058FD94
:102D30000028FBD1761C4645C6D37F1C0A2FC1D381
:102D4000204644A100F066FE4D46B9F80820204612
:102D500044A100F063FE6A89204648A100F05EFEAF
:102D6000204617A100F056FE688958B1012101EBF9
:102D70000B4048A100F04EFE00F032FD0028FBD1D0
:102D800020BFF9E720464CA1F4E70000E80000204E
:102D90009800002040E50140609C0000389C000045
:102DA00043727970746F2054657374204170706C35
:102DB00069636174696F6E20537461727465640035
:102DC0002A2A2A2A2A2A2A2A2A2A2A2A2A2A2A2A63
:102DD0002A2A2A2A2A2A2A2A2A2A2A2A2A2A2A2A53
:102DE0002A2A2A2A2A2A2A0030410000E800002044
:102DF0005465737420636173652025732053746177
:102E000072746564000000007365747570000000E2
:102E10002573202D202573202D206661696C656443
:102E2000206572723A2030782578000065786563F5
:102E30000000000074656172646F776E000000002E
:102E400054657374206361736520257320446F6E2D
:102E500065000000416C6C20546573747320446FEE
:102E60006E65000025642074657374207665637454
:102E70006F72732070617373656400002564207441
:102E800065737420766563746F7273206661696C14
:102E90006564000043727970746F20546573742008
:102EA0004170706C69636174696F6E206661696CF2
:102EB000656421212100000043727970746F2054F1
:102EC000657374204170706C69636174696F6E2002
:102ED0006578656375746564207375636365737382
:102EE00066756C6C792E00002DE9F047C5881E1DB3
:102EF000B6FBF5F78946B6FBF5F1044605FB176C02
:102F0000407916686843DDF820A0F718001F874253
:102F100000D9C61A166001E02468491E0029FBD1B9
:102F2000A5EB0C078846B74216D818E004EB0C0056
:102F3000001D09EB0803BAF1000F3A4602D0014622
:102F4000184600E01946FDF7EDF92468F61B4FF02E
:102F5000000CB844B54201D9374600E02F46002E98
:102F6000E4D1BDE8F087000030B5024651B100F071
:102F7000E9FD0021074C08E034F821301568AB4228
:102F800002D11160002030BD491C8142F4D30520DC
:102F900030BD000000000000002100F009B8012150
:102FA00000F010B808B56A46FDF767F9009808BD4B
:102FB00008B56A46FDF747F908BD08B56A46FDF74A
:102FC00029F908BD08B56A46FDF730F9009808BD33
:102FD00008B56A46FDF75EF9009808BD70B504466D
:102FE00000252846FEF78FFE216862680868904237
:102FF0000ED9401E08600178238AE26801FB032590
:10300000227A2168101AC0B20A79824200D208716D
:103010000020FEF77AFE284670BD70B505460C46C6
:103020000020FEF770FEE868298A201AB0FBF1F153
:103030002A681068431C13600170BDE870400020CE
:10304000FEF763BE10B530B1017A42680368891A91
:10305000C9B21A6006E00E2010BD03681A68541C3D
:103060001C601170491EC9B2F7D2006800210171BD
:10307000084610BD70B504460D4620220830FDF705
:1030800051F9202205F1200104F12800FDF74AF949
:10309000002070BD2DE9F8430C461749DDF820905B
:1030A000016005461F46904614480121FFF785FF41
:1030B000BFF35F8F002618B148F20450BDE8F883D3
:1030C000FEF70AFF43464A4604F1080128460097E6
:1030D000FEF718FA0446FEF7F9FEBFF35F8F0748C4
:1030E00006602000EAD00649CC4202D148F24250A4
:1030F000E4E748F21650E1E7DD55AABB18000020CE
:103100007CF70FFF00B50246034900F01FF90028C5
:1031100000D1106000BD00007652464D30B5154616
:10312000044600F01FF9002808D1627919462846A4
:1031300000F025F9002801D148F2035030BD00000D
:1031400000B50246034900F001F9002800D11060E3
:1031500000BD00007052464D70B516460C4605463F
:1031600000F000F900280ED1AA791946304600F087
:1031700006F9002807D131462046FFF77BFF0028DB
:1031800001D10149216070BD7052464D2DE9F041D9
:103190006C460D46D4E90676AAB10D49284600F0E2
:1031A000D5F80028A5460CD1686831464079420020
:1031B000384600F0EFF80028A54602D1A54648F2AF
:1031C0000350BDE8F08148F21050A546F9E7000031
:1031D0007652464D2DE9F84F6C460E46D4E90A79F1
:1031E00005469A4690461649304600F0AFF800284A
:1031F000A54611D17068494640794200384600F032
:10320000BEF80028A54607D1B8F1000001D02DB1C5
:1032100007E0A54648F21050BDE8F88FAAB06D4609
:103220004DB182B002465346314628460097FFF71B
:1032300031FFA546F0E748F21550A546ECE700003F
:103240007052464D2DE9F0411D46DDE906871646D0
:10325000044600F02DF800280DD12A4631462046BC
:1032600000F03CF8002806D13A4641462046BDE829
:10327000F04100F002B8BDE8F08170B515460E4689
:10328000044600F03FFF002807D13EB1606829687E
:10329000C268914205D248F2145070BD48F21350F2
:1032A00070BD83682A4631462046BDE87040184705
:1032B00010B550B161B141600968044688470028E3
:1032C00002D105482060002010BD48F2015010BD19
:1032D00048F2105010BD00006E52464870B51546B9
:1032E0000E46044600F00EFF00280BD146B155B142
:1032F00060682A46314643682046BDE8704018475A
:1033000048F2105070BD002070BD00002DE9F04162
:103310000B480C4D0C4F401BC60801203870002490
:1033200006E000BF55F834008047002805D1641C32
:10333000B442F7D3022038700020BDE8F0810000CD
:10334000289C0000209C00001400002028B1006888
:10335000884205D048F24050704748F210507047FC
:103360000020704728B139B10022C1E90020104681
:10337000704748F21050704748F21350704720B120
:10338000914205D048F21150704748F210507047F2
:103390000020704730B149B10868904205D248F228
:1033A0001450704748F2135070470A60002070476D
:1033B0000FB408B50399002904D004AA00926A4604
:1033C00000F00FF801B05DF814FB10B582680446F8
:1033D000002A05D0D4E90403216898470020A060A2
:1033E00010BD2DE9FC4791460C00804676D014F8BC
:1033F000011B39B125290ED04046FEF72DFD20785E
:103400000028F4D198F80C00002867D04046BDE8A9
:10341000FC47FFF7DABF0020012221782B291BD0BF
:103420002D2902D0302908D102E040F0010001E04E
:1034300040F00200641C002AEFD100252A290ED09A
:103440002178A1F130020A2A11D205EB850201EBA5
:103450004205641C303DF1E740F00400EAE7D9F88A
:1034600000100B1DC9F800300968641C0D44217858
:1034700000232E290BD114F8011FA1F130020A2AD2
:1034800005D203EB830201EB4203303BF3E76C29E7
:103490000DD068290BD0692921D00BDC252918D043
:1034A000582931D063290ED0642915D117E014F8BA
:1034B000011FECE7702969D0732932D075291BD020
:1034C000782909D120E0D9F80000011DC9F80010C1
:1034D00001784046FEF7C0FC641C90E76CE0D9F828
:1034E00000100A1DC9F800200968CDE900500A2221
:1034F0004046FFF7E9FAEFE7D9F800100A1DC9F8CE
:10350000002009680A2206E0D9F800100A1DC9F84F
:10351000002009681022CDE90050404600F098FDD7
:10352000DAE7D9F8001000270A1DC9F800200E6854
:10353000C00705D112E04046761C7F1CFEF78CFCCC
:1035400031780029F7D104E0202140466D1EFEF7B6
:1035500083FCBD42C0D9002DF6D1BDE74EB1304647
:10356000FCF713FF074604E0202140466D1EFEF7DE
:1035700073FCBD4206D9002DF6D103E04046761C0F
:10358000FEF76AFC31780029F8D1A5E7D9F80000E8
:10359000011DC9F80010056830214046FEF75CFCAB
:1035A00078214046FEF758FC08200021CDE90001B3
:1035B000034610222946B0E7BDE8FC872DE9FF410C
:1035C0001C46DDE90A7815460E46684600F01EF8EE
:1035D00046EA450141EA840141EA072242EA0841FC
:1035E000009A00EB8200C0F80017BDE8FF810000E0
:1035F0000168202902D24FF0A040704701F01F015E
:103600000160014870470000000300500168202954
:1036100002D24FF0A040704701F01F010160014845
:10362000704700000003005038B501240090684640
:1036300031B1FFF7EBFF00998C40C0F8084538BD69
:10364000FFF7E4FF00998C40C0F80C4538BD00003E
:1036500030B5154A01460020D2F8104423460AE04E
:10366000DB681D79854205D1401C0A28F6DB4FF046
:10367000FF3030BD1B68002BF2D1431CF9D0CB6862
:103680001871D2F8103443B1DB68CC681B68236032
:10369000D2F81024D268116030BDC2F81014C96885
:1036A00000220A6030BD00004C7400207047FEF715
:1036B000EDB8704708B5034A00924023024A00F073
:1036C00005F808BD453E0000B4720020F0B595B085
:1036D0001C4615460F4608461A9E00F016FB182198
:1036E00009A8FCF747FE0E96CDE9095400230822ED
:1036F00003A9384600F01EFB05980690BDF810009F
:10370000ADF81C00BDF81200ADF81E0000208DF8C9
:1037100021000398082600F00300012802D00228A7
:1037200018D032E003983346850AC0F3C2008DF802
:10373000200003980FA9C0F38314A200384600F0BC
:10374000F9FA09A8009006AB22460FA9284600F016
:1037500025FA1AE00398840DC0F3C2008DF820000A
:10376000082C01D2254600E0082533462A460FA939
:10377000384600F0DFFA2E44641B09AB06AA29463E
:103780000FA800F073F9002CEAD1384600F0C3FA14
:1037900015B0F0BD0A4A012902EBC00007D002298A
:1037A00007D0032907D0042907D000207047022042
:1037B00070470420704700797047407970470000D7
:1037C000389C000010B5FFF772FF04210348FFF793
:1037D0003FFF02490120C968487110BD289C0000C4
:1037E0002DE9F0478CB0FEF74FFB18B100200CB06C
:1037F000BDE8F0877D4C0020C4F81804BFF34F8F5C
:103800007B49A06802900D684FF00008284004EB47
:1038100080000BE0D4F8180470B961680298814206
:1038200001D8A160E2E7284004EB80000C3002A937
:10383000FFF79DF90028EDD1002003AA029901EAC3
:10384000050304EB8303491CDB6842F82030401C6D
:1038500002910228F2D3039800F00300022802D05C
:1038600001284DD0A7E003985022810D8946B2EB84
:10387000905F00D850210E4666F39F5003900831A8
:103880005C4800F0F9F9070078D000F03EFA4346B2
:10389000082203A9384600F055FA029908F1080AEF
:1038A0002940681A8000001D864222D94F4D0C35F0
:1038B00030B1C2B204EB8101301A90460C3104E001
:1038C0002946F2B2002590462846C6B253463846ED
:1038D00000F038FA0AEB080325B13246294638468B
:1038E00000F030FA029909F1030001EB9000029018
:1038F0003BE004EB81015346324638460C31EFE79A
:103900000398C0F38310062800D30620039960F3C0
:103910008911C1F38310801C03918100354800F0A8
:10392000ABF9070047D000F0F0F94346082203A99D
:10393000384600F007FA08F1080800260FE0029860
:10394000434600EA0501401C04EB81010290042279
:1039500038460C3100F0F6F908F10408761C03989B
:10396000C0F38310B042EAD847B1D4F81054D4F869
:10397000180478B1384600F0CEF931E01BE0E86871
:103980004079012804D12A682846394612689047B0
:10399000E8680568002DF2D1384600F0BCF9002037
:1039A000FEF7B1F9D4F8180408B90298A060002015
:1039B000FEF7ABF914E0D4F8104405E02168204686
:1039C00089688847E0680468002CF7D10A480B49E9
:1039D000401AC008022101EB004009A100F01AF8CA
:1039E000FEF752FA80F0010001E700004C7400205D
:1039F00040000020689C0000609C0000389C000093
:103A00004261636B656E647320666C757368656490
:103A10000000000000231A4600F058BA08B5012340
:103A200000926A4600F052FA08BD3EB5069C8DE849
:103A30001C0003236A4600F049FA3EBD7FB5DDE96C
:103A400008458DE83C0004236A4600F03FFA7FBD3C
:103A500070B586B00DF1280C9CE870008DE87C00F4
:103A600005236A4600F032FA06B070BD2DE9F04732
:103A70000E4680461C469246082940D894F80C9081
:103A8000002020731946104600F090F90025B54239
:103A900006D218F805201BA12046FFF789FC03E099
:103AA0001AA12046FFF784FC6D1C082DEFD318A146
:103AB0002046FFF77DFC0025B54212D218F80570AC
:103AC0007E2F08D8FCF72AFC0068C05D10F03E0F7E
:103AD00001D03A4600E02E220EA12046FFF768FCF6
:103AE00003E00DA12046FFF763FC6D1C082DE3D316
:103AF00001222146504600F03BF984F80C90BDE8C5
:103B0000F0870000202530327800000020202000BF
:103B10007C0000002563000020000000064910B56D
:103B200000200870054800F0F4F8002803D104488C
:103B300000F010F9002010BD4C740020689C0000BB
:103B40008851000002480349401AC008704700002D
:103B5000689C0000389C000013B56846FFF704FA23
:103B600008B100201CBD0248009950F831001CBD6E
:103B7000389C000070B508480125D0F81044057045
:103B800007E0E06845712168204649688847E06899
:103B90000468002CF5D170BD4C7400202DE9FF475E
:103BA00081460C9D00200C462F7B287398461646B4
:103BB0002946184600F0FAF8072E42D2DFE806F050
:103BC00004090F161F2A360049462846FFF7F0FB66
:103BD00037E0494628462268FFF7EAFB31E0D4E99E
:103BE000002349462846FFF7E3FB2AE0A06800903F
:103BF000D4E9002349462846FFF7DAFB21E0D4E95F
:103C00000201CDE90001D4E9002349462846FFF727
:103C1000CFFB16E004F1080007C88DE80700D4E9DF
:103C2000002349462846FFF7C3FB0AE004F10800D9
:103C30000FC88DE80F00D4E9002349462846FFF756
:103C4000B7FB00222946404600F092F82F73BDE8EA
:103C5000FF87000070B500244FF485752046FEF7FD
:103C600069F8641CAC42F9D90249012008700020AF
:103C700070BD0000340000202DE9F041058A804627
:103C80002D1F4819C01CB0FBF5F0C6B24046FFF727
:103C9000A5F9041E19D00020207101206071E58073
:103CA00000272546761EC4F800800BE04046FFF74B
:103CB00095F960B16179491C6171286005467F1CE6
:103CC000C0F80080B742F1D32046BDE8F08120461D
:103CD00000F002F80020F8E72DE9F04145790146AF
:103CE0006B1E002201E00968521C9A42FBD30F6848
:103CF0000146002605E038460C68FFF78EF921469C
:103D0000761CAE42F7D3BDE8F0810121001DFFF71C
:103D100049B9FFF797B910B504460121001DFFF717
:103D200057F910F0FF0F04D12046BDE81040FFF70F
:103D3000D3BF10BD1CB501920122009201AAFFF76A
:103D4000D3F81CBD1CB501920022009201AAFFF716
:103D5000CBF81CBD82680021916082681161826885
:103D600051618268D16082685160806801607047EB
:103D700010B50C46017A052908D0407A38B10848B8
:103D800008A102682046FFF713FB00E01AB106A164
:103D90002046FFF70DFB2046BDE81040FFF715BB9E
:103DA00070000020257300000D0A000038B5C3889C
:103DB0000D46044633B114A0009015A216A1284662
:103DC000FFF7F6FA217A05291CD0607A48B1A0885D
:103DD000FFF7E0FC164951F8202016A12846FFF70E
:103DE000E7FAA0880021FFF7B7FE03461049207AC2
:103DF000143951F8202001B02846BDE830400EA10A
:103E0000FFF7D6BA38BD00001B5B306D0000000024
:103E10001B5B313B33316D0025734C6F677320643E
:103E2000726F70706564202825642925730D0A005F
:103E300070000020257300003C25733E2025733A56
:103E4000200000002DE9F05F1400894623D00025F2
:103E5000DFF85080052600BF09EB0501224600204F
:103E6000FDF716FD0544241A80B998F800000028D3
:103E700011D0DFF834A00A274FF47A4B0AF1010180
:103E8000584688477F1EF9D1761E06D0012188F852
:103E90000010002CE0D1BDE8F09F002188F8001050
:103EA000F9E7000035000020805100000020704735
:103EB0000020704708B50D2000906846FFF798FB7A
:103EC000009A01219140C0F80C1508BD2DE9F84F6A
:103ED000074621489146884605681E4601226946E4
:103EE0001846FDF773FFDFF874A060B30098002157
:103EF0000446801C0AE000BF00EA050259F821C010
:103F00000AEB8202401C491CC2F80CC0B142F3D338
:103F10004FEA1749FEF76AF8611C29400AEB810154
:103F200049EA00422C40CA600AEB8401C86867F382
:103F3000C50066F3891068F39F2020F00300401C41
:103F400020F00400C8609AF8000001E0FFF748FC88
:103F50000028FBD1BDE8F88F400000204C74002001
:103F600008B50D2000906846FFF742FB009A01213A
:103F70009140C0F8081508BD10B50448FFF7E0F8F7
:103F80000348FFF7BFF8002010BD0000D401002057
:103F90000C000020002070472DE9F04707460E0076
:103FA0000DD067B10846FCF7F0F94FEA50092248F6
:103FB0002249401AC008012101EB004837E00020E7
:103FC000BDE8F087A4F13000761C092801D8C4B2FE
:103FD00010E0A4F16100052801D8573C04E0A4F1E9
:103FE0004100052802D8373CE4B203E0404614A162
:103FF000FFF710FD16F8015BA5F13000092801D884
:10400000C5B210E0A5F16100052801D8573D04E0D4
:10401000A5F14100052802D8373DEDB203E0404646
:1040200007A1FFF7F7FC45EA041007F8010B347805
:10403000002CC7D14846C3E7609C0000389C0000B4
:10404000756E686578696679204552524F52000056
:104050002DE9F05F8346DDE90A4A994690460D4610
:104060000846012703E000BFB0FBF8F07F1C404585
:10407000FAD2B94500D94F465FEACA7012D18CB165
:104080005FEA8A7002D5B9F1000F01D0202607E05F
:10409000302605E031465846641EFDF7DDFE0CB1C2
:1040A000A742F7D35FF00106B9F1010F02D9A9F1D8
:1040B000010903E0B5FBF6F0404502D306FB08F624
:1040C000F2E7DFF83C9000BFB5FBF6F000FB1655B9
:1040D00019F800105846FDF7BFFEB6FBF8F6002EA3
:1040E000F2D15FEACA7009D0002C07D0A74205D2EE
:1040F00020215846641EFDF7AFFEF5E7BDE8F09FAE
:104100006451000030B100680549884205D048F28A
:104110000250704748F2015070470020704700007D
:104120006E52464800000000000000000000000041
:104130000338FDD870470D0E0F100B0C18193132D3
:1041400033343536373839300000000000000000C5
:10415000000000000000000000000000000000005F
:10416000000000000000000000000000000000004F
:10417000000000000000000000000000000000003F
:10418000000000000000000000000000000000002F
:105140004800000000204000000000002D1F00006B
:105150003D1F0000E51E00002000000000000000D0
:1051600000000000303132333435363738394142AF
:1051700043444546B5360000B3360000AD36000066
:105180000338FDD870470000B47300207F00000092
:105190003474002000404040404040404040414185
:1051A00041414140404040404040404040404040FC
:1051B0004040404040050202020202020202020296
:1051C0000202020202202020202020202020200293
:1051D0000202020202029090909090901010101023
:1051E00010101010101010101010101010101010BF
:1051F0000202020202028888888888880808080853
:10520000080808080808080808080808080808081E
:105210000202020240000000955100007761726EA8
:10522000696E670064656275670000001B5B313B57
:1052300033306D001B5B306D000000001B5B313BA9
:1052400033316D001B5B313B33326D001B5B313BF7
:1052500033336D001B5B313B33346D001B5B313BE3
:1052600033356D001B5B313B33366D001B5B313BCF
:1052700033376D00696E666F000000006572726FF3
:10528000720000004543445341205369676E00009B
:105290004543445341205665726966790000000019
:1052A0005348410053484120636F6D62696E6564E5
:1052B00000000000534841206C6F6E670000000042
:1052C0007365637032353672312076616C696420A3
:1052D0007368613235362031000000006431623875
:1052E0006566323165623431383265653237303661
:1052F00033383036313036336133663363313663B9
:105300003131346533333933376636396662323397
:105310003263633833333936356139340000000085
:1053200065343234646336316434626233636237C5
:105330006566343334346137663839353761306304
:10534000353133346531366637613637633037345B
:105350006638326536653132663439616266336388
:10536000000000003937306565643761613262637F
:10537000343836353135343539343964653164641F
:1053800064616630313237653539363561633835B9
:10539000643132343364366636306537646661654D
:1053A000653932370000000062663936623939618A
:1053B00061343963373035633931306265333331C5
:1053C00034323031376336343266663534306337E1
:1053D000363334396239646162373266393831665E
:1053E0006439333437663466000000003137633582
:1053F00035303935383139303839633265303362D8
:105400003963643431356162646631323434346511
:1054100033323330373564393866333139323062BC
:105420003965306635376563383731630000000011
:105430007365637032353672312076616C69642031
:105440007368613235362032000000006239333330
:10545000366138643166336538656465303031648F
:10546000313966343133323062633736373264373C
:105470003732613364326362306534333566666671
:1054800033633237643638303461326300000000F1
:10549000653066633661366635306531633537347D
:1054A00037353637336565353465336135376639B9
:1054B00061343966333332386537343362663532B6
:1054C000663333356533656561613364323836344C
:1054D0000000000037663539643638396339316584
:1054E00034363336303764393139346439396661AA
:1054F0006633313665323534333238373038313609
:10550000646465363366356434623337336631320A
:105510006632326100000000316437353833306361
:1055200064333666346339616131383162326334F1
:105530003232316538376631373662376630356238
:105540003763383738323465383265333936633843
:105550003833313563343037000000006362326124
:105560006362303164616339366566633533613354
:1055700032643461306438356430633265343839CC
:1055800035353231343738336563663530613466EA
:10559000303431346133313963303561000000001B
:1055A0007365637032353672312076616C696420C0
:1055B00073686132353620330000000034313030FA
:1055C00037383736393236613230663832316437FF
:1055D0003264396336663263396461653663303309
:1055E00039353431323365613665363933396437AC
:1055F00065366536363934333838393100000000C5
:105600003264393865613031663735346433346239
:105610006263333030336466353035303230306178
:10562000626634343565633732383535366437650C
:105630006437643563353463353535353262366405
:105640000000000039623532363732373432643682
:10565000333761333261646430353664666436648E
:1056600038373932663261333363326536396461D3
:105670006661626561303962393630626336316540
:105680003233306100000000303631303865353259
:105690003566383435643031353562663630313907
:1056A00033323232623332313963393865336434FC
:1056B00039343234633266623261303938376638B1
:1056C0003235633137393539000000003632623502
:1056D0006364643539316535623530376535363068
:1056E000313637626138663666376364613734361F
:1056F0003733656233313536383063623839636346
:1057000062633465656334373764636500000000A5
:105710007365637032353672312052206368616E72
:105720006765642073686132353600003539383476
:1057300065616238383534643061396161356630AD
:105740006337306639366465656235313065356694
:105750003966663863353162656663646333633422
:10576000316261633533353737663232000000000D
:10577000356366303261303064323035626466657C
:10578000653230313666373432313830376663331C
:10579000386165363965366237636364303634653F
:1057A0006536383966633161393461396637643258
:1057B0000000000065633533306365336363356330
:1057C000396431616634363366323634643638359E
:1057D0006166653262346462346235383238643707
:1057E0006536316237343839333066336365363283
:1057F0003261383500000000646332336431333085
:1058000063363131376662353735313230313435D0
:1058100035653939663336663539616261316136ED
:10582000613231636632643065373438316139371B
:105830003435316436363933000000006436636530
:1058400037373038633138646266333564346638EC
:10585000616137323430393232646336383233661C
:1058600032653730353863626331343834666361AA
:1058700064313539396462353031386300000000F5
:105880007365637032353672312053206368616E00
:1058900067656420736861323536000061383263B1
:1058A0003331343132663533373133356431633433
:1058B000313862643731333666623566646539344F
:1058C000323665373063373065376332666231317F
:1058D0006630326633306664656165320000000010
:1058E00038376638663262323138663439383435A2
:1058F0006636663130656563333837373133363273
:1059000036396635633161353437333664626466FF
:105910003639663839393430636164343135353578
:105920000000000065313566333639303336663471
:1059300039383432666163376138366338613262D0
:105940003035353736303937373638313434343806
:1059500062386635653834616139663433393532D9
:1059600030356539000000006431396666343862CC
:1059700033323439313535373634313630393764AE
:1059800032353434663763626466383736386231AC
:10599000343534616432306530626161633530655D
:1059A00032313166323362300000000061336538D5
:1059B0003165353933313163646666663264343754
:1059C0003834393439663761326362353062613672
:1059D0006333613931666135343731303536386596
:1059E0003631616361336538343763360000000057
:1059F0007365637032353672312051206368616E91
:105A00006765642073686132353600003434623073
:105A100032616433303838303736663939373232AC
:105A200030613638666630623237613538656366B4
:105A30006135323862363034343237303937636367
:105A4000653563613935363237346335000000001F
:105A500032646466643134353736373838336666D5
:105A600062623061633030336162346134343334C4
:105A70003664303866613235373062333132306403
:105A800063636539343536323432323234346362EA
:105A900000000000356637306337643131616332AE
:105AA00062376134333563636662626165303263E5
:105AB000336466316561366235333263633065392C
:105AC00064623734663933666666636137633666A7
:105AD00039613634000000003939313331313163F6
:105AE000666636663230633562663435336139391D
:105AF000636432633230313961346537343961344B
:105B0000393732346130383737346431346534638F
:105B10003131336564646138000000003934363750
:105B20006364346364323165636235366230636165
:105B30006230613961343533623433333836383466
:105B400035343539313237613935323432316635B1
:105B5000633633383238363663356363000000000D
:105B60007365637032353672312068617368206303
:105B700068616E67656420736861323536000000C5
:105B80006438306539393333653836373639373329
:105B900031656331366666333165363832313533D7
:105BA00031626366303766636261643965326163AE
:105BB0003136656339653663623334336138373083
:105BC00000000000363962373636373035366531F9
:105BD0006531316436636166366534353634336633
:105BE00038623231653761346265626461343633FC
:105BF0006337666462633133626339386566626451
:105C0000303231340000000064336639623132656D
:105C10006234366337633666646130646133666369
:105C2000383562633166643833313535376639610A
:105C3000626339303261336265336362336538627F
:105C400065376431616132660000000032383866C1
:105C500037613163643339313834326363653231EB
:105C600066303065366631353437316330346463DD
:105C700031383266653462313464393264633138C4
:105C80003931303837393739393739300000000089
:105C90003234376233633465383961336263616447
:105CA00066656137336337626664333631646566CF
:105CB0003433373135666133383262386333656483
:105CC000663461653135643665353565393937395E
:105CD0000000000053484132353620696E76616C11
:105CE000696420686173680036613836623733371B
:105CF00065616561386565393736613061323464B4
:105D0000613633653765643765656661643138616E
:105D1000313031633132313165326233363530639F
:105D200035313837633261386136353035343732A2
:105D30003038323531663664343233376536363191
:105D4000633762663463373766333335333930331C
:105D500039346333376661316139663962653833A6
:105D60003661633238353039000000003432653630
:105D7000316531373466626233383937643664648A
:105D8000366365663364643238303266653637624E
:105D9000333331393533623036313134613635633E
:105DA000373732383539646663316161000000008D
:105DB000534841323536206D6573736167655F6C9A
:105DC000656E3D3000000000000000006533623069
:105DD0006334343239386663316331343961666231
:105DE0006634633839393666623932343237616540
:105DF000343165343634396239333463613439359A
:105E000039393162373835326238353500000000B3
:105E1000534841323536206D6573736167655F6C39
:105E2000656E3D34000000006339386338653535F0
:105E300000000000376162633232633061653561B2
:105E400066323663653933646262393434333361C0
:105E500030653062326531313964303134663865ED
:105E6000376636356264353663363163636363643F
:105E70003935303400000000534841323536206D4A
:105E80006573736167655F6C656E3D363400000055
:105E90003561383662373337656165613865653934
:105EA0003736613061323464613633653765643763
:105EB0006565666164313861313031633132313169
:105EC00065326233363530633531383763326138A5
:105ED00061363530353437323038323531663664F4
:105EE0003432333765363631633762663463373779
:105EF00066333335333930333934633337666131A0
:105F00006139663962653833366163323835303924
:105F100000000000534841323536206D65737361CF
:105F200067655F6C656E3D3336310000383238325C
:105F30003936393061613337333363363262393061
:105F40006433323937383836393532666331646311
:105F500034373364363762623764366262323939D5
:105F60006530383863363566633935656433636167
:105F7000306633363864313131643966646363398D
:105F80003437366364343036356566636537633479
:105F900038316265353938353337663366353362C3
:105FA000626262366666363739373361363938337E
:105FB000373435343439396533313339386234362E
:105FC000333238386533616166623862303630307A
:105FD0006664626131613235616638303662383309
:105FE0006531343235663338346539656163373548
:105FF0003730663063383233393831626132636446
:106000003364383638666261393436343837353976
:106010003632333939316533306639393763336273
:106020006662333364303139313530663034363777
:1060300061393134663165623739636438373237F4
:106040003130366462663764353331306430393725
:106050003539343361363036376363373930323966
:106060006230393233393531313431376439323293
:106070006337633761633364666464386134316302
:106080003532343535623363356531363462383212
:10609000383965313431643832303931306631372E
:1060A000613936363831323937343364393336660C
:1060B00037333132653136303462633335663733E6
:1060C00061623136346133666464666535666531B4
:1060D0003962316134613966323337663631636231
:1060E0003865623739326539356430393961313470
:1060F000353566623738396438643136323266365F
:106100006335653937366365663935313733376519
:1061100033366637613961346164313965653064BD
:10612000303638653533643966363034353764395E
:1061300031343864356133636538356135343662FE
:106140003435633563363331643939356631316618
:1061500030333765343732666534653831666137D8
:1061600062396632616334303638623533303838FC
:1061700035386364366438353836313635633962DC
:1061800064366233323261666137353534303864B3
:106190006139623930613837663337333561356696
:1061A0003530656238353638646161353865653754
:1061B00063626335396162663866643261343465BE
:1061C00031656261373239323838313663383930C7
:1061D000643162306462663630303432303866663C
:1061E0003733383163363937373535616461633079
:1061F000313337636361333432623136393300000F
:10620000356634653136613732643663393835374F
:106210006461306261303039636361636434663273
:1062200036643766366266366331623738613265A6
:1062300064333565363866636231356238653430CB
:1062400000000000534841323536206D657373619C
:1062500067655F6C656E3D39353500003833393020
:1062600063663062653037363631636337363639C8
:106270006161633534636530396133373733336196
:1062800036323964343566356439383365663230D0
:1062900031663962326431333830306535353564D2
:1062A0003962313039376665633362373833643782
:1062B0006135306463623565326236343462393652
:1062C0006131653934363366313737636633343993
:1062D0003036626633383866333636646235633258
:1062E000646565653034613330653238336637361E
:1062F000346139376333623337376130333466653D
:10630000666332326332353932313466616139392C
:106310006261626166663136306162306161613747
:106320006532636362306365303963366233326687
:106330006530386362633437343639343337356126
:106340006261373033666164626661333163663639
:1063500038356233306131316335376633636634E3
:10636000656464333231653537643361653665623F
:106370006231313333633832363065373562393222
:1063800032346661343761326262323035323439E8
:10639000616464326532653632663831373439319A
:1063A00034383261653135323332326265303930FA
:1063B0003033353563646363386434326139386649
:1063C0003832653936316130646336663533376269
:1063D0003762343130656666313035663539363787
:1063E0003362666237383762663034326161303723
:1063F000316637616636386439343464323733375E
:1064000031633634313630666539333832373732B6
:106410003337323531366332333063316634356386
:1064200030643662366363613766323734623339DB
:10643000346461393430326433656166646637339D
:106440003339393465633538616232326437313813
:106450003239613938333939353734643462353952
:1064600030386134343761356136383163623064D5
:10647000643530613331313435333131643932632D
:106480003232613136646531656164363661353486
:10649000393966326463656234636165363934372D
:1064A00037326365393037363265663833333661B3
:1064B0006665633635336161396231613163343821
:1064C000323062323231313336646663653830647B
:1064D0006365326261393230643838613533306334
:1064E000393431306430613465303335386133618B
:1064F000313130353265353864643733623062317A
:1065000037396566386635366665336235613264BB
:106510003131376137336130633338613133393288
:106520006236393338653937383265306438363455
:1065300035366565343838346533633339643464EB
:106540003735383133663133363333626337396246
:106550006161303763306432643535356166626657
:1065600032303766353262376463613132366430D7
:1065700031356161326239383733623365623036C2
:1065800035653930623962303635613533373366D7
:1065900065316662316232306435393433323764A2
:1065A0003139666261353663623831653762363655
:1065B0003936363035666661353665626133633249
:1065C00037613433383639376363323162323031D0
:1065D00066643765303966313864656561316233C8
:1065E000656132663064316564633032646630659B
:1065F00032303339366131343534313263643662A6
:106600003133633332643265363035363431633991
:10661000343862373134616563333063303634394E
:10662000646334343134333531316633356162304B
:106630006664356464363463333464303666653892
:106640003666333833366466653965646562376645
:106650003038636663336264343039353638323605
:10666000333536323432313931663939663533347F
:1066700037336633326230636330636639333231C5
:10668000643663393261313132653864623930627F
:10669000383665653965383763633332643033348F
:1066A000336462303165333263653965623738325D
:1066B0006362323465666262626562343430666594
:1066C000393239653866326266386466623135352A
:1066D0003061336132653734326538623435356163
:1066E000336535373330653965366137613938326E
:1066F0003464313761636330663732613766363709
:1067000065616530663039373066386264653436C5
:10671000646364656661656433303437636638305A
:1067200037653766303061343265356664313164DF
:10673000343066356539383533336437353734347A
:1067400032356237643262633362333834356334EE
:10675000343330303862353839383065373638655B
:1067600034363465313763633666366233393339EC
:1067700065656535326637313339363364303764B1
:10678000386334616266303234343865663062387A
:1067900038396339363731653266386134333664B7
:1067A000646565666663636137313736653962668D
:1067B000396431303035656364333737663266614A
:1067C000363763323365643166313337653630626C
:1067D0006634363031386138626436313364303390
:1067E0003865383833373034666332366537393890
:1067F00039363964663335656337626263366134CE
:1068000066653436643839313062643832666133F3
:1068100063646564323635643061336236643339BB
:10682000396534323531653464383233336461610B
:10683000323162353831326664656436353336312B
:10684000393866663133616135613163643436618C
:106850003562396131376134646463316439663873
:10686000353534346431643163633136663364669C
:10687000383538303338633865303731613131611C
:10688000376531353761383561366138646334379F
:1068900065383864373565373030396138623236BB
:1068A000666462373366333361326137306631652F
:1068B0003063323539663866393533336239623898
:1068C0006639616639323838623732373466323188
:1068D000626165656337386433393666386261638F
:1068E000646363323234373132303764396234654D
:1068F0006663636433666564633563356132323180
:106900003466663565353163353533663335653222
:1069100031616536393666653531653864663733D9
:10692000336138653036663530663431396535392E
:1069300039653966396534623337636536343366B1
:10694000633831306661616134373938393737310E
:10695000353039643639613131306163393136323D
:1069600036313432373032363336396132313236BD
:1069700033616334343630666234663730386638B3
:106980006165323835393938353664623763623695
:10699000613433616338653033643634613936309D
:1069A00039383037653736633566333132623964AA
:1069B00031383633626661333034653839353336D1
:1069C000343736343862346634616230656439395C
:1069D00035650000343130396364626563333234C5
:1069E0003061643734636336633337663339333049
:1069F00030663730666564653136653231656663A9
:106A0000373766373836353939383731346161646C
:106A10003062356500000000534841323536206D44
:106A20006573736167655F6C656E3D313934350040
:106A30006565623161346336363062653937653396
:106A400036356466653432613464333430306336ED
:106A5000653636316361616361303261636364322C
:106A60006566343162653962663135623463393660
:106A70003531383931613639366263363034303841
:106A800062306363616132623463326432636665CB
