:020000040000FA
:10000000600C0020150200003F02000041020000C9
:10001000430200004502000047020000000000000B
:100020000000000000000000000000004902000085
:100030004B020000000000004D0200004F020000D3
:1000400051020000D50200008107000051020000AB
:1000500051020000000000005102000051020000A7
:100060005102000051020000510200005102000044
:100070005102000051020000510200005102000034
:100080005102000051020000510200005102000024
:100090003103000051020000510200005102000033
:1000A00051020000510200000000000000000000AA
:1000B000510200005102000000000000000000009A
:1000C0000000000000000000000000000000000030
:1000D0000000000000000000000000000000000020
:1000E0000000000000000000000000000000000010
:1000F0000000000000000000000000000000000000
:1001000000000000000000000000000000000000EF
:1001100000000000000000000000000000000000DF
:1001200000000000000000000000000000000000CF
:1001300000000000000000000000000000000000BF
:1001400000000000000000000000000000000000AF
:10015000000000000000000000000000000000009F
:10016000000000000000000000000000000000008F
:10017000000000000000000000000000000000007F
:10018000000000000000000000000000000000006F
:10019000000000000000000000000000000000005F
:1001A000000000000000000000000000000000004F
:1001B000000000000000000000000000000000003F
:1001C000000000000000000000000000000000002F
:1001D000000000000000000000000000000000001F
:1001E000000000000000000000000000000000000F
:1001F00000000000000000000000000000000000FF
:10020000DFF80CD000F054F800480047310B000034
:10021000600C00200F4800680F4909680A280AD1BD
:10022000002908D10D4802686FF070031A404FF0A2
:1002300040031A4302600A4880470A480047FEE725
:10024000FEE7FEE7FEE7FEE7FEE7FEE7FEE7FEE786
:10025000FEE700003001001034010010E40E004001
:10026000890300000102000040EA01039B0703D05C
:1002700009E008C9121F08C0042AFAD203E011F8E5
:10028000013B00F8013B521EF9D27047D2B201E0A7
:1002900000F8012B491EFBD270470022F6E710B58B
:1002A00013460A4604461946FFF7F0FF204610BDE4
:1002B000064C074D06E0E06840F0010394E80700B3
:1002C00098471034AC42F6D3FFF79EFF7816000033
:1002D0009816000070B5144CD4F80001002628B11F
:1002E000D4F80403C00701D0C4F80061D4F80C01AD
:1002F0000E4D40B1D4F80403000704D5C4F80C61D6
:10030000286900B18047D4F8100100280BD0D4F838
:100310000403C00607D5C4F81061E868002802D0BD
:10032000BDE87040004770BD001000404400002050
:100330007CB5144C606A01902078002821D00120FF
:1003400000F031FA656800266660012000F03CFA92
:10035000E169002915D0E80703D08DF800606846F0
:100360008847A80705D501208DF80000E169684697
:100370008847680705D502208DF80000E1696846C6
:1003800088477CBD440000202DE9F041EB4AEC4950
:100390004FF080551468D5F830010978D5F834212C
:1003A000431CC1F3031107D08446174601260023DE
:1003B000BCF1060F04D013E004F0FF0C0F46F5E784
:1003C000032F05D0042F03D0052F01D0062F07D10E
:1003D000B5F82473DFF86CC3C7F30427CCF80070BA
:1003E000E7B2062F06D1032904D1DFF860C3D64F48
:1003F000CCF87470471C08D084461746BCF1060F31
:1004000007D0BCF10A0F0DD017E004F0FF0C0F4627
:10041000F4E7032F09D0042F07D0052F05D0062FAE
:100420000BD102E00FB1012F07D1D5F84472DFF8EC
:1004300020C3C7F34237CCF80070E7B2062F08D1CB
:10044000032906D1C34FD7F800C02CF0807CC7F831
:1004500000C0471C09D084464FEA0207BCF1060FD2
:1004600007D0BCF10A0F0DD018E004F0FF0C0F46C6
:10047000F4E7032F09D0042F07D0052F05D0062F4E
:100480000CD102E00FB1012F08D14FF08047C7F81F
:100490000C31C7F81031AE4F3F1F3B60E7B2062F5B
:1004A00008D1032906D1DFF8A8C203270CF1640C98
:1004B000CCF80070E7B2062F11D103290FD1DFF875
:1004C00098C20527CCF80070A34F78373E60A24F42
:1004D00008373B600CF1040C3F27CCF80070471C38
:1004E00009D084464FEA0207BCF1060F07D0BCF1E1
:1004F0000A0F0DD08BE004F0FF0C0F46F4E7032F3A
:100500007ED0042F7CD0052F05D0062F7FD102E0AE
:100510000FB1012F7BD1914F3F68DFF844C2CCF877
:1005200000708E4F3F1D3F680CF1040CCCF800703A
:100530008A4F08373F680CF1040CCCF80070874FE5
:100540000C373F680CF1040CCCF80070834F103767
:100550003F680CF1040CCCF80070804F14373F68F2
:100560000CF1040CCCF800707C4F18373F68DFF8B2
:10057000F0C10CF1200CCCF80070784F1C373F68AC
:100580000CF1040CCCF80070744F20373F680CF16C
:10059000040CCCF80070714F24373F680CF1040C48
:1005A000CCF800706D4F28373F680CF1040CCCF884
:1005B00000706A4F2C373F680CF1040CCCF80070C7
:1005C000664F30373F68DFF898C10CF1400CCCF82B
:1005D0000070624F34373F680CF1040CCCF80070A7
:1005E0005E4F38373F680CF1040CCCF800705B4F5D
:1005F0003C373F680CF1040CCCF80070574F00E01A
:1006000005E040373F680CF1040CCCF80070471C43
:1006100006D086469446534FBEF1060F04D014E030
:1006200004F0FF0E8C46F6E7BCF1030F08D0BCF1D6
:10063000040F05D0BCF1050F02D0BCF1060F04D1A8
:10064000D5F8585205F04F053D60451C06D00446CC
:100650001146062C04D00A2C0BD014E0E4B2F8E7C3
:10066000032909D0042907D0052905D006290AD174
:1006700002E009B1012906D13B490C68E40702D028
:100680006FF001040C6006280DD11146032A0AD030
:10069000042908D0052906D0062A04D133490C685C
:1006A00044F480640C600A2806D12AB1012A03D1DF
:1006B000386840F00F0038604FF01021D1F8004248
:1006C0002B4A2C48002C03DBD1F80442002C13DA0F
:1006D00016600468002CFCD01524C1F8004205689F
:1006E000002DFCD0C1F8044201680029FCD0136041
:1006F00001680029FCD019E091F80042E40703D119
:1007000091F80442E40713D016600468002CFCD072
:10071000C1F800320468002CFCD0C1F80432016832
:100720000029FCD0136001680029FCD000F076F8A5
:10073000124911480860BDE8F0810000E00F00F0A8
:10074000E80F00F0403501400DF0ADBA00C00740A1
:100750003C050040FCED00E0105600400404001091
:1007600020C50040E40E0040000400403C1700405B
:1007700004E5014000E401400090D0038C0000201B
:1007800001480068004700003C000020002809DB09
:1007900000F01F02012191404009800000F1E0209B
:1007A000C0F88012704700280DDB00F01F02012105
:1007B00091404009800000F1E020C0F88011BFF3B3
:1007C0004F8FBFF36F8F7047002809DB00F01F02C7
:1007D000012191404009800000F1E020C0F80011A3
:1007E0007047002809DB00F01F02012191404009F9
:1007F000800000F1E020C0F8001270474907090EA0
:10080000002804DB00F1E02080F80014704700F0BD
:100810000F0000F1E02080F8141D7047BFF34F8FE8
:1008200005480168054A01F4E06111430160BFF326
:100830004F8F00BFFDE700000CED00E00400FA055B
:1008400002E008C8121F08C1002AFAD17047704799
:10085000002001E001C1121F002AFBD1704700688F
:1008600090FAA0F000BA00BA7047000072B60948CA
:100870000068C00700D000BEBFF34F8F0548E438C2
:100880000168054A01F4E06111430160BFF34F8F35
:1008900000BFFDE7F0ED00E00400FA050EB5002111
:1008A0000091CDE901106A4644F20100FFF7DEFF36
:1008B0000EBD00002DE9FC410646C0074FF00005C3
:1008C0000ED0104F00240122385D00950023114600
:1008D000019500F0BDFB641C042CF4D300F01CF85F
:1008E000B0070DD5074E0024361D0022305D0323CE
:1008F00000951146019500F0ABFB641C042CF4D369
:10090000BDE8FC81701600000249085C012100F07E
:10091000D1BB00007016000010B500242046FFF780
:10092000F3FF641C042CF9D310BD006890FAA0F00A
:1009300000BA70474FF080400021C0F8001101213B
:10094000C0F80010D0F800110029FBD0704700005B
:1009500010B51EA08AB0006808901DA01DA10068F7
:100960000990D1E90001CDE9060118221B4968462A
:10097000FFF77AFC0620ADF80E00002401208DF868
:1009800014408DF800008DF80800154801908DF88E
:100990000140684600F090F9002815D108A800F041
:1009A00055FA002810D109A800F062FA00280BD1EE
:1009B000082106A800F06EFA002805D10948032195
:1009C00001704470447100200AB010BDE7E7E7E70A
:1009D000C2C2C2C2E7C2C3C4C5C6C7C85816000057
:1009E000CD0B00001400002070B50D2000F04FFB6F
:1009F0001C4C60600E2000F04AFBA0600F2000F04D
:100A000046FBE060102000F042FB2061626804F1C8
:100A100014011AB94B7943F001034B71A3681BB958
:100A20004D7945F002054D71E5681DB94E7946F0E6
:100A300004064E7118B94E7946F008064E711A44F4
:100A40002A441044032803D001202070002070BDE8
:100A50000020C8700348143000F062FA0028F5D076
:100A600070BD00000000002010B5032211460D20CB
:100A700000F000FB032211460E2000F0FBFA0322D7
:100A800011460F2000F0F6FA03221146102000F064
:100A9000F1FA04494FF47A408847BDE8104001203C
:100AA000FFF708BF5116000070B500F01FFC1E498B
:100AB0000020A1F5947300BF00EB800202EB40120E
:100AC0001A4441F82020401C0828F5DB1649002074
:100AD0002C3101F5947200BF00EB800404EB40144C
:100AE0000C4442F82040401C0828F5DB00200F4A47
:100AF0004FEA000100EB800404EB4014E51800EB22
:100B00004004401C42F8245002EB84040828217160
:100B1000A160EFDB054A002012F1600242F82010CC
:100B2000401C0828FADB70BDF8010020BC0300203F
:100B3000FFF700FFFFF70CFF08B1FFF7AFFEFFF76D
:100B400093FF00F0BBFBFFF74FFF08B1FFF7A6FED6
:100B50000C4C20780028FCD00D2000F098FA0128D9
:100B6000F7D10E2000F093FA0128F2D10F2000F007
:100B70008EFA0128EDD1102000F089FA0128E8D181
:100B800000F098FC0000002070B50C494FF4705044
:100B900008600B4C00256570257000F0A7FB202134
:100BA0000848FFF77AFBE56214202563FFF7FBFD99
:100BB00005490320C1F80002002070BD08F501407E
:100BC000440000203C0400200010004070B5007874
:100BD0002B4C002851D0012802D002284DD102E030
:100BE00000F052F849E0274800F0ECF80028FAD06D
:100BF000244D6168687940F30000401C21B1002158
:100C0000884203D1012102E00121F9E700211120EE
:100C100000F045FA6879A16840F34000401C21B11A
:100C20000021884203D1012102E00121F9E70021DE
:100C3000122000F034FA6879E16840F38000401C2B
:100C400021B10021884203D1012102E00121F9E70D
:100C50000021132000F023FA6879216940F3C000D5
:100C6000401C21B10021884203D1012102E0012171
:100C7000F9E70021142000F012FA0120207070BD65
:100C80000000002090000020094810B5007860B1F5
:100C90000120FFF788FD074800218162016241625F
:100CA0000120FFF791FD002010BD082010BD0000BD
:100CB00044000020F801002070B5050065D0354CD7
:100CC000207818B1FFF760FF00285DD16868E06107
:100CD000182229463048FFF7C7FA00256560202111
:100CE0002E48FFF7DAFAE562256300F039FCE8B335
:100CF0002B494FF0E7300860091D4FF04330086082
:100D0000091D28480860091D27480860FFF7CCFE28
:100D1000264904200860254808380560244840F228
:100D20000221C0F80012244A22491160111D0860F6
:100D30002048001D091D08601D481030091D08606D
:100D4000091D1E4808601B48F038091D08601B4833
:100D5000001D091D0860091D194808600E4E707CB1
:100D600000F007010120FFF749FD00E00FE0B07C33
:100D700000F007011420FFF741FD1420FFF724FDC8
:100D8000657001202070002070BD0E2070BD07200E
:100D900070BD000044000020B80000203C0400208A
:100DA0001C150040E743C323A363E31310A50040D1
:100DB00000A000400011004060F5014040A100404B
:100DC0000010004070B505461E48007880B385B31A
:100DD0001D4CA06A70B30120FFF7E5FC606A54F86F
:100DE00020100A782A7054F820104978697054F855
:100DF00020108978A97054F820100979297154F8C5
:100E00002010C978E97054F82010681D491DFFF7BB
:100E10002BFA606A401C6062082801D300206062DF
:100E2000A06A401EA0620120FFF7CEFC002070BD2A
:100E300001E002E003E00820F9E70E20F7E70520D3
:100E4000F5E70000440000204C030020074910B5DE
:100E50004A780AB1112010BD30B100684863012002
:100E600000F032FB002010BD0E2010BD4400002019
:100E7000074910B54A780AB1112010BD30B1006899
:100E80008863022000F020FB002010BD0E2010BD62
:100E90004400002010B50C460F49497809B11120D3
:100EA00010BD18B1082C03D9072010BD0E2010BDAD
:100EB0000146094822463C30FFF7D6F90648C4F1FE
:100EC00008023430FF210474D1408174042000F002
:100ED000FBFA002010BD0000440000200E4810B5B1
:100EE0000078A0B10D4CA06A98B10120FFF75BFC1F
:100EF000A06A401EA062606A401C6062082801D39C
:100F0000002060620120FFF75FFC002010BD082078
:100F100010BD4FF4807010BD44000020F801002087
:100F20002DE9F047DFF818A106469AF8000040B115
:100F300056B1307868B120280BD8424F397829B1A2
:100F400009E00820BDE8F0870E20FBE7F97C884225
:100F500001D90920F6E73C4CA06A082801D30420F7
:100F6000F0E77078082801D30720EBE70120FFF7AE
:100F70001AFCDFF8CC8078784FF0000908F12C08D3
:100F800060B13249002000BF00EB400201EB820259
:100F90001279EAB1401C0828F6DB42E0206A2522DB
:100FA000314654F82000FFF75FF9727818F8021004
:100FB000491C01F0030108F80210206A54F82020AF
:100FC000401C08281171206228D3C4F8209025E025
:100FD00000EB400011EB800523D001202871C5F8FB
:100FE0000890252231462868FFF73EF9727818F8F4
:100FF0000210491C01F0030108F802102868134A86
:1010000001717178603252F8210018B942F821500C
:1010100004E0084681680029FBD18560A06A401C75
:10102000A0620120FFF7D0FB787830B9387C20B976
:101030009AF8010008B900F0B3F9002082E7000037
:1010400044000020B8000020F8010020BC0300206C
:1010500070B541EA4201DDE904564FF0A04441EA8F
:10106000830141EA052104EB800041EA0641C0F812
:10107000001770BD10B54FF0A043002444EA810171
:1010800003EB800041EA0241C0F8001710BD4FF0A9
:10109000A041D1F81015C14001F0010070470122B4
:1010A0004FF0A043824011B1C3F808257047C3F840
:1010B0000C25704701224FF0A043824011B1C3F8C4
:1010C00008257047C3F80C257047000070B5164C12
:1010D000A068164AC2F80002A06A15490860154BBC
:1010E000091D9889823808601348012140F80C1FB7
:1010F0000021C0F83411C0F83811104D4FF4E05001
:10110000286050142D1D2860C2F80C11187810B9F1
:101110006169002088470B49094808600A48E06077
:101120000320607070BD00004400002000100040EB
:1011300040A50040B800002000A0004004F5014098
:101140009A030020041500408911000010B50C4CD2
:10115000606840F001006060FFF7C0FE0948806AE7
:1011600030B11420FFF73DFBBDE8104000F018B986
:1011700000206070BDE810401420FFF732BB000073
:1011800044000020F80100202DE9F047414A4FF4C7
:10119000E05010604049D1F80C31DFF80091002791
:1011A0003F4CB9F80E004E14DFF8F8800125E3B388
:1011B0003D4B1B68CBB325611660D8F8041041F095
:1011C0000101C8F80410D8F82010401A401CC8F8D3
:1011D0002400FFF783FE99F8000088B109F2E220AD
:1011E000017869B14078410830480068C0B200F029
:1011F0008BF828B1D8F8040040F00400C8F80400C7
:101200002B48806A50B199F81000012806D01420AC
:10121000FFF7E7FABDE8F04700F0C2B888F80170C0
:10122000BDE8F0471420FFF7DCBAD8F820C0BCF1C5
:10123000010CC8F820C00BD225611660401CC8F80C
:101240002400D8F8040040F00200C8F80400E5E7E4
:10125000D8F808000F4640F00802C1F80022D8F87C
:101260001800D8F814100078884710481149283819
:1012700001601148C8F80C00022088F801002560C0
:101280000448001F0660D4F84401002800D03D60E7
:10129000BDE8F08708F5014000100040B8000020CC
:1012A00000A0004044000020001400402C15004025
:1012B000F801002078030020CD100000094800212B
:1012C00002680D23B3EB121F04D10168002201F064
:1012D0000F010260491C41F0D0020260080102497E
:1012E000887170471C05004014000020054900204B
:1012F00008624862886201F5AA71086248628862E1
:1013000070470000F80100202DE9F041224C07460B
:101310008846A06A08283DD2A4F5257120460A789F
:101320000026006A01F2E225012A03D04A7842B180
:10133000C97C02E0297820292CD854F8202011708B
:1013400002E054F820100E7054F82000A91C10F888
:10135000052BFEF789FF206A54F820104F700F49C3
:10136000096854F82020917054F8202082F80480F5
:10137000697854F8202041F30001491C401CD170C9
:101380002062082800D32662A06A401CA0620120C7
:10139000BDE8F0810020FBE74C0300204815004029
:1013A0002DE9F05F3D4C4FF00108C4F824803C4823
:1013B000DFF8F0A0A0F5A077416A3B4D4FF0000B9D
:1013C00050F82110A161387807F5307610B1012866
:1013D00043D10DE0087861698847A16908793070C8
:1013E00086F801B011F8052BB01CFEF73DFF18E0A0
:1013F000C87820B3387D10B300208146087830705B
:1014000008794006000E7070CA78D2B100221043ED
:10141000707011F8052BB01CFEF726FFB9F1000F14
:1014200011D0A06840F00800C5F800021120C5F8EE
:101430000403F88920620220C4F80CA00CE001200B
:10144000DBE70122E3E7A068C5F800021020C5F839
:1014500004031648E06040466070A069144A417871
:1014600011604078444608FA00F0111D08600B48EE
:101470000F4934302439C07C0860081F0660012001
:10148000FFF784F90120FFF79FF9C5F804B1C5F80B
:1014900008B1C5F810B12C60BDE8F09F44000020F1
:1014A000F8010020CD100000001000404D11000098
:1014B0002C150040FFF730FA024801210160006856
:1014C000FEE700000005004010B50446C00704D048
:1014D0000F48FFF7C4F90F490860A00706D50C486C
:1014E000001DFFF7BCF90B49091D086060070DD509
:1014F00007480830FFF719FA064908310860044820
:101500000C30FFF712FA03490C31086010BD0000DF
:10151000780000201C1500400E490F480A7A02602E
:101520000E48492352B1012A05D0032A06D0042AC5
:1015300001D0002070473022826200E083628B89F4
:10154000826A3E32934202D2806A3E308881012014
:1015500070470000B8000020101500404400002033
:1015600070B500F03FF8FFF7D7FF1849184A0B781D
:101570007BB1012B0BD00023034016484D7A041F8A
:10158000B5B1012D0ED0022D07D0002417E0124B6B
:1015900000E0124B53610123EEE74FF6FF76066041
:1015A0000F4803E0FF26066040F20710206002E0CB
:1015B0000026066026600748083805600124C87CBC
:1015C00051691C408847204670BD0000B8000020CB
:1015D000440000203C15004025160000F9150000CD
:1015E0002110010002480349807A0860704700001A
:1015F000B80000200C150040084A0749116008494E
:10160000497C491E090441EA0021014341F08070F0
:10161000111D086070470000000101001415004012
:101620007800002007490648086007480749407CC1
:10163000401E41EA00400349091D08607047000050
:10164000060003001415004078000020200000016F
:101650000338FDD8704700000100000000000000C2
:1016600001020000FA000300000102200000000057
:10167000111213140D0E0F10981600000000002018
:101680009000000040080000281700009000002093
:10169000D00B000050080000000000000000000017
:1016A0000000000000000000000000000200000038
:1016B0000001000000000000000000000000000029
:1016C000000000000000000000000000000000001A
:1016D000000000000000000000000000000000000A
:1016E00000000000130100000000000000000000E6
:1016F00000000000000000000000000000000000EA
:1017000000000000000000000000000000000000D9
:10171000E7E7E7E7C2C2C2C2E7C2C3C4C5C6C7C8DB
:081720000805FF020090D00350
:0400000500000201F4
:00000001FF
