:020000040002F8
:1060000040560020C1630200C9630200CB63020056
:10601000CD630200CF630200D163020000000000E4
:10602000000000000000000000000000D363020038
:10603000D563020000000000D7630200D9630200AC
:106040001D660200DB630200216A0200DB630200BE
:10605000DB630200DB63020079650200DB630200A0
:10606000DB630200DB630200DB630200DB63020030
:10607000DB630200DB630200DB630200DB63020020
:10608000DB63020075660200DB630200DB63020073
:10609000DB630200DB63020085660200DB63020053
:1060A000DB630200DB630200DB630200DB630200F0
:1060B000DB630200DB630200000000000000000060
:1060C000DB630200DB630200DB630200DB630200D0
:1060D000DB630200DB630200DB6302000000000000
:1060E00000000000000000000000000000000000B0
:1060F00000000000000000000000000000000000A0
:10610000000000000000000000000000000000008F
:10611000000000000000000000000000000000007F
:10612000000000000000000000000000000000006F
:10613000000000000000000000000000000000005F
:10614000000000000000000000000000000000004F
:10615000000000000000000000000000000000003F
:10616000000000000000000000000000000000002F
:10617000000000000000000000000000000000001F
:10618000000000000000000000000000000000000F
:1061900000000000000000000000000000000000FF
:1061A00000000000000000000000000000000000EF
:1061B00000000000000000000000000000000000DF
:1061C00000000000000000000000000000000000CF
:1061D00000000000000000000000000000000000BF
:1061E00000000000000000000000000000000000AF
:1061F000000000000000000000000000000000009F
:10620000DFF80CD000F07AF90048004719AC020022
:106210004056002030B450E8012F93B2C489234483
:106220008489A34228BF1B1B0489A34202BFBFF37A
:106230002F8F002007E0C3EA020340E80134002C5E
:10624000E9D14FF001000A6030BC704750E8012FDF
:10625000C2EA024240E801210029F7D1704730B478
:1062600050E8022F1FFAA2F3C488A34202BFBFF373
:106270002F8F00200DE0C48923448489A34228BFC6
:106280001B1BC2EA034340E80234002CE8D14FF064
:1062900001000A6030BC704750E8022FC2EA224277
:1062A00040E802210029F7D17047034653E8022F46
:1062B000D988B2EB324F4FF0000017BF92B241EADB
:1062C000014142EA014104E05A68B2EB324F08BF93
:1062D000012043E80212002AE8D1704730B4044696
:1062E00054E8000F0D4644E80053002BF8D1156028
:1062F00030BC704730B4044654E8000F40EA010552
:1063000044E80053002BF7D1156030BC704730B41F
:10631000044654E8000F00EA010544E80053002B4E
:10632000F7D1156030BC704730B4044654E8000F14
:1063300080EA010544E80053002BF7D1156030BC1A
:10634000704730B4044654E8000F00EB010544E800
:106350000053002BF7D1156030BC704730B40446B1
:1063600054E8000FA0EB010544E80053002BF7D1DF
:10637000156030BC704770B404464FF0000054E81C
:10638000006F0D68AE4207BF44E80023012044E8D7
:1063900000630E60002B1CBF0020F0E770BC70474C
:1063A00030B4044654E8000F88422CBF451A054615
:1063B00044E80053002BF5D1156030BC7047000055
:1063C0000648804706480047FEE7FEE7FEE7FEE78F
:1063D000FEE7FEE7FEE7FEE7FEE7FEE7896602006E
:1063E000016202002DE9F05F0546002092469B46BF
:1063F00088460646814640241BE0284641464746DB
:10640000224600F06BF853465A46C01A914110D309
:1064100011461846224600F016F82D1A67EB0108BF
:106420004F4622460120002100F00DF817EB00092D
:106430004E41201EA4F10104DFDC484631462A46C5
:106440004346BDE8F09F202A04DB203A00FA02F11F
:10645000002070479140C2F1200320FA03F3194352
:1064600090407047004870473417030040EA01032A
:106470009B0703D009E008C9121F08C0042AFAD2FA
:1064800003E011F8013B00F8013B521EF9D27047BE
:10649000D2B201E000F8012B491EFBD27047002266
:1064A000F6E710B513460A4604461946FFF7F0FF13
:1064B000204610BD421C10F8011B0029FBD1801A98
:1064C000704730B504460020034600E05B1C934251
:1064D00003D2E05CCD5C401BF8D030BD202A04DB49
:1064E000203A21FA02F00021704721FA02F3D0404D
:1064F000C2F120029140084319467047064C074DEF
:1065000006E0E06840F0010394E807009847103483
:10651000AC42F6D3FFF778FEF42D0300142E0300EF
:1065200070B58C1810F8015B15F0070301D110F855
:10653000013B2A1106D110F8012B03E010F8016B82
:1065400001F8016B5B1EF9D12B0705D40023521E05
:106550000DD401F8013BFAE710F8013BCB1A921C6D
:1065600003E013F8015B01F8015B521EF9D5A1426B
:10657000D8D3002070BD00002DE9F8430025DFF8D6
:1065800094804FF4807601242F460095304605F024
:106590002FFD38B1D8F80403204203D0304605F06F
:1065A0001DFD2543361D64007F1CB6B2082FEDD3B8
:1065B0004FF4BE74204605F01BFD48B1204605F09F
:1065C0000DFD45F000456A460121002005F0D6FC8E
:1065D00015F0FF0F16D0012600242E420ED008EB36
:1065E0008401D1F81005D1F81015C0F304200A4A2F
:1065F000C1F3014152F8242002B190477600641C97
:10660000082CEAD3002D02DA684608F05BFCBDE8EE
:10661000F883000000600040602D002070B54FF44A
:106620008076304604F094FF114CB50560B13046D9
:1066300004F095FF0120C5F80803607920B9012016
:1066400060712168002088474FF48276304604F05C
:106650007FFF00280AD0304604F081FF0220C5F8F1
:1066600008032168BDE870400120084770BD0000A4
:106670006823002002490248091F0968006808478A
:10668000B823002006F07ABAF0B5D34AD3494FF0C8
:1066900080541368D4F830010978D4F83421451CAB
:1066A000C1F3031107D08446164601270025BCF12B
:1066B000060F04D013E003F0FF0C0E46F5E7032E9F
:1066C00005D0042E03D0052E01D0062E07D1B4F834
:1066D0002463DFF80CC3C6F30426CCF80060DEB2F6
:1066E000062E06D1032904D1DFF8FCC2BD4ECCF83A
:1066F0007460461C06D084464FEA0206BCF1060FC1
:1067000004D013E003F0FF0C0E46F7E7032E05D08C
:10671000042E03D0052E01D0062E07D1D4F84462F2
:10672000DFF8C8C2C6F34236CCF80060DEB2062EEF
:1067300008D1032906D1AE4ED6F800C02CF0807CDB
:10674000C6F800C0461C05D084461646BCF1060FAC
:1067500004D014E003F0FF0C0E46F7E7032E05D03B
:10676000042E03D0052E01D0062E08D14FF080460E
:10677000C6F80C51C6F810519C4E361F3560DEB27B
:10678000062E08D1032906D1DFF860C203260CF1DA
:10679000640CCCF80060DEB2062E11D103290FD1B3
:1067A000DFF850C20526CCF80060924E783637608C
:1067B000904E083635600CF1040C3F26CCF8006092
:1067C000461C05D084461646BCF1060F04D087E06F
:1067D00003F0FF0C0E46F7E7032E7CD0042E7FD08B
:1067E000052E01D0062E7BD1834E3668DFF80CC211
:1067F000CCF80060804E361D36680CF1040CCCF8E5
:1068000000607D4E083636680CF1040CCCF8006050
:10681000794E0C3636680CF1040CCCF80060764EDC
:10682000103636680CF1040CCCF80060724E143649
:1068300036680CF1040CCCF800606F4E18363668E0
:10684000DFF8B8C10CF1200CCCF800606A4E1C36A1
:1068500036680CF1040CCCF80060674E20363668C0
:106860000CF1040CCCF80060634E243636680CF151
:10687000040CCCF80060604E283636680CF1040C2D
:10688000CCF800605C4E2C3636680CF1040CCCF869
:106890000060594E30363668DFF860C10CF1400CAC
:1068A000CCF80060544E343636680CF1040CCCF849
:1068B0000060514E383636680CF1040CCCF800609C
:1068C0004D4E3C3636680CF1040CCCF800604A4E54
:1068D0004036366800E003E00CF1040CCCF80060B0
:1068E000461C05D084461646BCF1060F04D011E0C4
:1068F00003F0FF0C0E46F7E7032E05D0042E03D05D
:10690000052E01D0062E05D1D4F858423C4E04F095
:106910004F043460441C04D003461146062B02D0B9
:1069200010E0DBB2FAE7032905D0042903D00529DA
:1069300001D0062906D133490B68DB0702D06FF07E
:1069400001030B6006280CD1032A0AD0042A08D0C0
:10695000052A06D0062A04D12B48016841F480613B
:10696000016023487438016841F470010160BFF38D
:106970004F8FBFF36F8F4FF01021D1F80002002826
:1069800003DBD1F80402002822DA204A17602048ED
:106990000368002BFCD01523C1F800320468002CDA
:1069A000FCD0C1F8043201680029FCD015600168F0
:1069B0000029FCD0BFF34F8F0D48F0380168154A0D
:1069C00001F4E06111430160BFF34F8F00BFFDE7A9
:1069D000124911480860F0BDE00F00F0E80F00F028
:1069E000403501400DF0ADBA00C007403C05004005
:1069F000FCED00E0105600400404001020C50040EB
:106A0000E40E0040000400403C17004004E5014053
:106A100000E401400400FA050090D003782400202F
:106A200001480068004700007023002002E008C809
:106A3000121F08C1002AFAD170477047002001E0F8
:106A400001C1121F002AFBD170470000012120283C
:106A500003DA81400548014003E0402802DA20388B
:106A6000814009B10120704700207047FC06FFBD3E
:106A70002DE9F843804643F2020659B9694607F00A
:106A800031FCB04202D008B100F0ACF99DF8000032
:106A9000800744D40021404607F02EFC05003ED07C
:106AA000112D3CD01F482049401AC708022000EB96
:106AB00007440D2D0AD00B2D1DD0B5421FD11B4907
:106AC00020464246BDE8F84305F098BC20464246C1
:106AD000174905F093FC1321404676DF00281ED0AD
:106AE00006F0FEF8024601B020464346BDE8F043FA
:106AF00010A105F08ABC204642461C49E2E7284620
:106B000006F0EEF80246012000EB0740434618A1CC
:106B100005F07BFC2846BDE8F84300F063B9BDE80A
:106B2000F88300005C2E0300242E0300FC1E0300EB
:106B3000881E030073645F626C655F6761705F64E9
:106B40006973636F6E6E656374282920726574754E
:106B5000726E6564202573206F6E20636F6E6E5FAA
:106B600068616E646C652025642E0000481F030078
:106B7000417373657274696E672E20706D5F636F09
:106B80006E6E5F7365637572652829207265747512
:106B9000726E6564202573206F6E20636F6E6E5F6A
:106BA00068616E646C652025642E000010B560B1CC
:106BB00059B102780B785208B2EB530F05D1062277
:106BC000401C491CFFF77DFC08B1002010BD0120CE
:106BD00010BD800701D00020704701207047C368B6
:106BE0008B4206D811440069491E814201D8012018
:106BF00070470020704790F82400012801D01F2022
:106C00007047EE20704710B501220221002001F0EC
:106C10005DFC08B1072810D107220221012001F0F4
:106C200055FC08B1072808D100210A22084601F0C6
:106C30004DFC08B1072800D1002010BD10B5044656
:106C40002C21FFF72CFC012020714FF4967020615D
:106C500044F25060606110BD70B58CB015460E46B0
:106C600000236C46C3F10F01415CE1545B1C102B07
:106C7000F8D30D2104F11000FFF711FC0020C0F142
:106C80000F02315C2244401C11740328F7D368467C
:106C900046DF0020C0F10F01214491F82010295453
:106CA000401C0328F6D30CB070BD022001F018BBC5
:106CB0000149C97800F066BE3823002070B5002471
:106CC000064D06E06868012110F8340006F07CF8F3
:106CD000641C28788442F5D3002070BD78230020FE
:106CE000F8B516460C4605460A2A01D20720F8BD1B
:106CF00006F064F918B906F027F90028F7D1134F08
:106D0000102113487D603C70BE60FFF7C8FB002077
:106D1000C7E904000F4E0DE005EBC4003168009197
:106D200081788DF8011000780B4A694606F09CF8CE
:106D30000028DCD1641EE4B2EED2BDE8F84005487C
:106D40000021064A001D00F0A7B8000078230020AB
:106D5000302E002088130300999F0200918E0200BC
:106D600072B605F0F1FB00BF05F028FA0028FBD150
:106D700011481249401AC408012000EB044010A138
:106D800005F038FB11480068C00700D000BE0220A3
:106D900000EB04400EA105F02DFBBFF34F8F0B4815
:106DA000E43801680E4A01F4E06111430160BFF369
:106DB0004F8F00BFFDE70000CC2E0300242E030000
:106DC000466174616C206572726F7200F0ED00E0D4
:106DD00053797374656D20726573657400000000EB
:106DE0000400FA050EB500210091CDE901106A46B4
:106DF00044F20100FFF7B4FF0EBD000010B50228F9
:106E00000ED108480849401AC108032000EB014090
:106E1000044606A105F0EEFA204610A105F0EAFAB4
:106E2000012010BDCC2E0300242E0300506F776587
:106E300072206D616E6167656D656E742077616E3D
:106E4000747320746F20726573657420746F2044AE
:106E50004655206D6F64652E00000000506F776509
:106E600072206D616E6167656D656E7420616C6C1A
:106E70006F77656420746F20726573657420746F1A
:106E800020444655206D6F64652E0000014802F0D5
:106E900080B80000982300203AB1006801294261BF
:106EA00000D00021016100207047072070470000DA
:106EB00038B5114808235822416800910F490068ED
:106EC00004F0F1F8002815D10D4A69460D4802F08A
:106ED00065F804000ED101210A4802F0DAF8012316
:106EE000094A1946074802F02CF8064901200839DA
:106EF0000870204638BD000090130300502E00207B
:106F0000A5F5020098230020FFFF7F0070B504461E
:106F1000007F0D4608B1002070BDA26103F022F889
:106F2000401941F10001C4E90201206900B1256165
:106F30002146BDE87040002009F09ABB01460020C0
:106F40000877012009F094BB30B5EFF3108172B6D9
:106F50000D4A9468012324B10370002900D162B660
:106F600030BD93604FF0E023D3F88051074C2540AB
:106F70001560C3F88041D3F8844154605A17C3F8B0
:106F8000842100220270E8E7A82E0020FC06FFBD45
:106F90000B498A68002A11D000280FD1EFF3108026
:106FA00072B60B684FF0E022C2F800314B68C2F8AD
:106FB000043100228A60002800D162B670470000C8
:106FC000A82E00202DE9F041064608680C46411C19
:106FD0004FF0A0474FF0010506D005FA00F1C7F8C1
:106FE0000815206804F0A4FF6068411C02D000214D
:106FF00004F08CFF3168A069C1F82405607D227D12
:1070000031681043C1F86C05D4E900123068C0F84B
:107010001425C0F80C15207D012815D1A068411C4D
:1070200002D0002104F072FFE068411C05D08540C9
:10703000C7F80855E06804F07BFFD4E90212306815
:10704000C0F80825C0F81015BDE8F0812DE9F04121
:10705000064608680C46411C4FF0A0474FF001055A
:1070600006D005FA00F1C7F80815206804F06AFF99
:107070006068411C02D0002104F051FF3168A06912
:10708000C1F82405607D217D32680843C2F86C0593
:10709000D4E900123068C0F80C15C0F81425207D22
:1070A000012815D1A068411C02D0002104F037FF4F
:1070B000E068411C05D08540C7F80855E06804F039
:1070C00041FFD4E902123068C0F80825C0F8101555
:1070D000BDE8F08103F06CBC2DE9F04781460588DE
:1070E0004A484FF000088AB001784246284600F02E
:1070F00061FC99F80500400701D4002176E005F510
:107100008077B8B205AB0122072106F041FD0400EB
:107110003F48404A4FF00101A0EB02004FEAD00087
:1071200001EB00460AD0204605F0DAFD0246304663
:107130002B46394905F069F9214629E0284603F034
:10714000CBF94FF6FF71044688422BD18A46069848
:1071500003F02CF90446504510D00146284603F0B0
:107160009BF92846FFF7A4FDE0B9284608F0D0FCBB
:107170002846FFF79DFD0028BFD013E006F0DEFE95
:107180000446504508D1304624A105F033F90421C6
:10719000284608F0EBFCB0E70146284603F07CF9EE
:1071A0004FF00108B8B22246072106F069FD07003A
:1071B0001BD0862F1ED005F093FD024630462B468D
:1071C0002349009405F029F93946284608F0CEFCF9
:1071D0000021484606F0D4FBB8F1000F02D020464B
:1071E00003F064F90AB0BDE8F0870121484606F0D3
:1071F000C7FBF7E7142217496846FFF737F9ADF8E0
:107200000250684602F066F9EFE7000038230020DC
:10721000642E0300242E030044220300436F756C88
:1072200064206E6F7420616C6C6F63617465206E96
:10723000657720706565725F696420666F7220698A
:107240006E636F6D696E6720626F6E642E00000062
:1072500060230300101303002DE9FC470025178865
:107260000646158090F82D001446894630B13A46FE
:107270002146484600F0C4FB051E09D1B0784FF006
:107280000C0A18B32088C846001DB84202D95046DF
:10729000BDE8FC87684679DF0028F9D12088032102
:1072A00008F8001020881921401C80B2208008F8BE
:1072B00000102088401C80B2208000EB0801BDF83F
:1072C000000009F0A4FB218808442080F078022205
:1072D000C8B1218896F9033001F1030C4846BC453A
:1072E000D5D8425421884FF0010C491C89B2218025
:1072F00000F801C02188491C89B2218009F80130B9
:107300002088401C20807068B8B1218890F9003036
:1073100001F1030C4846BC45B9D8425421880A22E1
:10732000491C89B2218042542188491C89B221809C
:1073300009F801302088401C2080308950B1CDE907
:1073400000474B460622022106F1080009F04EFCD8
:10735000051E9DD1308A50B1CDE900474B4607222A
:10736000032106F1100009F041FC051E90D1308B7D
:1073700050B1CDE900474B461522142106F1180003
:1073800009F034FC051E83D1306A30B13B462246F9
:10739000494601F030FC051EDBD1706A30B13B4636
:1073A0002246494603F05AFD051ED2D196F82C001C
:1073B00038B13B4622464946304608F013FD051ECB
:1073C000C7D1307838B13B4622464946304603F0B3
:1073D000D3FD051EBDD128465AE718B50446002046
:1073E000ADF8000013466A46204600F006F8002873
:1073F00002D0BDF80000204418BD70B5E0B1DAB18C
:10740000002402E0045D2C44A4B2651C8D4206D227
:107410001688A642F6D8061976789E42F2D18C429A
:107420000AD2A31C005D9BB200B1401E0004000CF8
:1074300002D01C188C4201D9002070BD138070BD91
:1074400080F8301070472DE9F0410D00044606D059
:107450002CB195F87A000026012803D006E00E2012
:10746000BDE8F08195F89800012829D0D5F8A00052
:10747000042825D0D5F89C00042821D04FF001081D
:10748000A6702C2205F17801201DFEF7EFFF84F88D
:107490003060D5F8A4006063D5F8A800A0634FF66B
:1074A000FF70A4F8240404F58260C4F82004C4F832
:1074B0002664A4F82A6484F82C64207810B104E0CF
:1074C0000720CDE7FF2084F8540004F1550720463B
:1074D000C4F81074FFF78FFBA4F8140404F21442EC
:1074E00039462846FFF7B8FE0028B9D104F231200A
:1074F000C4F818042046FFF77EFBA4F81C0404F22D
:107500001C4205F13C00D4F81814FFF7A5FE002832
:10751000A6D184F85180208BA4F8480084F83C80E0
:10752000266484F85060606900216064454604F177
:107530003C02781E72DF002892D1257090E72C2241
:10754000001DFEF793BF10B50288102A1BD0112A28
:1075500020D0262A1DD1007A0C46012801D002280D
:1075600017D1A0780521401CB0FBF1F201FB1201FC
:10757000204600F03AF800280BD0A16B002908D073
:10758000BDE810400847C27B012A02D18088A1F8DB
:10759000240410BD0C46002184F82E148088B4F811
:1075A00024148842F5D120790028F2D10121DFE7A7
:1075B00010B5044690F8540074DF012084F82E04BE
:1075C000002084F8300484F850000621204602F0A0
:1075D000BAF9002808D1A178204600F006F810B1C9
:1075E000A16B01B18847002010BD2DE9F05F044672
:1075F00000780F4698B1A7700025C4F82654A4F867
:107600002A5484F82C54A079012608B1012F09D0FE
:10761000E07980B1012F05D0022F03D00BE00820C4
:10762000BDE8F09F616B21B184F82D640820884784
:1076300001E084F82D5404F2274100200A5C0AB1CD
:10764000304603E0401C0628F8D300204FF0020823
:107650004FF0030B012F06D0022F0CD0032F0FD0B9
:10766000042F15D110E0A17929B194F8241011B993
:1076700008B130460DE0E17911B108B1404608E0AB
:10768000207A08B1584604E0607A08B1042000E08E
:107690002846A070616B41B1032801D0042804D1B1
:1076A000607910B194F82E0498B184F82F5404F145
:1076B0003C0018210746FEF7F2FE84F83C6004F116
:1076C0002C0006F06DFD58B194F82C0084F85100A0
:1076D00008E084F8305484F82F6407208847E6E7F0
:1076E00084F8516094F8240058B104F1280006F0A1
:1076F00057FD20B194F8280084F8520001E084F886
:10770000526084F85050A27804F2264104F5826950
:107710004FF0060A052A64D2DFE802F07C030F224C
:10772000420084F83160C4F82054C4E9101584F88C
:107730003C808020A4F8480055E084F8318094F81B
:107740002420384612B10722027001E080F800B010
:10775000228A8281C4F820544160E168B96042E025
:107760006069B860208BB88194F824003D460028F9
:10777000204602D084F83CA001E084F83C6009F087
:1077800001FA50B185F814800421204602F0DBF89C
:1077900038BB052184F8311021E084F831B01EE0B7
:1077A000E069B860208CB88194F824003D46002838
:1077B000204602D084F83CA001E084F83C6009F047
:1077C000E1F948B185F814800421204602F0BBF8A5
:1077D00038B984F831A002E0042084F83100C4F8FC
:1077E0002094A07878B13A4604F15400D4F82014DB
:1077F00072DF00287FF414AF94F8301094F854002E
:1078000073DF0028F6D1616B11B194F8310088471D
:10781000002005E784F83150F5E7000070B504005A
:1078200012D001461C221448FEF720FE1248134DC8
:107830000560206850B17ADF002806D12068016811
:1078400029604068686005E00E2070BD0B487BDF52
:107850000028FAD108484FF6FF711438084A20F87A
:10786000041B0549343901600021FFF715FB00288E
:10787000EBD0032070BD00008C2900209022002056
:107880001D0B030010B5044600F0B0F8002805D029
:107890002146BDE81040024803F084BC10BD000042
:1078A000B82900200346034880680A46194602F0BA
:1078B00077B80000A829002070B515460E4604468A
:1078C00009F06CF9002809D0054800EB8400C06974
:1078D0002A463146BDE8704002F062B870BD000033
:1078E000A829002010B5044600F080F8002805D033
:1078F0002146BDE81040024803F054BC10BD000012
:10790000C029002010B5044600F070F8002805D00A
:107910002146BDE81040024803F044BC10BD000001
:10792000BC29002070B50546002400F05FF838B18E
:107930002946044803F036FC08B1022400E0012483
:10794000204670BDB429002070B50546002400F023
:107950004DF838B12946044803F024FC08B102244C
:1079600000E00124204670BDB029002010B5182188
:10797000034803F0F2FB182800D0C0B210BD00008D
:10798000A829002070B505460C46084609F006F9FE
:1079900060B1284600F02AF840B10548294600EBBE
:1079A0008400BDE870401C3003F0FCBB002070BDBB
:1079B000A829002070B5054616460C46084609F071
:1079C000EDF800280ED0284600F010F8002809D065
:1079D0000548324600EB84002946BDE870401C3063
:1079E00001F0ACBF70BD0000A8290020142801D30D
:1079F000002070470146014803F0D4BBAC290020A9
:107A00007CB5054608880C460930904201D90C2007
:107A10007CBD68466DDF0028FAD1218808206854B3
:107A200020881B21401C80B2208029542088401CC3
:107A300080B220802844DDF801100160BDF80510F7
:107A400081802088801D80B220809DF80010490828
:107A500000D0012129542088401C208000207CBDBA
:107A600010B503F085FD002809D105484FF0030C3F
:107A700000DF002803D1BDE8104003F0E7BD10BDD2
:107A8000242D002018B103490860002070470E2003
:107A9000704700005823002010B54FF0FF31002040
:107AA0003DDF00280BD1B1213CDF002807D104487D
:107AB000416901208847022004F06EFE002010BDBD
:107AC000082D0020044810B500684169002088474F
:107AD000BDE81040FFF7E0BF5823002010B588B084
:107AE000044620216846FEF7DAFC0320ADF80000CA
:107AF00020788DF802009DF80D00172140F0280035
:107B00008DF80D0001208DF810008DF81300ADF8F0
:107B100004108DF812008DF80C008DF811006088AB
:107B2000A21D694600F032FF08B010BD10B5184C18
:107B300086B01ECC8DE81E0048B1164C4FF6FF7182
:107B4000A180006800216061217618B104E00E2058
:107B500006B010BD104860610E48FFF793FF002883
:107B6000F6D101208DF812004FF65960ADF81000E3
:107B7000A21C04A90120A8DF0028E9D10549684614
:107B800062DF0028E4D10348FFF7A8FFE0E7000028
:107B90006C130300082D00209191020010B50028FD
:107BA00023D003881C4C102B17D02146112B8A8818
:107BB00015D0C988512B19D0532B16D1C0888842B3
:107BC00013D1207E002810D0FFF77CFF00280CD0B6
:107BD0006169BDE8104002200847808804E0808881
:107BE000824202D14FF6FF70A08010BD838893427D
:107BF000FBD110F8062F022AF7D142888A42F4D12D
:107C0000017A0429F1D00629EFD00529EDD0BDE88D
:107C10001040801C05F0DABC082D00202DE9F04151
:107C20000546007B042601272E4C012811D002288E
:107C30002CD00226287B314600F08EF818B120683F
:107C4000416903208847206841690220BDE8F0416E
:107C5000084720684FF00008417E49B10621012005
:107C600000F07AF800283BD0206841690320EDE756
:107C700007760121084600F06FF8002830D022680E
:107C8000112882F81880D5D10626D3E76A7B142AFA
:107C900022D80AB3DFF8508005F10E0108F1040084
:107CA000FEF7E4FB697BC8F8181021684046497E5E
:107CB0000029BFD1A0F10C010A68011F904768B1EB
:107CC0000F28B7D109480A49401AC00807EB0040FD
:107CD000084904F08FFBADE70526ABE7206847763F
:107CE000BDE8F08158230020302D0020CC2E030069
:107CF000242E03009825030070B5154900250A6855
:107D0000002A24D04A68002A21D008319047082848
:107D10001DD0104C0028206845760ED00621022088
:107D200000F01AF818B120684169032088472068DC
:107D300041690220BDE8704008470121022000F09F
:107D40000BF8002803D0206841690320F2E770BDDA
:107D5000242D00205823002086B00323ADF80030E6
:107D600020238DF814308DF8150000220E48019262
:107D700002928DF81610C188ADF8041002218DF81A
:107D8000061005A90491ADF80820CDF80CD0808824
:107D900001A9AEDF002804D1BDF80010032900D0EE
:107DA0000C2006B070470000082D002030B51F4998
:107DB0001F4B01250322C91AC9088BB002EB0144ED
:107DC00078B1012825D0194A1946511AC90801224B
:107DD00002EB014202281FD0032810461FD015A134
:107DE0001EE020461DA104F005FB6846FEF726FFB5
:107DF0008DF8005069462548FFF7A1FB0021244873
:107E0000FFF750FD0246204622A104F0F7FA0BB01E
:107E100030BD204625A103E010462DA100E03BA186
:107E20000BB0BDE8304004F0E5BA0000CC2E0300F2
:107E3000242E0300556E6B6E6F776E206576656E2F
:107E4000742066726F6D20626C655F6466755F6238
:107E50007574746F6E6C6573732E0000446576697B
:107E6000636520697320707265706172696E672046
:107E7000746F20656E74657220626F6F746C6F61D1
:107E8000646572206D6F64652E000000B0240020D0
:107E9000D98E0200446973636F6E6E6563746564A6
:107EA000202564206C696E6B732E00004465766932
:107EB00063652077696C6C20656E74657220626FF3
:107EC0006F746C6F61646572206D6F64652E000065
:107ED0005265717565737420746F20656E74657278
:107EE00020626F6F746C6F61646572206D6F646582
:107EF000206661696C6564206173796E6368726F76
:107F00006E656F75736C792E000000005265717597
:107F100065737420746F2073656E642061207265D0
:107F200073706F6E736520746F20636C69656E7417
:107F3000206661696C65642E0000000038B5044657
:107F4000008821281CD013DC102822D1072000F043
:107F5000DFFA08B1FEF746FF1048A18801801048FB
:107F600003F07EFA002814D0BDE83840FEF73ABF8F
:107F70003B280FD056280CD1A088132176DFF1E7DB
:107F800000200090A08869468FDF002801D0FEF70E
:107F900029FF38BDA088132176DFE3E77022002097
:107FA000A424002010B51A4C0188606810290ED056
:107FB00011292BD1401E606028D1FEF724FE002835
:107FC00024D02168002921D0BDE810400847D0B94D
:107FD00000210122084600F079FA08B107280FD1E4
:107FE00007220221012000F071FA08B1072807D109
:107FF00004220221002000F069FA20B1072802D0F3
:10800000216801B188476068401C606010BD0000B5
:10801000882200202DE9F04701883B4E40F2F319F9
:108020004FF6FF7510291BD011293ED0122954D0CC
:10803000502946D1C188F289841D914241D161897C
:1080400002293ED18688304602F0F4FA050038D085
:1080500004F10C0000F000F9A8B3294630464EE0C8
:10806000C17B8788044601292BD1A846284602F007
:10807000E1FA050017D02F800020287223484346DC
:108080004A460168C5F80A104068C5F80E0004F1B8
:10809000100105F10A0002F091FB6872F0890028D6
:1080A0000FD129462AE0042013E0808802F0C2FAAA
:1080B000040006D06068FEF741FF08B107F03AFD02
:1080C0002580BDE8F087FFE76868FEF737FF0028E6
:1080D000F7D0BDE8F04707F02DBD87880646384643
:1080E00002F0A8FA0400ECD02B464A4606F108013B
:1080F00004F10A0002F062FB607221463846BDE8D6
:10810000F04700F0BFBD00008C2900209022002025
:108110002DE9F04F044686880188424897B083468F
:1081200010290CD0112950D0103019296AD01A29E1
:1081300074D1217A0C09042C4DD301224CE0394D25
:10814000083DA868C0430B9069680BA803F04EF87F
:108150000B990CA800F030FD2C220CA96846FEF704
:1081600085F90027E946A84610E000BF09EB470063
:108170005FF00005B0F804A008EB85005146001D33
:1081800002F0D0FF6D1C1E2DF6D37F1C0098B84264
:10819000ECD8142E05D317B00420BDE8F04FFEF73D
:1081A00021BE3146584603F008F8314608F1040074
:1081B00003F003F8E07B022830D117B03146BDE868
:1081C000F04F1848001D02F0F8BF17B03146BDE867
:1081D000F04F02F0A7BF0022314601F0AFFB032CA5
:1081E00001D3012200E000220E4831460C3001F09C
:1081F000A5FB022C01D3012200E0002209483146F0
:10820000083006E0217A002908D1617AC1F3C00262
:10821000314617B0BDE8F04F01F090BB17B0BDE894
:10822000F08F0000B029002010B504460748007800
:1082300000280AD0204602F02BF8204607F082FEE4
:108240002046BDE8104001F0C9BC10BDC822002086
:108250000078C0F340007047007800F001007047DC
:108260000149085C70470000A81103000649095C39
:108270004FF0A040D0F81005C84010F0010000D029
:10828000012080F001007047A81103002DE9FC4196
:108290000646C0074FF000050ED0104F0024012203
:1082A000385D009500231146019503F0D5FD641C4F
:1082B000042CF4D300F046F8B0070DD5074E002487
:1082C000361D0022305D032300951146019503F011
:1082D000C3FD641C042CF4D3BDE8FC81A41103008D
:1082E00007490B5C4FF0A041D1F8042501209840CC
:1082F00020EA0203C1F808351040C1F80C057047A8
:10830000A41103000249085C012103F05CBE0000D7
:10831000A41103000249085C002103F054BE0000D0
:10832000A41103000649095C4FF0A040D0F80405F1
:10833000C84010F0010000D0012080F0010070471B
:10834000A411030010B500242046FFF7DBFF641CD6
:10835000042CF9D310BD10B500242046FFF7DAFF36
:10836000641C042CF9D310BD10B50246064B4FF027
:10837000FF3000215C5C944201D1084610BD491CCD
:108380000429F7D310BD0000A811030070B50C4EEE
:108390000C004FF0000530600BD0012000F06AF8AF
:1083A00008B1022004E0002000F064F800B10B20C6
:1083B0002070706810B9FEF726FC0546284670BD8F
:1083C0008822002010B5002000F0DCF908B1062852
:1083D00006D1012000F0D6F908B1062800D100200E
:1083E00010BD00002DE9F0470D468146FFF7BCFFA8
:1083F0000446042836D2DFF874801B481C4EA8F1CE
:108400000C0725B3012D0ED0022D2BD104EB440017
:1084100030444578002D25D0B968002922D028465F
:10842000BDE8F047084704EB4401755C0E447178E1
:1084300049B10E4A4FF48041093A8068FEF766FD63
:1084400008B987F80390B17808F80410E2E780686B
:10845000FEF774FD04EB4401314418F804008D78F4
:10846000A842D7D0BDE8F087AC11030084220020D9
:1084700028290020042801D2FFF7F8BE0020704709
:108480000146104810B50088042907D007290ED0EE
:108490000A2915D1BDE8104007F03EBD132176DF53
:1084A0000CE000280CD0BDE81040FEF79BBCA0F506
:1084B0007F41FF3904D10448FFF77AF80828F0D14A
:1084C00010BD000070220020B024002070B50023F1
:1084D000042810D20D4D00EB4004012A02D10129DD
:1084E0000CD00022094E00EB4000304461B101295C
:1084F00006D0022906D00723184670BD0E30C2B23E
:108500002A55F9E74270F7E78270F5E7282900203D
:10851000044A014600201279D20702D0084600F032
:108520004DB870477822002070B506461E480024DA
:10853000C0E90161B00720D5002501221146284677
:10854000FFF7C4FF6D1C0446042D02D2002CF4D0AA
:1085500013E094B940F2333204211448FEF7C0FB13
:1085600004000AD1FEF7AAFB040006D10F48104A06
:108570000021001FFEF790FC0446F00712D00120F6
:10858000FFF784FE74B909480A4A00210C38FEF747
:1085900083FC040006D10548074A01210838FEF78C
:1085A0007BFC0446204670BD78220020B8110300F1
:1085B0009188020051A80200AB6C02002DE9F05F27
:1085C0006E4C054600266078B34618B184F801B0B9
:1085D00002F026F96A4F4FF47A694FF4C87A4FF0E7
:1085E0000108182D69D2DFE805F00C131338475441
:1085F000696E727B727BC58484848484B3B6B9BC93
:10860000C5C502F00DF93868FEF798FC06465CE037
:108610000020FFF787FE00284FF0000008D0FFF78A
:1086200071FE022D02D14FF4E16008E0484606E0F9
:10863000FFF770FE022D01D1C82000E05046410C2A
:10864000C0034FF47A72801841F100012570520086
:108650000023FDF7C7FE01462AE00020FFF762FE77
:1086600000284FF0000004D0FFF74CFE4FF4487094
:10867000E5E7FFF74FFEDFE70020FFF753FE002896
:108680004FF0000002D0FFF73DFECFE7FFF742FEBC
:10869000D4E70020FFF746FE00284FF0000002D08C
:1086A000FFF730FE01E0FFF735FE257040F6CD41C3
:1086B00000223868FEF72AFC064646E00020FFF755
:1086C0000FFE257008E0002051E025703DE084F8A1
:1086D00001800120FFF704FE002240F26661E8E716
:1086E00084F801800120FFF7FBFD00224FF40051C8
:1086F000DFE77868FEF722FC0646D5F1110000D0CE
:108700002EB10220FFF7FEFD84F802B01DE0012823
:1087100016D980B2C8214843C117C90341EA504164
:10872000C0034FF47A72801841F100015200002317
:10873000FDF758FE014600227868FEF7E7FB064683
:108740000220FFF7E7FD84F802803046BDE8F09F85
:1087500002F066F8B9E702F063F8B4E702F060F8F7
:1087600004E002F05DF80020FFF7D4FD0120FFF7E0
:10877000D1FDAAE7FFF7EFFDA7E700007822002070
:10878000AC110300012108F098BA00002DE9F84F60
:108790000546861C00208DF8000091460F464FF0DC
:1087A000010A6846FEF7D0FB1B4C04F21C486068C7
:1087B0003860D4E90101194F401A3968081A0EE0EF
:1087C0000121404602F00CFD02F0D4F9014640467A
:1087D00002F006FDD4E90101401A3968081A401C6C
:1087E0008642EDD8B9F1000F03D0052065F389105A
:1087F00002E0062065F39F5061683A68114004EB7F
:108800008101C8606068304460609DF80000FEF738
:10881000BFFB5046BDE8F88F1C320020202400200A
:1088200070B50D4604460A2902D10D21FFF7F8FF65
:10883000A0682268411CA1601554D4E9010181425D
:1088400004D32046BDE8704002F0CBBF70BD0000ED
:10885000044881684068814201D1012070470020AE
:10886000704700001C320020034630B50748002145
:108870000478426806E000BF02EBC10005789D4223
:1088800003D0491CA142F7DB002030BD7823002033
:1088900000780221FFF7A6BD032805D10349A920CE
:1088A0000860002003F078BF7047000020050040FA
:1088B0001CB5044601F010FE00236A46092105F0AC
:1088C000A9FA052805D10348012241792046FFF77E
:1088D00071F81CBD982200201CB5044600200090B1
:1088E00042F6A620ADF8000001208DF802000848ED
:1088F00001AA6946006801902046A0DF002805D142
:108900000448012281792046FFF754F81CBD00007D
:10891000D81103009822002005494FF0FF320828A3
:1089200041F8202002D3084480F848207047000016
:10893000602D0020F0B54FF0FF3512B1002308265E
:1089400001E008230C260C4C05E000BF54F823700E
:108950007F1C04D05B1CB342F8D32846F0BD261818
:108960005DB286F8305044F82310002AF5D1E118A2
:1089700081F84800F1E70000602D0020024908441A
:1089800090F9300070470000602D00202DE9F04381
:108990008146887891B090460C4600B901208DF848
:1089A0003E002088ADF83C0000250095607C6946BB
:1089B00007F05CFA6E46A07C711C07F057FAE07B6A
:1089C00000289DF8020002D040F0080001E020F0ED
:1089D00008008DF80200217C11B140F0100001E088
:1089E00020F010008DF80200217B11B140F0010051
:1089F00001E020F001008DF80200217D09B1022183
:108A000000E0012161F342008DF802001C2102A860
:108A1000FDF745FD607BC10601D4800617D50E9594
:108A20000EAFE07C791C07F021FA9DF8380007971B
:108A300020F00F00401C20F0F00010308DF83800BE
:108A40009DF83A0020F00600801C8DF83A00607B0B
:108A50008DF80800A07B8DF80900142109A8FDF706
:108A60001EFD0FA8CDE90906A088ADF83000A0686A
:108A700020B1E088ADF82C00A0680D90A06998B3F3
:108A800001950088ADF81000A06901AD01A94088EA
:108A9000ADF81200A069406806950390A069007BBC
:108AA00007F0E4F9A069691C407B07F0DFF9A069D1
:108AB000807A00289DF8060002D040F0080001E00E
:108AC00020F008008DF80600A169C97A11B140F0C4
:108AD000100001E020F010008DF80600A169097A6D
:108AE00019B140F0010002E00DE020F001008DF826
:108AF0000600A169897B09B1022100E0012161F32F
:108B000042008DF80600E06900B10590434609AACD
:108B100002A94846AADF11B0BDE8F08370B504464B
:108B20004FF6FF750A462846AC4209D14FF48074CF
:108B30002146104602F011FB80B2A0420BD070BD5E
:108B4000FF2CFCD82146104602F0F7FA90F0010FF6
:108B500001D0204670BD284670BD000070B5084C9D
:108B6000050009D010342168002907D0086820606A
:108B7000496828468847F6E70834F4E770BD0000E6
:108B80004C2D0020054A012120B1012805D191700A
:108B9000FFF7E4BF51700020FAE770474C2D00202A
:108BA00010B5D0E90234D1E90220D11AA04101D395
:108BB000012010BD002010BD73B58CB0064600200A
:108BC00000900D9880B100246D4621460DA802F05A
:108BD000E9FA30B1009805EB400084800098401C11
:108BE0000090641C142CF0D32C2269463046FDF70B
:108BF0003DFC0EB070BD2DE9F04117880646B81D4A
:108C000014460D46984202D90C20BDE8F081318807
:108C1000072206290AD34FF4486C4FF6FF736145CB
:108C200001D9994202D17088062801D21046ECE79A
:108C3000604501D99842F9D1994203D0984201D0B8
:108C40008142F3D80520E85520881221401C80B2CB
:108C5000208029542088401C80B22080411930880F
:108C600007F0D5FE2188084480B220804119708821
:108C700007F0CDFE2188084420800020C5E7FEF7DC
:108C8000B1B8000038B54A7A0F4B62B100220A72BF
:108C90005969002906D001228DF80020ADF80200A4
:108CA0006846884738BD0A7A62B19B684C680246BC
:108CB00019462046FEF72AF90028F3D0BDE83840CF
:108CC00006F038BF5B68F1E78C290020F0B585B06D
:108CD00016460F4604461D4614220B496846FDF70A
:108CE000C5FB0A488DF80870ADF80240ADF80A607F
:108CF0008DF80C50017800222046FEF75BFE684696
:108D000000F0E8FB05B0F0BD241303003823002079
:108D1000FDF7AEBE70B588B00646002005900690FF
:108D2000ADF81410ADF816100190029001AA05A933
:108D3000304690DF050021D003F0D2FF03461148F2
:108D400011493246401AC108012000EB0140044697
:108D50000E4903F05AFBBDF8042012B9BDF8060015
:108D600028B1BDF80630204609A103F04EFBBDF83E
:108D700008201AB12046164903F040FB08B02846E7
:108D800070BD00003C2E0300242E0300BC1A03001B
:108D900054686520726571756573746564205458F4
:108DA0002F5258207061636B6574206C656E677418
:108DB0006820697320746F6F206C6F6E6720627912
:108DC0002025752F2575206F63746574732E000040
:108DD000081B030070B504460948012102F01BFA84
:108DE000BFF35F8F0025002808D1204601F03CFE2C
:108DF000002803D1BFF35F8F0148056070BD0000FC
:108E0000A42200202DE9FF410C4620B14FF406407A
:108E100004B0BDE8F0812079002748F2096538B137
:108E200041F61D5601281BD0022826D0681DEFE709
:108E30000220207102970397E0680190694601A81B
:108E400006F0C6FA50B102988188E180008820813E
:108E5000BDF80010029806F039FBD9E72846D7E79D
:108E60000A4B6A460021A01D06F06AFA38B107498C
:108E700018398F61CF61A842CAD13046C8E703488C
:108E80008188019806F022FBF5E70000D823002036
:108E900070B500240F4D10E0686800EBC406307810
:108EA00004F048F87178012901D0012100E0002187
:108EB0004140307800F062FA641C28788442EBDB91
:108EC000D5E90401084303D0BDE8704007F0ECBBCE
:108ED00070BD00007823002030B40446132176DFF3
:108EE00003000BD0064807492246401AC008022159
:108EF00001EB004030BC044903F087BA30BC704736
:108F0000CC2E0300242E03003817030010B50021D7
:108F1000024802F080F980F3100010BD38360020BE
:108F20004FF480328A400168C1F848230068C0F8D5
:108F3000082370474FF4A07202EB810189B200F060
:108F40008DBA2DE9F04105460E464FF4A07000EBB6
:108F5000860081B228684FF48034B440984622F0ED
:108F60007F47C0F808432868C0F84843286803F0E2
:108F70004BFC286800EB8600C0F840752868C0F8F4
:108F80004443B8F1000F02D02868C0F80443BDE89C
:108F9000F0810068D0F804057047000070B543798F
:108FA000234C44F823204279231D03EBC202224CB8
:108FB0001579204A121BD4082DB10825022000EB98
:108FC00004401EA130E005680A88C5F8082590F91C
:108FD00004208978002A4FEA411104DB02F1E022E3
:108FE00082F8001405E002F00F0202F1E02282F89C
:108FF000141D90F904100122002909DB01F01F055E
:1090000002FA05F54909890001F1E021C1F8005192
:109010004179002503EBC1010A71417943F8310020
:10902000032000EB04400EA103F0E4F9284670BDD4
:10903000B4230020AC2E0300242E030052544320FE
:10904000696E7374616E636520616C7265616479C9
:1090500020696E697469616C697A65642E0000002C
:109060005254433A20696E697469616C697A656427
:109070002E00000090F90400002809DB00F01F0218
:10908000012191404009800000F1E020C0F8001269
:1090900070470A46022100F067B94FF4827100F070
:1090A000DDB900680121016070470068012141605D
:1090B00070472DE9F05F07460C464FF4A07000EBB7
:1090C00084001FFA80FA38684FF48036A6409B4629
:1090D00022F07F45C0F848633868C0F808633868F4
:1090E000D0F8048500EB8402D2F84095C2F84085A0
:1090F0005146386803F088FBA9EB080020F07F4058
:10910000012806D1102003F057FE5146386803F0BD
:109110007BFB3868D0F80485C0F84463A5EB0801F0
:1091200021F07F413868012900EB840010D0C0F89D
:1091300040553868D0F804156FF07F4C6A1A521EFB
:1091400022F07F42ACEB0B03934217D362B118E0DD
:109150006D1CC0F84055102003F02EFE3868D0F882
:10916000040540450AD10CE000EB84006D1CC0F8FA
:1091700040553868D0F80405884202D00D20BDE87B
:10918000F09F01223146384600F0EEF80020F6E765
:10919000704713460A460021FFF798BD2DE9F843B2
:1091A000104D0F4680461E4691466946286801F0DC
:1091B0008DFF040014D01C21FDF771F901202071EE
:1091C000C4F81490380BC4F80080C4E90260694602
:1091D000286801F09CFF06F01DF80020BDE8F88328
:1091E0000420FBE74014030010B503780022072B8E
:1091F00006D2DFE803F005040610202930000A70CB
:1092000010BD01230B7003898B818388CB81C068DB
:1092100088600A7410BD02220A7002898A818288DD
:10922000CA81C2688A60807D062802D00020087446
:1092300010BD0120FBE703220A70C2888A810289DF
:10924000CA81C068886010BD04230B70C088888103
:10925000CA818A6010BD0520087010BD70B5064D2A
:109260000646002455F8241009B130468847641C8E
:10927000042CF7D370BD0000D02E002030B504467A
:10928000006887B00D46806800281FD01821684606
:10929000FDF705F90195A0680590207910B1012826
:1092A00010D107E001208DF8000020690290E068ED
:1092B000039005E002208DF80000E06800030290B2
:1092C00060690490206881686846884707B030BDAF
:1092D000F0B585B017460C0005463AD0112C38D0B1
:1092E000082C36D01C481D49401AC6080D2C11D038
:1092F000204603F0F5FC0246012000EB06402B4619
:10930000174903F082F82A460721684601F092FEC9
:1093100002941BE0022000EB06402A46114903F0AC
:109320006DF82A460321684601F084FE27B138789B
:10933000C00701D0012000E002208DF808000020C5
:109340008DF80C0041F20110ADF80A00684600F0FB
:10935000CFF805B0F0BD00006C2E0300242E0300F2
:109360002C2503001C2403000368C3F84413002ABF
:1093700002D00068C0F80413704700002DE9F84FD0
:109380000E463449804601EB5001C007097801D0F0
:109390000F0901E001F00F074FF0000942460120DC
:1093A0004946FDF750F8DFF8B0A004460D46052FFA
:1093B0004ED2DFE807F003161B282C00002E47D002
:1093C0000121404607F054F88DF800906846FDF7FB
:1093D000BBFD5046D0E904120C431543CAE90445CD
:1093E00032E00EB1022114E0002112E04EB103215F
:1093F000404607F03DF84046BDE8F84F012107F030
:10940000E5BB012105E0002E22D1042101E02EB1AF
:1094100003214046BDE8F84F07F02AB80021404636
:1094200007F026F80021404607F0D0FB8DF80090A9
:109430006846FDF789FD5046E243D0E904341A40FE
:1094400024EA0501CAE904219DF80000FDF7A0FD0A
:10945000BDE8F88F302E00207823002010B500687A
:1094600042581AB103F0D0F9012010BD002010BD00
:1094700010B50446408801F02FF8A080024801682A
:109480002046BDE810400847A022002010B5044641
:10949000808800F06BFF6080024801682046BDE8CC
:1094A00010400847B02200202DE9F0410746002473
:1094B000064E074D05E000BF56F824103846884791
:1094C000641CE8788442F7DBBDE8F081BC2C002006
:1094D000C822002010B50446408800F0FDFFA0809F
:1094E000024801682046BDE810400847E412030026
:1094F00001490968084700006013030070B586B091
:10950000044614216846FCF7CAFFA0890125A0F58E
:109510004040ADF8040020782F4E062833D2DFE813
:1095200000F0320303032C4AA08900F0EBF930B9B4
:10953000E08943F6FE71A0F54040884223D8A07B25
:109540008DF80800207803280FD000208DF809003E
:10955000A0680390606850B109208DF80000606831
:109560000490684604F0A8FB0DE00120EEE7082017
:109570008DF800008DF81050F3E7A08900F0C2F9D3
:1095800008B1E08930B17078002801D004F0E8FC1F
:1095900006B070BD606830B10B208DF800006068C7
:1095A00002907570DDE70A208DF80000BDF8040018
:1095B00004F07AFDF5E7606848B114208DF80000EA
:1095C000606802904FF6FF70ADF80400C9E7132001
:1095D0008DF80000F6E70000B422002038B50446FC
:1095E0000F480078B0B1A4F57F40FF380FD068462F
:1095F00005F040FD88B10521017001210171C48091
:10960000684605F045FD05F0F7FD002038BD48F23D
:10961000036038BD48F2016038BD48F2076038BDCC
:10962000E02300200D4808B5007888B1684605F0B1
:1096300021FD80B106210170684605F029FD08482A
:10964000017809B10121017305F0D6FD002008BDA4
:1096500048F2016008BD48F2076008BDE023002021
:10966000942F0020F0B587B014216846FCF717FF4F
:10967000304C207818B16846FFF7F0FD57E0201D08
:1096800001F0ABFD98BB40F6F8700168481C02D1B0
:109690004FF0102041694FF08050026940694B1C27
:1096A00001D100FB02F1244800220161A1F54051E3
:1096B000C160224902F02AFA002823D121481C2344
:1096C0008C221F49006801F0EEFC04F081F80500CF
:1096D00016D0022D14D000270126062D14D005A87F
:1096E00005F0C8FC98B106700C2D1BD200E01EE0FE
:1096F000DFE805F0181018101817181718121412B0
:1097000048F20A6007B0F0BD26706760B3E748F220
:109710000760F7E7077105E0032100E0022101710E
:1097200000E0067105A805F0B3FC05F065FD00201A
:10973000E8E70000E02300207C2400205014030010
:10974000E02E0020B813030038B5040014D0694699
:1097500005F03EFEB0B1BDF8000000EB80010B4803
:1097600000EB8100C16851B1A17A41B1C168491EC5
:10977000C1600020A07238BD48F2046038BD48F2D4
:10978000056038BD48F2096038BD00006C2F00202C
:109790001FB501A9684605F0D3FD04B010BD07B59B
:1097A00013460A466946002005F0CAFD0EBD07B5FE
:1097B00013460A460021684605F0C2FD0EBD20B1E1
:1097C00019B1006808600020704748F204607047D3
:1097D000F8B50D46040018D0BDB1694605F0F8FD96
:1097E000B0B1BDF800000C4900EB800001EB800037
:1097F00001210C30666801F0F3FC2E6060680C30CB
:1098000068600120A0720020F8BD48F20460F8BD35
:1098100048F20960F8BD00006C2F002018B1032346
:10982000002207F08DBB48F204607047022300223B
:1098300007F086BB094910B50A69042A0AD0084A0C
:10984000096942F8210005480121103001F0C8FCE7
:10985000002010BD48F20B6010BD0000C0230020A6
:10986000D02E00202DE9F84F044624480078D8B1C6
:10987000F4B112212046FCF712FE0320DFF880909D
:109880002080002504F1100804F10E0A05EB850183
:1098900009EB810630897189084487B2706803F04A
:1098A00021FF032807D009E048F20160BDE8F88FE6
:1098B00048F20460FAE72088401E20806088F16842
:1098C0000844608020897189084420816089384477
:1098D0006081C7F58060A18980B2814200D2A081F9
:1098E0005346A21D211D2846CDF8008005F00CFE30
:1098F0006D1CADB2022DC9D30020D7E7E0230020B4
:109900006C2F002043F6FE71A0F54040884201D83C
:10991000012070470020704710B5044600781828D1
:1099200002D1FEF723F8207010BD10B50446007870
:10993000182802D1FEF71AF8207010BD0AB101F004
:109940003CBC01F0EFBB70B50D460446B0F81414F2
:10995000D0F810040122FDF740FD00B1057004F1BC
:109960003C0204F5826104F1540072DF70BD000016
:1099700070B5134600220546112900D10122074C7B
:1099800033B12179FEF716F800226178284600E00D
:109990006178BDE87040FEF70DB80000402300205C
:1099A000F7B517460E0011D00098002560B10024CD
:1099B0002146684601F0F6FB18B1A0B23946B0471F
:1099C0006D1C641C142CF3D32846FEBD0020FEBD84
:1099D000406805F06FBB000070B510B14FF4064051
:1099E00070BD1C4C0025207B08B1257301E000F000
:1099F000A5F8207808282AD2DFE800F02904080C0E
:109A000010291422BDE8704000F026B8BDE870406F
:109A100000F082B8BDE8704000F064B8BDE8704066
:109A200000F040B80620207060880A4900EB8000F2
:109A3000283901EB80004068BDE8704003F0A8BE03
:109A4000072020706560BDE8704003F0AFBE48F2AB
:109A50000E6070BD942F00201149F0B48A1C0020C4
:109A60000346A1F128050C18A67A4EB1A37200EBAB
:109A7000800405EB8404E66816B9247C012C0AD026
:109A8000401C80B20228EED30B704B804B60F0BCC0
:109A900041F61D5070471080F0BC00F03DB800004A
:109AA000942F00200C48418801EB8102A0F128018D
:109AB00001EB8201CA6852B10521017007480221F9
:109AC0008180016800230122054801F083BF042240
:109AD00002704968F6E70000942F0020E823002078
:109AE0007C24002038B50A49084803240B684268E2
:109AF000898803EB810153880470DB1C00201B0460
:109B000000909B0B034802F0B9F838BD942F002059
:109B1000E82300207C240020074910B54888091D4F
:109B200005F0A6FC18B1BDE81040FFF7DBBFBDE8AB
:109B30001040FFF7B7BF0000942F002070B5194CFC
:109B40000121207808281AD2DFE800F00419191C36
:109B5000252929182089134A401C20810020608073
:109B60002073283A00EB800312F8233043B100231E
:109B70002518401C80B2AB720228F3D3217070BD4F
:109B80000123F5E76068084940888A88C01C1044B2
:109B90008880022004E000F009F8062000E0072099
:109BA000207070BD942F0020E82300200A49094846
:109BB0004988026801EB81030749283901EB8301D9
:109BC0004B6803604A6082880A81022282800020FA
:109BD00008747047E8230020942F00202DE9F043FB
:109BE000064680883288DFF85C8185B00746502AB7
:109BF00037D010DC5449554B06F10A05A1EB03019F
:109C00004FEAD1014FF0020303EB0144352A3AD069
:109C1000362A07D168E0522A02D0542AF9D102E04C
:109C200000F0C6FE82E0142249496846FCF71EFC9B
:109C3000ADF80270384600F04FFCADF8040000F0BB
:109C4000C9F90022444698F804103846FDF7B2FEE0
:109C50000022E1783846FDF7ADFE6846FFF708FCC4
:109C600064E0307B012861D1B07A01285ED130896F
:109C7000A0F52451023959D10121384600F0ECFEFB
:109C800006F034FF52E098F80610FDF77BFE00283E
:109C90004CD0002298F806103846FDF78BFEF2886B
:109CA000B2F5857F17D012B120462AA10BE02A8891
:109CB000012A03D0204636A102F0A0FB6A88012ABF
:109CC00004D0204641A102F099FB04E0A9880022BB
:109CD0003846A1DF08B1002125E0012298F80710DD
:109CE0003846FDF767FE21E04FF0000998F80710AD
:109CF000FDF748FED0B1002298F807103846FDF76E
:109D000059FEF28812B1204612A104E0AA88012A65
:109D100004D020462DA102F071FB03E0A87900B128
:109D2000012081464946384606F004FC00223649A7
:109D300098F80200FDF7C0FD05B0BDE8F04305F05E
:109D400049BF000098220020242E0300242E030087
:109D500030120300556E6578706563746564204742
:109D600041545420737461747573207768696C650D
:109D70002067657474696E6720434152206368618F
:109D8000722076616C75653A203078257800000085
:109D90004D756C7469706C652028256429204341D9
:109DA0005220636861726163746572697374696378
:109DB0007320666F756E642C207573696E672074EE
:109DC00068652066697273742E000000556E6578B0
:109DD00070656374656420434152206368617261F9
:109DE0006374657269737469632076616C7565204C
:109DF0006C656E67746820282564292C2073746F45
:109E0000726520302E000000D570020070B5044647
:109E10000078002814D1608800F0CAFD65882846C3
:109E200000F09AF928B107480122C1782846FDF7C9
:109E3000C1FD6088FEF73CFDBDE8704006F056BEEF
:109E400070BD00009822002070B5204C00252570C0
:109E5000FDF78CFD6070FDF789FDA070FDF786FDB4
:109E6000E070FDF783FD2071FDF780FD6071FDF767
:109E70007DFDA071FDF77AFDE07162780121182A5D
:109E800018D0A278182A15D0E278182A12D0227990
:109E9000182A0FD06279182A0CD0A279182A09D072
:109EA000182807D004F10C000560BFF35F8F217004
:109EB000002070BD0648074A801AC00801EB004028
:109EC000054902F097FA032070BD00009822002097
:109ED000242E0300242E03007C1703007CB50446C7
:109EE0000078082837D1607A58BB207A1C4E4FF68C
:109EF000FF75012811D0072802D008282BD121E0B6
:109F0000A08800F033FA0446A84224D0012100F0D2
:109F1000A3FD2046FEF7CCFC1DE0A0886A46012187
:109F200003F0ECFD68B90198007850B1A08800F00A
:109F30001DFAA8420FD00122F178FDF73BFD05F094
:109F400049FE08E0F068012805D1BFF35F8F04499E
:109F500000200C310860BDE87C4006F0C7BD000061
:109F60009822002010B50B48FFF713F8094A083A69
:109F7000D2E90434C018D2E9063244F10001C31A10
:109F800071EB020204D24FF08072801841F100019F
:109F900010BD00009823002010B5C0B2FEF764FC8D
:109FA0000446007802F0C6FF01466078012801D01F
:109FB000012000E0002090EA010F08D00449D1E917
:109FC0000401084303D1BDE8104006F06DBB10BD8D
:109FD000782300201CB5054AD2E90212CDE900120F
:109FE0000022694603F050FF1CBD00004812030028
:109FF00003484FF6FF7181800121017000207047F6
:10A00000A82200202DE9FC41804600F065FA0024DA
:10A0100003250127A0F57F412646FF3908D06A466F
:10A02000082103F06BFD18B90198841D8688056826
:10A0300032462B4621464046B1DF042804D008288A
:10A0400004D00B2808D002E0112000E00020002FEF
:10A0500000D10B20BDE8FC810027A80701D5012510
:10A06000E6E7344303D0002426460325E0E706480C
:10A0700006494246401AC008012101EB004004494C
:10A0800002F0BCF9E5E700002C2E0300242E0300AB
:10A09000441A03002DE9FC41804600F01DFAA0F5AA
:10A0A0007F410646FF390ED001252A466D1C002748
:10A0B000ADB26B460821304603F06AFD040006D0BD
:10A0C000072C33D033E043F20200BDE8FC81019954
:10A0D00003230A1D0B604046891DB2DF040004D033
:10A0E0000C2C09D0052C09D009E032460821104675
:10A0F00003F0C6FD04461AE0012700E00024082111
:10A10000304603F0B3FD70B102F0EAFD03460948A2
:10A1100009493246401AC008012101EB00400749B5
:10A1200002F073F90324002FBFD100E00C24204675
:10A13000CBE700002C2E0300242E0300C4190300DB
:10A1400004488088A0F57F41FF3901D005F04CBD5F
:10A1500070470000A82200200EB502A9019100F06E
:10A16000BBF96A46012103F0C9FC08B100200EBD0D
:10A17000019800780EBD00002DE9F04107464FF62A
:10A18000FF761048B3DF78B102F0AAFD02460E4810
:10A190000E49401AC008012101EB00400C4902F0B1
:10A1A0002DF90320BDE8F081064C43F20305A41EFF
:10A1B000324661883846AFDFA842F3D16088401C40
:10A1C0006080F5E7AA2200202C2E0300242E030035
:10A1D00078190300428800EB82020C328A4201D9CE
:10A1E000022070478188A1F57F42FF3A06D001889E
:10A1F00021B18068401C01D00020704701207047C9
:10A20000884204D20068401C01D001207047002021
:10A2100070473EB5027802230C46B3EB520F17D1BC
:10A22000B0F80110ADF80010C1788DF802108188E7
:10A23000ADF8041080798DF8060002AA01A9204625
:10A24000FCF70AFD032202A96846FCF73AF908B1B7
:10A2500000203EBD01203EBD70B50D4604461428C9
:10A2600010D2FDF7C3FB68B1084904EB840001EB91
:10A270004000D0F802102960C188A980007AA87136
:10A28000002070BD43F2020070BD0000242A0020AF
:10A2900070B5018890B0102961D1011D2C2268464B
:10A2A000FCF7E4F89DF804004FF6FF7603213446EE
:10A2B000B1EB500F2BD003F0A5FD9DF804006D46C7
:10A2C00040080ED001280CD0022820D118E00D99AA
:10A2D000281D1131FCF76AFC18B100BFBDF82C40F5
:10A2E00015E00CAA0BA9072003F060FD0028EED1B1
:10A2F0000DE00D99281D491CFFF78BFF0028EDD1BB
:10A300000CAA0BA9072003F051FD0028F1D1BDF8DC
:10A310000000B44200EB8001124820F8114000EB2D
:10A3200041000199C0F80210BDF80810C1809DF8E5
:10A330000A10017213D0BDF80000ADF82E00002005
:10A34000ADF83040084E8DF82C000BAD044600BF30
:10A3500056F8241028468847641C022CF8D310B005
:10A3600070BD0000242A00205C1203002DE9F0419A
:10A370004FF6FF760546B04213D00B4F002400BFC6
:10A3800004EB840037F81000A84206D12046FDF700
:10A390002DFB10B12046BDE8F081641CA4B2142C42
:10A3A000EED33046F7E70000242A00203EB50C46E5
:10A3B000054603F027FD0BE0BDF80000A04207D0E2
:10A3C0002846029900F00EF810B1BDF800003EBD1D
:10A3D00001AA6946072003F0E9FC0028ECD14FF6FA
:10A3E000FF703EBD2DE9F0410C46054600F1110716
:10A3F00001F111061022491C401CFCF762F848B913
:10A40000681C00F0FDF928B1601C00F0F9F908B1F2
:10A41000012400E0002431463846FCF7C7FB3B78B6
:10A420000222B2EB530F0CD00321B1EB530F08D033
:10A430003378B2EB530F04D0B1EB530F01D00121AD
:10A4400000E00021084201D18C4302D00120BDE888
:10A45000F0810020FBE7018811B9421892780AB117
:10A4600001207047491C0829F7D30020704710B518
:10A470000C460346FFF7EFFF00280AD01888218812
:10A48000884205D10822A11C981CFCF71AF808B1D3
:10A49000002010BD012010BD142804D2024A00EB98
:10A4A000800022F810107047242A002070B505465D
:10A4B000FFF75CFF0446284603F024FB002808D180
:10A4C000142C06D2034B04EB84024FF6FF7123F8E1
:10A4D000121070BD242A002010B50446142808D29A
:10A4E000FDF784FA28B1044904EB840031F8100028
:10A4F00010BD4FF6FF7010BD242A00203EB5044663
:10A5000003F080FC0EE0019920464631FFF7AFFFD3
:10A5100028B9019920462A31FFF7A9FF10B1BDF8EB
:10A5200008003EBD6A4602A9072003F03FFC002850
:10A53000E9D14FF6FF703EBD10B50A4941600A48A7
:10A5400000F04BFE58B902F02BFB07491C238C226C
:10A55000087404488C39001F006800F0A4FD002036
:10A5600010BD000044140300403000202DE9F041EC
:10A570002D4F002520B17D604FF40640BDE8F081ED
:10A580000879012258B1294E01280CD0264C4FF0F1
:10A5900002080834022820D0032841D127E00A719C
:10A5A00003F004F93AE0002000EB800116F82110D6
:10A5B000022908D0401C80B20228F5D33A707D6091
:10A5C00041F61D50DAE700EB800006F8205006EB5C
:10A5D0008000406803F0DCF820E00D71A4F80480EE
:10A5E000002301221248216801F0F4F916E00D71F0
:10A5F000206803F0CDF80D4923682831498801EB24
:10A60000810206EB8201D1F804C0C4F800C04B609F
:10A61000A3880B81A4F8048006F822500028ADD04E
:10A620007D6048F20D60A9E7E02300206C2F002038
:10A630007C2400200146034802888A4200D0002082
:10A6400070470000782900202DE9FC5F0E0083464A
:10A65000DDE90C47C6F1000098469246814600D4D9
:10A660000846012503E000BF90FBFAF06D1C504541
:10A67000FADAA84500D9454624B1002E01DB780757
:10A6800000D5641EB80702D5B8F1000F0AD0F8074C
:10A6900008D13CB1A54205D220215846641EFEF7E0
:10A6A000BFF8F6E7002E02DA4E462D2102E07807C9
:10A6B00003D52B215846FEF7B3F807F00300022814
:10A6C0000BD1B8F1000F08D13CB1A54205D2302121
:10A6D0005846641EFEF7A4F8F6E7CDE90047434666
:10A6E00052463146584606F0A7F9BDE8FC9F0000E7
:10A6F00070B50D46044600684FF4887102F010FBF7
:10A700004FF49071206802F00BFB4FF492712068B7
:10A7100002F006FB4FF4A271206802F001FB4FF437
:10A72000AC71206802F0FCFA20681249C0F80413EA
:10A730002068690740F30730090E002804DB00F1A8
:10A74000E02080F8001405E000F00F0000F1E020A8
:10A7500080F8141D206840F30730002809DB00F062
:10A760001F02012191404009800000F1E020C0F863
:10A77000001170BD1003420002460020126853070A
:10A7800013D502F00300012802D002280CD105E005
:10A79000C2F383100B68801C184404E0022308688D
:10A7A00003EB925210440860012070470248007A7F
:10A7B000002800D00120704740300020F0B5848888
:10A7C000A518944200D82246A41AC288D6189A42E4
:10A7D00000D81346D21A4B880788BB420CD3408856
:10A7E000834209D88888A04206D3A84204D8C888E2
:10A7F000904201D3B04201D90020F0BD0120F0BD4C
:10A800000021425C0AB101207047491C1029F8D38D
:10A8100000207047800701D000207047012070475A
:10A820000A4810B5807860B1002401E0022C06D0FF
:10A830002046FDF767FD641C042CF7D310BD0324EC
:10A84000F6E7BDE81040FDF77DBD0000782200204E
:10A8500003480179C90702D00078FDF7AFBE704701
:10A86000782200201721018041800021017141716F
:10A870001B218171C17170472DE9FE4F2E4F984603
:10A8800092460D00814601D000260DE0684600F09A
:10A89000C7FB6A460021484603F08CF83878009ED2
:10A8A00010B99DF8090098B152463146484605F066
:10A8B000F7FC0446014600224846FFF759F80D2CE4
:10A8C00037D008DCA4B3082C33D00B2C09D130E0EE
:10A8D0000520BDE8FE8F112C1ED0A4F54050023893
:10A8E00027D0204602F0FCF90246144814494B4692
:10A8F000401AC008012101EB0040124901F085FD1A
:10A900005FF00305B8F1000F04D0324621464846F7
:10A91000FEF7DEFC2846DCE72A46F9784846FDF7D4
:10A9200049F85246B9784846FDF744F80025E9E76A
:10A93000FFE72546E6E70000402300206C2E0300D9
:10A94000242E0300D424030070B50E460C4915468E
:10A9500004460978FDF716F800280FD0204602F0CB
:10A96000CFFF00282A463146204603D0BDE870407C
:10A9700002F0CCBFBDE87040FEF70BBC70BD00001C
:10A980003823002070B5094D0646A978FCF7FAFF78
:10A990000446E9783046FCF7F5FF0146224630468A
:10A9A000BDE870400123FFF767BF0000402300208F
:10A9B000F0B585B00546002714216846FBF76FFD0A
:10A9C000A5F57F40ADF80250FF3825D02846FFF7A7
:10A9D00019FB040022D01B481B49401AC6080B2C47
:10A9E00022D0112C1ED0A4F5405002380ED02046A3
:10A9F00002F076F90246012000EB06402B4613498F
:10AA000001F003FD2146284605F09CF810483A461F
:10AA100081782846FCF7CEFF05B0F0BD0E208DF8FA
:10AA200000000BE00127F1E70F208DF80000022065
:10AA300000EB06402A46074901F0E0FC6846FEF7B5
:10AA400017FDE3E7242E0300242E03004C18030017
:10AA500098220020A01803000A4602494978FCF712
:10AA6000A9BF0000982200202DE9F041002786B000
:10AA700080463E46FFF70EFB040022D0112C22D068
:10AA80001B481C49401AC508862C1ED0A4F540500E
:10AA900002380ED0204602F023F90246012000EBD6
:10AAA0000540434614A101F0B0FC2146404605F0A4
:10AAB00049F839464046FFF7CFFF06B03046BDE8BB
:10AAC000F0810126F5E70127F3E714221A496846C9
:10AAD000FBF7CCFC0220ADF8028000EB05404246BB
:10AAE00016A101F08BFC6846FEF7C2FCE1E700000E
:10AAF000242E0300242E03006773636D5F6C6F6365
:10AB0000616C5F64625F63616368655F75706461F7
:10AB1000746528292072657475726E6564202573CA
:10AB200020666F7220636F6E6E5F68616E646C6525
:10AB30003A2025640000000008120300466C61738F
:10AB4000682066756C6C2E20436F756C64206E6F88
:10AB5000742073746F7265206461746120666F7213
:10AB600020636F6E6E5F68616E646C653A20256469
:10AB7000000000002DE9FF410026244800F02AFBD8
:10AB80002248001F074600F025FB214C2149A06800
:10AB900000900D6800E000986946284004EB8000B2
:10ABA0000C30FFF7E9FD0028F5D101AA009901EA70
:10ABB000050304EB8303491CDB6842F82030401C8A
:10ABC00000910228F2D3019800F0030001280BD075
:10ABD000022810D10198032101EB90500099BDF893
:10ABE0000A6001EB900005E00198BDF80A60C0F32F
:10ABF000831008440090384600F0E9FA08B1009844
:10AC0000A06004B03046BDE8F0810000343600207A
:10AC10001C32002020240020ACB04FF480410020E2
:10AC200001F066FC08B1FCF7DDF801F0B9FAFCF7B9
:10AC300017FF08B1FCF7D6F8FCF73AF908B1FCF7B2
:10AC4000D1F801F05FFD08B1FCF7CCF867490320AB
:10AC5000FDF76AFC08B1FCF7C5F869460020FDF76E
:10AC600095FB08B1FCF7BEF89DF8000002287DD0E6
:10AC70005FF0000501F048FF08B1FCF7B3F80024CD
:10AC800069460120009401F0CFFD08B1FCF7AAF855
:10AC9000684601F049FE08B1FCF7A4F803F04AFA4F
:10ACA0009DF8080052A120F00F00401C20F0F00099
:10ACB00010308DF80800112202A87CDF08B1FCF7E3
:10ACC00091F800945020ADF80000A0200194ADF858
:10ACD0000200ADF804404FF4C870ADF806006846B5
:10ACE0007ADF08B1FCF77EF80021464800F0FEFA52
:10ACF00008B1FCF777F8AC216846FBF7D0FB0220DF
:10AD00008DF8000001208DF802000621ADF810003A
:10AD10008DF803103C4805901EA8FBF78FFF3B48B9
:10AD20002990384869462030FCF78DFB08B1FCF7C4
:10AD300059F8344801212030FCF782FB344801A93E
:10AD4000CDE900402F48143000F095FB08B1FCF726
:10AD500049F8304800906846FCF7E8FE08B1FCF777
:10AD600041F81C216846FBF79AFB00E029E04FF40C
:10AD7000A030CDE900404FF4F02002902648059025
:10AD8000032626488DF80C600690ADF80E408DF82D
:10AD900010406846FCF742FD08B1FCF723F8204854
:10ADA0002049401AC00806EB004004461EA101F0ED
:10ADB00021FB65B1204625A101F01CFB04F012F82F
:10ADC0000AE0012556E700BFFCF70CF806E00D4845
:10ADD00003212030FCF709FC0028F5D101F0EEF941
:10ADE0000028FBD101F0B6FCF8E7000081840200E6
:10ADF0004E6F726469635F427574746F6E6C6573D5
:10AE0000730000009024002072220020E5D402008C
:10AE1000E9C70200AD7D020009D502007F8C020067
:10AE2000CC2E0300242E0300427574746F6E6C6583
:10AE3000737320444655204170706C696361746976
:10AE40006F6E20737461727465642E004572617355
:10AE50006520626F6E6473210000000070B51446B7
:10AE600082880E4605462088111D0144921C994295
:10AE700001D8FE2A01D90C2070BD521C3254208802
:10AE8000FF21401C80B2208031542088401C80B2B9
:10AE900020808119288805F0BAFD2188084480B2F5
:10AEA0002080AA8842B1A96841B13044FBF7DEFA9C
:10AEB0002088A98808442080002070BD072070BD2C
:10AEC0002DE9F047C5881E1DB6FBF5F78946B6FB90
:10AED000F5F1044605FB176C407916686843DDF808
:10AEE00020A0F718001F874200D9C61A166001E09B
:10AEF0002468491E0029FBD1A5EB0C078846B74200
:10AF000016D818E004EB0C00001D09EB0803BAF199
:10AF1000000F3A4602D00146184600E01946FBF7FA
:10AF2000A5FA2468F61B4FF0000CB844B54201D9CD
:10AF3000374600E02F46002EE4D1BDE8F087000040
:10AF400030B5024651B101F0E7FA0021074C08E0A4
:10AF500034F821301568AB4202D11160002030BDB9
:10AF6000491C8142F4D3052030BD000000000000E0
:10AF7000BFF35F8F00F016B9F8B50F46017814469D
:10AF80000546012901D1687830B12088821C9A4297
:10AF900032D8012902D006E00720F8BD69780144C3
:10AFA000891C994228D8181A801E86B2ADF8006014
:10AFB0002188B81C084469467DDF0028EDD1297836
:10AFC000022904D06878BDF80020904205D3BDF86E
:10AFD0000000B04201D809200AE00820012905D16B
:10AFE0006978B14202D8ADF8001001E0ADF8006018
:10AFF000BDF80010FE2901D90C20F8BD2288491C9B
:10B00000B9542188491C89B2218078542088401C79
:10B010002080BDF80010084420800020F8BD00000A
:10B02000034A00219268C0E9002181607047000056
:10B030004023002070B586B00D4606461446142104
:10B040006846FBF72CFA8DF80050ADF80240204618
:10B05000FFF742FAADF80400142269463046FBF7C8
:10B0600005FA06B070BD70B54FF6FF750E46A842E2
:10B0700001D1002000E0401C84B208E021463046A7
:10B0800000F090F808B1204670BD641CA4B2FF2CFB
:10B09000F4D9284670BD10B5FBF707F908B10020B8
:10B0A00010BD112010BD10B531B1B2FBF3F403FB9C
:10B0B00014241CB1092010BD0E2010BD0160002118
:10B0C000416081608281C381084610BD70B50C4625
:10B0D0000546FBF79FF8002802D02188286808441D
:10B0E00070BD10B50A8849888A4203D1FBF7D4F8AD
:10B0F000012010BD002010BD70B50C460546FBF7C1
:10B10000AEF8002802D061882868084470BD10B5E8
:10B110000A8849888A4203D1FBF798F8012010BDBC
:10B12000002010BD01F01F0301229A40D2434909BB
:10B1300000EB8100114600F059B80A4601F01F03E8
:10B140000121994010B552090C4600EB820000F035
:10B150005DF8204000D0012010BD2DE9F04180466F
:10B160000D460024481E012101EB501716E058F847
:10B170002400C04390FAA0F0B0FA80F020280CD24E
:10B1800000EB4416AE4208D231464046FFF7D5FFE9
:10B190000028ECD13046BDE8F081641CA742E6D817
:10B1A0002846F8E74A0950F8220001F01F02012161
:10B1B0009140084000D00120704701F01F03012298
:10B1C0009A40490900EB8100114600F029B800219E
:10B1D00000F017B8012100F023B8012100F016B8E3
:10B1E00008B56A46FBF7ADF8009808BD08B56A4691
:10B1F000FBF78DF8009808BD08B56A46FBF7A1F883
:10B2000008BD08B56A46FBF782F808BD08B56A466E
:10B21000FBF770F808BD08B56A46FBF75FF808BD94
:10B2200008B56A46FBF766F8009808BD08B56A4697
:10B23000FBF794F8009808BD38B5044600258DF852
:10B2400000506846FBF780FE2168626808689042FB
:10B250000ED9401E08600178238AE26801FB0325AD
:10B26000227A2168101AC0B20A79824200D208718B
:10B270009DF80000FBF78CFE284638BD38B5054622
:10B2800000208DF800000C466846FBF75DFEE8687C
:10B29000298A201AB0FBF1F12A681068431C136058
:10B2A00001709DF80000FBF773FE38BD10B530B19A
:10B2B000017A42680368891AC9B21A6006E00E2052
:10B2C00010BD03681A68541C1C601170491EC9B275
:10B2D000F7D2006800210171084610BDC20800F0D5
:10B2E00007030120895C98400840704710B560B1A1
:10B2F0000161172120F8021B20F8021B1B2100F816
:10B30000021BFFF7AFFA002010BD0E2010BD000099
:10B31000F0B5858893B00C46002D39D10188002600
:10B320003F4F24293BD006DC102909D011290CD02D
:10B33000232958D14FE03A290BD0552953D129E080
:10B340000146204602F0EEF84DE0A01DFFF78AFA14
:10B3500049E02246408934F8061F814200D8084659
:10B360006080172800D217206080106970B1607962
:10B3700060B1D7E90001CDE90301ADF80E50608856
:10B38000ADF81000136903A910469847667126713D
:10B3900013B0F0BD0146204602F04EF923E0011D36
:10B3A0002C2206A8FBF762F8BDF81800BDF81C2097
:10B3B00004EBC0014A732269AAB1D7E90423CDE99D
:10B3C0000423ADF81200487B8DF814002269204652
:10B3D00004A9904707E0017A207B884200D2014609
:10B3E0002846FDF797FCA07A0028D1D0E1882846AE
:10B3F000A5DF012580B11128CAD001F071FC0246F9
:10B400000848094913B0401AC00805EB0040BDE8E0
:10B41000F04006A100F0F2BFA672E572B8E70000A6
:10B42000641203003C2E0300242E030073645F6249
:10B430006C655F67617474635F65786368616E678C
:10B44000655F6D74755F7265717565737428292009
:10B4500072657475726E65642025732E000000009D
:10B4600020B10278DE2A03D0082070470E207047F2
:10B4700041800020704760B159B10278DE2A0AD0BD
:10B4800009684160DE2101704FF6FF7141800020A4
:10B4900070470E207047082070477FB50546002989
:10B4A0004DD0002D4BD008780C46DE2847D1A88817
:10B4B0006188884202D1204605F076FB2888012861
:10B4C00025D002283BD011283AD0512837D135F861
:10B4D000040F6188884232D1A978A81C02292ED194
:10B4E000017A042903D0062901D0052927D100219A
:10B4F000009102228DF8002001914FF4C072029158
:10B500000391ADF80420007A05280FD010E0297AC5
:10B510002046012913D1A988428891420FD10121E7
:10B52000017204B0BDE8704005F03EBBADF80410F8
:10B5300028886946B0DF002801D0616888477FBD50
:10B54000A88861888842FAD14FF6FF7060807FBD7D
:10B5500000F180400068002800D00120704708B545
:10B5600000F18040002101600068009008BD0000EB
:10B5700070B540F6F8700468601C02D14FF01020DE
:10B5800044691248124B4FF00102A3EB00004FEA4E
:10B59000D000611C02EB004512D0032101EB0040FA
:10B5A00022460CA100F02AFF204613DF040005D03C
:10B5B000284613A100F01EFF204670BD002070BD7C
:10B5C00028461CA100F016FF042070BD242E0300A5
:10B5D000CC2E030053657474696E672076656374BE
:10B5E0006F72207461626C6520746F20626F6F747B
:10B5F0006C6F616465723A203078253038780000CD
:10B600004661696C65642072756E6E696E67207341
:10B61000645F736F66746465766963655F7665639E
:10B62000746F725F7461626C655F626173655F7392
:10B63000657400004E6F20626F6F746C6F6164659B
:10B64000722077617320666F756E640070B50C4868
:10B650000C490D4A401AC508032000EB05400BA118
:10B6600000F0CCFE084813DF040007D0012000EBF7
:10B67000054011A100F0BEFE204670BD002070BD47
:10B68000CC2E0300242E0300006002005365747466
:10B69000696E6720766563746F72207461626C6591
:10B6A00020746F206D61696E206170703A2030786F
:10B6B00025303878000000004661696C65642072AE
:10B6C000756E6E696E672073645F736F6674646510
:10B6D000766963655F766563746F725F7461626CCF
:10B6E000655F626173655F736574000070B50D4CD2
:10B6F0000125207808B185260EE00020A06060605A
:10B700002061E060084801F02FFB064601F048FA8E
:10B7100008B901F013FB257001F008FB00B1A5701A
:10B72000304670BD4C2D0020858B020038B50025B9
:10B730008DF800506846FBF707FC084CE068401E97
:10B74000E060E06828B901F0F1FA10B901F01CFBE3
:10B75000A5709DF80000FBF71BFC38BD4C2D0020A8
:10B76000F0B505460478154889B0164640F82420FF
:10B77000124A0869121DA2F1080742F82400487F06
:10B78000385520226846FAF771FE04942878385C10
:10B7900048B10EB10A4A00E000226946281D01F0B6
:10B7A00083FD09B0F0BD0EB1064A00E000226946F3
:10B7B00005F10C0001F042FCF3E7000060230020DB
:10B7C000CD080300150703000FB408B5039900293D
:10B7D00004D004AA00926A4600F00FF801B05DF8A8
:10B7E00014FB10B582680446002A05D0D4E904038E
:10B7F000216898470020A06010BD2DE9FC479146C4
:10B800000C00804676D014F8011B39B125290ED0E2
:10B810004046FDF705F820780028F4D198F80C0090
:10B82000002867D04046BDE8FC47FFF7DABF00209C
:10B83000012221782B291BD02D2902D0302908D1B3
:10B8400002E040F0010001E040F00200641C002A28
:10B85000EFD100252A290ED02178A1F130020A2A41
:10B8600011D205EB850201EB4205641C303DF1E786
:10B8700040F00400EAE7D9F800100B1DC9F80030C9
:10B880000968641C0D44217800232E290BD114F87B
:10B89000011FA1F130020A2A05D203EB830201EB5A
:10B8A0004203303BF3E76C290DD068290BD069299E
:10B8B00021D00BDC252918D0582931D063290ED08E
:10B8C000642915D117E014F8011FECE7702969D03D
:10B8D000732932D075291BD0782909D120E0D9F8F5
:10B8E0000000011DC9F8001001784046FCF798FFE0
:10B8F000641C90E76CE0D9F800100A1DC9F800201C
:10B900000968CDE900500A224046FEF79DFEEFE7A8
:10B91000D9F800100A1DC9F8002009680A2206E0BB
:10B92000D9F800100A1DC9F8002009681022CDE9D5
:10B930000050404605F080F8DAE7D9F800100027FB
:10B940000A1DC9F800200E68C00705D112E0404664
:10B95000761C7F1CFCF764FF31780029F7D104E0E6
:10B96000202140466D1EFCF75BFFBD42C0D9002D73
:10B97000F6D1BDE74EB13046FAF79CFD074604E02C
:10B98000202140466D1EFCF74BFFBD4206D9002D1D
:10B99000F6D103E04046761CFCF742FF31780029DF
:10B9A000F8D1A5E7D9F80000011DC9F80010056815
:10B9B00030214046FCF734FF78214046FCF730FF49
:10B9C00008200021CDE90001034610222946B0E7F6
:10B9D000BDE8FC872DE9F843884605002C482D4931
:10B9E0009946A0EB01004FEAD0004FF00101164646
:10B9F00001EB004424D0286800282CD0002E34D03D
:10BA0000696840464FF010070A68511E11EA080F96
:10BA100011D1014672432846FBF7E1F800282ED0E9
:10BA200028684B463246046901B041462846A44680
:10BA3000BDE8F04360472046174B18A2009722E06C
:10BA40000E2000902046144B1EA220A100F0E5FC21
:10BA50000E20BDE8F8830820009020460E4B26A259
:10BA60001AA100F0DAFC0820F3E709200090204634
:10BA7000094B24A215A100F0D0FC0920E9E7064BF0
:10BA8000214A2046009711A100F0C7FC1020E0E7F2
:10BA9000B42E0300242E03002B140300616464728F
:10BAA0005F69735F706167655F616C69676E65642C
:10BAB00028705F66732C20706167655F61646472D3
:10BAC00029000000705F667300000000257320638A
:10BAD0006865636B206661696C656420696E20250A
