:020000040000FA
:1000000008200020150200001D0200001F02000051
:100010002102000023020000250200000000000071
:1000200000000000000000000000000027020000A7
:1000300029020000000000002B0200002D02000039
:100040002F0200002F0200002F0200002F020000EC
:100050002F0200002F0200002F0200002F020000DC
:100060002F0200002F0200002F0200002F020000CC
:100070002F0200002F0200002F0200002F020000BC
:100080002F0200002F0200002F0200002F020000AC
:100090002F0200002F0200002F0200002F0200009C
:1000A0002F0200002F0200002F0200002F0200008C
:1000B0002F0200002F0200000000000000000000DE
:1000C0002F0200002F0200002F0200002F0200006C
:1000D0002F0200002F0200002F020000000000008D
:1000E0000000000000000000000000000000000010
:1000F0000000000000000000000000000000000000
:1001000000000000000000000000000000000000EF
:1001100000000000000000000000000000000000DF
:1001200000000000000000000000000000000000CF
:1001300000000000000000000000000000000000BF
:1001400000000000000000000000000000000000AF
:10015000000000000000000000000000000000009F
:10016000000000000000000000000000000000008F
:10017000000000000000000000000000000000007F
:10018000000000000000000000000000000000006F
:10019000000000000000000000000000000000005F
:1001A000000000000000000000000000000000004F
:1001B000000000000000000000000000000000003F
:1001C000000000000000000000000000000000002F
:1001D000000000000000000000000000000000001F
:1001E000000000000000000000000000000000000F
:1001F00000000000000000000000000000000000FF
:10020000DFF80CD000F018F8004800471306000093
:10021000082000200648804706480047FEE7FEE722
:10022000FEE7FEE7FEE7FEE7FEE7FEE7FEE7FEE7A6
:100230005D02000001020000064C074D06E0E06888
:1002400040F0010394E8070098471034AC42F6D31D
:10025000FFF7DAFF1406000034060000F0B5D34AB9
:10026000D3494FF080541368D4F830010978D4F89A
:100270003421451CC1F3031107D0844616460127DB
:100280000025BCF1060F04D013E003F0FF0C0E466E
:10029000F5E7032E05D0042E03D0052E01D0062E3F
:1002A00007D1B4F82463DFF80CC3C6F30426CCF8F6
:1002B0000060DEB2062E06D1032904D1DFF8FCC2AD
:1002C000BD4ECCF87460461C06D084464FEA020648
:1002D000BCF1060F04D013E003F0FF0C0E46F7E765
:1002E000032E05D0042E03D0052E01D0062E07D1F3
:1002F000D4F84462DFF8C8C2C6F34236CCF80060D6
:10030000DEB2062E08D1032906D1AE4ED6F800C0C3
:100310002CF0807CC6F800C0461C05D084461646EA
:10032000BCF1060F04D014E003F0FF0C0E46F7E713
:10033000032E05D0042E03D0052E01D0062E08D1A1
:100340004FF08046C6F80C51C6F810519C4E361F2F
:100350003560DEB2062E08D1032906D1DFF860C26F
:1003600003260CF1640CCCF80060DEB2062E11D12D
:1003700003290FD1DFF850C20526CCF80060924E59
:1003800078363760904E083635600CF1040C3F2605
:10039000CCF80060461C05D084461646BCF1060F1A
:1003A00004D087E003F0FF0C0E46F7E7032E7CD065
:1003B000042E7FD0052E01D0062E7BD1834E3668C9
:1003C000DFF80CC2CCF80060804E361D36680CF1A8
:1003D000040CCCF800607D4E083636680CF1040C35
:1003E000CCF80060794E0C3636680CF1040CCCF871
:1003F0000060764E103636680CF1040CCCF80060C4
:10040000724E143636680CF1040CCCF800606F4E56
:1004100018363668DFF8B8C10CF1200CCCF8006053
:100420006A4E1C3636680CF1040CCCF80060674E3E
:10043000203636680CF1040CCCF80060634E24368C
:1004400036680CF1040CCCF80060604E2836366833
:100450000CF1040CCCF800605C4E2C3636680CF1C4
:10046000040CCCF80060594E30363668DFF860C1B5
:100470000CF1400CCCF80060544E343636680CF168
:10048000040CCCF80060514E383636680CF1040C80
:10049000CCF800604D4E3C3636680CF1040CCCF8BC
:1004A00000604A4E4036366800E003E00CF1040C70
:1004B000CCF80060461C05D084461646BCF1060FF9
:1004C00004D011E003F0FF0C0E46F7E7032E05D031
:1004D000042E03D0052E01D0062E05D1D4F85842A3
:1004E0003C4E04F04F043460441C04D003461146D3
:1004F000062B02D010E0DBB2FAE7032905D004296D
:1005000003D0052901D0062906D133490B68DB0742
:1005100002D06FF001030B6006280CD1032A0AD029
:10052000042A08D0052A06D0062A04D12B480168DF
:1005300041F48061016023487438016841F470011E
:100540000160BFF34F8FBFF36F8F4FF01021D1F8D1
:100550000002002803DBD1F80402002822DA204A36
:10056000176020480368002BFCD01523C1F8003227
:100570000468002CFCD0C1F8043201680029FCD0CA
:10058000156001680029FCD0BFF34F8F0D48F0388B
:100590000168154A01F4E06111430160BFF34F8F18
:1005A00000BFFDE7124911480860F0BDE00F00F000
:1005B000E80F00F0403501400DF0ADBA00C0074033
:1005C0003C050040FCED00E0105600400404001023
:1005D00020C50040E40E0040000400403C170040ED
:1005E00004E5014000E401400400FA050090D00356
:1005F0000000002002E008C8121F08C1002AFAD13A
:1006000070477047002001E001C1121F002AFBD192
:100610007047FEE7340600000000002004000000E0
:10062000F40500003806000004000020042000004B
:08063000040600000090D00355
:020000041000EA
:041080007856341258
:0400000500000201F4
:00000001FF
