:020000040000FA
:10000000D0310020AD020000B5020000B7020000B0
:10001000B9020000BB020000BD02000000000000A9
:1000200000000000000000000000000015020000B9
:10003000C10200000000000051020000C5020000E3
:10004000E1030000C7020000C7020000C702000071
:10005000C7020000C70200003D030000C702000005
:10006000C7020000C7020000C7020000C70200006C
:10007000C7020000C7020000C7020000C70200005C
:10008000C702000031040000C7020000C7020000E0
:10009000C7020000C7020000C7020000C70200003C
:1000A000C7020000C7020000C7020000C70200002C
:1000B000C7020000C70200000000000000000000AE
:1000C000C7020000C7020000C7020000C70200000C
:1000D00099040000C7020000C7020000C702000028
:1000E000C702000000000000000000000000000047
:1000F00000000000C702000000000000C70200006E
:1001000000000000000000000000000000000000EF
:1001100000000000000000000000000000000000DF
:1001200000000000000000000000000000000000CF
:1001300000000000000000000000000000000000BF
:1001400000000000000000000000000000000000AF
:10015000000000000000000000000000000000009F
:10016000000000000000000000000000000000008F
:10017000000000000000000000000000000000007F
:10018000000000000000000000000000000000006F
:10019000000000000000000000000000000000005F
:1001A000000000000000000000000000000000004F
:1001B000000000000000000000000000000000003F
:1001C000000000000000000000000000000000002F
:1001D000000000000000000000000000000000001F
:1001E000000000000000000000000000000000000F
:1001F00000000000000000000000000000000000FF
:10020000DFF80CD000F088F800480047BD09000076
:10021000D0310020244B19680868B0E8F04F80F313
:100220000988BFF36F8F4FF0000080F3118870478B
:10023000000000000548006880F3088862B661B6D7
:10024000BFF34F8FBFF36F8F00DF0000000000008F
:10025000EFF30980BFF36F8F134B1A681EF0100F76
:1002600008BF20ED108A20E9F04F106008B44FF06D
:10027000400080F31188BFF34F8FBFF36F8F01F001
:1002800011FB4FF0000080F3118808BC1968086862
:10029000B0E8F04F1EF0100F08BFB0EC108A80F3EA
:1002A0000988BFF36F8F704714000020064880470D
:1002B00006480047FEE7FEE7FEE7FEE7FEE7FEE74B
:1002C000FEE7FEE7FEE7FEE7A904000001020000EA
:1002D00040EA01039B0703D009E008C9121F08C0C8
:1002E000042AFAD203E011F8013B00F8013B521E48
:1002F000F9D27047D2B201E000F8012B491EFBD2BF
:1003000070470022F6E710B513460A460446194620
:10031000FFF7F0FF204610BD064C074D06E0E068F1
:1003200040F0010394E8070098471034AC42F6D33C
:10033000FFF76AFFF8210000182200002DE9FC41B8
:100340000025DFF8948000954FF4807601242F4635
:100350000195304600F036FC38B1D8F8040320424D
:1003600003D0304600F024FC2543361D64007F1C7A
:10037000B6B2082FEDD34FF4BE74204600F022FC35
:1003800048B1204600F014FC45F000456A460221C1
:10039000002000F0C5FB15F0FF0F16D00126002449
:1003A0002E420ED008EB8401D1F81005D1F81015BB
:1003B000C0F30520094AC1F3014152F8242002B1DB
:1003C00090477600641C082CEAD3002D02DA6846B8
:1003D00000F0DCFCBDE8FC810060004068110020FA
:1003E00070B54FF48076304600F016FB0F4DB40523
:1003F00040B1304600F017FB0120C4F8080329681B
:10040000002088474FF48276304600F005FB002834
:100410000AD0304600F007FB0220C4F80803296820
:10042000BDE870400120084770BD00006400002056
:100430002DE9F041164E4FF4A071304600F0CAFB92
:100440000025EFF31184402080F31188D6F804755D
:100450008100304600F0BEFB01F00EFD381A20F09E
:100460007F46012E07D901F0F9FC022803D00026AF
:1004700001F008FD0543761EFAD225B105494FF07B
:100480008050086040BFE0B280F31188BDE8F08181
:100490000010014004ED00E004220021014800F0BA
:1004A00003BA000000400240F0B54FF080516A4EA0
:1004B000D1F83001694D421C07D0D1F834310746DC
:1004C000012400220D2F05D00FE02A783778C2F3DF
:1004D0000313F5E70BB1012B07D14FF08043C3F8AD
:1004E0000C21C3F810215E4B1A60431C05D0D1F8D3
:1004F000347103460D2B05D05DE02F783378C7F3B8
:100500000317F7E70FB1012F55D1564B1B68564F14
:100510003B60544B1B1D1B683F1D3B60514B083318
:100520001B683F1D3B604F4B0C331B683F1D3B60FE
:100530004C4B10331B683F1D3B604A4B14331B6808
:100540003F1D3B60474B18331B68474F20373B60CC
:10055000444B1C331B683F1D3B60424B20331B68E0
:100560003F1D3B603F4B24331B683F1D3B603D4BB1
:1005700028331B683F1D3B603A4B2C331B683F1DE3
:100580003B60384B30331B68374F40373B60354B4F
:1005900034331B683F1D3B60324B38331B683F1DB3
:1005A0003B60304B3C331B683F1D3B602D4B403361
:1005B0001B683F1D3B60431C04D0D1F834110D284B
:1005C00005D00EE029783078C1F30311F7E709B1BF
:1005D000012906D125480168C90702D06FF0010141
:1005E00001602348016841F470010160BFF34F8F3F
:1005F000BFF36F8F4FF01020D0F80012002903DBFB
:10060000D0F80412002922DA1A4B1C601A490C682F
:10061000002CFCD01224C0F800420D68002DFCD044
:10062000C0F8044208680028FCD01A600868002856
:10063000FCD0BFF34F8F0E487C3801680F4A01F49D
:10064000E06111430160BFF34F8F00BFFDE70D492B
:100650000B480860F0BD0000E00F00F0E80F00F06C
:10066000380500400404001020C50040000400408C
:1006700088ED00E004E5014000E401400400FA05D3
:100680000090D0037800002002E008C8121F08C1C3
:10069000002AFAD170477047002001E001C1121F03
:1006A000002AFBD17047000072B609480068C007F5
:1006B00000D000BEBFF34F8F0548E4380168054AFB
:1006C00001F4E06111430160BFF34F8F00BFFDE70C
:1006D000F0ED00E00400FA050EB500210091CDE92F
:1006E00001106A4644F20100FFF7DEFF0EBD00F084
:1006F00003B800F009B8000072B602480168491C4E
:10070000016070477400002003490868401E0860BB
:1007100000D162B6704700007400002008B50020C8
:100720000090012000F056F81148D0F840054FF431
:100730008041401820F07F424FF001034FF000014C
:100740000C4800F08FFA08B1FFF7C6FF0A48694667
:10075000406801F0F7F90098002808D007494FF0E9
:100760008050086040BFBFF34F8FBFF36F8F08BD4D
:1007700000400240DC2100000000002004ED00E009
:100780002DE9FC410646C0074FF000050ED0104F82
:1007900000240122385D009500231146019500F0E8
:1007A0008DF9641C042CF4D300F032F8B0070DD599
:1007B000074E0024361D0022305D032300951146AC
:1007C000019500F07BF9641C042CF4D3BDE8FC8196
:1007D000E4210000094908B5085C0090684600F073
:1007E000B7F9D0F80425009B0121994021EA0203C2
:1007F000C0F808351140C0F80C1508BDE421000010
:100800000249085C012100F0BFB90000E4210000AA
:1008100010B500242046FFF7F3FF641C042CF9D325
:1008200010BD00000249084490F9300070470000F4
:100830006811002070B5084C050009D010342168FB
:10084000002907D008682060496828468847F6E7ED
:100850000834F4E770BD000054110020054A01215E
:1008600020B1012805D19170FFF7E4BF517000203D
:10087000FAE770475411002009490120096809B1BD
:10088000002070470749CA69002AF9D1044A283272
:1008900012688968491E8A42F3D10220704700001D
:1008A000F0100020140000202DE9F0479146884602
:1008B00004464FF480354FF4A0760027DFF884A07B
:1008C00016E000BFD4F8040328420DD0A05958B157
:1008D000C4F84853C4F808533146204600F080F964
:1008E0005AF82810F8B28847361D6D00B6B27F1C42
:1008F0004F45E7D3D4F804034FF4807110F0010F93
:1009000009D0D4F8000130B1204600F069F95AF856
:10091000281004208847D4F804034FF4827110F0A3
:10092000020F0CD0D4F80401002808D0204600F0B3
:1009300057F95AF82810BDE8F04705200847BDE8E8
:10094000F0870000700000200268134602E08A422F
:1009500004D01268002AFAD10B60016070470000D1
:100960001449134A01F1080000F0CAF908B1FFF771
:10097000B3FE104801239A030021083000F072F9F9
:1009800008B1FFF7A9FE0B48083000F0ADF90322CB
:100990000021012000F0CEFF074C4FF0FF356060D2
:1009A0000020FFF717FF2946606801F06DF9F7E7AF
:1009B0001D070000D4210000000000201CB500F03D
:1009C0003BF808B1FFF788FE0120FFF7D9FE09497F
:1009D0000220CDE9000100234FF4827206A10848ED
:1009E00001F010FA0748016841F00401016000F0CD
:1009F00021FFFEE7000000204C45443000000000CD
:100A00006109000010ED00E0C20800F007030120BA
:100A1000895C98400840704700F1804000680028D9
:100A200000D00120704708B500F18040002101602E
:100A30000068009008BD000070B50C4C01252078BE
:100A400008B185260BE00020A06060602061E060B6
:100A5000074800F0E9F8064600F0D0F8257000F0ED
:100A6000C5F800B1A570304670BD000054110020DB
:100A70005D08000070B5104D0446A87838B114B177
:100A80006168012088470020FFF731FE0CE000205C
:100A9000FFF72DFE24B1084821461030FFF754FF20
:100AA000E86808B900F0CEF8E868401CE860BDE8E6
:100AB00070400020FFF71DBE541100202DE9FF41BA
:100AC0001C46DDE90A7815460E46684600F040F8F7
:100AD00046EA450141EA840141EA072242EA084127
:100AE000009A00EB8200C0F80017BDE8FF8113B543
:100AF0000C46684600F03AF8009900EB8101D1F805
:100B0000002722F44032C1F80027009900EB810051
:100B1000D0F8001741EA0441C0F800171CBD0000DE
:100B20003CB50A4CD4E90034CDE900346B46441896
:100B300008E000BF53F82010D1F8205520C2C1F8BA
:100B40002055401C8442F5D83CBD0000F021000037
:100B50000168202902D24FF0A040704701F01F0128
:100B6000016001487047000000030050016820291F
:100B700002D24FF0A040704701F01F010160014810
:100B8000704700000003005038B50124009068460B
:100B900031B1FFF7DDFF00998C40C0F8084538BD42
:100BA000FFF7D6FF00998C40C0F80C4538BD000017
:100BB000034908B50844002101600068009008BDA1
:100BC0000060004002494058012800D000207047D2
:100BD0000060004008B5002242504058009008BD17
:100BE00008B5002242504058009008BD02480068F5
:100BF000002800D001207047000401400848006828
:100C0000012110F0010F06D14FF0E020C02280F842
:100C100000248430C1670349012008607047000048
:100C200000E100E0180500400549024600200B796C
:100C30000BB1852070470A6001220A7170470000DD
:100C40006400002010B54FF48270FFF7ECFE022024
:100C50004107C1F8040302490120086010BD0000EB
:100C6000080000402DE9F04105464FF4A07000EB6C
:100C7000810086B228684FF480348C40C0F8484325
:100C80002868C0F8084322F07F406A79154F02EBCC
:100C900042023A445278002A2A6802EB8101C1F8E4
:100CA000400512D02968D1F80425111A824202D2D7
:100CB0006FF07F400144687900EB40003844807851
:100CC000884202DD0D20BDE8F08133B1314628684D
:100CD000FFF786FF2868C0F804432868C0F844433B
:100CE0000020F0E76C000020016801220A604079D2
:100CF000024A00EB40000221115470476C000020B2
:100D000030B54379204C44F823204279231F02EB6D
:100D100042029A5C0AB1082030BD90F904208C7818
:100D2000002A4FEA441404DB02F1E02282F8004476
:100D300005E002F00F0202F1E02282F8144D90F972
:100D400004200124002A09DB02F01F0504FA05F53E
:100D50005209920002F1E022C2F8005102680D88A7
:100D6000C2F8085545790A7905EB45051D446A70B6
:100D70004279C97802EB42021A449170407900EB43
:100D800040001C54002030BD700000202DE9F84FB9
:100D9000314F05464FF001090024381990F95A10D7
:100DA000491C46D090F85A00294620F0C00630462B
:100DB000FFF72AFE70B3204600F050F882466846DE
:100DC0000096FFF7D3FE009900EB8100D0F80007F2
:100DD000C0F30148B8F1020F1DD002213046FFF7E1
:100DE00086FE68460096FFF7C1FE009A09FA02F1F6
:100DF000C0F820153046FFF715FD57F820204AB1FE
:100E00005046BAF1030F11D0B8F1020F05D0B8F176
:100E1000030F07D00DE00321E0E75046BAF1010FC0
:100E200004D006E05046BAF1020F02D10146304626
:100E30009047641C042CB0D32A4602210020FFF7FF
:100E40006FFE002055F820100029A5D1401C022873
:100E5000F8D3BDE8F88F000068110020024908446B
:100E600090F85A0080097047681100202DE9F04180
:100E7000184C0F460546E6682068001D00F066FB2A
:100E800038B9206890F82C100120884021698143EE
:100E90002161681C07D137B12168BDE8F0410E48D7
:100EA000091D00F08CBB20683544B54245602168BF
:100EB00005D2A06BBDE8F041091D00F068BB606B76
:100EC000091D00F064FBA06A854200D2A562BDE85E
:100ED000F081000014000020181100202DE9F041DD
:100EE000054600F079FB2E4CA068401CA0602068ED
:100EF0002C4F10B1606940B32DE02560A068012837
:100F000029D1002606EB860007EB800000F031FBBC
:100F1000761C032EF6D323483C3000F02AFB2148F0
:100F2000503000F026FB1F48643000F022FB1D48C3
:100F3000783000F01EFB1B488C3000F01AFB19487B
:100F40003C3060631430A06305E02068E96AC06A41
:100F5000884200D82560606A401C6062E96A01200E
:100F6000226988401043206101EB810007EB80007B
:100F7000291D00F024FB00F039FB606900280DD02A
:100F80002068E96AC06A884208D207494FF0805059
:100F9000086040BFBFF34F8FBFF36F8FBDE8F08194
:100FA000140000208C10002004ED00E010B500F0CB
:100FB00013FB0E4C2068A0B90D4800F0DAFA0C487B
:100FC000143000F0D6FA0A48E060143020610022A4
:100FD0001021202000F0AEFC206010B105A100F02F
:100FE00081FBBDE8104000F001BB00005000002074
:100FF0002C110020546D72510000000030B4026CBE
:101000000B46002A0BD0C1681144C1604468A1425C
:1010100001D30168C16030BC1846FFF759B930BC34
:1010200070472DE9F041856B174604460026026C97
:1010300082B1C7B1E068FFF74BF9E168206C091A8B
:10104000E1602268914202D26168081AE060022FD2
:1010500016D017E02068A8B9606800F063FF064664
:10106000002060600EE0A068FFF732F9216CA068F4
:101070000844A0606168884204D32068A06001E051
:1010800005B16D1E6D1CA5633046BDE8F08110B53D
:101090000446006B00F0B4FA2046BDE8104000F0B2
:1010A000AFBA00000A4800210269012A00D90121D3
:1010B0000268D26A0AB100207047064A1268012A03
:1010C000F9D80029F7D1816AC068081A7047000072
:1010D000140000208C1000201A4C1B4E12E000BFA0
:1010E00000F07AFAF068C568281D00F02FFAA068B1
:1010F000401EA0606068401E606000F077FA2846DD
:10110000FFF7C5FF60680028EAD10F48783800680B
:10111000012808D90D494FF08050086040BFBFF347
:101120004F8FBFF36F8FFFF7BDFF0228D5D300F0BD
:10113000B1FBFFF7B7FF022801D300F083FA00F0FC
:10114000A9FFCAE7140000200411002004ED00E00C
:101150002DE9F0470E46DDE90984174682469100E5
:101160009946089DA522206BFFF7C4F86FF0030194
:10117000206B01EB8701084420F0070700202218AC
:10118000315C82F83410315C11B1401C0428F6D374
:10119000002684F83760032D00D30225E562C4E9F8
:1011A0000E56201D00F0F0F904F1180000F0ECF9E3
:1011B0002461C5F103006462A061266484F8446080
:1011C0004A465146384600F0A5F92060B8F1000FB4
:1011D00001D0C8F80040BDE8F087000070B50024D9
:1011E00041600B4D0061914206D8D11A826991424B
:1011F00006D2011D286907E09A4203D2994201D321
:10120000012403E0011DE86800F0C1F9204670BD2B
:101210005000002010B5044600F0DEF9A06B28B1A4
:101220005FF0000400F0E2F9204610BD0124F9E768
:1012300030B589B0264D41E00498002806DADDE992
:101240000601059A90470498002837DB069C6069E0
:1012500010B1201D00F07AF902A800F09DF80246B6
:1012600004980A282AD2DFE800F0050505291E2681
:101270000505291E0598A169034601442046FFF78C
:10128000ADFFD8B1616A20468847E069012815D1D1
:10129000002000900598A1690023421819462046B5
:1012A00000F070FF0AE00598A061811813462046FF
:1012B000FFF794FF02E0204600F0A2F9002204A903
:1012C000286800F067FC0028B6D109B030BD0000E6
:1012D000500000202DE9FC410F46054600F0DAFAE7
:1012E00001A800F059F80446019818B100F0D2FEA8
:1012F000BDE8FC811E4EB7B130690068A8B3002775
:10130000291B3A46306800F001FA00F0C3FE0028BD
:10131000EED118494FF08050086040BFBFF34F8FA7
:10132000BFF36F8FE4E7A542EAD800F0B3FEF068A0
:101330002746C068C468201D00F008F9E06901284C
:101340000FD1A0692B4641193A462046FFF746FFC8
:1013500038B100200346014600902A46204600F09E
:1013600011FF616A20468847C2E7FFE70127C7E708
:101370005000002004ED00E00648416B096829B1E7
:10138000416BC968C9684968816270474FF0FF3195
:10139000FAE700001400002070B5054600F06CFD6F
:1013A000064E0446B068844203D200F009F80120DA
:1013B00000E0002028602046B46070BD500000208E
:1013C000F8B5144D1EE0C068C4680668201D00F022
:1013D000BDF8616A20468847E069012812D1A069FA
:1013E0003044B04206D924616060211DE86800F0F5
:1013F000CEF807E000200346014600903246204622
:1014000000F0C0FEE86801680029DCD12969C5E95F
:101410000310F8BD50000020402080F31188FEE743
:10142000074CE068016841B1C0680021D0F80000B5
:10143000FFF750FFFFF7FCFEF3E701210020F7E77D
:10144000500000202DE9F041044600F0C5F894F961
:10145000455004F1240609E0606A48B1304600F0C6
:10146000E3FD08B100F07CF96D1E6DB2002DF3DCD8
:101470004FF0FF3684F8456000F0B8F800F0ACF8A3
:1014800094F9445004F1100709E0206948B1384646
:1014900000F0CAFD08B100F063F96D1E6DB2002DB9
:1014A000F3DC84F84460BDE8F04100F09FB8000030
:1014B00070B504460025400704D004F00700C0F1D1
:1014C0000800044400F0E6F90A49486818B90A48D7
:1014D00020F0070048600A6840F6F8731019984237
:1014E00004D2904202D94B6808609D1800F0D2FDEA
:1014F000284670BD080000208400002004490868C8
:1015000018B10868C26B521CC263086870470000BB
:101510001400002010B5084C031F24681C601B1F1A
:101520001960191F054B0B6014390A60091F6FF011
:10153000020244380A6010BDEC21000019140000BA
:10154000EFF31180402181F311887047D0E9013217
:1015500001699A60D0E901235A604A68824201D148
:1015600082684A60002202610868401E08600868BC
:10157000704700F108014FF0FF32C0E90112C1606D
:10158000016100210160704700210161704730B5A1
:101590000B685A1C02D000F1080202E0026904E064
:1015A0002246546825689D42FAD953684B60996079
:1015B0008A60516008610168491C016030BD426861
:1015C0004A6093688B609368596091600861016814
:1015D000491C016070470000402080F311880248D8
:1015E0000168491C01607047100000200349086829
:1015F000401E086001D180F3118870471000002060
:101600007047000010B50020FFF734FA0B481F2187
:10161000C0F808150121C0F804138160016002219F
:10162000C0F844130649E02081F800044FF0E0219F
:101630004FF40030C1F8000110BD0000001001405F
:1016400011E000E02DE9F04104462448844200D92D
:10165000044672B6224DD5F80475FFF70DF9D0B3E4
:101660003819012120F07F40C5F80813C5F840055E
:101670004FF4A07841462846FFF7ACFA4FF480308B
:10168000C5F80403BFF34F8F4FF0E02634B120BFFD
:10169000D6F80012D6F804221143F8D0C5F8080392
:1016A00041462846FFF796FA4FF480712846FFF727
:1016B00091FA0120C5F80403D5F804054FF4003170
:1016C000C01B20F07F40C6F88012A04200D92046FF
:1016D00008B100F0D7F862B6BDE8F081FDFFFF0069
:1016E0000010014010B5084B002200BF53F83240F3
:1016F0001CB1521C022AF9D310BD43F8321003EB7F
:10170000C201486010BD00007C10002070B5154675
:101710000E460446FFF760FF94F944100020491C70
:1017200001D184F8440094F94510491C01D184F892
:101730004500FFF75BFFA06B28B92A46314604F14C
:10174000240000F023F82046BDE87040FFF77ABE81
:1017500002490A6A0260C9684160704714000020AB
:1017600001490120C86170471400002010B50C46E3
:10177000054909681831FFF70AFF2046BDE8104007
:101780000121FFF773BB00001400002070B50D4667
:101790000749144609681831FFF711FF0CB14FF0E3
:1017A000FF3521462846BDE87040FFF75FBB0000CB
:1017B0001400002070B5040037D0A06B884200D31D
:1017C0000146E06A884230D0E26B012A2DD1E16205
:1017D000A269002A02DBC1F10301A161134D00EBF4
:1017E0008000616905EB800081421ED1201DFFF75A
:1017F000ADFE0F49012250B9E06A00EB800355F8B5
:10180000233023B90B6902FA00F083430B61E06ACD
:101810000B6982401A430A6100EB800005EB8000EF
:10182000211DBDE87040FFF7CABE70BD8C100020BE
:10183000140000201CB50F480024CDE900402346C9
:101840003C220DA10E4800F0DDFA012811D100F074
:101850007BFC01280DD1402080F311880548611ED2
:101860002C38816201214161C460BDE81C4000F058
:101870003BB81CBD4000002049444C45000000001E
:10188000D91000000249CA681044C86070470000BF
:10189000140000200248016B491C016370470000DE
:1018A000140000200E48016B11B10121C161704785
:1018B0000021C16101690B4AB1FA81F1C1F11F0137
:1018C00001EB810102EB810101F108034A685268D2
:1018D0004A609A4201D152684A60D16801607047FB
:1018E000140000208C1000200E49E02081F8140D17
:1018F000FFF788FE0C49002008600C48016841F49D
:10190000700101600A48016841F0404101600748E8
:101910007838016841F010010160FEF78BFCFFF799
:101920007BFD00000EE000E01000002088ED00E0EC
:1019300034EF00E070B50E00054612D005FB06F04E
:101940004830FFF7B5FD040009D004F148012046F6
:101950004EB10160C0E90F56012100F007F82046A2
:1019600070BD0020ECE70060F4E7000070B50D46A4
:101970000446FFF731FED4E90F12206801FB020094
:1019800060600020A0632068A0600146E06B401EFC
:1019900000FB0210E0604FF0FF3084F8440084F850
:1019A000450004F110004DB1FFF7E3FD04F1240000
:1019B000FFF7DFFDFFF71AFE012070BD2169002946
:1019C000F8D000F031FB0028F4D005494FF08050EA
:1019D000086040BFBFF34F8FBFF36F8FEAE700008F
:1019E00004ED00E02DE9FF4700273C4E82B0994608
:1019F0008A460446B8464FF0805500BFFFF7ECFD1D
:101A0000A06BE16B884206D3B9F1020F03D00498B2
:101A1000C8B1DFB11EE04A4651462046FFF701FB40
:101A2000616A19B104F1240000F0FEFA28B13560B2
:101A300040BFBFF34F8FBFF36F8FFFF7D7FD01207C
:101A400006B0BDE8F087FFF7D1FD21E06846FFF75B
:101A50007FFE0127FFF7CAFDFFF71CFFFFF7BCFD64
:101A600094F94400401C01D184F8448094F9450065
:101A7000401C01D184F84580FFF7B8FD04A96846F1
:101A800000F098F930B12046FFF7DCFC00F002FBD3
:101A90000020D5E7FFF7A0FDA06BE16B884214D1D1
:101AA000FFF7A4FD04F110000499FFF75FFE204644
:101AB000FFF7C8FC00F0EEFA00289FD1356040BF68
:101AC000BFF34F8FBFF36F8F98E7FFF78FFD20466F
:101AD000FFF7B8FC00F0DEFA90E7000004ED00E04C
:101AE0002DE9F0479846174689460446FFF728FD3A
:101AF000A16B0646E06B814208D3B8F1020F05D016
:101B00000020F1B281F31188BDE8F08794F94550C7
:101B1000424649462046FFF784FA681C04D06D1CF3
:101B200084F845500120ECE7606A0028FAD004F1FF
:101B3000240000F079FA0028F4D0002FF2D0012020
:101B40003860EFE770B50E460446FFF7F9FCA16B6D
:101B50000546E06B884218D994F94500491CA163F9
:101B6000411C04D0401C84F8450001200EE0606A4E
:101B70000028FAD004F1240000F056FA0028F4D02E
:101B8000002EF2D001203060EFE70020E9B281F3AF
:101B9000118870BD2DE9F7470026DFF8E88083B093
:101BA0008A460446B1464FF0805700BFFFF714FD48
:101BB000A56BCDB151462046FFF720FA6D1EA563F7
:101BC000206958B104F1100000F02EFA30B1C8F8C5
:101BD000007040BFBFF34F8FBFF36F8FFFF706FD5D
:101BE000012006B0BDE8F087059808B11EB106E0F7
:101BF000FFF7FCFC27E06846FFF7AAFD0126FFF788
:101C0000F5FCFFF747FEFFF7E7FC94F94400401CA2
:101C100001D184F8449094F94500401C01D184F826
:101C20004590FFF7E3FC05A9684600F0C3F80028DB
:101C300020460AD0FFF706FC00F02CFA2046FFF7FA
:101C4000E9FA0028B2D00020CBE7FFF7E3FA98B119
:101C500004F124000599FFF789FD2046FFF7F2FB08
:101C600000F018FA0028A1D1C8F8007040BFBFF3F7
:101C70004F8FBFF36F8F99E72046FFF7E3FB00F02C
:101C800009FA93E704ED00E02DE9F3430026DFF8BD
:101C9000208183B004463546B1464FF0805700BFDF
:101CA000FFF79AFCA06BD0B1401EA063206810B96A
:101CB000FFF724FC6060206958B104F1100000F0C7
:101CC000B3F930B1C8F8007040BFBFF34F8FBFF316
:101CD0006F8FFFF78BFC012005B0BDE8F0830498FF
:101CE00008B11EB106E0FFF781FC5FE06846FFF730
:101CF0002FFD0126FFF77AFCFFF7CCFDFFF76CFC08
:101D000094F94400401C01D184F8449094F94500B2
:101D1000401C01D184F84590FFF768FC04A968468F
:101D200000F048F80028204612D0FFF78BFB00F0A7
:101D3000B1F92046FFF76EFA0028B1D07DB3FFF766
:101D40004BFC606A60B3206B0068C0F1030129E0BE
:101D5000FFF760FAE8B1206838B9FFF73DFC60682A
:101D600000F018F90546FFF741FC04F1240004993E
:101D7000FFF7FCFC2046FFF765FB00F08BF900281D
:101D80008ED1C8F8007040BFBFF34F8FBFF36F8F85
:101D900086E72046FFF756FB00F07CF980E705E078
:101DA000FFE700216068FFF705FD9CE7002093E74F
:101DB00004ED00E02DE9F0410C460546FFF70CFC70
:101DC0000F4BDA686E682168901B4F1C07D02F6894
:101DD0001B6A9F4209D0964207D8012400E00024E4
:101DE000FFF704FC2046BDE8F081814205D9081ABE
:101DF00020602846FFF7ACFCF1E700202060ECE70C
:101E0000140000202DE9FF5F8346DDE90E87994627
:101E100016468A469000FFF74BFB05001AD0482073
:101E2000FFF746FB040012D025630021CDE90241F3
:101E3000CDE900874B46324651465846FFF788F9B0
:101E40002046FFF74BF8012004B0BDE8F09F28467C
:101E5000FFF7D6FB4FF0FF30F6E700000548416979
:101E600019B1006B18B100207047012070470220A3
:101E700070470000140000200148C068704700004F
:101E8000140000202DE9F041244C0027206B40B1C4
:101E9000A069401CA061E06900B101273846BDE897
:101EA000F081E668761CE66008D1606BA16B616327
:101EB000A063206A401C2062FFF75EFAA06A864297
:101EC000E9D3606B006838B1606BC068C56868684A
:101ED000864204D2A062DEE74FF0FF30FAE7281D09
:101EE000FFF734FBA86A18B105F11800FFF72EFBC5
:101EF000E86A01212269814011432161084900EB10
:101F0000800001EB8000291DFFF759FBE86A21687A
:101F1000C96A8842D5D30127D3E700001400002006
:101F20008C10002070B504004FF000012BD0E06B46
:101F3000401EE063A36BE26A9A4224D018BB201DC6
:101F4000FFF704FB114B124A012150B9E06A00EB84
:101F5000800553F8255025B9156901FA00F085432D
:101F60001561A06BE062C0F10300A061E06A156931
:101F700081402943116100EB800003EB8000211DAB
:101F8000FFF71DFB0121084670BD00008C100020EA
:101F90001400002070B504004FF0000038D0204D30
:101FA000E16A2A68D26A914233D2A069002804DB30
:101FB0002868C06AC0F10300A0611A4E01EB8101DC
:101FC000606906EB810188421ED1201DFFF7BEFA31
:101FD000012150B9E06A00EB800256F8222022B9B4
:101FE0002A6901FA00F082432A612868C06AE06227
:101FF0002A6981401143296100EB800006EB8000D3
:10200000211DFFF7DCFA02E02868C06AE0620120C7
:1020100070BDA16B2A68D26A9142F8D370BD0000EE
:10202000140000208C1000202DE9F041C068C46825
:1020300004F118000746FFF789FA144D286B0126B2
:1020400060B11348394600BFFFF7B9FAE06A296862
:10205000C96A884213D90124EE6111E0201DFFF7FF
:1020600075FAE16A2A6906FA01F01043286101EB6A
:1020700081000749643901EB8000211DE4E7002459
:10208000FFF77AF92046BDE8F08100001400002037
:10209000F01000202DE9F04700242646FFF79CFAB7
:1020A000264D286B401E2863286BE8BBA968244F87
:1020B0000120C9B3A7F1640980463868E8B1F8681F
:1020C000C46804F11800FFF741FA201DFFF73EFA3B
:1020D000E06A2A6908FA00F11143296100EB8001E6
:1020E00009EB8100211DFFF76AFAE06A2968C96AD5
:1020F0008842E2D3C5F81C80DFE70CB1FFF73CF95A
:10210000AC694CB14FEA0807FFF7BCFE00B1EF61C4
:10211000641EF9D10020A861E86928B109490126A7
:102120003007086040BF00E003E0BFF34F8FBFF30C
:102130006F8FFFF75BFA3046BDE8F0871400002090
:10214000F010002004ED00E01CB50024FEF72EFF87
:102150000848006858B107490220091DCDE900016F
:102160000023502204A10648FFF74CFE04462046F7
:102170001CBD000050000020546D72205376630097
:10218000211400002DE9FF41114C1F46034626682B
:1021900000200A9D002E0ED08DE80E0006290FDAD1
:1021A000FFF75CFE02284FF0000307D000226946CB
:1021B0002068FFF717FC04B0BDE8F0812A46F6E777
:1021C00000233A4669463046FFF78AFCF3E70000F1
:1021D00050000020000006410000000000400240C6
:1021E000240004000D0E0F100B0C18190000000144
:1021F00000000050000300501822000000000020E2
:102200007C00000088060000942200007C00002072
:10221000543100009806000000000000000000009B
:1022200000000000000000000000000000000000AE
:10223000000000000000000000000000000000009E
:10224000000000000000000000000000000000008E
:10225000000000000000000000000000000000007E
:10226000000000000000000000000000000000006E
:10227000000000000000000000000000000000005E
:10228000000000000000000000000000000000004E
:042290000090D003E7
:0400000500000201F4
:00000001FF
